:100000000C94C7000C94E6000C94E6000C94E600F7
:100010000C94E6000C94E6000C941F040C94E6008B
:100020000C94EF030C94E6000C94E6000C94E600AC
:100030000C94E6000C94E6000C94E6000C94641317
:100040000C94E6000C94E6000C94E6000C94E60098
:100050000C94E6000C94C3150C94E6000C94E60096
:100060000C94E6000C94E6000C94E6000C94E60078
:100070000C94E6000C94E6000C94530F0C94E600EC
:100080000C94E6000C94E6000C94E6006E616E00A1
:10009000696E660000407A10F35A00A0724E18098B
:1000A0000010A5D4E80000E87648170000E40B54DF
:1000B000020000CA9A3B000000E1F50500008096AE
:1000C0009800000040420F000000A08601000000E0
:1000D000102700000000E80300000000640000009A
:1000E00000000A00000000000100000000002C7663
:1000F000D888DC674F0823DFC1DFAE59E1B1B7967E
:10010000E5E3E453C63AE651997696E8E6C28426DA
:10011000EB898C9B62ED407C6FFCEFBC9C9F40F2B6
:10012000BAA56FA5F490055A2AF75C936B6CF96732
:100130006DC11BFCE0E40D47FEF520E6B500D0EDF7
:10014000902E0300943577050080841E080000205F
:100150004E0A000000C80C333333330F986E1283FD
:100160001141EF8D2114893BE65516CFFEE6DB18D1
:10017000D1844B381BF77C1D901DA4BBE424203296
:1001800084725E228100C9F124ECA1E53D2711248F
:100190001FBECFEFD0E1DEBFCDBF18E0A0E0B1E0E1
:1001A000EEEAFFE800E00BBF02C007900D92A23319
:1001B000B107D9F71BE0A2E3B8E001C01D92A33458
:1001C000B107E1F70E94F10B0C94D5470C940000A5
:1001D00081E0809396010895982F15988AB78B7FB8
:1001E0008ABF8AB7877F8ABF17988AB78F7B8ABFF3
:1001F0008AB78F778ABF913031F489B7806289BF1F
:1002000089B7806805C089B78F7D89BF89B78F7727
:1002100089BF9093320808958093A508823061F0D9
:10022000833031F0813099F480916500886007C097
:100230000E940036882331F080916500877F80938B
:100240006500089580916500886080936500089539
:10025000AF92BF92CF92DF92EF92FF920F931F93D4
:1002600080E197E220E731E0F9013197F1F701975A
:10027000D9F7E090300BF090310B81E00E942F17FE
:100280006C0182E00E942F17C80ED91EEC0CFD1CD9
:1002900000E010E0C801B7010E9412445B016C014C
:1002A00026E636E646E655E40E94C8447B018C010A
:1002B00020E030E040E85FE30E94754388231CF4AF
:1002C00061E070E024C0C801B70120E03FEF4FE7D4
:1002D00057E40E94C4441816B4F4C601B50120E0E6
:1002E00030E040E251E40E94C8440E94E64380E7C7
:1002F00091E005C0FC013197F1F761507040611544
:100300007105C1F707C0C801B7010E94E643CB01E0
:100310000197F1F78091050980939601F89481E0A7
:100320000E94C716909309098093080982E00E94F1
:10033000C716909304098093030978948091340B35
:100340008093410980910809909109090E948C17B6
:100350002DB73EB72A5030400FB6F8943EBF0FBEBF
:100360002DBFEDB7FEB7319623E739E0ADB7BEB785
:1003700012963C932E93119720E031E03383228331
:100380006483758386839783809103099091040920
:10039000918780870E9416472DB73EB7265F3F4F53
:1003A0000FB6F8943EBF0FBE2DBF0E949C0D88E88B
:1003B00093E120E731E0F9013197F1F70197D9F79F
:1003C0001F910F91FF90EF90DF90CF90BF90AF9073
:1003D0000895CF92DF92EF92FF920F931F93CF93E6
:1003E000DF9380919601813069F4809155088823CC
:1003F00021F00E9453131092550810924808109251
:100400004708C5C1F89481E00E94C716EC0182E05C
:100410000E94C7166C01789480914808882309F0DF
:1004200076C080914708882309F071C080915508F3
:10043000882321F00E9453131092550880910809D7
:1004400090910909C817D90771F480910309909117
:100450000409C816D90609F49AC180919601823020
:1004600009F040C094C1C817D907E4F581E0809332
:10047000480810924D0810924E0810924F081092A2
:1004800050081092490810924A0810924B08109296
:100490004C0820917D0A30917E0A40917F0A50914C
:1004A000800A209351083093520840935308509388
:1004B00054086091060960935708E0910209E0939F
:1004C00056086195609358086E02B0011124882780
:1004D00077FD8095982F620F731F841F951F0E94D0
:1004E000261503C081E0809347080091300B1091DE
:1004F000310B81E00E942F17800F911F0E9416136D
:100500008093550884E690E00E947C1240C180915F
:1005100055080E940313892B29F0809155088823E0
:1005200009F035C1809155080E9453131092550867
:1005300080914808882309F4E2C0609158088091AE
:100540005608E82FFF27E7FDF095862F992787FDAE
:1005500090959C01E29FC001E39F900DF29F900D4A
:1005600011249C012C9FC0012D9F900D3C9F900D4C
:1005700011247C010027F7FC0095102F80914D0875
:1005800090914E08A0914F08B0915008E80EF91EC6
:100590000A1F1B1FE0924D08F0924E0800934F086F
:1005A000109350089E01442737FD4095542F8091A9
:1005B000490890914A08A0914B08B0914C08820FCD
:1005C000931FA41FB51F8093490890934A08A093D6
:1005D0004B08B0934C086F5F6093580880915708A0
:1005E00086170CF062C0682F772767FD70956E9FA5
:1005F000C0016F9F900D7E9F900D11249C01442798
:1006000037FD4095542F2E153F0540075107B4F094
:10061000882799278E1B9F0B9C01269FC001279F2F
:10062000900D369F900D11249C01442737FD409575
:10063000542FE216F3060407150744F420934D08DF
:1006400030934E0840934F085093500860914D08E6
:1006500060935808772767FD7095872F972F209113
:100660005108309152084091530850915408620F3C
:10067000731F841F951F0E942615109248088091B1
:100680005808882319F01092460805C08091460842
:100690008F5F8093460880914608823080F181E028
:1006A00080934708109246082AC0862F992787FD15
:1006B00090958E9FB0018F9F700D9E9F700D11249D
:1006C000882777FD8095982F209151083091520806
:1006D0004091530850915408620F731F841F951F57
:1006E0000E9426150091300B1091310B81E00E9481
:1006F0002F17800F911F0E94161380935508809129
:100700004708882309F443C080919601823031F470
:100710002091080930910909CE0105C020910309F3
:1007200030910409C601821793074CF49091340B61
:100730008091360B981728F5892F8F5F0BC02817EB
:100740003907FCF49091340B8091370B8917C8F46A
:10075000892F81500E940C34E090300BF090310BC7
:1007600081E00E942F178C0182E00E942F17080F52
:10077000191FC8018E0D9F1D0E94161380935508E6
:1007800006C010924708D0930909C0930809DF9169
:10079000CF911F910F91FF90EF90DF90CF90089530
:1007A0000E9422340E94F93508951F93182F81E08A
:1007B000809396010E94D0038091A508823049F071
:1007C00080E090E90197F1F780916500886080935F
:1007D0006500163011F0109333081F9108951F9291
:1007E0000F920FB60F920BB60F9211242F933F93D7
:1007F0004F935F936F937F938F939F93AF93BF9329
:10080000EF93FF930E940036882331F085E00E9429
:10081000D50381E080934408FF91EF91BF91AF91A0
:100820009F918F917F916F915F914F913F912F9108
:100830000F900BBE0F900FBE0F901F9018951F9238
:100840000F920FB60F920BB60F9211242F933F9376
:100850004F935F936F937F938F939F93AF93BF93C8
:10086000EF93FF930E940036882331F084E00E94CA
:10087000D50381E080934508FF91EF91BF91AF913F
:100880009F918F917F916F915F914F913F912F91A8
:100890000F900BBE0F900FBE0F901F901895609198
:1008A0007D0A70917E0A80917F0A9091800A0E9451
:1008B00026150E94F3358091350B0E940C34089563
:1008C000EF92FF920F931F930D991AC080913208F7
:1008D0008130B1F48BE999E060E171E00E94D84683
:1008E0000E949C0D88EC90E00E947C1280E197E2CF
:1008F00020E731E0F9013197F1F70197D9F792C07C
:100900000F991AC0809132088130B1F48BE999E0D7
:1009100065E271E00E94D8460E949C0D88EC90E050
:100920000E947C1280E197E220E731E0F9013197E3
:10093000F1F70197D9F776C06091380B7091390BB8
:1009400080E090E00E9412447B018C0180E090E006
:100950000E9455349B01AC01C801B7010E94754348
:100960008823B4F48BE999E06AE371E00E94D846E9
:100970000E949C0D88EC90E00E947C1280E197E23E
:1009800020E731E0F9013197F1F70197D9F74AC033
:1009900060913A0B70913B0B80E090E00E94124412
:1009A0007B018C0181E090E00E9455349B01AC01F9
:1009B000C801B7010E9475438823B4F48BE999E01C
:1009C0006FE471E00E94D8460E949C0D88EC90E094
:1009D0000E947C1280E197E220E731E0F901319733
:1009E000F1F70197D9F71EC08091A508813049F031
:1009F00080916500877F8093650080E090E9019792
:100A0000F1F70E944F0480910709813059F4109248
:100A100064088091320B80932E0B8091550A80627E
:100A20008093550A1F910F91FF90EF9008950E94B7
:100A3000C8140895EF92FF920F931F93CF93DF9303
:100A400080915908882309F4C5C61092590883EC8F
:100A500099E062E479E00E94AE1180934009882316
:100A600009F0B8C62091A60880914209281709F01C
:100A7000B1C690914309963009F0CBC480916508C6
:100A8000882309F0B8C4C0914609D09147098091E4
:100A90004409909145098531910509F4D3C3863104
:100AA000910508F063C08A30910509F4B7C28B3014
:100AB000910570F58430910509F4A7C18530910541
:100AC00080F48130910509F4FAC08130910508F471
:100AD000BEC08230910509F418C1039709F068C6B9
:100AE00027C18730910509F431C28830910540F45F
:100AF0008530910509F4FAC1069709F059C612C26A
:100B00008830910509F464C2099709F051C678C28A
:100B10008F30910509F404C38031910580F48C3045
:100B2000910509F49AC28C30910508F485C28D3084
:100B3000910509F4C5C20E9709F03AC6D5C28231B3
:100B4000910509F423C38331910540F48031910567
:100B500009F4FAC2419709F02BC60CC38331910501
:100B600009F422C3449709F023C62CC387329105A8
:100B700009F40CC48832910588F58132910509F495
:100B8000E7C38232910598F48D31910509F4AFC322
:100B90008E31910520F44C9709F00AC693C38E312B
:100BA000910509F4B9C3809709F002C6CCC3843219
:100BB000910509F4DCC38532910540F48232910538
:100BC00009F4CBC3839709F0F3C5CCC385329105F3
:100BD00009F4D2C3869709F0EBC5D3C38D329105D2
:100BE00009F4F2C38E329105B8F48A32910509F402
:100BF000DCC38B32910540F48832910509F4CBC3F4
:100C0000899709F0D5C5CCC38B32910509F4D2C3BD
:100C10008C9709F0CDC5D3C320E18B30920709F43E
:100C20002DC230E18C30930740F48E32910509F4E7
:100C3000D0C38F9709F0BCC5D1C320E18C30920797
:100C400009F42DC28F5F9F4F09F0B2C5CFC3CE010B
:100C5000837090708130910519F0029739F404C0C7
:100C600081E00E94D50302C00E946004CE018C7016
:100C70009070009731F096958795969587950E948C
:100C80000C019E01207330702032310559F0203361
:100C9000310551F02031310509F08AC581E080939A
:100CA000960186C582E001C083E0809305090E9419
:100CB0000036882309F47CC50E94280179C520915B
:100CC000750A3091760A4091770A5091780ACE01E0
:100CD000A0E0B0E082179307A407B50708F4E90184
:100CE0002091690A30916A0A40916B0A50916C0A0E
:100CF000CE01A0E0B0E0281739074A075B0708F4E7
:100D0000E901BE0180E090E0EEC08091370B282F12
:100D100030E02C173D0708F49E018091360B482FD8
:100D200050E0C9014217530708F067C1CA0165C105
:100D3000CE01A0E0B0E08093690A90936A0AA09384
:100D40006B0AB0936C0A2091750A3091760A409133
:100D5000770A5091780A82179307A407B50740F4E1
:100D60002093690A30936A0A40936B0A50936C0A85
:100D70002091790A30917A0A40917B0A50917C0A3D
:100D80008091690A90916A0AA0916B0AB0916C0AED
:100D9000281739074A075B0740F42093690A309304
:100DA0006A0A40936B0A50936C0A8091690A909189
:100DB0006A0AA0916B0AB0916C0A81549C49A040C8
:100DC000B04060F080E49CE9A0E0B0E08093690A64
:100DD00090936A0AA0936B0AB0936C0A2091690AF7
:100DE00030916A0A40916B0A50916C0A80917D0A99
:100DF00090917E0AA0917F0AB091800A2817390746
:100E00004A075B0708F0D4C46CC0CE01A0E0B0E094
:100E10008093750A9093760AA093770AB093780A24
:100E20002091690A30916A0A40916B0A50916C0ACC
:100E3000281739074A075B0740F42093750A309357
:100E4000760A4093770A5093780A20916D0A309180
:100E50006E0A40916F0A5091700A8091750A9091C4
:100E6000760AA091770AB091780A82179307A407AF
:100E7000B50740F42093750A3093760A4093770AB9
:100E80005093780A8091750A9091760AA091770A1A
:100E9000B091780A88599A43A040B04060F488E93C
:100EA0009AE3A0E0B0E08093750A9093760AA0934D
:100EB000770AB093780A2091750A3091760A4091AA
:100EC000770A5091780A80917D0A90917E0AA091CC
:100ED0007F0AB091800A82179307A407B50708F02C
:100EE00067C4CA01B9010E94261562C4C093350BBC
:100EF0004091360B5091330B842F90E0851B910964
:100F00002C2F30E0821793071CF4451B4093350BC0
:100F10009091370B8091350B891708F049C4909355
:100F2000350B46C4C093330B4091360B5091350BB3
:100F3000242F30E0852F90E08C0F911D2817390762
:100F40000CF036C4451B4093330B32C4C093360BB0
:100F50005091350B4091330B2C2F30E0852F90E0D2
:100F6000840F911D281739074CF4450F4093360B19
:100F700005C08091360B81508093360B8091360BE3
:100F80000E9427347B018C0160910F0770E0882755
:100F900077FD8095982F0E94144420E030E040E2D5
:100FA00051E40E9479439B01AC01C801B7010E9442
:100FB000C4441816F4F20E940036882309F4F8C3DA
:100FC0009091360B8091340B981708F0F1C314C040
:100FD000C093370B8091350B8C1710F48093370B2F
:100FE0000E940036882309F4E3C39091370B809167
:100FF000340B891708F0DCC3892F0E940C34D8C346
:10100000C0930209CB301CF08AE0809302098091E2
:10101000020987FFCDC310920209CAC3C093060913
:10102000CB301CF08AE0809306098091060987FF87
:10103000BFC310920609BCC3D0933D0BC0933C0BB9
:101040008091380B9091390BC817D90708F0B0C3BD
:10105000D093390BC093380BABC3D093390BC093EB
:10106000380B80913C0B90913D0B8C179D0708F03D
:101070009FC39093390B8093380B9AC3D0933F0B47
:10108000C0933E0B80913A0B90913B0BC817D90748
:1010900008F08EC3D0933B0BC0933A0B89C3D09317
:1010A0003B0BC0933A0B80913E0B90913F0B8C17FA
:1010B0009D0708F07DC390933B0B80933A0B78C358
:1010C0008091A108282F30E02C173D0708F49E01DD
:1010D00080912807482F50E0C9014217530708F4B0
:1010E000CA010E94393664C3C093410B409128075E
:1010F0005091420B842F90E0851B91092C2F30E0FA
:10110000821793071CF4451B4093410B9091A10853
:101110008091410B891708F04BC39093410B48C352
:10112000C093420B409128075091410B842F90E0CF
:101130008C1B9109252F30E0821793070CF038C3E0
:10114000451B4093420B34C3D0930E07C0930D0749
:10115000C85ED340C55FD14030F080EB94E09093FF
:101160000E0780930D0760910D0770910E078CE2BA
:1011700090E0E6C0C0930F07C53618F084E6809370
:101180000F078FE390E060910F072DC1C093E2013C
:101190009E012451293218F087E38093E20188E40C
:1011A00090E06091E2011FC1C093E3019E012451D0
:1011B000293218F08EE18093E30189E490E0609198
:1011C000E30111C1CE01A0E0B0E08093790A9093D1
:1011D0007A0AA0937B0AB0937C0A81549C49A04070
:1011E000B04060F080E49CE9A0E0B0E08093790A30
:1011F00090937A0AA0937B0AB0937C0A2091690AA3
:1012000030916A0A40916B0A50916C0A8091790A78
:1012100090917A0AA0917B0AB0917C0A8217930779
:10122000A407B50740F42093790A30937A0A4093D3
:101230007B0A50937C0A6091790A70917A0A8AE459
:1012400090E07EC0CE01A0E0B0E080936D0A909364
:101250006E0AA0936F0AB093700A88599A43A0400F
:10126000B04060F488E99AE3A0E0B0E080936D0AB2
:1012700090936E0AA0936F0AB093700A2091750A3A
:101280003091760A4091770A5091780A80916D0AE0
:1012900090916E0AA0916F0AB091700A28173907D1
:1012A0004A075B0740F420936D0A30936E0A40931F
:1012B0006F0A5093700A60916D0A70916E0A8CE407
:1012C00090E03EC0D093900AC0938F0AC45FD14093
:1012D000659730F08FEF91E09093900A80938F0A9A
:1012E00060918F0A7091900A80E490E029C0D093B9
:1012F000A10AC093A00AC45FD140659730F08FEF78
:1013000091E09093A10A8093A00A6091A00A709145
:10131000A10A82E490E014C0D093B20AC093B10A4B
:10132000C45FD140659730F08FEF91E09093B20A9F
:101330008093B10A6091B10A7091B20A84E490E09E
:101340000E94C04735C2C09334088FE290E04AC083
:10135000C093350880E390E045C0C093360881E330
:1013600090E040C0C093370882E390E03BC0C09358
:10137000380883E390E036C0C093390884E390E0F6
:1013800031C0C0933A0885E390E02CC0C0933B087D
:1013900086E390E027C0C0933C0887E390E022C03A
:1013A000C0933D0888E390E01DC0C0933E0889E3E8
:1013B00090E018C0C0933F088AE390E013C0C09348
:1013C00040088BE390E00EC0C09341088CE390E0AE
:1013D00009C0C09342088DE390E004C0C093430865
:1013E0008EE390E06C2F0E94B347E2C10E94CE19B9
:1013F0000E94621DDDC1209342099093430981E060
:1014000080936E098FEF9FEF909345098093440975
:101410007EC1933009F0DEC12093420990934309C5
:1014200081E080936E09809144099091450900976D
:1014300009F085C089E090E09093450980934409C4
:101440000E940036882319F421E030E002C022E037
:1014500030E08091A50890E0880F991F880F991FB0
:10146000282B392B8091960190E054E0880F991F2A
:101470005A95E1F7282B392B8091650890E046E0DA
:10148000880F991F4A95E1F7282B392B309347098C
:101490002093460980917D0A90917E0A9093490994
:1014A000809348098091340B80934A0910924B092C
:1014B0008091400B80934C0910924D0980E090E0A0
:1014C0000E9455347B018C0181E090E00E945534EC
:1014D0009B01AC01C801B7010E94C44418161CF45A
:1014E00080E090E002C081E090E00E94553420E06E
:1014F00030E040E251E40E94C8440E94E14370930E
:101500004F0960934E0980E00E94C71690935109DD
:101510008093500981E00E94C716909353098093ED
:10152000520982E00E94C71690935509809354098E
:1015300080913308809356091092570939C1813040
:10154000910509F056C08CE090E090934509809396
:1015500044098091690A90916A0A9093470980939F
:1015600046098091750A9091760A90934909809373
:101570004809EAE4F9E08091350B80934A0910921A
:101580004B098091330B80934C0913828091360B69
:1015900080934E0915828091370B809350091782F2
:1015A00080910209992787FD909590935309809324
:1015B000520980910609992787FD909590935509C6
:1015C000809354098CE39BE09093570980935609CC
:1015D00088E39BE090935909809358098091410BCF
:1015E00080935A09118A8091420B80935C09138A77
:1015F000DFC08230910509F047C086E090E090930B
:1016000045098093440980E090E00E94553420E031
:1016100030E040E251E40E94C8440E94E6437093E7
:1016200047096093460981E090E00E94553420E02C
:1016300030E040E251E40E94C8440E94E6437093C7
:1016400049096093480980913C0B90913D0B909320
:101650004B0980934A098091380B9091390B9093F4
:101660004D0980934C0980913E0B90913F0B9093D4
:101670004F0980934E0980913A0B90913B0B9093C8
:1016800051098093500994C08031910559F481E04B
:1016900090E0909345098093440980910D079091C3
:1016A0000E0735C08131910549F481E090E09093B7
:1016B00045098093440980910F070BC08231910541
:1016C00069F481E090E0909345098093440980910A
:1016D000E20180934609109247096AC0833191055F
:1016E00049F481E090E0909345098093440980910A
:1016F000E301EFCF8431910579F481E090E090939C
:101700004509809344098091790A90917A0A9093CF
:101710004709809346094CC08531910559F481E011
:1017200090E0909345098093440980916D0A9091CF
:101730006E0AEDCF8C31910559F481E090E09093E1
:1017400045098093440980918F0A9091900ADFCFD8
:101750008D31910559F481E090E090934509809393
:1017600044098091A00A9091A10AD1CF8E319105B0
:1017700059F481E090E09093450980934409809169
:10178000B10A9091B20AC3CF809791F480E190E0C2
:101790009093450980934409A4E3B8E0E6E4F9E0B6
:1017A0008D9180831182329638E0A434B307C1F75B
:1017B00082E499E067EA78E04BE550E00E9422116C
:1017C00087EA98E060E070E040E050E02CE231E031
:1017D0000E94910FDF91CF911F910F91FF90EF9099
:1017E0000895AF92BF92CF92DF92EF92FF920F9344
:1017F0001F93CF93DF930E94EC120E947A120E94F3
:10180000E5330E9408360E94E4130E94570D0E949F
:10181000DA350E94E71481E00E945B168091640033
:101820008860809364000E9437180E94EC180E9420
:10183000451E0E94CE1940913C0950913D0960918E
:101840003E0970913F0982E00E94D70D0E94BC0DB5
:101850008091410B0E94393680E00E94D503789434
:10186000809132080E94EC0084EF91E00E947C128B
:1018700088E893E120E731E0F9013197F1F701972A
:10188000D9F788EC90E00E947C1280ED97E020E789
:1018900031E0F9013197F1F70197D9F788EC90E041
:1018A0000E947C12FBE9AF2EF9E0BF2EE4E8CE2EB9
:1018B000E1E0DE2EC0E7D1E00E94D0180E94E901ED
:1018C00080914408882391F08BE999E064E671E007
:1018D0000E94D84688EC90E00E947C1280ED97E050
:1018E000FE013197F1F70197D9F799C0809145082A
:1018F000882391F08BE999E060E171E00E94D8467D
:1019000088EC90E00E947C1280ED97E0FE01319718
:10191000F1F70197D9F783C00D9909C0809132087A
:10192000813029F48BE999E060E171E00AC00F99F8
:101930000BC080913208813039F48BE999E065E27F
:1019400071E00E94D8466BC060913C0B70913D0BDA
:1019500080E090E00E9412447B018C0180E090E0E6
:101960000E9455349B01AC01C801B7010E94754328
:1019700088232CF48BE999E06AE371E0E2CF60916F
:101980003E0B70913F0B80E090E00E9412447B017F
:101990008C0181E090E00E9455349B01AC01C801AC
:1019A000B7010E94754388232CF48BE999E06FE41A
:1019B00071E0C7CF0E940036882319F42AE731E08E
:1019C00002C02FE731E08091650083FF03C08AE702
:1019D00091E002C08FE791E04DB75EB748505040AC
:1019E0000FB6F8945EBF0FBE4DBFEDB7FEB7319690
:1019F000ADB7BEB71296BC92AE921197D382C28297
:101A000035832483978386830E9416474DB75EB73C
:101A1000485F5F4F0FB6F8945EBF0FBE4DBF0E9488
:101A20009C0D0E9468340E941A0546CF883A11F432
:101A300082EA0895883B11F485EB0895803C28F0F4
:101A4000E82FF0E0E952FF4F80810895F8949798CD
:101A5000E5E6F0E090819E7F908385BB8081826087
:101A6000808384E08A95F1F780818D7F80837894EC
:101A700085EF8A95F1F70895F894979AE5E6F0E0F6
:101A800090819E7F908385BB80818260808384E08B
:101A90008A95F1F780818D7F8083789485EF8A9590
:101AA000F1F708950E94160D0E943C0D08958F9A3B
:101AB0008091640081608093640080916400826002
:101AC000809364008FEF84BB88EE93E020E731E0E1
:101AD000F9013197F1F70197D9F788E30E94260DB4
:101AE0008CE00E94260D86E00E94260D81E00E9477
:101AF000260D8CEC9CE10197F1F7089581E00E949E
:101B0000260D8CEC9CE10197F1F70895CF93DF93BC
:101B1000EB018295880F880F807C80580E94260DEB
:101B2000209721F406C021960E94520D88818823B7
:101B3000D1F7DF91CF91089580E06BE979E00E94C1
:101B4000860D81E063E779E00E94860D0895CF93CA
:101B5000DF93EC01009721F406C021960E94520DFC
:101B600088818823D1F7DF91CF9108958091040A6D
:101B700008958091030A08958CE080939D0010924F
:101B8000030A089586E080939D0081E08093030A14
:101B9000089586E080939D0082E08093030A089573
:101BA00086E080939D0083E08093030A08951F934D
:101BB000182F9A01AB0160E070E18EE090E00E9486
:101BC0007145215030401093040A10929B0088E127
:101BD00080939A008CE080939D003093980020932E
:101BE000990080939D001092030A1123A9F08C9A0A
:101BF000113051F480919A008F7E80939A00949ACC
:101C000080919A008F770BC0123059F480919A001E
:101C1000806180939A00949880919A008068809364
:101C20009A001F9108958091040A882379F0949A6C
:101C300080919A008F7E80939A0080E098E40197CB
:101C4000F1F780919A008F7780939A0008958091A0
:101C5000040A8823B9F080919B0086FFFCCF8CECAE
:101C60009CE10197F1F780919A00806180939A003E
:101C7000949880E098E40197F1F780919A00806849
:101C800080939A000895982F80919B0085FFFCCF48
:101C900090939C0080E090E0089580919B0087FFE6
:101CA000FCCF80919C0090E0089520919B0030E053
:101CB00020783070C9010895982F8A3341F48093B9
:101CC000C30981E080935A08109259080EC0809190
:101CD0005A08882351F080915A08E82FF0E0ED531C
:101CE000F64F90838F5F80935A088091C3098A339F
:101CF000B1F4E0915A08F0E0EF53F64F80818D3057
:101D000071F4E0915A08F0E0EE53F64F80818A308A
:101D100031F481E08093590810925A080895809117
:101D20005A08803421F410925A08109259080895E4
:101D3000982F833241F48093C30981E080935A083D
:101D4000109259080EC080915A08882351F0809152
:101D50005A08E82FF0E0ED53F64F90838F5F8093A1
:101D60005A088091C309833271F4E0915A08F0E077
:101D7000EE53F64F80818D3031F481E08093590825
:101D800010925A08089580915A08803421F41092D4
:101D90005A08109259080895982F8E3789F4809127
:101DA0005A08882369F41092590880915A08E82F3C
:101DB000F0E0ED53F64F90838F5F80935A0814C084
:101DC00080915A08882381F080915A08843060F409
:101DD00080915A08E82FF0E0ED53F64F90838F5F23
:101DE00080935A08109259088091C3098E3751F494
:101DF00080915A08843031F410925A0881E080931F
:101E00005908089580915A08803469F423EC39E028
:101E1000C90160E070E040E450E00E94D1461092B9
:101E20005A08109259080895982F8E3371F08A300D
:101E300061F080915A08E82FF0E0ED53F64F90835F
:101E40008F5F80935A0810925908E0915A08F0E089
:101E500023EC39E0EE53F64F80818D30A1F481E020
:101E60008093590880915A08803450F480915A0820
:101E7000E82FF0E0E20FF31F10828F5F80935A0883
:101E800010925A08089580915A08803459F4C90173
:101E900060E070E040E450E00E94D14610925A08A1
:101EA0001092590808951F920F920FB60F920BB619
:101EB0000F9211242F933F934F935F936F937F93D0
:101EC0008F939F93AF93BF93EF93FF9380919C0069
:101ED0009091030A913051F0913028F0923049F0FE
:101EE000933061F409C00E945C0E08C00E94980EF5
:101EF00005C00E94140F02C00E94CC0EFF91EF910A
:101F0000BF91AF919F918F917F916F915F914F9111
:101F10003F912F910F900BBE0F900FBE0F901F900F
:101F20001895CF92DF92EF92FF920F931F93CF936A
:101F3000DF93EC017B01D42EC52E89018091040A28
:101F4000823011F40E94130E8091030A8823A9F4B1
:101F500090E007C080919B0085FFFCCFE0939C0040
:101F60009F5FFE01E90FF11DE081EA3099F7809152
:101F70009B0085FFFCCF8AE016C08130B9F490E069
:101F800007C080919B0085FFFCCFE0939C009F5F82
:101F9000FE01E90FF11DE081ED3099F780919B0082
:101FA00085FFFCCF8DE080939C0013C0833089F4C3
:101FB00020E030E0FE01E20FF31FE08180919B0002
:101FC00085FFFCCFE0939C002F5F3F4F243031050D
:101FD00089F7E114F10441F48091040A823011F48C
:101FE0000E94270E10E03BC00E94270EC8010E94ED
:101FF0001613082F25C080919A008F7780939A003E
:10200000809159088823B9F0109259088D2D9C2D84
:102010009C01F9012134310510F0E0E4F0E023ECFB
:1020200039E0C701B901AF010E94C846802F0E9464
:10203000531310E00BC080919A00806880939A003F
:10204000802F0E940313892BB1F617E0802F0E9486
:1020500053138091040A813011F40E94130E812FD2
:10206000DF91CF911F910F91FF90EF90DF90CF9074
:102070000895FB018F708A3010F4805D01C0895C87
:10208000808380E00895FB01982F92959F709A308D
:1020900010F4905D01C0995C90838F708A3010F4C9
:1020A000805D01C0895C818380E00895FF920F9379
:1020B0001F93F82E8B01892F0E9443100E5F1F4F34
:1020C0008F2DB8010E94431080E01F910F91FF9067
:1020D0000895982FFB018154863020F49753908304
:1020E00080E00895892F80538A3010F082E00895AF
:1020F000808380E00895CF92DF92EF92FF920F935A
:102100001F93DF93CF930F92CDB7DEB77C018B0186
:10211000FC0180816E010894C11CD11CB6010E9493
:102120006910282F882381F489818295807FF801A6
:102130008083F7018181B6010E946910282FF80180
:1021400080819981890F8083822F0F90CF91DF91B9
:102150001F910F91FF90EF90DF90CF900895CF9255
:10216000DF92EF92FF920F931F93DF93CF930F9223
:10217000CDB7DEB77C018B016E010894C11CD11C68
:10218000B6010E947B10382F882391F48981F801D1
:1021900010828183C7010296B6010E947B10382FFE
:1021A0002981F80180819181820F911D9183808323
:1021B000832F0F90CF91DF911F910F91FF90EF90A0
:1021C000DF90CF9008956F927F928F929F92AF92FF
:1021D000BF92CF92DF92FF920F931F93DF93CF9323
:1021E0000F92CDB7DEB75C016B014A0100E010E051
:1021F000FF243E010894611C711C0CC0C501800FB6
:10220000911FB3010E947B10882369F40E5F1F4F5A
:102210008981F80E0C151D0588F38F2D8195B40169
:102220000E94431080E00F90CF91DF911F910F919A
:10223000FF90DF90CF90BF90AF909F908F907F9056
:102240006F900895CF92DF92FF920F931F93CF93D9
:10225000DF938C016B01DC019C968C919C97813003
:1022600039F411968C91833019F48BE590E002C01B
:1022700081E190E04817590710F494E066C0F60138
:102280008AE38193D8018C91BF010E944310B6016B
:102290006D5F7F4FF80181810E944310E601259612
:1022A000D8019C968C919C97813071F411968C91F9
:1022B0001197833049F412968C91880FBE010E94C9
:1022C0004310E601279607C0F80182819381BE0181
:1022D0000E9456102496D80114968D919C911597C2
:1022E000BE010E9456102496F80184A58130E1F4C5
:1022F00081818330C9F4FF24F3940CC03296EE0F31
:10230000FF1FE00FF11F80819181BE010E945610D6
:102310002496F394EF2DF0E0D80112968D919C91C4
:102320001397E817F90750F3B601609570956C0F95
:102330007D1FC6010196AE010E94E310982F8823ED
:1023400021F48DE08A838AE08B83892FDF91CF91FE
:102350001F910F91FF90DF90CF900895AF92BF92A1
:10236000CF92DF92EF92FF920F931F93DF93CF9361
:1023700000D00F92CDB7DEB76C018B018DE2FB016F
:1023800011928A95E9F7F60160E070E080818D3066
:10239000B9F481818A30A1F442E0A42EB12CA60EBA
:1023A000B71E76010894E11CF11C63507040C70110
:1023B000AE014E5F5F4F0E94E310882349F08CC04E
:1023C0006F5F7F4F31966B35710501F785E084C0F3
:1023D000F601EA0DFB1D34979A8180813496981797
:1023E00009F077C033979B818081981709F071C0FD
:1023F000C701B8010E947B10882309F06DC033E04B
:10240000E32EF12CEC0CFD1CB8016F5F7F4FC70170
:102410000E947B10882309F05FC0F801818183301E
:1024200009F044C0F1E1AF16B10409F43FC081E006
:10243000F80184A725E0E22EF12CEC0CFD1CC7016D
:10244000BE016F5F7F4F0E947B10D82E882309F05A
:1024500042C089818695843118F084E190E001C002
:1024600090E0F8019383828382E090E0E80EF91E09
:10247000198212C06E5F7F4F660F771F600F711F4A
:10248000C7010E94AF10882339F589818F5F898346
:10249000E4E0F0E0EE0EFF1E8981682F70E0F801A5
:1024A000828193816817790728F315C0F80114A673
:1024B000B8016E5F7F4FC70102960E94AF1088235C
:1024C00059F40C5F1F4FC7010696B8010E94AF1068
:1024D00003C083E001C08D2D0F900F900F90CF911E
:1024E000DF911F910F91FF90EF90DF90CF90BF9001
:1024F000AF900895899A0895AF92BF92CF92DF92DC
:10250000EF92FF920F931F93919AA0E0B0E0BC016D
:10251000CD010E9412445B016C0126E636E646E6D8
:1025200055E40E94C8447B018C0120E030E040E883
:102530005FE30E94754388231CF461E070E024C0CF
:10254000C801B70120E03FEF4FE757E40E94C444C1
:102550001816B4F4C601B50120E030E040E251E4C1
:102560000E94C8440E94E64380E791E005C0FC0158
:102570003197F1F76150704061157105C1F707C0DF
:10258000C801B7010E94E643CB010197F1F791988A
:102590001F910F91FF90EF90DF90CF90BF90AF9081
:1025A00008959C01919A8091070A9091080A8217D8
:1025B000930738F08091070A9091080A8F5F9F4F28
:1025C00051F48FEF2F3F380711F42EEF3FEF309388
:1025D000080A2093070A089580E090E02FEF3FEF6C
:1025E000FC01EE0FFF1FEB5FF54F31832083019657
:1025F00080329105A9F787B7826087BF83E781BFE3
:102600008DE083BF08959FB7F894803218F0E0E022
:10261000F0E009C0E82FF0E0EE0FFF1FEB5FF54F91
:102620000190F081E02D9FBFCF0108959C015FB71D
:10263000F894A2E0B0E04A2FFD01EE0FFF1FEB5F20
:10264000F54F808191818F5F9F4F71F48FEF2F3F06
:10265000380711F42EEF3FEFAA0FBB1FAB5FB54F4A
:1026600011963C932E9305C04F5F1196A032B10591
:1026700011F75FBF842F08952FB7F8943FEF8F3F76
:10268000930711F48EEF9FEF9093060A8093050A4B
:102690002FBF2FB7F8948091050A9091060A2FBF9B
:1026A000892BB9F70895E82F2FB7F89482508E310F
:1026B00048F4F0E0EE0FFF1FEB5FF54F8FEF9FEF59
:1026C000918380832FBF08951F920F920FB60F92B0
:1026D0000BB60F9211242F933F934F935F936F93F9
:1026E0007F938F939F93AF93BF93EF93FF9320E0DC
:1026F00030E0F901EE0FFF1FEB5FF54F8081918114
:10270000892B51F0808191818F5F9F4F29F08081CB
:1027100091810197918380832F5F3F4F2032310554
:1027200041F78091070A9091080A019709F491985E
:102730000E9417058091D7019091D801019790933D
:10274000D8018093D7010196C9F480915B089091DC
:102750005C08A0915D08B0915E080196A11DB11DB5
:1027600080935B0890935C08A0935D08B0935E082B
:102770008AEE93E09093D8018093D70180915F080F
:1027800090916008A0916108B09162080196A11D26
:10279000B11D80935F0890936008A0936108B09387
:1027A0006208FF91EF91BF91AF919F918F917F91BF
:1027B0006F915F914F913F912F910F900BBE0F90B2
:1027C0000FBE0F901F9018951092550A8FEF8093AF
:1027D000680A8093660AE5E4FAE0119211928AE0B1
:1027E000E535F807D1F78FEF84BB889808951092EC
:1027F000550A08952091680AE82FF0E030E0082E8D
:1028000002C0359527950A94E2F720FF24C08091F5
:10281000660A90E00E2E02C0959587950A94E2F71D
:1028200080FD19C02091550A81E090E00E2E02C073
:10283000880F991F0A94E2F7282B2093550AEE0F70
:10284000FF1FDF01AB5BB54F1D921C92EA5AF54F9B
:102850001182108208958091680A90E00E2E02C0C5
:10286000959587950A94E2F780FD10C08091660ADD
:1028700090E00E2E02C0959587950A94E2F780FFAE
:1028800005C082E390E00E94D11208958091680A09
:1028900090E00E2E02C0959587950A94E2F780FD90
:1028A00036C08091660A90E00E2E02C095958795FD
:1028B0000A94E2F780FD2BC04091D9015091DA01D2
:1028C0002091DB013091DC01240F351FDF01AA0FBD
:1028D000BB1FAB5BB54F8D919C91119701961196E3
:1028E0009C938E932817390790F42091550A81E024
:1028F00090E002C0880F991FEA95E2F7282B2093F9
:10290000550A4D935C9384E190E00E94D1120895A2
:10291000FF920F931F93CF93DF938091680A809368
:10292000660AC0E0D0E001E010E028E1F22E4C2F72
:1029300098010C2E02C0220F331F0A94E2F7822F57
:10294000809585BB8F2D8A95F1F790E080E0809986
:102950009F5F8F5F8A30D9F7983020F08091680AA6
:10296000822B07C0933038F49091680A822F8095AB
:1029700089238093680A842F0E94FA132196C83015
:10298000D105A9F6DF91CF911F910F91FF90089586
:102990008091670A81508093670A8F5F29F48AE0EB
:1029A0008093670A0E9488140895C39AC29820E011
:1029B00097FF02C0C49A01C0C498C398C39A2F5FFE
:1029C000203119F0880F991FF3CFC29A0895BA9A4F
:1029D000BB9ABC9A80E090E10E94D51480E090EC14
:1029E0000E94D51480E090EE0E94D51488E690E213
:1029F0000E94D5140895EF92FF920F931F937B01CD
:102A00008C0188E690E20E94D5148FEF9FEFAFEF24
:102A1000BFE0E822F9220A231B23C7019F739064B9
:102A20000E94D5144EE016950795F794E7944A95C1
:102A3000D1F7AFEFBFE3EA22FB22C70190640E9407
:102A4000D5141F910F91FF90EF900895AF92BF9210
:102A5000CF92DF92EF92FF920F931F93E090750A4F
:102A6000F090760A0091770A1091780A20916D0A09
:102A700030916E0A40916F0A5091700A2E153F05F1
:102A80004007510710F4A801970126173707480798
:102A9000590710F49B01AC0128398AE3380780E01C
:102AA000480780E0580720F428E93AE340E050E086
:102AB000E090790AF0907A0A00917B0A10917C0AE2
:102AC0008091690A90916A0AA0916B0AB0916C0A90
:102AD000E816F9060A071B0710F4D801C701BC0164
:102AE000CD016134ECE97E07E0E08E07E0E09E076F
:102AF00020F060E47CE980E090E026173707480783
:102B0000590710F4CA01B90160937D0A70937E0AD7
:102B100080937F0A9093800A28EC30E040E050E0F8
:102B20000E942B455B016C019B01A60160E070E0F7
:102B300080E090E00CE10E94D138AA24BB24E1EEB1
:102B4000CE2EDD24EE24FF2400E010E00E94503958
:102B5000122F032FF42EE52E622F702F8F2D9E2D16
:102B60000E94FB141093710A0093720AF092730A88
:102B7000E092740A1F910F91FF90EF90DF90CF9039
:102B8000BF90AF9008951F920F920FB60F920BB6A1
:102B90000F921124DF92EF92FF920F931F932F93C6
:102BA0003F934F935F936F937F938F939F93AF93D5
:102BB000BF93CF93DF93EF93FF9354B145B1D09080
:102BC000B50AED2DF0E0EC51FE4F208130E0942F5E
:102BD00080E0850F911DE90144E0CC0FDD1F4A958F
:102BE000E1F7C20FD31FCF57D54F9F838E832E851A
:102BF0003F85821B930B088802C0959587950A94A0
:102C0000E2F77C010027F7FC0095102F8885998555
:102C1000AA85BB85E80EF91E0A1F1B1FE886F986E8
:102C20000A871B878A819B8101969B838A832C81DB
:102C30003D818217930770F01B821A8240E050E0BA
:102C4000C801B7010E9493453D872C8718861986D5
:102C50001A861B86ED2DEF5FE093B50AF0E0EC518C
:102C6000FE4F80818F3F11F41092B50AE091B50AB2
:102C7000F0E0EC51FE4F80819091B40A890F87B942
:102C8000369AFF91EF91DF91CF91BF91AF919F91D4
:102C90008F917F916F915F914F913F912F911F91F4
:102CA0000F91FF90EF90DF900F900BBE0F900FBE33
:102CB0000F901F901895282F80936308E1E8FAE0A1
:102CC00035E080E092E01082318313821282958396
:102CD00084831782168210861186128613861586C3
:102CE000148617861686108A71964AE0E43BF4072C
:102CF00051F78FEF91E09093900A80938F0A909311
:102D0000A10A8093A00A87E086B9379A80E480936D
:102D1000B40A213049F41092B50A8091E401805C34
:102D200087B9339A369A08951092B50A8091E401D2
:102D3000805C87B933980895982F833008F090E02D
:102D40008091B40A890F87B9369A3699FECF54B16B
:102D500045B1892F90E0342F20E0250F311DFC0173
:102D600054E0EE0FFF1F5A95E1F7E80FF91FEF57F8
:102D7000F54F3783268386859785281B390B008876
:102D800002C0359527950A94E2F7C901089590E0AD
:102D9000FC0164E0EE0FFF1F6A95E1F7E80FF91FF1
:102DA000EF57F54F84859585089590E0FC0174E018
:102DB000EE0FFF1F7A95E1F7E80FF91FEF57F54F78
:102DC0002681378186859785281B390B008802C0AC
:102DD000359527950A94E2F7C901089590E0FC0122
:102DE000A4E0EE0FFF1FAA95E1F7E80FF91FEF57D8
:102DF000F54F848195810895833008F080E0611556
:102E0000710511F461E070E090E0FC01B4E0EE0FB8
:102E1000FF1FBA95E1F7E80FF91FEF57F54F7583DC
:102E20006483089590E0FC0124E0EE0FFF1F2A95D3
:102E3000E1F7E80FF91FEF57F54F818108958330CF
:102E400008F080E090E0FC0134E0EE0FFF1F3A95BF
:102E5000E1F7E80FF91FEF57F54F6183089590915F
:102E60006308282F30E0913091F4F90154E0EE0F1F
:102E7000FF1F5A95E1F7E20FF31FEF57F54F8481DB
:102E800095816AE070E00E944A45AB0115C0F901E6
:102E900044E0EE0FFF1F4A95E1F7E20FF31FEF57F3
:102EA000F54F818190E024813581829FA001839F2D
:102EB000500D929F500D1124CA0108952091E101F7
:102EC00030E0829FB001839F700D929F700D11249E
:102ED000882777FD8095982F0E94144420E030E0E9
:102EE0004AE754E40E94794308952091E20130E0DA
:102EF000829FB001839F700D929F700D11248827CF
:102F000077FD8095982F0E94144420E030E04AE736
:102F100054E40E94794308952091E30130E0829FB8
:102F2000B001839F700D929F700D1124882777FD4B
:102F30008095982F0E94144420E030E04AE754E442
:102F40000E94794308958F929F92AF92BF92CF9241
:102F5000DF92EF92FF920F931F93CF93DF93E09155
:102F6000B50AF0E0EC51FE4FD080809163088130CB
:102F700009F470C08D2C9924F401A4E0EE0FFF1F1A
:102F8000AA95E1F7E80DF91DEF57F54F80818823E9
:102F900029F00E940313892B09F04FC0E40174E06B
:102FA000CC0FDD1F7A95E1F7C80DD91DCF57D54F4E
:102FB000E884F9840A851B858D2D0E949C165C018E
:102FC000CC24B7FCC094DC2CAE0CBF1CC01ED11EA0
:102FD000A886B986CA86DB868A819B8101969B83F7
:102FE0008A834C815D819A0121503040281739072E
:102FF00078F41B821A829A0140E050E0C601B501C4
:103000000E9493453D872C87188619861A861B8651
:10301000840164E0000F111F6A95E1F7080D191D86
:103020000F57154FF80180810E945313F8018181D9
:1030300090E00E941613F8018083E091B50AEF5FDB
:10304000E093B50AF0E0EC51FE4F80818F3F11F420
:103050001092B50ADF91CF911F910F91FF90EF90E1
:10306000DF90CF90BF90AF909F908F90089520E019
:1030700030E04CE350E0F901E25DF44F1082249F10
:10308000F001259FF00D349FF00D1124EA54F54F07
:1030900080E090E01192119201968E319105D1F766
:1030A0002F5F3F4F2230310531F70895809164083A
:1030B0008F5F80936408823011F410926408089541
:1030C00080916408882319F482E0809364088091D9
:1030D0006408815080936408089580916408282FC3
:1030E00030E0F901E25DF44F80818F5F80838E31A3
:1030F00009F41082D901A25DB44F8C91F90145E029
:10310000EE0FFF1F4A95E1F7220F331FE21BF30B6F
:10311000E80FF11DEE0FFF1FEA54F54F80819181FA
:10312000892B09F41C92089580916408A82FB0E0BF
:10313000FD01E25DF44F8081882311F48EE18083EC
:10314000FD01E25DF44F4081CD01880F991F9D0183
:1031500065E0220F331F6A95E1F7281B390B4150B8
:10316000F901E40FF11DEE0FFF1FEA54F54F8081C6
:103170009181892B31F4442391F7A25DB44F1C92C5
:103180000895A25DB44F4C9308958091640808950A
:1031900080916408EEE2FBE0E80FF11D8081089564
:1031A0008091640890E0FC01E25DF44F2081FC0115
:1031B00035E0EE0FFF1F3A95E1F7880F991FE81BE6
:1031C000F90BE20FF11DEE0FFF1FEA54F54F0190CE
:1031D000F081E02D0995089588E89AE29093B70A66
:1031E0008093B60A86E290E39093B90A8093B80A76
:1031F00080E990E39093BB0A8093BA0A84E192E35A
:103200009093BD0A8093BC0A86EE91E39093BF0A27
:103210008093BE0A88EB91E39093C10A8093C00A21
:1032200084E390E29093C30A8093C20A8BEA9DE202
:103230009093C50A8093C40A87E89DE29093C70AD9
:103240008093C60A83E69DE29093C90A8093C80AD8
:1032500081E190E29093CB0A8093CA0A8EEE9FE1BF
:103260009093CD0A8093CC0A8CE08093320B88EE49
:103270009BE29093CF0A8093CE0A82E296E29093EB
:10328000F30A8093F20A89E397E29093F50A809318
:10329000F40A83E593E29093F70A8093F60A82EFAB
:1032A00092E29093F90A8093F80A84EC9FE290935B
:1032B000FB0A8093FA0A82E69FE29093FD0A8093CC
:1032C000FC0A87E59EE29093FF0A8093FE0A8FEF47
:1032D0009DE29093010B8093000B88E09FE2909316
:1032E000030B8093020B87EB9EE29093050B809378
:1032F000040B8CE592E29093070B8093060B8DEC08
:1033000095E29093090B8093080B83E195E29093EB
:103310000B0B80930A0B84E695E290930D0B809340
:103320000C0B88E794E290930F0B80930E0B82E3D3
:1033300094E29093110B8093100B88E591E29093A7
:10334000130B8093120B84E091E29093150B809302
:10335000140B81EB90E29093170B8093160B8DE585
:1033600090E29093190B8093180B8CE192E290936A
:103370001B0B80931A0B8BEA91E290931D0B8093A9
:103380001C0B80ED92E290931F0B80931E0B8CEA36
:1033900092E29093210B8093200B0895EF92FF927D
:1033A0000F931F9380910D0790910E07885E9340B5
:1033B000855F914060F080EB94E090930E078093DE
:1033C0000D078CE290E060EB74E00E94C0478091B2
:1033D000E2018451893240F087E38093E20188E47E
:1033E00090E067E30E94B3478091E3018451893202
:1033F00040F08EE18093E30189E490E06EE10E9469
:10340000B34780918F0A9091900A845F91404597CD
:1034100060F08FEF91E09093900A80938F0A80E4A0
:1034200090E06FEF71E00E94C0478091A00A9091F8
:10343000A10A845F9140459760F08FEF91E09093EF
:10344000A10A8093A00A82E490E06FEF71E00E94ED
:10345000C0478091B10A9091B20A845F914045972C
:1034600060F08FEF91E09093B20A8093B10A84E408
:1034700090E06FEF71E00E94C0478091790A9091CF
:103480007A0AA0917B0AB0917C0A88599A43A0409D
:10349000B040895A9146A040B04090F080E49CE949
:1034A000A0E0B0E08093790A90937A0AA0937B0A17
:1034B000B0937C0A8AE490E060E47CE90E94C04713
:1034C00020916D0A30916E0A40916F0A5091700AF6
:1034D0008091790A90917A0AA0917B0AB0917C0A36
:1034E00082179307A407B50728F028593A434040AC
:1034F000504090F488E99AE3A0E0B0E080936D0A30
:1035000090936E0AA0936F0AB093700A8CE490E0D7
:1035100068E97AE30E94C0472091790A30917A0ADB
:1035200040917B0A50917C0A8091690A90916A0AC5
:10353000A0916B0AB0916C0A281739074A075B07FC
:1035400040F42093690A30936A0A40936B0A5093BF
:103550006C0AE0906D0AF0906E0A00916F0A10916B
:10356000700A8091690A90916A0AA0916B0AB091E1
:103570006C0A8E159F05A007B10740F4E092690A16
:10358000F0926A0A00936B0A10936C0A8091750A94
:103590009091760AA091770AB091780A8E159F05CE
:1035A000A007B10740F4E092750AF092760A009302
:1035B000770A1093780A2091690A30916A0A40913B
:1035C0006B0A50916C0A8091750A9091760AA091CD
:1035D000770AB091780A281739074A075B0740F441
:1035E000E092750AF092760A0093770A1093780AAF
:1035F0008091750A9091760AA091770AB091780A25
:10360000280F391F4A1F5B1F5695479537952795F9
:10361000CA01B9010E94261580910F07853660F016
:1036200084E680930F078FE390E064E60E94B3473F
:1036300003C041504093360B8091360B0E942734D3
:103640007B018C0160910F0770E0882777FD8095E2
:10365000982F0E94144420E030E040E251E40E94A0
:1036600079439B01AC01C801B7010E94C444409159
:10367000360B1816F4F28091370B481718F48AE0CD
:103680008093370B8091370B481710F44093370B1A
:103690008091350B481710F44093350B9091370B00
:1036A0008091350B891710F49093350B5091350BA1
:1036B0002091330B30E0842F90E0851B9109821715
:1036C00093071CF4451B4093330B809128078554C6
:1036D0008F3118F083E6809328079091A1089534E4
:1036E00020F080912807891718F485E48093A108B9
:1036F000409128078091A108481710F44093A10831
:103700008091410B481710F44093410B9091A10810
:103710008091410B891710F49093410B5091410B0C
:103720002091420B30E0842F90E0851B9109821795
:1037300093071CF4451B4093420B88EC90E0909358
:10374000310B8093300B80910509843018F082E0B2
:103750008093050980910709823018F081E08093F9
:10376000070910923208809102098B3018F085E029
:1037700080930209809106098B3018F081E08093D4
:10378000060980913C0B90913D0B8135910530F0FD
:1037900080E590E090933D0B80933C0B8091380B3B
:1037A0009091390B8C34910530F08BE490E090933C
:1037B000390B8093380B20913C0B30913D0B80915D
:1037C000380B9091390B2817390720F43093390BB7
:1037D0002093380B80913E0B90913F0B82349105E2
:1037E00030F081E490E090933F0B80933E0B80910A
:1037F0003A0B90913B0BCD9730F08CE390E0909397
:103800003B0B80933A0B20913E0B30913F0B809104
:103810003A0B90913B0B2817390720F430933B0B60
:1038200020933A0B80E061E00E941F1780E068EC73
:1038300070E00E94FC1681E061E00E941F1781E0A9
:1038400068EC70E00E94FC1682E061E00E941F17A5
:1038500082E068EC70E00E94FC168091A50881501F
:10386000833018F083E00E940C01109243081F91EE
:103870000F91FF90EF900895EF92FF920F931F9397
:103880008CEB9DE4A0E0B0E08093690A90936A0A13
:10389000A0936B0AB0936C0A8091790A90917A0A8E
:1038A000A0917B0AB0917C0A8C3B2DE4920720E02A
:1038B000A20720E0B20740F48093690A90936A0A55
:1038C000A0936B0AB0936C0AE0906D0AF0906E0AB8
:1038D00000916F0A1091700A8091690A90916A0AAA
:1038E000A0916B0AB0916C0A8E159F05A007B107D5
:1038F00040F4E092690AF0926A0A00936B0A10930E
:103900006C0A80E99CE4A0E0B0E08093750A909393
:10391000760AA093770AB093780A81E9E8168CE4D6
:10392000F80680E0080780E0180740F0E092750A8A
:10393000F092760A0093770A1093780A2091690A28
:1039400030916A0A40916B0A50916C0A8091750A15
:103950009091760AA091770AB091780A28173907D2
:103960004A075B0740F4E092750AF092760A0093EA
:10397000770A1093780A8091750A9091760AA0913F
:10398000770AB091780A280F391F4A1F5B1F569596
:10399000479537952795CA01B9010E9426158FEFE3
:1039A00003C08091360B81508093360B8091360B8B
:1039B0000E9427347B018C0160910F0770E08827FB
:1039C00077FD8095982F0E94144420E030E040E27B
:1039D00051E40E9479439B01AC01C801B7010E94E8
:1039E000C4441816F4F28AE08093370B82E3809384
:1039F000350B1092330B88EC90E09093310B809351
:103A0000300B82E08093050921E020930709109292
:103A1000320885E0809302092093060980E895E248
:103A2000A0E0B0E080933C0990933D09A0933E094B
:103A3000B0933F092093A6088BE490E09093390B54
:103A40008093380B80E590E090933D0B80933C0B86
:103A50008CE390E090933B0B80933A0B81E490E0F1
:103A600090933F0B80933E0B80E061E00E941F1714
:103A700080E068EC70E00E94FC1681E061E00E944A
:103A80001F1781E068EC70E00E94FC1682E061E0A4
:103A90000E941F1782E068EC70E00E94FC1683E031
:103AA0000E940C018FE58093410B1092420B83E63C
:103AB0008093280785E48093A1081F910F91FF90C0
:103AC000EF9008956091690A70916A0A80E090E031
:103AD0000E94C0476091750A7091760A82E090E07A
:103AE0000E94C04760917D0A70917E0A84E090E058
:103AF0000E94C04788E090E06091350B0E94B34778
:103B000086E090E06091330B0E94B34780E00E9412
:103B10001217682F89E090E00E94B34780E00E946E
:103B2000EE16BC018AE090E00E94C04781E00E944E
:103B30001217682F8CE090E00E94B34781E00E944A
:103B4000EE16BC018DE090E00E94C04782E00E942A
:103B50001217682F8FE090E00E94B34782E00E9426
:103B6000EE16BC0180E190E00E94C04785E190E044
:103B70006091A5080E94B3476091300B7091310BA2
:103B800086E190E00E94C04788E190E060910509DD
:103B90000E94B34789E190E0609102090E94B34717
:103BA0008AE190E0609106090E94B3478BE190E0C2
:103BB0006091360B0E94B3478CE190E06091370B27
:103BC0000E94B34760913C0970913D098DE190E0FE
:103BD0000E94C04720913C0930913D0940913E0927
:103BE00050913F099A01442755278FE190E0B90190
:103BF0000E94C04781E290E06091A6080E94B3470E
:103C00006091380B7091390B82E290E00E94C047BE
:103C100060913C0B70913D0B84E290E00E94C047A4
:103C200060913A0B70913B0B8EE490E00E94C0478C
:103C300060913E0B70913F0B80E590E00E94C04781
:103C400087E290E06091410B0E94B34786E290E0EA
:103C50006091420B0E94B34788E290E06091280790
:103C60000E94B34789E290E06091A1080E94B347A7
:103C70008AE290E0609107090E94B3478BE290E0EE
:103C8000609132080E94B3470895EF92FF920F931C
:103C90001F93CF93DF9380E090E00E94AD47A0E0B8
:103CA000B0E08093690A90936A0AA0936B0AB0937C
:103CB0006C0A82E090E00E94AD47A0E0B0E0809303
:103CC000750A9093760AA093770AB093780A84E0F5
:103CD00090E00E94AD47A0E0B0E0BC01CD010E94A1
:103CE000261588E090E00E94A5478093350B86E07A
:103CF00090E00E94A5478093330B89E090E00E94FA
:103D0000A547682F80E00E941F178AE090E00E947C
:103D1000AD47BC0180E00E94FC168CE090E00E9460
:103D2000A547682F81E00E941F178DE090E00E9458
:103D3000AD47BC0181E00E94FC168FE090E00E943C
:103D4000A547682F82E00E941F1780E190E00E9443
:103D5000AD47BC0182E00E94FC1685E190E00E9424
:103D6000A5470E940C0186E190E00E94AD47909328
:103D7000310B8093300B88E190E00E94A54780933F
:103D8000050989E190E00E94A547809302098AE134
:103D900090E00E94A547809306098BE190E00E9485
:103DA000A5478093360B8CE190E00E94A547809355
:103DB000370B8DE190E00E94AD477C0100E010E000
:103DC000E0923C09F0923D0900933E0910933F09AF
:103DD0008FE190E00E94AD47A0E0B0E0DC019927C0
:103DE00088278E299F29A02BB12B80933C09909383
:103DF0003D09A0933E09B0933F0981E290E00E9403
:103E0000A5478093A60882E290E00E94AD47909378
:103E1000390B8093380B84E290E00E94AD47909379
:103E20003D0B80933C0B8EE490E00E94AD47909355
:103E30003B0B80933A0B80E590E00E94AD47909356
:103E40003F0B80933E0B87E290E00E94A547809352
:103E5000410B86E290E00E94A5478093420B88E2E6
:103E600090E00E94A5478093280789E290E00E9495
:103E7000A5478093A1088AE290E00E94A54780931D
:103E800007098BE290E00E94A5470E94EC008CE2BB
:103E900090E00E94AD4790930E0780930D07CFE20C
:103EA000D0E0CE010E94A547FE01EB5FF74F808373
:103EB0002196CF33D105A9F7109243088FE390E004
:103EC0000E94A54780930F0780E490E00E94AD47D1
:103ED0009093900A80938F0A82E490E00E94AD470D
:103EE0009093A10A8093A00A84E490E00E94AD47D9
:103EF0009093B20A8093B10A88E490E00E94A547AB
:103F00008093E20189E490E00E94A5478093E30159
:103F10008AE490E00E94AD47A0E0B0E08093790A87
:103F200090937A0AA0937B0AB0937C0A8CE490E089
:103F30000E94AD47A0E0B0E080936D0A90936E0AB6
:103F4000A0936F0AB093700ADF91CF911F910F91E8
:103F5000FF90EF9008958091550A86FF07C00E9458
:103F600094188091550A8F7B8093550A8091550A49
:103F700083FF07C00E946D188091550A877F809348
:103F8000550A8091550A87FF07C00E9456188091F4
:103F9000550A8F778093550A8091550A80FF07C094
:103FA0000E9460048091550A8E7F8093550A80910B
:103FB000550A81FF12C00E940036882311F080E06C
:103FC00005C0109244081092450886E00E94D5036F
:103FD0008091550A8D7F8093550A089500D000D0B6
:103FE00000D0EDB7FEB7319683E799E0ADB7BEB725
:103FF00012969C938E93119788EE91E0938382831F
:1040000084E398E0958384830E9416478DB79EB71A
:1040100006960FB6F8949EBF0FBE8DBF0E94AB1FD1
:10402000089500D000D000D0EDB7FEB7319683E7F9
:1040300099E0ADB7BEB712969C938E93119782EF1D
:1040400091E09383828383E092E0958384830E944E
:1040500016478DB79EB706960FB6F8949EBF0FBE53
:104060008DBF0E94AB1F089500D000D000D0EDB7E7
:10407000FEB7319683E799E0ADB7BEB712969C9331
:104080008E9311978CE092E0938382838091330822
:104090002FE0829FC00111248E54994F9583848311
:1040A0000E9416478DB79EB706960FB6F8949EBF2E
:1040B0000FBE8DBF0E94AB1F08958091550A82FFED
:1040C00016C020913E0B30913F0B80913A0B90919E
:1040D0003B0B8217930730F42150304030933F0B55
:1040E00020933E0B8091550A8B7F8093550A8091D7
:1040F000550A84FF11C080913E0B90913F0B8F3584
:10410000910528F4019690933F0B80933E0B80918C
:10411000550A8F7E8093550A00D000D000D0EDB7AD
:10412000FEB7319683E799E0ADB7BEB712969C9380
:104130008E93119787E192E09383828380913E0B67
:1041400090913F0B958384830E9416478DB79EB74D
:1041500006960FB6F8949EBF0FBE8DBF0E94AB1F90
:1041600008958091550A82FF10C080913A0B90917A
:104170003B0B009729F0019790933B0B80933A0BF0
:104180008091550A8B7F8093550A8091550A84FF50
:1041900016C020913A0B30913B0B80913E0B9091D1
:1041A0003F0B2817390730F42F5F3F4F30933B0BFD
:1041B00020933A0B8091550A8F7E8093550A00D048
:1041C00000D000D0EDB7FEB7319683E799E0ADB7E8
:1041D000BEB712969C938E9311978FE292E09383D1
:1041E000828380913A0B90913B0B958384830E944C
:1041F00016478DB79EB706960FB6F8949EBF0FBEB2
:104200008DBF0E94AB1F08958091550A82FF16C092
:1042100020913C0B30913D0B8091380B9091390BE4
:104220008217930730F42150304030933D0B209398
:104230003C0B8091550A8B7F8093550A8091550ADB
:1042400084FF11C080913C0B90913D0B8F359105FF
:1042500028F4019690933D0B80933C0B8091550A76
:104260008F7E8093550A00D000D000D0EDB7FEB706
:10427000319683E799E0ADB7BEB712969C938E93C3
:10428000119785E492E09383828380913C0B909117
:104290003D0B958384830E9416478DB79EB7069683
:1042A0000FB6F8949EBF0FBE8DBF0E94AB1F08953E
:1042B0008091550A82FF10C08091380B9091390B84
:1042C000009729F001979093390B8093380B8091D8
:1042D000550A8B7F8093550A8091550A84FF16C03A
:1042E0002091380B3091390B80913C0B90913D0B14
:1042F0002817390730F42F5F3F4F3093390B209345
:10430000380B8091550A8F7E8093550A00D000D0DB
:1043100000D0EDB7FEB7319683E799E0ADB7BEB7F1
:1043200012969C938E9311978DE592E093838283EE
:104330008091380B9091390B958384830E941647A6
:104340008DB79EB706960FB6F8949EBF0FBE8DBF71
:104350000E94AB1F08951F9320913C0930913D09A5
:1043600040913E0950913F09E6E9F6E010E0808176
:104370009181A281B381281739074A075B0721F091
:104380001F5F3496173099F78DB79EB708970FB611
:10439000F8949EBF0FBE8DBFEDB7FEB7319683E791
:1043A00099E0ADB7BEB712969C938E93119783E7B1
:1043B00092E09383828324833583468357830E94CC
:1043C00016478091550A2DB73EB7285F3F4F0FB66D
:1043D000F8943EBF0FBE2DBF84FF09C01F5F17308A
:1043E00009F410E08091550A8F7E8093550A8091E0
:1043F000550A82FF09C0112309F417E0115080917A
:10440000550A8B7F8093550AE12FF0E0EE0FFF1FD6
:10441000EE0FFF1FEA56F94F80819181A281B3818F
:1044200080933C0990933D09A0933E09B0933F09C6
:104430000E94AB1F1F91089500D000D000D0EDB7AF
:10444000FEB7319683E799E0ADB7BEB712969C935D
:104450008E93119784E892E0938382838091A608DB
:10446000848315820E9416478091550A2DB73EB766
:104470002A5F3F4F0FB6F8943EBF0FBE2DBF84FF9B
:104480000AC08091A6088F5F8093A6088091550A84
:104490008F7E8093550A8091550A82FF0AC08091D1
:1044A000A60881508093A6088091550A8B7F80933F
:1044B000550A0E94AB1F089500D000D000D0EDB780
:1044C000FEB7319683E799E0ADB7BEB712969C93DD
:1044D0008E93119789E992E0938382838091300BC8
:1044E0009091310B958384830E9416478091550AE1
:1044F0002DB73EB72A5F3F4F0FB6F8943EBF0FBEB1
:104500002DBF84FF12C08091300B9091310B33E0AE
:10451000883E930728F401969093310B8093300BDB
:104520008091550A8F7E8093550A8091550A82FFAB
:1045300010C08091300B9091310B009729F00197BA
:104540009093310B8093300B8091550A8B7F809331
:10455000550A0E94AB1F08958091550A85FF17C028
:104560000E943C1C0E94CE190E94621D83E799E0C4
:104570006FEA72E00E94D8460E949C0D84EF91E0A1
:104580000E947C128091550A8F7D8093550A83E7A3
:1045900099E064EC72E00E94D8460E94AB1F089537
:1045A0008091550A85FF15C00E94CE190E94621D98
:1045B00083E799E069ED72E00E94D8460E949C0D65
:1045C00084EF91E00E947C128091550A8F7D809348
:1045D000550A83E799E06EEE72E00E94D8460E9489
:1045E000AB1F08958091550A82FF0CC08091370B54
:1045F0008B3018F081508093370B8091550A8B7F58
:104600008093550A8091550A84FF1FC09091370B03
:104610008091350B981738F48091360B981718F461
:104620009F5F9093370B0E940036882349F090914A
:10463000370B8091340B891718F4892F0E940C34A2
:104640008091550A8F7E8093550A8091370B0E9486
:1046500027342DB73EB7285030400FB6F8943EBFF0
:104660000FBE2DBFEDB7FEB7319623E739E0ADB7EA
:10467000BEB712963C932E93119723E033E0338319
:10468000228364837583868397830E9416472DB7A0
:104690003EB7285F3F4F0FB6F8943EBF0FBE2DBF09
:1046A0000E94AB1F0895EF92FF920F931F9380918A
:1046B000550A82FF27C04091360B8091330B209121
:1046C000350B30E0280F311D842F90E02817390773
:1046D0003CF48091370B841718F441504093360B0B
:1046E0000E940036882349F09091360B8091340B5C
:1046F000981718F4892F0E940C348091550A8B7FEB
:104700008093550A8091550A84FF2AC08091360B08
:104710008F5F0E9427347B018C0160910F0770E04E
:10472000882777FD8095982F0E94144420E030E080
:1047300040E251E40E9479439B01AC01C801B701FA
:104740000E94754388233CF48091360B8F3F19F00B
:104750008F5F8093360B8091550A8F7E8093550A28
:104760008091360B0E9427342DB73EB72850304039
:104770000FB6F8943EBF0FBE2DBFEDB7FEB7319612
:1047800023E739E0ADB7BEB712963C932E9311974D
:104790002AE133E03383228364837583868397839E
:1047A0000E9416472DB73EB7285F3F4F0FB6F894CB
:1047B0003EBF0FBE2DBF0E94AB1F1F910F91FF90F8
:1047C000EF9008958091550A82FF11C080910D07E6
:1047D00090910E07893C910528F0019790930E0760
:1047E00080930D078091550A8B7F8093550A8091A5
:1047F000550A84FF12C080910D0790910E0727E0A3
:10480000803D920728F4019690930E0780930D0740
:104810008091550A8F7E8093550A00D000D000D039
:10482000EDB7FEB7319683E799E0ADB7BEB7129604
:104830009C938E93119782E393E09383828380917C
:104840000D0790910E07958384830E9416478DB7BC
:104850009EB706960FB6F8949EBF0FBE8DBF0E94FE
:10486000AB1F08958091550A82FF0CC08091060904
:1048700018161CF48150809306098091550A8B7F8D
:104880008093550A8091550A84FF0CC080910609D7
:104890008A301CF48F5F809306098091550A8F7EC1
:1048A0008093550A00D000D000D0EDB7FEB7319606
:1048B00083E799E0ADB7BEB712969C938E9311979C
:1048C00086E493E09383828380910609992787FD8C
:1048D0009095958384830E9416478DB79EB7069660
:1048E0000FB6F8949EBF0FBE8DBF0E94AB1F0895F8
:1048F0008091550A82FF0CC08091020918161CF4A1
:104900008150809302098091550A8B7F8093550ACC
:104910008091550A84FF0CC0809102098A301CF4F2
:104920008F5F809302098091550A8F7E8093550A8C
:1049300000D000D000D0EDB7FEB7319683E799E004
:10494000ADB7BEB712969C938E93119789E593E00D
:104950009383828380910209992787FD909595839F
:1049600084830E9416478DB79EB706960FB6F894BB
:104970009EBF0FBE8DBF0E94AB1F08958091550A48
:1049800082FF11C080913208882319F482E080935D
:104990003208809132088150809332088091550A04
:1049A0008B7F8093550A8091550A84FF0EC08091B9
:1049B00032088F5F80933208823010F010923208F4
:1049C0008091550A8F7E8093550A809132088130FC
:1049D00019F02BE633E002C02FE633E000D000D020
:1049E00000D0EDB7FEB7319683E799E0ADB7BEB71B
:1049F00012969C938E93119782E793E09383828320
:104A0000358324830E9416478DB79EB706960FB64E
:104A1000F8949EBF0FBE8DBF809132080E94EC00BB
:104A20000E94AB1F08958091550A82FF11C08091AA
:104A30000709882319F482E0809307098091070908
:104A40008150809307098091550A8B7F8093550A86
:104A50008091550A84FF0EC0809107098F5F809373
:104A60000709823010F0109207098091550A8F7E55
:104A70008093550A80910709813019F02BE633E0C5
:104A800002C02FE633E000D000D000D0EDB7FEB773
:104A9000319683E799E0ADB7BEB712969C938E939B
:104AA000119782E893E093838283358324830E9465
:104AB00016478DB79EB706960FB6F8949EBF0FBEE9
:104AC0008DBF0E94AB1F08958091550A82FF1CC0C4
:104AD00080910509813019F484E080930509809163
:104AE0000509815080930509813019F40E94E8007E
:104AF00006C00E940036882311F00E942801809190
:104B0000550A8B7F8093550A8091550A84FF1CC0FB
:104B1000809105098F5F80930509843018F081E04A
:104B20008093050980910509813019F40E94E800FD
:104B300006C00E940036882311F00E94280180914F
:104B4000550A8F7E8093550A00D000D000D0EDB773
:104B5000FEB7319683E799E0ADB7BEB712969C9346
:104B60008E93119787E993E093838283809105095F
:104B700026E0829FC00111248258994F9583848337
:104B80000E9416478DB79EB706960FB6F8949EBF43
:104B90000FBE8DBF0E94AB1F08958091550A82FF02
:104BA00011C08091A508813019F484E08093A50894
:104BB0008091A50881508093A5088091550A8B7F2C
:104BC0008093550A8091550A84FF0FC08091A508F3
:104BD0008F5F8093A508843018F081E08093A5084A
:104BE0008091550A8F7E8093550A00D000D000D066
:104BF000EDB7FEB7319683E799E0ADB7BEB7129631
:104C00009C938E93119787EA93E09383828380919C
:104C1000A50825E0829FC00111248659994F9583EC
:104C200084830E9416478DB79EB706960FB6F894F8
:104C30009EBF0FBE8DBF8091A5080E940C010E94EF
:104C4000AB1F08958091550A82FD04C08091550ADA
:104C500084FF3AC080915F0890916008A09161083C
:104C6000B0916208209168083091690840916A0803
:104C700050916B08821B930BA40BB50B845F914082
:104C8000A040B04068F480916608909167088B342A
:104C9000910554F40196909367088093660804C0C8
:104CA000109267081092660880915F0890916008E2
:104CB000A0916108B0916208809368089093690898
:104CC000A0936A08B0936B088091550A82FF5BC07D
:104CD00080916608909167082091690A30916A0A6C
:104CE00040916B0A50916C0A8B3491052CF0245141
:104CF00030404040504004C021503040404050407F
:104D00002093690A30936A0A40936B0A50936C0AA5
:104D10002091750A3091760A4091770A5091780A6D
:104D20008091690A90916A0AA0916B0AB0916C0A0D
:104D300082179307A407B50740F42093690A3093BC
:104D40006A0A40936B0A50936C0A2091690A309169
:104D50006A0A40916B0A50916C0A80917D0A909189
:104D60007E0AA0917F0AB091800A281739074A0766
:104D70005B0720F4CA01B9010E9426158091550AEB
:104D80008B7F8093550A8091550A84FF42C08091A1
:104D90006608909167082091690A30916A0A4091EB
:104DA0006B0A50916C0A8B3491052CF02C5E3F4FAE
:104DB0004F4F5F4F04C02F5F3F4F4F4F5F4F2093C8
:104DC000690A30936A0A40936B0A50936C0A2091E7
:104DD000790A30917A0A40917B0A50917C0A80913D
:104DE000690A90916A0AA0916B0AB0916C0A28171F
:104DF00039074A075B0740F42093690A30936A0A2F
:104E000040936B0A50936C0A8091550A8F7E809371
:104E1000550A8DB79EB708970FB6F8949EBF0FBE80
:104E20008DBFEDB7FEB7319683E799E0ADB7BEB75A
:104E300012969C938E93119781EB93E093838283D8
:104E40008091690A90916A0AA0916B0AB0916C0AEC
:104E500084839583A683B7830E9416478DB79EB738
:104E600008960FB6F8949EBF0FBE8DBF0E94AB1F71
:104E700008958091550A82FD04C08091550A84FFEF
:104E80003AC080915F0890916008A0916108B0914C
:104E9000620820916E0830916F084091700850911F
:104EA0007108821B930BA40BB50B845F9140A0404B
:104EB000B04068F480916C0890916D088B34910536
:104EC00054F4019690936D0880936C0804C010927E
:104ED0006D0810926C0880915F0890916008A09115
:104EE0006108B091620880936E0890936F08A09358
:104EF0007008B09371088091550A82FF42C080917A
:104F00006C0890916D082091750A3091760A409155
:104F1000770A5091780A8B3491052CF02451304057
:104F20004040504004C02150304040405040209309
:104F3000750A3093760A4093770A5093780A209145
:104F40006D0A30916E0A40916F0A5091700A8091FB
:104F5000750A9091760AA091770AB091780A821723
:104F60009307A407B50740F42093750A3093760A97
:104F70004093770A5093780A8091550A8B7F8093EB
:104F8000550A8091550A84FF5BC080916C0890910E
:104F90006D082091750A3091760A4091770A5091F8
:104FA000780A8B3491052CF02C5E3F4F4F4F5F4FAA
:104FB00004C02F5F3F4F4F4F5F4F2093750A3093D0
:104FC000760A4093770A5093780A2091690A3091C3
:104FD0006A0A40916B0A50916C0A8091750A90910F
:104FE000760AA091770AB091780A281739074A07FC
:104FF0005B0740F42093750A3093760A4093770A52
:105000005093780A2091750A3091760A4091770A78
:105010005091780A80917D0A90917E0AA0917F0A32
:10502000B091800A82179307A407B50720F4CA013C
:10503000B9010E9426158091550A8F7E8093550AEA
:105040008DB79EB708970FB6F8949EBF0FBE8DBF61
:10505000EDB7FEB7319683E799E0ADB7BEB71296CC
:105060009C938E93119785EC93E093838283809138
:10507000750A9091760AA091770AB091780A848394
:105080009583A683B7830E9416478DB79EB708966F
:105090000FB6F8949EBF0FBE8DBF0E94AB1F089540
:1050A0008091550A84FF0DC083E00E941217682F7B
:1050B0006F5F83E00E941F178091550A8F7E809357
:1050C000550A8091550A82FF0DC083E00E94121795
:1050D000682F615083E00E941F178091550A8B7FD3
:1050E0008093550A83E00E94121700D000D000D0B0
:1050F000EDB7FEB7319623E739E0ADB7BEB71296EC
:105100003C932E93119729ED33E0338322838483DC
:1051100015820E9416478DB79EB706960FB6F89473
:105120009EBF0FBE8DBF0E94AB1F08958091550A90
:1051300084FF0EC083E00E94EE16BC016F5F7F4FBC
:1051400083E00E94FC168091550A8F7E8093550A59
:105150008091550A82FF0EC083E00E94EE16BC01CA
:105160006150704083E00E94FC168091550A8B7F4D
:105170008093550A83E00E94EE1600D000D000D044
:10518000EDB7FEB7319623E739E0ADB7BEB712965B
:105190003C932E9311972AEE33E033832283958339
:1051A00084830E9416478DB79EB706960FB6F89473
:1051B0009EBF0FBE8DBF0E94AB1F08958091550A00
:1051C00084FF0DC082E00E941217682F6F5F82E09B
:1051D0000E941F178091550A8F7E8093550A8091F7
:1051E000550A82FF0DC082E00E941217682F61509D
:1051F00082E00E941F178091550A8B7F8093550A89
:1052000082E00E94121700D000D000D0EDB7FEB7A8
:10521000319623E739E0ADB7BEB712963C932E9393
:1052200011972CEF33E033832283848315820E940D
:1052300016478DB79EB706960FB6F8949EBF0FBE61
:105240008DBF0E94AB1F08958091550A84FF0EC048
:1052500082E00E94EE16BC016F5F7F4F82E00E94E9
:10526000FC168091550A8F7E8093550A8091550ACD
:1052700082FF0EC082E00E94EE16BC0161507040B9
:1052800082E00E94FC168091550A8B7F8093550A1C
:1052900082E00E94EE1600D000D000D0EDB7FEB73D
:1052A000319623E739E0ADB7BEB712963C932E9303
:1052B00011972DE034E033832283958384830E9409
:1052C00016478DB79EB706960FB6F8949EBF0FBED1
:1052D0008DBF0E94AB1F08958091550A84FF0DC0B9
:1052E00081E00E941217682F6F5F81E00E941F17F4
:1052F0008091550A8F7E8093550A8091550A82FFCE
:105300000DC081E00E941217682F615081E00E9459
:105310001F178091550A8B7F8093550A81E00E9468
:10532000121700D000D000D0EDB7FEB7319623E7BA
:1053300039E0ADB7BEB712963C932E9311972FE18B
:1053400034E033832283848315820E9416478DB70D
:105350009EB706960FB6F8949EBF0FBE8DBF0E94F3
:10536000AB1F08958091550A84FF0EC081E00E9412
:10537000EE16BC016F5F7F4F81E00E94FC168091AA
:10538000550A8F7E8093550A8091550A82FF0EC080
:1053900081E00E94EE16BC016150704081E00E94E5
:1053A000FC168091550A8B7F8093550A81E00E94FC
:1053B000EE1600D000D000D0EDB7FEB7319623E74F
:1053C00039E0ADB7BEB712963C932E93119720E308
:1053D00034E033832283958384830E9416478DB7FC
:1053E0009EB706960FB6F8949EBF0FBE8DBF0E9463
:1053F000AB1F08958091550A84FF0DC080E00E9484
:105400001217682F6F5F80E00E941F178091550A66
:105410008F7E8093550A8091550A82FF0DC080E0EF
:105420000E941217682F615080E00E941F17809120
:10543000550A8B7F8093550A80E00E94121700D096
:1054400000D000D0EDB7FEB7319623E739E0ADB715
:10545000BEB712963C932E93119722E434E0338327
:105460002283848315820E9416478DB79EB70696C5
:105470000FB6F8949EBF0FBE8DBF0E94AB1F08955C
:105480008091550A84FF0EC080E00E94EE16BC0198
:105490006F5F7F4F80E00E94FC168091550A8F7EDF
:1054A0008093550A8091550A82FF0EC080E00E94C9
:1054B000EE16BC016150704080E00E94FC168091A5
:1054C000550A8B7F8093550A80E00E94EE1600D02B
:1054D00000D000D0EDB7FEB7319623E739E0ADB785
:1054E000BEB712963C932E93119723E534E0338395
:1054F0002283958384830E9416478DB79EB70696B4
:105500000FB6F8949EBF0FBE8DBF0E94AB1F0895CB
:10551000AF92BF92CF92DF92EF92FF920F931F93C1
:105520008091550A82FD04C08091550A84FF3AC0DB
:1055300080915F0890916008A0916108B091620825
:105540002091740830917508409176085091770841
:10555000821B930BA40BB50B845F9140A040B0401D
:1055600068F480917208909173088B34910554F41B
:105570000196909373088093720804C01092730888
:105580001092720880915F0890916008A091610864
:10559000B09162088093740890937508A093760880
:1055A000B09377088091550A84FF4CC080917208AF
:1055B0009091730820917D0A30917E0A40917F0A74
:1055C0005091800A8B3491052CF02C5E3F4F4F4F49
:1055D0005F4F04C02F5F3F4F4F4F5F4F20937D0AB7
:1055E00030937E0A40937F0A5093800A2091690A83
:1055F00030916A0A40916B0A50916C0A80917D0A41
:1056000090917E0AA0917F0AB091800A28173907ED
:105610004A075B0740F420937D0A30937E0A40934B
:105620007F0A5093800A60917D0A70917E0A809172
:105630007F0A9091800A0E9426158091550A8F7EDC
:105640008093550A8091550A82FF4CC08091720860
:105650009091730820917D0A30917E0A40917F0AD3
:105660005091800A8B3491052CF0245130404040F9
:10567000504004C0215030404040504020937D0AAB
:1056800030937E0A40937F0A5093800A2091750AD6
:105690003091760A4091770A5091780A80917D0A7C
:1056A00090917E0AA0917F0AB091800A8217930799
:1056B000A407B50740F420937D0A30937E0A4093F7
:1056C0007F0A5093800A60917D0A70917E0A8091D2
:1056D0007F0A9091800A0E9426158091550A8B7F3F
:1056E0008093550A81E00E94C7168C0180E00E94D9
:1056F000C7167C01C8010E948C175B016C0120E079
:1057000030E040E050E00E947543882354F40F2EAF
:10571000F0E0AF2EF0E0BF2EF0E0CF2EF0E0DF2E75
:10572000F02DC7010E9475177B018C0120E030E04D
:1057300040E050E00E947543882354F40F2EF0E0BF
:10574000EF2EF0E0FF2EF0E00F2FF0E01F2FF02DF6
:105750008DB79EB740970FB6F8949EBF0FBE8DBF12
:10576000EDB7FEB7319683E799E0ADB7BEB71296B5
:105770009C938E93119785E694E093838283809126
:105780007D0A90917E0AA0917F0AB091800A84835D
:105790009583A683B783A086B186C286D386E48626
:1057A000F586068717870E9416478DB79EB74096E5
:1057B0000FB6F8949EBF0FBE8DBF0E94AB1F1F9106
:1057C0000F91FF90EF90DF90CF90BF90AF90089532
:1057D000CF92DF92EF92FF920F931F938091550A21
:1057E00085FF41C0809165088823C1F50E94E800CB
:1057F00081E00E942F172091300B3091310B280F40
:10580000391F30937908209378086091750A709158
:10581000760A8091770A9091780A0E9426158091E5
:10582000750A9091760AA091770AB091780A8093D0
:10583000810890938208A0938308B0938408809392
:105840007D0890937E08A0937F08B0938008109203
:105850007C0810927B0881E0809365088091550A4E
:105860008F7D8093550A80916508882309F4F8C0DC
:1058700020917D0A30917E0A40917F0A5091800AE2
:105880008091690A90916A0AA0916B0AB0916C0AA2
:10589000281739074A075B0708F09CC080917A08EF
:1058A000882349F480917808909179080E94161312
:1058B00080937A08DDC00E940313892B09F0D8C0B9
:1058C00080917A080E94531310927A08F89481E02C
:1058D0000E94C716D82EC92E7894E0907D0AF090C9
:1058E0007E0A00917F0A1091800A0E948C172DB7C2
:1058F0003EB72C5030400FB6F8943EBF0FBE2DBFC0
:10590000EDB7FEB7319623E739E0ADB7BEB71296D3
:105910003C932E93119724E834E033832283E4826E
:10592000F5820683178360877187828793870E9439
:1059300016478D2D9C2D20917B0830917C084DB70A
:105940005EB7445F5F4F0FB6F8945EBF0FBE4DBFAA
:1059500028173907A8F490937C0880937B088091DE
:105960007D0A90917E0AA0917F0AB091800A80936F
:10597000810890938208A0938308B093840813C091
:105980008217930781F480917D0A90917E0AA091FD
:105990007F0AB091800A80937D0890937E08A0933F
:1059A0007F08B093800860917D0A70917E0A809193
:1059B0007F0A9091800A665F7F4F8F4F9F4F609361
:1059C0007D0A70937E0A80937F0A9093800A0E94DA
:1059D00026154EC02091810830918208409183089D
:1059E0005091840880917D0890917E08A0917F0855
:1059F000B091800882179307A407B50740F420935D
:105A00007D0830937E0840937F08509380088091F2
:105A10007D0890917E08A0917F08B0918008280FA2
:105A2000391F4A1F5B1F5695479537952795CA0121
:105A3000B9010E9426158091330B9091350B890F87
:105A40000E940C348091420B9091410B890F0E946F
:105A500039360E946D180E9428011092650808C00E
:105A600083E799E06CE974E00E94D8460E94AB1F7E
:105A70001F910F91FF90EF90DF90CF90089583E0FA
:105A80000E94C71600D000D000D0EDB7FEB7319607
:105A900023E739E0ADB7BEB712963C932E9311972A
:105AA00021EB34E033832283958384830E9416475D
:105AB0008DB79EB706960FB6F8949EBF0FBE8DBFEA
:105AC0000E94AB1F089582E00E94C71600D000D04C
:105AD00000D0EDB7FEB7319623E739E0ADB7BEB7DA
