:100000000C94C7000C94E7000C94E7000C94E700F4
:100010000C94E7000C94E7000C942C040C94E7007B
:100020000C94FC030C94E7000C94E7000C94E7009C
:100030000C94E7000C94E7000C94E7000C94451234
:100040000C94E7000C94E7000C94E7000C94E70094
:100050000C94E7000C9467140C94E7000C94E700F0
:100060000C94E7000C94E7000C94E7000C94E70074
:100070000C94E7000C94E7000C94300E0C94E7000D
:100080000C94E7000C94E7000C94E7006E616E009E
:10009000696E660000407A10F35A00A0724E18098B
:1000A0000010A5D4E80000E87648170000E40B54DF
:1000B000020000CA9A3B000000E1F50500008096AE
:1000C0009800000040420F000000A08601000000E0
:1000D000102700000000E80300000000640000009A
:1000E00000000A00000000000100000000002C7663
:1000F000D888DC674F0823DFC1DFAE59E1B1B7967E
:10010000E5E3E453C63AE651997696E8E6C28426DA
:10011000EB898C9B62ED407C6FFCEFBC9C9F40F2B6
:10012000BAA56FA5F490055A2AF75C936B6CF96732
:100130006DC11BFCE0E40D47FEF520E6B500D0EDF7
:10014000902E0300943577050080841E080000205F
:100150004E0A000000C80C333333330F986E1283FD
:100160001141EF8D2114893BE65516CFFEE6DB18D1
:10017000D1844B381BF77C1D901DA4BBE424203296
:1001800084725E228100C9F124ECA1E53D2711248F
:100190001FBECFEFD0E1DEBFCDBF17E0A0E0B1E0E2
:1001A000EAECF6E800E00BBF02C007900D92A83C15
:1001B000B107D9F71BBE1AE0A8ECB7E001C01D9249
:1001C000A23CB107E1F70E94420A0C9463430C94ED
:1001D00000009C01E199FECF3FBB2EBB6DBB0FB66B
:1001E000F894E29AE19A0FBE089581E0809381012C
:1001F0000895982F15988AB78B7F8ABF8AB7877F13
:100200008ABF17988AB78F7B8ABF8AB78F778ABFD2
:10021000913031F489B7806289BF89B7806805C0A1
:1002200089B78F7D89BF89B78F7789BF9093C807BA
:10023000089580933008823061F0833031F081304E
:1002400099F480916500886007C00E94C7318823B7
:1002500031F080916500877F8093650008958091DB
:1002600065008860809365000895AF92BF92CF9239
:10027000DF92EF92FF920F931F9380E197E220E7C6
:1002800031E0F9013197F1F70197D9F7E090AF0A22
:10029000F090B00A81E00E94D3156C0182E00E94C8
:1002A000D315C80ED91EEC0CFD1C00E010E0C801EF
:1002B000B7010E9490415B016C0126E636E646E6F6
:1002C00055E40E9446427B018C0120E030E040E88A
:1002D0005FE30E94F34088231CF461E070E024C0D7
:1002E000C801B70120E03FEF4FE757E40E944242C8
:1002F0001816B4F4C601B50120E030E040E251E444
:100300000E9446420E94644180E791E005C0FC01E2
:100310003197F1F76150704061157105C1F707C061
:10032000C801B7010E946441CB010197F1F78091A8
:10033000900880938101F89481E00E946B1590935E
:1003400094088093930882E00E946B1590938F0825
:1003500080938E0878948091B70A8093CC0880911E
:100360009308909194080E9430162DB73EB72A50FA
:1003700030400FB6F8943EBF0FBE2DBFEDB7FEB7AD
:1003800031962EEF38E0ADB7BEB712963C932E9360
:10039000119720E031E03383228364837583868361
:1003A000978380918E0890918F08918780870E9413
:1003B00071402DB73EB7265F3F4F0FB6F8943EBF52
:1003C0000FBE2DBF0E94790C88E893E120E731E051
:1003D000F9013197F1F70197D9F71F910F91FF902C
:1003E000EF90DF90CF90BF90AF900895CF92DF92C3
:1003F000EF92FF920F931F93CF93DF938091810130
:10040000813069F48091EB07882321F00E94341237
:100410001092EB071092DE071092DD07C5C1F89429
:1004200081E00E946B15EC0182E00E946B156C016B
:1004300078948091DE07882309F076C08091DD07EB
:10044000882309F071C08091EB07882321F00E9476
:1004500034121092EB078091930890919408C8177A
:10046000D90771F480918E0890918F08C816D9062B
:1004700009F49AC180918101823009F040C094C191
:10048000C817D907E4F581E08093DE071092E307EF
:100490001092E4071092E5071092E6071092DF072A
:1004A0001092E0071092E1071092E2072091F809FC
:1004B0003091F9094091FA095091FB092093E7071F
:1004C0003093E8074093E9075093EA076091910859
:1004D0006093ED07E0918D08E093EC0761956093E0
:1004E000EE076E02B0011124882777FD8095982FC2
:1004F000620F731F841F951F0E94071403C081E0C1
:100500008093DD070091AF0A1091B00A81E00E944C
:10051000D315800F911F0E94F7118093EB0784E69B
:1005200090E00E945D1140C18091EB070E94E411B0
:10053000892B29F08091EB07882309F035C1809140
:10054000EB070E9434121092EB078091DE0788239C
:1005500009F4E2C06091EE078091EC07E82FFF27D5
:10056000E7FDF095862F992787FD90959C01E29FE6
:10057000C001E39F900DF29F900D11249C012C9FD0
:10058000C0012D9F900D3C9F900D11247C010027F0
:10059000F7FC0095102F8091E3079091E407A0915C
:1005A000E507B091E607E80EF91E0A1F1B1FE0924F
:1005B000E307F092E4070093E5071093E6079E0136
:1005C000442737FD4095542F8091DF079091E00735
:1005D000A091E107B091E207820F931FA41FB51FFE
:1005E0008093DF079093E007A093E107B093E207C1
:1005F0006F5F6093EE078091ED0786170CF062C085
:10060000682F772767FD70956E9FC0016F9F900DD3
:100610007E9F900D11249C01442737FD4095542F57
:100620002E153F0540075107B4F0882799278E1BE8
:100630009F0B9C01269FC001279F900D369F900D18
:1006400011249C01442737FD4095542FE216F306F0
:100650000407150744F42093E3073093E40740931D
:10066000E5075093E6076091E3076093EE0777276D
:1006700067FD7095872F972F2091E7073091E80746
:100680004091E9075091EA07620F731F841F951F7D
:100690000E9407141092DE078091EE07882319F05C
:1006A0001092DC0705C08091DC078F5F8093DC0728
:1006B0008091DC07823080F181E08093DD07109229
:1006C000DC072AC0862F992787FD90958E9FB00161
:1006D0008F9F700D9E9F700D1124882777FD809548
:1006E000982F2091E7073091E8074091E907509152
:1006F000EA07620F731F841F951F0E940714009161
:10070000AF0A1091B00A81E00E94D315800F911FAB
:100710000E94F7118093EB078091DD07882309F48D
:1007200043C080918101823031F42091930830914F
:100730009408CE0105C020918E0830918F08C60123
:10074000821793074CF49091B70A8091B90A9817D1
:1007500028F5892F8F5F0BC028173907FCF490917B
:10076000B70A8091BA0A8917C8F4892F81500E946C
:100770003830E090AF0AF090B00A81E00E94D315C3
:100780008C0182E00E94D315080F191FC8018E0D3D
:100790009F1D0E94F7118093EB0706C01092DD07A2
:1007A000D0939408C0939308DF91CF911F910F913C
:1007B000FF90EF90DF90CF9008950E944E300E94FE
:1007C000C03108951F93182F81E0809381010E940A
:1007D000DD0380913008823049F080E090E9019794
:1007E000F1F780916500886080936500153011F005
:1007F0001093C9071F9108951F920F920FB60F9281
:100800000BB60F9211242F933F934F935F936F93E7
:100810007F938F939F93AF93BF93EF93FF930E9428
:10082000C731882331F084E00E94E20381E08093A5
:10083000DA07FF91EF91BF91AF919F918F917F91D7
:100840006F915F914F913F912F910F900BBE0F9041
:100850000FBE0F901F9018951F920F920FB60F9218
:100860000BB60F9211242F933F934F935F936F9387
:100870007F938F939F93AF93BF93EF93FF930E94C8
:10088000C731882331F083E00E94E20381E0809346
:10089000DB07FF91EF91BF91AF919F918F917F9176
:1008A0006F915F914F913F912F910F900BBE0F90E1
:1008B0000FBE0F901F9018956091F8097091F9097B
:1008C0008091FA099091FB090E9407140E94BA31A5
:1008D0008091B80A0E9438300895EF92FF920F93EA
:1008E0001F930D991AC08091C8078130B1F486E238
:1008F00099E060E171E00E9408400E94790C88EC68
:1009000090E00E945D1180E197E220E731E0F9017B
:100910003197F1F70197D9F764C00F991AC0809108
:10092000C8078130B1F486E299E065E271E00E9487
:1009300008400E94790C88EC90E00E945D1180E1F3
:1009400097E220E731E0F9013197F1F70197D9F704
:1009500048C06091BB0A7091BC0A80E090E00E94A0
:1009600090417B018C010E9481309B01AC01C80148
:10097000B7010E94F3408823B4F486E299E06AE369
:1009800071E00E9408400E94790C88EC90E00E947F
:100990005D1180E197E220E731E0F9013197F1F74D
:1009A0000197D9F71EC080913008813049F08091BD
:1009B0006500877F8093650080E090E90197F1F7FB
:1009C0000E945C0480919208813059F41092FA07D9
:1009D0008091B10A8093A90A8091E0098062809396
:1009E000E0091F910F91FF90EF9008950E94A913C5
:1009F0000895EF92FF920F931F93CF93DF9380910F
:100A0000EF07882309F437C51092EF078EE499E0C9
:100A10006DEC78E00E948F108093CB08882309F05A
:100A20002AC5209131088091CD08281709F023C5E7
:100A30009091CE08963009F0B5C38091FB078823CA
:100A400009F0A2C3C091D108D091D2088091CF08FB
:100A50009091D0088331910509F4E9C28431910560
:100A600008F055C08930910509F451C28A309105CA
:100A700038F58430910509F46BC18530910580F417
:100A80008130910509F4DBC08130910508F49FC0E5
:100A90008230910509F4F9C0039709F0DAC408C15E
:100AA0008630910509F4C4C18630910508F4A4C1CB
:100AB0008730910509F4D1C1089709F0CAC40FC263
:100AC0008E30910509F46BC28F30910580F48B3024
:100AD000910509F42EC28B30910508F421C28C30A7
:100AE000910509F437C20D9709F0B3C444C28031AF
:100AF000910509F485C28031910508F46CC28131F9
:100B0000910509F484C2429709F0A3C488C28632D1
:100B1000910509F4DEC28732910550F581329105C5
:100B200009F4AFC28232910598F48D31910509F430
:100B30008DC28E31910520F44C9709F08AC47FC292
:100B40008E31910509F489C2809709F082C491C25F
:100B50008332910509F4A5C28332910508F499C244
:100B60008432910509F4A5C2859709F072C4A9C21F
:100B70008B32910509F4D5C28C32910580F488320C
:100B8000910509F4B6C28832910508F4AAC28932E7
:100B9000910509F4B6C28A9709F05BC4BAC28E32D5
:100BA000910509F4D6C28F32910540F48C3291053B
:100BB00009F4BFC28D9709F04CC4C3C28F329105AE
:100BC00009F4CFC28F5F9F4F09F043C4DAC2CE0150
:100BD000837090708130910519F0029739F404C048
:100BE00081E00E94E20302C00E946D04CE018C707D
:100BF0009070009731F096958795969587950E940D
:100C000019019E01207330702032310559F02033D4
:100C1000310551F02031310509F01BC481E080938A
:100C2000810117C482E001C083E0809390080E9494
:100C3000C731882309F40DC40E9435010AC42091EC
:100C4000B20A3091B30A4091B40A5091B50ACE016C
:100C5000A0E0B0E082179307A407B50708F4E90104
:100C60002091AB0A3091AC0A4091AD0A5091AE0A86
:100C7000CE01A0E0B0E0281739074A075B0708F467
:100C8000E901BE0180E090E0B4C08091BA0A282F4B
:100C900030E02C173D0708F49E018091B90A482FD7
:100CA00050E0C9014217530708F02EC1CA012CC1F8
:100CB000CE01A0E0B0E08093AB0A9093AC0AA09381
:100CC000AD0AB093AE0A2091B20A3091B30A4091B6
:100CD000B40A5091B50A82179307A407B50740F4E8
:100CE0002093AB0A3093AC0A4093AD0A5093AE0AFE
:100CF0008091AB0A9091AC0AA091AD0AB091AE0A76
:100D000081549C49A040B04060F080E49CE9A0E0A0
:100D1000B0E08093AB0A9093AC0AA093AD0AB09375
:100D2000AE0A2091AB0A3091AC0A4091AD0A5091C5
:100D3000AE0A8091F8099091F909A091FA09B09151
:100D4000FB09281739074A075B0708F082C34FC021
:100D5000CE01A0E0B0E08093B20A9093B30AA093D2
:100D6000B40AB093B50A2091AB0A3091AC0A409115
:100D7000AD0A5091AE0A281739074A075B0740F4BD
:100D80002093B20A3093B30A4093B40A5093B50A41
:100D90008091B20A9091B30AA091B40AB091B50AB9
:100DA00088599A43A040B04060F488E99AE3A0E0F3
:100DB000B0E08093B20A9093B30AA093B40AB093C0
:100DC000B50A2091B20A3091B30A4091B40A509109
:100DD000B50A8091F8099091F909A091FA09B091AA
:100DE000FB0982179307A407B50708F032C3CA01AD
:100DF000B9010E9407142DC3C093B80A4091B90AE3
:100E00005091B60A842F90E0851B91092C2F30E079
:100E1000821793071CF4451B4093B80A9091BA0AB5
:100E20008091B80A891708F014C39093B80A11C3C7
:100E3000C093B60A4091B90A242F30E02C1B310927
:100E40008091A40690E0281739070CF002C3809126
:100E5000B80A481B4093B60AFCC2C093B90A509125
:100E6000B80A4091B60A2C2F30E0852F90E0840F0D
:100E7000911D281739074CF4450F4093B90A05C056
:100E80008091B90A81508093B90A8091B90A0E9471
:100E900053307B018C016091A70670E0882777FDB5
:100EA0008095982F0E94924120E030E040E251E48A
:100EB0000E94F7409B01AC01C801B7010E94424269
:100EC0001816F4F20E94C731882309F4C2C2909127
:100ED000B90A8091B70A981708F0BBC214C0C09332
:100EE000BA0A8091B80A8C1710F48093BA0A0E944B
:100EF000C731882309F4ADC29091BA0A8091B70A2C
:100F0000891708F0A6C2892F0E943830A2C2C09368
:100F10008D08CB300CF49DC28AE080938D0899C275
:100F2000C0939108CB300CF494C28AE0809391086E
:100F300090C2D093BE0AC093BD0A8091BB0A909123
:100F4000BC0AC817D90708F084C29093BE0A8093E0
:100F5000BD0A7FC2D093BC0AC093BB0A8091BD0A70
:100F60009091BE0A8C179D0708F073C29093BC0A3B
:100F70008093BB0A6EC280912C08282F30E02C177A
:100F80003D0708F49E018091BE06482F50E0C9013C
:100F90004217530708F4CA010E9400325AC2C09394
:100FA000C00A4091BE065091C10A842F90E0851B73
:100FB00091092C2F30E0821793071CF4451B4093B6
:100FC000C00A90912C088091C00A891708F041C28C
:100FD0009093C00A3EC2C093C10A4091BE06242F1E
:100FE00030E02C1B31098091BD0690E028173907AD
:100FF0000CF02FC28091C00A481B4093C10A29C23D
:10100000D093A606C093A5068CE290E02CC02C2FAE
:10101000C093A706E199FECF8FE390E0A9C02C2FE3
:10102000C093CD01E199FECF88E490E0A1C02C2FC0
:10103000C093CE01E199FECF89E490E099C0D093AE
:101040000B0AC0930A0A80E490E00DC0D0931C0AFA
:10105000C0931B0A82E490E006C0D0932D0AC0938F
:101060002C0A84E490E0BE0149EE50E00E9430403A
:10107000F0C12C2FC093CA07E199FECF8FE290E018
:1010800077C02C2FC093CB07E199FECF80E390E08F
:101090006FC02C2FC093CC07E199FECF81E390E085
:1010A00067C02C2FC093CD07E199FECF82E390E07B
:1010B0005FC02C2FC093CE07E199FECF83E390E071
:1010C00057C02C2FC093CF07E199FECF84E390E067
:1010D0004FC02C2FC093D007E199FECF85E390E05D
:1010E00047C02C2FC093D107E199FECF86E390E053
:1010F0003FC02C2FC093D207E199FECF87E390E049
:1011000037C02C2FC093D307E199FECF88E390E03E
:101110002FC02C2FC093D407E199FECF89E390E034
:1011200027C02C2FC093D507E199FECF8AE390E02A
:101130001FC02C2FC093D607E199FECF8BE390E020
:1011400017C02C2FC093D707E199FECF8CE390E016
:101150000FC02C2FC093D807E199FECF8DE390E00C
:1011600007C02C2FC093D907E199FECF8EE390E002
:101170009FBB8EBB2DBB0FB6F894E29AE19A0FBECF
:1011800068C10E94E11965C12093CD089093CE08F3
:1011900081E08093F9088FEF9FEF9093D0088093C0
:1011A000CF0822C1933009F066C12093CD089093F7
:1011B000CE0881E08093F9088091CF089091D00803
:1011C000009709F070C089E090E09093D008809378
:1011D000CF080E94C731882319F421E030E002C013
:1011E00022E030E08091300890E0880F991F880F4E
:1011F000991F282B392B8091810190E054E0880FB2
:10120000991F5A95E1F7282B392B8091FB0790E025
:1012100046E0880F991F4A95E1F7282B392B309328
:10122000D2082093D1088091F8099091F909909300
:10123000D4088093D30805ED18E08091B70A809315
:10124000D5081092D6088091BF0A8093D708F8017C
:1012500013820E94813020E030E040E251E40E949D
:1012600046420E945F417093DA086093D90880E09B
:101270000E946B159093DC088093DB0881E00E944C
:101280006B159093DE088093DD0882E00E946B1559
:101290009093E0088093DF088091C9078093E1086C
:1012A000F8011586D6C08130910509F05AC08CE04E
:1012B00090E09093D0088093CF088091AB0A9091F2
:1012C000AC0A9093D2088093D1088091B20A909191
:1012D000B30A9093D4088093D308E5EDF8E08091A9
:1012E000B80A8093D5081092D6088091B60A8093E8
:1012F000D70813828091B90A8093D908158280910A
:10130000BA0A8093DB08178280918D08992787FDA0
:1013100090959093DE088093DD088091910899273D
:1013200087FD90959093E0088093DF088091BD0A37
:101330009091BE0A9093E2088093E1088091BB0AE5
:101340009091BC0A9093E4088093E3088091C00ACE
:101350008093E508118A8091C10A8093E708138A77
:1013600078C08031910559F481E090E09093D008E5
:101370008093CF088091A5069091A60635C0813153
:10138000910549F481E090E09093D0088093CF08D4
:101390008091A7060BC08231910569F481E090E04D
:1013A0009093D0088093CF088091CD018093D1088D
:1013B0001092D2084EC08331910549F481E090E04B
:1013C0009093D0088093CF088091CE01EFCF8C31DD
:1013D000910579F481E090E09093D0088093CF0854
:1013E00080910A0A90910B0A9093D2088093D108B9
:1013F00030C08D31910559F481E090E09093D00890
:101400008093CF0880911B0A90911C0AEDCF8E31FA
:10141000910559F481E090E09093D0088093CF0833
:1014200080912C0A90912D0ADFCF809791F480E172
:1014300090E09093D0088093CF08AAECB7E0E1ED5C
:10144000F8E08D9180831182329627E0AA3DB207A1
:10145000C1F78DEC98E062E378E04BE550E00E9444
:10146000031082E398E060E070E040E050E02CE29E
:1014700031E00E946E0EDF91CF911F910F91FF908E
:10148000EF900895AF92BF92CF92DF92EF92FF92CA
:101490000F931F93CF93DF930E94CD110E945B1196
:1014A0000E9411300E94CF310E94C5120E94AD0BE4
:1014B0000E94A9310E94C81381E00E94FF1480910C
:1014C00064008860809364000E94DB160E94A41769
:1014D0000E945A1B4091C7085091C8086091C908E2
:1014E0007091CA0882E00E94B40C0E94990C80910D
:1014F000C00A0E94003280E00E94E203789480914A
:10150000C8070E94F90084EF91E00E945D1188E80D
:1015100093E120E731E0F9013197F1F70197D9F72D
:1015200088EC90E00E945D1180ED97E020E731E0CB
:10153000F9013197F1F70197D9F788EC90E00E9413
:101540005D11F6E2AF2EF9E0BF2EEFE6CE2EE1E020
:10155000DE2EC0E7D1E00E9474170E94F601809150
:10156000DA07882391F086E299E06FE471E00E9447
:10157000084088EC90E00E945D1180ED97E0FE014C
:101580003197F1F70197D9F77CC08091DB07882369
:1015900091F086E299E060E171E00E94084088ECF9
:1015A00090E00E945D1180ED97E0FE013197F1F728
:1015B0000197D9F766C00D9909C08091C80781309D
:1015C00029F486E299E060E171E00AC00F990BC04E
:1015D0008091C807813039F486E299E065E271E0D4
:1015E0000E9408404EC06091BD0A7091BE0A80E022
:1015F00090E00E9490417B018C010E9481309B0110
:10160000AC01C801B7010E94F34088232CF486E2A4
:1016100099E06AE371E0E4CF0E94C731882319F4AE
:1016200025E631E002C02AE631E08091650083FFC3
:1016300003C085E691E002C08AE691E04DB75EB74F
:10164000485050400FB6F8945EBF0FBE4DBFEDB787
:10165000FEB73196ADB7BEB71296BC92AE92119757
:10166000D382C28235832483978386830E9471400C
:101670004DB75EB7485F5F4F0FB6F8945EBF0FBEC1
:101680004DBF0E94790C0E948C300E94F90463CFF8
:10169000883A11F482EA0895883B11F485EB0895A5
:1016A000803C28F0E82FF0E0EE53FF4F8081089552
:1016B000F8949798E5E6F0E090819E7F908385BB53
:1016C00080818260808384E08A95F1F780818D7FBC
:1016D0008083789485EF8A95F1F70895F894979A26
:1016E000E5E6F0E090819E7F908385BB80818260FB
:1016F000808384E08A95F1F780818D7F8083789460
:1017000085EF8A95F1F70895E82F883A11F4E2EA17
:101710000AC0883B11F4E5EB06C0803C20F0F0E005
:10172000EE53FF4FE081F894979A809165008E7F89
:1017300080936500E5BB80916500826080936500C1
:1017400084E08A95F1F7809165008D7F8093650034
:10175000789485EF8A95F1F708958F9A80916400C7
:101760008160809364008091640082608093640053
:101770008FEF84BB88EE93E020E731E0F9013197E9
:10178000F1F70197D9F7F8949798809165008E7FCB
:101790008093650088E385BB8091650082608093BB
:1017A000650084E08A95F1F7809165008D7F8093D4
:1017B0006500789485EF8A95F1F7F8949798809171
:1017C00065008E7F809365008CE085BB809165000D
:1017D00082608093650084E08A95F1F780916500CE
:1017E0008D7F80936500789485EF8A95F1F7F89462
:1017F0009798809165008E7F8093650086E085BB19
:101800008091650082608093650084E08A95F1F79D
:10181000809165008D7F80936500789485EF8A952F
:10182000F1F7F8949798809165008E7F809365001A
:1018300081E085BB8091650082608093650084E0D3
:101840008A95F1F7809165008D7F8093650078948B
:1018500085EF8A95F1F78CEC9CE10197F1F70895FB
:10186000F8949798E5E6F0E080818E7F808381E0B0
:1018700085BB80818260808384E08A95F1F78081D6
:101880008D7F8083789485EF8A95F1F78CEC9CE1CD
:101890000197F1F70895CF93DF93EB018295880FBD
:1018A000880F807C8058F8949798909165009E7F6F
:1018B0009093650085BB8091650082608093650090
:1018C00084E08A95F1F7809165008D7F80936500B3
:1018D000789485EF8A95F1F76115710521F406C0BA
:1018E00021960E94840B88818823D1F7DF91CF91C4
:1018F000089580E066E279E00E944B0C81E06EEF93
:1019000078E00E944B0C0895CF93DF93EC01009791
:1019100021F406C021960E94840B88818823D1F788
:10192000DF91CF91089580918F09089580918E095C
:1019300008958CE080939D0010928E09089586E0B2
:1019400080939D0081E080938E09089586E08093C6
:101950009D0082E080938E09089586E080939D002B
:1019600083E080938E0908951F93182F9A01AB018D
:1019700060E070E18EE090E00E94EF422150304044
:1019800010938F0910929B0088E180939A008CE05D
:1019900080939D00309398002093990080939D0040
:1019A00010928E091123A9F08C9A113051F4809174
:1019B0009A008F7E80939A00949A80919A008F77F4
:1019C0000BC0123059F480919A00806180939A0084
:1019D000949880919A00806880939A001F9108954E
:1019E00080918F09882379F0949A80919A008F7E54
:1019F00080939A0080E098E40197F1F780919A0033
:101A00008F7780939A00089580918F098823B9F089
:101A100080919B0086FFFCCF8CEC9CE10197F1F755
:101A200080919A00806180939A00949880E098E475
:101A30000197F1F780919A00806880939A00089549
:101A4000982F80919B0085FFFCCF90939C0080E0B5
:101A500090E0089580919B0087FFFCCF80919C00CF
:101A600090E0089520919B0030E020783070C9010B
:101A70000895982F8A3341F480934E0981E0809332
:101A8000F0071092EF070EC08091F007882351F005
:101A90008091F007E82FF0E0E25BF64F90838F5FD4
:101AA0008093F00780914E098A33B1F4E091F007FA
:101AB000F0E0E45BF64F80818D3071F4E091F00747
:101AC000F0E0E35BF64F80818A3031F481E080936F
:101AD000EF071092F00708958091F007803421F409
:101AE0001092F0071092EF070895982F833241F477
:101AF00080934E0981E08093F0071092EF070EC0AB
:101B00008091F007882351F08091F007E82FF0E0F2
:101B1000E25BF64F90838F5F8093F00780914E09D0
:101B2000833271F4E091F007F0E0E35BF64F8081DF
:101B30008D3031F481E08093EF071092F007089523
:101B40008091F007803421F41092F0071092EF0793
:101B50000895982F8E3789F48091F007882369F4CF
:101B60001092EF078091F007E82FF0E0E25BF64F6C
:101B700090838F5F8093F00714C08091F0078823D3
:101B800081F08091F007843060F48091F007E82FB5
:101B9000F0E0E25BF64F90838F5F8093F007109246
:101BA000EF0780914E098E3751F48091F007843011
:101BB00031F41092F00781E08093EF07089580914F
:101BC000F007803469F42EE439E0C90160E070E088
:101BD00040E450E00E9401401092F0071092EF079D
:101BE0000895982F8E3371F08A3061F08091F0075C
:101BF000E82FF0E0E25BF64F90838F5F8093F00771
:101C00001092EF07E091F007F0E02EE439E0E35B9B
:101C1000F64F80818D30A1F481E08093EF078091B1
:101C2000F007803450F48091F007E82FF0E0E20FE5
:101C3000F31F10828F5F8093F0071092F0070895D2
:101C40008091F007803459F4C90160E070E040E40D
:101C500050E00E9401401092F0071092EF070895A3
:101C60001F920F920FB60F920BB60F9211242F9363
:101C70003F934F935F936F937F938F939F93AF9314
:101C8000BF93EF93FF9380919C0090918E099130C8
:101C900051F0913028F0923049F0933061F409C04E
:101CA0000E94390D08C00E94750D05C00E94F10DFB
:101CB00002C00E94A90DFF91EF91BF91AF919F913A
:101CC0008F917F916F915F914F913F912F910F90E5
:101CD0000BBE0F900FBE0F901F901895EF92FF92C2
:101CE0000F931F93CF93DF93DC01EB01F42EE52ECE
:101CF000890190918F09923079F4949A80919A0099
:101D00008F7E80939A00E0E0F8E43197F1F78091BC
:101D10009A008F7780939A0080918E098823A9F486
:101D200020E007C080919B0085FFFCCFE0939C00E2
:101D30002F5FFD01E20FF11DE081EA3099F78091FC
:101D40009B0085FFFCCF8AE016C08130B9F420E00B
:101D500007C080919B0085FFFCCFE0939C002F5F24
:101D6000FD01E20FF11DE081ED3099F780919B00BC
:101D700085FFFCCF8DE080939C0013C0833089F4F5
:101D800020E030E0FD01E20FF31FE08180919B0035
:101D900085FFFCCFE0939C002F5F3F4F243031053F
:101DA00089F7209731F4923011F40E94040D10E06D
:101DB00048C00E94040DC8010E94F711082F25C0D9
:101DC00080919A008F7780939A008091EF07882303
:101DD000B9F01092EF078F2D9E2D9C01F90121344F
:101DE000310510F0E0E4F0E02EE439E0CE01B90175
:101DF000AF010E94F83F802F0E94341210E00BC008
:101E000080919A00806880939A00802F0E94E4114C
:101E1000892BB1F617E0802F0E94341280918F0930
:101E2000813079F4949A80919A008F7E80939A0001
:101E300080E098E40197F1F780919A008F77809382
:101E40009A00812FDF91CF911F910F91FF90EF901A
:101E50000895FB018F708A3010F4805D01C0895CA9
:101E6000808380E00895FB01982F92959F709A30AF
:101E700010F4905D01C0995C90838F708A3010F4EB
:101E8000805D01C0895C818380E00895FF920F939B
:101E90001F93F82E8B01892F0E94330F0E5F1F4F67
:101EA0008F2DB8010E94330F80E01F910F91FF909A
:101EB0000895982FFB018154863020F49753908326
:101EC00080E00895892F80538A3010F082E00895D1
:101ED000808380E00895FC01DB019081892F81548B
:101EE000863018F4292F275306C0292F20532A3073
:101EF00010F082E00895322F3295307F3C9391812B
:101F0000892F8154863010F4975306C090539A302D
:101F100018F0922F82E001C080E0390F3C930895C1
:101F2000CF92DF92EF92FF920F931F93DF93CF93A5
:101F30000F92CDB7DEB77C018B016E010894C11CF6
:101F4000D11CB6010E946B0F382F882391F4898130
:101F5000F80110828183C7010296B6010E946B0FBF
:101F6000382F2981F80180819181820F911D918301
:101F70008083832F0F90CF91DF911F910F91FF905E
:101F8000EF90DF90CF9008956F927F928F929F9203
:101F9000AF92BF92CF92DF92FF920F931F93DF9386
:101FA000CF930F92CDB7DEB75C016B014A01FF24DE
:101FB00000E010E03E010894611C711C0CC0C501DA
:101FC000800F911FB3010E946B0F882369F40E5F8D
:101FD0001F4F8981F80E0C151D0588F38F2D8195F3
:101FE000B4010E94330F80E00F90CF91DF911F91D9
:101FF0000F91FF90DF90CF90BF90AF909F908F9008
:102000007F906F900895CF92DF92FF920F931F936E
:10201000CF93DF938C016B01DC019C968C919C9794
:10202000813039F411968C91833019F48BE590E06E
:1020300002C081E190E04817590710F494E066C0AF
:10204000F6018AE38193D8018C91BF010E94330F7E
:10205000B6016D5F7F4FF80181810E94330FE60169
:102060002596D8019C968C919C97813071F411969D
:102070008C911197833049F412968C91880FBE0190
:102080000E94330FE601279607C0F80182819381F1
:10209000BE010E94460F2496D80114968D919C9102
:1020A0001597BE010E94460F2496F80184A5813041
:1020B000E1F481818330C9F4FF24F3940CC032969B
:1020C000EE0FFF1FE00FF11F80819181BE010E9482
:1020D000460F2496F394EF2DF0E0D80112968D91DF
:1020E0009C911397E817F90750F3B6016095709526
:1020F0006C0F7D1FC6010196AE010E94C40F982F80
:10210000882321F48DE08A838AE08B83892FDF91F5
:10211000CF911F910F91FF90DF90CF900895AF92D4
:10212000BF92CF92DF92EF92FF920F931F93DF93B4
:10213000CF9300D00F92CDB7DEB76C018B018DE24B
:10214000FB0111928A95E9F7F60160E070E0808169
:102150008D30B9F481818A30A1F442E0A42EB12CF3
:10216000A60EB71E76010894E11CF11C6350704066
:10217000C701AE014E5F5F4F0E94C40F882349F034
:102180008CC06F5F7F4F31966B35710501F785E02D
:1021900084C0F601EA0DFB1D34979A818081349644
:1021A000981709F077C033979B818081981709F0C1
:1021B00071C0C701B8010E946B0F882309F06DC080
:1021C00033E0E32EF12CEC0CFD1CB8016F5F7F4F68
:1021D000C7010E946B0F882309F05FC0F80181815D
:1021E000833009F044C0F1E1AF16B10409F43FC0F7
:1021F00081E0F80184A725E0E22EF12CEC0CFD1C17
:10220000C701BE016F5F7F4F0E946B0FD82E8823DE
:1022100009F042C089818695843118F084E190E00C
:1022200001C090E0F8019383828382E090E0E80EA1
:10223000F91E198212C06E5F7F4F660F771F600F05
:10224000711FC7010E94900F882339F589818F5F24
:102250008983E4E0F0E0EE0EFF1E8981682F70E0D4
:10226000F801828193816817790728F315C0F80176
:1022700014A6B8016E5F7F4FC70102960E94900FAF
:10228000882359F40C5F1F4FC7010696B8010E94BE
:10229000900F03C083E001C08D2D0F900F900F9021
:1022A000CF91DF911F910F91FF90EF90DF90CF9032
:1022B000BF90AF900895899A0895AF92BF92CF9240
:1022C000DF92EF92FF920F931F93919AA0E0B0E0FC
:1022D000BC01CD010E9490415B016C0126E636E60F
:1022E00046E655E40E9446427B018C0120E030E046
:1022F00040E85FE30E94F34088231CF461E070E053
:1023000024C0C801B70120E03FEF4FE757E40E9427
:1023100042421816B4F4C601B50120E030E040E2B4
:1023200051E40E9446420E94644180E791E005C06A
:10233000FC013197F1F76150704061157105C1F7EB
:1023400007C0C801B7010E946441CB010197F1F7B2
:1023500091981F910F91FF90EF90DF90CF90BF90D9
:10236000AF9008959C01919A809192099091930960
:102370008217930738F080919209909193098F5FAB
:102380009F4F51F48FEF2F3F380711F42EEF3FEF9F
:102390003093930920939209089580E090E02FEF05
:1023A0003FEFFC01EE0FFF1FE057F64F3183208314
:1023B000019680329105A9F787B7826087BF83E7CE
:1023C00081BF8DE083BF08959FB7F894803218F0E5
:1023D000E0E0F0E009C0E82FF0E0EE0FFF1FE0576B
:1023E000F64F0190F081E02D9FBFCF0108959C0131
:1023F0005FB7F894A2E0B0E04A2FFD01EE0FFF1F97
:10240000E057F64F808191818F5F9F4F71F48FEF7E
:102410002F3F380711F42EEF3FEFAA0FBB1FA05735
:10242000B64F11963C932E9305C04F5F1196A03284
:10243000B10511F75FBF842F08952FB7F8943FEFD0
:102440008F3F930711F48EEF9FEF90939109809344
:1024500090092FBF2FB7F89480919009909191091E
:102460002FBF892BB9F70895E82F2FB7F894825022
:102470008E3148F4F0E0EE0FFF1FE057F64F8FEF7C
:102480009FEF918380832FBF08951F920F920FB605
:102490000F920BB60F9211242F933F934F935F939C
:1024A0006F937F938F939F93AF93BF93EF93FF931C
:1024B00020E030E0F901EE0FFF1FE057F64F80817A
:1024C0009181892B51F0808191818F5F9F4F29F0FD
:1024D000808191810197918380832F5F3F4F2032CC
:1024E000310541F78091920990919309019709F480
:1024F00091980E94F6048091C2019091C3010197C6
:102500009093C3018093C2010196C9F48091F107B1
:102510009091F207A091F307B091F4070196A11DE5
:10252000B11D8093F1079093F207A093F307B09346
:10253000F4078AEE93E09093C3018093C2018091E7
:10254000F5079091F607A091F707B091F80701966B
:10255000A11DB11D8093F5079093F607A093F7078F
:10256000B093F807FF91EF91BF91AF919F918F9139
:102570007F916F915F914F913F912F910F900BBE83
:102580000F900FBE0F901F9018951092E0098FEFDB
:102590008093F3098093F109E0EDF9E01192119233
:1025A00089E0E03EF807D1F78FEF84BB8898089563
:1025B0001092E00908952091F309E82FF0E030E04F
:1025C000082E02C0359527950A94E2F720FF24C013
:1025D0008091F10990E00E2E02C0959587950A949E
:1025E000E2F780FD19C02091E00981E090E00E2E15
:1025F00002C0880F991F0A94E2F7282B2093E00964
:10260000EE0FFF1FDF01A053B64F1D921C92EF513A
:10261000F64F1182108208958091F30990E00E2EFA
:1026200002C0959587950A94E2F780FD10C08091CD
:10263000F10990E00E2E02C0959587950A94E2F775
:1026400080FF05C082E390E00E94B211089580915E
:10265000F30990E00E2E02C0959587950A94E2F753
:1026600080FD36C08091F10990E00E2E02C0959554
:1026700087950A94E2F780FD2BC04091C4015091E8
:10268000C5012091C6013091C701240F351FDF011C
:10269000AA0FBB1FA053B64F8D919C911197019625
:1026A00011969C938E932817390790F42091E00996
:1026B00081E090E002C0880F991FEA95E2F7282B8D
:1026C0002093E0094D935C9384E190E00E94B21165
:1026D0000895FF920F931F93CF93DF938091F30997
:1026E0008093F109C0E0D0E001E010E028E1F22E93
:1026F0004C2F98010C2E02C0220F331F0A94E2F7D0
:10270000822F809585BB8F2D8A95F1F790E080E030
:1027100080999F5F8F5F8A30D9F7983020F0809141
:10272000F309822B07C0933038F49091F309822F7C
:10273000809589238093F309842F0E94DB122196D0
:10274000C830D105A9F6DF91CF911F910F91FF906D
:1027500008958091F20981508093F2098F5F29F4E6
:102760008AE08093F2090E9469130895C39AC2987F
:1027700020E097FF02C0C49A01C0C498C398C39ACE
:102780002F5F203119F0880F991FF3CFC29A089557
:10279000BA9ABB9ABC9A80E090E10E94B61380E09E
:1027A00090EC0E94B61380E090EE0E94B61388E68B
:1027B00090E20E94B6130895EF92FF920F931F9339
:1027C0007B018C0188E690E20E94B6138FEF9FEFA9
:1027D000AFEFBFE0E822F9220A231B23C7019F7352
:1027E00090640E94B6134EE016950795F794E7940F
:1027F0004A95D1F7AFEFBFE3EA22FB22C70190640D
:102800000E94B6131F910F91FF90EF900895AF9221
:10281000BF92CF92DF92EF92FF920F931F9368398E
:102820002AE3720720E0820720E0920728F468E993
:102830007AE380E090E00CC061342CE9720720E07C
:10284000820720E0920720F060E47CE980E090E0DD
:102850006093F8097093F9098093FA099093FB0942
:1028600028EC30E040E050E00E94A9425B016C019E
:102870009B01A60160E070E080E090E00CE10E9426
:102880002138AA24BB24E1EECE2EDD24EE24FF2441
:1028900000E010E00E94A038122F032FF42EE52E46
:1028A000622F702F8F2D9E2D0E94DC131093F40940
:1028B0000093F509F092F609E092F7091F910F9144
:1028C000FF90EF90DF90CF90BF90AF9008951F9250
:1028D0000F920FB60F920BB60F921124DF92EF9268
:1028E000FF920F931F932F933F934F935F936F9399
:1028F0007F938F939F93AF93BF93CF93DF93EF9388
:10290000FF9354B145B1D090300AED2DF0E0E15382
:10291000FE4F208130E0942F80E0850F911DE9016A
:1029200044E0CC0FDD1F4A95E1F7C20FD31FC4501E
:10293000D64F9F838E832E853F85821B930B0888FD
:1029400002C0959587950A94E2F77C010027F7FC71
:102950000095102F88859985AA85BB85E80EF91EFC
:102960000A1F1B1FE886F9860A871B878A819B81BD
:1029700001969B838A832C813D818217930770F097
:102980001B821A8240E050E0C801B7010E94114347
:102990003D872C87188619861A861B86ED2DEF5FDA
:1029A000E093300AF0E0E153FE4F80818F3F11F455
:1029B0001092300AE091300AF0E0E153FE4F80813E
:1029C00090912F0A890F87B9369AFF91EF91DF9185
:1029D000CF91BF91AF919F918F917F916F915F91B7
:1029E0004F913F912F911F910F91FF90EF90DF90AA
:1029F0000F900BBE0F900FBE0F901F901895282FB1
:102A00008093F907ECEFF9E035E080E092E0108286
:102A100031831382128295838483178216821086F3
:102A20001186128613861586148617861686108AD6
:102A300071964AE0EF32F40751F78FEF91E09093EF
:102A40000B0A80930A0A90931C0A80931B0A87E062
:102A500086B9379A80E480932F0A213049F4109286
:102A6000300A8091CF01805C87B9339A369A0895F5
:102A70001092300A8091CF01805C87B93398089515
:102A8000982F833008F090E080912F0A890F87B942
:102A9000369A3699FECF54B145B1892F90E0342F44
:102AA00020E0250F311DFC0154E0EE0FFF1F5A9569
:102AB000E1F7E80FF91FE450F64F37832683868548
:102AC0009785281B390B008802C0359527950A94F5
:102AD000E2F7C901089590E0FC0164E0EE0FFF1FEA
:102AE0006A95E1F7E80FF91FE450F64F8485958564
:102AF000089590E0FC0174E0EE0FFF1F7A95E1F776
:102B0000E80FF91FE450F64F2681378186859785B7
:102B1000281B390B008802C0359527950A94E2F7E7
:102B2000C901089590E0FC01A4E0EE0FFF1FAA95F3
:102B3000E1F7E80FF91FE450F64F8481958108957D
:102B4000833008F080E06115710511F461E070E0F8
:102B500090E0FC01B4E0EE0FFF1FBA95E1F7E80F3B
:102B6000F91FE450F64F75836483089590E0FC01EB
:102B700024E0EE0FFF1F2A95E1F7E80FF91FE4505C
:102B8000F64F81810895833008F080E090E0FC01E9
:102B900034E0EE0FFF1F3A95E1F7E80FF91FE4501C
:102BA000F64F618308959091F907282F30E0913016
:102BB00091F4F90154E0EE0FFF1F5A95E1F7E20F8F
:102BC000F31FE450F64F848195816AE070E00E9423
:102BD000C842AB0115C0F90144E0EE0FFF1F4A9552
:102BE000E1F7E20FF31FE450F64F818190E024817A
:102BF0003581829FA001839F500D929F500D11241B
:102C0000CA0108952091CC0130E0829FB001839FDA
:102C1000700D929F700D1124882777FD8095982F55
:102C20000E94924120E030E04AE754E40E94F740DD
:102C300008952091CD0130E0829FB001839F700DF7
:102C4000929F700D1124882777FD8095982F0E9400
:102C5000924120E030E04AE754E40E94F7400895B2
:102C60002091CE0130E0829FB001839F700D929F32
:102C7000700D1124882777FD8095982F0E9492412E
:102C800020E030E04AE754E40E94F74008958F9234
:102C90009F92AF92BF92CF92DF92EF92FF920F93EB
:102CA0001F93CF93DF93E091300AF0E0E153FE4FA2
:102CB000D0808091F907813009F470C08D2C99245F
:102CC000F401A4E0EE0FFF1FAA95E1F7E80DF91D4E
:102CD000E450F64F8081882329F00E94E411892B6B
:102CE00009F04FC0E40174E0CC0FDD1F7A95E1F7E5
:102CF000C80DD91DC450D64FE884F9840A851B85B8
:102D00008D2D0E9440155C01CC24B7FCC094DC2CB6
:102D1000AE0CBF1CC01ED11EA886B986CA86DB8633
:102D20008A819B8101969B838A834C815D819A0174
:102D3000215030402817390778F41B821A829A01F3
:102D400040E050E0C601B5010E9411433D872C8749
:102D5000188619861A861B86840164E0000F111FED
:102D60006A95E1F7080D191D0450164FF80180818E
:102D70000E943412F801818190E00E94F711F8015D
:102D80008083E091300AEF5FE093300AF0E0E15396
:102D9000FE4F80818F3F11F41092300ADF91CF9166
:102DA0001F910F91FF90EF90DF90CF90BF90AF9069
:102DB0009F908F90089520E030E04CE350E0F901BF
:102DC000E755F54F1082249FF001259FF00D349FA9
:102DD000F00D1124EF5CF54F80E090E0119211921C
:102DE00001968E319105D1F72F5F3F4F223031058B
:102DF00031F708958091FA078F5F8093FA07823048
:102E000011F41092FA0708958091FA07882319F4B3
:102E100082E08093FA078091FA0781508093FA0745
:102E200008958091FA07282F30E0F901E755F54F12
:102E300080818F5F80838E3109F41082D901A7557C
:102E4000B54F8C91F90145E0EE0FFF1F4A95E1F770
:102E5000220F331FE21BF30BE80FF11DEE0FFF1FD4
:102E6000EF5CF54F80819181892B09F41C920895C4
:102E70008091FA07A82FB0E0FD01E755F54F80815A
:102E8000882311F48EE18083FD01E755F54F4081E1
:102E9000CD01880F991F9D0165E0220F331F6A95B0
:102EA000E1F7281B390B4150F901E40FF11DEE0F3A
:102EB000FF1FEF5CF54F80819181892B31F4442312
:102EC00091F7A755B54F1C920895A755B54F4C9350
:102ED00008958091FA0708958091FA07E9EAFAE0E7
:102EE000E80FF11D808108958091FA0790E0FC01C0
:102EF000E755F54F2081FC0135E0EE0FFF1F3A95B5
:102F0000E1F7880F991FE81BF90BE20FF11DEE0F97
:102F1000FF1FEF5CF54F0190F081E02D09950895BA
:102F20009C01E199FECF3FBB2EBBE09A8DB3089583
:102F30009C01E199FECF3FBB2EBB6DBB0FB6F89451
:102F4000E29AE19A0FBE089587E297E29093320ADF
:102F50008093310A82E89CE29093340A8093330A8A
:102F60008CEE9CE29093360A8093350A80E49EE2D0
:102F70009093380A8093370A84E19EE290933A0A4C
:102F80008093390A8CE89DE190933C0A80933B0A38
:102F90008EED99E290933E0A80933D0A8AEB99E286
:102FA0009093400A80933F0A86E999E29093420AFF
:102FB0008093410A89E69DE19093440A8093430AF5
:102FC00086E49DE19093460A8093450A8BE08093C6
:102FD000B10A8BE198E29093480A8093470A89EC02
:102FE00092E290936E0A80936D0A8CED93E2909337
:102FF000700A80936F0A8AEF9FE19093720A809320
:10300000710A89E99FE19093740A8093730A83E1BE
:103010009CE29093760A8093750A8DEA9BE29093E6
:10302000780A8093770A8AE89AE290937A0A8093E2
:10303000790A82E39AE290937C0A80937B0A86E481
:103040009BE290937E0A80937D0A8AEE9AE29093A7
:10305000800A80937F0A8DE09FE19093820A80939B
:10306000810A84E792E29093840A8093830A8AEB30
:1030700091E29093860A8093850A8BE092E2909386
:10308000880A8093870A8FE191E290938A0A80935D
:10309000890A89ED90E290938C0A80938B0A89E0EB
:1030A0009EE190938E0A80938D0A85EB9DE190932B
:1030B000900A80938F0A85E691E29093920A80931A
:1030C000910A8DEC9EE19093940A8093930A8CE58B
:1030D0009EE19093960A8093950A89E79FE19093E9
:1030E000980A8093970A87E59FE190939A0A8093C4
:1030F000990A8FED96E290939C0A80939B0A81E552
:1031000096E290939E0A80939D0A83EC95E29093B9
:10311000A00A80939F0A0895EF92FF920F931F9346
:1031200088E993E5A0E0B0E08093AB0A9093AC0A05
:10313000A093AD0AB093AE0A82E093E5A0E0B0E0C0
:103140008093B20A9093B30AA093B40AB093B50ADD
:1031500066E673E580E090E00E94071482E38093C6
:10316000B80A1092B60A88EC90E09093B00A809367
:10317000AF0A21E020939008109292081092C8079D
:1031800020938D0885E0809391088FEF8093B90A92
:103190008AE08093BA0A80E092ECA1E0B0E08093EC
:1031A000C7089093C808A093C908B093CA08209391
:1031B00031088BE490E09093BC0A8093BB0A80E5D1
:1031C00090E09093BE0A8093BD0A80E061E00E9487
:1031D000C31580E068EC70E00E94A01581E061E01A
:1031E0000E94C31581E068EC70E00E94A01582E0A7
:1031F00061E00E94C31582E068EC70E00E94A015B7
:1032000083E00E9419018FE58093C00A1092C10AE1
:1032100083E68093BE0685E480932C088091A50602
:103220009091A6068F5F9F4F71F488EE93E0909384
:10323000A6068093A5068CE290E068EE73E048E96C
:1032400057E10E9430408091A7068F3F81F484E6C9
:103250008093A706E199FECF8FE390E09FBB8EBBE2
:1032600084E68DBB0FB6F894E29AE19A0FBE809186
:103270000A0A90910B0A8F5F9F4F71F48FEF91E0D4
:1032800090930B0A80930A0A80E490E06FEF71E05C
:1032900048E957E10E94304080911B0A90911C0A36
:1032A0008F5F9F4F71F48FEF91E090931C0A809392
:1032B0001B0A82E490E06FEF71E048E957E10E9459
:1032C000304080912C0A90912D0A8F5F9F4F71F4AE
:1032D0008FEF91E090932D0A80932C0A84E490E084
:1032E0006FEF71E048E957E10E9430408091CD01D5
:1032F0008F3F81F487E38093CD01E199FECF88E48D
:1033000090E09FBB8EBB87E38DBB0FB6F894E29A2B
:10331000E19A0FBE8091CE018F3FA1F487E38093A5
:10332000CE01E199FECF89E490E09FBB8EBB87E39D
:103330008DBB0FB6F894E29AE19A0FBE03C04150DC
:103340004093B90A8091B90A0E9453307B018C01E5
:103350006091A70670E0882777FD8095982F0E94DE
:10336000924120E030E040E251E40E94F7409B01AE
:10337000AC01C801B7010E9442424091B90A181637
:10338000F4F28091BA0A481710F44093BA0A809177
:10339000B80A481710F44093B80A5091B80A20911F
:1033A000B60A30E0842F90E0851B910982179307BD
:1033B0001CF4451B4093B60A1F910F91FF90EF90AC
:1033C00008956091AB0A7091AC0A80E090E048E902
:1033D00057E10E9430406091B20A7091B30A82E0D6
:1033E00090E048E957E10E9430406091F8097091FF
:1033F000F90984E090E048E957E10E9430402091CB
:10340000B80AE199FECF88E090E09FBB8EBB2DBB50
:103410000FB6F894E29AE19A0FBE2091B60AE199AC
:10342000FECF86E090E09FBB8EBB2DBB0FB6F8941D
:10343000E29AE19A0FBE80E00E94B615282FE1992A
:10344000FECF89E090E09FBB8EBB2DBB0FB6F894FA
:10345000E29AE19A0FBE80E00E949215BC018AE0D8
:1034600090E048E957E10E94304081E00E94B615A3
:10347000282FE199FECF8CE090E09FBB8EBB2DBB47
:103480000FB6F894E29AE19A0FBE81E00E9492157D
:10349000BC018DE090E048E957E10E94304082E0B5
:1034A0000E94B615282FE199FECF8FE090E09FBBD8
:1034B0008EBB2DBB0FB6F894E29AE19A0FBE82E064
:1034C0000E949215BC0180E190E048E957E10E941A
:1034D000304020913008E199FECF85E190E09FBB1C
:1034E0008EBB2DBB0FB6F894E29AE19A0FBE6091A5
:1034F000AF0A7091B00A86E190E048E957E10E9476
:10350000304020919008E199FECF88E190E09FBB88
:103510008EBB2DBB0FB6F894E29AE19A0FBE2091B4
:103520008D08E199FECF89E190E09FBB8EBB2DBB5A
:103530000FB6F894E29AE19A0FBE20919108E199B2
:10354000FECF8AE190E09FBB8EBB2DBB0FB6F894F7
:10355000E29AE19A0FBE2091B90AE199FECF8BE180
:1035600090E09FBB8EBB2DBB0FB6F894E29AE19A18
:103570000FBE2091BA0AE199FECF8CE190E09FBB8B
:103580008EBB2DBB0FB6F894E29AE19A0FBE609104
:10359000C7087091C8088DE190E048E957E10E94A2
:1035A00030402091C7083091C8084091C908509117
:1035B000CA089A01442755278FE190E0B90148E9EC
:1035C00057E10E94304020913108E199FECF81E21D
:1035D00090E09FBB8EBB2DBB0FB6F894E29AE19AA8
:1035E0000FBE6091BB0A7091BC0A82E290E048E98C
:1035F00057E10E9430406091BD0A7091BE0A84E29A
:1036000090E048E957E10E9430402091C00AE199DA
:10361000FECF87E290E09FBB8EBB2DBB0FB6F89428
:10362000E29AE19A0FBE2091C10AE199FECF86E2AB
:1036300090E09FBB8EBB2DBB0FB6F894E29AE19A47
:103640000FBE2091BE06E199FECF88E290E09FBBBD
:103650008EBB2DBB0FB6F894E29AE19A0FBE209173
:103660002C08E199FECF89E290E09FBB8EBB2DBB79
:103670000FB6F894E29AE19A0FBE20919208E19970
:10368000FECF8AE290E09FBB8EBB2DBB0FB6F894B5
:10369000E29AE19A0FBE2091C807E199FECF8BE232
:1036A00090E09FBB8EBB2DBB0FB6F894E29AE19AD7
:1036B0000FBE0895EF92FF920F931F9380E090E06A
:1036C00060E977E10E941A40A0E0B0E08093AB0A85
:1036D0009093AC0AA093AD0AB093AE0A82E090E05A
:1036E00060E977E10E941A40A0E0B0E08093B20A5E
:1036F0009093B30AA093B40AB093B50A84E090E023
:1037000060E977E10E941A40A0E0B0E0BC01CD0181
:103710000E940714E199FECF88E090E09FBB8EBB2A
:10372000E09A8DB38093B80AE199FECF86E090E0ED
:103730009FBB8EBBE09A8DB38093B60AE199FECF12
:1037400089E090E09FBB8EBBE09A6DB380E00E9461
:10375000C3158AE090E060E977E10E941A40BC015D
:1037600080E00E94A015E199FECF8CE090E09FBB25
:103770008EBBE09A6DB381E00E94C3158DE090E0AE
:1037800060E977E10E941A40BC0181E00E94A01527
:10379000E199FECF8FE090E09FBB8EBBE09A6DB3C6
:1037A00082E00E94C31580E190E060E977E10E9429
:1037B0001A40BC0182E00E94A015E199FECF85E18C
:1037C00090E09FBB8EBBE09A8DB30E94190186E109
:1037D00090E060E977E10E941A409093B00A8093EC
:1037E000AF0AE199FECF88E190E09FBB8EBBE09AE3
:1037F0008DB380939008E199FECF89E190E09FBB63
:103800008EBBE09A8DB380938D08E199FECF8AE15B
:1038100090E09FBB8EBBE09A8DB380939108E199B5
:10382000FECF8BE190E09FBB8EBBE09A8DB380937F
:10383000B90AE199FECF8CE190E09FBB8EBBE09A84
:103840008DB38093BA0A8DE190E060E977E10E9440
:103850001A407C0100E010E0E092C708F092C8082E
:103860000093C9081093CA088FE190E060E977E1FE
:103870000E941A40A0E0B0E0DC01992788278E2939
:103880009F29A02BB12B8093C7089093C808A093C1
:10389000C908B093CA08E199FECF81E290E09FBBCE
:1038A0008EBBE09A8DB38093310882E290E060E9AC
:1038B00077E10E941A409093BC0A8093BB0A84E28D
:1038C00090E060E977E10E941A409093BE0A8093ED
:1038D000BD0AE199FECF87E290E09FBB8EBBE09AE4
:1038E0008DB38093C00AE199FECF86E290E09FBB42
:1038F0008EBBE09A8DB38093C10AE199FECF88E236
:1039000090E09FBB8EBBE09A8DB38093BE06E19999
:10391000FECF89E290E09FBB8EBBE09A8DB380938F
:103920002C08E199FECF8AE290E09FBB8EBBE09A23
:103930008DB380939208E199FECF8BE290E09FBB1C
:103940008EBBE09A8DB30E94F9008CE290E060E9B2
:1039500077E10E941A409093A6068093A5062FE275
:1039600030E0E199FECF3FBB2EBBE09A8DB3F90169
:10397000E556F84F80832F5F3F4F2F33310589F78E
:103980001092D907E199FECF8FE390E09FBB8EBBE9
:10399000E09A8DB38093A70680E490E060E977E138
:1039A0000E941A4090930B0A80930A0A82E490E0E6
:1039B00060E977E10E941A4090931C0A80931B0AE9
:1039C00084E490E060E977E10E941A4090932D0A28
:1039D00080932C0AE199FECF88E490E09FBB8EBBD8
:1039E000E09A8DB38093CD01E199FECF89E490E018
:1039F0009FBB8EBBE09A8DB38093CE011F910F9138
:103A0000FF90EF9008958091E00986FF07C00E9423
:103A100038178091E0098F7B8093E0098091E0095D
:103A200083FF07C00E9411178091E009877F809370
:103A3000E0098091E00987FF07C00E94FA16809193
:103A4000E0098F778093E0098091E00980FF07C04B
:103A50000E946D048091E0098E7F8093E00980913F
:103A6000E00981FF12C00E94C731882311F080E075
:103A700005C01092DA071092DB0785E00E94E2038E
:103A80008091E0098D7F8093E009089500D000D0F7
:103A900000D0EDB7FEB731968EEF98E0ADB7BEB768
:103AA00012969C938E93119783ED91E0938382837A
:103AB0008AEC97E0958384830E9471408DB79EB70E
:103AC00006960FB6F8949EBF0FBE8DBF0E94031DD1
:103AD000089500D000D000D0EDB7FEB731968EEF3C
:103AE00098E0ADB7BEB712969C938E9311978DED6B
:103AF00091E0938382838EEE91E0958384830E948C
:103B000071408DB79EB706960FB6F8949EBF0FBE54
:103B10008DBF0E94031D089500D000D000D0EDB7E6
:103B2000FEB731968EEF98E0ADB7BEB712969C9374
:103B30008E93119787EF91E0938382838091C907D9
:103B40002FE0829FC0011124875A994F9583848367
:103B50000E9471408DB79EB706960FB6F8949EBF2F
:103B60000FBE8DBF0E94031D08958091E00982FF62
:103B700016C02091BD0A3091BE0A8091BB0A909177
:103B8000BC0A8217930730F4215030403093BE0AAC
:103B90002093BD0A8091E0098B7F8093E00980919A
:103BA000E00984FF11C08091BD0A9091BE0A8F3553
:103BB000910528F401969093BE0A8093BD0A8091E6
:103BC000E0098F7E8093E00900D000D000D0EDB7EF
:103BD000FEB731968EEF98E0ADB7BEB712969C93C4
:103BE0008E93119782E092E0938382838091BD0A45
:103BF0009091BE0A958384830E9471408DB79EB7D1
:103C000006960FB6F8949EBF0FBE8DBF0E94031D8F
:103C100008958091E00982FF10C08091BB0A9091C5
:103C2000BC0A009729F001979093BC0A8093BB0AC5
:103C30008091E0098B7F8093E0098091E00984FF07
:103C400016C02091BB0A3091BC0A8091BD0A9091A8
:103C5000BE0A2817390730F42F5F3F4F3093BC0A54
:103C60002093BB0A8091E0098F7E8093E00900D009
:103C700000D000D0EDB7FEB731968EEF98E0ADB72B
:103C8000BEB712969C938E93119789E192E093832D
:103C900082838091BB0A9091BC0A958384830E94A1
:103CA00071408DB79EB706960FB6F8949EBF0FBEB3
:103CB0008DBF0E94031D08951F932091C708309166
:103CC000C8084091C9085091CA08EDE3F6E010E039
:103CD00080819181A281B381281739074A075B0748
:103CE00021F01F5F3496173099F78DB79EB708976C
:103CF0000FB6F8949EBF0FBE8DBFEDB7FEB73196DD
:103D00008EEF98E0ADB7BEB712969C938E93119745
:103D100081E392E0938382832483358346835783B0
:103D20000E9471408091E0092DB73EB7285F3F4F58
:103D30000FB6F8943EBF0FBE2DBF84FF09C01F5FB2
:103D4000173009F410E08091E0098F7E8093E0093C
:103D50008091E00982FF09C0112309F417E0115096
:103D60008091E0098B7F8093E009E12FF0E0EE0F76
:103D7000FF1FEE0FFF1FE35CF94F80819181A2814D
:103D8000B3818093C7089093C808A093C908B093E3
:103D9000CA080E94031D1F91089500D000D000D0D2
:103DA000EDB7FEB731968EEF98E0ADB7BEB712967D
:103DB0009C938E93119782E492E093838283809107
:103DC0003108848315820E9471408091E0092DB7EB
:103DD0003EB72A5F3F4F0FB6F8943EBF0FBE2DBFD0
:103DE00084FF0AC0809131088F5F809331088091F1
:103DF000E0098F7E8093E0098091E00982FF0AC08C
:103E0000809131088150809331088091E0098B7F47
:103E10008093E0090E94031D089500D000D000D0D7
:103E2000EDB7FEB731968EEF98E0ADB7BEB71296FC
:103E30009C938E93119787E592E093838283809180
:103E4000AF0A9091B00A958384830E94714080915B
:103E5000E0092DB73EB72A5F3F4F0FB6F8943EBF3B
:103E60000FBE2DBF84FF0EC08091AF0A9091B00AA3
:103E700001969093B00A8093AF0A8091E0098F7EFB
:103E80008093E0098091E00982FF0EC08091AF0A23
:103E90009091B00A01979093B00A8093AF0A8091F5
:103EA000E0098B7F8093E0090E94031D08958091B3
:103EB000E00985FF15C00E948C180E94E1198EEF61
:103EC00098E06DE672E00E9408400E94790C84EF51
:103ED00091E00E945D118091E0098F7D8093E0095F
:103EE0008EEF98E062E872E00E9408400E94031D95
:103EF00008958091E00985FF13C00E94E1198EEFBB
:103F000098E067E972E00E9408400E94790C84EF13
:103F100091E00E945D118091E0098F7D8093E0091E
:103F20008EEF98E06CEA72E00E9408400E94031D48
:103F300008958091E00982FF0CC08091BA0A8B300D
:103F400018F081508093BA0A8091E0098B7F8093AA
:103F5000E0098091E00984FF1FC09091BA0A809126
:103F6000B80A981738F48091B90A981718F49F5F27
:103F70009093BA0A0E94C731882349F09091BA0AF7
:103F80008091B70A891718F4892F0E9438308091E0
:103F9000E0098F7E8093E0098091BA0A0E94533035
:103FA0002DB73EB7285030400FB6F8943EBF0FBE35
:103FB0002DBFEDB7FEB731962EEF38E0ADB7BEB7E7
:103FC00012963C932E93119721EC32E03383228397
:103FD00064837583868397830E9471402DB73EB7B3
:103FE000285F3F4F0FB6F8943EBF0FBE2DBF0E9413
:103FF000031D0895EF92FF920F931F938091E009A4
:1040000082FF27C04091B90A8091B60A2091B80A70
:1040100030E0280F311D842F90E0281739073CF439
:104020008091BA0A841718F441504093B90A0E944B
:10403000C731882349F09091B90A8091B70A98173F
:1040400018F4892F0E9438308091E0098B7F80938B
:10405000E0098091E00984FF2AC08091B90A8F5F4E
:104060000E9453307B018C016091A70670E0882785
:1040700077FD8095982F0E94924120E030E040E249
:1040800051E40E94F7409B01AC01C801B7010E94B6
:10409000F34088233CF48091B90A8F3F19F08F5F79
:1040A0008093B90A8091E0098F7E8093E009809126
:1040B000B90A0E9453302DB73EB7285030400FB692
:1040C000F8943EBF0FBE2DBFEDB7FEB731962EEF71
:1040D00038E0ADB7BEB712963C932E93119728EDFA
:1040E00032E03383228364837583868397830E94BF
:1040F00071402DB73EB7285F3F4F0FB6F8943EBFD3
:104100000FBE2DBF0E94031D1F910F91FF90EF90D6
:1041100008958091E00982FF11C08091A5069091D9
:10412000A606893C910528F001979093A6068093F6
:10413000A5068091E0098B7F8093E0098091E009DA
:1041400084FF12C08091A5069091A60627E0803DCD
:10415000920728F401969093A6068093A506809175
:10416000E0098F7E8093E00900D000D000D0EDB749
:10417000FEB731968EEF98E0ADB7BEB712969C931E
:104180008E93119780EF92E0938382838091A506AE
:104190009091A606958384830E9471408DB79EB747
:1041A00006960FB6F8949EBF0FBE8DBF0E94031DEA
:1041B00008958091E00982FF0CC080919108181643
:1041C0001CF48150809391088091E0098B7F80934B
:1041D000E0098091E00984FF0CC0809191088A3049
:1041E0001CF48F5F809391088091E0098F7E80930B
:1041F000E00900D000D000D0EDB7FEB731968EEFC9
:1042000098E0ADB7BEB712969C938E93119784E059
:1042100093E09383828380919108992787FD9095FD
:10422000958384830E9471408DB79EB706960FB622
:10423000F8949EBF0FBE8DBF0E94031D089580910C
:10424000E00982FF0CC080918D0818161CF4815083
:1042500080938D088091E0098B7F8093E0098091A5
:10426000E00984FF0CC080918D088A301CF48F5FB8
:1042700080938D088091E0098F7E8093E00900D0C3
:1042800000D000D0EDB7FEB731968EEF98E0ADB715
:10429000BEB712969C938E93119787E193E0938318
:1042A000828380918D08992787FD909595838483DB
:1042B0000E9471408DB79EB706960FB6F8949EBFC8
:1042C0000FBE8DBF0E94031D08958091E00982FFFB
:1042D00011C08091C807882319F482E08093C80731
:1042E0008091C80781508093C8078091E0098B7F37
:1042F0008093E0098091E00984FF0EC08091C80797
:104300008F5F8093C807823010F01092C8078091A9
:10431000E0098F7E8093E0098091C807813019F011
:1043200029E233E002C02DE233E000D000D000D01B
:10433000EDB7FEB731968EEF98E0ADB7BEB71296E7
:104340009C938E93119780E393E0938382833583CC
:1043500024830E9471408DB79EB706960FB6F894DD
:104360009EBF0FBE8DBF8091C8070E94F9000E94BA
:10437000031D08958091E00982FF11C08091920889
:10438000882319F482E080939208809192088150EA
:10439000809392088091E0098B7F8093E00980915F
:1043A000E00984FF0EC0809192088F5F809392088D
:1043B000823010F0109292088091E0098F7E8093F5
:1043C000E00980919208813019F029E233E002C0BF
:1043D0002DE233E000D000D000D0EDB7FEB731962B
:1043E0008EEF98E0ADB7BEB712969C938E9311975F
:1043F00080E493E093838283358324830E94714019
:104400008DB79EB706960FB6F8949EBF0FBE8DBFB0
:104410000E94031D08958091E00982FF1CC08091D5
:104420009008813019F484E080939008809190087E
:10443000815080939008813019F40E94F50006C0E5
:104440000E94C731882311F00E9435018091E00954
:104450008B7F8093E0098091E00984FF1CC08091EC
:1044600090088F5F80939008843018F081E08093EB
:10447000900880919008813019F40E94F50006C0E0
:104480000E94C731882311F00E9435018091E00914
:104490008F7E8093E00900D000D000D0EDB7FEB74A
:1044A00031968EEF98E0ADB7BEB712969C938E937F
:1044B000119785E593E0938382838091900826E0AD
:1044C000829FC00111248B5D994F958384830E9444
:1044D00071408DB79EB706960FB6F8949EBF0FBE7B
:1044E0008DBF0E94031D08958091E00982FF11C0D5
:1044F00080913008813019F484E0809330088091F5
:1045000030088150809330088091E0098B7F809340
:10451000E0098091E00984FF0FC0809130088F5F2F
:1045200080933008843018F081E0809330088091C7
:10453000E0098F7E8093E00900D000D000D0EDB775
:10454000FEB731968EEF98E0ADB7BEB712969C934A
:104550008E93119785E693E0938382838091300850
:1045600025E0829FC00111248F5E994F958384833B
:104570000E9471408DB79EB706960FB6F8949EBF05
:104580000FBE8DBF809130080E9419010E94031D4B
:1045900008958091E00982FD04C08091E00984FFC4
:1045A0003AC08091F5079091F607A091F707B09176
:1045B000F8072091FE073091FF07409100085091C5
:1045C0000108821B930BA40BB50B845F9140A040A4
:1045D000B04068F48091FC079091FD078B34910501
:1045E00054F401969093FD078093FC0704C0109249
:1045F000FD071092FC078091F5079091F607A091B6
:10460000F707B091F8078093FE079093FF07A093F8
:104610000008B09301088091E00982FF5BC080919F
:10462000FC079091FD072091AB0A3091AC0A4091B4
:10463000AD0A5091AE0A8B3491052CF02A503040CF
:104640004040504004C021503040404050402093F2
:10465000AB0A3093AC0A4093AD0A5093AE0A209156
:10466000B20A3091B30A4091B40A5091B50A8091D0
:10467000AB0A9091AC0AA091AD0AB091AE0A821734
:104680009307A407B50740F42093AB0A3093AC0A14
:104690004093AD0A5093AE0A2091AB0A3091AC0A18
:1046A0004091AD0A5091AE0A8091F8099091F909B4
:1046B000A091FA09B091FB09281739074A075B074F
:1046C00020F4CA01B9010E9407148091E0098B7F90
:1046D0008093E0098091E00984FF3EC08091FC074F
:1046E0009091FD072091AB0A3091AC0A4091AD0A40
:1046F0005091AE0A8B3491052CF0265F3F4F4F4FFF
:104700005F4F04C02F5F3F4F4F4F5F4F2093AB0A67
:104710003093AC0A4093AD0A5093AE0A8091AB0A35
:104720009091AC0AA091AD0AB091AE0A81549C4917
:10473000A040B04060F080E49CE9A0E0B0E080934D
:10474000AB0A9093AC0AA093AD0AB093AE0A8091E5
:10475000E0098F7E8093E0098DB79EB708970FB66A
:10476000F8949EBF0FBE8DBFEDB7FEB731968EEFAA
:1047700098E0ADB7BEB712969C938E9311978FE6D3
:1047800093E0938382838091AB0A9091AC0AA091CD
:10479000AD0AB091AE0A84839583A683B7830E9445
:1047A00071408DB79EB708960FB6F8949EBF0FBEA6
:1047B0008DBF0E94031D08958091E00982FD04C011
:1047C0008091E00984FF3AC08091F5079091F60747
:1047D000A091F707B091F8072091040830910508DF
:1047E0004091060850910708821B930BA40BB50B50
:1047F000845F9140A040B04068F48091020890919D
:1048000003088B34910554F4019690930308809328
:10481000020804C010920308109202088091F50764
:104820009091F607A091F707B091F80780930408DC
:1048300090930508A0930608B09307088091E009BB
:1048400082FF3EC080910208909103082091B20A35
:104850003091B30A4091B40A5091B50A8B34910556
:104860002CF02A5030404040504004C0215030408D
:10487000404050402093B20A3093B30A4093B40AA8
:104880005093B50A8091B20A9091B30AA091B40AEC
:10489000B091B50A88599A43A040B04060F488E9C5
:1048A0009AE3A0E0B0E08093B20A9093B30AA09399
:1048B000B40AB093B50A8091E0098B7F8093E00938
:1048C0008091E00984FF5BC0809102089091030809
:1048D0002091B20A3091B30A4091B40A5091B50ABE
:1048E0008B3491052CF0265F3F4F4F4F5F4F04C034
:1048F0002F5F3F4F4F4F5F4F2093B20A3093B30A61
:104900004093B40A5093B50A2091AB0A3091AC0A97
:104910004091AD0A5091AE0A8091B20A9091B30ACB
:10492000A091B40AB091B50A281739074A075B0766
:1049300040F42093B20A3093B30A4093B40A5093E0
:10494000B50A2091B20A3091B30A4091B40A50914D
:10495000B50A8091F8099091F909A091FA09B091EE
:10496000FB0982179307A407B50720F4CA01B90110
:104970000E9407148091E0098F7E8093E0098DB733
:104980009EB708970FB6F8949EBF0FBE8DBFEDB7C8
:10499000FEB731968EEF98E0ADB7BEB712969C93F6
:1049A0008E93119783E893E0938382838091B20A78
:1049B0009091B30AA091B40AB091B50A848395830B
:1049C000A683B7830E9471408DB79EB708960FB635
:1049D000F8949EBF0FBE8DBF0E94031D0895809165
:1049E000E00984FF0DC083E00E94B615682F6F5F59
:1049F00083E00E94C3158091E0098F7E8093E009D7
:104A00008091E00982FF0DC083E00E94B615682FF7
:104A1000615083E00E94C3158091E0098B7F8093F1
:104A2000E00983E00E94B61500D000D000D0EDB7B9
:104A3000FEB731962EEF38E0ADB7BEB712963C9375
:104A40002E93119727E933E03383228384831582E1
:104A50000E9471408DB79EB706960FB6F8949EBF20
:104A60000FBE8DBF0E94031D08958091E00984FF51
:104A70000EC083E00E949215BC016F5F7F4F83E000
:104A80000E94A0158091E0098F7E8093E0098091BB
:104A9000E00982FF0EC083E00E949215BC016150C4
:104AA000704083E00E94A0158091E0098B7F809385
:104AB000E00983E00E94921500D000D000D0EDB74D
:104AC000FEB731962EEF38E0ADB7BEB712963C93E5
:104AD0002E93119728EA33E03383228395838483CE
:104AE0000E9471408DB79EB706960FB6F8949EBF90
:104AF0000FBE8DBF0E94031D08958091E00984FFC1
:104B00000DC082E00E94B615682F6F5F82E00E94A0
:104B1000C3158091E0098F7E8093E0098091E009C0
:104B200082FF0DC082E00E94B615682F615082E0BE
:104B30000E94C3158091E0098B7F8093E00982E099
:104B40000E94B61500D000D000D0EDB7FEB7319668
:104B50002EEF38E0ADB7BEB712963C932E93119767
:104B60002AEB33E033832283848315820E947140D1
:104B70008DB79EB706960FB6F8949EBF0FBE8DBF39
:104B80000E94031D08958091E00984FF0EC082E019
:104B90000E949215BC016F5F7F4F82E00E94A015BA
:104BA0008091E0098F7E8093E0098091E00982FF87
:104BB0000EC082E00E949215BC016150704082E0FC
:104BC0000E94A0158091E0098B7F8093E00982E02C
:104BD0000E94921500D000D000D0EDB7FEB73196FC
:104BE0002EEF38E0ADB7BEB712963C932E931197D7
:104BF0002BEC33E033832283958384830E947140BE
:104C00008DB79EB706960FB6F8949EBF0FBE8DBFA8
:104C10000E94031D08958091E00984FF0DC081E08A
:104C20000E94B615682F6F5F81E00E94C3158091C6
:104C3000E0098F7E8093E0098091E00982FF0DC03A
:104C400081E00E94B615682F615081E00E94C31573
:104C50008091E0098B7F8093E00981E00E94B61586
:104C600000D000D000D0EDB7FEB731962EEF38E07F
:104C7000ADB7BEB712963C932E9311972DED33E04E
:104C800033832283848315820E9471408DB79EB73F
:104C900006960FB6F8949EBF0FBE8DBF0E94031DEF
:104CA00008958091E00984FF0EC081E00E94921572
:104CB000BC016F5F7F4F81E00E94A0158091E009E9
:104CC0008F7E8093E0098091E00982FF0EC081E031
:104CD0000E949215BC016150704081E00E94A015B5
:104CE0008091E0098B7F8093E00981E00E9492151A
:104CF00000D000D000D0EDB7FEB731962EEF38E0EF
:104D0000ADB7BEB712963C932E9311972EEE33E0BB
:104D100033832283958384830E9471408DB79EB72D
:104D200006960FB6F8949EBF0FBE8DBF0E94031D5E
:104D300008958091E00984FF0DC080E00E94B615BF
:104D4000682F6F5F80E00E94C3158091E0098F7E1D
:104D50008093E0098091E00982FF0DC080E00E940D
:104D6000B615682F615080E00E94C3158091E0095C
:104D70008B7F8093E00980E00E94B61500D000D0C0
:104D800000D0EDB7FEB731962EEF38E0ADB7BEB725
:104D900012963C932E93119720E034E033832283C4
:104DA000848315820E9471408DB79EB706960FB618
:104DB000F8949EBF0FBE8DBF0E94031D0895809181
:104DC000E00984FF0EC080E00E949215BC016F5F75
:104DD0007F4F80E00E94A0158091E0098F7E809334
:104DE000E0098091E00982FF0EC080E00E949215E8
:104DF000BC016150704080E00E94A0158091E009E4
:104E00008B7F8093E00980E00E94921500D000D053
:104E100000D0EDB7FEB731962EEF38E0ADB7BEB794
:104E200012963C932E93119721E134E03383228331
:104E3000958384830E9471408DB79EB706960FB606
:104E4000F8949EBF0FBE8DBF0E94031D0895AF92C0
:104E5000BF92CF92DF92EF92FF920F931F938091B8
:104E6000E00984FF37C08091F8099091F909A09179
:104E7000FA09B091FB090196A11DB11D8093F809B3
:104E80009093F909A093FA09B093FB092091AB0A1A
:104E90003091AC0A4091AD0A5091AE0A28173907FB
:104EA0004A075B0740F42093F8093093F9094093CF
:104EB000FA095093FB096091F8097091F909809102
:104EC000FA099091FB090E9407148091E0098F7EF6
:104ED0008093E0098091E00982FF37C08091F80952
:104EE0009091F909A091FA09B091FB090197A109E4
:104EF000B1098093F8099093F909A093FA09B09346
:104F0000FB092091B20A3091B30A4091B40A509142
:104F1000B50A82179307A407B50740F42093F80950
:104F20003093F9094093FA095093FB096091F8090D
:104F30007091F9098091FA099091FB090E94071478
:104F40008091E0098B7F8093E00981E00E946B15DE
:104F50008C0180E00E946B157C01C8010E94301614
:104F60005B016C0120E030E040E050E00E94F34043
:104F7000882354F40F2EF0E0AF2EF0E0BF2EF0E0C7
:104F8000CF2EF0E0DF2EF02DC7010E9419167B0115
:104F90008C0120E030E040E050E00E94F3408823A4
:104FA00054F40F2EF0E0EF2EF0E0FF2EF0E00F2F84
:104FB000F0E01F2FF02D8DB79EB740970FB6F894F5
:104FC0009EBF0FBE8DBFEDB7FEB731968EEF98E056
:104FD000ADB7BEB712969C938E93119783E294E07F
:104FE000938382838091F8099091F909A091FA093D
:104FF000B091FB0984839583A683B783A086B1868D
:10500000C286D386E486F586068717870E9471409C
:105010008DB79EB740960FB6F8949EBF0FBE8DBF5A
:105020000E94031D1F910F91FF90EF90DF90CF9092
:10503000BF90AF900895CF92DF92EF92FF920F93BF
:105040001F938091E00985FF41C08091FB07882371
:10505000C1F50E94F50081E00E94D3152091AF0AAE
:105060003091B00A280F391F30930908209308089F
:105070006091B20A7091B30A8091B40A9091B50A16
:105080000E9407148091B20A9091B30AA091B40AC9
:10509000B091B50A8093110890931208A093130859
:1050A000B093140880930D0890930E08A0930F08F6
:1050B000B093100810920C0810920B0881E08093B6
:1050C000FB078091E0098F7D8093E0098091FB07C9
:1050D000882309F4F8C02091F8093091F90940912A
:1050E000FA095091FB098091AB0A9091AC0AA0910A
:1050F000AD0AB091AE0A281739074A075B0708F0D6
:105100009CC080910A08882349F4809108089091F6
:1051100009080E94F71180930A08DDC00E94E4117B
:10512000892B09F0D8C080910A080E94341210928D
:105130000A08F89481E00E946B15D82EC92E789445
:10514000E090F809F090F9090091FA091091FB0933
:105150000E9430162DB73EB72C5030400FB6F89451
:105160003EBF0FBE2DBFEDB7FEB731962EEF38E034
:10517000ADB7BEB712963C932E93119722E434E05C
:1051800033832283E482F5820683178360877187E5
:10519000828793870E9471408D2D9C2D20910B0852
:1051A00030910C084DB75EB7445F5F4F0FB6F8946F
:1051B0005EBF0FBE4DBF28173907A8F490930C08A7
:1051C00080930B088091F8099091F909A091FA0950
:1051D000B091FB098093110890931208A0931308D3
:1051E000B093140813C08217930781F48091F809D3
:1051F0009091F909A091FA09B091FB0980930D08EB
:1052000090930E08A0930F08B09310086091F809CE
:105210007091F9098091FA099091FB09665F7F4FBF
:105220008F4F9F4F6093F8097093F9098093FA09A3
:105230009093FB090E9407144EC0209111083091F1
:105240001208409113085091140880910D08909114
:105250000E08A0910F08B091100882179307A407B9
:10526000B50740F420930D0830930E0840930F08C3
:105270005093100880910D0890910E08A0910F088E
:10528000B0911008280F391F4A1F5B1F569547958C
:1052900037952795CA01B9010E9407148091B60A73
:1052A0009091B80A890F0E9438308091C10A90917C
:1052B000C00A890F0E9400320E9411170E94350116
:1052C0001092FB0708C08EEF98E06AE574E00E9438
:1052D00008400E94031D1F910F91FF90EF90DF90F7
:1052E000CF90089583E00E946B1500D000D000D0CD
:1052F000EDB7FEB731962EEF38E0ADB7BEB71296D8
:105300003C932E9311972FE634E0338322839583C9
:1053100084830E9471408DB79EB706960FB6F894AD
:105320009EBF0FBE8DBF0E94031D089582E00E94A4
:105330006B1500D000D000D0EDB7FEB731962EEF40
:1053400038E0ADB7BEB712963C932E9311972AE77B
:1053500034E033832283958384830E9471408DB728
:105360009EB706960FB6F8949EBF0FBE8DBF0E94E3
:10537000031D089581E00E946B1500D000D000D07D
:10538000EDB7FEB731962EEF38E0ADB7BEB7129647
:105390003C932E93119725E834E033832283958341
:1053A00084830E9471408DB79EB706960FB6F8941D
:1053B0009EBF0FBE8DBF0E94031D089580E00E9416
:1053C0006B1500D000D000D0EDB7FEB731962EEFB0
:1053D00038E0ADB7BEB712963C932E93119720E9F3
:1053E00034E033832283958384830E9471408DB798
:1053F0009EB706960FB6F8949EBF0FBE8DBF0E9453
:10540000031D08958DB79EB708970FB6F8949EBFF9
:105410000FBE8DBFEDB7FEB731968EEF98E0ADB7FA
:10542000BEB712969C938E9311978BE994E0938369
:1054300082838091F4099091F509A091F609B091C9
:10544000F70984839583A683B7830E9471408DB743
:105450009EB708960FB6F8949EBF0FBE8DBF0E94F0
:10546000031D08958091E00982FF0CC080912C08F3
:10547000863418F0815080932C088091E0098B7F4E
:105480008093E0098091E00984FF1FC090912C086F
:105490008091C00A981738F48091BE06981718F4C6
:1054A0009F5F90932C080E94C731882349F0909108
:1054B0002C088091BF0A891718F4892F0E940032A6
:1054C0008091E0098F7E8093E00900D000D000D069
:1054D000EDB7FEB731968EEF98E0ADB7BEB7129636
:1054E0009C938E93119780EB94E0938382838091B9
:1054F0002C0890E00196958384830E9471408DB7BB
:105500009EB706960FB6F8949EBF0FBE8DBF0E9441
:10551000031D08958091E00982FF27C04091BE06D7
:105520008091C10A2091C00A30E0280F311D842FDC
:1055300090E0281739073CF480912C08841718F460
:1055400041504093BE060E94C731882349F0909194
:10555000BE068091BF0A981718F4892F0E94003266
:105560008091E0098B7F8093E0098091E00984FFBE
:105570000CC08091BE06833618F48F5F8093BE0600
:105580008091E0098F7E8093E00900D000D000D0A8
:10559000EDB7FEB731968EEF98E0ADB7BEB7129675
:1055A0009C938E93119789EC94E0938382838091EE
:1055B000BE0690E00196958384830E9471408DB76A
:1055C0009EB706960FB6F8949EBF0FBE8DBF0E9481
:1055D000031D089500D000D000D0EDB7FEB731967E
:1055E0008EEF98E0ADB7BEB712969C938E9311974D
:1055F00080EE94E0938382838091C10A8483158234
:105600000E9471408091E0092DB73EB72A5F3F4F5D
:105610000FB6F8943EBF0FBE2DBF84FF1FC0509140
:10562000BE067091C10A6091C00A4091BD06852FE7
:1056300090E0871B9109861B9109242F30E0821787
:10564000930724F4561B5093C10A03C0470F40939D
:10565000C10A8091E0098F7E8093E0098091E00982
:1056600082FF11C08091C10A9091BD06891718F47C
:105670001092C10A03C0891B8093C10A8091E0097E
:105680008B7F8093E0090E94031D089500D000D015
:1056900000D0EDB7FEB731968EEF98E0ADB7BEB74C
:1056A00012969C938E93119789EF94E09383828353
:1056B0008091C00A90E00196958384830E94714096
:1056C0008091E0092DB73EB72A5F3F4F0FB6F8949F
:1056D0003EBF0FBE2DBF84FF1FC05091BE0670910C
:1056E000C10A6091C00A4091BD06852F90E0871BDA
:1056F0009109861B9109242F30E08217930724F427
:10570000571B5093C00A03C0460F4093C00A8091B4
:10571000E0098F7E8093E0098091E00982FF1AC042
:105720004091C00A60912C085091BD06242F30E0B2
:10573000862F90E0850F911D281739071CF4609380
:10574000C00A03C0451B4093C00A8091E0098B7FCB
:105750008093E0090E94031D08958091B60A0E947B
:1057600053302DB73EB7285030400FB6F8943EBFA7
:105770000FBE2DBFEDB7FEB731962EEF38E0ADB7B7
:10578000BEB712963C932E93119721E135E03383F7
:10579000228364837583868397830E9471408091FE
:1057A000E0092DB73EB7285F3F4F0FB6F8943EBFD4
:1057B0000FBE2DBF84FF1FC05091B90A7091B60A69
:1057C0006091B80A4091A406852F90E0871B91094B
:1057D000861B9109242F30E08217930724F4561B6F
:1057E0005093B60A03C0470F4093B60A8091E00970
:1057F0008F7E8093E0098091E00982FF11C0809143
:10580000B60A9091A406891718F41092B60A03C03C
:10581000891B8093B60A8091E0098B7F8093E00911
:105820000E94031D08958091B80A0E9453302DB73D
:105830003EB7285030400FB6F8943EBF0FBE2DBF84
:10584000EDB7FEB731962EEF38E0ADB7BEB7129682
:105850003C932E9311972CE235E0338322836483AB
:105860007583868397830E9471408091E0092DB7EC
:105870003EB7285F3F4F0FB6F8943EBF0FBE2DBF17
:1058800084FF1FC05091B90A7091B60A6091B80A9E
:105890004091A406852F90E0871B9109861B9109F2
:1058A000242F30E08217930724F4571B5093B80A33
:1058B00003C0460F4093B80A8091E0098F7E809321
:1058C000E0098091E00982FF1AC04091B80A609116
:1058D000BA0A5091A406242F30E0862F90E0850F5D
:1058E000911D281739071CF46093B80A03C0451BA3
:1058F0004093B80A8091E0098B7F8093E0090E9471
:10590000031D089500D000D000D0EDB7FEB731964A
:105910008EEF98E0ADB7BEB712969C938E93119719
:1059200086E495E0938382838091BF0A90E001969C
:10593000958384830E9471408091E0092DB73EB722
:105940002A5F3F4F0FB6F8943EBF0FBE2DBF84FFB6
:105950001EC06091BE065091BF0A4091BD06862FC1
:1059600090E0851B9109242F30E0821793071CF4E7
:105970006093BF0A03C0450F4093BF0A8091BF0ADE
:105980000E9400328091E0098F7E8093E00980912F
:10599000E00982FF1EC04091BF0A60912C0850911F
:1059A000BD06242F30E0862F90E0850F911D28172B
:1059B00039071CF46093BF0A03C0451B4093BF0A1C
:1059C0008091BF0A0E9400328091E0098B7F809312
:1059D000E0090E94031D08958091B70A0E94533088
:1059E0002DB73EB7285030400FB6F8943EBF0FBEDB
:1059F0002DBFEDB7FEB731962EEF38E0ADB7BEB78D
:105A000012963C932E93119722E635E0338322833E
:105A100064837583868397830E9471408091E00937
:105A20002DB73EB7285F3F4F0FB6F8943EBF0FBE6D
:105A30002DBF84FF25C05091B70A552329F48091CA
:105A4000BA0A8093B70A13C06091B90A4091A406BC
:105A5000862F90E0851B9109242F30E08217930751
:105A60001CF46093B70A03C0450F4093B70A8091B6
:105A7000B70A0E9438308091E0098F7E8093E00958
:105A80008091E00982FF23C04091B70A5091BA0A81
:105A9000451719F41092B70A11C06091A406242F7B
:105AA00030E0852F90E0860F911D281739071CF4F0
:105AB0005093B70A03C0461B4093B70A8091B70AB8
:105AC0000E9438308091E0098B7F8093E0090E942A
:105AD000031D08952DB73EB7285030400FB6F894F7
