:100000000C94C7000C94E6000C94E6000C94E600F7
:100010000C94E6000C94E6000C941F040C94E6008B
:100020000C94EF030C94E6000C94E6000C94E600AC
:100030000C94E6000C94E6000C94E6000C94381343
:100040000C94E6000C94E6000C94E6000C94E60098
:100050000C94E6000C9497150C94E6000C94E600C2
:100060000C94E6000C94E6000C94E6000C94E60078
:100070000C94E6000C94E6000C94270F0C94E60018
:100080000C94E6000C94E6000C94E6006E616E00A1
:10009000696E660000407A10F35A00A0724E18098B
:1000A0000010A5D4E80000E87648170000E40B54DF
:1000B000020000CA9A3B000000E1F50500008096AE
:1000C0009800000040420F000000A08601000000E0
:1000D000102700000000E80300000000640000009A
:1000E00000000A00000000000100000000002C7663
:1000F000D888DC674F0823DFC1DFAE59E1B1B7967E
:10010000E5E3E453C63AE651997696E8E6C28426DA
:10011000EB898C9B62ED407C6FFCEFBC9C9F40F2B6
:10012000BAA56FA5F490055A2AF75C936B6CF96732
:100130006DC11BFCE0E40D47FEF520E6B500D0EDF7
:10014000902E0300943577050080841E080000205F
:100150004E0A000000C80C333333330F986E1283FD
:100160001141EF8D2114893BE65516CFFEE6DB18D1
:10017000D1844B381BF77C1D901DA4BBE424203296
:1001800084725E228100C9F124ECA1E53D2711248F
:100190001FBECFEFD0E1DEBFCDBF18E0A0E0B1E0E1
:1001A000E2E7F0E900E00BBF02C007900D92A23534
:1001B000B107D9F71BE0A2E5B8E001C01D92A03756
:1001C000B107E1F70E94D30B0C9437480C94000060
:1001D00081E0809397010895982F15988AB78B7FB7
:1001E0008ABF8AB7877F8ABF17988AB78F7B8ABFF3
:1001F0008AB78F778ABF913031F489B7806289BF1F
:1002000089B7806805C089B78F7D89BF89B78F7727
:1002100089BF9093520808958093C408823061F09A
:10022000833031F0813099F480916500886007C097
:100230000E94F235882331F080916500877F80939A
:100240006500089580916500886080936500089539
:10025000AF92BF92CF92DF92EF92FF920F931F93D4
:1002600080E197E220E731E0F9013197F1F701975A
:10027000D9F7E0904F0BF090500B81E00E940317EC
:100280006C0182E00E940317C80ED91EEC0CFD1C05
:1002900000E010E0C801B7010E9474445B016C01EA
:1002A00026E636E646E655E40E942A457B018C01A7
:1002B00020E030E040E85FE30E94D74388231CF44D
:1002C00061E070E024C0C801B70120E03FEF4FE7D4
:1002D00057E40E9426451816B4F4C601B50120E083
:1002E00030E040E251E40E942A450E94484480E701
:1002F00091E005C0FC013197F1F761507040611544
:100300007105C1F707C0C801B7010E944844CB017D
:100310000197F1F78091240980939701F89481E087
:100320000E949B16909328098093270982E00E94DF
:100330009B16909323098093220978948091530B04
:100340008093600980912709909128090E94601785
:100350002DB73EB72A5030400FB6F8943EBF0FBEBF
:100360002DBFEDB7FEB7319622E939E0ADB7BEB784
:1003700012963C932E93119720E031E03383228331
:1003800064837583868397838091220990912309E2
:10039000918780870E9478472DB73EB7265F3F4FF1
:1003A0000FB6F8943EBF0FBE2DBF0E94700D88E8B7
:1003B00093E120E731E0F9013197F1F70197D9F79F
:1003C0001F910F91FF90EF90DF90CF90BF90AF9073
:1003D0000895CF92DF92EF92FF920F931F93CF93E6
:1003E000DF9380919701813069F4809175088823AB
:1003F00021F00E942713109275081092680810923D
:100400006708C5C1F89481E00E949B16EC0182E068
:100410000E949B166C01789480916808882309F0EB
:1004200076C080916708882309F071C080917508B3
:10043000882321F00E9427131092750880912709C4
:1004400090912809C817D90771F4809122099091D9
:100450002309C816D90609F49AC180919701823000
:1004600009F040C094C1C817D907E4F581E0809332
:10047000680810926D0810926E0810926F08109222
:1004800070081092690810926A0810926B08109216
:100490006C0820919C0A30919D0A40919E0A5091CF
:1004A0009F0A209371083093720840937308509309
:1004B00074086091250960937708E0912109E09321
:1004C00076086195609378086E02B0011124882740
:1004D00077FD8095982F620F731F841F951F0E94D0
:1004E000FA1403C081E08093670800914F0B1091CC
:1004F000500B81E00E940317800F911F0E94EA12A7
:100500008093750884E690E00E94501240C180916B
:1005100075080E94D712892B29F0809175088823CD
:1005200009F035C1809175080E9427131092750853
:1005300080916808882309F4E2C06091780880916E
:100540007608E82FFF27E7FDF095862F992787FD8E
:1005500090959C01E29FC001E39F900DF29F900D4A
:1005600011249C012C9FC0012D9F900D3C9F900D4C
:1005700011247C010027F7FC0095102F80916D0855
:1005800090916E08A0916F08B0917008E80EF91E66
:100590000A1F1B1FE0926D08F0926E0800936F080F
:1005A000109370089E01442737FD4095542F809189
:1005B000690890916A08A0916B08B0916C08820F4D
:1005C000931FA41FB51F8093690890936A08A09396
:1005D0006B08B0936C086F5F609378088091770820
:1005E00086170CF062C0682F772767FD70956E9FA5
:1005F000C0016F9F900D7E9F900D11249C01442798
:1006000037FD4095542F2E153F0540075107B4F094
:10061000882799278E1B9F0B9C01269FC001279F2F
:10062000900D369F900D11249C01442737FD409575
:10063000542FE216F3060407150744F420936D08BF
:1006400030936E0840936F085093700860916D0866
:1006500060937808772767FD7095872F972F2091F3
:100660007108309172084091730850917408620FBC
:10067000731F841F951F0E94FA14109268088091BE
:100680007808882319F01092660805C080916608E2
:100690008F5F8093660880916608823080F181E0E8
:1006A00080936708109266082AC0862F992787FDD5
:1006B00090958E9FB0018F9F700D9E9F700D11249D
:1006C000882777FD8095982F2091710830917208C6
:1006D0004091730850917408620F731F841F951F17
:1006E0000E94FA1400914F0B1091500B81E00E9470
:1006F0000317800F911F0E94EA1280937508809162
:100700006708882309F443C080919701823031F44F
:100710002091270930912809CE0105C02091220996
:1007200030912309C601821793074CF49091530B23
:100730008091550B981728F5892F8F5F0BC02817CC
:100740003907FCF49091530B8091560B8917C8F42C
:10075000892F81500E940534E0904F0BF090500B90
:1007600081E00E9403178C0182E00E940317080FAA
:10077000191FC8018E0D9F1D0E94EA1280937508F3
:1007800006C010926708D0932809C0932709DF910B
:10079000CF911F910F91FF90EF90DF90CF90089530
:1007A0000E9414340E94EB3508951F93182F81E0A6
:1007B000809397010E94D0038091C408823049F051
:1007C00080E090E90197F1F780916500886080935F
:1007D0006500163011F0109353081F9108951F9271
:1007E0000F920FB60F920BB60F9211242F933F93D7
:1007F0004F935F936F937F938F939F93AF93BF9329
:10080000EF93FF930E94F235882331F085E00E9438
:10081000D50381E080936408FF91EF91BF91AF9180
:100820009F918F917F916F915F914F913F912F9108
:100830000F900BBE0F900FBE0F901F9018951F9238
:100840000F920FB60F920BB60F9211242F933F9376
:100850004F935F936F937F938F939F93AF93BF93C8
:10086000EF93FF930E94F235882331F084E00E94D9
:10087000D50381E080936508FF91EF91BF91AF911F
:100880009F918F917F916F915F914F913F912F91A8
:100890000F900BBE0F900FBE0F901F901895609198
:1008A0009C0A70919D0A80919E0A90919F0A0E94D5
:1008B000FA140E94E5358091600B0E942B36089552
:1008C000EF92FF920F931F930D991AC080915208D7
:1008D0008130B1F48AEB99E060E171E00E943A471F
:1008E0000E94700D88EC90E00E94501280E197E227
:1008F00020E731E0F9013197F1F70197D9F792C07C
:100900000F991AC0809152088130B1F48AEB99E0B6
:1009100065E271E00E943A470E94700D88EC90E019
:100920000E94501280E197E220E731E0F90131970F
:10093000F1F70197D9F776C06091570B7091580B7A
:1009400080E090E00E9474447B018C0180E090E0A4
:100950000E9447349B01AC01C801B7010E94D743F4
:100960008823B4F48AEB99E06AE371E00E943A4785
:100970000E94700D88EC90E00E94501280E197E296
:1009800020E731E0F9013197F1F70197D9F74AC033
:100990006091590B70915A0B80E090E00E94744472
:1009A0007B018C0181E090E00E9447349B01AC0107
:1009B000C801B7010E94D7438823B4F48AEB99E0B9
:1009C0006FE471E00E943A470E94700D88EC90E05D
:1009D0000E94501280E197E220E731E0F90131975F
:1009E000F1F70197D9F71EC08091C408813049F012
:1009F00080916500877F8093650080E090E9019792
:100A0000F1F70E944F0480912609813059F4109229
:100A100084088091510B80934D0B8091740A806201
:100A20008093740A1F910F91FF90EF9008950E9498
:100A30009C140895EF92FF920F931F93CF93DF932F
:100A400080917908882309F4A7C61092790882EE6C
:100A500099E061E679E00E94821180935F09882322
:100A600009F09AC62091C50880916109281709F0FC
:100A700093C690916209963009F0ADC480918508C3
:100A8000882309F09AC4C0916509D09166098091C4
:100A90006309909164098C31910509F4F5C38D3196
:100AA000910508F063C08B30910509F4A7C28C3022
:100AB000910570F58430910509F49DC1853091054B
:100AC00080F48130910509F4F0C08130910508F47B
:100AD000B4C08230910509F40EC1039709F04AC6EB
:100AE0001DC18830910509F455C28930910540F443
:100AF0008530910509F4F0C1079709F03BC608C29B
:100B00008930910509F45EC20A9709F033C668C2BC
:100B10008031910509F4FAC28131910580F48D305C
:100B2000910509F4AFC28D30910508F478C28E307A
:100B3000910509F4BBC20F9709F01CC6D3C28331DB
:100B4000910509F413C38431910540F48131910575
:100B500009F4F2C2429709F00DC6FAC28431910538
:100B600009F412C3459709F005C64EC388329105B2
:100B700009F4F3C38932910570F58232910509F4C5
:100B8000CEC38332910580F48E31910509F4A6C35A
:100B90008E31910508F48DC38032910509F4B5C3F7
:100BA000819709F0E7C5B6C38532910509F4C6C33C
:100BB0008632910540F48332910509F4B5C38497D8
:100BC00009F0D8C5B6C38632910509F4BCC387972E
:100BD00009F0D0C5BDC38D32910509F4D7C38E325B
:100BE000910580F48A32910509F4C1C38A329105D6
:100BF00008F4B8C38B32910509F4BEC38C9709F091
:100C0000B9C5BFC320E18B30920709F419C230E1A6
:100C10008C30930740F48E32910509F4BCC38F9752
:100C200009F0A8C5BDC320E18C30920709F419C2B0
:100C30008F5F9F4F09F09EC5BBC3CE01837090703C
:100C40008130910519F0029739F404C081E00E94C7
:100C5000D50302C00E946004CE018C709070009792
:100C600031F096958795969587950E940C019E0187
:100C7000207330702032310559F02033310551F0A6
:100C80002031310509F076C581E08093970172C566
:100C900082E001C083E0809324090E94F23588231A
:100CA00009F468C50E94280165C52091940A309115
:100CB000950A4091960A5091970ACE01A0E0B0E0C3
:100CC00082179307A407B50708F4E9012091880A61
:100CD0003091890A40918A0A50918B0ACE01A0E096
:100CE000B0E0281739074A075B0708F4E901BE019D
:100CF00080E090E0EEC08091560B282F30E02C175A
:100D00003D0708F49E018091550B482F50E0C90122
:100D10004217530708F053C1CA0151C1CE01A0E0E8
:100D2000B0E08093880A9093890AA0938A0AB093CE
:100D30008B0A2091940A3091950A4091960A50911D
:100D4000970A82179307A407B50740F42093880AEF
:100D50003093890A40938A0A50938B0A2091980A0B
:100D60003091990A40919A0A50919B0A8091880A81
:100D70009091890AA0918A0AB0918B0A28173907A5
:100D80004A075B0740F42093880A3093890A40930E
:100D90008A0A50938B0A8091880A9091890AA091BF
:100DA0008A0AB0918B0A81549C49A040B04060F0FF
:100DB00080E49CE9A0E0B0E08093880A9093890ADF
:100DC000A0938A0AB0938B0A2091880A3091890AED
:100DD00040918A0A50918B0A80919C0A90919D0AB9
:100DE000A0919E0AB0919F0A281739074A075B070E
:100DF00008F0C0C46CC0CE01A0E0B0E08093940ABB
:100E00009093950AA093960AB093970A2091880A26
:100E10003091890A40918A0A50918B0A2817390724
:100E20004A075B0740F42093940A3093950A409355
:100E3000960A5093970A20918C0A30918D0A40911E
:100E40008E0A50918F0A8091940A9091950AA091F0
:100E5000960AB091970A82179307A407B50740F442
:100E60002093940A3093950A4093960A5093970AD8
:100E70008091940A9091950AA091960AB091970A50
:100E800080539547A040B04060F480E395E7A0E030
:100E9000B0E08093940A9093950AA093960AB09339
:100EA000970A2091940A3091950A4091960A5091A0
:100EB000970A80919C0A90919D0AA0919E0AB091F8
:100EC0009F0A82179307A407B50708F053C4CA0105
:100ED000B9010E94FA144EC4C093540B4091550BB3
:100EE0005091520B842F90E0851B91092C2F30E0FC
:100EF000821793071CF4451B4093540B9091560B9B
:100F00008091540B891708F035C49093540B32C468
:100F1000C093550B5091540B4091520B2C2F30E045
:100F2000852F90E0840F911D281739074CF4450F49
:100F30004093550B05C08091550B81508093550B04
:100F40008091550B0E9419347B018C0160912D0713
:100F500070E0882777FD8095982F0E94764420E0E6
:100F600030E040E251E40E94DB439B01AC01C80148
:100F7000B7010E9426451816F4F20E94F235882324
:100F800009F4F8C39091550B8091530B981708F012
:100F9000F1C314C0C093560B8091540B8C1710F4FE
:100FA0008093560B0E94F235882309F4E3C3909195
:100FB000560B8091530B891708F0DCC3892F0E94D0
:100FC0000534D8C3C0932109CB301CF08AE080934C
:100FD00021098091210987FFCDC310922109CAC33D
:100FE000C0932509CB301CF08AE0809325098091BD
:100FF000250987FFBFC310922509BCC3D0935C0BA2
:10100000C0935B0B8091570B9091580BC817D90771
:1010100008F0B0C3D093580BC093570BABC3D09319
:10102000580BC093570B80915B0B90915C0B8C1706
:101030009D0708F09FC39093580B8093570B9AC35A
:10104000D0935E0BC0935D0B8091590B90915A0B1E
:10105000C817D90708F08EC3D0935A0BC093590B09
:1010600089C3D0935A0BC093590B80915D0B90911B
:101070005E0B8C179D0708F07DC390935A0B8093ED
:10108000590B78C380914707282F30E02C173D0774
:1010900008F49E0180914607482F50E0C90142178D
:1010A000530708F4CA010E942B3664C3C093600B37
:1010B000409146075091610B842F90E0851B910968
:1010C0002C2F30E0821793071CF4451B4093600BD4
:1010D000909147078091600B891708F04BC390935C
:1010E000600B48C3C093610B409146075091600B61
:1010F000842F90E08C1B9109252F30E082179307F5
:101100000CF038C3451B4093610B34C3D0932C07BC
:10111000C0932B07C85ED340C55FD14030F080EB51
:1011200094E090932C0780932B0760912B0770918C
:101130002C078CE290E0E6C0C0932D07C53618F06E
:1011400084E680932D078FE390E060912D072DC1F9
:10115000C093E3019E012451293218F087E3809364
:10116000E30188E490E06091E3011FC1C093E401D2
:101170009E012451293218F08EE18093E40189E424
:1011800090E06091E40111C1CE01A0E0B0E0809355
:10119000980A9093990AA0939A0AB0939B0A815453
:1011A0009C49A040B04060F080E49CE9A0E0B0E041
:1011B0008093980A9093990AA0939A0AB0939B0AF5
:1011C0002091880A3091890A40918A0A50918B0AAD
:1011D0008091980A9091990AA0919A0AB0919B0ADD
:1011E00082179307A407B50740F42093980A309319
:1011F000990A40939A0A50939B0A6091980A7091B9
:10120000990A8AE490E07EC0CE01A0E0B0E080932D
:101210008C0A90938D0AA0938E0AB0938F0A805304
:101220009547A040B04060F480E395E7A0E0B0E0CF
:1012300080938C0A90938D0AA0938E0AB0938F0AA4
:101240002091940A3091950A4091960A5091970AFC
:1012500080918C0A90918D0AA0918E0AB0918F0A8C
:10126000281739074A075B0740F420938C0A30930C
:101270008D0A40938E0A50938F0A60918C0A709168
:101280008D0A8CE490E03EC0D093AF0AC093AE0AC2
:10129000C45FD140659730F08FEF91E09093AF0A33
:1012A0008093AE0A6091AE0A7091AF0A80E490E03C
:1012B00029C0D093C00AC093BF0AC45FD1406597CC
:1012C00030F08FEF91E09093C00A8093BF0A609155
:1012D000BF0A7091C00A82E490E014C0D093D10A92
:1012E000C093D00AC45FD140659730F08FEF91E092
:1012F0009093D10A8093D00A6091D00A7091D10A5C
:1013000084E490E00E94224835C2C09354088FE2E2
:1013100090E04AC0C093550880E390E045C0C09378
:10132000560881E390E040C0C093570882E390E004
:101330003BC0C093580883E390E036C0C09359087F
:1013400084E390E031C0C0935A0885E390E02CC05C
:10135000C0935B0886E390E027C0C0935C0887E3F6
:1013600090E022C0C0935D0888E390E01DC0C09368
:101370005E0889E390E018C0C0935F088AE390E0BC
:1013800013C0C09360088BE390E00EC0C093610867
:101390008CE390E009C0C09362088DE390E004C044
:1013A000C09363088EE390E06C2F0E941548E2C161
:1013B0000E9430190E94E41CDDC1209361099093C2
:1013C000620981E080938D098FEF9FEF909364090C
:1013D000809363097EC1933009F0DEC120936109D7
:1013E0009093620981E080938D09809163099091C7
:1013F0006409009709F085C089E090E09093640942
:10140000809363090E94F235882319F421E030E0CB
:1014100002C022E030E08091C40890E0880F991F5C
:10142000880F991F282B392B8091970190E054E069
:10143000880F991F5A95E1F7282B392B8091850841
:1014400090E046E0880F991F4A95E1F7282B392B49
:10145000309366092093650980919C0A90919D0ABA
:1014600090936809809367098091530B8093690971
:1014700010926A0980915F0B80936B0910926C093E
:1014800080E090E00E9447347B018C0181E090E095
:101490000E9447349B01AC01C801B7010E94264558
:1014A00018161CF480E090E002C081E090E00E94F9
:1014B000473420E030E040E251E40E942A450E9497
:1014C000434470936E0960936D0980E00E949B16FF
:1014D0009093700980936F0981E00E949B1690930E
:1014E00072098093710982E00E949B16909374099F
:1014F000809373098091530880937509109276093F
:1015000039C18130910509F056C08CE090E090938C
:101510006409809363098091880A9091890A909365
:101520006609809365098091940A9091950A909339
:10153000680980936709E9E6F9E08091540B80938C
:10154000690910926A098091520B80936B0913828A
:101550008091550B80936D0915828091560B809375
:101560006F09178280912109992787FD90959093A3
:1015700072098093710980912509992787FD9095BB
:1015800090937409809373098BE59BE0909376099F
:101590008093750987E59BE090937809809377099C
:1015A0008091600B80937909118A8091610B8093FF
:1015B0007B09138ADFC08230910509F047C086E0BD
:1015C00090E0909364098093630980E090E00E942A
:1015D000473420E030E040E251E40E942A450E9476
:1015E0004844709366096093650981E090E00E9429
:1015F000473420E030E040E251E40E942A450E9456
:101600004844709368096093670980915B0B9091DF
:101610005C0B90936A09809369098091570B9091B4
:10162000580B90936C0980936B0980915D0B90919E
:101630005E0B90936E0980936D098091590B909188
:101640005A0B9093700980936F0994C08031910573
:1016500059F481E090E0909364098093630980914C
:101660002B0790912C0735C08131910549F481E019
:1016700090E0909364098093630980912D070BC0DB
:101680008231910569F481E090E090936409809340
:1016900063098091E30180936509109266096AC02D
:1016A0008331910549F481E090E09093640980933F
:1016B00063098091E401EFCF8431910579F481E0F1
:1016C00090E090936409809363098091980A9091C7
:1016D000990A90936609809365094CC085319105FC
:1016E00059F481E090E090936409809363098091BC
:1016F0008C0A90918D0AEDCF8C31910559F481E0DF
:1017000090E090936409809363098091AE0A909170
:10171000AF0ADFCF8D31910559F481E090E09093CD
:101720006409809363098091BF0A9091C00AD1CF68
:101730008E31910559F481E090E090936409809393
:1017400063098091D00A9091D10AC3CF809791F418
:1017500080E190E09093640980936309A4E5B8E088
:10176000E5E6F9E08D9180831182329638E0A43667
:10177000B307C1F781E699E066EC78E04BE550E00D
:101780000E94F61086EC98E060E070E040E050E0E7
:101790002CE231E00E94650FDF91CF911F910F91F4
:1017A000FF90EF900895AF92BF92CF92DF92EF92A9
:1017B000FF920F931F93CF93DF930E94C0120E945A
:1017C0004E120E94DE330E94FA350E94B8130E9426
:1017D000C3380E942B0D0E94CC350E94BB1481E0BF
:1017E0000E942F16809164008860809364000E949C
:1017F0000B180E94C0180E94CD1D0E943019409104
:101800005B0950915C0960915D0970915E0982E00D
:101810000E94AB0D0E94900D8091600B0E942B36B0
:1018200080E00E94D5037894809152080E94EC00D9
:1018300084EF91E00E94501288E893E120E731E0C4
:10184000F9013197F1F70197D9F788EC90E00E9400
:10185000501280ED97E020E731E0F9013197F1F780
:101860000197D9F788EC90E00E945012FAEBAF2E66
:10187000F9E0BF2EE4E8CE2EE1E0DE2EC0E7D1E0B5
:101880000E94A4180E94E90180916408882391F0C5
:101890008AEB99E064E671E00E943A4788EC90E0B8
:1018A0000E94501280ED97E0FE013197F1F7019709
:1018B000D9F787C080916508882391F08AEB99E079
:1018C00060E171E00E943A4788EC90E00E9450127B
:1018D00080ED97E0FE013197F1F70197D9F771C0DC
:1018E0000D9909C080915208813029F48AEB99E062
:1018F00060E171E00AC00F990BC0809152088130FD
:1019000039F48AEB99E065E271E00E943A4759C0E8
:1019100060915B0B70915C0B80E090E00E947444DE
:101920007B018C0180E090E00E9447349B01AC0178
:10193000C801B7010E94D74388232CF48AEB99E0B1
:101940006AE371E0E2CF60915D0B70915E0B80E025
:1019500090E00E9474447B018C0181E090E00E9441
:1019600047349B01AC01C801B7010E94D7438823CB
:101970002CF48AEB99E06FE471E0C7CF0E94F23556
:10198000882319F48AE791E002C08FE791E000D044
:1019900000D000D0EDB7FEB73196ADB7BEB7129606
:1019A000BC92AE921197D382C282958384830E94A7
:1019B00078478DB79EB706960FB6F8949EBF0FBEB8
:1019C0008DBF0E9430390E94700D0E945A340E94CF
:1019D0001A0556CF883A11F482EA0895883B11F42B
:1019E00085EB0895803C28F0E82FF0E0E852FF4FA7
:1019F00080810895F8949798E5E6F0E090819E7FC5
:101A0000908385BB80818260808384E08A95F1F732
:101A100080818D7F8083789485EF8A95F1F7089592
:101A2000F894979AE5E6F0E090819E7F908385BBDD
:101A300080818260808384E08A95F1F780818D7F48
:101A40008083789485EF8A95F1F708950E94EA0CD7
:101A50000E94100D08958F9A809164008160809398
:101A60006400809164008260809364008FEF84BB87
:101A700088EE93E020E731E0F9013197F1F7019723
:101A8000D9F788E30E94FA0C8CE00E94FA0C86E0F9
:101A90000E94FA0C81E00E94FA0C8CEC9CE1019708
:101AA000F1F7089581E00E94FA0C8CEC9CE101971B
:101AB000F1F70895CF93DF93EB018295880F880F9C
:101AC000807C80580E94FA0C209721F406C0219651
:101AD0000E94260D88818823D1F7DF91CF91089548
:101AE00080E06AEB79E00E945A0D81E062E979E0DA
:101AF0000E945A0D0895CF93DF93EC01009721F4D3
:101B000006C021960E94260D88818823D1F7DF9197
:101B1000CF9108958091230A08958091220A089513
:101B20008CE080939D001092220A089586E08093B5
:101B30009D0081E08093220A089586E080939D00B5
:101B400082E08093220A089586E080939D0083E0DE
:101B50008093220A08951F93182F9A01AB0160E029
:101B600070E18EE090E00E94D34521503040109308
:101B7000230A10929B0088E180939A008CE0809366
:101B80009D00309398002093990080939D001092BF
:101B9000220A1123A9F08C9A113051F480919A00F5
:101BA0008F7E80939A00949A80919A008F770BC0D1
:101BB000123059F480919A00806180939A00949831
:101BC00080919A00806880939A001F910895809177
:101BD000230A882379F0949A80919A008F7E8093CB
:101BE0009A0080E098E40197F1F780919A008F774E
:101BF00080939A0008958091230A8823B9F08091F8
:101C00009B0086FFFCCF8CEC9CE10197F1F7809163
:101C10009A00806180939A00949880E098E40197FC
:101C2000F1F780919A00806880939A000895982F28
:101C300080919B0085FFFCCF90939C0080E090E01A
:101C4000089580919B0087FFFCCF80919C0090E0DD
:101C5000089520919B0030E020783070C9010895EC
:101C6000982F8A3341F48093E20981E080937A08C7
:101C7000109279080EC080917A08882351F08091E3
:101C80007A08E82FF0E0EE51F64F90838F5F809353
:101C90007A088091E2098A33B1F4E0917A08F0E0A1
:101CA000E052F64F80818D3071F4E0917A08F0E0D7
:101CB000EF51F64F80818A3031F481E080937908CA
:101CC00010927A08089580917A08803421F4109255
:101CD0007A08109279080895982F833241F48093FE
:101CE000E20981E080937A08109279080EC0809111
:101CF0007A08882351F080917A08E82FF0E0EE51BD
:101D0000F64F90838F5F80937A088091E209833247
:101D100071F4E0917A08F0E0EF51F64F80818D3058
:101D200031F481E08093790810927A0808958091C7
:101D30007A08803421F410927A0810927908089574
:101D4000982F8E3789F480917A08882369F410924D
:101D5000790880917A08E82FF0E0EE51F64F9083F1
:101D60008F5F80937A0814C080917A08882381F06D
:101D700080917A08843060F480917A08E82FF0E04E
:101D8000EE51F64F90838F5F80937A081092790816
:101D90008091E2098E3751F480917A08843031F4D1
:101DA00010927A0881E080937908089580917A08EA
:101DB000803469F422EE39E0C90160E070E040E46B
:101DC00050E00E94334710927A08109279080895E3
:101DD000982F8E3371F08A3061F080917A08E82F65
:101DE000F0E0EE51F64F90838F5F80937A08109267
:101DF0007908E0917A08F0E022EE39E0EF51F64FF1
:101E000080818D30A1F481E08093790880917A08F7
:101E1000803450F480917A08E82FF0E0E20FF31F4D
:101E200010828F5F80937A0810927A0808958091CB
:101E30007A08803459F4C90160E070E040E450E071
:101E40000E94334710927A081092790808951F92E1
:101E50000F920FB60F920BB60F9211242F933F9350
:101E60004F935F936F937F938F939F93AF93BF93A2
:101E7000EF93FF9380919C009091220A913051F052
:101E8000913028F0923049F0933061F409C00E94FB
:101E9000300E08C00E946C0E05C00E94E80E02C001
:101EA0000E94A00EFF91EF91BF91AF919F918F91F2
:101EB0007F916F915F914F913F912F910F900BBE4A
:101EC0000F900FBE0F901F901895CF92DF92EF9258
:101ED000FF920F931F93CF93DF93EC017B01D42EDE
:101EE000C52E89018091230A823011F40E94E70DEA
:101EF0008091220A8823A9F490E007C080919B007A
:101F000085FFFCCFE0939C009F5FFE01E90FF11D70
:101F1000E081EA3099F780919B0085FFFCCF8AE051
:101F200016C08130B9F490E007C080919B0085FF16
:101F3000FCCFE0939C009F5FFE01E90FF11DE08163
:101F4000ED3099F780919B0085FFFCCF8DE0809369
:101F50009C0013C0833089F420E030E0FE01E20FE2
:101F6000F31FE08180919B0085FFFCCFE0939C00F4
:101F70002F5F3F4F2430310589F7E114F10441F41C
:101F80008091230A823011F40E94FB0D10E03BC0C7
:101F90000E94FB0DC8010E94EA12082F25C0809103
:101FA0009A008F7780939A00809179088823B9F0FE
:101FB000109279088D2D9C2D9C01F9012134310559
:101FC00010F0E0E4F0E022EE39E0C701B901AF0122
:101FD0000E942A47802F0E94271310E00BC0809197
:101FE0009A00806880939A00802F0E94D712892BD4
:101FF000B1F617E0802F0E9427138091230A8130C9
:1020000011F40E94E70D812FDF91CF911F910F9165
:10201000FF90EF90DF90CF900895FB018F708A3092
:1020200010F4805D01C0895C808380E00895FB012D
:10203000982F92959F709A3010F4905D01C0995C32
:1020400090838F708A3010F4805D01C0895C818339
:1020500080E00895FF920F931F93F82E8B01892F34
:102060000E9417100E5F1F4F8F2DB8010E9417108E
:1020700080E01F910F91FF900895982FFB018154EC
:10208000863020F49753908380E00895892F805301
:102090008A3010F082E00895808380E00895CF9226
:1020A000DF92EF92FF920F931F93DF93CF930F92E4
:1020B000CDB7DEB77C018B01FC0180816E010894F5
:1020C000C11CD11CB6010E943D10282F882381F429
:1020D00089818295807FF8018083F7018181B60133
:1020E0000E943D10282FF80180819981890F8083FB
:1020F000822F0F90CF91DF911F910F91FF90EF9062
:10210000DF90CF900895CF92DF92EF92FF920F93DE
:102110001F93DF93CF930F92CDB7DEB77C018B0176
:102120006E010894C11CD11CB6010E944F10382FBB
:10213000882391F48981F80110828183C701029676
:10214000B6010E944F10382F2981F80180819181BA
:10215000820F911D91838083832F0F90CF91DF9108
:102160001F910F91FF90EF90DF90CF9008956F92A5
:102170007F928F929F92AF92BF92CF92DF92FF9207
:102180000F931F93DF93CF930F92CDB7DEB75C0110
:102190006B014A01FF2400E010E03E010894611C3D
:1021A000711C0CC0C501800F911FB3010E944F101C
:1021B000882369F40E5F1F4F8981F80E0C151D05E9
:1021C00088F38F2D8195B4010E94171080E00F9045
:1021D000CF91DF911F910F91FF90DF90CF90BF9033
:1021E000AF909F908F907F906F900895CF92DF92E5
:1021F000FF920F931F93CF93DF938C016B01DC0150
:102200009C968C919C97813039F411968C918330F7
:1022100019F48BE590E002C081E190E0481759077E
:1022200010F494E066C0F6018AE38193D8018C91A2
:10223000BF010E941710B6016D5F7F4FF8018181C9
:102240000E941710E6012596D8019C968C919C97C8
:10225000813071F411968C911197833049F4129664
:102260008C91880FBE010E941710E601279607C0C7
:10227000F80182819381BE010E942A102496D80120
:1022800014968D919C911597BE010E942A10249658
:10229000F80184A58130E1F481818330C9F4FF2401
:1022A000F3940CC03296EE0FFF1FE00FF11F8081F8
:1022B0009181BE010E942A102496F394EF2DF0E044
:1022C000D80112968D919C911397E817F90750F356
:1022D000B601609570956C0F7D1FC6010196AE0129
:1022E0000E94B710982F882321F48DE08A838AE01A
:1022F0008B83892FDF91CF911F910F91FF90DF90FA
:10230000CF900895AF92BF92CF92DF92EF92FF925B
:102310000F931F93DF93CF9300D00F92CDB7DEB70B
:102320006C018B018DE2FB0111928A95E9F7F601B0
:1023300060E070E080818D30B9F481818A30A1F451
:1023400042E0A42EB12CA60EB71E76010894E11C23
:10235000F11C63507040C701AE014E5F5F4F0E9499
:10236000B710882349F08CC06F5F7F4F31966B3573
:10237000710501F785E084C0F601EA0DFB1D349775
:102380009A8180813496981709F077C033979B81A2
:102390008081981709F071C0C701B8010E944F10E1
:1023A000882309F06DC033E0E32EF12CEC0CFD1C0A
:1023B000B8016F5F7F4FC7010E944F10882309F05B
:1023C0005FC0F8018181833009F044C0F1E1AF16AC
:1023D000B10409F43FC081E0F80184A725E0E22EB2
:1023E000F12CEC0CFD1CC701BE016F5F7F4F0E94FA
:1023F0004F10D82E882309F042C0898186958431F8
:1024000018F084E190E001C090E0F80193838283AA
:1024100082E090E0E80EF91E198212C06E5F7F4FD5
:10242000660F771F600F711FC7010E9483108823FA
:1024300039F589818F5F8983E4E0F0E0EE0EFF1EBD
:102440008981682F70E0F80182819381681779078C
:1024500028F315C0F80114A6B8016E5F7F4FC701BD
:1024600002960E948310882359F40C5F1F4FC70106
:102470000696B8010E94831003C083E001C08D2D31
:102480000F900F900F90CF91DF911F910F91FF90C0
:10249000EF90DF90CF90BF90AF900895899A089504
:1024A000AF92BF92CF92DF92EF92FF920F931F9362
:1024B000919AA0E0B0E0BC01CD010E9474445B01A0
:1024C0006C0126E636E646E655E40E942A457B0185
:1024D0008C0120E030E040E85FE30E94D74388238E
:1024E0001CF461E070E024C0C801B70120E03FEFB8
:1024F0004FE757E40E9426451816B4F4C601B5010B
:1025000020E030E040E251E40E942A450E94484425
:1025100080E791E005C0FC013197F1F76150704010
:1025200061157105C1F707C0C801B7010E94484491
:10253000CB010197F1F791981F910F91FF90EF90C8
:10254000DF90CF90BF90AF9008959C01919A8091B9
:10255000260A9091270A8217930738F08091260A5D
:102560009091270A8F5F9F4F51F48FEF2F3F3807CD
:1025700011F42EEF3FEF3093270A2093260A089597
:1025800080E090E02FEF3FEFFC01EE0FFF1FEC5DCE
:10259000F54F31832083019680329105A9F787B7E3
:1025A000826087BF83E781BF8DE083BF08959FB7B7
:1025B000F894803218F0E0E0F0E009C0E82FF0E095
:1025C000EE0FFF1FEC5DF54F0190F081E02D9FBFF6
:1025D000CF0108959C015FB7F894A2E0B0E04A2FC4
:1025E000FD01EE0FFF1FEC5DF54F808191818F5F44
:1025F0009F4F71F48FEF2F3F380711F42EEF3FEF0D
:10260000AA0FBB1FAC5DB54F11963C932E9305C02E
:102610004F5F1196A032B10511F75FBF842F089567
:102620002FB7F8943FEF8F3F930711F48EEF9FEF92
:102630009093250A8093240A2FBF2FB7F894809196
:10264000240A9091250A2FBF892BB9F70895E82F06
:102650002FB7F89482508E3148F4F0E0EE0FFF1F50
:10266000EC5DF54F8FEF9FEF918380832FBF08952F
:102670001F920F920FB60F920BB60F9211242F9349
:102680003F934F935F936F937F938F939F93AF93FA
:10269000BF93EF93FF9320E030E0F901EE0FFF1FAF
:1026A000EC5DF54F80819181892B51F08081918182
:1026B0008F5F9F4F29F08081918101979183808363
:1026C0002F5F3F4F2032310541F78091260A9091CC
:1026D000270A019709F491980E9417058091D80163
:1026E0009091D90101979093D9018093D8010196D7
:1026F000C9F480917B0890917C08A0917D08B091ED
:102700007E080196A11DB11D80937B0890937C08E3
:10271000A0937D08B0937E088AEE93E09093D90150
:102720008093D80180917F0890918008A0918108C2
:10273000B09182080196A11DB11D80937F089093EE
:102740008008A0938108B0938208FF91EF91BF9118
:10275000AF919F918F917F916F915F914F913F9139
:102760002F910F900BBE0F900FBE0F901F901895DA
:102770001092740A8FEF8093870A8093850AE4E6AB
:10278000FAE0119211928AE0E437F807D1F78FEF5F
:1027900084BB889808951092740A08952091870A3E
:1027A000E82FF0E030E0082E02C0359527950A9416
:1027B000E2F720FF24C08091850A90E00E2E02C02F
:1027C000959587950A94E2F780FD19C02091740AC7
:1027D00081E090E00E2E02C0880F991F0A94E2F764
:1027E000282B2093740AEE0FFF1FDF01AC59B54F61
:1027F0001D921C92EB58F54F118210820895809122
:10280000870A90E00E2E02C0959587950A94E2F70C
:1028100080FD10C08091850A90E00E2E02C0959533
:1028200087950A94E2F780FF05C082E390E00E945A
:10283000A51208958091870A90E00E2E02C095950A
:1028400087950A94E2F780FD36C08091850A90E072
:102850000E2E02C0959587950A94E2F780FD2BC055
:102860004091DA015091DB012091DC013091DD01D2
:10287000240F351FDF01AA0FBB1FAC59B54F8D9137
:102880009C911197019611969C938E932817390766
:1028900090F42091740A81E090E002C0880F991FA3
:1028A000EA95E2F7282B2093740A4D935C9384E118
:1028B00090E00E94A5120895FF920F931F93CF936B
:1028C000DF938091870A8093850AC0E0D0E001E021
:1028D00010E028E1F22E4C2F98010C2E02C0220F9E
:1028E000331F0A94E2F7822F809585BB8F2D8A953E
:1028F000F1F790E080E080999F5F8F5F8A30D9F791
:10290000983020F08091870A822B07C0933038F4EA
:102910009091870A822F809589238093870A842F3C
:102920000E94CE132196C830D105A9F6DF91CF9130
:102930001F910F91FF9008958091860A8150809396
:10294000860A8F5F29F48AE08093860A0E945C14CD
:102950000895C39AC29820E097FF02C0C49A01C0AC
:10296000C498C398C39A2F5F203119F0880F991F1C
:10297000F3CFC29A0895BA9ABB9ABC9A80E090E1CC
:102980000E94A91480E090EC0E94A91480E090EECF
:102990000E94A91488E690E20E94A9140895EF927B
:1029A000FF920F931F937B018C0188E690E20E94B7
:1029B000A9148FEF9FEFAFEFBFE0E822F9220A23BF
:1029C0001B23C7019F7390640E94A9144EE01695C3
:1029D0000795F794E7944A95D1F7AFEFBFE3EA2262
:1029E000FB22C70190640E94A9141F910F91FF90D0
:1029F000EF900895AF92BF92CF92DF92EF92FF9245
:102A00000F931F93E090940AF090950A0091960A14
:102A10001091970A20918C0A30918D0A40918E0A6C
:102A200050918F0A2E153F054007510710F4A80159
:102A30009701261737074807590710F49B01AC0187
:102A4000203385E7380780E0480780E0580720F406
:102A500020E335E740E050E0E090980AF090990AD2
:102A600000919A0A10919B0A8091880A9091890A94
:102A7000A0918A0AB0918B0AE816F9060A071B078B
:102A800010F4D801C701BC01CD016134ECE97E0727
:102A9000E0E08E07E0E09E0720F060E47CE980E063
:102AA00090E0261737074807590710F4CA01B90103
:102AB00060939C0A70939D0A80939E0A90939F0A4C
:102AC00028EC30E040E050E00E948D455B016C0155
:102AD0009B01A60160E070E080E090E00CE10E94C4
:102AE0003339AA24BB24E1EECE2EDD24EE24FF24CC
:102AF00000E010E00E94B239122F032FF42EE52ED1
:102B0000622F702F8F2D9E2D0E94CF141093900A4C
:102B10000093910AF092920AE092930A1F910F910A
:102B2000FF90EF90DF90CF90BF90AF9008951F92ED
:102B30000F920FB60F920BB60F921124DF92EF9205
:102B4000FF920F931F932F933F934F935F936F9336
:102B50007F938F939F93AF93BF93CF93DF93EF9325
:102B6000FF9354B145B1D090D40AED2DF0E0EB5174
:102B7000FE4F208130E0942F80E0850F911DE90108
:102B800044E0CC0FDD1F4A95E1F7C20FD31FC056BA
:102B9000D54F9F838E832E853F85821B930B08889C
:102BA00002C0959587950A94E2F77C010027F7FC0F
:102BB0000095102F88859985AA85BB85E80EF91E9A
:102BC0000A1F1B1FE886F9860A871B878A819B815B
:102BD00001969B838A832C813D818217930770F035
:102BE0001B821A8240E050E0C801B7010E94F545FF
:102BF0003D872C87188619861A861B86ED2DEF5F78
:102C0000E093D40AF0E0EB51FE4F80818F3F11F446
:102C10001092D40AE091D40AF0E0EB51FE4F80818B
:102C20009091D30A890F87B9369AFF91EF91DF917E
:102C3000CF91BF91AF919F918F917F916F915F9154
:102C40004F913F912F911F910F91FF90EF90DF9047
:102C50000F900BBE0F900FBE0F901F901895282F4E
:102C600080938308E0EAFAE035E080E092E01082A9
:102C70003183138212829583848317821682108691
:102C80001186128613861586148617861686108A74
:102C900071964AE0E33DF40751F78FEF91E090938E
:102CA000AF0A8093AE0A9093C00A8093BF0A87E070
:102CB00086B9379A80E48093D30A213049F4109280
:102CC000D40A8091E501805C87B9339A369A0895D9
:102CD0001092D40A8091E501805C87B933980895F9
:102CE000982F833008F090E08091D30A890F87B93C
:102CF000369A3699FECF54B145B1892F90E0342FE2
:102D000020E0250F311DFC0154E0EE0FFF1F5A9506
:102D1000E1F7E80FF91FE056F54F378326838685E4
:102D20009785281B390B008802C0359527950A9492
:102D3000E2F7C901089590E0FC0164E0EE0FFF1F87
:102D40006A95E1F7E80FF91FE056F54F8485958500
:102D5000089590E0FC0174E0EE0FFF1F7A95E1F713
:102D6000E80FF91FE056F54F268137818685978554
:102D7000281B390B008802C0359527950A94E2F785
:102D8000C901089590E0FC01A4E0EE0FFF1FAA9591
:102D9000E1F7E80FF91FE056F54F8481958108951A
:102DA000833008F080E06115710511F461E070E096
:102DB00090E0FC01B4E0EE0FFF1FBA95E1F7E80FD9
:102DC000F91FE056F54F75836483089590E0FC0188
:102DD00024E0EE0FFF1F2A95E1F7E80FF91FE056F8
:102DE000F54F81810895833008F080E090E0FC0188
:102DF00034E0EE0FFF1F3A95E1F7E80FF91FE056B8
:102E0000F54F6183089590918308282F30E0913029
:102E100091F4F90154E0EE0FFF1F5A95E1F7E20F2C
:102E2000F31FE056F54F848195816AE070E00E94BF
:102E3000AC45AB0115C0F90144E0EE0FFF1F4A9508
:102E4000E1F7E20FF31FE056F54F818190E0248116
:102E50003581829FA001839F500D929F500D1124B8
:102E6000CA0108952091E20130E0829FB001839F62
:102E7000700D929F700D1124882777FD8095982FF3
:102E80000E94764420E030E04AE754E40E94DB43AD
:102E900008952091E30130E0829FB001839F700D7F
:102EA000929F700D1124882777FD8095982F0E949E
:102EB000764420E030E04AE754E40E94DB43089582
:102EC0002091E40130E0829FB001839F700D929FBA
:102ED000700D1124882777FD8095982F0E947644E5
:102EE00020E030E04AE754E40E94DB4308958F92EB
:102EF0009F92AF92BF92CF92DF92EF92FF920F9389
:102F00001F93CF93DF93E091D40AF0E0EB51FE4F93
:102F1000D08080918308813009F470C08D2C992471
:102F2000F401A4E0EE0FFF1FAA95E1F7E80DF91DEB
:102F3000E056F54F8081882329F00E94D712892B13
:102F400009F04FC0E40174E0CC0FDD1F7A95E1F782
:102F5000C80DD91DC056D54FE884F9840A851B8554
:102F60008D2D0E9470165C01CC24B7FCC094DC2C23
:102F7000AE0CBF1CC01ED11EA886B986CA86DB86D1
:102F80008A819B8101969B838A834C815D819A0112
:102F9000215030402817390778F41B821A829A0191
:102FA00040E050E0C601B5010E94F5453D872C8701
:102FB000188619861A861B86840164E0000F111F8B
:102FC0006A95E1F7080D191D0056154FF80180812B
:102FD0000E942713F801818190E00E94EA12F80113
:102FE0008083E091D40AEF5FE093D40AF0E0EB51E4
:102FF000FE4F80818F3F11F41092D40ADF91CF9160
:103000001F910F91FF90EF90DF90CF90BF90AF9006
:103010009F908F90089520E030E04CE350E0F9015C
:10302000E35BF44F1082249FF001259FF00D349F45
:10303000F00D1124EB52F54F80E090E011921192C7
:1030400001968E319105D1F72F5F3F4F2230310528
:1030500031F70895809184088F5F809384088230CF
:1030600011F410928408089580918408882319F43B
:1030700082E0809384088091840881508093840842
:10308000089580918408282F30E0F901E35BF44F24
:1030900080818F5F80838E3109F41082D901A35B18
:1030A000B44F8C91F90145E0EE0FFF1F4A95E1F70F
:1030B000220F331FE21BF30BE80FF11DEE0FFF1F72
:1030C000EB52F54F80819181892B09F41C92089570
:1030D00080918408A82FB0E0FD01E35BF44F80816C
:1030E000882311F48EE18083FD01E35BF44F40817E
:1030F000CD01880F991F9D0165E0220F331F6A954E
:10310000E1F7281B390B4150F901E40FF11DEE0FD7
:10311000FF1FEB52F54F80819181892B31F44423BD
:1031200091F7A35BB44F1C920895A35BB44F4C93EB
:10313000089580918408089580918408EDE4FBE06F
:10314000E80FF11D808108958091840890E0FC01D2
:10315000E35BF44F2081FC0135E0EE0FFF1F3A9551
:10316000E1F7880F991FE81BF90BE20FF11DEE0F35
:10317000FF1FEB52F54F0190F081E02D0995089566
:1031800086E79AE29093D60A8093D50A8FE190E37E
:103190009093D80A8093D70A8FED91E39093DA0A3F
:1031A0008093D90A82E290E29093DC0A8093DB0A52
:1031B0008FEF9FE19093DE0A8093DD0A8CED9FE113
:1031C0009093E00A8093DF0A86E08093510B8AEBAC
:1031D0009BE29093E20A8093E10A80E196E2909369
:1031E000120B8093110B87E297E29093140B80935C
:1031F000130B80E59EE29093160B8093150B88EFDE
:103200009DE29093180B8093170B81E09FE29093BF
:103210001A0B8093190B81E095E290931C0B80931D
:103220001B0B8CE89FE190931E0B80931D0B86E493
:1032300091E29093200B80931F0B82EF90E290938A
:10324000220B8093210B8EEB92E29093240B8093C0
:10325000230B8AE992E29093260B8093250B089525
:10326000EF92FF920F931F9380912B0790912C0761
:10327000885E9340855F914060F080EB94E090938E
:103280002C0780932B078CE290E060EB74E00E94A7
:1032900022488091E3018451893240F087E3809392
:1032A000E30188E490E067E30E9415488091E4011F
:1032B0008451893240F08EE18093E40189E490E00A
:1032C0006EE10E9415488091AE0A9091AF0A845F2A
:1032D0009140459760F08FEF91E09093AF0A809313
:1032E000AE0A80E490E06FEF71E00E942248809186
:1032F000BF0A9091C00A845F9140459760F08FEFBC
:1033000091E09093C00A8093BF0A82E490E06FEF4F
:1033100071E00E9422488091D00A9091D10A845F86
:103320009140459760F08FEF91E09093D10A8093A0
:10333000D00A84E490E06FEF71E00E94224880910F
:10334000980A9091990AA0919A0AB0919B0A805389
:103350009547A040B04081519742A040B04090F0C6
:1033600080E49CE9A0E0B0E08093980A9093990AE9
:10337000A0939A0AB0939B0A8AE490E060E47CE907
:103380000E94224820918C0A30918D0A40918E0A29
:1033900050918F0A8091980A9091990AA0919A0A67
:1033A000B0919B0A82179307A407B50728F0205312
:1033B00035474040504090F480E395E7A0E0B0E00E
:1033C00080938C0A90938D0AA0938E0AB0938F0AF3
:1033D0008CE490E060E375E70E9422482091980A0F
:1033E0003091990A40919A0A50919B0A8091880ADB
:1033F0009091890AA0918A0AB0918B0A28173907FF
:103400004A075B0740F42093880A3093890A409367
:103410008A0A50938B0AE0908C0AF0908D0A0091F2
:103420008E0A10918F0A8091880A9091890AA09142
:103430008A0AB0918B0A8E159F05A007B10740F448
:10344000E092880AF092890A00938A0A10938B0A04
:103450008091940A9091950AA091960AB091970A4A
:103460008E159F05A007B10740F4E092940AF092F0
:10347000950A0093960A1093970A2091880A309132
:10348000890A40918A0A50918B0A8091940A9091FE
:10349000950AA091960AB091970A281739074A070A
:1034A0005B0740F4E092940AF092950A0093960A22
:1034B0001093970AE0909C0AF0909D0A00919E0A52
:1034C00010919F0A2E153F054007510768F0809123
:1034D000940A9091950AA091960AB091970AE816DD
:1034E000F9060A071B07A0F48091940A9091950AA7
:1034F000A091960AB091970A280F391F4A1F5B1FA7
:103500005695479537952795CA01B9010E94FA1437
:1035100080912D07853660F084E680932D078FE338
:1035200090E064E60E94154803C041504093550B5B
:103530008091550B0E9419347B018C0160912D07FD
:1035400070E0882777FD8095982F0E94764420E0D0
:1035500030E040E251E40E94DB439B01AC01C80132
:10356000B7010E9426454091550B1816F4F2809140
:10357000560B481718F48AE08093560B8091560B2F
:10358000481710F44093560B8091540B481710F4D1
:103590004093540B9091560B8091540B891710F463
:1035A0009093540B5091540B2091520B30E0842F88
:1035B00090E0851B9109821793071CF4451B4093EB
:1035C000520B809146078351813518F083E6809332
:1035D000460790914707933120F08091460789175D
:1035E00018F483E18093470740914607809147078D
:1035F000481710F4409347078091600B481710F468
:103600004093600B909147078091600B891710F4ED
:103610009093600B5091600B2091610B30E0842FF0
:1036200090E0851B9109821793071CF4451B40937A
:10363000610B88EC90E09093500B80934F0B80913E
:103640002409843018F082E08093240980912609AF
:10365000823010F0109226091092520880912109B0
:103660008B3018F085E080932109809125098B30FB
:1036700018F081E08093250980915B0B90915C0BA1
:103680008135910530F080E590E090935C0B80935C
:103690005B0B8091570B9091580B8C34910530F057
:1036A0008BE490E09093580B8093570B20915B0B29
:1036B00030915C0B8091570B9091580B281739076C
:1036C00020F43093580B2093570B80915D0B909111
:1036D0005E0B8234910530F081E490E090935E0BB4
:1036E00080935D0B8091590B90915A0BCD9730F0E0
:1036F0008CE390E090935A0B8093590B20915D0BD3
:1037000030915E0B8091590B90915A0B2817390715
:1037100020F430935A0B2093590B80E061E00E9413
:10372000F31680E068EC70E00E94D01681E061E062
:103730000E94F31681E068EC70E00E94D01682E0EF
:1037400061E00E94F31682E068EC70E00E94D016FF
:103750008091C4088150833018F081E00E940C01F0
:10376000109263088091620B823010F01092620B0D
:103770001F910F91FF90EF900895EF92FF920F939A
:103780001F9388E69DE8A0E0B0E08093880A9093BC
:10379000890AA0938A0AB0938B0A8091980A909123
:1037A000990AA0919A0AB0919B0A88362DE892074F
:1037B00020E0A20720E0B20740F48093880A9093AB
:1037C000890AA0938A0AB0938B0AE0908C0AF09041
:1037D0008D0A00918E0A10918F0A8091880A90912B
:1037E000890AA0918A0AB0918B0A8E159F05A007BD
:1037F000B10740F4E092880AF092890A00938A0A9D
:1038000010938B0A84E79BE8A0E0B0E08093940AD1
:103810009093950AA093960AB093970A85E7E816C5
:103820008BE8F80680E0080780E0180740F0E09297
:10383000940AF092950A0093960A1093970A2091A1
:10384000880A3091890A40918A0A50918B0A8091A6
:10385000940A9091950AA091960AB091970A281718
:1038600039074A075B0740F4E092940AF092950A00
:103870000093960A1093970A8091940A9091950A62
:10388000A091960AB091970A280F391F4A1F5B1F13
:103890005695479537952795CA01B9010E94FA14A4
:1038A0008FEF03C08091550B81508093550B809111
:1038B000550B0E9419347B018C0160912D0770E03B
:1038C000882777FD8095982F0E94764420E030E08D
:1038D00040E251E40E94DB439B01AC01C801B70107
:1038E0000E9426451816F4F28AE08093560B82E374
:1038F0008093540B1092520B88EC90E09093500BF5
:1039000080934F0B11E01093240910922609109216
:10391000520885E0809321091093250980E895E2FB
:10392000A0E0B0E080935B0990935C09A0935D09EF
:10393000B0935E091093C5088BE490E09093580B08
:103940008093570B80E590E090935C0B80935B0B2A
:103950008CE390E090935A0B8093590B81E490E0B4
:1039600090935E0B80935D0B80E061E00E94F31604
:1039700080E068EC70E00E94D01681E061E00E9477
:10398000F31681E068EC70E00E94D01682E061E0FE
:103990000E94F31682E068EC70E00E94D01681E08D
:1039A0000E940C018FE58093600B1092610B83E6FF
:1039B0008093460783E1809347071093620B1F9122
:1039C0000F91FF90EF9008956091880A7091890A95
:1039D00080E090E00E9422486091940A7091950ADC
:1039E00082E090E00E94224860919C0A70919D0ABA
:1039F00084E090E00E94224888E090E06091540BBF
:103A00000E94154886E090E06091520B0E94154894
:103A100080E00E94E616682F89E090E00E94154839
:103A200080E00E94C216BC018AE090E00E94224819
:103A300081E00E94E616682F8CE090E00E94154815
:103A400081E00E94C216BC018DE090E00E942248F5
:103A500082E00E94E616682F8FE090E00E941548F1
:103A600082E00E94C216BC0180E190E00E942248E0
:103A700085E190E06091C4080E94154860914F0B69
:103A80007091500B86E190E00E94224888E190E01E
:103A9000609124090E94154889E190E06091210914
:103AA0000E9415488AE190E0609125090E9415481E
:103AB0008BE190E06091550B0E9415488CE190E0FD
:103AC0006091560B0E94154860915B0970915C09EA
:103AD0008DE190E00E94224820915B0930915C09C1
:103AE00040915D0950915E099A01442755278FE165
:103AF00090E0B9010E94224881E290E06091C508FF
:103B00000E9415486091570B7091580B82E290E02B
:103B10000E94224860915B0B70915C0B84E290E004
:103B20000E9422486091590B70915A0B8EE490E0EC
:103B30000E94224860915D0B70915E0B80E590E0E1
:103B40000E94224887E290E06091600B0E94154835
:103B500086E290E06091610B0E94154888E290E057
:103B6000609146070E94154889E290E060914707FE
:103B70000E9415488AE290E0609126090E9415484B
:103B80008BE290E0609152080E94154882E590E037
:103B90006091620B0E9415480895EF92FF920F9377
:103BA0001F93CF93DF938AE490E00E940F48A0E038
:103BB000B0E08093980A9093990AA0939A0AB093E0
:103BC0009B0A8CE490E00E940F48A0E0B0E0809354
:103BD0008C0A90938D0AA0938E0AB0938F0A80E08E
:103BE00090E00E940F48A0E0B0E08093880A909394
:103BF000890AA0938A0AB0938B0A82E090E00E941F
:103C00000F48A0E0B0E08093940A9093950AA093A7
:103C1000960AB093970A84E090E00E940F48A0E0D3
:103C2000B0E080939C0A90939D0AA0939E0AB09363
:103C30009F0ABC01CD010E94FA1488E090E00E9426
:103C400007488093540B86E090E00E9407488093D9
:103C5000520B89E090E00E940748682F80E00E94A4
:103C6000F3168AE090E00E940F48BC0180E00E94B9
:103C7000D0168CE090E00E940748682F81E00E94F7
:103C8000F3168DE090E00E940F48BC0181E00E9495
:103C9000D0168FE090E00E940748682F82E00E94D3
:103CA000F31680E190E00E940F48BC0182E00E9480
:103CB000D01685E190E00E9407480E940C0186E141
:103CC00090E00E940F489093500B80934F0B88E137
:103CD00090E00E9407488093240989E190E00E94C7
:103CE0000748809321098AE190E00E940748809369
:103CF00025098BE190E00E9407488093550B8CE1E9
:103D000090E00E9407488093560B8DE190E00E945E
:103D10000F487C0100E010E0E0925B09F0925C0942
:103D200000935D0910935E098FE190E00E940F48B7
:103D3000A0E0B0E0DC01992788278E299F29A02BDD
:103D4000B12B80935B0990935C09A0935D09B093BC
:103D50005E0981E290E00E9407488093C50882E2F4
:103D600090E00E940F489093580B8093570B84E289
:103D700090E00E940F4890935C0B80935B0B8EE465
:103D800090E00E940F4890935A0B8093590B80E566
:103D900090E00E940F4890935E0B80935D0B87E24A
:103DA00090E00E9407488093600B86E290E00E94BA
:103DB00007488093610B88E290E00E940748809357
:103DC000460789E290E00E940748809347078AE20D
:103DD00090E00E940748809326098BE290E00E94C1
:103DE00007480E94EC008CE290E00E940F489093FC
:103DF0002C0780932B07CFE2D0E0CE010E9407482A
:103E0000FE01EB5DF74F80832196CF33D105A9F7F3
:103E1000109263088FE390E00E94074880932D077B
:103E200080E490E00E940F489093AF0A8093AE0A1E
:103E300082E490E00E940F489093C00A8093BF0AEA
:103E400084E490E00E940F489093D10A8093D00AB6
:103E500088E490E00E9407488093E30189E490E0C1
:103E60000E9407488093E40182E590E00E940748A1
:103E70008093620BDF91CF911F910F91FF90EF9094
:103E800008958091740A86FF07C00E946818809187
:103E9000740A8F7B8093740A8091740A83FF07C031
:103EA0000E9441188091740A877F8093740A8091E0
:103EB000740A87FF07C00E942A188091740A8F77BE
:103EC0008093740A8091740A80FF0BC08091620B0A
:103ED000882311F40E9460048091740A8E7F80937D
:103EE000740A8091740A81FF16C08091620B882346
:103EF00069F40E94F235882311F080E005C0109229
:103F000064081092650886E00E94D5038091740AC7
:103F10008D7F8093740A08958091740A82FF11C086
:103F20008091620B882319F482E08093620B809168
:103F3000620B81508093620B8091740A8B7F809317
:103F4000740A8091740A84FF0EC08091620B8F5FA7
:103F50008093620B823010F01092620B8091740A91
:103F60008F7E8093740A00D000D000D0EDB7FEB7EA
:103F7000319682E999E0ADB7BEB712969C938E93C5
:103F8000119789EE91E0938382838091620B25E003
:103F9000829FC0011124805E984F958384830E9484
:103FA00078478DB79EB706960FB6F8949EBF0FBEA2
:103FB0008DBF0E94411F089500D000D000D0EDB702
:103FC000FEB7319682E999E0ADB7BEB712969C93E1
:103FD0008E9311978CEF91E09383828384E598E030
:103FE000958384830E9478478DB79EB706960FB657
:103FF000F8949EBF0FBE8DBF0E94411F089500D050
:1040000000D000D0EDB7FEB7319682E999E0ADB7A8
:10401000BEB712969C938E93119786E092E093839D
:10402000828387E192E0958384830E9478478DB7ED
:104030009EB706960FB6F8949EBF0FBE8DBF0E9426
:10404000411F089500D000D000D0EDB7FEB73196E3
:1040500082E999E0ADB7BEB712969C938E93119703
:1040600080E292E093838283809153082FE0829FC5
:10407000C00111248A53994F958384830E94784705
:104080008DB79EB706960FB6F8949EBF0FBE8DBF34
:104090000E94411F08958091740A82FF16C02091EA
:1040A0005D0B30915E0B8091590B90915A0B8217EA
:1040B000930730F42150304030935E0B20935D0B1A
:1040C0008091740A8B7F8093740A8091740A84FFB4
:1040D00011C080915D0B90915E0B8F35910528F496
:1040E000019690935E0B80935D0B8091740A8F7E96
:1040F0008093740A00D000D000D0EDB7FEB731969F
:1041000082E999E0ADB7BEB712969C938E93119752
:104110008BE292E09383828380915D0B90915E0BA2
:10412000958384830E9478478DB79EB706960FB615
:10413000F8949EBF0FBE8DBF0E94411F08958091CD
:10414000740A82FF10C08091590B90915A0B00970E
:1041500029F0019790935A0B8093590B8091740A20
:104160008B7F8093740A8091740A84FF16C020911B
:10417000590B30915A0B80915D0B90915E0B281773
:10418000390730F42F5F3F4F30935A0B2093590B70
:104190008091740A8F7E8093740A00D000D000D082
:1041A000EDB7FEB7319682E999E0ADB7BEB712968A
:1041B0009C938E93119783E492E093838283809102
:1041C000590B90915A0B958384830E9478478DB741
:1041D0009EB706960FB6F8949EBF0FBE8DBF0E9485
:1041E000411F08958091740A82FF16C020915B0BD5
:1041F00030915C0B8091570B9091580B821793076D
:1042000030F42150304030935C0B20935B0B809155
:10421000740A8B7F8093740A8091740A84FF11C0A2
:1042200080915B0B90915C0B8F35910528F4019682
:1042300090935C0B80935B0B8091740A8F7E8093CC
:10424000740A00D000D000D0EDB7FEB7319682E9F5
:1042500099E0ADB7BEB712969C938E93119789E5FE
:1042600092E09383828380915B0B90915C0B9583AA
:1042700084830E9478478DB79EB706960FB6F89450
:104280009EBF0FBE8DBF0E94411F08958091740A8A
:1042900082FF10C08091570B9091580B009729F026
:1042A00001979093580B8093570B8091740A8B7FE2
:1042B0008093740A8091740A84FF16C02091570B72
:1042C0003091580B80915B0B90915C0B281739074C
:1042D00030F42F5F3F4F3093580B2093570B809152
:1042E000740A8F7E8093740A00D000D000D0EDB79E
:1042F000FEB7319682E999E0ADB7BEB712969C93AE
:104300008E93119781E792E0938382838091570B7C
:104310009091580B958384830E9478478DB79EB700
:1043200006960FB6F8949EBF0FBE8DBF0E94411F28
:1043300008951F9320915B0930915C0940915D09BC
:1043400050915E09EAEAF6E010E080819181A28155
:10435000B381281739074A075B0721F01F5F34969E
:10436000173099F78DB79EB708970FB6F8949EBF90
:104370000FBE8DBFEDB7FEB7319682E999E0ADB7BC
:10438000BEB712969C938E93119787E892E0938321
:10439000828324833583468357830E9478478091A4
:1043A000740A2DB73EB7285F3F4F0FB6F8943EBF53
:1043B0000FBE2DBF84FF09C01F5F173009F410E046
:1043C0008091740A8F7E8093740A8091740A82FFB0
:1043D00009C0112309F417E011508091740A8B7FF2
:1043E0008093740AE12FF0E0EE0FFF1FEE0FFF1F26
:1043F000E655F94F80819181A281B38180935B0959
:1044000090935C09A0935D09B0935E090E94411FDF
:104410001F91089500D000D000D0EDB7FEB73196BF
:1044200082E999E0ADB7BEB712969C938E9311972F
:1044300088E992E0938382838091C5088483158202
:104440000E9478478091740A2DB73EB72A5F3F4F8C
:104450000FB6F8943EBF0FBE2DBF84FF0AC08091F7
:10446000C5088F5F8093C5088091740A8F7E809302
:10447000740A8091740A82FF0AC08091C508815035
:104480008093C5088091740A8B7F8093740A0E9480
:10449000411F089500D000D000D0EDB7FEB731968F
:1044A00082E999E0ADB7BEB712969C938E931197AF
:1044B0008DEA92E09383828380914F0B9091500B11
:1044C000958384830E9478478091740A2DB73EB704
:1044D0002A5F3F4F0FB6F8943EBF0FBE2DBF84FF3B
:1044E00012C080914F0B9091500B33E0883E9307A0
:1044F00028F401969093500B80934F0B8091740A8F
:104500008F7E8093740A8091740A82FF10C080911C
:104510004F0B9091500B009729F001979093500BFF
:1045200080934F0B8091740A8B7F8093740A0E9452
:10453000411F08958091740A85FF17C00E94BD1B1A
:104540000E9430190E94E41C82E999E063EC72E059
:104550000E943A470E94700D84EF91E00E94501231
:104560008091740A8F7D8093740A82E999E068EDE6
:1045700072E00E943A470E94411F08958091740A98
:1045800085FF15C00E9430190E94E41C82E999E061
:104590006DEE72E00E943A470E94700D84EF91E048
:1045A0000E9450128091740A8F7D8093740A82E970
:1045B00099E062E073E00E943A470E94411F08952B
:1045C0008091740A82FF0CC08091560B8B3018F0DA
:1045D00081508093560B8091740A8B7F8093740A6C
:1045E0008091740A84FF1FC09091560B8091540BE8
:1045F000981738F48091550B981718F49F5F909393
:10460000560B0E94F235882349F09091560B809109
:10461000530B891718F4892F0E9405348091740A6E
:104620008F7E8093740A8091560B0E9419342DB7A7
:104630003EB7285030400FB6F8943EBF0FBE2DBF96
:10464000EDB7FEB7319622E939E0ADB7BEB71296A5
:104650003C932E93119727E133E0338322836483C5
:104660007583868397830E9478472DB73EB7285F6E
:104670003F4F0FB6F8943EBF0FBE2DBF0E94411FA3
:104680000895EF92FF920F931F938091740A82FF17
:1046900027C04091550B8091520B2091540B30E074
:1046A000280F311D842F90E0281739073CF48091A2
:1046B000560B841718F441504093550B0E94F23565
:1046C000882349F09091550B8091530B981718F45B
:1046D000892F0E9405348091740A8B7F8093740A1D
:1046E0008091740A84FF2AC08091550B8F5F0E94CD
:1046F00019347B018C0160912D0770E0882777FDCC
:104700008095982F0E94764420E030E040E251E40A
:104710000E94DB439B01AC01C801B7010E94D74353
:1047200088233CF48091550B8F3F19F08F5F809365
:10473000550B8091740A8F7E8093740A8091550B7B
:104740000E9419342DB73EB7285030400FB6F89468
:104750003EBF0FBE2DBFEDB7FEB7319622E939E05F
:10476000ADB7BEB712963C932E9311972EE233E06D
:104770003383228364837583868397830E9478477B
:104780002DB73EB7285F3F4F0FB6F8943EBF0FBE20
:104790002DBF0E94411F1F910F91FF90EF90089530
:1047A0008091740A82FF11C080912B0790912C0791
:1047B000893C910528F0019790932C0780932B0753
:1047C0008091740A8B7F8093740A8091740A84FFAD
:1047D00012C080912B0790912C0727E0803D920713
:1047E00028F4019690932C0780932B078091740AEC
:1047F0008F7E8093740A00D000D000D0EDB7FEB752
:10480000319682E999E0ADB7BEB712969C938E932C
:10481000119786E493E09383828380912B07909194
:104820002C07958384830E9478478DB79EB70696A0
:104830000FB6F8949EBF0FBE8DBF0E94411F089512
:104840008091740A82FF0CC08091250918161CF40F
:104850008150809325098091740A8B7F8093740A1C
:104860008091740A84FF0CC0809125098A301CF461
:104870008F5F809325098091740A8F7E8093740ADC
:1048800000D000D000D0EDB7FEB7319682E999E0B4
:10489000ADB7BEB712969C938E9311978AE593E0BD
:1048A0009383828380912509992787FD909595832D
:1048B00084830E9478478DB79EB706960FB6F8940A
:1048C0009EBF0FBE8DBF0E94411F08958091740A44
:1048D00082FF0CC08091210918161CF4815080932E
:1048E00021098091740A8B7F8093740A8091740AE5
:1048F00084FF0CC0809121098A301CF48F5F809363
:1049000021098091740A8F7E8093740A00D000D0B0
:1049100000D0EDB7FEB7319682E999E0ADB7BEB7EA
:1049200012969C938E9311978DE693E093838283E6
:1049300080912109992787FD9095958384830E9412
:1049400078478DB79EB706960FB6F8949EBF0FBEF8
:104950008DBF0E94411F08958091740A82FF11C08B
:1049600080915208882319F482E080935208809144
:1049700052088150809352088091740A8B7F8093F3
:10498000740A8091740A84FF0EC0809152088F5F70
:1049900080935208823010F0109252088091740A6D
:1049A0008F7E8093740A80915208813019F02FE72E
:1049B00033E002C023E833E000D000D000D0EDB7F0
:1049C000FEB7319682E999E0ADB7BEB712969C93D7
:1049D0008E93119786E893E09383828335832483B3
:1049E0000E9478478DB79EB706960FB6F8949EBF83
:1049F0000FBE8DBF809152080E94EC000E94411FA3
:104A000008958091740A82FF11C08091260988233D
:104A100019F482E0809326098091260981508093C1
:104A200026098091740A8B7F8093740A8091740A9E
:104A300084FF0EC0809126098F5F80932609823003
:104A400010F0109226098091740A8F7E8093740A68
:104A500080912609813019F02FE733E002C023E866
:104A600033E000D000D000D0EDB7FEB7319682E938
:104A700099E0ADB7BEB712969C938E93119786E9D5
:104A800093E093838283358324830E9478478DB794
:104A90009EB706960FB6F8949EBF0FBE8DBF0E94BC
:104AA000411F08958091740A82FF1CC080912409DF
:104AB000813019F484E08093240980912409815085
:104AC00080932409813019F40E94E80006C00E94F6
:104AD000F235882311F00E9428018091740A8B7F9F
:104AE0008093740A8091740A84FF1CC08091240909
:104AF0008F5F80932409843018F081E0809324092B
:104B000080912409813019F40E94E80006C00E94B7
:104B1000F235882311F00E9428018091740A8F7E5B
:104B20008093740A00D000D000D0EDB7FEB7319664
:104B300082E999E0ADB7BEB712969C938E93119718
:104B40008BEA93E0938382838091240926E0829FFD
:104B5000C00111248E56994F958384830E94784713
:104B60008DB79EB706960FB6F8949EBF0FBE8DBF49
:104B70000E94411F08958091740A82FF11C08091A4
:104B8000C408813019F484E08093C4088091C4087B
:104B900081508093C4088091740A8B7F8093740A3B
:104BA0008091740A84FF0FC08091C4088F5F809346
:104BB000C408843018F081E08093C4088091740A9E
:104BC0008F7E8093740A00D000D000D0EDB7FEB77E
:104BD000319682E999E0ADB7BEB712969C938E9359
:104BE00011978BEB93E0938382838091C40825E037
:104BF000829FC00111248258994F958384830E941B
:104C000078478DB79EB706960FB6F8949EBF0FBE35
:104C10008DBF8091C4080E940C010E94411F08951D
:104C20008091740A82FD04C08091740A84FF3AC0A6
:104C300080917F0890918008A0918108B0918208AE
:104C4000209188083091890840918A0850918B08FA
:104C5000821B930BA40BB50B845F9140A040B04026
:104C600068F480918608909187088B34910554F4FC
:104C70000196909387088093860804C01092870855
:104C80001092860880917F0890918008A0918108F9
:104C9000B09182088093880890938908A0938A082D
:104CA000B0938B088091740A82FF5BC08091860864
:104CB000909187082091880A3091890A40918A0A48
:104CC00050918B0A8B3491052CF024513040404098
:104CD000504004C021503040404050402093880A4A
:104CE0003093890A40938A0A50938B0A2091940A40
:104CF0003091950A4091960A5091970A8091880ABE
:104D00009091890AA0918A0AB0918B0A8217930721
:104D1000A407B50740F42093880A3093890A40938A
:104D20008A0A50938B0A2091880A3091890A40910F
:104D30008A0A50918B0A80919C0A90919D0AA091B9
:104D40009E0AB0919F0A281739074A075B0720F48B
:104D5000CA01B9010E94FA148091740A8B7F809372
:104D6000740A8091740A84FF42C0809186089091F1
:104D700087082091880A3091890A40918A0A5091C7
:104D80008B0A8B3491052CF02C5E3F4F4F4F5F4FB9
:104D900004C02F5F3F4F4F4F5F4F2093880A3093DF
:104DA000890A40938A0A50938B0A2091980A30917D
:104DB000990A40919A0A50919B0A8091880A909191
:104DC000890AA0918A0AB0918B0A281739074A07E5
:104DD0005B0740F42093880A3093890A40938A0A3B
:104DE00050938B0A8091740A8F7E8093740A8DB7DA
:104DF0009EB708970FB6F8949EBF0FBE8DBFEDB754
:104E0000FEB7319682E999E0ADB7BEB712969C9392
:104E10008E93119785EC93E0938382838091880A27
:104E20009091890AA0918A0AB0918B0A8483958314
:104E3000A683B7830E9478478DB79EB708960FB6B2
:104E4000F8949EBF0FBE8DBF0E94411F08958091B0
:104E5000740A82FD04C08091740A84FF3AC0809174
:104E60007F0890918008A0918108B09182082091DC
:104E70008E0830918F084091900850919108821BC4
:104E8000930BA40BB50B845F9140A040B04068F435
:104E900080918C0890918D088B34910554F4019683
:104EA00090938D0880938C0804C010928D08109206
:104EB0008C0880917F0890918008A0918108B09122
:104EC000820880938E0890938F08A0939008B093E7
:104ED00091088091740A82FF42C080918C08909161
:104EE0008D082091940A3091950A4091960A50912C
:104EF000970A8B3491052CF02451304040405040AB
:104F000004C021503040404050402093940A3093D8
:104F1000950A4093960A5093970A20918C0A3091F3
:104F20008D0A40918E0A50918F0A8091940A909137
:104F3000950AA091960AB091970A82179307A40741
:104F4000B50740F42093940A3093950A4093960A4B
:104F50005093970A8091740A8B7F8093740A809192
:104F6000740A84FF5BC080918C0890918D08209119
:104F7000940A3091950A4091960A5091970A8B3481
:104F800091052CF02C5E3F4F4F4F5F4F04C02F5FB9
:104F90003F4F4F4F5F4F2093940A3093950A4093B1
:104FA000960A5093970A2091880A3091890A409175
:104FB0008A0A50918B0A8091940A9091950AA09147
:104FC000960AB091970A281739074A075B0740F4F9
:104FD0002093940A3093950A4093960A5093970A27
:104FE0002091940A3091950A4091960A5091970A1F
:104FF00080919C0A90919D0AA0919E0AB0919F0A6F
:1050000082179307A407B50720F4CA01B9010E94CB
:10501000FA148091740A8F7E8093740A8DB79EB7BC
:1050200008970FB6F8949EBF0FBE8DBFEDB7FEB7C1
:10503000319682E999E0ADB7BEB712969C938E93F4
:10504000119789ED93E0938382838091940A9091E4
:10505000950AA091960AB091970A84839583A683B6
:10506000B7830E9478478DB79EB708960FB6F8941D
:105070009EBF0FBE8DBF0E94411F08958091740A8C
:1050800084FF0DC083E00E94E616682F6F5F83E007
:105090000E94F3168091740A8F7E8093740A809127
:1050A000740A82FF0DC083E00E94E616682F6150EB
:1050B00083E00E94F3168091740A8B7F8093740AB8
:1050C00083E00E94E61600D000D000D0EDB7FEB716
:1050D000319622E939E0ADB7BEB712963C932E93D4
:1050E00011972DEE33E033832283848315820E944F
:1050F00078478DB79EB706960FB6F8949EBF0FBE41
:105100008DBF0E94411F08958091740A84FF0EC0D4
:1051100083E00E94C216BC016F5F7F4F83E00E9454
:10512000D0168091740A8F7E8093740A8091740ADD
:1051300082FF0EC083E00E94C216BC016150704025
:1051400083E00E94D0168091740A8B7F8093740A4A
:1051500083E00E94C21600D000D000D0EDB7FEB7A9
:10516000319622E939E0ADB7BEB712963C932E9343
:1051700011972EEF33E033832283958384830E943B
:1051800078478DB79EB706960FB6F8949EBF0FBEB0
:105190008DBF0E94411F08958091740A84FF0DC045
:1051A00082E00E94E616682F6F5F82E00E94F3168D
:1051B0008091740A8F7E8093740A8091740A82FFB2
:1051C0000DC082E00E94E616682F615082E00E94C6
:1051D000F3168091740A8B7F8093740A82E00E9498
:1051E000E61600D000D000D0EDB7FEB7319622E928
:1051F00039E0ADB7BEB712963C932E93119720E1DC
:1052000034E033832283848315820E9478478DB7EC
:105210009EB706960FB6F8949EBF0FBE8DBF0E9434
:10522000411F08958091740A84FF0EC082E00E949D
:10523000C216BC016F5F7F4F82E00E94D016809142
:10524000740A8F7E8093740A8091740A82FF0EC064
:1052500082E00E94C216BC016150704082E00E9450
:10526000D0168091740A8B7F8093740A82E00E942A
:10527000C21600D000D000D0EDB7FEB7319622E9BB
:1052800039E0ADB7BEB712963C932E93119721E249
:1052900034E033832283958384830E9478478DB7DB
:1052A0009EB706960FB6F8949EBF0FBE8DBF0E94A4
:1052B000411F08958091740A84FF0DC081E00E940F
:1052C000E616682F6F5F81E00E94F3168091740AE2
:1052D0008F7E8093740A8091740A82FF0DC081E0F2
:1052E0000E94E616682F615081E00E94F3168091BB
:1052F000740A8B7F8093740A81E00E94E61600D0C6
:1053000000D000D0EDB7FEB7319622E939E0ADB755
:10531000BEB712963C932E93119723E334E0338368
:105320002283848315820E9478478DB79EB70696A4
:105330000FB6F8949EBF0FBE8DBF0E94411F089507
:105340008091740A84FF0EC081E00E94C216BC01E5
:105350006F5F7F4F81E00E94D0168091740A8F7E2C
:105360008093740A8091740A82FF0EC081E00E94CB
:10537000C216BC016150704081E00E94D01680913D
:10538000740A8B7F8093740A81E00E94C21600D059
:1053900000D000D0EDB7FEB7319622E939E0ADB7C5
:1053A000BEB712963C932E93119724E434E03383D6
:1053B0002283958384830E9478478DB79EB7069693
:1053C0000FB6F8949EBF0FBE8DBF0E94411F089577
:1053D0008091740A84FF0DC080E00E94E616682F59
:1053E0006F5F80E00E94F3168091740A8F7E809335
:1053F000740A8091740A82FF0DC080E00E94E61654
:10540000682F615080E00E94F3168091740A8B7FB0
:105410008093740A80E00E94E61600D000D000D08D
:10542000EDB7FEB7319622E939E0ADB7BEB71296B7
:105430003C932E93119726E534E0338322838483B3
:1054400015820E9478478DB79EB706960FB6F894DE
:105450009EBF0FBE8DBF0E94411F08958091740AA8
:1054600084FF0EC080E00E94C216BC016F5F7F4FB8
:1054700080E00E94D0168091740A8F7E8093740A17
:105480008091740A82FF0EC080E00E94C216BC01A7
:105490006150704080E00E94D0168091740A8B7F2A
:1054A0008093740A80E00E94C21600D000D000D021
:1054B000EDB7FEB7319622E939E0ADB7BEB7129627
:1054C0003C932E93119727E634E033832283958310
:1054D00084830E9478478DB79EB706960FB6F894DE
:1054E0009EBF0FBE8DBF0E94411F0895EF92FF9295
:1054F0000F931F93CF93DF938091740A82FD04C0B2
:105500008091740A84FF3AC080917F08909180084E
:10551000A0918108B091820820919408309195085B
:105520004091960850919708821B930BA40BB50BE2
:10553000845F9140A040B04068F4809192089091BF
:1055400093088B34910554F40196909393088093BB
:10555000920804C0109293081092920880917F08DC
:1055600090918008A0918108B0918208809394085E
:1055700090939508A0939608B09397088091740A29
:1055800084FF4CC0809192089091930820919C0ACE
:1055900030919D0A40919E0A50919F0A8B3491054B
:1055A0002CF02C5E3F4F4F4F5F4F04C02F5F3F4F9B
:1055B0004F4F5F4F20939C0A30939D0A40939E0A61
:1055C00050939F0A2091880A3091890A40918A0A53
:1055D00050918B0A80919C0A90919D0AA0919E0AFD
:1055E000B0919F0A281739074A075B0740F42093B8
:1055F0009C0A30939D0A40939E0A50939F0A6091A3
:105600009C0A70919D0A80919E0A90919F0A0E9427
:10561000FA148091740A8F7E8093740A8091740AC0
:1056200082FF4CC0809192089091930820919C0A2F
:1056300030919D0A40919E0A50919F0A8B349105AA
:105640002CF0245130404040504004C021503040A4
:105650004040504020939C0A30939D0A40939E0AFC
:1056600050939F0A2091940A3091950A4091960A8E
:105670005091970A80919C0A90919D0AA0919E0A50
:10568000B0919F0A82179307A407B50740F42093AF
:105690009C0A30939D0A40939E0A50939F0A609102
:1056A0009C0A70919D0A80919E0A90919F0A0E9487
:1056B000FA148091740A8B7F8093740A81E00E94AF
:1056C0009B168C0180E00E949B16EC01C8010E9491
:1056D00060177B018C0120E030E040E050E00E9448
:1056E000D743882354F40F2EF0E0EF2EF0E0FF2E86
:1056F000F0E00F2FF0E01F2FF02DCE010E94491790
:105700008DB79EB70C970FB6F8949EBF0FBE8DBF96
:10571000EDB7FEB7319682E999E0ADB7BEB7129604
:105720009C938E93119789E794E093838283809171
:105730009C0A90919D0AA0919E0AB0919F0A848331
:105740009583A683B783E086F186028713870E943C
:1057500078478DB79EB70C960FB6F8949EBF0FBED4
:105760008DBF0E94411FDF91CF911F910F91FF903C
:10577000EF900895CF92DF92EF92FF920F931F93D5
:105780008091740A85FF41C0809185088823C1F506
:105790000E94E80081E00E94031720914F0B309196
:1057A000500B280F391F3093990820939808609167
:1057B000940A7091950A8091960A9091970A0E9496
:1057C000FA148091940A9091950AA091960AB0914A
:1057D000970A8093A1089093A208A093A308B0937E
:1057E000A40880939D0890939E08A0939F08B0936F
:1057F000A00810929C0810929B0881E08093850875
:105800008091740A8F7D8093740A80918508882323
:1058100009F41FC18091740A81FF12C00E94F23501
:10582000882311F080E005C010926408109265088A
:1058300086E00E94D5038091740A8D7F8093740A5C
:105840000E94F235882369F41092850880919A08A5
:10585000882311F00E94271310929A080E94411881
:1058600000C120919C0A30919D0A40919E0A50915E
:105870009F0A8091880A9091890AA0918A0AB09122
:105880008B0A281739074A075B0708F09CC08091EC
:105890009A08882349F480919808909199080E9469
:1058A000EA1280939A08DDC00E94D712892B09F072
:1058B000D8C080919A080E94271310929A08F894F1
:1058C00081E00E949B16D82EC92E7894E0909C0A05
:1058D000F0909D0A00919E0A10919F0A0E94601705
:1058E0002DB73EB72C5030400FB6F8943EBF0FBED8
:1058F0002DBFEDB7FEB7319622E939E0ADB7BEB79F
:1059000012963C932E93119728E934E03383228337
:10591000E482F58206831783608771878287938785
:105920000E9478478D2D9C2D20919B0830919C08DA
:105930004DB75EB7445F5F4F0FB6F8945EBF0FBEC2
:105940004DBF28173907A8F490939C0880939B08B3
:1059500080919C0A90919D0AA0919E0AB0919F0A05
:105960008093A1089093A208A093A308B093A408E1
:1059700013C08217930781F480919C0A90919D0A2D
:10598000A0919E0AB0919F0A80939D0890939E08D3
:10599000A0939F08B093A00860919C0A70919D0A03
:1059A00080919E0A90919F0A665F7F4F8F4F9F4F15
:1059B00060939C0A70939D0A80939E0A90939F0A1D
:1059C0000E94FA144EC02091A1083091A208409183
:1059D000A3085091A40880919D0890919E08A091E1
:1059E0009F08B091A00882179307A407B50740F459
:1059F00020939D0830939E0840939F085093A008E1
:105A000080919D0890919E08A0919F08B091A00858
:105A1000280F391F4A1F5B1F5695479537952795C5
:105A2000CA01B9010E94FA148091520B9091540B53
:105A3000890F0E9405348091610B9091600B890F52
:105A40000E942B360E9441180E942801109285085E
:105A500008C082E999E060EB74E00E943A470E9436
:105A6000411F1F910F91FF90EF90DF90CF9008950D
:105A700083E00E949B1600D000D000D0EDB7FEB7A7
:105A8000319622E939E0ADB7BEB712963C932E931A
:105A9000119725EC34E033832283958384830E941D
:105AA00078478DB79EB706960FB6F8949EBF0FBE87
:105AB0008DBF0E94411F089582E00E949B1600D076
:105AC00000D000D0EDB7FEB7319622E939E0ADB78E
:105AD000BEB712963C932E93119720ED34E033839A
