:100000000C94C7000C94E6000C94E6000C94E600F7
:100010000C94E6000C94E6000C9418040C94E60092
:100020000C94E8030C94E6000C94E6000C94E600B3
:100030000C94E6000C94E6000C94E6000C946A1113
:100040000C94E6000C94E6000C94E6000C94E60098
:100050000C94E6000C948C130C94E6000C94E600CF
:100060000C94E6000C94E6000C94E6000C94E60078
:100070000C94E6000C94E6000C94570D0C94E600EA
:100080000C94E6000C94E6000C94E6006E616E00A1
:10009000696E660000407A10F35A00A0724E18098B
:1000A0000010A5D4E80000E87648170000E40B54DF
:1000B000020000CA9A3B000000E1F50500008096AE
:1000C0009800000040420F000000A08601000000E0
:1000D000102700000000E80300000000640000009A
:1000E00000000A00000000000100000000002C7663
:1000F000D888DC674F0823DFC1DFAE59E1B1B7967E
:10010000E5E3E453C63AE651997696E8E6C28426DA
:10011000EB898C9B62ED407C6FFCEFBC9C9F40F2B6
:10012000BAA56FA5F490055A2AF75C936B6CF96732
:100130006DC11BFCE0E40D47FEF520E6B500D0EDF7
:10014000902E0300943577050080841E080000205F
:100150004E0A000000C80C333333330F986E1283FD
:100160001141EF8D2114893BE65516CFFEE6DB18D1
:10017000D1844B381BF77C1D901DA4BBE424203296
:1001800084725E228100C9F124ECA1E53D2711248F
:100190001FBECFEFD0E1DEBFCDBF17E0A0E0B1E0E2
:1001A000EAEAFCE700E00BBF02C007900D92AC3C0E
:1001B000B107D9F71AE0ACECB7E001C01D92AA373D
:1001C000B107E1F70E947A090C94533E0C940000A9
:1001D0009C01E199FECF3FBB2EBB6DBB0FB6F894DF
:1001E000E29AE19A0FBE089581E08093810108951B
:1001F000982F15988AB78B7F8ABF8AB7877F8ABF67
:1002000017988AB78F7B8ABF8AB78F778ABF91305A
:1002100031F489B7806289BF89B7806805C089B722
:100220008F7D89BF89B78F7789BF9093CC07089559
:1002300080932808823061F0833031F0813099F466
:1002400080916500886007C00E94A52C882331F04A
:1002500080916500877F8093650008958091650097
:100260008860809365000895AF92BF92CF92DF922D
:10027000EF92FF920F931F9380E197E220E731E026
:10028000F9013197F1F70197D9F7E090670AF090FB
:10029000680A81E00E94F8146C0182E00E94F81460
:1002A000C80ED91EEC0CFD1C00E010E0C801B7011F
:1002B0000E94803C5B016C0126E636E646E655E48A
:1002C0000E94363D7B018C0120E030E040E85FE396
:1002D0000E94E33B88231CF461E070E024C020E02E
:1002E0003FEF4FE757E4C801B7010E94323D1816AF
:1002F000B4F420E030E040E251E4C601B5010E94D0
:10030000363D0E94543C80E791E005C0FC013197E6
:10031000F1F76150704061157105C1F707C0C80160
:10032000B7010E94543CCB010197F1F78091680816
:1003300080938101F89481E00E94901490936C085E
:1003400080936B0882E00E9490148C019093670860
:1003500080936608789480916F0A8093A4088091B6
:100360006B0890916C080E9427151F930F939F9321
:100370008F937F936F9380E091E09F938F9386ECB0
:1003800098E09F938F930E94623B0E94A00B28E805
:1003900033E18DB79EB70A960FB6F8949EBF0FBE95
:1003A0008DBF40E751E0CA010197F1F7215030407D
:1003B000D1F71F910F91FF90EF90DF90CF90BF90FA
:1003C000AF900895CF92DF92EF92FF920F931F9319
:1003D000CF93DF9380918101813069F48091EF07A1
:1003E000882321F00E9459111092EF071092E20722
:1003F0001092E107C5C1F89481E00E949014EC01CD
:1004000082E00E9490146C0178948091E207882326
:1004100009F076C08091E107882309F071C08091CE
:10042000EF07882321F00E9459111092EF07809165
:100430006B0890916C08C817D90771F48091660811
:1004400090916708C816D90609F49AC18091810174
:10045000823009F040C094C1C817D907E4F581E0A3
:100460008093E2071092E7071092E8071092E907DD
:100470001092EA071092E3071092E4071092E50742
:100480001092E6072091B0093091B1094091B2096C
:100490005091B3092093EB073093EC074093ED079D
:1004A0005093EE07609169086093F107E091650849
:1004B000E093F00761956093F2076E02B00111249A
:1004C000882777FD8095982F620F731F841F951FD3
:1004D0000E94281303C081E08093E1070091670A1E
:1004E0001091680A81E00E94F814800F911F0E9409
:1004F0001C118093EF0784E690E00E94821040C1B7
:100500008091EF070E940911892B29F08091EF0754
:10051000882309F035C18091EF070E94591110928C
:10052000EF078091E207882309F4E2C06091F207A7
:100530008091F007E82FFF27E7FDF095862F992798
:1005400087FD90959C01E29FC001E39F900DF29F73
:10055000900D11249C012C9FC0012D9F900D3C9F5C
:10056000900D11247C010027F7FC0095102F80913D
:10057000E7079091E807A091E907B091EA07E80E34
:10058000F91E0A1F1B1FE092E707F092E80700938D
:10059000E9071093EA079E01442737FD4095542F41
:1005A0008091E3079091E407A091E507B091E607F9
:1005B000820F931FA41FB51F8093E3079093E40756
:1005C000A093E507B093E6076F5F6093F207809111
:1005D000F10786170CF062C0682F772767FD7095CA
:1005E0006E9FC0016F9F900D7E9F900D11249C0106
:1005F000442737FD4095542F2E153F0540075107DE
:10060000B4F0882799278E1B9F0B9C01269FC00161
:10061000279F900D369F900D11249C01442737FD94
:100620004095542FE216F3060407150744F420936F
:10063000E7073093E8074093E9075093EA07609192
:10064000E7076093F207772767FD7095872F972F4D
:100650002091EB073091EC074091ED075091EE07A8
:10066000620F731F841F951F0E9428131092E207C8
:100670008091F207882319F01092E00705C080915D
:10068000E0078F5F8093E0078091E007823080F180
:1006900081E08093E1071092E0072AC0862F992716
:1006A00087FD90958E9FB0018F9F700D9E9F700D5E
:1006B0001124882777FD8095982F2091EB073091A2
:1006C000EC074091ED075091EE07620F731F841FF6
:1006D000951F0E9428130091670A1091680A81E013
:1006E0000E94F814800F911F0E941C118093EF0745
:1006F0008091E107882309F443C080918101823011
:1007000031F420916B0830916C08CE0105C0209126
:10071000660830916708C601821793074CF49091E0
:100720006F0A8091710A981728F5892F8F5F0BC087
:1007300028173907FCF490916F0A8091720A891783
:10074000C8F4892F81500E94162BE090670AF09020
:10075000680A81E00E94F8148C0182E00E94F8147B
:10076000080F191FC8018E0D9F1D0E941C11809338
:10077000EF0706C01092E107D0936C08C0936B0896
:10078000DF91CF911F910F91FF90EF90DF90CF906D
:1007900008950E942C2B0E949E2C08951F93182FC1
:1007A00081E0809381010E94C903809128088230F2
:1007B00049F080E090E90197F1F780916500886049
:1007C00080936500153011F01093CD071F910895A7
:1007D0001F920F920FB60F920BB60F9211242F9308
:1007E0003F934F935F936F937F938F939F93AF93B9
:1007F000BF93EF93FF930E94A52C882331F084E0F0
:100800000E94CE0381E08093DE07FF91EF91BF91BC
:10081000AF919F918F917F916F915F914F913F9198
:100820002F910F900BBE0F900FBE0F901F90189539
:100830001F920F920FB60F920BB60F9211242F93A7
:100840003F934F935F936F937F938F939F93AF9358
:10085000BF93EF93FF930E94A52C882331F083E090
:100860000E94CE0381E08093DF07FF91EF91BF915B
:10087000AF919F918F917F916F915F914F913F9138
:100880002F910F900BBE0F900FBE0F901F901895D9
:100890006091B0097091B1098091B2099091B3094A
:1008A0000E9428130E94982C8091700A0E94162B97
:1008B0000895EF92FF920F931F930D991AC08091A4
:1008C000CC078130B1F460E171E08EEE98E00E94D7
:1008D000F93A0E94A00B88EC90E00E94821080E11F
:1008E00097E220E731E0F9013197F1F70197D9F765
:1008F00064C00F991AC08091CC078130B1F465E2D1
:1009000071E08EEE98E00E94F93A0E94A00B88EC0C
:1009100090E00E94821080E197E220E731E0F90147
:100920003197F1F70197D9F748C06091730A709138
:10093000740A80E090E00E94803C7B018C010E9460
:100940005F2B9B01AC01C801B7010E94E33B8823E8
:10095000B4F46AE371E08EEE98E00E94F93A0E94E6
:10096000A00B88EC90E00E94821080E197E220E7E3
:1009700031E0F9013197F1F70197D9F71EC0809165
:100980002808813049F080916500877F8093650059
:1009900080E090E90197F1F70E94480480916A088D
:1009A000813059F41092FE078091690A8093610AA0
:1009B0008091A80980628093A8091F910F91FF90F0
:1009C000EF9008950E94CA1208950F931F93CF933A
:1009D000DF938091F307882309F487C41092F3070B
:1009E00065EA78E086E199E00E94B40F8093A3085D
:1009F000882309F07AC4209129088091A508281736
:100A000009F073C49091A608963009F047C380910D
:100A1000FF07882309F034C3C091A908D091AA0820
:100A20008091A7089091A8088131910509F495C299
:100A30008231910508F045C08830910509F4F0C174
:100A400089309105F8F48330910509F4F5C08430BC
:100A5000910540F48130910509F4B5C0029708F082
:100A6000D8C079C08530910509F48AC185309105D7
:100A700008F432C18630910509F49EC1079709F048
:100A800022C4AFC18C30910509F405C28D309105A7
:100A900040F48A30910509F4E4C10B9708F0EAC1EB
:100AA000D7C18E30910509F41BC28E30910508F430
:100AB00003C28F30910509F42FC2409709F003C497
:100AC00040C28832910509F490C28932910518F527
:100AD0008332910509F461C28432910560F4813258
:100AE000910509F44AC28232910508F04EC28097FE
:100AF00009F0E9C33AC28532910509F45EC2853234
:100B0000910508F452C28632910509F45EC28797B6
:100B100009F0D9C362C28C32910509F486C28D32C4
:100B2000910540F48A32910509F46FC28B9708F061
:100B300074C263C28E32910509F487C28E32910568
:100B400008F47BC28F32910509F487C28F5F9F4FF3
:100B500009F0B9C392C2CE018370907081309105C3
:100B600019F0029739F404C081E00E94CE0302C05C
:100B70000E945904CE018C709070009731F09695C8
:100B80008795969587950E9418019E012073307075
:100B90002032310559F02033310551F02031310533
:100BA00009F091C381E0809381018DC382E001C08F
:100BB00083E0809368080E94A52C882309F483C3EE
:100BC0000E94340180C320916A0A30916B0A4091DF
:100BD0006C0A50916D0ACE01A0E0B0E08217930735
:100BE000A407B50708F4E9012091630A3091640A6B
:100BF0004091650A5091660ACE01A0E0B0E0281746
:100C000039074A075B0708F4E901BE0180E090E07C
:100C1000B4C08091720A282F30E02C173D0708F4E9
:100C20009E018091710A482F50E0C9014217530775
:100C300008F00BC1CA0109C1CE01A0E0B0E0809369
:100C4000630A9093640AA093650AB093660A2091A0
:100C50006A0A30916B0A40916C0A50916D0A8217B2
:100C60009307A407B50740F42093630A3093640AFE
:100C70004093650A5093660A8091630A9091640AD2
:100C8000A091650AB091660A81539547A040B04093
:100C900060F080E395E7A0E0B0E08093630A909372
:100CA000640AA093650AB093660A2091630A3091A2
:100CB000640A4091650A5091660A8091B00990914A
:100CC000B109A091B209B091B309281739074A07B1
:100CD0005B0708F0F8C24FC0CE01A0E0B0E08093FF
:100CE0006A0A90936B0AA0936C0AB0936D0A2091E4
:100CF000630A3091640A4091650A5091660A281788
:100D000039074A075B0740F420936A0A30936B0A5D
:100D100040936C0A50936D0A80916A0A90916B0A15
:100D2000A0916C0AB0916D0A88569244A040B040E0
:100D300060F488E692E4A0E0B0E080936A0A9093C1
:100D40006B0AA0936C0AB0936D0A20916A0A3091E5
:100D50006B0A40916C0A50916D0A8091B009909194
:100D6000B109A091B209B091B30982179307A40702
:100D7000B50708F0A8C2CA01B9010E942813A3C28E
:100D8000C093700A4091710A50916E0A842F90E0CE
:100D9000851B91092C2F30E0821793071CF4451B0B
:100DA0004093700A9091720A8091700A891708F036
:100DB0008AC29093700A87C2C0936E0A4091710AEA
:100DC000242F30E02C1B31098091A90690E02817D0
:100DD00039070CF078C28091700A481B40936E0A64
:100DE00072C2C093710A5091700A40916E0A2C2F02
:100DF00030E0852F90E0840F911D281739071CF4EF
:100E0000450F4093710A0E94A52C882309F45BC208
:100E10009091710A80916F0A981708F054C214C01B
:100E2000C093720A8091700A8C1710F48093720A32
:100E30000E94A52C882309F446C29091720A8091E1
:100E40006F0A891708F03FC2892F0E94162B3BC2F8
:100E5000C0936508CB300CF436C28AE080936508F5
:100E600032C2C0936908CB300CF42DC28AE0809363
:100E7000690829C2D093760AC093750A8091730AD3
:100E80009091740AC817D90708F01DC29093760A8A
:100E90008093750A18C2D093740AC093730A809124
:100EA000750A9091760A8C179D0708F00CC29093F2
:100EB000740A8093730A07C280912408282F30E0B7
:100EC0002C173D0708F49E018091C206482F50E080
:100ED000C9014217530708F4CA010E94DE2CF3C16E
:100EE000C093780A4091C2065091790A842F90E00D
:100EF000851B91092C2F30E0821793071CF4451BAA
:100F00004093780A909124088091780A891708F014
:100F1000DAC19093780AD7C1C093790A4091C2068A
:100F2000242F30E02C1B31098091C10690E0281756
:100F300039070CF0C8C18091780A481B4093790AA0
:100F4000C2C1D093AB06C093AA0648EE50E0BE01E2
:100F50008CE290E00E94213BB6C12C2FC093C801C7
:100F6000E199FECF8EE290E07FC02C2FC093CE0798
:100F7000E199FECF8FE290E077C02C2FC093CF078E
:100F8000E199FECF80E390E06FC02C2FC093D00793
:100F9000E199FECF81E390E067C02C2FC093D10789
:100FA000E199FECF82E390E05FC02C2FC093D2077F
:100FB000E199FECF83E390E057C02C2FC093D30775
:100FC000E199FECF84E390E04FC02C2FC093D4076B
:100FD000E199FECF85E390E047C02C2FC093D50761
:100FE000E199FECF86E390E03FC02C2FC093D60757
:100FF000E199FECF87E390E037C02C2FC093D7074D
:10100000E199FECF88E390E02FC02C2FC093D80742
:10101000E199FECF89E390E027C02C2FC093D90738
:10102000E199FECF8AE390E01FC02C2FC093DA072E
:10103000E199FECF8BE390E017C02C2FC093DB0724
:10104000E199FECF8CE390E00FC02C2FC093DC071A
:10105000E199FECF8DE390E007C02C2FC093DD0710
:10106000E199FECF8EE390E09FBB8EBB2DBB0FB608
:10107000F894E29AE19A0FBE26C10E94021823C199
:101080002093A5089093A60881E08093C1088FEF74
:101090009FEF9093A8088093A708ECC0933009F0C5
:1010A00024C12093A5089093A60881E08093C108ED
:1010B0008091A7089091A808009709F070C089E076
:1010C00090E09093A8088093A7080E94A52C8823FD
:1010D00019F421E030E002C022E030E080912808DD
:1010E00090E0880F991F880F991F282B392B80912A
:1010F000810190E054E0880F991F5A95E1F7282B61
:10110000392B8091FF0790E046E0880F991F4A95A0
:10111000E1F7282B392B3093AA082093A908809156
:10112000B0099091B1099093AC088093AB080DEA97
:1011300018E080916F0A8093AD081092AE088091FC
:10114000770A8093AF08F80113820E945F2B20E09A
:1011500030E040E251E40E94363D0E944F3C7093E3
:10116000B2086093B10880E00E9490149093B40894
:101170008093B30881E00E9490149093B608809306
:10118000B50882E00E9490149093B8088093B70845
:101190008091CD078093B908F801158694C08130FD
:1011A000910509F05AC08CE090E09093A8088093D4
:1011B000A7088091630A9091640A9093AA0880938B
:1011C000A90880916A0A90916B0A9093AC08809369
:1011D000AB08EDEAF8E08091700A8093AD081092B8
:1011E000AE0880916E0A8093AF0813828091710AD5
:1011F0008093B10815828091720A8093B308178298
:1012000080916508992787FD90959093B608809303
:10121000B50880916908992787FD90959093B80843
:101220008093B7088091750A9091760A9093BA08D6
:101230008093B9088091730A9091740A9093BC08C6
:101240008093BB088091780A8093BD08118A8091B1
:10125000790A8093BF08138A36C08031910579F4EA
:1012600081E090E09093A8088093A7088091AA0657
:101270009091AB069093AA088093A90824C081316D
:10128000910569F481E090E09093A8088093A70805
:101290008091C8018093A9081092AA0814C0809771
:1012A00091F480E190E09093A8088093A708AEECB9
:1012B000B7E0E9EAF8E08D9180831182329627E069
:1012C000AE3DB207C1F74BE350E06AE278E085EA51
:1012D00098E00E94290F2CE231E040E050E060E00D
:1012E00070E08AE298E00E94950DDF91CF911F9106
:1012F0000F9108958F929F92AF92BF92CF92DF92FB
:10130000EF92FF920F931F93CF93DF930E94F210FF
:101310000E9480100E94EF2A0E94AD2C0E94EA11C8
:101320000E94D40A0E94872C0E94E91281E00E9448
:101330002414809164008860809364000E94D21518
:101340000E949B160E947A1940919F085091A00814
:101350006091A1087091A20882E00E94DB0B0E94BC
:10136000C00B8091780A0E94DE2C80E00E94CE03A0
:1013700078948091CC070E94F80084EF91E00E945D
:10138000821088E893E120E731E0F9013197F1F725
:101390000197D9F788EC90E00E94821080ED97E0E9
:1013A00020E731E0F9013197F1F70197D9F788EC9F
:1013B00090E00E948210AFE68A2EA1E09A2EFEEE07
:1013C000AF2EF8E0BF2EE0E7CE2EE1E0DE2E0E9449
:1013D0006B160E94E2018091DE07882391F06FE492
:1013E00071E08EEE98E00E94F93A88EC90E00E945D
:1013F000821080ED97E0F6013197F1F70197D9F768
:1014000067C08091DF07882391F060E171E08EEE84
:1014100098E00E94F93A88EC90E00E94821080EDFA
:1014200097E0F6013197F1F70197D9F751C00D997F
:1014300007C08091CC07813019F460E171E008C0E9
:101440000F990BC08091CC07813039F465E271E0CF
:101450008EEE98E00E94F93A3BC06091750A709157
:10146000760A80E090E00E94803C7B018C010E9423
:101470005F2B9B01AC01C801B7010E94E33B8823AD
:101480001CF46AE371E0E4CF8091650083FF03C040
:10149000C5E6D1E002C0CAE6D1E00E94A52C8823AF
:1014A00019F485E691E002C08AE691E0DF93CF93DC
:1014B0009F938F939F928F92BF92AF920E94623BB5
:1014C0008DB79EB708960FB6F8949EBF0FBE8DBF1E
:1014D0000E94A00B0E946A2B0E94E50478CF883AF4
:1014E00011F482EA0895883B11F485EB0895803C5D
:1014F00028F0E82FF0E0EE53FF4F80810895F89434
:101500009798E5E6F0E090819E7F908385BB80818F
:101510008260808384E08A95F1F780818D7F80836B
:10152000789485EF8A95F1F70895F894979AE5E60F
:10153000F0E090819E7F908385BB80818260808374
:1015400084E08A95F1F780818D7F8083789485EFA0
:101550008A95F1F70895E82F883A11F4E2EA0AC073
:10156000883B11F4E5EB06C0803C20F0F0E0EE5340
:10157000FF4FE081F894979A809165008E7F809369
:101580006500E5BB8091650082608093650084E022
:101590008A95F1F7809165008D7F8093650078943E
:1015A00085EF8A95F1F708958F9A809164008160A4
:1015B00080936400809164008260809364008FEF68
:1015C00084BB88EE93E020E731E0F9013197F1F731
:1015D0000197D9F7F8949798809165008E7F809352
:1015E000650088E385BB809165008260809365001B
:1015F00084E08A95F1F7809165008D7F8093650086
:10160000789485EF8A95F1F7F89497988091650022
:101610008E7F809365008CE085BB80916500826041
:101620008093650084E08A95F1F7809165008D7F55
:1016300080936500789485EF8A95F1F7F8949798F0
:10164000809165008E7F8093650086E085BB8091E8
:10165000650082608093650084E08A95F1F780914F
:1016600065008D7F80936500789485EF8A95F1F70A
:10167000F8949798809165008E7F8093650081E053
:1016800085BB8091650082608093650084E08A95C7
:10169000F1F7809165008D7F80936500789485EFE8
:1016A0008A95F1F78CEC9CE10197F1F70895F89495
:1016B0009798E5E6F0E080818E7F808381E085BBAE
:1016C00080818260808384E08A95F1F780818D7FBC
:1016D0008083789485EF8A95F1F78CEC9CE10197F3
:1016E000F1F70895CF93DF93EB018295880F880F70
:1016F000807C8058F8949798909165009E7F909395
:10170000650085BB8091650082608093650084E000
:101710008A95F1F7809165008D7F809365007894BC
:1017200085EF8A95F1F76115710521F406C02196C0
:101730000E94AB0A88818823D1F7DF91CF91089569
:101740006EEE78E080E00E94720B66EC78E081E05B
:101750000E94720B0895CF93DF93EC01009721F460
:1017600006C021960E94AB0A88818823D1F7DF91B9
:10177000CF91089580915709089580915609089551
:101780008CE080939D0010925609089586E0809326
:101790009D0081E080935609089586E080939D0026
:1017A00082E080935609089586E080939D0083E04F
:1017B0008093560908951F93182F9A01AB0160E09A
:1017C00070E18EE090E00E94DF3D215030401093A8
:1017D000570910929B0088E180939A008CE08093D7
:1017E0009D00309398002093990080939D00109263
:1017F00056091123A9F08C9A113051F480919A0066
:101800008F7E80939A00949A80919A008F770BC074
:10181000123059F480919A00806180939A009498D4
:1018200080919A00806880939A001F91089580911A
:101830005709882379F0949A80919A008F7E80933B
:101840009A0080E098E40197F1F780919A008F77F1
:1018500080939A000895809157098823B9F0809168
:101860009B0086FFFCCF8CEC9CE10197F1F7809107
:101870009A00806180939A00949880E098E40197A0
:10188000F1F780919A00806880939A000895982FCC
:1018900080919B0085FFFCCF90939C0080E090E0BE
:1018A000089580919B0087FFFCCF80919C0090E081
:1018B000089520919B0030E020783070C901089590
:1018C000982F8A3341F48093160981E08093F407BE
:1018D0001092F3070EC08091F407882351F0809195
:1018E000F407E82FF0E0EA5EF64F90838F5F809375
:1018F000F407809116098A33B1F4E091F407F0E01F
:10190000EC5EF64F80818D3071F4E091F407F0E0E9
:10191000EB5EF64F80818A3031F481E08093F307EB
:101920001092F40708958091F407803421F4109206
:10193000F4071092F3070895982F833241F48093AF
:10194000160981E08093F4071092F3070EC080918E
:10195000F407882351F08091F407E82FF0E0EA5E65
:10196000F64F90838F5F8093F4078091160983323E
:1019700071F4E091F407F0E0EB5EF64F80818D307A
:1019800031F481E08093F3071092F4070895809179
:10199000F407803421F41092F4071092F3070895AD
:1019A000982F8E3789F48091F407882369F4109278
:1019B000F3078091F407E82FF0E0EA5EF64F90839A
:1019C0008F5F8093F40714C08091F407882381F01F
:1019D0008091F407843060F48091F407E82FF0E000
:1019E000EA5EF64F90838F5F8093F4071092F307BF
:1019F000809116098E3751F48091F407843031F4C8
:101A00001092F40781E08093F30708958091F40722
:101A1000803469F426E139E040E450E060E070E0B1
:101A2000C9010E94F23A1092F4071092F307089548
:101A3000982F8E3371F08A3061F08091F407E82F8F
:101A4000F0E0EA5EF64F90838F5F8093F407109288
:101A5000F307E091F407F0E026E139E0EB5EF64FA2
:101A600080818D30A1F481E08093F3078091F407A9
:101A7000803450F48091F407E82FF0E0E20FF31F78
:101A800010828F5F8093F4071092F407089580917D
:101A9000F407803459F440E450E060E070E0C9019C
:101AA0000E94F23A1092F4071092F30708951F92E1
:101AB0000F920FB60F920BB60F9211242F933F93F4
:101AC0004F935F936F937F938F939F93AF93BF9346
:101AD000EF93FF9380919C0090915609913051F0C3
:101AE000913028F0923049F0933061F409C00E949F
:101AF000600C08C00E949C0C05C00E94180D02C01A
:101B00000E94D00CFF91EF91BF91AF919F918F9167
:101B10007F916F915F914F913F912F910F900BBEED
:101B20000F900FBE0F901F901895EF92FF920F939A
:101B30001F93CF93DF93DC01EB01F42EE52E890197
:101B400090915709923079F4949A80919A008F7EFF
:101B500080939A00E0E0F8E43197F1F780919A00E1
:101B60008F7780939A00809156098823A9F420E00A
:101B700007C080919B0085FFFCCFE0939C002F5F06
:101B8000FD01E20FF11DE081EA3099F780919B00A1
:101B900085FFFCCF8AE016C08130B9F420E007C091
:101BA00080919B0085FFFCCFE0939C002F5FFD019F
:101BB000E20FF11DE081ED3099F780919B0085FFE8
:101BC000FCCF8DE080939C0013C0833089F420E02B
:101BD00030E0FD01E20FF31FE08180919B0085FF63
:101BE000FCCFE0939C002F5F3F4F2430310589F7F5
:101BF000209731F4923011F40E942B0C10E047C072
:101C00000E942B0CC8010E941C11082F24C0809137
:101C10009A008F7780939A008091F3078823B1F020
:101C20001092F3078F2D9E2D9C012134310510F069
:101C300020E430E086E199E0A901BC01CE010E94D8
:101C4000E93A802F0E94591110E00BC080919A0050
:101C5000806880939A00802F0E940911892BB9F621
:101C600017E0802F0E94591180915709813079F433
:101C7000949A80919A008F7E80939A0080E098E4F5
:101C80000197F1F780919A008F7780939A00812FC6
:101C9000DF91CF911F910F91FF90EF900895FB017D
:101CA0008F708A3010F4805D01C0895C808380E091
:101CB0000895FB01982F92959F709A3010F4905DD3
:101CC00001C0995C90838F708A3010F4805D01C0F0
:101CD000895C818380E00895FF920F931F93F82E13
:101CE0008B01892F0E94590E0E5F1F4FB8018F2D57
:101CF0000E94590E80E01F910F91FF900895982F38
:101D0000FB018154863020F49753908380E008953E
:101D1000892F80538A3010F082E00895808380E01C
:101D20000895FC01DB019081892F8154863018F4DD
:101D3000292F275306C0292F20532A3010F082E084
:101D40000895322F3295307F3C939181892F8154B1
:101D5000863010F4975306C090539A3018F0922FA3
:101D600082E001C080E0390F3C930895CF92DF926A
:101D7000EF92FF920F931F93DF93CF930F92CDB704
:101D8000DEB77C018B016E010894C11CD11CB60129
:101D90000E94910E382F882391F48981F8011082D6
:101DA0008183B601C70102960E94910E382F2981C6
:101DB000F80180819181820F911D91838083832F0F
:101DC0000F90CF91DF911F910F91FF90EF90DF90D7
:101DD000CF9008956F927F928F929F92AF92BF9211
:101DE000CF92DF92FF920F931F93DF93CF930F92C7
:101DF000CDB7DEB74C016B015A01FF2400E010E0C3
:101E00003E010894611C711C0CC0B301C401800F19
:101E1000911F0E94910E882369F40E5F1F4F8981E4
:101E2000F80E0C151D0588F3B5018F2D81950E94C4
:101E3000590E80E00F90CF91DF911F910F91FF908D
:101E4000DF90CF90BF90AF909F908F907F906F90DA
:101E50000895CF92DF92FF920F931F93CF93DF935A
:101E60008C016B01DC015C968C915C97813039F4BC
:101E700011968C91833019F48BE390E002C081E1DC
:101E800090E04817590710F494E065C0F6018AE322
:101E90008193BF01F80180810E94590EB6016D5FE8
:101EA0007F4FD80111968C910E94590EE60125961C
:101EB000F801848D813059F48181833041F482812D
:101EC000BE01880F0E94590EE601279609C0BE0187
:101ED000D80112968D919C9113970E946C0E2496B6
:101EE000BE01F801848195810E946C0E2496D80170
:101EF0005C968C915C978130E9F411968C918330DB
:101F0000C9F4FF24F3940CC03296EE0FFF1FE00FCC
:101F1000F11FBE01808191810E946C0E2496F39482
:101F2000EF2DF0E0D80112968D919C911397E81750
:101F3000F90750F3B601609570956C0F7D1FAE01E7
:101F4000C60101960E94EA0E982F882321F48DE0A5
:101F50008A838AE08B83892FDF91CF911F910F9124
:101F6000FF90DF90CF900895AF92BF92CF92DF9213
:101F7000EF92FF920F931F93DF93CF9300D00F92B6
:101F8000CDB7DEB76C018B018DE1FB0111928A9513
:101F9000E9F7F60160E070E080818D30B9F481816D
:101FA0008A30A1F442E0A42EB12CA60EB71E760111
:101FB0000894E11CF11C63507040AE014E5F5F4F0E
:101FC000C7010E94EA0E882349F08CC06F5F7F4FE3
:101FD00031966B33710501F785E084C0F601EA0D97
:101FE000FB1D34979A8180813496981709F077C049
:101FF00033979B818081981709F071C0B801C701A0
:102000000E94910E882309F06DC033E0E32EF12C7D
:10201000EC0CFD1CB8016F5F7F4FC7010E94910E51
:10202000882309F05FC0F8018181833009F044C042
:10203000F1E1AF16B10409F43FC081E0F801848FEB
:1020400025E0E22EF12CEC0CFD1CBE016F5F7F4FF2
:10205000C7010E94910ED82E882309F042C08981C1
:1020600086958C3018F08CE090E001C090E0F8018B
:102070009383828382E090E0E80EF91E198212C0F9
:102080006E5F7F4F660F771F600F711FC7010E9441
:10209000B60E882339F589818F5F8983E4E0F0E00B
:1020A000EE0EFF1E8981682F70E0F8018281938116
:1020B0006817790728F315C0F801148EB8016E5F10
:1020C0007F4FC70102960E94B60E882359F40C5F19
:1020D0001F4FB801C70106960E94B60E03C083E0E9
:1020E00001C08D2D0F900F900F90CF91DF911F9118
:1020F0000F91FF90EF90DF90CF90BF90AF90089539
:10210000899A0895AF92BF92CF92DF92EF92FF9299
:102110000F931F93919AA0E0B0E0BC01CD010E9403
:10212000803C5B016C0126E636E646E655E40E94FB
:10213000363D7B018C0120E030E040E85FE30E9407
:10214000E33B88231CF461E070E024C020E03FEF13
:102150004FE757E4C801B7010E94323D1816B4F4A6
:1021600020E030E040E251E4C601B5010E94363D76
:102170000E94543C80E791E005C0FC013197F1F7E3
:102180006150704061157105C1F707C0C801B70102
:102190000E94543CCB010197F1F791981F910F9148
:1021A000FF90EF90DF90CF90BF90AF9008959C018B
:1021B000919A80915A0990915B098217930738F0A0
:1021C00080915A0990915B098F5F9F4F51F48FEF77
:1021D0002F3F380711F42EEF3FEF30935B09209328
:1021E0005A09089580E090E02FEF3FEFFC01EE0FD9
:1021F000FF1FE85AF64F3183208301968032910504
:10220000A9F787B7826087BF83E781BF8DE083BF6F
:1022100008959FB7F894803218F0E0E0F0E009C02C
:10222000E82FF0E0EE0FFF1FE85AF64F0190F08123
:10223000E02D9FBFCF0108959C015FB7F894A2E005
:10224000B0E04A2FFD01EE0FFF1FE85AF64F8081E4
:1022500091818F5F9F4F71F48FEF2F3F380711F4FB
:102260002EEF3FEFAA0FBB1FA85AB64F11963C9313
:102270002E9305C04F5F1196A032B10511F75FBFD5
:10228000842F08952FB7F8943FEF8F3F930711F4F1
:102290008EEF9FEF90935909809358092FBF2FB766
:1022A000F89480915809909159092FBF892BB9F75B
:1022B0000895E82F2FB7F89482508E3148F4F0E05B
:1022C000EE0FFF1FE85AF64F8FEF9FEF9183808349
:1022D0002FBF08951F920F920FB60F920BB60F9259
:1022E00011242F933F934F935F936F937F938F931B
:1022F0009F93AF93BF93EF93FF9320E030E0F901FA
:10230000EE0FFF1FE85AF64F80819181892B51F023
:10231000808191818F5F9F4F29F08081918101970A
:10232000918380832F5F3F4F2032310541F78091A9
:102330005A0990915B09019709F491980E94E2046F
:102340008091C2019091C30101979093C301809342
:10235000C2010196C9F48091F5079091F607A0910A
:10236000F707B091F8070196A11DB11D8093F507FD
:102370009093F607A093F707B093F8078AEE93E0DF
:102380009093C3018093C2018091F9079091FA075D
:10239000A091FB07B091FC070196A11DB11D809390
:1023A000F9079093FA07A093FB07B093FC07FF91FE
:1023B000EF91BF91AF919F918F917F916F915F91BD
:1023C0004F913F912F910F900BBE0F900FBE0F902A
:1023D0001F9018951092A8098FEF8093AB098093F6
:1023E000A909E8E9F9E01192119289E0E83AF807C1
:1023F000D1F78FEF84BB889808951092A8090895AB
:102400002091AB09E82FF0E030E0082E02C03595AE
:1024100027950A94E2F720FF1FC08091A90990E058
:102420000E2E02C0959587950A94E2F780FD14C0A0
:102430002091A80981E090E00E2E02C0880F991F1C
:102440000A94E2F7282B2093A809EE0FFF1FE85605
:10245000F64F1182108208958091AB0990E00E2E04
:1024600002C0959587950A94E2F780FD10C080918F
:10247000A90990E00E2E02C0959587950A94E2F77F
:1024800080FF05C082E390E00E94D71008958091FC
:10249000AB0990E00E2E02C0959587950A94E2F75D
:1024A00080FD37C08091A90990E00E2E02C095955D
:1024B00087950A94E2F780FD2CC0DF01AA0FBB1FAD
:1024C000A856B64F2D913C9111972F5F3F4F119613
:1024D0003C932E934091C4015091C5018091C60157
:1024E0009091C701840F951F8217930790F4209154
:1024F000A80981E090E002C0880F991FEA95E2F7F1
:10250000282B2093A8094D935C9384E190E00E94CE
:10251000D7100895FF920F931F93CF93DF9380916D
:10252000AB098093A909C0E0D0E001E010E028E108
:10253000F22E4C2F98010C2E02C0220F331F0A944A
:10254000E2F7822F809585BB8F2D8A95F1F790E079
:1025500080E080999F5F8F5F8A30D9F7983020F0B4
:102560008091AB09822B07C0933038F49091AB096E
:10257000822F809589238093AB09842F0E940012BB
:102580002196C830D105A9F6DF91CF911F910F9107
:10259000FF9008958091AA0981508093AA098F5FC6
:1025A00029F48AE08093AA090E948A120895C39AA6
:1025B000C29820E097FF02C0C49A01C0C498C39893
:1025C000C39A2F5F203119F0880F991FF3CFC29A59
:1025D0000895BA9ABB9ABC9A80E090E10E94D71203
:1025E00080E090EC0E94D71280E090EE0E94D7121B
:1025F00088E690E20E94D7120895EF92FF920F931F
:102600001F937B018C0188E690E20E94D7128FEF26
:102610009FEFAFEFBFE0E822F9220A231B23C70197
:102620009F7390640E94D7124EE016950795F79419
:10263000E7944A95D1F7AFEFBFE3EA22FB22C70147
:1026400090640E94D7121F910F91FF90EF90089510
:102650008F929F92AF92BF92CF92DF92EF92FF92B2
:102660000F931F93683622E4720720E0820720E070
:10267000920728F468E672E480E090E00CC06133D1
:1026800025E7720720E0820720E0920720F060E350
:1026900075E780E090E06093B0097093B109809392
:1026A000B2099093B30928EC30E040E050E00E947A
:1026B000993D4B015C010CE19B01A50160E070E0DC
:1026C00080E090E00E941233AA24BB24E1EECE2EDB
:1026D000DD24EE24FF2400E010E00E949133122F4D
:1026E000032FF42EE52E622F702F8F2D9E2D0E942A
:1026F000FD121093AC090093AD09F092AE09E0927F
:10270000AF091F910F91FF90EF90DF90CF90BF9096
:10271000AF909F908F9008951F920F920FB60F92D7
:102720000BB60F921124DF92EF92FF920F931F933B
:102730002F933F934F935F936F937F938F939F93C9
:10274000AF93BF93CF93DF93EF93FF9354B145B112
:10275000D090E809ED2DF0E0E753FE4F208130E006
:10276000942F80E0850F911DE90144E0CC0FDD1F1F
:102770004A95E1F7C20FD31FCC54D64F9F838E8367
:102780002E853F85821B930B088802C095958795FF
:102790000A94E2F77C010027F7FC0095102F88854A
:1027A0009985AA85BB85E80EF91E0A1F1B1FE886BE
:1027B000F9860A871B878A819B8101969B838A837E
:1027C0002C813D818217930770F01B821A8240E0B2
:1027D00050E0C801B7010E94013E3D872C87188652
:1027E00019861A861B86ED2DEF5FE093E809F0E06D
:1027F000E753FE4F80818F3F11F41092E809E0917A
:10280000E809F0E0E753FE4F80819091E709890FD6
:1028100087B9369AFF91EF91DF91CF91BF91AF9138
:102820009F918F917F916F915F914F913F912F91E8
:102830001F910F91FF90EF90DF900F900BBE0F90C4
:102840000FBE0F901F901895282F8093FD07E4EB83
:10285000F9E035E080E092E0108231831382128249
:1028600095838483178216821086118612861386BA
:102870001586148617861686108A719649E0E73EFB
:10288000F40751F78FEF91E09093C3098093C20949
:102890009093D4098093D30987E086B9379A80E46E
:1028A0008093E709213049F41092E8098091C90129
:1028B000805C87B9339A369A08951092E80980911E
:1028C000C901805C87B933980895982F833008F048
:1028D00090E08091E709890F87B9369A3699FECF43
:1028E00054B145B1892F90E0342F20E0250F311DE0
:1028F000FC0154E0EE0FFF1F5A95E1F7E80FF91FB6
:10290000EC54F64F3783268386859785281B390B31
:10291000008802C0359527950A94E2F7C901089509
:1029200090E0FC0164E0EE0FFF1F6A95E1F7E80F0D
:10293000F91FEC54F64F84859585089590E0FC01CD
:1029400074E0EE0FFF1F7A95E1F7E80FF91FEC54E2
:10295000F64F2681378186859785281B390B00889D
:1029600002C0359527950A94E2F7C901089590E0D1
:10297000FC01A4E0EE0FFF1FAA95E1F7E80FF91F95
:10298000EC54F64F848195810895833008F080E0FF
:102990006115710511F461E070E090E0FC01B4E0B4
:1029A000EE0FFF1FBA95E1F7E80FF91FEC54F64F51
:1029B00075836483089590E0FC0124E0EE0FFF1F0F
:1029C0002A95E1F7E80FF91FEC54F64F818108953D
:1029D000833008F080E090E0FC0134E0EE0FFF1F50
:1029E0003A95E1F7E80FF91FEC54F64F618308952B
:1029F0009091FD07282F30E0913091F4F90154E0D7
:102A0000EE0FFF1F5A95E1F7E20FF31FEC54F64F5C
:102A1000848195816AE070E00E94B83DAB0115C0E9
:102A2000F90144E0EE0FFF1F4A95E1F7E20FF31FB3
:102A3000EC54F64F818190E024813581829FA00182
:102A4000839F500D929F500D1124CA01089520912B
:102A5000C80130E0829FB001839F700D929F700D7E
:102A60001124882777FD8095982F0E94823C20E0D2
:102A700030E04AE754E40E94E73B08958F929F922A
:102A8000AF92BF92CF92DF92EF92FF920F931F937C
:102A9000CF93DF93E091E809F0E0E753FE4FD08059
:102AA0008091FD07813009F470C08D2C9924F401C8
:102AB000A4E0EE0FFF1FAA95E1F7E80DF91DEC5415
:102AC000F64F8081882329F00E940911892B09F093
:102AD0004FC0E40174E0CC0FDD1F7A95E1F7C80D1B
:102AE000D91DCC54D64FE884F9840A851B858D2DD9
:102AF0000E9465145C01CC24B7FCC094DC2CAE0CA5
:102B0000BF1CC01ED11EA886B986CA86DB868A81F4
:102B10009B8101969B838A834C815D819A01215020
:102B200030402817390778F41B821A829A0140E056
:102B300050E0C601B5010E94013E3D872C871886F2
:102B400019861A861B86840164E0000F111F6A959E
:102B5000E1F7080D191D0C54164FF80180810E94F1
:102B60005911F801818190E00E941C11F8018083C5
:102B7000E091E809EF5FE093E809F0E0E753FE4FEA
:102B800080818F3F11F41092E809DF91CF911F915E
:102B90000F91FF90EF90DF90CF90BF90AF909F90FC
:102BA0008F90089520E030E04CE350E0F901EF59B8
:102BB000F54F1082249FF001259FF00D349FF00DFA
:102BC0001124E751F64F80E090E0119211920196A6
:102BD0008E319105D1F72F5F3F4F2230310531F70C
:102BE00008958091FE078F5F8093FE07823011F475
:102BF0001092FE0708958091FE07882319F482E061
:102C00008093FE078091FE0781508093FE07089510
:102C10008091FE07282F30E0F901EF59F54F8081B0
:102C20008F5F80838E3109F41082D901AF59B54F7F
:102C30008C91F90145E0EE0FFF1F4A95E1F7220F55
:102C4000331FE21BF30BE80FF11DEE0FFF1FE751DF
:102C5000F64F80819181892B09F41C92089580910F
:102C6000FE07A82FB0E0FD01EF59F54F80818823C2
:102C700011F48EE18083FD01EF59F54F4081CD01C4
:102C8000880F991F9D0165E0220F331F6A95E1F7B8
:102C9000281B390B4150F901E40FF11DEE0FFF1F06
:102CA000E751F64F80819181892B31F4442391F7CC
:102CB000AF59B54F1C920895AF59B54F4C93089535
:102CC0008091FE0708958091FE07E1E6FAE0E80FA3
:102CD000F11D808108958091FE0790E0FC01EF597D
:102CE000F54F2081FC0135E0EE0FFF1F3A95E1F72B
:102CF000880F991FE81BF90BE20FF11DEE0FFF1F64
:102D0000E751F64F0190F081E02D099508959C015F
:102D1000E199FECF3FBB2EBBE09A8DB308959C0195
:102D2000E199FECF3FBB2EBB6DBB0FB6F894E29A84
:102D3000E19A0FBE089583E293E29093EA098093AB
:102D4000E90989ED97E29093EC098093EB0989E317
:102D500098E29093EE098093ED098CE599E29093C7
:102D6000F0098093EF0981E499E29093F20980934E
:102D7000F10986E69BE19093F4098093F30985E9D4
:102D800095E29093F6098093F5098BE795E290938D
:102D9000F8098093F70981E695E29093FA09809308
:102DA000F9098DE49BE19093FC098093FB0984E38E
:102DB0009BE19093FE098093FD098BE08093690A63
:102DC00088E094E29093000A8093FF098FE090E2FC
:102DD0009093260A8093250A87EA90E29093280A26
:102DE0008093270A83E89DE190932A0A8093290A19
:102DF00083E39DE190932C0A80932B0A8AE797E264
:102E000090932E0A80932D0A84E297E29093300AE1
:102E100080932F0A8EE196E29093320A8093310AD2
:102E200080ED95E29093340A8093330A87EC96E222
:102E30009093360A8093350A84E796E29093380A95
:102E40008093370A81EB9CE190933A0A8093390A88
:102E500084EC9FE190933C0A80933B0A8EE19FE1D2
:102E600090933E0A80933D0A85E69FE19093400A45
:102E700080933F0A87E99EE19093420A8093410A3A
:102E80008BE59EE19093440A8093430A8FEC9BE18B
:102E90009093460A8093450A85E89BE19093480AFF
:102EA0008093470A83ED9EE190934A0A8093490AF2
:102EB0008AE79CE190934C0A80934B0A88E19CE15D
:102EC00090934E0A80934D0A83E19DE19093500ABE
:102ED00080934F0A81EF9CE19093520A8093510AAC
:102EE00087EE92E29093540A8093530A8EE692E220
:102EF0009093560A8093550A85EF91E29093580A71
:102F00008093570A089588E993E5A0E0B0E08093A4
:102F1000630A9093640AA093650AB093660A82E0FC
:102F200093E5A0E0B0E080936A0A90936B0AA093C7
:102F30006C0AB0936D0A66E673E580E090E00E944B
:102F4000281384E68093700A10926E0A88EC90E051
:102F50009093680A8093670A21E020936808109292
:102F60006A081092CC072093650885E08093690871
:102F70008FEF8093710A8AE08093720A80E092EC6E
:102F8000A1E0B0E080939F089093A008A093A108CF
:102F9000B093A208209329088BE490E09093740AE0
:102FA0008093730A80E590E09093760A8093750A87
:102FB00061E080E00E94E81468EC70E080E00E942C
:102FC000C51461E081E00E94E81468EC70E081E0E3
:102FD0000E94C51461E082E00E94E81468EC70E091
:102FE00082E00E94C51483E00E9418018FE580935F
:102FF000780A1092790A83E68093C20685E480936A
:10300000240808956091630A7091640A4FE856E1BC
:1030100080E090E00E94213B60916A0A70916B0A07
:103020004FE856E182E090E00E94213B6091B009B8
:103030007091B1094FE856E184E090E00E94213B95
:103040002091700AE199FECF88E090E09FBB8EBB93
:103050002DBB0FB6F894E29AE19A0FBE20916E0A4A
:10306000E199FECF86E090E09FBB8EBB2DBB0FB6F3
:10307000F894E29AE19A0FBE80E00E94DB14282FB8
:10308000E199FECF89E090E09FBB8EBB2DBB0FB6D0
:10309000F894E29AE19A0FBE80E00E94B7144FE8DC
:1030A00056E1BC018AE090E00E94213B81E00E9451
:1030B000DB14282FE199FECF8CE090E09FBB8EBB04
:1030C0002DBB0FB6F894E29AE19A0FBE81E00E9400
:1030D000B7144FE856E1BC018DE090E00E94213B1F
:1030E00082E00E94DB14282FE199FECF8FE090E070
:1030F0009FBB8EBB2DBB0FB6F894E29AE19A0FBE30
:1031000082E00E94B7144FE856E1BC0180E190E0F4
:103110000E94213B20912808E199FECF85E190E0B3
:103120009FBB8EBB2DBB0FB6F894E29AE19A0FBEFF
:103130006091670A7091680A4FE856E186E190E075
:103140000E94213B20916808E199FECF88E190E040
:103150009FBB8EBB2DBB0FB6F894E29AE19A0FBECF
:1031600020916508E199FECF89E190E09FBB8EBB7D
:103170002DBB0FB6F894E29AE19A0FBE2091690830
:10318000E199FECF8AE190E09FBB8EBB2DBB0FB6CD
:10319000F894E29AE19A0FBE2091710AE199FECF6C
:1031A0008BE190E09FBB8EBB2DBB0FB6F894E29AEB
:1031B000E19A0FBE2091720AE199FECF8CE190E076
:1031C0009FBB8EBB2DBB0FB6F894E29AE19A0FBE5F
:1031D00060919F087091A0084FE856E18DE190E062
:1031E0000E94213B60919F087091A0088091A108E6
:1031F0009091A208BC01882799274FE856E18FE1FA
:1032000090E00E94213B20912908E199FECF81E2C4
:1032100090E09FBB8EBB2DBB0FB6F894E29AE19A6B
:103220000FBE6091730A7091740A4FE856E182E212
:1032300090E00E94213B6091750A7091760A4FE8F8
:1032400056E184E290E00E94213B2091780AE199C6
:10325000FECF87E290E09FBB8EBB2DBB0FB6F894EC
:10326000E29AE19A0FBE2091790AE199FECF86E2B7
:1032700090E09FBB8EBB2DBB0FB6F894E29AE19A0B
:103280000FBE2091C206E199FECF88E290E09FBB7D
:103290008EBB2DBB0FB6F894E29AE19A0FBE209137
:1032A0002408E199FECF89E290E09FBB8EBB2DBB45
:1032B0000FB6F894E29AE19A0FBE20916A08E1995C
:1032C000FECF8AE290E09FBB8EBB2DBB0FB6F89479
:1032D000E29AE19A0FBE2091CC07E199FECF8BE2F2
:1032E00090E09FBB8EBB2DBB0FB6F894E29AE19A9B
:1032F0000FBE0895EF92FF920F931F9367E876E158
:1033000080E090E00E940B3BA0E0B0E08093630A75
:103310009093640AA093650AB093660A67E876E121
:1033200082E090E00E940B3BA0E0B0E080936A0A4C
:1033300090936B0AA0936C0AB0936D0A67E876E1EC
:1033400084E090E00E940B3BA0E0B0E0BC01CD0126
:103350000E942813E199FECF88E090E09FBB8EBBCE
:10336000E09A8DB38093700AE199FECF86E090E0F9
:103370009FBB8EBBE09A8DB380936E0AE199FECF1E
:1033800089E090E09FBB8EBBE09A6DB380E00E9425
:10339000E81467E876E18AE090E00E940B3BBC010C
:1033A00080E00E94C514E199FECF8CE090E09FBBC5
:1033B0008EBBE09A6DB381E00E94E81467E876E185
:1033C0008DE090E00E940B3BBC0181E00E94C5149F
:1033D000E199FECF8FE090E09FBB8EBBE09A6DB38A
:1033E00082E00E94E81467E876E180E190E00E94C4
:1033F0000B3BBC0182E00E94C514E199FECF85E140
:1034000090E09FBB8EBBE09A8DB30E94180167E8E5
:1034100076E186E190E00E940B3B9093680A8093EE
:10342000670AE199FECF88E190E09FBB8EBBE09AEE
:103430008DB380936808E199FECF89E190E09FBB4E
:103440008EBBE09A8DB380936508E199FECF8AE147
:1034500090E09FBB8EBBE09A8DB380936908E199A1
:10346000FECF8BE190E09FBB8EBBE09A8DB3809343
:10347000710AE199FECF8CE190E09FBB8EBBE09A90
:103480008DB38093720A67E876E18DE190E00E9447
:103490000B3B7C0100E010E0E0929F08F092A00856
:1034A0000093A1081093A20867E876E18FE190E00D
:1034B0000E940B3BA0E0B0E0DC01992788278E2911
:1034C0009F29A02BB12B80939F089093A008A093D5
:1034D000A108B093A208E199FECF81E290E09FBBE2
:1034E0008EBBE09A8DB38093290867E876E182E28B
:1034F00090E00E940B3B9093740A8093730A67E8F4
:1035000076E184E290E00E940B3B9093760A8093F0
:10351000750AE199FECF87E290E09FBB8EBBE09AEF
:103520008DB38093780AE199FECF86E290E09FBB4D
:103530008EBBE09A8DB38093790AE199FECF88E241
:1035400090E09FBB8EBBE09A8DB38093C206E19959
:10355000FECF89E290E09FBB8EBBE09A8DB3809353
:103560002408E199FECF8AE290E09FBB8EBBE09AEF
:103570008DB380936A08E199FECF8BE290E09FBB08
:103580008EBBE09A8DB30E94F80067E876E18CE28A
:1035900090E00E940B3B9093AB068093AA06E199C2
:1035A000FECF8EE290E09FBB8EBBE09A8DB38093FE
:1035B000C8012FE230E0E199FECF3FBB2EBBE09A7D
:1035C0008DB3F901E156F84F80832F5F3F4F2F33C2
:1035D000310589F71092DD071F910F91FF90EF9051
:1035E00008958091A80986FF07C00E942F16809138
:1035F000A8098F7B8093A8098091A80983FF07C041
:103600000E9408168091A809877F8093A80980915D
:10361000A80987FF07C00E94F1158091A8098F773C
:103620008093A8098091A80980FF07C00E945904CF
:103630008091A8098E7F8093A8098091A80981FFB5
:1036400012C00E94A52C882311F080E005C01092C2
:10365000DE071092DF0785E00E94CE038091A80963
:103660008D7F8093A80908958EEC97E09F938F93A8
:103670008DEC91E09F938F9386EC98E09F938F93CE
:103680000E94623B0E94F11A8DB79EB706960FB654
:10369000F8949EBF0FBE8DBF089587ED91E09F9374
:1036A0008F9380EE91E09F938F9386EC98E09F93A9
:1036B0008F930E94623B0E94F11A8DB79EB70696C7
:1036C0000FB6F8949EBF0FBE8DBF08958091CD07B1
:1036D0002FE0829FC0011124825A994F9F938F93AC
:1036E00081EF91E09F938F9386EC98E09F938F9367
:1036F0000E94623B0E94F11A8DB79EB706960FB6E4
:10370000F8949EBF0FBE8DBF08958091A80982FFD7
:1037100016C02091750A3091760A8091730A9091B3
:10372000740A8217930730F4215030403093760AA0
:103730002093750A8091A8098B7F8093A8098091B6
:10374000A80984FF11C08091750A9091760A8F357F
:10375000910528F401969093760A8093750A8091DA
:10376000A8098F7E8093A8098091750A9091760AA6
:103770009F938F938CEF91E09F938F9386EC98E0CB
:103780009F938F930E94623B0E94F11A8DB79EB760
:1037900006960FB6F8949EBF0FBE8DBF0895809118
:1037A000A80982FF10C08091730A9091740A009753
:1037B00029F001979093740A8093730A8091A80965
:1037C0008B7F8093A8098091A80984FF16C020915F
:1037D000730A3091740A8091750A9091760A2817BD
:1037E000390730F42F5F3F4F3093740A2093730AE8
:1037F0008091A8098F7E8093A8098091730A909187
:10380000740A9F938F9383E192E09F938F9386EC4A
:1038100098E09F938F930E94623B0E94F11A8DB7AC
:103820009EB706960FB6F8949EBF0FBE8DBF089543
:103830001F9320919F083091A0084091A1085091BA
:10384000A208E2E4F6E010E080819181A281B381D8
:10385000281739074A075B0721F01F5F3496173096
:1038600099F75F934F933F932F938BE292E09F934F
:103870008F9386EC98E09F938F930E94623B809198
:10388000A8092DB73EB7285F3F4F0FB6F8943EBF4B
:103890000FBE2DBF84FF09C01F5F173009F410E071
:1038A0008091A8098F7E8093A8098091A80982FF42
:1038B00009C0112309F417E011508091A8098B7FEA
:1038C0008093A809E12FF0E0EE0FFF1FEE0FFF1F1E
:1038D000EE5BF94F80819181A281B38180939F0833
:1038E0009093A008A093A108B093A2080E94F11A97
:1038F0001F9108958091290890E09F938F938CE306
:1039000092E09F938F9386EC98E09F938F930E9411
:10391000623B8091A8092DB73EB72A5F3F4F0FB693
:10392000F8943EBF0FBE2DBF84FF0AC080912908C6
:103930008F5F809329088091A8098F7E8093A809C2
:103940008091A80982FF0AC0809129088150809344
:1039500029088091A8098B7F8093A8090E94F11AF9
:1039600008958091670A9091680A9F938F9381E5EB
:1039700092E09F938F9386EC98E09F938F930E94A1
:10398000623B8091A8092DB73EB72A5F3F4F0FB623
:10399000F8943EBF0FBE2DBF84FF0EC08091670A12
:1039A0009091680A01969093680A8093670A8091C3
:1039B000A8098F7E8093A8098091A80982FF0EC074
:1039C0008091670A9091680A01979093680A8093A2
:1039D000670A8091A8098B7F8093A8090E94F11A39
:1039E00008958091A80985FF15C00E9483170E9441
:1039F000021867E672E086EC98E00E94F93A0E94AD
:103A0000A00B84EF91E00E9482108091A8098F7D25
:103A10008093A8096CE772E086EC98E00E94F93A7E
:103A20000E94F11A08958091A80985FF13C00E9491
:103A3000021861E972E086EC98E00E94F93A0E946F
:103A4000A00B84EF91E00E9482108091A8098F7DE5
:103A50008093A80966EA72E086EC98E00E94F93A41
:103A60000E94F11A08958091A80982FF0CC08091EC
:103A7000720A8B3018F081508093720A8091A809E5
:103A80008B7F8093A8098091A80984FF1FC0909123
:103A9000720A8091700A981738F48091710A981709
:103AA00018F49F5F9093720A0E94A52C882349F016
:103AB0009091720A80916F0A891718F4892F0E94D9
:103AC000162B8091A8098F7E8093A8098091720A95
:103AD0000E94312B9F938F937F936F938BEB92E098
:103AE0009F938F9386EC98E09F938F930E94623B05
:103AF0000E94F11A8DB79EB708960FB6F8949EBF34
:103B00000FBE8DBF08958091A80982FF27C0409104
:103B1000710A80916E0A2091700A30E0280F311DE1
:103B2000842F90E0281739073CF48091720A84179B
:103B300018F441504093710A0E94A52C882349F043
:103B40009091710A80916F0A981718F4892F0E943A
:103B5000162B8091A8098B7F8093A8098091A809D2
:103B600084FF0CC08091710A8F3F19F08F5F8093A2
:103B7000710A8091A8098F7E8093A8098091710AAB
:103B80000E94312B9F938F937F936F9382ED92E0EE
:103B90009F938F9386EC98E09F938F930E94623B54
:103BA0000E94F11A8DB79EB708960FB6F8949EBF83
:103BB0000FBE8DBF08958091A80982FF11C080912A
:103BC000AA069091AB06893C910528F00197909345
:103BD000AB068093AA068091A8098B7F8093A809E1
:103BE0008091A80984FF12C08091AA069091AB062B
:103BF00027E0803D920728F401969093AB068093CE
:103C0000AA068091A8098F7E8093A8098091AA06B0
:103C10009091AB069F938F938AEE92E09F938F9340
:103C200086EC98E09F938F930E94623B0E94F11A6A
:103C30008DB79EB706960FB6F8949EBF0FBE8DBF88
:103C400008958091A80982FF0CC08091C801853138
:103C500018F081508093C8018091A8098B7F8093D0
:103C6000A8098091A80984FF0CC08091C801883CF4
:103C700018F48F5F8093C8018091A8098F7E80938C
:103C8000A8098091C80190E09F938F938EEF92E0F6
:103C90009F938F9386EC98E09F938F930E94623B53
:103CA0000E94F11A8DB79EB706960FB6F8949EBF84
:103CB0000FBE8DBF08958091A80982FF0CC080912E
:103CC000690818161CF48150809369088091A8092E
:103CD0008B7F8093A8098091A80984FF0CC08091F4
:103CE00069088A301CF48F5F809369088091A80965
:103CF0008F7E8093A80980916908992787FD909508
:103D00009F938F938EE093E09F938F9386EC98E040
:103D10009F938F930E94623B0E94F11A8DB79EB7CA
:103D200006960FB6F8949EBF0FBE8DBF0895809182
:103D3000A80982FF0CC08091650818161CF48150F8
:103D4000809365088091A8098B7F8093A809809152
:103D5000A80984FF0CC0809165088A301CF48F5F2D
:103D6000809365088091A8098F7E8093A80980912F
:103D70006508992787FD90959F938F9381E293E043
:103D80009F938F9386EC98E09F938F930E94623B62
:103D90000E94F11A8DB79EB706960FB6F8949EBF93
:103DA0000FBE8DBF08958091A80982FF11C0809138
:103DB000CC07882319F482E08093CC078091CC074C
:103DC00081508093CC078091A8098B7F8093A809AC
:103DD0008091A80984FF0EC08091CC078F5F8093EB
:103DE000CC07823010F01092CC078091A8098F7E0A
:103DF0008093A8098091CC07813019F083E393E088
:103E000002C087E393E09F938F938AE393E09F93AD
:103E10008F9386EC98E09F938F930E94623B8091F2
:103E2000CC070E94F8000E94F11A8DB79EB7069643
:103E30000FB6F8949EBF0FBE8DBF08958091A8095C
:103E400082FF11C080916A08882319F482E0809370
:103E50006A0880916A08815080936A088091A80955
:103E60008B7F8093A8098091A80984FF0EC0809160
:103E70006A088F5F80936A08823010F010926A0897
:103E80008091A8098F7E8093A80980916A0881306B
:103E900019F083E393E002C087E393E09F938F934D
:103EA0008AE493E09F938F9386EC98E09F938F939F
:103EB0000E94623B0E94F11A8DB79EB706960FB61C
:103EC000F8949EBF0FBE8DBF08958091A80982FF10
:103ED0001CC080916808813019F484E080936808E0
:103EE00080916808815080936808813019F40E949D
:103EF000F40006C00E94A52C882311F00E94340112
:103F00008091A8098B7F8093A8098091A80984FFDC
:103F10001CC0809168088F5F80936808843018F017
:103F200081E08093680880916808813019F40E94CC
:103F3000F40006C00E94A52C882311F00E943401D1
:103F40008091A8098F7E8093A8098091680825E058
:103F5000829FC0011124825D994F9F938F938FE5BB
:103F600093E09F938F9386EC98E09F938F930E94AA
:103F7000623B0E94F11A8DB79EB706960FB6F89471
:103F80009EBF0FBE8DBF08958091A80982FF11C00A
:103F900080912808813019F484E08093280880916A
:103FA00028088150809328088091A8098B7F8093EE
:103FB000A8098091A80984FF0FC0809128088F5F0D
:103FC00080932808843018F081E08093280880913D
:103FD000A8098F7E8093A8098091280825E0829FF8
:103FE000C0011124865E994F9F938F938FE693E0D3
:103FF0009F938F9386EC98E09F938F930E94623BF0
:10400000809128080E9418010E94F11A8DB79EB76E
:1040100006960FB6F8949EBF0FBE8DBF089580918F
:10402000A80982FF46C08091630A9091640AA0911A
:10403000650AB091660A0197A109B1098093630AE4
:104040009093640AA093650AB093660A20916A0A65
:1040500030916B0A40916C0A50916D0A8217930758
:10406000A407B50740F42093630A3093640A409391
:10407000650A5093660A2091630A3091640A409160
:10408000650A5091660A8091B0099091B109A0919A
:10409000B209B091B309281739074A075B0720F422
:1040A000CA01B9010E9428138091A8098B7F8093CF
:1040B000A8098091A80984FF29C08091630A909182
:1040C000640AA091650AB091660A0196A11DB11D0E
:1040D0008093630A9093640AA093650AB093660A7A
:1040E00081539547A040B04060F080E395E7A0E0A1
:1040F000B0E08093630A9093640AA093650AB0933A
:10410000660A8091A8098F7E8093A8098091630A2E
:104110009091640AA091650AB091660ABF93AF932B
:104120009F938F9388E793E09F938F9386EC98E01B
:104130009F938F930E94623B0E94F11A8DB79EB7A6
:1041400008960FB6F8949EBF0FBE8DBF089580915C
:10415000A80982FF29C080916A0A90916B0AA091F8
:104160006C0AB0916D0A0197A109B10980936A0A9E
:1041700090936B0AA0936C0AB0936D0A8856924490
:10418000A040B04060F488E692E4A0E0B0E0809304
:104190006A0A90936B0AA0936C0AB0936D0A80919F
:1041A000A8098B7F8093A8098091A80984FF46C045
:1041B00080916A0A90916B0AA0916C0AB0916D0A85
:1041C0000196A11DB11D80936A0A90936B0AA0937A
:1041D0006C0AB0936D0A2091630A3091640A409191
:1041E000650A5091660A281739074A075B0740F4A9
:1041F00020936A0A30936B0A40936C0A50936D0ABD
:1042000020916A0A30916B0A40916C0A50916D0AB4
:104210008091B0099091B109A091B209B091B30910
:1042200082179307A407B50720F4CA01B9010E94B9
:1042300028138091A8098F7E8093A80980916A0A2B
:1042400090916B0AA0916C0AB0916D0ABF93AF93E5
:104250009F938F938CE893E09F938F9386EC98E0E5
:104260009F938F930E94623B0E94F11A8DB79EB775
:1042700008960FB6F8949EBF0FBE8DBF089580912B
:10428000A80984FF0DC083E00E94DB148F5F682FB4
:1042900083E00E94E8148091A8098F7E8093A8098A
:1042A0008091A80982FF0DC083E00E94DB14815039
:1042B000682F83E00E94E8148091A8098B7F809387
:1042C000A80983E00E94DB1490E09F938F9380EA1B
:1042D00093E09F938F9386EC98E09F938F930E9437
:1042E000623B0E94F11A8DB79EB706960FB6F894FE
:1042F0009EBF0FBE8DBF08958091A80984FF0DC099
:1043000083E00E94B7140196BC0183E00E94C514AB
:104310008091A8098F7E8093A8098091A80982FFC7
:104320000DC083E00E94B7140197BC0183E00E9496
:10433000C5148091A8098B7F8093A80983E00E940F
:10434000B7149F938F9381EB93E09F938F9386ECA9
:1043500098E09F938F930E94623B0E94F11A8DB761
:104360009EB706960FB6F8949EBF0FBE8DBF0895F8
:104370008091A80984FF0DC082E00E94DB148F5F4A
:10438000682F82E00E94E8148091A8098F7E8093B4
:10439000A8098091A80982FF0DC082E00E94DB1469
:1043A0008150682F82E00E94E8148091A8098B7FD9
:1043B0008093A80982E00E94DB1490E09F938F9382
:1043C00083EC93E09F938F9386EC98E09F938F9379
:1043D0000E94623B0E94F11A8DB79EB706960FB6F7
:1043E000F8949EBF0FBE8DBF08958091A80984FFE9
:1043F0000DC082E00E94B7140196BC0182E00E94C9
:10440000C5148091A8098F7E8093A8098091A8097E
:1044100082FF0DC082E00E94B7140197BC0182E0C8
:104420000E94C5148091A8098B7F8093A80982E01F
:104430000E94B7149F938F9384ED93E09F938F9383
:1044400086EC98E09F938F930E94623B0E94F11A42
:104450008DB79EB706960FB6F8949EBF0FBE8DBF60
:1044600008958091A80984FF0DC081E00E94DB14AB
:104470008F5F682F81E00E94E8148091A8098F7EE9
:104480008093A8098091A80982FF0DC081E00E9455
:10449000DB148150682F81E00E94E8148091A80904
:1044A0008B7F8093A80981E00E94DB1490E09F93AA
:1044B0008F9386EE93E09F938F9386EC98E09F9383
:1044C0008F930E94623B0E94F11A8DB79EB70696A9
:1044D0000FB6F8949EBF0FBE8DBF08958091A809B6
:1044E00084FF0DC081E00E94B7140196BC0181E0F9
:1044F0000E94C5148091A8098F7E8093A80980919D
:10450000A80982FF0DC081E00E94B7140197BC0189
:1045100081E00E94C5148091A8098B7F8093A8092F
:1045200081E00E94B7149F938F9387EF93E09F934E
:104530008F9386EC98E09F938F930E94623B0E943A
:10454000F11A8DB79EB706960FB6F8949EBF0FBEB0
:104550008DBF08958091A80984FF0DC080E00E945E
:10456000DB148F5F682F80E00E94E8148091A80917
:104570008F7E8093A8098091A80982FF0DC080E0FA
:104580000E94DB148150682F80E00E94E814809123
:10459000A8098B7F8093A80980E00E94DB1490E03B
:1045A0009F938F9389E094E09F938F9386EC98E09C
:1045B0009F938F930E94623B0E94F11A8DB79EB722
:1045C00006960FB6F8949EBF0FBE8DBF08958091DA
:1045D000A80984FF0DC080E00E94B7140196BC01B9
:1045E00080E00E94C5148091A8098F7E8093A8095D
:1045F0008091A80982FF0DC080E00E94B714019746
:10460000BC0180E00E94C5148091A8098B7F809333
:10461000A80980E00E94B7149F938F938AE194E0E9
:104620009F938F9386EC98E09F938F930E94623BB9
:104630000E94F11A8DB79EB706960FB6F8949EBFEA
:104640000FBE8DBF0895AF92BF92CF92DF92EF92CF
:10465000FF920F931F938091A80984FF37C0809128
:10466000B0099091B109A091B209B091B309019636
:10467000A11DB11D8093B0099093B109A093B20917
:10468000B093B3092091630A3091640A4091650A9E
:104690005091660A281739074A075B0740F42093B0
:1046A000B0093093B1094093B2095093B3096091B6
:1046B000B0097091B1098091B2099091B3090E943B
:1046C00028138091A8098F7E8093A8098091A8095A
:1046D00082FF37C08091B0099091B109A091B209D1
:1046E000B091B3090197A109B1098093B0099093E2
:1046F000B109A093B209B093B30920916A0A30912D
:104700006B0A40916C0A50916D0A82179307A407B7
:10471000B50740F42093B0093093B1094093B20932
:104720005093B3096091B0097091B1098091B209B9
:104730009091B3090E9428138091A8098B7F8093E0
:10474000A80981E00E9490148C0180E00E949014DE
:104750007C01C8010E9427155B016C0120E030E05C
:1047600040E050E00E94E33B882354F40F2EF0E039
:10477000AF2EF0E0BF2EF0E0CF2EF0E0DF2EF02DD8
:10478000C7010E9427157B018C0120E030E040E04A
:1047900050E00E94E33B882354F40F2EF0E0EF2E0C
:1047A000F0E0FF2EF0E00F2FF0E01F2FF02D1F9311
:1047B0000F93FF92EF92DF92CF92BF92AF928091D0
:1047C000B0099091B109A091B209B091B309BF931A
:1047D000AF939F938F938CE294E09F938F9386EC9B
:1047E00098E09F938F930E94623B0E94F11A8DB7CD
:1047F0009EB740960FB6F8949EBF0FBE8DBF1F9117
:104800000F91FF90EF90DF90CF90BF90AF90089501
:104810000F931F938091A80985FF41C08091FF07E6
:104820008823C1F50E94F40081E00E94F8142091D1
:10483000670A3091680A280F391F309301082093C6
:10484000000860916A0A70916B0A80916C0A9091DD
:104850006D0A0E94281380916A0A90916B0AA091B8
:104860006C0AB0916D0A8093090890930A08A0938E
:104870000B08B0930C088093050890930608A0934A
:104880000708B0930808109204081092030881E00A
:104890008093FF078091A8098F7D8093A80980915C
:1048A000FF07882309F4E8C02091B0093091B109CD
:1048B0004091B2095091B3098091630A9091640AC2
:1048C000A091650AB091660A281739074A075B0765
:1048D00008F08CC080910208882349F48091000878
:1048E000909101080E941C1180930208CDC00E9483
:1048F0000911892B09F0C8C0809102080E94591142
:1049000010920208F89481E00E949014182F092F49
:1049100078940E9427159F938F937F936F93809134
:10492000B0099091B109A091B209B091B309BF93B8
:10493000AF939F938F938BE494E09F938F9386EC38
:1049400098E09F938F930E94623B812F902F20913C
:104950000308309104084DB75EB7445F5F4F0FB650
:10496000F8945EBF0FBE4DBF28173907A8F4909387
:104970000408809303088091B0099091B109A09137
:10498000B209B091B3098093090890930A08A093E3
:104990000B08B0930C0813C08217930781F4809121
:1049A000B0099091B109A091B209B091B309809377
:1049B000050890930608A0930708B0930808609133
:1049C000B0097091B1098091B2099091B309665F05
:1049D0007F4F8F4F9F4F6093B0097093B1098093C1
:1049E000B2099093B3090E9428134EC02091090880
:1049F00030910A0840910B0850910C0880910508ED
:104A000090910608A0910708B091080882179307B3
:104A1000A407B50740F42093050830930608409397
:104A20000708509308088091050890910608A09106
:104A30000708B0910808280F391F4A1F5B1F5695B9
:104A4000479537952795CA01B9010E94281380918F
:104A50006E0A9091700A890F0E94162B8091790A34
:104A60009091780A890F0E94DE2C0E9408160E94FD
:104A700034011092FF0708C063E674E086EC98E00A
:104A80000E94F93A0E94F11A1F910F91089583E054
:104A90000E9490149F938F9388E794E09F938F9345
:104AA00086EC98E09F938F930E94623B0E94F11ADC
:104AB0008DB79EB706960FB6F8949EBF0FBE8DBFFA
:104AC000089582E00E9490149F938F9383E894E06E
:104AD0009F938F9386EC98E09F938F930E94623B05
:104AE0000E94F11A8DB79EB706960FB6F8949EBF36
:104AF0000FBE8DBF089581E00E9490149F938F9305
:104B00008EE894E09F938F9386EC98E09F938F9329
:104B10000E94623B0E94F11A8DB79EB706960FB6AF
:104B2000F8949EBF0FBE8DBF089580E00E94901440
:104B30009F938F9389E994E09F938F9386EC98E0FD
:104B40009F938F930E94623B0E94F11A8DB79EB78C
:104B500006960FB6F8949EBF0FBE8DBF0895809144
:104B6000AC099091AD09A091AE09B091AF09BF9386
:104B7000AF939F938F9384EA94E09F938F9386ECF7
:104B800098E09F938F930E94623B0E94F11A8DB729
:104B90009EB708960FB6F8949EBF0FBE8DBF0895BE
:104BA0008091A80982FF0CC080912408863418F0F7
:104BB0008150809324088091A8098B7F8093A80955
:104BC0008091A80984FF1FC0909124088091780AE1
:104BD000981738F48091C206981718F49F5F909345
:104BE00024080E94A52C882349F0909124088091E4
:104BF000770A891718F4892F0E94DE2C8091A80962
:104C00008F7E8093A8098091240890E001969F935D
:104C10008F9389EB94E09F938F9386EC98E09F931A
:104C20008F930E94623B0E94F11A8DB79EB7069641
:104C30000FB6F8949EBF0FBE8DBF08958091A8094E
:104C400082FF27C04091C2068091790A2091780A9C
:104C500030E0280F311D842F90E0281739073CF4ED
:104C600080912408841718F441504093C2060E9492
:104C7000A52C882349F09091C2068091770A981755
:104C800018F4892F0E94DE2C8091A8098B7F8093D5
:104C9000A8098091A80984FF0CC08091C2068336C0
:104CA00018F48F5F8093C2068091A8098F7E80934D
:104CB000A8098091C20690E001969F938F9382EDA0
:104CC00094E09F938F9386EC98E09F938F930E943C
:104CD000623B0E94F11A8DB79EB706960FB6F89404
:104CE0009EBF0FBE8DBF08958091790A90E09F937B
:104CF0008F9389EE94E09F938F9386EC98E09F9337
:104D00008F930E94623B8091A8092DB73EB72A5F1E
:104D10003F4F0FB6F8943EBF0FBE2DBF84FF1FC09C
:104D20005091C2067091790A6091780A4091C1064B
:104D3000852F90E0871B9109861B9109242F30E075
:104D40008217930724F4561B5093790A03C0470F28
:104D50004093790A8091A8098F7E8093A809809159
:104D6000A80982FF11C08091790A9091C106891724
:104D700018F41092790A03C0891B8093790A8091F4
:104D8000A8098B7F8093A8090E94F11A0895809149
:104D9000780A90E001969F938F9382E095E09F932D
:104DA0008F9386EC98E09F938F930E94623B809153
:104DB000A8092DB73EB72A5F3F4F0FB6F8943EBF04
:104DC0000FBE2DBF84FF1FC05091C2067091790A9B
:104DD0006091780A4091C106852F90E0871B910968
:104DE000861B9109242F30E08217930724F4571B68
:104DF0005093780A03C0460F4093780A8091A8091F
:104E00008F7E8093A8098091A80982FF1AC04091E3
:104E1000780A609124085091C106242F30E0862F33
:104E200090E0850F911D281739071CF46093780ACC
:104E300003C0451B4093780A8091A8098B7F80931B
:104E4000A8090E94F11A089580916E0A0E94312BE0
:104E50009F938F937F936F938AE195E09F938F93B6
:104E600086EC98E09F938F930E94623B8091A80903
:104E70002DB73EB7285F3F4F0FB6F8943EBF0FBE29
:104E80002DBF84FF1FC05091710A70916E0A60910E
:104E9000700A4091A906852F90E0871B9109861B17
:104EA0009109242F30E08217930724F4561B509366
:104EB0006E0A03C0470F40936E0A8091A8098F7E47
:104EC0008093A8098091A80982FF11C080916E0A81
:104ED0009091A906891718F410926E0A03C0891BD5
:104EE00080936E0A8091A8098B7F8093A8090E9405
:104EF000F11A08958091700A0E94312B9F938F932D
:104F00007F936F9385E395E09F938F9386EC98E072
:104F10009F938F930E94623B8091A8092DB73EB763
:104F2000285F3F4F0FB6F8943EBF0FBE2DBF84FFE2
:104F30001FC05091710A70916E0A6091700A409181
:104F4000A906852F90E0871B9109861B9109242FC4
:104F500030E08217930724F4571B5093700A03C064
:104F6000460F4093700A8091A8098F7E8093A8090C
:104F70008091A80982FF1AC04091700A6091720A5C
:104F80005091A906242F30E0862F90E0850F911DC7
:104F9000281739071CF46093700A03C0451B40931F
:104FA000700A8091A8098B7F8093A8090E94F11A4A
:104FB00008958091770A90E001969F938F938FE4F4
:104FC00095E09F938F9386EC98E09F938F930E9438
:104FD000623B8091A8092DB73EB72A5F3F4F0FB6BD
:104FE000F8943EBF0FBE2DBF84FF1EC06091C20665
:104FF0005091770A4091C106862F90E0851B910958
:10500000242F30E0821793071CF46093770A03C0C3
:10501000450F4093770A8091770A0E94DE2C809199
:10502000A8098F7E8093A8098091A80982FF1EC0DD
:105030004091770A609124085091C106242F30E0F6
:10504000862F90E0850F911D281739071CF4609377
:10505000770A03C0451B4093770A8091770A0E9424
:10506000DE2C8091A8098B7F8093A8090E94F11AF9
:10507000089580916F0A0E94312B9F938F937F93A5
:105080006F938BE695E09F938F9386EC98E09F93C8
:105090008F930E94623B8091A8092DB73EB7285F8D
:1050A0003F4F0FB6F8943EBF0FBE2DBF84FF25C003
:1050B00050916F0A552329F48091720A80936F0AE8
:1050C00013C06091710A4091A906862F90E0851B5C
:1050D0009109242F30E0821793071CF460936F0A24
:1050E00003C0450F40936F0A80916F0A0E94162BF0
:1050F0008091A8098F7E8093A8098091A80982FFDA
:1051000023C040916F0A5091720A451719F410920A
:105110006F0A11C06091A906242F30E0852F90E01E
:10512000860F911D281739071CF450936F0A03C08E
:10513000461B40936F0A80916F0A0E94162B809144
:10514000A8098B7F8093A8090E94F11A0895809185
:10515000B0099091B109A091B209B091B309BF9380
:10516000AF939F938F9386E895E09F938F9386EC00
:1051700098E09F938F930E94623B8091A8092DB77E
:105180003EB7285F3F4F0FB6F8943EBF0FBE2DBF0E
:1051900084FF38C08091B0099091B109A091B20903
:1051A000B091B3098C599F4FAF4FBF4F8093B00957
:1051B0009093B109A093B209B093B3092091630A07
:1051C0003091640A4091650A5091660A28173907A0
:1051D0004A075B0740F42093B0093093B10940932C
:1051E000B2095093B3096091B0097091B1098091EF
:1051F000B2099091B3090E9428138091A8098F7E6B
:105200008093A8098091A80982FF38C08091B009D5
:105210009091B109A091B209B091B3098456904020
:10522000A040B0408093B0099093B109A093B20917
:10523000B093B30920916A0A30916B0A40916C0ACD
:1052400050916D0A82179307A407B50740F4209385
:10525000B0093093B1094093B2095093B3096091FA
:10526000B0097091B1098091B2099091B3090E947F
:1052700028138091A8098B7F8093A8090E94F11AB6
:1052800008950E945F2B9F938F937F936F9388E97C
:1052900095E09F938F9386EC98E09F938F930E9465
:1052A000623B0E94F11A8DB79EB708960FB6F8942C
:1052B0009EBF0FBE8DBF0895F89482E00E949E1499
:1052C00078949F938F9389EB95E09F938F9386ECCF
:1052D00098E09F938F930E94623B0E94F11A8DB7D2
:1052E0009EB706960FB6F8949EBF0FBE8DBF089569
:1052F0002F923F924F925F926F927F928F929F92E6
:10530000AF92BF92CF92DF92EF92FF920F931F93D3
:10531000DF93CF93CDB7DEB7E2970FB6F894DEBF39
:105320000FBECDBF69EC75E086EC98E00E94F93ABB
:105330008091A80985FFA0C08091A8098F7D8093E6
:10534000A80988249924F6EC2F2EF8E03F2EE2EFEE
:105350004E2EE5E05E2E3E010894611C711C882DE6
:105360000E94162BE090670AF090680A80E00E9485
:10537000F814EE0CFF1CE80EF91E00E010E0C80166
:10538000B7010E94803C5B016C0126E636E646E6EA
:1053900055E40E94363D7B018C0120E030E040E87E
:1053A0005FE30E94E33B88231CF461E070E023C0CC
:1053B00020E03FEF4FE757E4C801B7010E94323DBC
:1053C0001816ACF420E030E040E251E4C601B5012B
:1053D0000E94363D0E94543C06C080E791E0019750
:1053E000F1F76150704061157105B9F707C0C80148
:1053F000B7010E94543CCB010197F1F780E00E9475
:1054000090149F938F9380916F0A90E09F938F9356
:1054100083EE95E09F938F933F922F920E94623B81
:105420000E94A00B80E00E9490149F938F93809124
:105430006F0A90E09F938F935F924F927F926F924B
:105440000E94623B20E030E040E050E060E070E02D
:10545000C3010E94950D0894811C911C8DB79EB7C5
:1054600040960FB6F8949EBF0FBE8DBF90E0891690
:1054700091E0990609F073CF0E94F11AE2960FB6F7
:10548000F894DEBF0FBECDBFCF91DF911F910F917A
:10549000FF90EF90DF90CF90BF90AF909F908F9054
:1054A0007F906F905F904F903F902F9008958091E4
:1054B000B0099091B109A091B209B091B309BF931D
:1054C000AF939F938F9387E096E09F938F9386ECA3
:1054D00098E09F938F930E94623B8091A8092DB71B
:1054E0003EB7285F3F4F0FB6F8943EBF0FBE2DBFAB
:1054F00084FF37C08091B0099091B109A091B209A1
:10550000B091B3090196A11DB11D8093B00990938C
:10551000B109A093B209B093B3092091630A309105
:10552000640A4091650A5091660A281739074A07AC
:105530005B0740F42093B0093093B1094093B2095E
:105540005093B3096091B0097091B1098091B2098B
:105550009091B3090E9428138091A8098F7E8093AF
:10556000A8098091A80982FF37C08091B009909165
:10557000B109A091B209B091B3090197A109B1098C
:105580008093B0099093B109A093B209B093B30985
:1055900020916A0A30916B0A40916C0A50916D0A11
:1055A00082179307A407B50740F42093B0093093FE
:1055B000B1094093B2095093B3096091B009709159
:1055C000B1098091B2099091B3090E94281380918A
:1055D000A8098B7F8093A8090E94F11A08951FBC27
:1055E0001EBC10927A008FB581608FBD8FB582602E
:1055F0008FBD8EB588608EBD8EB580618EBDBD9A23
:105600008FB580648FBDBE9A8FB580618FBD8FB519
:1056100080628FBD8EB581608EBDF8948FEF90E073
:105620009BBD8ABD19BC18BC789408959091710AED
:10563000282F981708F4292F222329F08091720A25
:10564000281708F4282FF894822F90E099BD88BD80
:10565000789420936F0A089519BC18BC10926F0AB1
:105660000895EF92FF920F931F9390E0AA2797FD62
:10567000A095BA2FBC01CD010E94823C7B018C0118
:105680006091AA067091AB0680E090E00E94803C99
:1056900020E030E048EC52E40E94E73B9B01AC0183
:1056A000C801B7010E94363D20E030E04FE753E4E7
:1056B0000E94E73B1F910F91FF90EF90089520917A
:1056C0002008309121084091220850912308B90107
:1056D000CA010895EF92FF920F931F93DF93CF9328
:1056E00000D00F92CDB7DEB780911F08882369F4F0
:1056F00080E090E0A0E0B0E0809320089093210843
:10570000A0932208B09323089FC080910E0888239D
:1057100029F00E940911892B09F096C080910E088A
:105720000E9459118EEE92E00E941C1180930E0887
:1057300080910D08882349F46FE078E081E00E94B1
:10574000772E81E080930D087FC010920D089E0196
:105750002D5F3F4FAE014E5F5F4FBE016F5F7F4FCA
:105760008FE098E00E941C2E882369F080E090E092
:10577000A0E0B0E08093200890932108A093220835
:10578000B093230819C04B816A8189810E94652DDD
:10579000A0E0B0E0BC01CD010E94803C20E030E000
:1057A00040E251E40E94E73B609320087093210897
:1057B00080932208909323080E94A52C882309F443
:1057C00043C0E0902008F090210800912208109139
:1057D00023086091750A7091760A80E090E00E943B
:1057E000803CA80197010E94E33B882334F482E0C7
:1057F0000E94CE0388EE93E025C06091730A7091F9
:10580000740A80E090E00E94803CA80197010E9409
:10581000E33B8823CCF46CEA76E08EEE98E00E94BD
:10582000F93A0E94A00B84E690E00E94821088EE74
:1058300093E020E731E0F9013197F1F70197D9F7CB
:1058400088EC90E00E9482100F900F900F90CF9103
:10585000DF911F910F91FF90EF9008958F929F928B
:10586000AF92BF92CF92DF92FF920F931F93DF937D
:10587000CF93CDB7DEB729970FB6F894DEBF0FBE32
:10588000CDBF8FEF898300E010E022E0C22ED12C43
:10589000CC0EDD1E4E010894811C911C9AE0A92EAD
:1058A000B12CAC0EBD1E19C0B601C4010E94A62EBB
:1058B00089818F3FC9F08E3FB9F0D601F80183E0AE
:1058C000EE0FFF1F8A95E1F7E15FF74F8D9181930E
:1058D000AA15BB05D9F70F5F1F4FF02E89818823CA
:1058E00019F00230110501F78F2D29960FB6F894A3
:1058F000DEBF0FBECDBFCF91DF911F910F91FF9003
:10590000DF90CF90BF90AF909F908F9008950E94AE
:105910002E2C80931F0880E090E0A0E0B0E0809300
:10592000200890932108A0932208B093230808959B
:10593000EBE8F0E08081806380830895EBE8F0E09D
:1059400080818F7C80831C9A0895EBE8F0E0908141
:10595000808180729071892B0895ABE8B0E01C9231
:10596000EAE8F0E0108210928C008C9181608C93B8
:105970008C9182608C93808188608083808180613B
:105980008083139A8C9180648C93149A1C9A8081E2
:105990008160808380818260808380818460808355
:1059A0001698F89483E690E09093870080938600A1
:1059B0001092850010928400789408959091C20608
:1059C000981708F4892F90912408282F891708F434
:1059D000292FF894822F90E0909385008093840083
:1059E00078942093770A0895DC0120E040E050E0AD
:1059F00098E115C0FD01E40FF51FE08138E08E2F1E
:105A00008227F82FF17080FD29272695F13009F4BF
:105A10002068315011F0E695F2CF4F5F5F4F461787
:105A2000570741F7822F0895FF920F931F93CF934B
:105A3000DF93F82EFB01DA01E9018081482F50E065
:105A4000918180E0482B592B80E1F81671F4CA014E
:105A50008E7F33E0880F991F3A95E1F726814CE05D
:105A600050E0421B5109480F591F57FF06C081E003
:105A70008C93509541955F4F01C01C9288E2F816B7
:105A800091F48481682F70E0CB018076907080362D
:105A9000910549F066FF02C04E7F05C065FF02C058
:105AA0004C7F01C0487FCA0124E0969587952A95CE
:105AB000E1F78883842F8F70F801808380E0DF9185
:105AC000CF911F910F91FF9008950F931F93DF9334
:105AD000CF93CDB7DEB728970FB6F894DEBF0FBED1
