:100000000C94C7000C94E7000C94E7000C94E700F4
:100010000C94E7000C94E7000C9465070C94E7003F
:100020000C9435070C94E7000C94E7000C94E7005F
:100030000C94E7000C94E7000C94E7000C94EA1190
:100040000C94E7000C94E7000C94E7000C94E70094
:100050000C94E7000C9410140C94E7000C94E70047
:100060000C94E7000C94E7000C94E7000C94E70074
:100070000C94E7000C94E7000C94A20D0C94E7009C
:100080000C94E7000C94E7000C94E7006E616E009E
:10009000696E660000407A10F35A00A0724E18098B
:1000A0000010A5D4E80000E87648170000E40B54DF
:1000B000020000CA9A3B000000E1F50500008096AE
:1000C0009800000040420F000000A08601000000E0
:1000D000102700000000E80300000000640000009A
:1000E00000000A00000000000100000000002C7663
:1000F000D888DC674F0823DFC1DFAE59E1B1B7967E
:10010000E5E3E453C63AE651997696E8E6C28426DA
:10011000EB898C9B62ED407C6FFCEFBC9C9F40F2B6
:10012000BAA56FA5F490055A2AF75C936B6CF96732
:100130006DC11BFCE0E40D47FEF520E6B500D0EDF7
:10014000902E0300943577050080841E080000205F
:100150004E0A000000C80C333333330F986E1283FD
:100160001141EF8D2114893BE65516CFFEE6DB18D1
:10017000D1844B381BF77C1D901DA4BBE424203296
:1001800084725E228100C9F124ECA1E53D2711248F
:100190001FBECFEFD0E1DEBFCDBF17E0A0E0B1E0E2
:1001A000EEEDF9E700E00BBF02C007900D92A03B17
:1001B000B107D9F71BBE1AE0A0EBB7E001C01D9252
:1001C000AE34B107E1F70E94830B0C94ED3C0C9424
:1001D0000000A1E1B0E0EFEEF0E00C94B63C3C0191
:1001E0007F876E876A01FC0117821682838181FDF9
:1001F00003C06FEF7FEF71C39E012F5F3F4F398BBD
:10020000288BF3012381EE85FF8523FD859123FF54
:100210008191FF87EE87882309F45CC3853251F40E
:10022000EE85FF8523FD859123FF8191FF87EE8772
:10023000853229F490E0B3010E94D339E2CF982FA0
:1002400010E0882499241032B0F49B3269F09C327B
:1002500028F4903251F0933271F40BC09D3239F092
:10026000903349F4116028C01260146025C01860F2
:1002700023C0106121C017FD2AC0892F80538A3006
:1002800078F416FF06C0FAE09F9E902C1124980E79
:1002900013C03AE0839E802C1124880E10620CC09B
:1002A0009E3221F416FD16C3106406C09C3611F46C
:1002B000106802C0983659F4EE85FF8523FD9591AC
:1002C00023FF9191FF87EE87992309F0BCCF892FF7
:1002D0008554833020F4812F8061905E07C0892F80
:1002E0008556833008F0A1C1812F8F7E86FD02C024
:1002F00076E0972E6FE3F62EF822953619F4F0E4A7
:10030000FF2A07C0963619F420E8F22A02C091109D
:100310009A94F7FE0BC03BE3391520F427E05CE329
:10032000B52E0EC0B92CB39427E00AC047E049159A
:1003300028F427E0BB2447E0942E02C0292DBB24DB
:10034000C60104969D878C87F60160817181828148
:100350009381AE014F5F5F4F0B2D0E94A3386C015C
:100360000981202E332400FF04C003FD02C01DE2DA
:1003700009C0F1FE02C01BE205C0F2FC02C010E0A1
:1003800001C010E2C1018C709070892BB9F111236A
:1003900011F483E001C084E0881510F088240AC0BD
:1003A000881AF3FC07C080E290E0B3010E94D339C1
:1003B0008A94C9F7112329F0812F90E0B3010E949C
:1003C000D33923FE03C00CE810E00EC000E910E0B2
:1003D0000BC0E114F10409F0805290E0B3010E94D7
:1003E000D3390F5F1F4F05C0EF2CFF24F0E1EF2240
:1003F000FF24F8018491882361F714C1F7FE12C02D
:10040000BC0C24FE04C08A81813309F4BA941B1405
:100410001CF0BB24B3942DC0F8E0FB1550F538E078
:10042000B32E27C0F6FC25C0892D90E08C159D05C4
:100430004CF02CEFC2162FEFD20624F030E8F32A4E
:1004400001C09A94992049F0E2E0F0E0EC0FFD1F22
:10045000E90DF11D80818033A1F3F7FE0AC0B92CAC
:10046000B394892D90E0C816D90614F0992401C0E0
:100470009C18F7FC03C025E030E009C01C141D04E3
:100480001CF021E030E003C096012F5F3F4F1123A5
:1004900011F02F5F3F4F992029F0892D90E00196B0
:1004A000280F391F882D90E02817390714F0882469
:1004B00001C0821A4F2C5524C20189709070892B7B
:1004C00039F008C080E290E0B3010E94D3398A94E9
:1004D0008820C1F7112329F0812F90E0B3010E94F9
:1004E000D33943FE07C008C080E390E0B3010E9407
:1004F000D3398A948820C1F7F7FE46C08601D7FE1B
:1005000002C000E010E076010894E11CF11CE01A42
:10051000F10A41E050E04C0F5D1FE40EF51E26018C
:100520004B185108892D90E0AA24BB24A81AB90AB7
:100530005FEF0F3F150729F48EE290E0B3010E94B0
:10054000D339C016D10634F0401651061CF4F70119
:10055000808101C080E3015010400894E11CF11C2F
:100560000A151B052CF090E0B3010E94D339E0CFAF
:100570000C151D0539F49A81963318F4953311F44E
:1005800024FE81E390E04BC08A81813309F00F7E25
:1005900090E0B3010E94D3399920A1F08EE290E05F
:1005A000B3010E94D33912E0E1E0F0E0EC0FFD1F4F
:1005B000E10FF11D1F5F808190E0B3010E94D339EC
:1005C0009A9491F744FC03C085E690E002C085E46C
:1005D00090E0B3010E94D339D7FC05C0C114D10407
:1005E00041F404FF06C0D094C194D108D3948DE2A5
:1005F00001C08BE290E0B3010E94D33980E305C0D3
:100600008F5F26EF3FEFC20ED31E3AE0C316D10430
:10061000BCF790E0B3010E94D339C601C096B30184
:100620000E94D339CC84DD8452C1933631F09337A4
:1006300099F0933509F059C023C0F6018081898370
:100640005E010894A11CB11C22E030E0C20ED31E52
:1006500021E0E22EF12C12C0F601A080B18016FD3F
:1006600003C06FEF7FEF02C0692D70E022E030E041
:10067000C20ED31EC5010E949D397C011F7713C095
:10068000F601A080B18016FD03C06FEF7FEF02C0BE
:10069000692D70E022E030E0C20ED31EC5010E9439
:1006A0007B397C01106813FF07C01BC080E290E01B
:1006B000B3010E94D3398A94882D90E0E816F90698
:1006C000A8F30FC0F50117FD859117FF81915F0118
:1006D00090E0B3010E94D33981108A940894E10814
:1006E000F108E114F10471F7F2C0943611F0993673
:1006F00089F517FF08C0F6012081318142815381BD
:1007000084E090E00AC0F601808191819C01442739
:1007100037FD4095542F82E090E0C80ED91E9FE629
:10072000F92EF12257FF09C050954095309521953B
:100730003F4F4F4F5F4F90E8F92ACA01B901AE0110
:100740004F5F5F4F2AE030E00E94233AE82EE889AD
:10075000EE1A41C0953721F41F7E2AE030E01CC01C
:10076000197F9F3661F0903720F4983509F0B2C0B8
:100770000FC0903739F0983709F0ACC004C028E0BA
:1007800030E00AC0106114FD146020E130E004C0C4
:1007900014FD166020E132E017FF08C0F601608109
:1007A00071818281938144E050E008C0F60180812C
:1007B0009181BC0180E090E042E050E0C40ED51E83
:1007C000AE014F5F5F4F0E94233AE82E5889E51A29
:1007D0008FE7F82EF122F6FE0BC08EEFF822E91417
:1007E00038F4F4FE07C0F2FC05C09FEEF92202C007
:1007F0001E2D01C0192DF4FE0DC0FE01EE0DF11DE0
:100800008081803319F4E9EEFE2208C01F5FF2FEFA
:1008100005C003C08F2D867809F01F5F0F2DF3FCF4
:1008200014C0F0FE0FC0181510F09E2C0BC09E2CAB
:10083000980C911A182D06C080E290E0B3010E9436
:10084000D3391F5F1815C0F304C0181510F4811AAE
:1008500001C0882404FF0FC080E390E0B3010E9430
:10086000D33902FF1DC001FD03C088E790E00EC030
:1008700088E590E00BC0802F867891F001FF02C0E0
:100880008BE201C080E2F7FC8DE290E0B3010E94B0
:10089000D33906C080E390E0B3010E94D3399A9423
:1008A000E914C0F3EA94E1E0F0E0EC0FFD1FEE0D77
:1008B000F11D808190E0B3010E94D339EE2091F7C1
:1008C00006C080E290E0B3010E94D3398A94882068
:1008D000C1F797CCF30166817781CB016196E2E1A4
:1008E0000C94D23C81E0809381010895982F159853
:1008F0008AB78B7F8ABF8AB7877F8ABF17988AB7E4
:100900008F7B8ABF8AB78F778ABF913031F489B7DE
:10091000806289BF89B7806805C089B78F7D89BF2C
:1009200089B78F7789BF9093B00708958093FC07AC
:10093000823061F0833031F0813099F4809165002C
:10094000886007C00E94C52E882331F08091650021
:10095000877F80936500089580916500886080930B
:1009600065000895CF92DF92EF92FF920F931F934D
:1009700068EE73E080E090E00E94D411E0903B0AC2
:10098000F0903C0A81E00E947C156C0182E00E949C
:100990007C15C80ED91EEC0CFD1C00E010E0C8014F
:1009A000B7010E94D41180913C0880938101F89492
:1009B00081E00E9414159093400880933F0882E0E4
:1009C0000E94141590933B0880933A087894809184
:1009D000430A8093780880913F08909140080E94D4
:1009E000AB152DB73EB72A5030400FB6F8943EBF36
:1009F0000FBE2DBFEDB7FEB731962AE938E0ADB78F
:100A0000BEB712963C932E93119720E031E03383CA
:100A10002283648375838683978380913A089091BB
:100A20003B08918780870E94FF392DB73EB7265F2C
:100A30003F4F0FB6F8943EBF0FBE2DBF0E94FA0C79
:100A400064EF71E080E090E00E94D4111F910F915B
:100A5000FF90EF90DF90CF900895CF92DF92EF92CA
:100A6000FF920F931F93CF93DF9380918101813089
:100A700069F48091C307882321F00E94C31110926A
:100A8000C3071092B6071092B507C5C1F89481E06C
:100A90000E941415EC0182E00E9414156C017894F8
:100AA0008091B607882309F076C08091B507882326
:100AB00009F071C08091C307882321F00E94C311FF
:100AC0001092C30780913F0890914008C817D9073A
:100AD00071F480913A0890913B08C816D90609F440
:100AE0009AC180918101823009F040C094C1C81739
:100AF000D907E4F581E08093B6071092BB07109206
:100B0000BC071092BD071092BE071092B707109253
:100B1000B8071092B9071092BA0720918409309152
:100B2000850940918609509187092093BF0730932A
:100B3000C0074093C1075093C20760913D0860937E
:100B4000C507E0913908E093C40761956093C60733
:100B50006E02B0011124882777FD8095982F620FCF
:100B6000731F841F951F0E94B01303C081E0809300
:100B7000B50700913B0A10913C0A81E00E947C1568
:100B8000800F911F0E9489118093C30784E690E033
:100B90000E94571140C18091C3070E947711892B91
:100BA00029F08091C307882309F035C18091C307DC
:100BB0000E94C3111092C3078091B607882309F4DD
:100BC000E2C06091C6078091C407E82FFF27E7FDC8
:100BD000F095862F992787FD90959C01E29FC00193
:100BE000E39F900DF29F900D11249C012C9FC0015A
:100BF0002D9F900D3C9F900D11247C010027F7FC48
:100C00000095102F8091BB079091BC07A091BD0764
:100C1000B091BE07E80EF91E0A1F1B1FE092BB072A
:100C2000F092BC070093BD071093BE079E014427B6
:100C300037FD4095542F8091B7079091B807A09148
:100C4000B907B091BA07820F931FA41FB51F8093F5
:100C5000B7079093B807A093B907B093BA076F5F2F
:100C60006093C6078091C50786170CF062C0682F95
:100C7000772767FD70956E9FC0016F9F900D7E9FD7
:100C8000900D11249C01442737FD4095542F2E15BB
:100C90003F0540075107B4F0882799278E1B9F0B0B
:100CA0009C01269FC001279F900D369F900D112417
:100CB0009C01442737FD4095542FE216F3060407A4
:100CC000150744F42093BB073093BC074093BD073E
:100CD0005093BE076091BB076093C607772767FDF7
:100CE0007095872F972F2091BF073091C0074091B3
:100CF000C1075091C207620F731F841F951F0E9486
:100D0000B0131092B6078091C607882319F010928D
:100D1000B40705C08091B4078F5F8093B4078091BA
:100D2000B407823080F181E08093B5071092B40758
:100D30002AC0862F992787FD90958E9FB0018F9F9F
:100D4000700D9E9F700D1124882777FD8095982F38
:100D50002091BF073091C0074091C1075091C20751
:100D6000620F731F841F951F0E94B01300913B0AEE
:100D700010913C0A81E00E947C15800F911F0E9417
:100D800089118093C3078091B507882309F443C074
:100D900080918101823031F420913F0830914008E8
:100DA000CE0105C020913A0830913B08C601821758
:100DB00093074CF49091430A8091450A981728F5BF
:100DC000892F8F5F0BC028173907FCF49091430AD5
:100DD0008091460A8917C8F4892F81500E94392DC5
:100DE000E0903B0AF0903C0A81E00E947C158C0167
:100DF00082E00E947C15080F191FC8018E0D9F1DEF
:100E00000E9489118093C30706C01092B507D09342
:100E10004008C0933F08DF91CF911F910F91FF9041
:100E2000EF90DF90CF9008950E944F2D0E94BE2E2C
:100E300008951F93182F81E0809381010E94140769
:100E40008091FC07823059F06AE070E080E090E029
:100E50000E94D411809165008860809365001530F0
:100E600011F01093B1071F9108951F920F920FB6C2
:100E70000F920BB60F9211242F933F934F935F93D2
:100E80006F937F938F939F93AF93BF93EF93FF9352
:100E90000E94C52E882331F084E00E94190781E06A
:100EA0008093B207FF91EF91BF91AF919F918F9186
:100EB0007F916F915F914F913F912F910F900BBE5A
:100EC0000F900FBE0F901F9018951F920F920FB6A4
:100ED0000F920BB60F9211242F933F934F935F9372
:100EE0006F937F938F939F93AF93BF93EF93FF93F2
:100EF0000E94C52E882331F083E00E94190781E00B
:100F00008093B307FF91EF91BF91AF919F918F9124
:100F10007F916F915F914F913F912F910F900BBEF9
:100F20000F900FBE0F901F901895609184097091DB
:100F3000850980918609909187090E94B0130E94CB
:100F4000B82E8091440A0E94392D0895EF92FF92A5
:100F50000F931F930D9909C08091B007813029F438
:100F600082EC98E060E171E00AC00F9917C08091AF
:100F7000B007813099F482EC98E065E271E00E945C
:100F800096390E94FA0C88EC90E00E94571168EEA6
:100F900073E080E090E00E94D41139C06091470A6C
:100FA0007091480A80E090E00E941E3B7B018C011A
:100FB0000E94822D9B01AC01C801B7010E94813AB9
:100FC00088232CF482EC98E06AE371E0D8CF80911A
:100FD000FC07813059F080916500877F8093650020
:100FE0006AE070E080E090E00E94D4110E949507D2
:100FF00080913E08813059F41092D20780913D0AC9
:101000008093350A80917C09806280937C091F91CE
:101010000F91FF90EF9008950E94521308950F933F
:101020001F93CF93DF938091C707882309F466C38A
:101030001092C7078AEE98E069E778E00E946E1088
:1010400080937708882309F059C32091FD07809188
:101050007908281709F052C390917A08963009F060
:101060005EC28091D307882309F047C2C0917D08F2
:10107000D0917E0880917B0890917C088830910502
:1010800009F4A7C189309105F8F48330910509F47A
:10109000ACC08430910540F48130910509F46CC0F6
:1010A000029708F08FC030C08530910509F441C126
:1010B0008530910508F4E9C08630910509F455C1E1
:1010C000079709F009C366C18C30910509F4BCC1CA
:1010D0008D30910540F48A30910509F49BC10B973E
:1010E00008F0A1C18EC18E30910509F4D2C18E30B5
:1010F000910508F4BAC18F30910509F4E6C18F5FFC
:101100009F4F09F0E9C2F6C1CE0183709070813023
:10111000910519F0029739F404C081E00E94190783
:1011200002C00E94A607CE018C709070009731F02B
:1011300096958795969587950E9496049E012073B3
:1011400030702032310559F02033310551F0203113
:10115000310509F0C1C281E080938101BDC282E006
:1011600001C083E080933C080E94C52E882309F4C7
:10117000B3C20E94B204B0C220913E0A30913F0A2D
:101180004091400A5091410ACE01A0E0B0E08217A0
:101190009307A407B50708F4E9012091370A3091B5
:1011A000380A4091390A50913A0ACE01A0E0B0E0E5
:1011B000281739074A075B0708F4E901BE0180E0F8
:1011C00090E0B4C08091460A282F30E02C173D07EC
:1011D00008F49E018091450A482F50E0C90142174A
:1011E000530708F00BC1CA0109C1CE01A0E0B0E06D
:1011F0008093370A9093380AA093390AB0933A0A39
:1012000020913E0A30913F0A4091400A5091410A94
:1012100082179307A407B50740F42093370A309349
:10122000380A4093390A50933A0A8091370A9091CC
:10123000380AA091390AB0913A0A81539547A040E3
:10124000B04060F080E395E7A0E0B0E08093370A1B
:101250009093380AA093390AB0933A0A2091370A3A
:101260003091380A4091390A50913A0A80918409A4
:1012700090918509A0918609B091870928173907AF
:101280004A075B0708F028C24FC0CE01A0E0B0E0DB
:1012900080933E0A90933F0AA093400AB093410A7C
:1012A0002091370A3091380A4091390A50913A0A10
:1012B000281739074A075B0740F420933E0A30930A
:1012C0003F0A4093400A5093410A80913E0A909110
:1012D0003F0AA091400AB091410A88569244A0402A
:1012E000B04060F488E692E4A0E0B0E080933E0A6B
:1012F00090933F0AA093400AB093410A20913E0A7E
:1013000030913F0A4091400A5091410A80918409EE
:1013100090918509A0918609B0918709821793075A
:10132000A407B50708F0D8C1CA01B9010E94B013DB
:10133000D3C1C093440A4091450A5091420A842F78
:1013400090E0851B91092C2F30E0821793071CF445
:10135000451B4093440A9091460A8091440A89179C
:1013600008F0BAC19093440AB7C1C093420A4091B1
:10137000450A242F30E02C1B310980918E0690E025
:10138000281739070CF0A8C18091440A481B4093E4
:10139000420AA2C1C093450A5091440A4091420AB0
:1013A0002C2F30E0852F90E0840F911D28173907EE
:1013B0001CF4450F4093450A0E94C52E882309F46A
:1013C0008BC19091450A8091430A981708F084C117
:1013D00014C0C093460A8091440A8C1710F480937D
:1013E000460A0E94C52E882309F476C19091460AC8
:1013F0008091430A891708F06FC1892F0E94392D07
:101400006BC1C0933908CB300CF466C18AE080937D
:10141000390862C1C0933D08CB300CF45DC18AE04D
:1014200080933D0859C1D0934A0AC093490A8091DC
:10143000470A9091480AC817D90708F04DC1909300
:101440004A0A8093490A48C1D093480AC093470A80
:101450008091490A90914A0A8C179D0708F03CC177
:101460009093480A8093470A37C18091F807282F44
:1014700030E02C173D0708F49E018091A706482F05
:1014800050E0C9014217530708F4CA010E94FE2E1A
:1014900023C1C0934C0A4091A70650914D0A842F56
:1014A00090E0851B91092C2F30E0821793071CF4E4
:1014B000451B40934C0A9091F80780914C0A89177C
:1014C00008F00AC190934C0A07C1C0934D0A40919D
:1014D000A706242F30E02C1B31098091A60690E04E
:1014E000281739070CF0F8C080914C0A481B40932C
:1014F0004D0AF2C00E948418EFC02093790890939F
:101500007A0881E0809395088FEF9FEF90937C0895
:1015100080937B0890937E0880937D08DDC0933094
:1015200009F0ECC02093790890937A0881E08093C9
:10153000950880917B0890917C08009709F070C015
:1015400089E090E090937C0880937B080E94C52EF0
:10155000882319F441E050E002C042E050E02091BD
:10156000810130E0E4E0220F331FEA95E1F780913A
:10157000FC0790E0880F991F880F991F282B392BA3
:101580008091D30790E066E0880F991F6A95E1F794
:10159000282B392B242B352B30937E0820937D0864
:1015A00080918409909185099093800880937F08A9
:1015B00001E818E08091430A809381081092820824
:1015C00080914B0A80938308F80113820E94822D38
:1015D00020E030E040E251E40E94D03B0E94ED3A2E
:1015E000709386086093850880E00E94141590939C
:1015F00088088093870881E00E94141590938A08D8
:101600008093890882E00E94141590938C0880933F
:101610008B088091B10780938D08F80115865CC016
:10162000019709F059C08CE090E090937C0880937A
:101630007B088091370A9091380A90937E088093B6
:101640007D0880913E0A90913F0A90938008809394
:101650007F08E1E8F8E08091440A809381081092C5
:1016600082088091420A8093830813828091450A00
:101670008093850815828091460A80938708178297
:1016800080913908992787FD909590938A088093D7
:10169000890880913D08992787FD909590938C0843
:1016A00080938B088091490A90914A0A90938E0802
:1016B00080938D088091470A9091480A90939008F2
:1016C00080938F0880914C0A80939108118A8091B1
:1016D0004D0A80939308138A89E798E06EEF77E0CC
:1016E0004BE350E00E94E20F8EEF97E060E070E085
:1016F00040E050E02CE231E00E94750EDF91CF9186
:101700001F910F910895CF92DF92EF92FF920F9366
:101710001F93CF93DF930E9460110E943A110E94A1
:10172000122D0E94CD2E0E946A120E940F0D0E945F
:10173000A72E0E94711381E00E94A814809164007A
:101740008860809364000E944E160E9417170E94C2
:10175000071A409173085091740860917508709150
:10176000760882E00E944D0D0E94390D80914C0A4E
:101770000E94FE2E80E00E94190778948091B007A5
:101780000E94760484EF91E00E94571164EF71E0AB
:1017900080E090E00E94D41188EC90E00E94571104
:1017A00068EC70E080E090E00E94D41188EC90E05A
:1017B0000E945711A2ECCA2EA8E0DA2ECFE6D1E0A3
:1017C0000E94E7160E942D058091B207882329F018
:1017D00082EC98E06FE471E008C08091B307882341
:1017E00089F082EC98E060E171E00E94963988EC23
:1017F00090E00E94571168EC70E080E090E00E9459
:10180000D41166C00D9909C08091B007813029F4C8
:1018100082EC98E060E171E023C00F9909C08091EB
:10182000B007813029F482EC98E065E271E018C0DD
:101830006091490A70914A0A80E090E00E941E3B44
:101840007B018C010E94822D9B01AC01C801B70174
:101850000E94813A88233CF482EC98E06AE371E0CC
:101860000E94963935C00E94C52E882319F425E6BA
:1018700031E002C02AE631E08091650083FF03C0B9
:1018800085E691E002C08AE691E04DB75EB7485028
:1018900050400FB6F8945EBF0FBE4DBFEDB7FEB718
:1018A0003196ADB7BEB71296DC92CE921197D38324
:1018B000C28335832483978386830E94FF394DB783
:1018C0005EB7485F5F4F0FB6F8945EBF0FBE4DBF67
:1018D0000E94FA0C0E948D2D0E940F0871CF883A49
:1018E00011F482EA0895883B11F485EB0895803C59
:1018F00028F0E82FF0E0EE53FF4F808108950F931A
:101900001F93F894979A05E610E0F80190819E7F66
:10191000908385BB80818260808361E070E080E09D
:1019200090E00E94D311F80180818D7F80837894AC
:1019300062E370E080E090E00E94D3111F910F916C
:101940000895883A11F482EA0BC0883B11F485EBC4
:1019500007C0803C28F0E82FF0E0EE53FF4F808175
:101960000E947F0C0895CF93DF93EC01009721F440
:1019700006C021960E94A10C88818823D1F7DF91AF
:10198000CF9108950F931F93F894979805E610E070
:10199000F80190819E7F908385BB808182608083E7
:1019A00061E070E080E090E00E94D311F801808156
:1019B0008D7F8083789462E370E080E090E00E9405
:1019C000D3111F910F910895CF93DF93EB0182956F
:1019D000880F880F807C80580E94C20C209721F4C9
:1019E00006C021960E94A10C88818823D1F7DF913F
:1019F000CF91089580E062EC78E00E94E40C81E0F1
:101A00006AE978E00E94E40C089581E00E94C20C2B
:101A100062E070E080E090E00E94D41108958F9A17
:101A2000E4E6F0E080818160808380818260808351
:101A30008FEF84BB64E670E080E090E00E94D411F8
:101A400088E30E94C20C8CE00E94C20C86E00E94D7
:101A5000C20C81E00E94C20C62E070E080E090E085
:101A60000E94D411089580912B09089580912A092C
:101A700008958CE080939D0010922A09089586E0D5
:101A800080939D0081E080932A09089586E08093E9
:101A90009D0082E080932A0908951F93182F9A01D0
:101AA000AB0160E070E18EE090E00E94793C215053
:101AB000304010932B0910929B0088E180939A008C
:101AC0008CE080939D003093980020939900809340
:101AD0009D0010922A091123A9F08C9A113051F41B
:101AE00080919A008F7E80939A00949A80919A00B8
:101AF0008F770BC0123059F480919A0080618093E7
:101B00009A00949880919A00806880939A001F911F
:101B10000895982F80919B0085FFFCCF90939C00A7
:101B200080E090E0089580919B0087FFFCCF80913A
:101B30009C0090E0089520919B0030E02078307068
:101B4000C90108951F920F920FB60F920BB60F9214
:101B500011242F933F934F935F936F937F938F93B2
:101B60009F93AF93BF93EF93FF9390919C008091CD
:101B70002A098823C1F59A3341F49093EA0881E059
:101B80008093C8071092C7070EC08091C8078823AA
:101B900051F08091C807E82FF0E0E651F74F9083AD
:101BA0008F5F8093C8078091EA088A33A1F4E0919F
:101BB000C807F0E0E851F74F80818D3061F4E09183
:101BC000C807F0E0E751F74F80818A3021F481E0C7
:101BD0008093C70747C08091C807803409F042C08E
:101BE0002AEE38E034C08230E9F59E3371F09A3045
:101BF00061F08091C807E82FF0E0E651F74F90833D
:101C00008F5F8093C8071092C707E091C807F0E084
:101C10002AEE38E0E751F74F80818D30A1F481E062
:101C20008093C7078091C807803450F48091C8071B
:101C3000E82FF0E0E20FF31F10828F5F8093C80758
:101C40001092C8070FC08091C807803459F4C901A9
:101C500060E070E040E450E00E948F391092C807C5
:101C60001092C707FF91EF91BF91AF919F918F9114
:101C70007F916F915F914F913F912F910F900BBE8C
:101C80000F900FBE0F901F90189580912B098823FD
:101C9000A9F080919B0086FFFCCF62E070E080E0BD
:101CA00090E00E94D41180919A00806180939A0004
:101CB000949880919A00806880939A00089580910A
:101CC0002B09882389F0949A80919A008F7E8093C3
:101CD0009A0065E070E080E090E00E94D41180916D
:101CE0009A008F7780939A000895CF92DF92EF92B7
:101CF000FF920F931F93CF93DF938C01EB01D42EB0
:101D0000C52E790180912B09823011F40E945F0E5B
:101D100080912A098823A9F490E007C080919B0054
:101D200085FFFCCFE0939C009F5FF801E90FF11D58
:101D3000E081EA3099F780919B0085FFFCCF8AE033
:101D400016C08130B1F490E007C080919B0085FF00
:101D5000FCCFE0939C009F5FF801E90FF11DE0814B
:101D6000ED3099F780919B0085FFFCCF8DE080934B
:101D70009C00209741F480912B09823011F40E943D
:101D8000450E10E03BC00E94450EC7010E9489111C
:101D9000082F25C080919A008F7780939A008091B8
:101DA000C7078823B9F01092C7078D2D9C2D9C0181
:101DB000F9012134310510F0E0E4F0E02AEE38E0DA
:101DC000CE01B901AF010E948639802F0E94C31154
:101DD00010E00BC080919A00806880939A00802F59
:101DE0000E947711892BB1F617E0802F0E94C31152
:101DF00080912B09813011F40E945F0E812FDF91B9
:101E0000CF911F910F91FF90EF90DF90CF900895A9
:101E1000FB018F708A3010F4805D01C0895C808383
:101E200080E00895FB01982F92959F709A3010F4EE
:101E3000905D01C0995C90838F708A3010F4805D52
:101E400001C0895C818380E00895FF920F931F9306
:101E5000F82E8B01892F0E94120F0E5F1F4F8F2DBE
:101E6000B8010E94120F80E01F910F91FF9008951A
:101E7000982FFB018154863020F49753908380E0A3
:101E80000895892F80538A3010F082E0089580836E
:101E900080E00895FC01DB019081892F8154863018
:101EA00018F4292F275306C0292F20532A3010F069
:101EB00082E00895322F3295307F3C939181892FB3
:101EC0008154863010F4975306C090539A3018F01E
:101ED000922F82E001C080E0390F3C930895CF92A9
:101EE000DF92EF92FF920F931F93DF93CF930F92A6
:101EF000CDB7DEB77C018B016E010894C11CD11CEB
:101F0000B6010E944A0F382F882391F48981F80185
:101F100010828183C7010296B6010E944A0F382FB2
:101F20002981F80180819181820F911D91838083A5
:101F3000832F0F90CF91DF911F910F91FF90EF9022
:101F4000DF90CF9008956F927F928F929F92AF9281
:101F5000BF92CF92DF92FF920F931F93DF93CF93A5
:101F60000F92CDB7DEB75C016B014A01FF2400E0A0
:101F700010E03E010894611C711C0CC0C501800F6B
:101F8000911FB3010E944A0F882369F40E5F1F4F0F
:101F90008981F80E0C151D0588F38F2D8195B401EC
:101FA0000E94120F80E00F90CF91DF911F910F914F
:101FB000FF90DF90CF90BF90AF909F908F907F90D9
:101FC0006F900895CF92DF92FF920F931F93CF935C
:101FD000DF938C016B01DC015C968C915C97813006
:101FE00039F411968C91833019F48BE390E002C0A0
:101FF00081E190E04817590710F494E066C0F601BB
:102000008AE38193D8018C91BF010E94120FB6011F
:102010006D5F7F4FF80181810E94120FE6012596C6
:10202000D8015C968C915C97813071F411968C91FB
:102030001197833049F412968C91880FBE010E944B
:10204000120FE601279607C0F80182819381BE0135
:102050000E94250F2496D80114968D919C91159776
:10206000BE010E94250F2496F801848D8130E1F491
:1020700081818330C9F4FF24F3940CC03296EE0FB3
:10208000FF1FE00FF11F80819181BE010E94250F8B
:102090002496F394EF2DF0E0D80112968D919C9147
:1020A0001397E817F90750F3B601609570956C0F18
:1020B0007D1FC6010196AE010E94A30F982F8823B1
:1020C00021F48DE08A838AE08B83892FDF91CF9181
:1020D0001F910F91FF90DF90CF900895AF92BF9224
:1020E000CF92DF92EF92FF920F931F93DF93CF93E4
:1020F00000D00F92CDB7DEB76C018B018DE1FB01F3
:1021000011928A95E9F7F60160E070E080818D30E8
:10211000B9F481818A30A1F442E0A42EB12CA60E3C
:10212000B71E76010894E11CF11C63507040C70192
:10213000AE014E5F5F4F0E94A30F882349F08CC011
:102140006F5F7F4F31966B33710501F785E084C077
:10215000F601EA0DFB1D34979A8180813496981719
:1021600009F077C033979B818081981709F071C07F
:10217000C701B8010E944A0F882309F06DC033E0FF
:10218000E32EF12CEC0CFD1CB8016F5F7F4FC701F3
:102190000E944A0F882309F05FC0F80181818330D3
:1021A00009F044C0F1E1AF16B10409F43FC081E089
:1021B000F801848F25E0E22EF12CEC0CFD1CC70108
:1021C000BE016F5F7F4F0E944A0FD82E882309F00F
:1021D00042C0898186958C3018F08CE090E001C077
:1021E00090E0F8019383828382E090E0E80EF91E8C
:1021F000198212C06E5F7F4F660F771F600F711FCD
:10220000C7010E946F0F882339F589818F5F898309
:10221000E4E0F0E0EE0EFF1E8981682F70E0F80127
:10222000828193816817790728F315C0F801148E0D
:10223000B8016E5F7F4FC70102960E946F0F88231F
:1022400059F40C5F1F4FC7010696B8010E946F0F2B
:1022500003C083E001C08D2D0F900F900F90CF91A0
:10226000DF911F910F91FF90EF90DF90CF90BF9083
:10227000AF900895899A08959C01919A80912E09B2
:1022800090912F098217930738F080912E09909131
:102290002F098F5F9F4F51F48FEF2F3F380711F4B5
:1022A0002EEF3FEF30932F0920932E090895919A36
:1022B000A0E0B0E0BC01CD010E94D4119198089536
:1022C00080E090E02FEF3FEFFC01EE0FFF1FE45D99
:1022D000F64F31832083019680329105A9F787B7A5
:1022E000826087BF83E781BF8DE083BF0895F89444
:1022F000803218F0E0E0F0E009C0E82FF0E0EE0FE7
:10230000FF1FE45DF64F0190F081E02D7894CF013E
:1023100008959C01F894A2E0B0E04A2FFD01EE0F71
:10232000FF1FE45DF64F808191818F5F9F4F71F4B5
:102330008FEF2F3F380711F42EEF3FEFAA0FBB1F8F
:10234000A45DB64F11963C932E9305C04F5F119636
:10235000A032B10511F77894842F0895F8942FEFE7
:102360008F3F920711F48EEF9FEF90932D0980938A
:102370002C097894F89480912C0990912D097894E7
:10238000892BC1F70895E82FF89482508E3148F4D4
:10239000F0E0EE0FFF1FE45DF64F8FEF9FEF9183AC
:1023A0008083789408950895089540E022E030E015
:1023B000F901EE0FFF1FE45DF64F808191818F5F81
:1023C0009F4F09F44F5F2F5F3F4F2032310581F758
:1023D000842F08951F920F920FB60F920BB60F9293
:1023E00011242F933F934F935F936F937F938F931A
:1023F0009F93AF93BF93EF93FF9320E030E0F901F9
:10240000EE0FFF1FE45DF64F80819181892B51F023
:10241000808191818F5F9F4F29F080819181019709
:10242000918380832F5F3F4F2032310541F78091A8
:102430002E0990912F09019709F491980E940C0898
:102440008091C2019091C30101979093C301809341
:10245000C2010196C9F48091C9079091CA07A09161
:10246000CB07B091CC070196A11DB11D8093C90780
:102470009093CA07A093CB07B093CC078AEE93E062
:102480009093C3018093C2018091CD079091CE07B4
:10249000A091CF07B091D0070196A11DB11D8093E7
:1024A000CD079093CE07A093CF07B093D007FF91AD
:1024B000EF91BF91AF919F918F917F916F915F91BC
:1024C0004F913F912F910F900BBE0F900FBE0F9029
:1024D0001F90189510927C098FEF80937F0980934D
:1024E0007D09ECE6F9E01192119289E0EC37F807EA
:1024F000D1F78FEF84BB8898089510927C090895D6
:1025000020917F09E82FF0E030E0082E02C03595D9
:1025100027950A94E2F720FF1FC080917D0990E083
:102520000E2E02C0959587950A94E2F780FD14C09F
:1025300020917C0981E090E00E2E02C0880F991F47
:102540000A94E2F7282B20937C09EE0FFF1FE45931
:10255000F64F11821082089580917F0990E00E2E2F
:1025600002C0959587950A94E2F780FD10C080918E
:102570007D0990E00E2E02C0959587950A94E2F7AA
:1025800080FF05C082E390E00E943C110895809195
:102590007F0990E00E2E02C0959587950A94E2F788
:1025A00080FD37C080917D0990E00E2E02C0959588
:1025B00087950A94E2F780FD2CC0DF01AA0FBB1FAC
:1025C000A459B64F2D913C9111972F5F3F4F119613
:1025D0003C932E934091C4015091C5018091C60156
:1025E0009091C701840F951F8217930790F4209153
:1025F0007C0981E090E002C0880F991FEA95E2F71C
:10260000282B20937C094D935C9384E190E00E94F9
:102610003C110895CF92DF92FF920F931F93CF93B7
:10262000DF9380917F0980937D0900E010E021E035
:10263000C22ED12CF02EE601002E02C0CC0FDD1FE1
:102640000A94E2F79E01209525BB65E070E080E0EA
:1026500090E00E94D31190E080E080999F5F8F5FAF
:102660008A30D9F7983020F080917F098C2B08C0F0
:10267000933040F490917F099E012095822F892309
:1026800080937F098F2D0E9480120F5F1F4F0830AB
:10269000110581F6DF91CF911F910F91FF90DF908F
:1026A000CF90089580917E09815080937E098F5F3D
:1026B00029F48AE080937E090E940A130895C39A40
:1026C000C29820E097FF02C0C49A01C0C498C39882
:1026D000C39A2F5F203119F0880F991FF3CFC29A48
:1026E0000895BA9ABB9ABC9A80E090E10E945F1369
:1026F00080E090EC0E945F1380E090EE0E945F13F8
:1027000088E690E20E945F130895EF92FF920F9384
:102710001F937B018C0188E690E20E945F138FEF8C
:102720009FEFAFEFBFE0E822F9220A231B23C70186
:102730009F7390640E945F134EE016950795F7947F
:10274000E7944A95D1F7AFEFBFE3EA22FB22C70136
:1027500090640E945F131F910F91FF90EF90089576
:10276000AF92BF92CF92DF92EF92FF920F931F939F
:10277000683622E4720720E0820720E0920728F4FE
:1027800068E672E480E090E00CC0613325E77207F0
:1027900020E0820720E0920720F060E375E780E008
:1027A00090E06093840970938509809386099093E3
:1027B000870928EC30E040E050E00E94333C5B01A8
:1027C0006C019B01A60160E070E080E090E00CE10C
:1027D0000E94AF31AA24BB24E1EECE2EDD24EE24EC
:1027E000FF2400E010E00E942E32122F032FF42E5F
:1027F000E52E622F702F8F2D9E2D0E948513109332
:10280000800900938109F0928209E09283091F9167
:102810000F91FF90EF90DF90CF90BF90AF90089511
:102820001F920F920FB60F920BB60F921124DF92E8
:10283000EF92FF920F931F932F933F934F935F93CA
:102840006F937F938F939F93AF93BF93CF93DF93B8
:10285000EF93FF9354B145B1D090BC09ED2DF0E05A
:10286000E853FE4F208130E0942F80E0850F911DCA
:10287000E90144E0CC0FDD1F4A95E1F7C20FD31FF9
:10288000C857D64F9F838E832E853F85821B930B1F
:10289000088802C0959587950A94E2F77C01002785
:1028A000F7FC0095102F88859985AA85BB85E80ED1
:1028B000F91E0A1F1B1FE886F9860A871B878A8173
:1028C0009B8101969B838A832C813D81821793078C
:1028D00070F01B821A8240E050E0C801B7010E94EC
:1028E0009B3C3D872C87188619861A861B86ED2D02
:1028F000EF5FE093BC09F0E0E853FE4F80818F3F2B
:1029000011F41092BC09E091BC09F0E0E853FE4FCD
:1029100080819091BB09890F87B9369AFF91EF9119
:10292000DF91CF91BF91AF919F918F917F916F91E7
:102930005F914F913F912F911F910F91FF90EF90D9
:10294000DF900F900BBE0F900FBE0F901F90189549
:10295000282F8093D107E8E8F9E035E080E092E0A5
:1029600010823183138212829583848317821682A8
:10297000108611861286138615861486178616868B
:10298000108A719649E0EB3BF40751F78FEF91E025
:1029900090939709809396099093A8098093A7092B
:1029A00087E086B9379A80E48093BB09213049F4E7
:1029B0001092BC098091C801805C87B9339A369A1D
:1029C00008951092BC098091C801805C87B9339842
:1029D0000895982F833008F090E08091BB09890F0B
:1029E00087B9369A3699FECF54B145B1892F90E018
:1029F000342F20E0250F311DFC0154E0EE0FFF1FA6
:102A00005A95E1F7E80FF91FE857F64F3783268309
:102A100086859785281B390B008802C03595279538
:102A20000A94E2F7C901089590E0FC0164E0EE0F1A
:102A3000FF1F6A95E1F7E80FF91FE857F64F848505
:102A40009585089590E0FC0174E0EE0FFF1F7A95E4
:102A5000E1F7E80FF91FE857F64F268137818685A1
:102A60009785281B390B008802C0359527950A9455
:102A7000E2F7C901089590E0FC01A4E0EE0FFF1F0A
:102A8000AA95E1F7E80FF91FE857F64F8481958181
:102A90000895833008F080E06115710511F461E05C
:102AA00070E090E0FC01B4E0EE0FFF1FBA95E1F793
:102AB000E80FF91FE857F64F75836483089590E097
:102AC000FC0124E0EE0FFF1F2A95E1F7E80FF91F44
:102AD000E857F64F81810895833008F080E090E058
:102AE000FC0134E0EE0FFF1F3A95E1F7E80FF91F04
:102AF000E857F64F618308959091D107282F30E071
:102B0000913091F4F90154E0EE0FFF1F5A95E1F76F
:102B1000E20FF31FE857F64F848195816AE070E079
:102B20000E94523CAB0115C0F90144E0EE0FFF1FBB
:102B30004A95E1F7E20FF31FE857F64F818190E0E5
:102B400024813581829FA001839F500D929F500D5B
:102B50001124CA010895AA2797FDA095BA2FBC0198
:102B6000CD010E94203B2DEC3CEC4CE45DE30E9447
:102B7000D03B08958F929F92AF92BF92CF92DF92F7
:102B8000EF92FF920F931F93CF93DF93E091BC09D5
:102B9000F0E0E853FE4FD0808091D107813009F4F6
:102BA00070C08D2C9924F401A4E0EE0FFF1FAA95AC
:102BB000E1F7E80DF91DE857F64F8081882329F0E9
:102BC0000E947711892B09F04FC0E40174E0CC0F0B
:102BD000DD1F7A95E1F7C80DD91DC857D64FE88497
:102BE000F9840A851B858D2D0E94E9145C01CC2493
:102BF000B7FCC094DC2CAE0CBF1CC01ED11EA88636
:102C0000B986CA86DB868A819B8101969B838A83EB
:102C10004C815D819A01215030402817390778F4A2
:102C20001B821A829A0140E050E0C601B5010E9461
:102C30009B3C3D872C87188619861A861B86840143
:102C400064E0000F111F6A95E1F7080D191D085780
:102C5000164FF80180810E94C311F801818190E034
:102C60000E948911F8018083E091BC09EF5FE09335
:102C7000BC09F0E0E853FE4F80818F3F11F41092C1
:102C8000BC09DF91CF911F910F91FF90EF90DF90E2
:102C9000CF90BF90AF909F908F90089520E030E04C
:102CA0004CE350E0F901EB5CF54F1082249FF001FA
:102CB000259FF00D349FF00D1124E354F64F80E072
:102CC00090E01192119201968E319105D1F72F5F0C
:102CD0003F4F2230310531F708958091D2078F5F41
:102CE0008093D207823011F41092D2070895809118
:102CF000D207882319F482E08093D2078091D2070B
:102D000081508093D20708958091D207282F30E018
:102D1000F901EB5CF54F80818F5F80838E3109F480
:102D20001082D901AB5CB54F8C91F90145E0EE0FF3
:102D3000FF1F4A95E1F7220F331FE21BF30BE80F49
:102D4000F11DEE0FFF1FE354F64F80819181892B17
:102D500009F41C9208958091D207A82FB0E0FD01DC
:102D6000EB5CF54F8081882311F48EE18083FD01B7
:102D7000EB5CF54F4081CD01880F991F9D0165E007
:102D8000220F331F6A95E1F7281B390B4150F901D7
:102D9000E40FF11DEE0FFF1FE354F64F8081918188
:102DA000892B31F4442391F7AB5CB54F1C92089505
:102DB000AB5CB54F4C9308958091D20708958091F4
:102DC000D207E5E3FAE0E80FF11D808108958091D4
:102DD000D20790E0FC01EB5CF54F2081FC0135E06F
:102DE000EE0FFF1F3A95E1F7880F991FE81BF90BCB
:102DF000E20FF11DEE0FFF1FE354F64F0190F0813B
:102E0000E02D099508959C01E199FECF3FBB2EBBB3
:102E1000E09A8DB308959C01E199FECF3FBB2EBB94
:102E20006DBB0FB6F894E29AE19A0FBE089584E65E
:102E300094E29093BE098093BD098FEB99E2909341
:102E4000C0098093BF0989E29AE29093C2098093F6
:102E5000C1098DE79BE29093C4098093C30981E582
:102E60009BE29093C6098093C50987EC9BE1909300
:102E7000C8098093C7098BE197E29093CA098093B0
:102E8000C90987EF96E29093CC098093CB0983ED33
:102E900096E29093CE098093CD0984EA9BE19093CA
:102EA000D0098093CF098AE080933D0A88E595E2B6
:102EB0009093D2098093D1098EED90E29093FA0914
:102EC0008093F90985E891E29093FC098093FB09CE
:102ED00085E39EE19093FE098093FD0984ED9DE1D9
:102EE0009093000A8093FF0980E599E29093020A8B
:102EF0008093010A8AEE98E29093040A8093030A71
:102F00008EE99EE19093060A8093050A87EC97E28A
:102F10009093080A8093070A8FE697E290930A0A33
:102F20008093090A83E898E290930C0A80930B0A35
:102F300087E298E290930E0A80930D0A88E49DE15F
:102F40009093100A80930F0A89E890E29093120AF6
:102F50008093110A8FEC9FE19093140A8093130AD7
:102F600080E290E29093160A8093150A84E39FE131
:102F70009093180A8093170A8EEE9EE190931A0A96
:102F80008093190A84E49CE190931C0A80931B0AA5
:102F900080EF9BE190931E0A80931D0A8AE79FE1D0
:102FA0009093200A80931F0A88E09DE19093220A63
:102FB0008093210A87E99CE19093240A8093230A55
:102FC00084EB9DE19093260A8093250A82E99DE196
:102FD0009093280A8093270A8CE194E290932A0A1E
:102FE0008093290A8EE893E290932C0A80932B0A0F
:102FF00080E093E290932E0A80932D0A089588E949
:1030000093E5A0E0B0E08093370A9093380AA0934C
:10301000390AB0933A0A82E093E5A0E0B0E08093E9
:103020003E0A90933F0AA093400AB093410A66E695
:1030300073E580E090E00E94B01384E68093440A38
:103040001092420A88EC90E090933C0A80933B0AED
:1030500021E020933C0810923E081092B007209384
:10306000390885E080933D088FEF8093450A8AE018
:103070008093460A80E092ECA1E0B0E08093730870
:1030800090937408A0937508B09376082093FD0779
:103090008BE490E09093480A8093470A80E590E0A3
:1030A00090934A0A8093490A80E061E00E946C157F
:1030B00080E068EC70E00E94491581E061E00E94C8
:1030C0006C1581E068EC70E00E94491582E061E0D7
:1030D0000E946C1582E068EC70E00E94491583E064
:1030E0000E9496048FE580934C0A10924D0A83E665
:1030F0008093A70685E48093F80788E592E0909393
:10310000900680938F0608956091370A7091380A6F
:1031100080E090E04BE057E10E94BE3960913E0AAA
:1031200070913F0A82E090E04BE057E10E94BE3987
:10313000609184097091850984E090E04BE057E14B
:103140000E94BE392091440AE199FECF88E090E0C8
:103150009FBB8EBB2DBB0FB6F894E29AE19A0FBECF
:103160002091420AE199FECF86E090E09FBB8EBBA2
:103170002DBB0FB6F894E29AE19A0FBE80E00E9450
:103180005F15282FE199FECF89E090E09FBB8EBBB1
:103190002DBB0FB6F894E29AE19A0FBE80E00E9430
:1031A0003B15BC018AE090E04BE057E10E94BE393C
:1031B00081E00E945F15282FE199FECF8CE090E01E
:1031C0009FBB8EBB2DBB0FB6F894E29AE19A0FBE5F
:1031D00081E00E943B15BC018DE090E04BE057E19F
:1031E0000E94BE3982E00E945F15282FE199FECF30
:1031F0008FE090E09FBB8EBB2DBB0FB6F894E29A98
:10320000E19A0FBE82E00E943B15BC0180E190E094
:103210004BE057E10E94BE392091FC07E199FECFB7
:1032200085E190E09FBB8EBB2DBB0FB6F894E29A70
:10323000E19A0FBE60913B0A70913C0A86E190E0F2
:103240004BE057E10E94BE3920913C08E199FECF46
:1032500088E190E09FBB8EBB2DBB0FB6F894E29A3D
:10326000E19A0FBE20913908E199FECF89E190E003
:103270009FBB8EBB2DBB0FB6F894E29AE19A0FBEAE
:1032800020913D08E199FECF8AE190E09FBB8EBB83
:103290002DBB0FB6F894E29AE19A0FBE2091450A31
:1032A000E199FECF8BE190E09FBB8EBB2DBB0FB6AB
:1032B000F894E29AE19A0FBE2091460AE199FECF76
:1032C0008CE190E09FBB8EBB2DBB0FB6F894E29AC9
:1032D000E19A0FBE60917308709174088DE190E0DF
:1032E0004BE057E10E94BE39209173083091740879
:1032F00040917508509176089A01442755278FE12F
:1033000090E0B9014BE057E10E94BE392091FD07E2
:10331000E199FECF81E290E09FBB8EBB2DBB0FB643
:10332000F894E29AE19A0FBE6091470A7091480AB8
:1033300082E290E04BE057E10E94BE396091490A79
:1033400070914A0A84E290E04BE057E10E94BE3956
:1033500020914C0AE199FECF87E290E09FBB8EBBA3
:103360002DBB0FB6F894E29AE19A0FBE20914D0A58
:10337000E199FECF86E290E09FBB8EBB2DBB0FB6DE
:10338000F894E29AE19A0FBE2091A706E199FECF48
:1033900088E290E09FBB8EBB2DBB0FB6F894E29AFB
:1033A000E19A0FBE2091F807E199FECF89E290E003
:1033B0009FBB8EBB2DBB0FB6F894E29AE19A0FBE6D
:1033C00020913E08E199FECF8AE290E09FBB8EBB40
:1033D0002DBB0FB6F894E29AE19A0FBE2091B00788
:1033E000E199FECF8BE290E09FBB8EBB2DBB0FB669
:1033F000F894E29AE19A0FBE60918F067091900660
:103400008CE290E04BE057E10E94BE390895EF92C4
:10341000FF920F931F9380E090E063E077E10E94BA
:10342000A839A0E0B0E08093370A9093380AA093BF
:10343000390AB0933A0A82E090E063E077E10E94B3
:10344000A839A0E0B0E080933E0A90933F0AA09391
:10345000400AB093410A84E090E063E077E10E9483
:10346000A839A0E0B0E0BC01CD010E94B013E19901
:10347000FECF88E090E09FBB8EBBE09A8DB3809337
:10348000440AE199FECF86E090E09FBB8EBBE09AB4
:103490008DB38093420AE199FECF89E090E09FBB13
:1034A0008EBBE09A6DB380E00E946C158AE090E0DC
:1034B00063E077E10E94A839BC0180E00E944915D1
:1034C000E199FECF8CE090E09FBB8EBBE09A6DB39C
:1034D00081E00E946C158DE090E063E077E10E944E
:1034E000A839BC0181E00E944915E199FECF8FE027
:1034F00090E09FBB8EBBE09A6DB382E00E946C159A
:1035000080E190E063E077E10E94A839BC0182E0AD
:103510000E944915E199FECF85E190E09FBB8EBBEB
:10352000E09A8DB30E94960486E190E063E077E133
:103530000E94A83990933C0A80933B0AE199FECF00
:1035400088E190E09FBB8EBBE09A8DB380933C08EE
:10355000E199FECF89E190E09FBB8EBBE09A8DB3ED
:1035600080933908E199FECF8AE190E09FBB8EBB42
:10357000E09A8DB380933D08E199FECF8BE190E016
:103580009FBB8EBBE09A8DB38093450AE199FECF35
:103590008CE190E09FBB8EBBE09A8DB38093460A8E
:1035A0008DE190E063E077E10E94A8397C0100E0C2
:1035B00010E0E0927308F09274080093750810937D
:1035C00076088FE190E063E077E10E94A839A0E0FF
:1035D000B0E0DC01992788278E299F29A02BB12BE9
:1035E0008093730890937408A0937508B09376083D
:1035F000E199FECF81E290E09FBB8EBBE09A8DB354
:103600008093FD0782E290E063E077E10E94A839B1
:103610009093480A8093470A84E290E063E077E160
:103620000E94A83990934A0A8093490AE199FECFF3
:1036300087E290E09FBB8EBBE09A8DB380934C0AEB
:10364000E199FECF86E290E09FBB8EBBE09A8DB3FE
:1036500080934D0AE199FECF88E290E09FBB8EBB3C
:10366000E09A8DB38093A706E199FECF89E290E0BE
:103670009FBB8EBBE09A8DB38093F807E199FECF94
:103680008AE290E09FBB8EBBE09A8DB380933E08A8
:10369000E199FECF8BE290E09FBB8EBBE09A8DB3A9
:1036A0000E9476048CE290E063E077E10E94A83902
:1036B0009093900680938F061F910F91FF90EF904B
:1036C000089580917C0986FF07C00E94AB16809107
:1036D0007C098F7B80937C0980917C0983FF07C0E4
:1036E0000E94841680917C09877F80937C09809159
:1036F0007C0987FF07C00E946D1680917C098F7737
:1037000080937C0980917C0980FF07C00E94A607F6
:1037100080917C098E7F80937C0980917C0981FF58
:1037200012C00E94C52E882311F080E005C01092BF
:10373000B2071092B30785E00E94190780917C09B7
:103740008D7F80937C09089500D000D000D0EDB724
:10375000FEB731968AE998E0ADB7BEB712969C9352
:103760008E9311978CEC91E0938382838DED91E0A1
:10377000958384830E94FF398DB79EB706960FB656
:10378000F8949EBF0FBE8DBF0E94611B089500D0AC
:1037900000D000D0EDB7FEB731968AE998E0ADB71A
:1037A000BEB712969C938E93119786EE91E0938309
:1037B00082838091B1072FE0829FC00111248D5B2D
:1037C000994F958384830E94FF398DB79EB70696E3
:1037D0000FB6F8949EBF0FBE8DBF0E94611B089567
:1037E00080917C0982FF16C02091490A30914A0AD3
:1037F0008091470A9091480A8217930730F421502C
:10380000304030934A0A2093490A80917C098B7F8B
:1038100080937C0980917C0984FF11C08091490AC2
:1038200090914A0A8F35910528F4019690934A0A9F
:103830008093490A80917C098F7E80937C0900D017
:1038400000D000D0EDB7FEB731968AE998E0ADB769
:10385000BEB712969C938E93119781EF91E093835C
:1038600082838091490A90914A0A958384830E94B9
:10387000FF398DB79EB706960FB6F8949EBF0FBE60
:103880008DBF0E94611B089580917C0982FF10C04A
:103890008091470A9091480A009729F001979093E8
:1038A000480A8093470A80917C098B7F80937C092A
:1038B00080917C0984FF16C02091470A3091480A04
:1038C0008091490A90914A0A2817390730F42F5FEE
:1038D0003F4F3093480A2093470A80917C098F7E9E
:1038E00080937C0900D000D000D0EDB7FEB73196B0
:1038F0008AE998E0ADB7BEB712969C938E93119764
:1039000088E092E0938382838091470A9091480AED
:10391000958384830E94FF398DB79EB706960FB6B4
:10392000F8949EBF0FBE8DBF0E94611B08951F9328
:103930002091730830917408409175085091760871
:10394000E7E2F6E010E080819181A281B38128173F
:1039500039074A075B0721F01F5F3496173099F744
:103960008DB79EB708970FB6F8949EBF0FBE8DBF58
:10397000EDB7FEB731968AE998E0ADB7BEB71296BB
:103980009C938E93119780E292E0938382832483A9
:103990003583468357830E94FF3980917C092DB778
:1039A0003EB7285F3F4F0FB6F8943EBF0FBE2DBF06
:1039B00084FF09C01F5F173009F410E080917C0973
:1039C0008F7E80937C0980917C0982FF09C011233E
:1039D00009F417E0115080917C098B7F80937C095A
:1039E000E12FF0E0EE0FFF1FEE0FFF1FE95DF94F33
:1039F00080819181A281B381809373089093740830
:103A0000A0937508B09376080E94611B1F910895DA
:103A100000D000D000D0EDB7FEB731968AE998E02B
:103A2000ADB7BEB712969C938E93119781E392E047
:103A3000938382838091FD07848315820E94FF39DE
:103A400080917C092DB73EB72A5F3F4F0FB6F8949F
:103A50003EBF0FBE2DBF84FF0AC08091FD078F5F60
:103A60008093FD0780917C098F7E80937C098091F3
:103A70007C0982FF0AC08091FD0781508093FD0779
:103A800080917C098B7F80937C090E94611B089543
:103A900000D000D000D0EDB7FEB731968AE998E0AB
:103AA000ADB7BEB712969C938E93119786E492E0C1
:103AB0009383828380913B0A90913C0A958384830F
:103AC0000E94FF3980917C092DB73EB72A5F3F4F96
:103AD0000FB6F8943EBF0FBE2DBF84FF0EC080917D
:103AE0003B0A90913C0A019690933C0A80933B0AD2
:103AF00080917C098F7E80937C0980917C0982FF74
:103B00000EC080913B0A90913C0A019790933C0A29
:103B100080933B0A80917C098B7F80937C090E9473
:103B2000611B089580917C0985FF15C00E94FF17D5
:103B30000E9484188AE998E06CE572E00E94963948
:103B40000E94FA0C84EF91E00E94571180917C0949
:103B50008F7D80937C098AE998E061E772E00E949A
:103B600096390E94611B089580917C0985FF13C0DE
:103B70000E9484188AE998E066E872E00E9496390B
:103B80000E94FA0C84EF91E00E94571180917C0909
:103B90008F7D80937C098AE998E06BE972E00E944E
:103BA00096390E94611B089580917C0982FF0CC0A8
:103BB0008091460A8B3018F081508093460A80919C
:103BC0007C098B7F80937C0980917C0984FF1FC0D6
:103BD0009091460A8091440A981738F48091450ADA
:103BE000981718F49F5F9093460A0E94C52E882369
:103BF00049F09091460A8091430A891718F4892F59
:103C00000E94392D80917C098F7E80937C09809160
:103C1000460A0E94542D2DB73EB7285030400FB6AB
:103C2000F8943EBF0FBE2DBFEDB7FEB731962AE91F
:103C300038E0ADB7BEB712963C932E93119720EBA8
:103C400032E03383228364837583868397830E9463
:103C5000FF392DB73EB7285F3F4F0FB6F8943EBFF0
:103C60000FBE2DBF0E94611B089580917C0982FFC9
:103C700027C04091450A8091420A2091440A30E0D1
:103C8000280F311D842F90E0281739073CF48091CC
:103C9000460A841718F441504093450A0E94C52EE5
:103CA000882349F09091450A8091430A981718F4A7
:103CB000892F0E94392D80917C098B7F80937C090C
:103CC00080917C0984FF0CC08091450A8F3F19F0D8
:103CD0008F5F8093450A80917C098F7E80937C0959
:103CE0008091450A0E94542D2DB73EB72850304090
:103CF0000FB6F8943EBF0FBE2DBFEDB7FEB731969D
:103D00002AE938E0ADB7BEB712963C932E931197CF
:103D100027EC32E033832283648375838683978321
:103D20000E94FF392DB73EB7285F3F4F0FB6F8947A
:103D30003EBF0FBE2DBF0E94611B089580917C097C
:103D400082FF11C080918F0690919006893C910569
:103D500028F001979093900680938F0680917C09BC
:103D60008B7F80937C0980917C0984FF12C08091B5
:103D70008F069091900627E0803D920728F40196E7
:103D80009093900680938F0680917C098F7E80931C
:103D90007C0900D000D000D0EDB7FEB731968AE99B
:103DA00098E0ADB7BEB712969C938E9311978FEDA6
:103DB00092E09383828380918F0690919006958301
:103DC00084830E94FF398DB79EB706960FB6F8948C
:103DD0009EBF0FBE8DBF0E94611B089580917C091C
:103DE00082FF0CC080913D0818161CF4815080930E
:103DF0003D0880917C098B7F80937C0980917C09B0
:103E000084FF0CC080913D088A301CF48F5F809342
:103E10003D0880917C098F7E80937C0900D000D082
:103E200000D0EDB7FEB731968AE998E0ADB7BEB7DE
:103E300012969C938E93119783EF92E093838283E3
:103E400080913D08992787FD9095958384830E94F2
:103E5000FF398DB79EB706960FB6F8949EBF0FBE7A
:103E60008DBF0E94611B089580917C0982FF0CC068
:103E70008091390818161CF481508093390880917C
:103E80007C098B7F80937C0980917C0984FF0CC026
:103E9000809139088A301CF48F5F809339088091B3
:103EA0007C098F7E80937C0900D000D000D0EDB7D4
:103EB000FEB731968AE998E0ADB7BEB712969C93EB
:103EC0008E93119786E093E09383828380913908E3
:103ED000992787FD9095958384830E94FF398DB73C
:103EE0009EB706960FB6F8949EBF0FBE8DBF0E9478
:103EF000611B089580917C0982FF11C08091B007F9
:103F0000882319F482E08093B0078091B007815034
:103F10008093B00780917C098B7F80937C0980918E
:103F20007C0984FF0EC08091B0078F5F8093B0073B
:103F3000823010F01092B00780917C098F7E8093C0
:103F40007C098091B007813019F028E133E002C08C
:103F50002CE133E000D000D000D0EDB7FEB73196B1
:103F60008AE998E0ADB7BEB712969C938E931197ED
:103F70008FE193E093838283358324830E94FF390A
:103F80008DB79EB706960FB6F8949EBF0FBE8DBF35
:103F90008091B0070E9476040E94611B0895809171
:103FA0007C0982FF11C080913E08882319F482E0C9
:103FB00080933E0880913E08815080933E08809116
:103FC0007C098B7F80937C0980917C0984FF0EC0E3
:103FD00080913E088F5F80933E08823010F01092EF
:103FE0003E0880917C098F7E80937C0980913E08F9
:103FF000813019F028E133E002C02CE133E000D039
:1040000000D000D0EDB7FEB731968AE998E0ADB7A1
:10401000BEB712969C938E9311978FE293E0938391
:104020008283358324830E94FF398DB79EB706961D
:104030000FB6F8949EBF0FBE8DBF0E94611B0895FE
:1040400080917C0982FF1CC080913C08813019F46A
:1040500084E080933C0880913C08815080933C0828
:10406000813019F40E94720406C00E94C52E882374
:1040700011F00E94B20480917C098B7F80937C09AF
:1040800080917C0984FF1CC080913C088F5F8093E5
:104090003C08843018F081E080933C0880913C0813
:1040A000813019F40E94720406C00E94C52E882334
:1040B00011F00E94B20480917C098F7E80937C096C
:1040C00000D000D000D0EDB7FEB731968AE998E075
:1040D000ADB7BEB712969C938E93119784E493E08C
:1040E0009383828380913C0825E0829FC001112444
:1040F0008D5E994F958384830E94FF398DB79EB75B
:1041000006960FB6F8949EBF0FBE8DBF0E94611B2E
:10411000089580917C0982FF11C08091FC07813055
:1041200019F484E08093FC078091FC078150809310
:10413000FC0780917C098B7F80937C0980917C09AE
:1041400084FF0FC08091FC078F5F8093FC07843051
:1041500018F081E08093FC0780917C098F7E80932A
:104160007C0900D000D000D0EDB7FEB731968AE9C7
:1041700098E0ADB7BEB712969C938E93119784E5E5
:1041800093E0938382838091FC0725E0829FC001A6
:10419000112481509A4F958384830E94FF398DB7F3
:1041A0009EB706960FB6F8949EBF0FBE8DBF809146
:1041B000FC070E9496040E94611B089580917C096F
:1041C00082FF46C08091370A9091380AA091390A3F
:1041D000B0913A0A0197A109B1098093370A9093E7
:1041E000380AA093390AB0933A0A20913E0A3091D6
:1041F0003F0A4091400A5091410A82179307A40751
:10420000B50740F42093370A3093380A4093390AAF
:1042100050933A0A2091370A3091380A4091390A6E
:1042200050913A0A8091840990918509A09186095C
:10423000B0918709281739074A075B0720F4CA019C
:10424000B9010E94B01380917C098B7F80937C0917
:1042500080917C0984FF29C08091370A9091380AA7
:10426000A091390AB0913A0A0196A11DB11D80931F
:10427000370A9093380AA093390AB0933A0A8153C7
:104280009547A040B04060F080E395E7A0E0B0E043
:104290008093370A9093380AA093390AB0933A0A68
:1042A00080917C098F7E80937C098DB79EB708979B
:1042B0000FB6F8949EBF0FBE8DBFEDB7FEB7319617
:1042C0008AE998E0ADB7BEB712969C938E9311978A
:1042D0008DE593E0938382838091370A9091380A29
:1042E000A091390AB0913A0A84839583A683B78353
:1042F0000E94FF398DB79EB708960FB6F8949EBFFF
:104300000FBE8DBF0E94611B089580917C0982FFC2
:1043100029C080913E0A90913F0AA091400AB09135
:10432000410A0197A109B10980933E0A90933F0A7F
:10433000A093400AB093410A88569244A040B040EE
:1043400060F488E692E4A0E0B0E080933E0A9093A7
:104350003F0AA093400AB093410A80917C098B7F69
:1043600080937C0980917C0984FF46C080913E0A3D
:1043700090913F0AA091400AB091410A0196A11D77
:10438000B11D80933E0A90933F0AA093400AB093D8
:10439000410A2091370A3091380A4091390A5091E8
:1043A0003A0A281739074A075B0740F420933E0A68
:1043B00030933F0A4093400A5093410A20913E0AAD
:1043C00030913F0A4091400A5091410A80918409FE
:1043D00090918509A0918609B0918709821793076A
:1043E000A407B50720F4CA01B9010E94B013809157
:1043F0007C098F7E80937C098DB79EB708970FB696
:10440000F8949EBF0FBE8DBFEDB7FEB731968AE917
:1044100098E0ADB7BEB712969C938E93119781E743
:1044200093E09383828380913E0A90913F0AA0910A
:10443000400AB091410A84839583A683B7830E9482
:10444000FF398DB79EB708960FB6F8949EBF0FBE82
:104450008DBF0E94611B089580917C0984FF0DC06F
:1044600083E00E945F15682F6F5F83E00E946C15E8
:1044700080917C098F7E80937C0980917C0982FFEA
:104480000DC083E00E945F15682F615083E00E9499
:104490006C1580917C098B7F80937C0983E00E945E
:1044A0005F1500D000D000D0EDB7FEB731962AE9F5
:1044B00038E0ADB7BEB712963C932E93119725E81E
:1044C00033E033832283848315820E94FF398DB7C2
:1044D0009EB706960FB6F8949EBF0FBE8DBF0E9482
:1044E000611B089580917C0984FF0EC083E00E94C7
:1044F0003B15BC016F5F7F4F83E00E94491580919F
:104500007C098F7E80937C0980917C0982FF0EC09C
:1045100083E00E943B15BC016150704083E00E9423
:10452000491580917C098B7F80937C0983E00E94F0
:104530003B1500D000D000D0EDB7FEB731962AE988
:1045400038E0ADB7BEB712963C932E93119726E98B
:1045500033E033832283958384830E94FF398DB7B0
:104560009EB706960FB6F8949EBF0FBE8DBF0E94F1
:10457000611B089580917C0984FF0DC082E00E9438
:104580005F15682F6F5F82E00E946C1580917C0937
:104590008F7E80937C0980917C0982FF0DC082E030
:1045A0000E945F15682F615082E00E946C15809117
:1045B0007C098B7F80937C0982E00E945F1500D08C
:1045C00000D000D0EDB7FEB731962AE938E0ADB79C
:1045D000BEB712963C932E93119728EA33E03383AB
:1045E0002283848315820E94FF398DB79EB7069679
:1045F0000FB6F8949EBF0FBE8DBF0E94611B089539
:1046000080917C0984FF0EC082E00E943B15BC01B2
:104610006F5F7F4F82E00E94491580917C098F7EF9
:1046200080937C0980917C0982FF0EC082E00E9409
:104630003B15BC016150704082E00E944915809199
:104640007C098B7F80937C0982E00E943B1500D01F
:1046500000D000D0EDB7FEB731962AE938E0ADB70B
:10466000BEB712963C932E93119729EB33E0338318
:104670002283958384830E94FF398DB79EB7069667
:104680000FB6F8949EBF0FBE8DBF0E94611B0895A8
:1046900080917C0984FF0DC081E00E945F15682F26
:1046A0006F5F81E00E946C1580917C098F7E809302
:1046B0007C0980917C0982FF0DC081E00E945F151A
:1046C000682F615081E00E946C1580917C098B7F7E
:1046D00080937C0981E00E945F1500D000D000D05B
:1046E000EDB7FEB731962AE938E0ADB7BEB71296FE
:1046F0003C932E9311972BEC33E0338322838483F6
:1047000015820E94FF398DB79EB706960FB6F894B2
:104710009EBF0FBE8DBF0E94611B089580917C09D2
:1047200084FF0EC081E00E943B15BC016F5F7F4F8C
:1047300081E00E94491580917C098F7E80937C09DD
:1047400080917C0982FF0EC081E00E943B15BC0174
:104750006150704081E00E94491580917C098B7FF7
:1047600080937C0981E00E943B1500D000D000D0EE
:10477000EDB7FEB731962AE938E0ADB7BEB712966D
:104780003C932E9311972CED33E033832283958352
:1047900084830E94FF398DB79EB706960FB6F894B2
:1047A0009EBF0FBE8DBF0E94611B089580917C0942
:1047B00084FF0DC080E00E945F15682F6F5F80E06E
:1047C0000E946C1580917C098F7E80937C0980917A
:1047D0007C0982FF0DC080E00E945F15682F615048
:1047E00080E00E946C1580917C098B7F80937C090E
:1047F00080E00E945F1500D000D000D0EDB7FEB77A
:1048000031962AE938E0ADB7BEB712963C932E93A5
:1048100011972EEE33E033832283848315820E9426
:10482000FF398DB79EB706960FB6F8949EBF0FBEA0
:104830008DBF0E94611B089580917C0984FF0EC08A
:1048400080E00E943B15BC016F5F7F4F80E00E94BB
:10485000491580917C098F7E80937C0980917C0929
:1048600082FF0EC080E00E943B15BC016150704089
:1048700080E00E94491580917C098B7F80937C09A0
:1048800080E00E943B1500D000D000D0EDB7FEB70D
:1048900031962AE938E0ADB7BEB712963C932E9315
:1048A00011972FEF33E033832283958384830E9413
:1048B000FF398DB79EB706960FB6F8949EBF0FBE10
:1048C0008DBF0E94611B0895AF92BF92CF92DF927D
:1048D000EF92FF920F931F9380917C0984FF37C062
:1048E0008091840990918509A0918609B0918709EA
:1048F0000196A11DB11D8093840990938509A09311
:104900008609B09387092091370A3091380A40917F
:10491000390A50913A0A281739074A075B0740F4C9
:104920002093840930938509409386095093870921
:104930006091840970918509809186099091870919
:104940000E94B01380917C098F7E80937C098091B6
:104950007C0982FF37C08091840990918509A091DC
:104960008609B09187090197A109B109809384094B
:1049700090938509A0938609B093870920913E0AF8
:1049800030913F0A4091400A5091410A82179307A3
:10499000A407B50740F42093840930938509409318
:1049A00086095093870960918409709185098091E7
:1049B0008609909187090E94B01380917C098B7FB2
:1049C00080937C0981E00E9414158C0180E00E9494
:1049D00014157C01C8010E94AB155B016C0120E03D
:1049E00030E040E050E00E94813A882354F40F2EDA
:1049F000F0E0AF2EF0E0BF2EF0E0CF2EF0E0DF2EA3
:104A0000F02DC7010E94AB157B018C0120E030E046
:104A100040E050E00E94813A882354F40F2EF0E0E9
:104A2000EF2EF0E0FF2EF0E00F2FF0E01F2FF02D23
:104A30008DB79EB740970FB6F8949EBF0FBE8DBF3F
:104A4000EDB7FEB731968AE998E0ADB7BEB71296DA
:104A50009C938E93119781E194E09383828380915C
:104A6000840990918509A0918609B0918709848372
:104A70009583A683B783A086B186C286D386E48653
:104A8000F586068717870E94FF398DB79EB7409637
:104A90000FB6F8949EBF0FBE8DBF0E94611B1F9181
:104AA0000F91FF90EF90DF90CF90BF90AF9008955F
:104AB000CF92DF92EF92FF920F931F9380917C0928
:104AC00085FF41C08091D3078823C1F50E947204FD
:104AD00081E00E947C1520913B0A30913C0A280F0E
:104AE000391F3093D5072093D40760913E0A709107
:104AF0003F0A8091400A9091410A0E94B013809130
:104B00003E0A90913F0AA091400AB091410A8093D9
:104B1000DD079093DE07A093DF07B093E007809353
:104B2000D9079093DA07A093DB07B093DC071092C4
:104B3000D8071092D70781E08093D30780917C0932
:104B40008F7D80937C098091D307882309F4F8C076
:104B500020918409309185094091860950918709F7
:104B60008091370A9091380AA091390AB0913A0A97
:104B7000281739074A075B0708F09CC08091D607C1
:104B8000882349F48091D4079091D5070E94891118
:104B90008093D607DDC00E947711892B09F0D8C019
:104BA0008091D6070E94C3111092D607F89481E035
:104BB0000E941415D82EC92E7894E0908409F090A4
:104BC000850900918609109187090E94AB152DB7C0
:104BD0003EB72C5030400FB6F8943EBF0FBE2DBFED
:104BE000EDB7FEB731962AE938E0ADB7BEB71296F9
:104BF0003C932E93119720E334E033832283E482A5
:104C0000F5820683178360877187828793870E9466
:104C1000FF398D2D9C2D2091D7073091D8074DB7A6
:104C20005EB7445F5F4F0FB6F8945EBF0FBE4DBFD7
:104C300028173907A8F49093D8078093D707809155
:104C4000840990918509A0918609B0918709809384
:104C5000DD079093DE07A093DF07B093E00713C052
:104C60008217930781F48091840990918509A0911E
:104C70008609B09187098093D9079093DA07A093AA
:104C8000DB07B093DC0760918409709185098091FE
:104C9000860990918709665F7F4F8F4F9F4F609382
:104CA00084097093850980938609909387090E94EF
:104CB000B0134EC02091DD073091DE074091DF0731
:104CC0005091E0078091D9079091DA07A091DB0716
:104CD000B091DC0782179307A407B50740F420932F
:104CE000D9073093DA074093DB075093DC078091B4
:104CF000D9079091DA07A091DB07B091DC07280F64
:104D0000391F4A1F5B1F5695479537952795CA014E
:104D1000B9010E94B0138091420A9091440A890F10
:104D20000E94392D80914D0A90914C0A890F0E9462
:104D3000FE2E0E9484160E94B2041092D30708C06F
:104D40008AE998E068E474E00E9496390E94611B49
:104D50001F910F91FF90EF90DF90CF90089583E027
:104D60000E94141500D000D000D0EDB7FEB73196E8
:104D70002AE938E0ADB7BEB712963C932E9311974F
:104D80002DE534E033832283958384830E94FF39A9
:104D90008DB79EB706960FB6F8949EBF0FBE8DBF17
:104DA0000E94611B089582E00E94141500D000D07B
:104DB00000D0EDB7FEB731962AE938E0ADB7BEB7FF
:104DC00012963C932E93119728E634E03383228386
:104DD000958384830E94FF398DB79EB706960FB6E0
:104DE000F8949EBF0FBE8DBF0E94611B089581E0A5
:104DF0000E94141500D000D000D0EDB7FEB7319658
:104E00002AE938E0ADB7BEB712963C932E931197BE
:104E100023E734E033832283958384830E94FF3920
:104E20008DB79EB706960FB6F8949EBF0FBE8DBF86
:104E30000E94611B089580E00E94141500D000D0EC
:104E400000D0EDB7FEB731962AE938E0ADB7BEB76E
:104E500012963C932E9311972EE734E033832283EE
:104E6000958384830E94FF398DB79EB706960FB64F
:104E7000F8949EBF0FBE8DBF0E94611B08958DB731
:104E80009EB708970FB6F8949EBF0FBE8DBFEDB7C3
:104E9000FEB731968AE998E0ADB7BEB712969C93FB
:104EA0008E93119789E894E093838283809180099F
:104EB00090918109A0918209B0918309848395839F
:104EC000A683B7830E94FF398DB79EB708960FB6A9
:104ED000F8949EBF0FBE8DBF0E94611B0895809104
:104EE0007C0982FF0CC08091F807863418F081504D
:104EF0008093F80780917C098B7F80937C09809157
:104F00007C0984FF1FC09091F80780914C0A981784
:104F100038F48091A706981718F49F5F9093F807CC
:104F20000E94C52E882349F09091F80780914B0A82
:104F3000891718F4892F0E94FE2E80917C098F7E9C
:104F400080937C0900D000D000D0EDB7FEB7319639
:104F50008AE998E0ADB7BEB712969C938E931197ED
:104F60008EE994E0938382838091F80790E0019624
:104F7000958384830E94FF398DB79EB706960FB63E
:104F8000F8949EBF0FBE8DBF0E94611B0895809153
:104F90007C0982FF27C04091A70680914D0A20918D
:104FA0004C0A30E0280F311D842F90E02817390774
:104FB0003CF48091F807841718F441504093A706F9
:104FC0000E94C52E882349F09091A70680914B0A34
:104FD000981718F4892F0E94FE2E80917C098B7FF0
:104FE00080937C0980917C0984FF0CC08091A70686
:104FF000833618F48F5F8093A70680917C098F7E9B
:1050000080937C0900D000D000D0EDB7FEB7319678
:105010008AE998E0ADB7BEB712969C938E9311972C
:1050200087EB94E0938382838091A70690E00196BA
:10503000958384830E94FF398DB79EB706960FB67D
:10504000F8949EBF0FBE8DBF0E94611B089500D0D3
:1050500000D000D0EDB7FEB731968AE998E0ADB741
:10506000BEB712969C938E9311978EEC94E0938327
:10507000828380914D0A848315820E94FF3980913A
:105080007C092DB73EB72A5F3F4F0FB6F8943EBF5D
:105090000FBE2DBF84FF1FC05091A70670914D0A0F
:1050A00060914C0A4091A606852F90E0871B9109DC
:1050B000861B9109242F30E08217930724F4561B96
:1050C00050934D0A03C0470F40934D0A80917C09CD
:1050D0008F7E80937C0980917C0982FF11C0809132
:1050E0004D0A9091A606891718F410924D0A03C034
:1050F000891B80934D0A80917C098B7F80937C096A
:105100000E94611B089500D000D000D0EDB7FEB71B
:1051100031968AE998E0ADB7BEB712969C938E930C
:10512000119787EE94E09383828380914C0A90E0FC
:105130000196958384830E94FF3980917C092DB765
:105140003EB72A5F3F4F0FB6F8943EBF0FBE2DBF4C
:1051500084FF1FC05091A70670914D0A60914C0AC0
:105160004091A606852F90E0871B9109861B910927
:10517000242F30E08217930724F4571B50934C0AD6
:1051800003C0460F40934C0A80917C098F7E809328
:105190007C0980917C0982FF1AC040914C0A609181
:1051A000F8075091A606242F30E0862F90E0850F57
:1051B000911D281739071CF460934C0A03C0451B46
:1051C00040934C0A80917C098B7F80937C090E94DC
:1051D000611B08958091420A0E94542D2DB73EB75D
:1051E000285030400FB6F8943EBF0FBE2DBFEDB72C
:1051F000FEB731962AE938E0ADB7BEB712963C93B8
:105200002E9311972FEF34E03383228364837583C9
:10521000868397830E94FF3980917C092DB73EB722
:10522000285F3F4F0FB6F8943EBF0FBE2DBF84FFDF
:105230001FC05091450A7091420A6091440A409102
:105240008E06852F90E0871B9109861B9109242FDC
:1052500030E08217930724F4561B5093420A03C090
:10526000470F4093420A80917C098F7E80937C098E
:1052700080917C0982FF11C08091420A90918E0634
:10528000891718F41092420A03C0891B8093420ABE
:1052900080917C098B7F80937C090E94611B08951B
:1052A0008091440A0E94542D2DB73EB728503040BB
:1052B0000FB6F8943EBF0FBE2DBFEDB7FEB73196C7
:1052C0002AE938E0ADB7BEB712963C932E931197FA
:1052D0002AE135E033832283648375838683978351
:1052E0000E94FF3980917C092DB73EB7285F3F4F60
:1052F0000FB6F8943EBF0FBE2DBF84FF1FC0509164
:10530000450A7091420A6091440A40918E06852FA9
:1053100090E0871B9109861B9109242F30E08217AA
:10532000930724F4571B5093440A03C0460F40933D
:10533000440A80917C098F7E80937C0980917C094E
:1053400082FF1AC04091440A6091460A50918E062D
:10535000242F30E0862F90E0850F911D2817390704
:105360001CF46093440A03C0451B4093440A809197
:105370007C098B7F80937C090E94611B089500D07B
:1053800000D000D0EDB7FEB731968AE998E0ADB70E
:10539000BEB712969C938E93119784E395E0938306
:1053A000828380914B0A90E00196958384830E94CA
:1053B000FF3980917C092DB73EB72A5F3F4F0FB66A
:1053C000F8943EBF0FBE2DBF84FF1EC06091A7069C
:1053D00050914B0A4091A606862F90E0851B9109BB
:1053E000242F30E0821793071CF460934B0A03C00C
:1053F000450F40934B0A80914B0A0E94FE2E8091EC
:105400007C098F7E80937C0980917C0982FF1EC07D
:1054100040914B0A6091F8075091A606242F30E086
:10542000862F90E0850F911D281739071CF4609393
:105430004B0A03C0451B40934B0A80914B0A0E94C4
:10544000FE2E80917C098B7F80937C090E94611BDA
:1054500008958091430A0E94542D2DB73EB72850DD
:1054600030400FB6F8943EBF0FBE2DBFEDB7FEB76C
:1054700031962AE938E0ADB7BEB712963C932E9329
:10548000119720E535E03383228364837583868317
:1054900097830E94FF3980917C092DB73EB7285F22
:1054A0003F4F0FB6F8943EBF0FBE2DBF84FF25C0FF
:1054B0005091430A552329F48091460A8093430A68
:1054C00013C06091450A40918E06862F90E0851B9F
:1054D0009109242F30E0821793071CF46093430A4C
:1054E00003C0450F4093430A8091430A0E94392D1F
:1054F00080917C098F7E80937C0980917C0982FF5A
:1055000023C04091430A5091460A451719F410925E
:10551000430A11C060918E06242F30E0852F90E061
:10552000860F911D281739071CF45093430A03C0B6
:10553000461B4093430A8091430A0E94392D809173
:105540007C098B7F80937C090E94611B08952DB795
:105550003EB7285030400FB6F8943EBF0FBE2DBF67
:10556000EDB7FEB731968AE998E0ADB7BEB71296AF
:105570009C938E9311978BE695E093838283809121
:10558000840990918509A0918609B0918709848347
:105590009583A683B7830E94FF3980917C092DB73C
:1055A0003EB7285F3F4F0FB6F8943EBF0FBE2DBFEA
:1055B00084FF38C08091840990918509A091860963
:1055C000B09187098C599F4FAF4FBF4F809384098B
:1055D00090938509A0938609B09387092091370A93
:1055E0003091380A4091390A50913A0A2817390700
:1055F0004A075B0740F42093840930938509409360
:10560000860950938709609184097091850980917A
:105610008609909187090E94B01380917C098F7E42
:1056200080937C0980917C0982FF38C08091840935
:1056300090918509A0918609B09187098456904080
:10564000A040B0408093840990938509A093860977
:10565000B093870920913E0A30913F0A4091400A59
:105660005091410A82179307A407B50740F420938D
:105670008409309385094093860950938709609186
:1056800084097091850980918609909187090E940B
:10569000B01380917C098B7F80937C090E94611BF1
:1056A00008950E94822D2DB73EB7285030400FB686
:1056B000F8943EBF0FBE2DBFEDB7FEB731962AE975
:1056C00038E0ADB7BEB712963C932E9311972DE7F5
:1056D00035E03383228364837583868397830E94B6
:1056E000FF392DB73EB7285F3F4F0FB6F8943EBF46
:1056F0000FBE2DBF0E94611B0895F89482E00E94A6
:105700002215789400D000D000D0EDB7FEB73196C6
:105710002AE938E0ADB7BEB712963C932E931197A5
:105720002EE935E033832283958384830E94FF39F9
:105730008DB79EB706960FB6F8949EBF0FBE8DBF6D
:105740000E94611B08954F925F926F927F928F9299
:105750009F92AF92BF92CF92DF92EF92FF920F9300
:105760001F93DF93CF93CDB7DEB7E2970FB6F894D0
:10577000DEBF0FBECDBF8AE998E06EEA75E00E94F9
:10578000963980917C0985FF8CC080917C098F7D42
:1057900080937C09CC24DD24AAE94A2EA8E05A2E65
:1057A000F8EC6F2EF5E07F2E5E010894A11CB11C71
:1057B000E7ED8E2EE5E09E2E8C2D0E94392DE09097
:1057C0003B0AF0903C0A80E00E947C15EE0CFF1C26
:1057D000E80EF91E00E010E0C801B7010E94D411E4
:1057E0001091430A80E00E9414152DB73EB728504F
:1057F00030400FB6F8943EBF0FBE2DBFEDB7FEB7D9
:105800003196ADB7BEB712965C924E9211977382E5
:10581000628214831582978386830E94FF392DB795
:105820003EB7285F3F4F0FB6F8943EBF0FBE2DBF67
:105830000E94FA0C1091430A80E00E941415ADB743
:10584000BEB718970FB6F894BEBF0FBEADBFEDB789
:10585000FEB731961296BC92AE92119793828282D5
:1058600014831582978386830E94FF392DB73EB734
:10587000285F3F4F0FB6F8943EBF0FBE2DBFC50146
:1058800060E070E040E050E020E030E00E94750E03
:105890000894C11CD11C30E0C31631E0D30609F0D6
:1058A0008BCF0E94611BE2960FB6F894DEBF0FBE4D
:1058B000CDBFCF91DF911F910F91FF90EF90DF90BF
:1058C000CF90BF90AF909F908F907F906F905F90A0
:1058D0004F9008952DB73EB7285030400FB6F8943A
:1058E0003EBF0FBE2DBFEDB7FEB731968AE998E0F7
:1058F000ADB7BEB712969C938E9311978CEE95E040
:10590000938382838091840990918509A09186096F
:10591000B091870984839583A683B7830E94FF395A
:1059200080917C092DB73EB7285F3F4F0FB6F894A2
:105930003EBF0FBE2DBF84FF37C080918409909178
:105940008509A0918609B09187090196A11DB11D15
:105950008093840990938509A0938609B093870961
:105960002091370A3091380A4091390A50913A0A09
:10597000281739074A075B0740F4209384093093BE
:105980008509409386095093870960918409709135
:10599000850980918609909187090E94B0138091B2
:1059A0007C098F7E80937C0980917C0982FF37C0BF
:1059B0008091840990918509A0918609B091870909
:1059C0000197A109B1098093840990938509A09357
:1059D0008609B093870920913E0A30913F0A409191
:1059E000400A5091410A82179307A407B50740F473
:1059F0002093840930938509409386095093870941
:105A00006091840970918509809186099091870938
:105A10000E94B01380917C098B7F80937C090E9447
:105A2000611B08951FBC1EBC10927A008FB5816067
:105A30008FBD8FB582608FBD8EB588608EBD8EB5EF
:105A400080618EBDBD9A8FB580648FBDBE9A8FB5C3
:105A500080618FBD8FB580628FBD8EB581608EBD38
:105A6000F8948FEF90E09BBD8ABD19BC18BC789468
:105A700008959091450A282F981708F4292F22237A
:105A800029F08091460A281708F4282FF894822FCD
:105A900090E099BD88BD78942093430A089519BC7D
:105AA00018BC1092430A0895EF92FF920F931F9330
:105AB00090E0AA2797FDA095BA2FBC01CD010E94C6
:105AC000203B7B018C0160918F067091900680E0F5
:105AD00090E00E941E3B20E030E048EC52E40E943F
