:100000000C94C7000C94E6000C94E6000C94E600F7
:100010000C94E6000C94E6000C9418040C94E60092
:100020000C94E8030C94E6000C94E6000C94E600B3
:100030000C94E6000C94E6000C94E6000C94AD11D0
:100040000C94E6000C94E6000C94E6000C94E60098
:100050000C94E6000C94CF130C94E6000C94E6008C
:100060000C94E6000C94E6000C94E6000C94E60078
:100070000C94E6000C94E6000C949A0D0C94E600A7
:100080000C94E6000C94E6000C94E6006E616E00A1
:10009000696E660000407A10F35A00A0724E18098B
:1000A0000010A5D4E80000E87648170000E40B54DF
:1000B000020000CA9A3B000000E1F50500008096AE
:1000C0009800000040420F000000A08601000000E0
:1000D000102700000000E80300000000640000009A
:1000E00000000A00000000000100000000002C7663
:1000F000D888DC674F0823DFC1DFAE59E1B1B7967E
:10010000E5E3E453C63AE651997696E8E6C28426DA
:10011000EB898C9B62ED407C6FFCEFBC9C9F40F2B6
:10012000BAA56FA5F490055A2AF75C936B6CF96732
:100130006DC11BFCE0E40D47FEF520E6B500D0EDF7
:10014000902E0300943577050080841E080000205F
:100150004E0A000000C80C333333330F986E1283FD
:100160001141EF8D2114893BE65516CFFEE6DB18D1
:10017000D1844B381BF77C1D901DA4BBE424203296
:1001800084725E228100C9F124ECA1E53D2711248F
:100190001FBECFEFD0E1DEBFCDBF17E0A0E0B1E0E2
:1001A000E6E9FEE700E00BBF02C007900D92AC3C11
:1001B000B107D9F71AE0ACECB7E001C01D92AA373D
:1001C000B107E1F70E94BD090C94493F0C9400006F
:1001D0009C01E199FECF3FBB2EBB6DBB0FB6F894DF
:1001E000E29AE19A0FBE089581E08093810108951B
:1001F000982F15988AB78B7F8ABF8AB7877F8ABF67
:1002000017988AB78F7B8ABF8AB78F778ABF91305A
:1002100031F489B7806289BF89B7806805C089B722
:100220008F7D89BF89B78F7789BF9093CC07089559
:1002300080932808823061F0833031F0813099F466
:1002400080916500886007C00E949B2D882331F053
:1002500080916500877F8093650008958091650097
:100260008860809365000895AF92BF92CF92DF922D
:10027000EF92FF920F931F9380E197E220E731E026
:10028000F9013197F1F70197D9F7E090670AF090FB
:10029000680A81E00E943B156C0182E00E943B15D8
:1002A000C80ED91EEC0CFD1C00E010E0C801B7011F
:1002B0000E94763D5B016C0126E636E646E655E493
:1002C0000E942C3E7B018C0120E030E040E85FE39F
:1002D0000E94D93C88231CF461E070E024C020E037
:1002E0003FEF4FE757E4C801B7010E94283E1816B8
:1002F000B4F420E030E040E251E4C601B5010E94D0
:100300002C3E0E944A3D80E791E005C0FC013197F8
:10031000F1F76150704061157105C1F707C0C80160
:10032000B7010E944A3DCB010197F1F7809168081F
:1003300080938101F89481E00E94D31490936C081B
:1003400080936B0882E00E94D3148C01909367081D
:1003500080936608789480916F0A8093A4088091B6
:100360006B0890916C080E946A151F930F939F93DE
:100370008F937F936F9380E091E09F938F9386ECB0
:1003800098E09F938F930E94583C0E94E30B28E8CB
:1003900033E18DB79EB70A960FB6F8949EBF0FBE95
:1003A0008DBF40E751E0CA010197F1F7215030407D
:1003B000D1F71F910F91FF90EF90DF90CF90BF90FA
:1003C000AF900895CF92DF92EF92FF920F931F9319
:1003D000CF93DF9380918101813069F48091EF07A1
:1003E000882321F00E949C111092EF071092E207DF
:1003F0001092E107C5C1F89481E00E94D314EC018A
:1004000082E00E94D3146C0178948091E2078823E3
:1004100009F076C08091E107882309F071C08091CE
:10042000EF07882321F00E949C111092EF07809122
:100430006B0890916C08C817D90771F48091660811
:1004400090916708C816D90609F49AC18091810174
:10045000823009F040C094C1C817D907E4F581E0A3
:100460008093E2071092E7071092E8071092E907DD
:100470001092EA071092E3071092E4071092E50742
:100480001092E6072091B0093091B1094091B2096C
:100490005091B3092093EB073093EC074093ED079D
:1004A0005093EE07609169086093F107E091650849
:1004B000E093F00761956093F2076E02B00111249A
:1004C000882777FD8095982F620F731F841F951FD3
:1004D0000E946B1303C081E08093E1070091670ADB
:1004E0001091680A81E00E943B15800F911F0E94C5
:1004F0005F118093EF0784E690E00E94C51040C131
:100500008091EF070E944C11892B29F08091EF0711
:10051000882309F035C18091EF070E949C11109249
:10052000EF078091E207882309F4E2C06091F207A7
:100530008091F007E82FFF27E7FDF095862F992798
:1005400087FD90959C01E29FC001E39F900DF29F73
:10055000900D11249C012C9FC0012D9F900D3C9F5C
:10056000900D11247C010027F7FC0095102F80913D
:10057000E7079091E807A091E907B091EA07E80E34
:10058000F91E0A1F1B1FE092E707F092E80700938D
:10059000E9071093EA079E01442737FD4095542F41
:1005A0008091E3079091E407A091E507B091E607F9
:1005B000820F931FA41FB51F8093E3079093E40756
:1005C000A093E507B093E6076F5F6093F207809111
:1005D000F10786170CF062C0682F772767FD7095CA
:1005E0006E9FC0016F9F900D7E9F900D11249C0106
:1005F000442737FD4095542F2E153F0540075107DE
:10060000B4F0882799278E1B9F0B9C01269FC00161
:10061000279F900D369F900D11249C01442737FD94
:100620004095542FE216F3060407150744F420936F
:10063000E7073093E8074093E9075093EA07609192
:10064000E7076093F207772767FD7095872F972F4D
:100650002091EB073091EC074091ED075091EE07A8
:10066000620F731F841F951F0E946B131092E20785
:100670008091F207882319F01092E00705C080915D
:10068000E0078F5F8093E0078091E007823080F180
:1006900081E08093E1071092E0072AC0862F992716
:1006A00087FD90958E9FB0018F9F700D9E9F700D5E
:1006B0001124882777FD8095982F2091EB073091A2
:1006C000EC074091ED075091EE07620F731F841FF6
:1006D000951F0E946B130091670A1091680A81E0D0
:1006E0000E943B15800F911F0E945F118093EF07BE
:1006F0008091E107882309F443C080918101823011
:1007000031F420916B0830916C08CE0105C0209126
:10071000660830916708C601821793074CF49091E0
:100720006F0A8091710A981728F5892F8F5F0BC087
:1007300028173907FCF490916F0A8091720A891783
:10074000C8F4892F81500E940C2CE090670AF09029
:10075000680A81E00E943B158C0182E00E943B15F3
:10076000080F191FC8018E0D9F1D0E945F118093F5
:10077000EF0706C01092E107D0936C08C0936B0896
:10078000DF91CF911F910F91FF90EF90DF90CF906D
:1007900008950E94222C0E94942D08951F93182FD3
:1007A00081E0809381010E94C903809128088230F2
:1007B00049F080E090E90197F1F780916500886049
:1007C00080936500153011F01093CD071F910895A7
:1007D0001F920F920FB60F920BB60F9211242F9308
:1007E0003F934F935F936F937F938F939F93AF93B9
:1007F000BF93EF93FF930E949B2D882331F084E0F9
:100800000E94CE0381E08093DE07FF91EF91BF91BC
:10081000AF919F918F917F916F915F914F913F9198
:100820002F910F900BBE0F900FBE0F901F90189539
:100830001F920F920FB60F920BB60F9211242F93A7
:100840003F934F935F936F937F938F939F93AF9358
:10085000BF93EF93FF930E949B2D882331F083E099
:100860000E94CE0381E08093DF07FF91EF91BF915B
:10087000AF919F918F917F916F915F914F913F9138
:100880002F910F900BBE0F900FBE0F901F901895D9
:100890006091B0097091B1098091B2099091B3094A
:1008A0000E946B130E948E2D8091700A0E940C2C66
:1008B0000895EF92FF920F931F930D991AC08091A4
:1008C000CC078130B1F460E171E08EEE98E00E94D7
:1008D000EF3B0E94E30B88EC90E00E94C51080E1A2
:1008E00097E220E731E0F9013197F1F70197D9F765
:1008F00064C00F991AC08091CC078130B1F465E2D1
:1009000071E08EEE98E00E94EF3B0E94E30B88ECD2
:1009100090E00E94C51080E197E220E731E0F90104
:100920003197F1F70197D9F748C06091730A709138
:10093000740A80E090E00E94763D7B018C010E9469
:10094000552C9B01AC01C801B7010E94D93C8823FA
:10095000B4F46AE371E08EEE98E00E94EF3B0E94EF
:10096000E30B88EC90E00E94C51080E197E220E75D
:1009700031E0F9013197F1F70197D9F71EC0809165
:100980002808813049F080916500877F8093650059
:1009900080E090E90197F1F70E94480480916A088D
:1009A000813059F41092FE078091690A8093610AA0
:1009B0008091A80980628093A8091F910F91FF90F0
:1009C000EF9008950E940D130895EF92FF920F93F8
:1009D0001F93CF93DF938091F307882309F4C6C454
:1009E0001092F30765EA78E086E199E00E94F70F3C
:1009F0008093A308882309F0B9C420912908809125
:100A0000A508281709F0B2C49091A608963009F0FD
:100A10007AC38091FF07882309F067C3C091A908B2
:100A2000D091AA088091A7089091A80881319105DA
:100A300009F4C0C28231910508F045C088309105A3
:100A400009F41BC289309105F8F48330910509F44B
:100A5000FDC08430910540F48130910509F4BDC09A
:100A6000029708F0E0C081C08530910509F492C179
:100A70008530910508F43AC18630910509F4A6C184
:100A8000079709F061C4B7C18C30910509F430C2F1
:100A90008D30910540F48A30910509F40FC20B970F
:100AA00008F015C202C28E30910509F446C28E309C
:100AB000910508F42EC28F30910509F45AC240976F
:100AC00009F042C46BC28732910509F4BBC2883277
:100AD000910518F58232910509F48CC28332910593
:100AE00060F48032910509F475C28132910508F0F5
:100AF00079C2429709F028C465C28432910509F48D
:100B000089C28432910508F47DC28532910509F4C9
:100B100089C2869709F018C48DC28C32910509F4F8
:100B2000B9C28D32910580F48932910509F49AC2D7
:100B30008932910508F48EC28A32910509F49AC26D
:100B40008B9709F001C49EC28E32910509F4B2C29E
:100B50008E32910508F4A6C28F32910509F4B2C213
:100B60008F5F9F4F09F0F0C3BDC2CE0183709070BC
:100B70008130910519F0029739F404C081E00E9498
:100B8000CE0302C00E945904CE018C709070009771
:100B900031F096958795969587950E9418019E014C
:100BA000207330702032310559F02033310551F077
:100BB0002031310509F0C8C381E080938101C4C3AD
:100BC00082E001C083E0809368080E949B2D882307
:100BD00009F4BAC30E943401B7C320916A0A309164
:100BE0006B0A40916C0A50916D0ACE01A0E0B0E012
:100BF00082179307A407B50708F4E9012091630A57
:100C00003091640A4091650A5091660ACE01A0E0D5
:100C1000B0E0281739074A075B0708F4E901BE016D
:100C200080E090E0B4C08091720A282F30E02C1749
:100C30003D0708F49E018091710A482F50E0C901D8
:100C40004217530708F02EC1CA012CC1CE01A0E003
:100C5000B0E08093630A9093640AA093650AB0930E
:100C6000660A20916A0A30916B0A40916C0A509191
:100C70006D0A82179307A407B50740F42093630A0F
:100C80003093640A4093650A5093660A8091630A20
:100C90009091640AA091650AB091660A81539547C4
:100CA000A040B04060F080E395E7A0E0B0E0809322
:100CB000630A9093640AA093650AB093660A209130
:100CC000630A3091640A4091650A5091660A8091E6
:100CD000B0099091B109A091B209B091B309281758
:100CE00039074A075B0708F02FC34FC0CE01A0E0C9
:100CF000B0E080936A0A90936B0AA0936C0AB09359
:100D00006D0A2091630A3091640A4091650A5091FE
:100D1000660A281739074A075B0740F420936A0AD6
:100D200030936B0A40936C0A50936D0A80916A0A63
:100D300090916B0AA0916C0AB0916D0A885692440A
:100D4000A040B04060F488E692E4A0E0B0E0809378
:100D50006A0A90936B0AA0936C0AB0936D0A209173
:100D60006A0A30916B0A40916C0A50916D0A809129
:100D7000B0099091B109A091B209B091B30982175D
:100D80009307A407B50708F0DFC2CA01B9010E94A2
:100D90006B13DAC2C093700A4091710A50916E0AC7
:100DA000842F90E0851B91092C2F30E08217930748
:100DB0001CF4451B4093700A9091720A8091700A4E
:100DC000891708F0C1C29093700ABEC2C0936E0A20
:100DD0004091710A242F30E02C1B31098091A90623
:100DE00090E0281739070CF0AFC28091700A481BB9
:100DF00040936E0AA9C2C093710A5091700A409143
:100E00006E0A2C2F30E0852F90E0840F911D28175B
:100E100039074CF4450F4093710A05C08091710A5F
:100E200081508093710A8091710A0E94272C7B0166
:100E30008C016091AC0670E0882777FD8095982F33
:100E40000E94783D20E030E040E251E40E94DD3C29
:100E50009B01AC01C801B7010E94283E1816F4F2AC
:100E60000E949B2D882309F46FC29091710A809192
:100E70006F0A981708F068C214C0C093720A809174
:100E8000700A8C1710F48093720A0E949B2D88239D
:100E900009F45AC29091720A80916F0A891708F07A
:100EA00053C2892F0E940C2C4FC2C0936508CB30CF
:100EB0000CF44AC28AE08093650846C2C093690870
:100EC000CB300CF441C28AE0809369083DC2D093D4
:100ED000760AC093750A8091730A9091740AC817B4
:100EE000D90708F031C29093760A8093750A2CC214
:100EF000D093740AC093730A8091750A9091760A10
:100F00008C179D0708F020C29093740A8093730A8F
:100F10001BC280912408282F30E02C173D0708F4CD
:100F20009E018091C306482F50E0C9014217530724
:100F300008F4CA010E94D42D07C2C093780A4091D8
:100F4000C3065091790A842F90E0851B91092C2FBC
:100F500030E0821793071CF4451B4093780A909168
:100F600024088091780A891708F0EEC19093780AD6
:100F7000EBC1C093790A4091C306242F30E02C1BAB
:100F800031098091C20690E0281739070CF0DCC1C6
:100F90008091780A481B4093790AD6C1D093AB065A
:100FA000C093AA0648EE50E0BE018CE290E00E9499
:100FB000173CCAC12C2FC093C801E199FECF8EE225
:100FC00090E087C02C2FC093AC06E199FECF8FE351
:100FD00090E07FC02C2FC093CE07E199FECF8FE227
:100FE00090E077C02C2FC093CF07E199FECF80E32C
:100FF00090E06FC02C2FC093D007E199FECF81E322
:1010000090E067C02C2FC093D107E199FECF82E317
:1010100090E05FC02C2FC093D207E199FECF83E30D
:1010200090E057C02C2FC093D307E199FECF84E303
:1010300090E04FC02C2FC093D407E199FECF85E3F9
:1010400090E047C02C2FC093D507E199FECF86E3EF
:1010500090E03FC02C2FC093D607E199FECF87E3E5
:1010600090E037C02C2FC093D707E199FECF88E3DB
:1010700090E02FC02C2FC093D807E199FECF89E3D1
:1010800090E027C02C2FC093D907E199FECF8AE3C7
:1010900090E01FC02C2FC093DA07E199FECF8BE3BD
:1010A00090E017C02C2FC093DB07E199FECF8CE3B3
:1010B00090E00FC02C2FC093DC07E199FECF8DE3A9
:1010C00090E007C02C2FC093DD07E199FECF8EE39F
:1010D00090E09FBB8EBB2DBB0FB6F894E29AE19ACD
:1010E0000FBE32C10E94C8182FC12093A50890934B
:1010F000A60881E08093C1088FEF9FEF9093A80826
:101100008093A708ECC0933009F030C12093A50864
:101110009093A60881E08093C1088091A7089091E0
:10112000A808009709F070C089E090E09093A808A3
:101130008093A7080E949B2D882319F421E030E0BA
:1011400002C022E030E08091280890E0880F991FCB
:10115000880F991F282B392B8091810190E054E052
:10116000880F991F5A95E1F7282B392B8091FF079B
:1011700090E046E0880F991F4A95E1F7282B392B1C
:101180003093AA082093A9088091B0099091B109E1
:101190009093AC088093AB080DEA18E080916F0A39
:1011A0008093AD081092AE088091770A8093AF08C3
:1011B000F80113820E94552C20E030E040E251E417
:1011C0000E942C3E0E94453D7093B2086093B10886
:1011D00080E00E94D3149093B4088093B30881E018
:1011E0000E94D3149093B6088093B50882E00E94C1
:1011F000D3149093B8088093B7088091CD0780935B
:10120000B908F8011586A0C08130910509F05AC0CF
:101210008CE090E09093A8088093A7088091630ADF
:101220009091640A9093AA088093A90880916A0A11
:1012300090916B0A9093AC088093AB08EDEAF8E0CC
:101240008091700A8093AD081092AE0880916E0A6A
:101250008093AF0813828091710A8093B108158240
:101260008091720A8093B30817828091650899274C
:1012700087FD90959093B6088093B5088091690892
:10128000992787FD90959093B8088093B70880912F
:10129000750A9091760A9093BA088093B908809164
:1012A000730A9091740A9093BC088093BB08809154
:1012B000780A8093BD08118A8091790A8093BF08CB
:1012C000138A42C08031910579F481E090E09093D7
:1012D000A8088093A7088091AA069091AB069093E6
:1012E000AA088093A90830C08131910549F481E0B2
:1012F00090E09093A8088093A7088091C8010BC044
:101300008231910569F481E090E09093A808809380
:10131000A7088091AC068093A9081092AA0814C06F
:10132000809791F480E190E09093A8088093A708BB
:10133000AEECB7E0E9EAF8E08D9180831182329655
:1013400027E0AE3DB207C1F74BE350E06AE278E038
:1013500085EA98E00E946C0F2CE231E040E050E01A
:1013600060E070E08AE298E00E94D80DDF91CF91B2
:101370001F910F91FF90EF9008958F929F92AF92DF
:10138000BF92CF92DF92EF92FF920F931F93CF9372
:10139000DF930E9435110E94C3100E94E52B0E942A
:1013A000A32D0E942D120E94170B0E947D2D0E94DA
:1013B0002C1381E00E946714809164008860809300
:1013C00064000E9415160E94DE160E94401A409189
:1013D0009F085091A0086091A1087091A20882E036
:1013E0000E941E0C0E94030C8091780A0E94D42D4A
:1013F00080E00E94CE0378948091CC070E94F80090
:1014000084EF91E00E94C51088E893E120E731E085
:10141000F9013197F1F70197D9F788EC90E00E9434
:10142000C51080ED97E020E731E0F9013197F1F741
:101430000197D9F788EC90E00E94C510AFE68A2E9C
:10144000A1E09A2EFEEEAF2EF8E0BF2EE0E7CE2E02
:10145000E1E0DE2E0E94AE160E94E2018091DE07DE
:10146000882391F06FE471E08EEE98E00E94EF3BEC
:1014700088EC90E00E94C51080ED97E0F60131976E
:10148000F1F70197D9F767C08091DF07882391F0C2
:1014900060E171E08EEE98E00E94EF3B88EC90E016
:1014A0000E94C51080ED97E0F6013197F1F70197A2
:1014B000D9F751C00D9907C08091CC07813019F43C
:1014C00060E171E008C00F990BC08091CC078130BA
:1014D00039F465E271E08EEE98E00E94EF3B3BC08C
:1014E0006091750A7091760A80E090E00E94763DE6
:1014F0007B018C010E94552C9B01AC01C801B701F6
:101500000E94D93C88231CF46AE371E0E4CF809107
:10151000650083FF03C0C5E6D1E002C0CAE6D1E0A2
:101520000E949B2D882319F485E691E002C08AE68B
:1015300091E0DF93CF939F938F939F928F92BF926F
:10154000AF920E94583C8DB79EB708960FB6F8949C
:101550009EBF0FBE8DBF0E94E30B0E94602C0E94B5
:10156000E50478CF883A11F482EA0895883B11F4B3
:1015700085EB0895803C28F0E82FF0E0EE53FF4F14
:1015800080810895F8949798E5E6F0E090819E7F39
:10159000908385BB80818260808384E08A95F1F7A7
:1015A00080818D7F8083789485EF8A95F1F7089507
:1015B000F894979AE5E6F0E090819E7F908385BB52
:1015C00080818260808384E08A95F1F780818D7FBD
:1015D0008083789485EF8A95F1F70895E82F883A0B
:1015E00011F4E2EA0AC0883B11F4E5EB06C0803C46
:1015F00020F0F0E0EE53FF4FE081F894979A80914D
:1016000065008E7F80936500E5BB809165008260F8
:101610008093650084E08A95F1F7809165008D7F65
:1016200080936500789485EF8A95F1F708958F9AF5
:101630008091640081608093640080916400826086
:10164000809364008FEF84BB88EE93E020E731E065
:10165000F9013197F1F70197D9F7F89497988091AC
:1016600065008E7F8093650088E385BB809165006F
:1016700082608093650084E08A95F1F7809165002F
:101680008D7F80936500789485EF8A95F1F7F894C3
:101690009798809165008E7F809365008CE085BB74
:1016A0008091650082608093650084E08A95F1F7FF
:1016B000809165008D7F80936500789485EF8A9591
:1016C000F1F7F8949798809165008E7F809365007C
:1016D00086E085BB8091650082608093650084E030
:1016E0008A95F1F7809165008D7F809365007894ED
:1016F00085EF8A95F1F7F8949798809165008E7F31
:101700008093650081E085BB809165008260809355
:10171000650084E08A95F1F7809165008D7F809364
:101720006500789485EF8A95F1F78CEC9CE1019740
:10173000F1F70895F8949798E5E6F0E080818E7FC0
:10174000808381E085BB80818260808384E08A958C
:10175000F1F780818D7F8083789485EF8A95F1F70A
:101760008CEC9CE10197F1F70895CF93DF93EB01A7
:101770008295880F880F807C8058F8949798909174
:1017800065009E7F9093650085BB809165008260B7
:101790008093650084E08A95F1F7809165008D7FE4
:1017A00080936500789485EF8A95F1F7611571054E
:1017B00021F406C021960E94EE0A88818823D1F781
:1017C000DF91CF9108956EEE78E080E00E94B50B36
:1017D00066EC78E081E00E94B50B0895CF93DF932B
:1017E000EC01009721F406C021960E94EE0A888140
:1017F0008823D1F7DF91CF910895809157090895FB
:101800008091560908958CE080939D0010925609AE
:10181000089586E080939D0081E0809356090895A5
:1018200086E080939D0082E080935609089586E0CB
:1018300080939D0083E08093560908951F93182F8D
:101840009A01AB0160E070E18EE090E00E94D53E2D
:10185000215030401093570910929B0088E18093EB
:101860009A008CE080939D0030939800209399001B
:1018700080939D00109256091123A9F08C9A113083
:1018800051F480919A008F7E80939A00949A80916F
:101890009A008F770BC0123059F480919A008061C2
:1018A00080939A00949880919A00806880939A001F
:1018B0001F91089580915709882379F0949A809117
:1018C0009A008F7E80939A0080E098E40197F1F768
:1018D00080919A008F7780939A000895809157099C
:1018E0008823B9F080919B0086FFFCCF8CEC9CE1B3
:1018F0000197F1F780919A00806180939A00949803
:1019000080E098E40197F1F780919A0080688093D5
:101910009A000895982F80919B0085FFFCCF9093AB
:101920009C0080E090E0089580919B0087FFFCCFB1
:1019300080919C0090E0089520919B0030E02078F9
:101940003070C9010895982F8A3341F480931609A5
:1019500081E08093F4071092F3070EC08091F407A2
:10196000882351F08091F407E82FF0E0EA5EF64F0B
:1019700090838F5F8093F407809116098A33B1F4C6
:10198000E091F407F0E0EC5EF64F80818D3071F469
:10199000E091F407F0E0EB5EF64F80818A3031F49D
:1019A00081E08093F3071092F40708958091F40783
:1019B000803421F41092F4071092F3070895982FC1
:1019C000833241F48093160981E08093F4071092EA
:1019D000F3070EC08091F407882351F08091F4073B
:1019E000E82FF0E0EA5EF64F90838F5F8093F40774
:1019F00080911609833271F4E091F407F0E0EB5E18
:101A0000F64F80818D3031F481E08093F30710929E
:101A1000F40708958091F407803421F41092F407BC
:101A20001092F3070895982F8E3789F48091F40768
:101A3000882369F41092F3078091F407E82FF0E00F
:101A4000EA5EF64F90838F5F8093F40714C0809115
:101A5000F407882381F08091F407843060F480914A
:101A6000F407E82FF0E0EA5EF64F90838F5F8093F3
:101A7000F4071092F307809116098E3751F4809184
:101A8000F407843031F41092F40781E08093F30777
:101A900008958091F407803469F426E139E040E448
:101AA00050E060E070E0C9010E94E83B1092F4074A
:101AB0001092F3070895982F8E3371F08A3061F0F9
:101AC0008091F407E82FF0E0EA5EF64F90838F5F95
:101AD0008093F4071092F307E091F407F0E026E119
:101AE00039E0EB5EF64F80818D30A1F481E0809388
:101AF000F3078091F407803450F48091F407E82FC5
:101B0000F0E0E20FF31F10828F5F8093F4071092D2
:101B1000F40708958091F407803459F440E450E0CC
:101B200060E070E0C9010E94E83B1092F407109257
:101B3000F30708951F920F920FB60F920BB60F92F4
:101B400011242F933F934F935F936F937F938F93C2
:101B50009F93AF93BF93EF93FF9380919C009091DD
:101B60005609913051F0913028F0923049F093307D
:101B700061F409C00E94A30C08C00E94DF0C05C0DC
:101B80000E945B0D02C00E94130DFF91EF91BF9167
:101B9000AF919F918F917F916F915F914F913F9105
:101BA0002F910F900BBE0F900FBE0F901F901895A6
:101BB000EF92FF920F931F93CF93DF93DC01EB0122
:101BC000F42EE52E890190915709923079F4949A78
:101BD00080919A008F7E80939A00E0E0F8E431973C
:101BE000F1F780919A008F7780939A00809156093F
:101BF0008823A9F420E007C080919B0085FFFCCFDB
:101C0000E0939C002F5FFD01E20FF11DE081EA30BF
:101C100099F780919B0085FFFCCF8AE016C0813048
:101C2000B9F420E007C080919B0085FFFCCFE093D2
:101C30009C002F5FFD01E20FF11DE081ED3099F76F
:101C400080919B0085FFFCCF8DE080939C0013C0AA
:101C5000833089F420E030E0FD01E20FF31FE081E2
:101C600080919B0085FFFCCFE0939C002F5F3F4F4E
:101C70002430310589F7209731F4923011F40E9415
:101C80006E0C10E047C00E946E0CC8010E945F11EC
:101C9000082F24C080919A008F7780939A008091BA
:101CA000F3078823B1F01092F3078F2D9E2D9C012E
:101CB0002134310510F020E430E086E199E0A901FB
:101CC000BC01CE010E94DF3B802F0E949C1110E0DE
:101CD0000BC080919A00806880939A00802F0E94A8
:101CE0004C11892BB9F617E0802F0E949C1180912E
:101CF0005709813079F4949A80919A008F7E80936D
:101D00009A0080E098E40197F1F780919A008F772C
:101D100080939A00812FDF91CF911F910F91FF90B7
:101D2000EF900895FB018F708A3010F4805D01C040
:101D3000895C808380E00895FB01982F92959F70C5
:101D40009A3010F4905D01C0995C90838F708A3056
:101D500010F4805D01C0895C818380E00895FF926A
:101D60000F931F93F82E8B01892F0E949C0E0E5FFC
:101D70001F4FB8018F2D0E949C0E80E01F910F9184
:101D8000FF900895982FFB018154863020F49753DB
:101D9000908380E00895892F80538A3010F082E08C
:101DA0000895808380E00895FC01DB019081892FF4
:101DB0008154863018F4292F275306C0292F205329
:101DC0002A3010F082E00895322F3295307F3C9314
:101DD0009181892F8154863010F4975306C0905317
:101DE0009A3018F0922F82E001C080E0390F3C93C6
:101DF0000895CF92DF92EF92FF920F931F93DF939C
:101E0000CF930F92CDB7DEB77C018B016E010894A2
:101E1000C11CD11CB6010E94D40E382F882391F426
:101E20008981F80110828183B601C70102960E9460
:101E3000D40E382F2981F80180819181820F911D64
:101E400091838083832F0F90CF91DF911F910F910A
:101E5000FF90EF90DF90CF9008956F927F928F92D6
:101E60009F92AF92BF92CF92DF92FF920F931F93F8
:101E7000DF93CF930F92CDB7DEB74C016B015A01C0
:101E8000FF2400E010E03E010894611C711C0CC0AE
:101E9000B301C401800F911F0E94D40E882369F4FE
:101EA0000E5F1F4F8981F80E0C151D0588F3B501D3
:101EB0008F2D81950E949C0E80E00F90CF91DF9135
:101EC0001F910F91FF90DF90CF90BF90AF909F90A8
:101ED0008F907F906F900895CF92DF92FF920F9333
:101EE0001F93CF93DF938C016B01DC015C968C9187
:101EF0005C97813039F411968C91833019F48BE31F
:101F000090E002C081E190E04817590710F494E096
:101F100065C0F6018AE38193BF01F80180810E94C8
:101F20009C0EB6016D5F7F4FD80111968C910E9477
:101F30009C0EE6012596F801848D813059F481814B
:101F4000833041F48281BE01880F0E949C0EE6011D
:101F5000279609C0BE01D80112968D919C911397C6
:101F60000E94AF0E2496BE01F801848195810E94E3
:101F7000AF0E2496D8015C968C915C978130E9F481
:101F800011968C918330C9F4FF24F3940CC03296DF
:101F9000EE0FFF1FE00FF11FBE01808191810E94B3
:101FA000AF0E2496F394EF2DF0E0D80112968D91A8
:101FB0009C911397E817F90750F3B6016095709557
:101FC0006C0F7D1FAE01C60101960E942D0F982F48
:101FD000882321F48DE08A838AE08B83892FDF9127
:101FE000CF911F910F91FF90DF90CF900895AF9206
:101FF000BF92CF92DF92EF92FF920F931F93DF93E6
:10200000CF9300D00F92CDB7DEB76C018B018DE17D
:10201000FB0111928A95E9F7F60160E070E080819A
:102020008D30B9F481818A30A1F442E0A42EB12C24
:10203000A60EB71E76010894E11CF11C6350704097
:10204000AE014E5F5F4FC7010E942D0F882349F0FC
:102050008CC06F5F7F4F31966B33710501F785E060
:1020600084C0F601EA0DFB1D34979A818081349675
:10207000981709F077C033979B818081981709F0F2
:1020800071C0B801C7010E94D40E882309F06DC049
:1020900033E0E32EF12CEC0CFD1CB8016F5F7F4F99
:1020A000C7010E94D40E882309F05FC0F801818126
:1020B000833009F044C0F1E1AF16B10409F43FC028
:1020C00081E0F801848F25E0E22EF12CEC0CFD1C60
:1020D000BE016F5F7F4FC7010E94D40ED82E8823A8
:1020E00009F042C0898186958C3018F08CE090E030
:1020F00001C090E0F8019383828382E090E0E80ED3
:10210000F91E198212C06E5F7F4F660F771F600F36
:10211000711FC7010E94F90E882339F589818F5FED
:102120008983E4E0F0E0EE0EFF1E8981682F70E005
:10213000F801828193816817790728F315C0F801A7
:10214000148EB8016E5F7F4FC70102960E94F90E90
:10215000882359F40C5F1F4FB801C70106960E94EF
:10216000F90E03C083E001C08D2D0F900F900F90EA
:10217000CF91DF911F910F91FF90EF90DF90CF9063
:10218000BF90AF900895899A0895AF92BF92CF9271
:10219000DF92EF92FF920F931F93919AA0E0B0E02D
:1021A000BC01CD010E94763D5B016C0126E636E65E
:1021B00046E655E40E942C3E7B018C0120E030E095
:1021C00040E85FE30E94D93C88231CF461E070E0A2
:1021D00024C020E03FEF4FE757E4C801B7010E9459
:1021E000283E1816B4F420E030E040E251E4C60185
:1021F000B5010E942C3E0E944A3D80E791E005C057
:10220000FC013197F1F76150704061157105C1F71C
:1022100007C0C801B7010E944A3DCB010197F1F701
:1022200091981F910F91FF90EF90DF90CF90BF900A
:10223000AF9008959C01919A80915A0990915B0901
:102240008217930738F080915A0990915B098F5F4C
:102250009F4F51F48FEF2F3F380711F42EEF3FEFD0
:1022600030935B0920935A09089580E090E02FEFA6
:102270003FEFFC01EE0FFF1FE85AF64F318320833A
:10228000019680329105A9F787B7826087BF83E7FF
:1022900081BF8DE083BF08959FB7F894803218F016
:1022A000E0E0F0E009C0E82FF0E0EE0FFF1FE85A91
:1022B000F64F0190F081E02D9FBFCF0108959C0162
:1022C0005FB7F894A2E0B0E04A2FFD01EE0FFF1FC8
:1022D000E85AF64F808191818F5F9F4F71F48FEFA5
:1022E0002F3F380711F42EEF3FEFAA0FBB1FA85A5C
:1022F000B64F11963C932E9305C04F5F1196A032B6
:10230000B10511F75FBF842F08952FB7F8943FEF01
:102310008F3F930711F48EEF9FEF909359098093AD
:1023200058092FBF2FB7F8948091580990915909F7
:102330002FBF892BB9F70895E82F2FB7F894825053
:102340008E3148F4F0E0EE0FFF1FE85AF64F8FEFA2
:102350009FEF918380832FBF08951F920F920FB636
:102360000F920BB60F9211242F933F934F935F93CD
:102370006F937F938F939F93AF93BF93EF93FF934D
:1023800020E030E0F901EE0FFF1FE85AF64F8081A0
:102390009181892B51F0808191818F5F9F4F29F02E
:1023A000808191810197918380832F5F3F4F2032FD
:1023B000310541F780915A0990915B09019709F421
:1023C00091980E94E2048091C2019091C30101970B
:1023D0009093C3018093C2010196C9F48091F507DF
:1023E0009091F607A091F707B091F8070196A11D0B
:1023F000B11D8093F5079093F607A093F707B0936C
:10240000F8078AEE93E09093C3018093C201809114
:10241000F9079091FA07A091FB07B091FC0701968C
:10242000A11DB11D8093F9079093FA07A093FB07B4
:10243000B093FC07FF91EF91BF91AF919F918F9166
:102440007F916F915F914F913F912F910F900BBEB4
:102450000F900FBE0F901F9018951092A8098FEF44
:102460008093AB098093A909E8E9F9E011921192F0
:1024700089E0E83AF807D1F78FEF84BB8898089590
:102480001092A80908952091AB09E82FF0E030E000
:10249000082E02C0359527950A94E2F720FF1FC049
:1024A0008091A90990E00E2E02C0959587950A9417
:1024B000E2F780FD14C02091A80981E090E00E2E83
:1024C00002C0880F991F0A94E2F7282B2093A809CD
:1024D000EE0FFF1FE856F64F11821082089580918B
:1024E000AB0990E00E2E02C0959587950A94E2F70D
:1024F00080FD10C08091A90990E00E2E02C0959534
:1025000087950A94E2F780FF05C082E390E00E947D
:102510001A1108958091AB0990E00E2E02C0959596
:1025200087950A94E2F780FD37C08091A90990E071
:102530000E2E02C0959587950A94E2F780FD2CC077
:10254000DF01AA0FBB1FA856B64F2D913C911197E2
:102550002F5F3F4F11963C932E934091C4015091B1
:10256000C5018091C6019091C701840F951F821704
:10257000930790F42091A80981E090E002C0880FB1
:10258000991FEA95E2F7282B2093A8094D935C93B5
:1025900084E190E00E941A110895FF920F931F9317
:1025A000CF93DF938091AB098093A909C0E0D0E07D
:1025B00001E010E028E1F22E4C2F98010C2E02C011
:1025C000220F331F0A94E2F7822F809585BB8F2D4F
:1025D0008A95F1F790E080E080999F5F8F5F8A3065
:1025E000D9F7983020F08091AB09822B07C0933047
:1025F00038F49091AB09822F809589238093AB09A1
:10260000842F0E9443122196C830D105A9F6DF918C
:10261000CF911F910F91FF9008958091AA09815049
:102620008093AA098F5F29F48AE08093AA090E9407
:10263000CD120895C39AC29820E097FF02C0C49AB1
:1026400001C0C498C398C39A2F5F203119F0880F36
:10265000991FF3CFC29A0895BA9ABB9ABC9A80E0A8
:1026600090E10E941A1380E090EC0E941A1380E01F
:1026700090EE0E941A1388E690E20E941A130895C1
:10268000EF92FF920F931F937B018C0188E690E2FB
:102690000E941A138FEF9FEFAFEFBFE0E822F922FD
:1026A0000A231B23C7019F7390640E941A134EE0F4
:1026B00016950795F794E7944A95D1F7AFEFBFE3E6
:1026C000EA22FB22C70190640E941A131F910F9106
:1026D000FF90EF9008958F929F92AF92BF92CF920A
:1026E000DF92EF92FF920F931F93683622E47207F6
:1026F00020E0820720E0920728F468E672E480E098
:1027000090E00CC0613325E7720720E0820720E0EB
:10271000920720F060E375E780E090E06093B009F5
:102720007093B1098093B2099093B30928EC30E01B
:1027300040E050E00E948F3E4B015C010CE19B01A8
:10274000A50160E070E080E090E00E940834AA24D7
:10275000BB24E1EECE2EDD24EE24FF2400E010E0C9
:102760000E948734122F032FF42EE52E622F702F34
:102770008F2D9E2D0E9440131093AC090093AD093C
:10278000F092AE09E092AF091F910F91FF90EF9088
:10279000DF90CF90BF90AF909F908F9008951F9241
:1027A0000F920FB60F920BB60F921124DF92EF9299
:1027B000FF920F931F932F933F934F935F936F93CA
:1027C0007F938F939F93AF93BF93CF93DF93EF93B9
:1027D000FF9354B145B1D090E809ED2DF0E0E753F7
:1027E000FE4F208130E0942F80E0850F911DE9019C
:1027F00044E0CC0FDD1F4A95E1F7C20FD31FCC5444
:10280000D64F9F838E832E853F85821B930B08882E
:1028100002C0959587950A94E2F77C010027F7FCA2
:102820000095102F88859985AA85BB85E80EF91E2D
:102830000A1F1B1FE886F9860A871B878A819B81EE
:1028400001969B838A832C813D818217930770F0C8
:102850001B821A8240E050E0C801B7010E94F73E97
:102860003D872C87188619861A861B86ED2DEF5F0B
:10287000E093E809F0E0E753FE4F80818F3F11F4C9
:102880001092E809E091E809F0E0E753FE4F8081FB
:102890009091E709890F87B9369AFF91EF91DF91FF
:1028A000CF91BF91AF919F918F917F916F915F91E8
:1028B0004F913F912F911F910F91FF90EF90DF90DB
:1028C0000F900BBE0F900FBE0F901F901895282FE2
:1028D0008093FD07E4EBF9E035E080E092E01082C0
:1028E0003183138212829583848317821682108625
:1028F0001186128613861586148617861686108A08
:10290000719649E0E73EF40751F78FEF91E090931D
:10291000C3098093C2099093D4098093D30987E0B7
:1029200086B9379A80E48093E709213049F4109200
:10293000E8098091C901805C87B9339A369A089575
:102940001092E8098091C901805C87B93398089595
:10295000982F833008F090E08091E709890F87B9BC
:10296000369A3699FECF54B145B1892F90E0342F75
:1029700020E0250F311DFC0154E0EE0FFF1F5A959A
:10298000E1F7E80FF91FEC54F64F3783268386856D
:102990009785281B390B008802C0359527950A9426
:1029A000E2F7C901089590E0FC0164E0EE0FFF1F1B
:1029B0006A95E1F7E80FF91FEC54F64F8485958589
:1029C000089590E0FC0174E0EE0FFF1F7A95E1F7A7
:1029D000E80FF91FEC54F64F2681378186859785DD
:1029E000281B390B008802C0359527950A94E2F719
:1029F000C901089590E0FC01A4E0EE0FFF1FAA9525
:102A0000E1F7E80FF91FEC54F64F848195810895A2
:102A1000833008F080E06115710511F461E070E029
:102A200090E0FC01B4E0EE0FFF1FBA95E1F7E80F6C
:102A3000F91FEC54F64F75836483089590E0FC0110
:102A400024E0EE0FFF1F2A95E1F7E80FF91FEC5481
:102A5000F64F81810895833008F080E090E0FC011A
:102A600034E0EE0FFF1F3A95E1F7E80FF91FEC5441
:102A7000F64F618308959091FD07282F30E0913043
:102A800091F4F90154E0EE0FFF1F5A95E1F7E20FC0
:102A9000F31FEC54F64F848195816AE070E00E9448
:102AA000AE3EAB0115C0F90144E0EE0FFF1F4A95A1
:102AB000E1F7E20FF31FEC54F64F818190E024819F
:102AC0003581829FA001839F500D929F500D11244C
:102AD000CA0108952091C80130E0829FB001839F10
:102AE000700D929F700D1124882777FD8095982F87
:102AF0000E94783D20E030E04AE754E40E94DD3C4B
:102B000008958F929F92AF92BF92CF92DF92EF92F1
:102B1000FF920F931F93CF93DF93E091E809F0E0CA
:102B2000E753FE4FD0808091FD07813009F470C0DB
:102B30008D2C9924F401A4E0EE0FFF1FAA95E1F774
:102B4000E80DF91DEC54F64F8081882329F00E948E
:102B50004C11892B09F04FC0E40174E0CC0FDD1F4C
:102B60007A95E1F7C80DD91DCC54D64FE884F98485
:102B70000A851B858D2D0E94A8145C01CC24B7FC0E
:102B8000C094DC2CAE0CBF1CC01ED11EA886B9861A
:102B9000CA86DB868A819B8101969B838A834C81CE
:102BA0005D819A01215030402817390778F41B8243
:102BB0001A829A0140E050E0C601B5010E94F73E3A
:102BC0003D872C87188619861A861B86840164E047
:102BD000000F111F6A95E1F7080D191D0C54164FCF
:102BE000F80180810E949C11F801818190E00E948F
:102BF0005F11F8018083E091E809EF5FE093E80955
:102C0000F0E0E753FE4F80818F3F11F41092E80906
:102C1000DF91CF911F910F91FF90EF90DF90CF90B8
:102C2000BF90AF909F908F90089520E030E04CE3EC
:102C300050E0F901EF59F54F1082249FF001259FD4
:102C4000F00D349FF00D1124E751F64F80E090E035
:102C50001192119201968E319105D1F72F5F3F4F5E
:102C60002230310531F708958091FE078F5F809300
:102C7000FE07823011F41092FE0708958091FE073E
:102C8000882319F482E08093FE078091FE0781502B
:102C90008093FE0708958091FE07282F30E0F90108
:102CA000EF59F54F80818F5F80838E3109F4108258
:102CB000D901AF59B54F8C91F90145E0EE0FFF1FD7
:102CC0004A95E1F7220F331FE21BF30BE80FF11DCA
:102CD000EE0FFF1FE751F64F80819181892B09F498
:102CE0001C9208958091FE07A82FB0E0FD01EF59D6
:102CF000F54F8081882311F48EE18083FD01EF5927
:102D0000F54F4081CD01880F991F9D0165E0220F8D
:102D1000331F6A95E1F7281B390B4150F901E40F85
:102D2000F11DEE0FFF1FE751F64F80819181892B36
:102D300031F4442391F7AF59B54F1C920895AF5920
:102D4000B54F4C9308958091FE0708958091FE073A
:102D5000E1E6FAE0E80FF11D808108958091FE0719
:102D600090E0FC01EF59F54F2081FC0135E0EE0FBA
:102D7000FF1F3A95E1F7880F991FE81BF90BE20F47
:102D8000F11DEE0FFF1FE751F64F0190F081E02D8E
:102D9000099508959C01E199FECF3FBB2EBBE09AB7
:102DA0008DB308959C01E199FECF3FBB2EBB6DBB57
:102DB0000FB6F894E29AE19A0FBE089589E194E281
:102DC0009093EA098093E9098FEC98E29093EC09DB
:102DD0008093EB098FE299E29093EE098093ED09DD
:102DE00082E59AE29093F0098093EF0987E39AE2F3
:102DF0009093F2098093F10986E39CE19093F409A2
:102E00008093F3098BE896E29093F6098093F50995
:102E100081E796E29093F8098093F70987E596E2B7
:102E20009093FA098093F9098DE19CE19093FC0954
:102E30008093FB0984E09CE19093FE098093FD0957
:102E40008BE08093690A8EEF94E29093000A80935E
:102E5000FF0985E091E29093260A8093250A8DE987
:102E600091E29093280A8093270A83E59EE190934C
:102E70002A0A8093290A83E09EE190932C0A80938A
:102E80002B0A80E798E290932E0A80932D0A8AE11C
:102E900098E29093300A80932F0A84E197E290930E
:102EA000320A8093310A86EC96E29093340A80933A
:102EB000330A8DEB97E29093360A8093350A8AE6BF
:102EC00097E29093380A8093370A81E89DE19093C6
:102ED0003A0A8093390A8AEB90E290933C0A8093F5
:102EE0003B0A84E190E290933E0A80933D0A8BE591
:102EF00090E29093400A80933F0A8DE89FE190937F
:102F0000420A8093410A81E59FE19093440A8093AD
:102F1000430A8FE99CE19093460A8093450A85E530
:102F20009CE19093480A8093470A89EC9FE1909333
:102F30004A0A8093490A8AE49DE190934C0A80935F
:102F40004B0A88EE9CE190934E0A80934D0A83EEE3
:102F50009DE19093500A80934F0A81EC9DE19093FC
:102F6000520A8093510A8DED93E29093540A809314
:102F7000530A84E693E29093560A8093550A8BEEA7
:102F800092E29093580A8093570A0895EF92FF9225
:102F90000F931F9388E993E5A0E0B0E08093630A64
:102FA0009093640AA093650AB093660A82E093E561
:102FB000A0E0B0E080936A0A90936B0AA0936C0A39
:102FC000B0936D0A66E673E580E090E00E946B13B3
:102FD00084E68093700A10926E0A88EC90E09093D9
:102FE000680A8093670A21E02093680810926A08B3
:102FF0001092CC072093650885E0809369088FEFD5
:103000008093710A8AE08093720A80E092ECA1E0DA
:10301000B0E080939F089093A008A093A108B0937C
:10302000A208209329088BE490E09093740A80937F
:10303000730A80E590E09093760A8093750A61E0C8
:1030400080E00E942B1568EC70E080E00E9408157B
:1030500061E081E00E942B1568EC70E081E00E9445
:10306000081561E082E00E942B1568EC70E082E0B8
:103070000E94081583E00E9418018FE58093780A6A
:103080001092790A83E68093C30685E4809324082E
:103090008091C8018F3F81F487E38093C801E19953
:1030A000FECF8EE290E09FBB8EBB87E38DBB0FB659
:1030B000F894E29AE19A0FBE8091AA069091AB062D
:1030C0008F5F9F4F71F488EE93E09093AB068093EF
:1030D000AA0642ED56E168EE73E08CE290E00E94B1
:1030E000173C8091AC068F3FA1F484E68093AC0638
:1030F000E199FECF8FE390E09FBB8EBB84E68DBB52
:103100000FB6F894E29AE19A0FBE03C04150409383
:10311000710A8091710A0E94272C7B018C016091B9
:10312000AC0670E0882777FD8095982F0E94783D47
:1031300020E030E040E251E40E94DD3C9B01AC0124
:10314000C801B7010E94283E4091710A1816F4F296
:103150008091720A481710F44093720A8091700AA5
:10316000481710F44093700A5091700A20916E0A2B
:1031700030E0842F90E0851B9109821793071CF49F
:10318000451B40936E0A1F910F91FF90EF90089599
:103190006091630A7091640A42ED56E180E090E02C
:1031A0000E94173C60916A0A70916B0A42ED56E1E9
:1031B00082E090E00E94173C6091B0097091B109E3
:1031C00042ED56E184E090E00E94173C2091700AA5
:1031D000E199FECF88E090E09FBB8EBB2DBB0FB680
:1031E000F894E29AE19A0FBE20916E0AE199FECF1F
:1031F00086E090E09FBB8EBB2DBB0FB6F894E29AA1
:10320000E19A0FBE80E00E941E15282FE199FECFA3
:1032100089E090E09FBB8EBB2DBB0FB6F894E29A7D
:10322000E19A0FBE80E00E94FA1442ED56E1BC0123
:103230008AE090E00E94173C81E00E941E15282F32
:10324000E199FECF8CE090E09FBB8EBB2DBB0FB60B
:10325000F894E29AE19A0FBE81E00E94FA1442EDDE
:1032600056E1BC018DE090E00E94173C82E00E9494
:103270001E15282FE199FECF8FE090E09FBB8EBBFB
:103280002DBB0FB6F894E29AE19A0FBE82E00E943D
:10329000FA1442ED56E1BC0180E190E00E94173C37
:1032A00020912808E199FECF85E190E09FBB8EBB7D
:1032B0002DBB0FB6F894E29AE19A0FBE6091670AAF
:1032C0007091680A42ED56E186E190E00E94173C59
:1032D00020916808E199FECF88E190E09FBB8EBB0A
:1032E0002DBB0FB6F894E29AE19A0FBE20916508C3
:1032F000E199FECF89E190E09FBB8EBB2DBB0FB65D
:10330000F894E29AE19A0FBE20916908E199FECF04
:103310008AE190E09FBB8EBB2DBB0FB6F894E29A7A
:10332000E19A0FBE2091710AE199FECF8BE190E006
:103330009FBB8EBB2DBB0FB6F894E29AE19A0FBEED
:103340002091720AE199FECF8CE190E09FBB8EBB89
:103350002DBB0FB6F894E29AE19A0FBE60919F08D8
:103360007091A00842ED56E18DE190E00E94173C7B
:1033700060919F087091A0088091A1089091A20887
:10338000BC018827992742ED56E18FE190E00E9429
:10339000173C20912908E199FECF81E290E09FBB84
:1033A0008EBB2DBB0FB6F894E29AE19A0FBE6091E6
:1033B000730A7091740A42ED56E182E290E00E9435
:1033C000173C6091750A7091760A42ED56E184E2ED
:1033D00090E00E94173C2091780AE199FECF87E2A5
:1033E00090E09FBB8EBB2DBB0FB6F894E29AE19A9A
:1033F0000FBE2091790AE199FECF86E290E09FBB53
:103400008EBB2DBB0FB6F894E29AE19A0FBE2091C5
:10341000C306E199FECF88E290E09FBB8EBB2DBB37
:103420000FB6F894E29AE19A0FBE20912408E19930
:10343000FECF89E290E09FBB8EBB2DBB0FB6F89408
:10344000E29AE19A0FBE20916A08E199FECF8AE2E2
:1034500090E09FBB8EBB2DBB0FB6F894E29AE19A29
:103460000FBE2091CC07E199FECF8BE290E09FBB8D
:103470008EBB2DBB0FB6F894E29AE19A0FBE089569
:10348000EF92FF920F931F936AEC76E180E090E059
:103490000E94013CA0E0B0E08093630A9093640A2C
:1034A000A093650AB093660A6AEC76E182E090E048
:1034B0000E94013CA0E0B0E080936A0A90936B0AFE
:1034C000A0936C0AB0936D0A6AEC76E184E090E018
:1034D0000E94013CA0E0B0E0BC01CD010E946B1352
:1034E000E199FECF88E090E09FBB8EBBE09A8DB360
:1034F0008093700AE199FECF86E090E09FBB8EBB7F
:10350000E09A8DB380936E0AE199FECF89E090E056
:103510009FBB8EBBE09A6DB380E00E942B156AECD6
:1035200076E18AE090E00E94013CBC0180E00E94CC
:103530000815E199FECF8CE090E09FBB8EBBE09A2E
:103540006DB381E00E942B156AEC76E18DE090E08E
:103550000E94013CBC0181E00E940815E199FECF68
:103560008FE090E09FBB8EBBE09A6DB382E00E943B
:103570002B156AEC76E180E190E00E94013CBC01F1
:1035800082E00E940815E199FECF85E190E09FBBA3
:103590008EBBE09A8DB30E9418016AEC76E186E159
:1035A00090E00E94013C9093680A8093670AE19939
:1035B000FECF88E190E09FBB8EBBE09A8DB38093F5
:1035C0006808E199FECF89E190E09FBB8EBBE09A4D
:1035D0008DB380936508E199FECF8AE190E09FBBAF
:1035E0008EBBE09A8DB380936908E199FECF8BE1A1
:1035F00090E09FBB8EBBE09A8DB38093710AE199F6
:10360000FECF8CE190E09FBB8EBBE09A8DB38093A0
:10361000720A6AEC76E18DE190E00E94013C7C0147
:1036200000E010E0E0929F08F092A0080093A1084B
:103630001093A2086AEC76E18FE190E00E94013CD1
:10364000A0E0B0E0DC01992788278E299F29A02BD4
:10365000B12B80939F089093A008A093A108B093EA
:10366000A208E199FECF81E290E09FBB8EBBE09A79
:103670008DB3809329086AEC76E182E290E00E94A3
:10368000013C9093740A8093730A6AEC76E184E2B9
:1036900090E00E94013C9093760A8093750AE1992C
:1036A000FECF87E290E09FBB8EBBE09A8DB3809304
:1036B000780AE199FECF86E290E09FBB8EBBE09A4C
:1036C0008DB38093790AE199FECF88E290E09FBBA9
:1036D0008EBBE09A8DB38093C306E199FECF89E259
:1036E00090E09FBB8EBBE09A8DB380932408E19954
:1036F000FECF8AE290E09FBB8EBBE09A8DB38093B1
:103700006A08E199FECF8BE290E09FBB8EBBE09A06
:103710008DB30E94F8006AEC76E18CE290E00E94A2
:10372000013C9093AB068093AA06E199FECF8EE20E
:1037300090E09FBB8EBBE09A8DB38093C8012FE2CF
:1037400030E0E199FECF3FBB2EBBE09A8DB3F9018B
:10375000E156F84F80832F5F3F4F2F33310589F7B4
:103760001092DD07E199FECF8FE390E09FBB8EBB07
:10377000E09A8DB38093AC061F910F91FF90EF906C
:1037800008958091A80986FF07C00E947216809153
:10379000A8098F7B8093A8098091A80983FF07C09F
:1037A0000E944B168091A809877F8093A809809179
:1037B000A80987FF07C00E9434168091A8098F7757
:1037C0008093A8098091A80980FF07C00E9459042E
:1037D0008091A8098E7F8093A8098091A80981FF14
:1037E00012C00E949B2D882311F080E005C010922A
:1037F000DE071092DF0785E00E94CE038091A809C2
:103800008D7F8093A80908958EEC97E09F938F9306
:103810008DEC91E09F938F9386EC98E09F938F932C
:103820000E94583C0E94C11B8DB79EB706960FB6EA
:10383000F8949EBF0FBE8DBF089587ED91E09F93D2
:103840008F9380EE91E09F938F9386EC98E09F9307
:103850008F930E94583C0E94C11B8DB79EB706965D
:103860000FB6F8949EBF0FBE8DBF08958091CD070F
:103870002FE0829FC0011124825A994F9F938F930A
:1038800081EF91E09F938F9386EC98E09F938F93C5
:103890000E94583C0E94C11B8DB79EB706960FB67A
:1038A000F8949EBF0FBE8DBF08958091A80982FF36
:1038B00016C02091750A3091760A8091730A909112
:1038C000740A8217930730F4215030403093760AFF
:1038D0002093750A8091A8098B7F8093A809809115
:1038E000A80984FF11C08091750A9091760A8F35DE
:1038F000910528F401969093760A8093750A809139
:10390000A8098F7E8093A8098091750A9091760A04
:103910009F938F938CEF91E09F938F9386EC98E029
:103920009F938F930E94583C0E94C11B8DB79EB7F6
:1039300006960FB6F8949EBF0FBE8DBF0895809176
:10394000A80982FF10C08091730A9091740A0097B1
:1039500029F001979093740A8093730A8091A809C3
:103960008B7F8093A8098091A80984FF16C02091BD
:10397000730A3091740A8091750A9091760A28171B
:10398000390730F42F5F3F4F3093740A2093730A46
:103990008091A8098F7E8093A8098091730A9091E5
:1039A000740A9F938F9383E192E09F938F9386ECA9
:1039B00098E09F938F930E94583C0E94C11B8DB743
:1039C0009EB706960FB6F8949EBF0FBE8DBF0895A2
:1039D0001F9320919F083091A0084091A108509119
:1039E000A208E2E4F6E010E080819181A281B38137
:1039F000281739074A075B0721F01F5F34961730F5
:103A000099F75F934F933F932F938BE292E09F93AD
:103A10008F9386EC98E09F938F930E94583C8091FF
:103A2000A8092DB73EB7285F3F4F0FB6F8943EBFA9
:103A30000FBE2DBF84FF09C01F5F173009F410E0CF
:103A40008091A8098F7E8093A8098091A80982FFA0
:103A500009C0112309F417E011508091A8098B7F48
:103A60008093A809E12FF0E0EE0FFF1FEE0FFF1F7C
:103A7000EE5BF94F80819181A281B38180939F0891
:103A80009093A008A093A108B093A2080E94C11B24
:103A90001F9108958091290890E09F938F938CE364
:103AA00092E09F938F9386EC98E09F938F930E9470
:103AB000583C8091A8092DB73EB72A5F3F4F0FB6FB
:103AC000F8943EBF0FBE2DBF84FF0AC08091290825
:103AD0008F5F809329088091A8098F7E8093A80921
:103AE0008091A80982FF0AC08091290881508093A3
:103AF00029088091A8098B7F8093A8090E94C11B87
:103B000008958091670A9091680A9F938F9381E549
:103B100092E09F938F9386EC98E09F938F930E94FF
:103B2000583C8091A8092DB73EB72A5F3F4F0FB68A
:103B3000F8943EBF0FBE2DBF84FF0EC08091670A70
:103B40009091680A01969093680A8093670A809121
:103B5000A8098F7E8093A8098091A80982FF0EC0D2
:103B60008091670A9091680A01979093680A809300
:103B7000670A8091A8098B7F8093A8090E94C11BC6
:103B800008958091A80985FF15C00E94C6170E945C
:103B9000C81867E672E086EC98E00E94EF3B0E944E
:103BA000E30B84EF91E00E94C5108091A8098F7DFE
:103BB0008093A8096CE772E086EC98E00E94EF3BE6
:103BC0000E94C11B08958091A80985FF13C00E941F
:103BD000C81861E972E086EC98E00E94EF3B0E9411
:103BE000E30B84EF91E00E94C5108091A8098F7DBE
:103BF0008093A80966EA72E086EC98E00E94EF3BA9
:103C00000E94C11B08958091A80982FF0CC0809179
:103C1000720A8B3018F081508093720A8091A80943
:103C20008B7F8093A8098091A80984FF1FC0909181
:103C3000720A8091700A981738F48091710A981767
:103C400018F49F5F9093720A0E949B2D882349F07D
:103C50009091720A80916F0A891718F4892F0E9437
:103C60000C2C8091A8098F7E8093A8098091720AFC
:103C70000E94272C9F938F937F936F938BEB92E0FF
:103C80009F938F9386EC98E09F938F930E94583C6C
:103C90000E94C11B8DB79EB708960FB6F8949EBFC1
:103CA0000FBE8DBF0895EF92FF920F931F938091E7
:103CB000A80982FF27C04091710A80916E0A209165
:103CC000700A30E0280F311D842F90E02817390743
:103CD0003CF48091720A841718F441504093710AA1
:103CE0000E949B2D882349F09091710A80916F0A60
:103CF000981718F4892F0E940C2C8091A8098B7FAB
:103D00008093A8098091A80984FF2AC08091710A34
:103D10008F5F0E94272C7B018C016091AC0670E0C4
:103D2000882777FD8095982F0E94783D20E030E02D
:103D300040E251E40E94DD3C9B01AC01C801B701A7
:103D40000E94D93C88233CF48091710A8F3F19F07E
:103D50008F5F8093710A8091A8098F7E8093A80954
:103D60008091710A0E94272C9F938F937F936F936A
:103D700082ED92E09F938F9386EC98E09F938F93D0
:103D80000E94583C0E94C11B8DB79EB708960FB683
:103D9000F8949EBF0FBE8DBF1F910F91FF90EF90C3
:103DA00008958091A80982FF11C08091AA06909180
:103DB000AB06893C910528F001979093AB06809360
:103DC000AA068091A8098B7F8093A8098091A809F1
:103DD00084FF12C08091AA069091AB0627E0803D37
:103DE000920728F401969093AB068093AA068091DF
:103DF000A8098F7E8093A8098091AA069091AB06AE
:103E00009F938F938AEE92E09F938F9386EC98E036
:103E10009F938F930E94583C0E94C11B8DB79EB701
:103E200006960FB6F8949EBF0FBE8DBF0895809181
:103E3000A80982FF0CC08091C801853118F081501B
:103E40008093C8018091A8098B7F8093A8098091F5
:103E5000A80984FF0CC08091C801883C18F48F5FCA
:103E60008093C8018091A8098F7E8093A8098091D2
:103E7000C80190E09F938F938EEF92E09F938F9372
:103E800086EC98E09F938F930E94583C0E94C11B40
:103E90008DB79EB706960FB6F8949EBF0FBE8DBF26
:103EA00008958091A80982FF0CC0809169081816B6
:103EB0001CF48150809369088091A8098B7F8093BE
:103EC000A8098091A80984FF0CC0809169088A30F4
:103ED0001CF48F5F809369088091A8098F7E80937E
:103EE000A80980916908992787FD90959F938F93E2
:103EF0008EE093E09F938F9386EC98E09F938F934F
:103F00000E94583C0E94C11B8DB79EB706960FB603
:103F1000F8949EBF0FBE8DBF08958091A80982FFBF
:103F20000CC08091650818161CF4815080936508B8
:103F30008091A8098B7F8093A8098091A80984FFAC
:103F40000CC0809165088A301CF48F5F80936508EF
:103F50008091A8098F7E8093A80980916508992790
:103F600087FD90959F938F9381E293E09F938F932A
:103F700086EC98E09F938F930E94583C0E94C11B4F
:103F80008DB79EB706960FB6F8949EBF0FBE8DBF35
:103F900008958091A80982FF11C08091CC078823E1
:103FA00019F482E08093CC078091CC0781508093F4
:103FB000CC078091A8098B7F8093A8098091A809DC
:103FC00084FF0EC08091CC078F5F8093CC07823036
:103FD00010F01092CC078091A8098F7E8093A809D9
:103FE0008091CC07813019F083E393E002C087E32E
:103FF00093E09F938F938AE393E09F938F9386EC54
:1040000098E09F938F930E94583C8091CC070E9428
:10401000F8000E94C11B8DB79EB706960FB6F894A4
:104020009EBF0FBE8DBF08958091A80982FF11C069
:1040300080916A08882319F482E080936A0880914D
:104040006A08815080936A088091A8098B7F8093C9
:10405000A8098091A80984FF0EC080916A088F5F2B
:1040600080936A08823010F010926A088091A80943
:104070008F7E8093A80980916A08813019F083E3CC
:1040800093E002C087E393E09F938F938AE493E0E9
:104090009F938F9386EC98E09F938F930E94583C58
:1040A0000E94C11B8DB79EB706960FB6F8949EBFAF
:1040B0000FBE8DBF08958091A80982FF1CC080911A
:1040C0006808813019F484E080936808809168085A
:1040D000815080936808813019F40E94F40006C072
:1040E0000E949B2D882311F00E9434018091A80921
:1040F0008B7F8093A8098091A80984FF1CC08091C0
:1041000068088F5F80936808843018F081E080939E
:10411000680880916808813019F40E94F40006C094
:104120000E949B2D882311F00E9434018091A809E0
:104130008F7E8093A8098091680825E0829FC00146
:104140001124825D994F9F938F938FE593E09F9306
:104150008F9386EC98E09F938F930E94583C0E9427
:10416000C11B8DB79EB706960FB6F8949EBF0FBEC3
:104170008DBF08958091A80982FF11C08091280801
:10418000813019F484E080932808809128088150B8
:10419000809328088091A8098B7F8093A80980913B
:1041A000A80984FF0FC0809128088F5F809328089A
:1041B000843018F081E0809328088091A8098F7ED0
:1041C0008093A8098091280825E0829FC0011124CE
:1041D000865E994F9F938F938FE693E09F938F9383
:1041E00086EC98E09F938F930E94583C809128081A
:1041F0000E9418010E94C11B8DB79EB706960FB68C
:10420000F8949EBF0FBE8DBF08958091A80982FFCC
:1042100046C08091630A9091640AA091650AB091AA
:10422000660A0197A109B1098093630A9093640A11
:10423000A093650AB093660A20916A0A30916B0ACE
:1042400040916C0A50916D0A82179307A407B50735
:1042500040F42093630A3093640A4093650A5093B4
:10426000660A2091630A3091640A4091650A509170
:10427000660A8091B0099091B109A091B209B091FC
:10428000B309281739074A075B0720F4CA01B901A7
:104290000E946B138091A8098B7F8093A80980915D
:1042A000A80984FF29C08091630A9091640AA091B3
:1042B000650AB091660A0196A11DB11D8093630A3B
:1042C0009093640AA093650AB093660A8153954758
:1042D000A040B04060F080E395E7A0E0B0E08093BC
:1042E000630A9093640AA093650AB093660A80916A
:1042F000A8098F7E8093A8098091630A9091640A2F
:10430000A091650AB091660ABF93AF939F938F9374
:1043100088E793E09F938F9386EC98E09F938F9329
:104320000E94583C0E94C11B8DB79EB708960FB6DD
:10433000F8949EBF0FBE8DBF08958091A80982FF9B
:1043400029C080916A0A90916B0AA0916C0AB09181
:104350006D0A0197A109B10980936A0A90936B0ACB
:10436000A0936C0AB0936D0A88569244A040B04066
:1043700060F488E692E4A0E0B0E080936A0A90934B
:104380006B0AA0936C0AB0936D0A8091A8098B7F89
:104390008093A8098091A80984FF46C080916A0A89
:1043A00090916B0AA0916C0AB0916D0A0196A11DC3
:1043B000B11D80936A0A90936B0AA0936C0AB09324
:1043C0006D0A2091630A3091640A4091650A509108
:1043D000660A281739074A075B0740F420936A0AE0
:1043E00030936B0A40936C0A50936D0A20916A0ACD
:1043F00030916B0A40916C0A50916D0A8091B0091E
:104400009091B109A091B209B091B30982179307B5
:10441000A407B50720F4CA01B9010E946B1380916B
:10442000A8098F7E8093A80980916A0A90916B0AEF
:10443000A0916C0AB0916D0ABF93AF939F938F9335
:104440008CE893E09F938F9386EC98E09F938F93F3
:104450000E94583C0E94C11B8DB79EB708960FB6AC
:10446000F8949EBF0FBE8DBF08958091A80984FF68
:104470000DC083E00E941E158F5F682F83E00E94AD
:104480002B158091A8098F7E8093A8098091A80997
:1044900082FF0DC083E00E941E158150682F83E0CB
:1044A0000E942B158091A8098B7F8093A80983E037
:1044B0000E941E1590E09F938F9380EA93E09F9354
:1044C0008F9386EC98E09F938F930E94583C0E94B4
:1044D000C11B8DB79EB706960FB6F8949EBF0FBE50
:1044E0008DBF08958091A80984FF0DC083E00E94CC
:1044F000FA140196BC0183E00E9408158091A80976
:104500008F7E8093A8098091A80982FF0DC083E067
:104510000E94FA140197BC0183E00E940815809163
:10452000A8098B7F8093A80983E00E94FA149F93C7
:104530008F9381EB93E09F938F9386EC98E09F930A
:104540008F930E94583C0E94C11B8DB79EB7069660
:104550000FB6F8949EBF0FBE8DBF08958091A80935
:1045600084FF0DC082E00E941E158F5F682F82E0DD
:104570000E942B158091A8098F7E8093A8098091B5
:10458000A80982FF0DC082E00E941E158150682F8D
:1045900082E00E942B158091A8098B7F8093A80947
:1045A00082E00E941E1590E09F938F9383EC93E02E
:1045B0009F938F9386EC98E09F938F930E94583C33
:1045C0000E94C11B8DB79EB706960FB6F8949EBF8A
:1045D0000FBE8DBF08958091A80984FF0DC082E0B1
:1045E0000E94FA140196BC0182E00E940815809195
:1045F000A8098F7E8093A8098091A80982FF0DC029
:1046000082E00E94FA140197BC0182E00E94081522
:104610008091A8098B7F8093A80982E00E94FA14F8
:104620009F938F9384ED93E09F938F9386EC98E014
:104630009F938F930E94583C0E94C11B8DB79EB7D9
:1046400006960FB6F8949EBF0FBE8DBF0895809159
:10465000A80984FF0DC081E00E941E158F5F682F9E
:1046600081E00E942B158091A8098F7E8093A80974
:104670008091A80982FF0DC081E00E941E15815023
:10468000682F81E00E942B158091A8098B7F809371
:10469000A80981E00E941E1590E09F938F9386EEFB
:1046A00093E09F938F9386EC98E09F938F930E9463
:1046B000583C0E94C11B8DB79EB706960FB6F89462
:1046C0009EBF0FBE8DBF08958091A80984FF0DC0C5
:1046D00081E00E94FA140196BC0181E00E94081555
:1046E0008091A8098F7E8093A8098091A80982FFF4
:1046F0000DC081E00E94FA140197BC0181E00E9484
:1047000008158091A8098B7F8093A80981E00E94F9
:10471000FA149F938F9387EF93E09F938F9386EC88
:1047200098E09F938F930E94583C0E94C11B8DB7C5
:104730009EB706960FB6F8949EBF0FBE8DBF089524
:104740008091A80984FF0DC080E00E941E158F5F34
:10475000682F80E00E942B158091A8098F7E80939E
:10476000A8098091A80982FF0DC080E00E941E1553
:104770008150682F80E00E942B158091A8098B7FC3
:104780008093A80980E00E941E1590E09F938F936C
:1047900089E094E09F938F9386EC98E09F938F93AA
:1047A0000E94583C0E94C11B8DB79EB706960FB65B
:1047B000F8949EBF0FBE8DBF08958091A80984FF15
:1047C0000DC080E00E94FA140196BC0180E00E94B6
:1047D00008158091A8098F7E8093A8098091A80967
:1047E00082FF0DC080E00E94FA140197BC0180E0B6
:1047F0000E9408158091A8098B7F8093A80980E00A
:104800000E94FA149F938F938AE194E09F938F9371
:1048100086EC98E09F938F930E94583C0E94C11BA6
:104820008DB79EB706960FB6F8949EBF0FBE8DBF8C
:104830000895AF92BF92CF92DF92EF92FF920F93C3
:104840001F938091A80984FF37C08091B00990918F
:10485000B109A091B209B091B3090196A11DB11D92
:104860008093B0099093B109A093B209B093B309B2
:104870002091630A3091640A4091650A5091660A5A
:10488000281739074A075B0740F42093B009309393
:10489000B1094093B2095093B3096091B009709186
:1048A000B1098091B2099091B3090E946B13809174
:1048B000A8098F7E8093A8098091A80982FF37C03C
:1048C0008091B0099091B109A091B209B091B3095A
:1048D0000197A109B1098093B0099093B109A09300
:1048E000B209B093B30920916A0A30916B0A4091E2
:1048F0006C0A50916D0A82179307A407B50740F41C
:104900002093B0093093B1094093B2095093B30991
:104910006091B0097091B1098091B2099091B30989
:104920000E946B138091A8098B7F8093A80981E076
:104930000E94D3148C0180E00E94D3147C01C80132
:104940000E946A155B016C0120E030E040E050E01D
:104950000E94D93C882354F40F2EF0E0AF2EF0E0F3
:10496000BF2EF0E0CF2EF0E0DF2EF02DC7010E9429
:104970006A157B018C0120E030E040E050E00E94AD
:10498000D93C882354F40F2EF0E0EF2EF0E0FF2EF8
:10499000F0E00F2FF0E01F2FF02D1F930F93FF92E9
:1049A000EF92DF92CF92BF92AF928091B009909137
:1049B000B109A091B209B091B309BF93AF939F938E
:1049C0008F938CE294E09F938F9386EC98E09F9373
:1049D0008F930E94583C0E94C11B8DB79EB7409692
:1049E0000FB6F8949EBF0FBE8DBF1F910F91FF9021
:1049F000EF90DF90CF90BF90AF9008950F931F93EB
:104A00008091A80985FF41C08091FF078823C1F5E7
:104A10000E94F40081E00E943B152091670A3091CA
:104A2000680A280F391F309301082093000860910D
:104A30006A0A70916B0A80916C0A90916D0A0E94CB
:104A40006B1380916A0A90916B0AA0916C0AB091E5
:104A50006D0A8093090890930A08A0930B08B093FD
:104A60000C088093050890930608A0930708B0935C
:104A70000808109204081092030881E08093FF0751
:104A80008091A8098F7D8093A8098091FF078823D2
:104A900009F4E8C02091B0093091B1094091B20900
:104AA0005091B3098091630A9091640AA091650ABC
:104AB000B091660A281739074A075B0708F08CC0CF
:104AC00080910208882349F48091000890910108A0
:104AD0000E945F1180930208CDC00E944C11892B67
:104AE00009F0C8C0809102080E949C11109202082F
:104AF000F89481E00E94D314182F092F78940E9413
:104B00006A159F938F937F936F938091B0099091D3
:104B1000B109A091B209B091B309BF93AF939F932C
:104B20008F938BE494E09F938F9386EC98E09F9310
:104B30008F930E94583C812F902F20910308309131
:104B400004084DB75EB7445F5F4F0FB6F8945EBF81
:104B50000FBE4DBF28173907A8F49093040880931F
:104B600003088091B0099091B109A091B209B09168
:104B7000B3098093090890930A08A0930B08B09397
:104B80000C0813C08217930781F48091B0099091AB
:104B9000B109A091B209B091B3098093050890932F
:104BA0000608A0930708B09308086091B0097091B7
:104BB000B1098091B2099091B309665F7F4F8F4F21
:104BC0009F4F6093B0097093B1098093B20990939D
:104BD000B3090E946B134EC02091090830910A0856
:104BE00040910B0850910C0880910508909106089F
:104BF000A0910708B091080882179307A407B5078A
:104C000040F420930508309306084093070850931A
:104C100008088091050890910608A0910708B091B6
:104C20000808280F391F4A1F5B1F5695479537956F
:104C30002795CA01B9010E946B1380916E0A909169
:104C4000700A890F0E940C2C8091790A9091780A41
:104C5000890F0E94D42D0E944B160E94340110929D
:104C6000FF0708C063E674E086EC98E00E94EF3B23
:104C70000E94C11B1F910F91089583E00E94D314DD
:104C80009F938F9388E794E09F938F9386EC98E0AF
:104C90009F938F930E94583C0E94C11B8DB79EB773
:104CA00006960FB6F8949EBF0FBE8DBF089582E0A2
:104CB0000E94D3149F938F9383E894E09F938F93E4
:104CC00086EC98E09F938F930E94583C0E94C11BF2
:104CD0008DB79EB706960FB6F8949EBF0FBE8DBFD8
:104CE000089581E00E94D3149F938F938EE894E0FF
:104CF0009F938F9386EC98E09F938F930E94583CEC
:104D00000E94C11B8DB79EB706960FB6F8949EBF42
:104D10000FBE8DBF089580E00E94D3149F938F93A0
:104D200089E994E09F938F9386EC98E09F938F930B
:104D30000E94583C0E94C11B8DB79EB706960FB6C5
:104D4000F8949EBF0FBE8DBF08958091AC099091DD
:104D5000AD09A091AE09B091AF09BF93AF939F93F6
:104D60008F9384EA94E09F938F9386EC98E09F93CF
:104D70008F930E94583C0E94C11B8DB79EB7089626
:104D80000FB6F8949EBF0FBE8DBF08958091A809FD
:104D900082FF0CC080912408863418F081508093E3
:104DA00024088091A8098B7F8093A8098091A80985
:104DB00084FF1FC0909124088091780A981738F4D6
:104DC0008091C306981718F49F5F909324080E945F
:104DD0009B2D882349F0909124088091770A8917A8
:104DE00018F4892F0E94D42D8091A8098F7E80937A
:104DF000A8098091240890E001969F938F9389EBF6
:104E000094E09F938F9386EC98E09F938F930E94FA
:104E1000583C0E94C11B8DB79EB706960FB6F894FA
:104E20009EBF0FBE8DBF08958091A80982FF27C045
:104E30004091C3068091790A2091780A30E0280FCA
:104E4000311D842F90E0281739073CF48091240805
:104E5000841718F441504093C3060E949B2D882369
:104E600049F09091C3068091770A981718F4892F1A
:104E70000E94D42D8091A8098B7F8093A8098091EE
:104E8000A80984FF0CC08091C306833618F48F5F95
:104E90008093C3068091A8098F7E8093A809809192
:104EA000C30690E001969F938F9382ED94E09F93C9
:104EB0008F9386EC98E09F938F930E94583C0E94BA
:104EC000C11B8DB79EB706960FB6F8949EBF0FBE56
:104ED0008DBF08958091790A90E09F938F9389EE1A
:104EE00094E09F938F9386EC98E09F938F930E941A
:104EF000583C8091A8092DB73EB72A5F3F4F0FB6A7
:104F0000F8943EBF0FBE2DBF84FF1FC05091C30653
:104F10007091790A6091780A4091C206852F90E0DD
:104F2000871B9109861B9109242F30E08217930774
:104F300024F4561B5093790A03C0470F4093790A13
:104F40008091A8098F7E8093A8098091A80982FF8B
:104F500011C08091790A9091C206891718F41092B5
:104F6000790A03C0891B8093790A8091A8098B7FF5
:104F70008093A8090E94C11B08958091780A90E04F
:104F800001969F938F9382E095E09F938F9386EC99
:104F900098E09F938F930E94583C8091A8092DB769
:104FA0003EB72A5F3F4F0FB6F8943EBF0FBE2DBFEE
:104FB00084FF1FC05091C3067091790A6091780AEE
:104FC0004091C206852F90E0871B9109861B9109AD
:104FD000242F30E08217930724F4571B5093780A4C
:104FE00003C0460F4093780A8091A8098F7E809372
:104FF000A8098091A80982FF1AC04091780A60919F
:1050000024085091C206242F30E0862F90E0850FAF
:10501000911D281739071CF46093780A03C0451BBB
:105020004093780A8091A8098B7F8093A8090E94F9
:10503000C11B089580916E0A0E94272C9F938F9325
:105040007F936F938AE195E09F938F9386EC98E02E
:105050009F938F930E94583C8091A8092DB73EB72B
:10506000285F3F4F0FB6F8943EBF0FBE2DBF84FFA1
:105070001FC05091710A70916E0A6091700A409140
:10508000A906852F90E0871B9109861B9109242F83
:1050900030E08217930724F4561B50936E0A03C026
:1050A000470F40936E0A8091A8098F7E8093A809CC
:1050B0008091A80982FF11C080916E0A9091A90683
:1050C000891718F410926E0A03C0891B80936E0A28
:1050D0008091A8098B7F8093A8090E94C11B089525
:1050E0008091700A0E94272C9F938F937F936F93D8
:1050F00085E395E09F938F9386EC98E09F938F9341
:105100000E94583C8091A8092DB73EB7285F3F4FB9
:105110000FB6F8943EBF0FBE2DBF84FF1FC0509145
:10512000710A70916E0A6091700A4091A906852FEC
:1051300090E0871B9109861B9109242F30E082178C
:10514000930724F4571B5093700A03C0460F4093F3
:10515000700A8091A8098F7E8093A8098091A80980
:1051600082FF1AC04091700A6091720A5091A9069C
:10517000242F30E0862F90E0850F911D28173907E6
:105180001CF46093700A03C0451B4093700A809121
:10519000A8098B7F8093A8090E94C11B0895809164
:1051A000770A90E001969F938F938FE495E09F9309
:1051B0008F9386EC98E09F938F930E94583C809148
:1051C000A8092DB73EB72A5F3F4F0FB6F8943EBFF0
:1051D0000FBE2DBF84FF1EC06091C3065091770A99
:1051E0004091C206862F90E0851B9109242F30E064
:1051F000821793071CF46093770A03C0450F40930E
:10520000770A8091770A0E94D42D8091A8098F7E19
:105210008093A8098091A80982FF1EC04091770A57
:10522000609124085091C206242F30E0862F90E030
:10523000850F911D281739071CF46093770A03C066
:10524000451B4093770A8091770A0E94D42D809164
:10525000A8098B7F8093A8090E94C11B08958091A3
:105260006F0A0E94272C9F938F937F936F938BE6F7
:1052700095E09F938F9386EC98E09F938F930E9485
:10528000583C8091A8092DB73EB7285F3F4F0FB615
:10529000F8943EBF0FBE2DBF84FF25C050916F0A0A
:1052A000552329F48091720A80936F0A13C060918C
:1052B000710A4091A906862F90E0851B9109242F41
:1052C00030E0821793071CF460936F0A03C0450F08
:1052D00040936F0A80916F0A0E940C2C8091A8095C
:1052E0008F7E8093A8098091A80982FF23C04091F6
:1052F0006F0A5091720A451719F410926F0A11C083
:105300006091A906242F30E0852F90E0860F911D33
:10531000281739071CF450936F0A03C0461B4093AB
:105320006F0A80916F0A0E940C2C8091A8098B7FD4
:105330008093A8090E94C11B08958091B0099091A3
:10534000B109A091B209B091B309BF93AF939F93F4
:105350008F9386E895E09F938F9386EC98E09F93D8
:105360008F930E94583C8091A8092DB73EB7285FC3
:105370003F4F0FB6F8943EBF0FBE2DBF84FF38C01D
:105380008091B0099091B109A091B209B091B3098F
:105390008C599F4FAF4FBF4F8093B0099093B10985
:1053A000A093B209B093B3092091630A3091640AC3
:1053B0004091650A5091660A281739074A075B072A
:1053C00040F42093B0093093B1094093B20950934F
:1053D000B3096091B0097091B1098091B2099091BF
:1053E000B3090E946B138091A8098F7E8093A8094E
:1053F0008091A80982FF38C08091B0099091B109CD
:10540000A091B209B091B30984569040A040B04039
:105410008093B0099093B109A093B209B093B309F6
:1054200020916A0A30916B0A40916C0A50916D0A82
:1054300082179307A407B50740F42093B00930936F
:10544000B1094093B2095093B3096091B0097091CA
:10545000B1098091B2099091B3090E946B138091B8
:10546000A8098B7F8093A8090E94C11B08950E9400
:10547000552C9F938F937F936F9388E995E09F932B
:105480008F9386EC98E09F938F930E94583C0E94E4
:10549000C11B8DB79EB708960FB6F8949EBF0FBE7E
:1054A0008DBF0895F89482E00E94E11478949F9350
:1054B0008F9389EB95E09F938F9386EC98E09F9371
:1054C0008F930E94583C0E94C11B8DB79EB70696D1
:1054D0000FB6F8949EBF0FBE8DBF08952F923F92D6
:1054E0004F925F926F927F928F929F92AF92BF92F4
:1054F000CF92DF92EF92FF920F931F93DF93CF93A0
:10550000CDB7DEB7E2970FB6F894DEBF0FBECDBFC2
:1055100069EC75E086EC98E00E94EF3B8091A80969
:1055200085FFA0C08091A8098F7D8093A809882459
:105530009924F6EC2F2EF8E03F2EE2EF4E2EE5E018
:105540005E2E3E010894611C711C882D0E940C2C5B
:10555000E090670AF090680A80E00E943B15EE0C2C
:10556000FF1CE80EF91E00E010E0C801B7010E9420
:10557000763D5B016C0126E636E646E655E40E9480
:105580002C3E7B018C0120E030E040E85FE30E948C
:10559000D93C88231CF461E070E023C020E03FEF99
:1055A0004FE757E4C801B7010E94283E1816ACF433
:1055B00020E030E040E251E4C601B5010E942C3EFB
:1055C0000E944A3D06C080E791E00197F1F76150E3
:1055D000704061157105B9F707C0C801B7010E9495
:1055E0004A3DCB010197F1F780E00E94D3149F93CD
:1055F0008F9380916F0A90E09F938F9383EE95E055
:105600009F938F933F922F920E94583C0E94E30BEE
:1056100080E00E94D3149F938F9380916F0A90E053
:105620009F938F935F924F927F926F920E94583C0C
:1056300020E030E040E050E060E070E0C3010E9414
:10564000D80D0894811C911C8DB79EB740960FB65B
:10565000F8949EBF0FBE8DBF90E0891691E0990629
:1056600009F073CF0E94C11BE2960FB6F894DEBF1B
:105670000FBECDBFCF91DF911F910F91FF90EF90A3
:10568000DF90CF90BF90AF909F908F907F906F9062
:105690005F904F903F902F9008958091B009909126
:1056A000B109A091B209B091B309BF93AF939F9391
:1056B0008F9387E096E09F938F9386EC98E09F937B
:1056C0008F930E94583C8091A8092DB73EB7285F60
:1056D0003F4F0FB6F8943EBF0FBE2DBF84FF37C0BB
:1056E0008091B0099091B109A091B209B091B3092C
:1056F0000196A11DB11D8093B0099093B109A093AB
:10570000B209B093B3092091630A3091640A4091C1
:10571000650A5091660A281739074A075B0740F463
:105720002093B0093093B1094093B2095093B30963
:105730006091B0097091B1098091B2099091B3095B
:105740000E946B138091A8098F7E8093A809809195
:10575000A80982FF37C08091B0099091B109A0914A
:10576000B209B091B3090197A109B1098093B009B9
:105770009093B109A093B209B093B30920916A0A3A
:1057800030916B0A40916C0A50916D0A8217930711
:10579000A407B50740F42093B0093093B1094093B2
:1057A000B2095093B3096091B0097091B109809129
:1057B000B2099091B3090E946B138091A8098B7F65
:1057C0008093A8090E94C11B08951FBC1EBC1092A3
:1057D0007A008FB581608FBD8FB582608FBD8EB529
:1057E00088608EBD8EB580618EBDBD9A8FB5806498
:1057F0008FBDBE9A8FB580618FBD8FB580628FBD22
:105800008EB581608EBDF8948FEF90E09BBD8ABD10
:1058100019BC18BC789408959091710A282F981794
:1058200008F4292F222329F08091720A281708F4FE
:10583000282FF894822F90E099BD88BD789420930A
:105840006F0A089519BC18BC10926F0A0895EF9260
:10585000FF920F931F9390E0AA2797FDA095BA2F70
:10586000BC01CD010E94783D7B018C016091AA06AC
:105870007091AB0680E090E00E94763D20E030E041
:1058800048EC52E40E94DD3C9B01AC01C801B70129
:105890000E942C3E20E030E04FE753E40E94DD3CC4
:1058A0001F910F91FF90EF90089520912008309163
:1058B00021084091220850912308B901CA01089596
:1058C000EF92FF920F931F93DF93CF9300D00F922D
:1058D000CDB7DEB780911F08882369F480E090E09F
:1058E000A0E0B0E08093200890932108A0932208C4
:1058F000B09323089FC080910E08882329F00E944E
:105900004C11892B09F096C080910E080E949C11C1
:105910008EEE92E00E945F1180930E0880910D0838
:10592000882349F46FE078E081E00E946D2F81E0E8
:1059300080930D087FC010920D089E012D5F3F4F90
:10594000AE014E5F5F4FBE016F5F7F4F8FE098E00B
:105950000E94122F882369F080E090E0A0E0B0E080
:105960008093200890932108A0932208B0932308E5
:1059700019C04B816A8189810E945B2EA0E0B0E052
:10598000BC01CD010E94763D20E030E040E251E4D0
:105990000E94DD3C609320087093210880932208C8
:1059A000909323080E949B2D882309F443C0E09024
:1059B0002008F0902108009122081091230860919E
:1059C000750A7091760A80E090E00E94763DA80109
:1059D00097010E94D93C882334F482E00E94CE03D0
:1059E00088EE93E025C06091730A7091740A80E09C
:1059F00090E00E94763DA80197010E94D93C88233F
:105A0000CCF46DEA76E08EEE98E00E94EF3B0E94C7
:105A1000E30B84E690E00E94C51088EE93E020E757
:105A200031E0F9013197F1F70197D9F788EC90E06F
:105A30000E94C5100F900F900F90CF91DF911F9192
:105A40000F91FF90EF9008958F929F92AF92BF9227
:105A5000CF92DF92FF920F931F93DF93CF93CDB737
:105A6000DEB729970FB6F894DEBF0FBECDBF8FEF1C
:105A7000898300E010E022E0C22ED12CCC0EDD1E86
:105A80004E010894811C911C9AE0A92EB12CAC0EF9
:105A9000BD1E19C0B601C4010E949C2F89818F3F91
:105AA000C9F08E3FB9F0D601F80183E0EE0FFF1F79
:105AB0008A95E1F7E15FF74F8D918193AA15BB05B8
:105AC000D9F70F5F1F4FF02E8981882319F002301C
:105AD000110501F78F2D29960FB6F894DEBF0FBE82
