:100000000C94C7000C94E6000C94E6000C94E600F7
:100010000C94E6000C94E6000C941F040C94E6008B
:100020000C94EF030C94E6000C94E6000C94E600AC
:100030000C94E6000C94E6000C94E6000C949B12E1
:100040000C94E6000C94E6000C94E6000C94E60098
:100050000C94E6000C94BD140C94E6000C94E6009D
:100060000C94E6000C94E6000C94E6000C94E60078
:100070000C94E6000C94E6000C948A0E0C94E600B6
:100080000C94E6000C94E6000C94E6006E616E00A1
:10009000696E660000407A10F35A00A0724E18098B
:1000A0000010A5D4E80000E87648170000E40B54DF
:1000B000020000CA9A3B000000E1F50500008096AE
:1000C0009800000040420F000000A08601000000E0
:1000D000102700000000E80300000000640000009A
:1000E00000000A00000000000100000000002C7663
:1000F000D888DC674F0823DFC1DFAE59E1B1B7967E
:10010000E5E3E453C63AE651997696E8E6C28426DA
:10011000EB898C9B62ED407C6FFCEFBC9C9F40F2B6
:10012000BAA56FA5F490055A2AF75C936B6CF96732
:100130006DC11BFCE0E40D47FEF520E6B500D0EDF7
:10014000902E0300943577050080841E080000205F
:100150004E0A000000C80C333333330F986E1283FD
:100160001141EF8D2114893BE65516CFFEE6DB18D1
:10017000D1844B381BF77C1D901DA4BBE424203296
:1001800084725E228100C9F124ECA1E53D2711248F
:100190001FBECFEFD0E1DEBFCDBF18E0A0E0B1E0E1
:1001A000E8EEFAE800E00BBF02C007900D92A23320
:1001B000B107D9F71BE0A2E3B8E001C01D92A33458
:1001C000B107E1F70E942A0B0C9472450C940000D1
:1001D00081E0809396010895982F15988AB78B7FB8
:1001E0008ABF8AB7877F8ABF17988AB78F7B8ABFF3
:1001F0008AB78F778ABF913031F489B7806289BF1F
:1002000089B7806805C089B78F7D89BF89B78F7727
:1002100089BF9093320808958093A508823061F0D9
:10022000833031F0813099F480916500886007C097
:100230000E949D33882331F080916500877F8093F1
:100240006500089580916500886080936500089539
:10025000AF92BF92CF92DF92EF92FF920F931F93D4
:1002600080E197E220E731E0F9013197F1F701975A
:10027000D9F7E090280BF090290B81E00E94291615
:100280006C0182E00E942916C80ED91EEC0CFD1CE0
:1002900000E010E0C801B7010E94AF415B016C01B2
:1002A00026E636E646E655E40E9465427B018C016F
:1002B00020E030E040E85FE30E94124188231CF414
:1002C00061E070E024C0C801B70120E03FEF4FE7D4
:1002D00057E40E9461421816B4F4C601B50120E04B
:1002E00030E040E251E40E9465420E94834180E791
:1002F00091E005C0FC013197F1F761507040611544
:100300007105C1F707C0C801B7010E948341CB0145
:100310000197F1F78091050980939601F89481E0A7
:100320000E94C115909309098093080982E00E94F8
:10033000C115909304098093030978948091340B3C
:100340008093410980910809909109090E948616BD
:100350002DB73EB72A5030400FB6F8943EBF0FBEBF
:100360002DBFEDB7FEB7319623E739E0ADB7BEB785
:1003700012963C932E93119720E031E03383228331
:100380006483758386839783809103099091040920
:10039000918780870E94B3442DB73EB7265F3F4FB9
:1003A0000FB6F8943EBF0FBE2DBF0E94D30C88E855
:1003B00093E120E731E0F9013197F1F70197D9F79F
:1003C0001F910F91FF90EF90DF90CF90BF90AF9073
:1003D0000895CF92DF92EF92FF920F931F93CF93E6
:1003E000DF9380919601813069F4809155088823CC
:1003F00021F00E948A12109255081092480810921B
:100400004708C5C1F89481E00E94C115EC0182E063
:100410000E94C1156C01789480914808882309F0E6
:1004200076C080914708882309F071C080915508F3
:10043000882321F00E948A121092550880910809A1
:1004400090910909C817D90771F480910309909117
:100450000409C816D90609F49AC180919601823020
:1004600009F040C094C1C817D907E4F581E0809332
:10047000480810924D0810924E0810924F081092A2
:1004800050081092490810924A0810924B08109296
:100490004C0820916D0A30916E0A40916F0A50917C
:1004A000700A209351083093520840935308509398
:1004B00054086091060960935708E0910209E0939F
:1004C00056086195609358086E02B0011124882780
:1004D00077FD8095982F620F731F841F951F0E94D0
:1004E0005D1403C081E0809347080091280B1091B0
:1004F000290B81E00E942916800F911F0E944D1246
:100500008093550884E690E00E94B31140C1809129
:1005100055080E943A12892B29F0809155088823AA
:1005200009F035C1809155080E948A121092550831
:1005300080914808882309F4E2C0609158088091AE
:100540005608E82FFF27E7FDF095862F992787FDAE
:1005500090959C01E29FC001E39F900DF29F900D4A
:1005600011249C012C9FC0012D9F900D3C9F900D4C
:1005700011247C010027F7FC0095102F80914D0875
:1005800090914E08A0914F08B0915008E80EF91EC6
:100590000A1F1B1FE0924D08F0924E0800934F086F
:1005A000109350089E01442737FD4095542F8091A9
:1005B000490890914A08A0914B08B0914C08820FCD
:1005C000931FA41FB51F8093490890934A08A093D6
:1005D0004B08B0934C086F5F6093580880915708A0
:1005E00086170CF062C0682F772767FD70956E9FA5
:1005F000C0016F9F900D7E9F900D11249C01442798
:1006000037FD4095542F2E153F0540075107B4F094
:10061000882799278E1B9F0B9C01269FC001279F2F
:10062000900D369F900D11249C01442737FD409575
:10063000542FE216F3060407150744F420934D08DF
:1006400030934E0840934F085093500860914D08E6
:1006500060935808772767FD7095872F972F209113
:100660005108309152084091530850915408620F3C
:10067000731F841F951F0E945D141092480880917B
:100680005808882319F01092460805C08091460842
:100690008F5F8093460880914608823080F181E028
:1006A00080934708109246082AC0862F992787FD15
:1006B00090958E9FB0018F9F700D9E9F700D11249D
:1006C000882777FD8095982F209151083091520806
:1006D0004091530850915408620F731F841F951F57
:1006E0000E945D140091280B1091290B81E00E945B
:1006F0002916800F911F0E944D12809355088091FA
:100700004708882309F443C080919601823031F470
:100710002091080930910909CE0105C020910309F3
:1007200030910409C601821793074CF49091340B61
:100730008091360B981728F5892F8F5F0BC02817EB
:100740003907FCF49091340B8091370B8917C8F46A
:10075000892F81500E94A931E090280BF090290B3D
:1007600081E00E9429168C0182E00E942916080F60
:10077000191FC8018E0D9F1D0E944D1280935508B0
:1007800006C010924708D0930909C0930809DF9169
:10079000CF911F910F91FF90EF90DF90CF90089530
:1007A0000E94BF310E94963308951F93182F81E055
:1007B000809396010E94D0038091A508823049F071
:1007C00080E090E90197F1F780916500886080935F
:1007D0006500163011F0109333081F9108951F9291
:1007E0000F920FB60F920BB60F9211242F933F93D7
:1007F0004F935F936F937F938F939F93AF93BF9329
:10080000EF93FF930E949D33882331F085E00E948F
:10081000D50381E080934408FF91EF91BF91AF91A0
:100820009F918F917F916F915F914F913F912F9108
:100830000F900BBE0F900FBE0F901F9018951F9238
:100840000F920FB60F920BB60F9211242F933F9376
:100850004F935F936F937F938F939F93AF93BF93C8
:10086000EF93FF930E949D33882331F084E00E9430
:10087000D50381E080934508FF91EF91BF91AF913F
:100880009F918F917F916F915F914F913F912F91A8
:100890000F900BBE0F900FBE0F901F901895609198
:1008A0006D0A70916E0A80916F0A9091700A0E9491
:1008B0005D140E9490338091350B0E94A9310895F8
:1008C000EF92FF920F931F930D991AC080913208F7
:1008D0008130B1F48BE999E060E171E00E947544E8
:1008E0000E94D30C88EC90E00E94B31180E197E263
:1008F00020E731E0F9013197F1F70197D9F792C07C
:100900000F991AC0809132088130B1F48BE999E0D7
:1009100065E271E00E9475440E94D30C88EC90E07F
:100920000E94B31180E197E220E731E0F9013197AD
:10093000F1F70197D9F776C06091380B7091390BB8
:1009400080E090E00E94AF417B018C0180E090E06C
:100950000E94F2319B01AC01C801B7010E94124113
:100960008823B4F48BE999E06AE371E00E9475444E
:100970000E94D30C88EC90E00E94B31180E197E2D2
:1009800020E731E0F9013197F1F70197D9F74AC033
:1009900060913A0B70913B0B80E090E00E94AF4178
:1009A0007B018C0181E090E00E94F2319B01AC015F
:1009B000C801B7010E9412418823B4F48BE999E081
:1009C0006FE471E00E9475440E94D30C88EC90E0C3
:1009D0000E94B31180E197E220E731E0F9013197FD
:1009E000F1F70197D9F71EC08091A508813049F031
:1009F00080916500877F8093650080E090E9019792
:100A0000F1F70E944F0480910709813059F4109248
:100A1000640880912A0B80931E0B8091550A806296
:100A20008093550A1F910F91FF90EF9008950E94B7
:100A3000FF130895EF92FF920F931F93CF93DF93CD
:100A400080915908882309F4FEC51092590883EC57
:100A500099E062E479E00E94E510809340098823E0
:100A600009F0F1C52091A60880914209281709F0E4
:100A7000EAC590914309963009F004C48091650855
:100A8000882309F0F1C3C0914609D09147098091AC
:100A90004409909145098531910509F450C3863187
:100AA000910508F063C08A30910509F479C28B3052
:100AB000910570F58430910509F48AC1853091055E
:100AC00080F48130910509F4FAC08130910508F471
:100AD000BEC08230910509F418C1039709F0A1C581
:100AE00027C18730910509F4F8C18830910540F499
:100AF0008530910509F4C0C1069709F092C5D8C1A7
:100B00008830910509F42BC2099709F08AC53FC2C4
:100B10008F30910509F4C1C28031910580F48C3089
:100B2000910509F457C28C30910508F442C28D300A
:100B3000910509F482C20E9709F073C592C2823101
:100B4000910509F4CBC28331910540F480319105C0
:100B500009F4B8C2419709F064C5BBC2833191055D
:100B600009F4C1C2449709F05CC5C2C2873291053D
:100B700009F447C38832910588F58132910509F45B
:100B800022C38232910598F48D31910509F405C391
:100B90008E31910520F44C9709F043C5F7C28E3190
:100BA000910509F401C3809709F03BC507C384325E
:100BB000910509F417C38532910540F482329105FD
:100BC00009F406C3839709F02CC507C38532910544
:100BD00009F40DC3869709F024C50EC38D32910523
:100BE00009F42DC38E329105B8F48A32910509F4C7
:100BF00017C38B32910540F48832910509F406C37E
:100C0000899709F00EC507C38B32910509F40DC30E
:100C10008C9709F006C50EC320E18B30920709F4CA
:100C2000EAC120E18C30920740F48E32910509F43C
:100C30000BC38F9709F0F5C40CC320E18C309207E9
:100C400009F4EAC18F5F9F4F09F0EBC40AC3CE01DC
:100C5000837090708130910519F0029739F404C0C7
:100C600081E00E94D50302C00E946004CE018C7016
:100C70009070009731F096958795969587950E948C
:100C80000C019E01207330702032310559F0203361
:100C9000310551F02031310509F0C3C481E0809362
:100CA0009601BFC482E001C083E0809305090E94E1
:100CB0009D33882309F4B5C40E942801B2C4209151
:100CC0002B0B30912C0B40912D0B50912E0BCE0104
:100CD000A0E0B0E082179307A407B50708F4E90184
:100CE0002091200B3091210B4091220B5091230B2E
:100CF000CE01A0E0B0E0281739074A075B0708F4E7
:100D0000E901BE0180E090E0B4C08091370B282F4C
:100D100030E02C173D0708F49E018091360B482FD8
:100D200050E0C9014217530708F02EC1CA012CC177
:100D3000CE01A0E0B0E08093200B9093210BA09314
:100D4000220BB093230B20912B0B30912C0B409155
:100D50002D0B50912E0B82179307A407B50740F473
:100D60002093200B3093210B4093220B5093230BA5
:100D70008091200B9091210BA091220BB091230B1D
:100D800081549C49A040B04060F080E49CE9A0E020
:100D9000B0E08093200B9093210BA093220BB09393
:100DA000230B2091200B3091210B4091220B50916D
:100DB000230B80916D0A90916E0AA0916F0AB091F9
:100DC000700A281739074A075B0708F02AC44FC082
:100DD000CE01A0E0B0E080932B0B90932C0BA0935E
:100DE0002D0BB0932E0B2091200B3091210B4091B5
:100DF000220B5091230B281739074A075B0740F451
:100E000020932B0B30932C0B40932D0B50932E0BD8
:100E100080912B0B90912C0BA0912D0BB0912E0B50
:100E200088599A43A040B04060F488E99AE3A0E072
:100E3000B0E080932B0B90932C0BA0932D0BB093D1
:100E40002E0B20912B0B30912C0B40912D0B5091A0
:100E50002E0B80916D0A90916E0AA0916F0AB0914D
:100E6000700A82179307A407B50708F0DAC3CA010E
:100E7000B9010E945D14D5C3C093350B4091360B68
:100E80005091330B842F90E0851B91092C2F30E07B
:100E9000821793071CF4451B4093350B9091370B39
:100EA0008091350B891708F0BCC39093350BB9C3FB
:100EB000C093330B4091360B242F30E02C1B3109AB
:100EC00080910C0790E0281739070CF0AAC3809195
:100ED000350B481B4093330BA4C3C093360B509182
:100EE000350B4091330B2C2F30E0852F90E0840F91
:100EF000911D281739074CF4450F4093360B05C058
:100F00008091360B81508093360B8091360B0E9476
:100F1000C4317B018C0160910F0770E0882777FD59
:100F20008095982F0E94B14120E030E040E251E4EA
:100F30000E9416419B01AC01C801B7010E946142A9
:100F40001816F4F20E949D33882309F46AC3909125
:100F5000360B8091340B981708F063C314C0C0930C
:100F6000370B8091350B8C1710F48093370B0E9450
:100F70009D33882309F455C39091370B8091340B2E
:100F8000891708F04EC3892F0E94A9314AC3C09324
:100F90000209CB300CF445C38AE08093020941C3B7
:100FA000C0930609CB300CF43CC38AE08093060959
:100FB00038C3D0933D0BC0933C0B8091380B90917C
:100FC000390BC817D90708F02CC390933D0B8093B9
:100FD0003C0B27C3D093390BC093380B80913C0B4B
:100FE00090913D0B8C179D0708F01BC39093390B14
:100FF0008093380B16C3D0933F0BC0933E0B809168
:101000003A0B90913B0BC817D90708F00AC390938D
:101010003F0B80933E0B05C3D0933B0BC0933A0B21
:1010200080913E0B90913F0B8C179D0708F0F9C201
:1010300090933B0B80933A0BF4C28091A108282F28
:1010400030E02C173D0708F49E0180912807482FB7
:1010500050E0C9014217530708F4CA010E94D63371
:10106000E0C2C093410B409128075091420B842F5E
:1010700090E0851B91092C2F30E0821793071CF418
:10108000451B4093410B9091A1088091410B89171A
:1010900008F0C7C29093410BC4C2C093420B409169
:1010A0002807242F30E02C1B31098091270790E07E
:1010B000281739070CF0B5C28091410B481B4093AB
:1010C000420BAFC2D0930E07C0930D078CE290E0A5
:1010D00071C0C0930F078FE390E0BFC0C093E201DF
:1010E00088E490E0BAC0C093E30189E490E0B5C021
:1010F000CE01A0E0B0E080932F0B9093300BA09333
:10110000310BB093320B2091200B3091210B409189
:10111000220B5091230B82179307A407B50740F4C5
:1011200020932F0B3093300B4093310B5093320BA5
:1011300060912F0B7091300B8AE490E03CC0CE019F
:10114000A0E0B0E08093240B9093250BA093260B96
:10115000B093270B20912B0B30912C0B40912D0B32
:1011600050912E0B281739074A075B0740F420934C
:10117000240B3093250B4093260B5093270B609143
:10118000240B7091250B8CE490E015C0D093800A5D
:10119000C0937F0A80E490E00DC0D093910AC09381
:1011A000900A82E490E006C0D093A20AC093A10AFC
:1011B00084E490E0BE010E945D4533C2C0933408D0
:1011C0008FE290E04AC0C093350880E390E045C0CC
:1011D000C093360881E390E040C0C093370882E3B3
:1011E00090E03BC0C093380883E390E036C0C093E2
:1011F000390884E390E031C0C0933A0885E390E079
:101200002CC0C0933B0886E390E027C0C0933C0805
:1012100087E390E022C0C0933D0888E390E01DC0C2
:10122000C0933E0889E390E018C0C0933F088AE36A
:1012300090E013C0C09340088BE390E00EC0C093D1
:1012400041088CE390E009C0C09342088DE390E030
:1012500004C0C09343088EE390E06C2F0E94504579
:10126000E0C10E94E01ADDC1209342099093430936
:1012700081E080936E098FEF9FEF909345098093F3
:1012800044097EC1933009F0DEC120934209909356
:10129000430981E080936E0980914409909145094A
:1012A000009709F085C089E090E09093450980930C
:1012B00044090E949D33882319F421E030E002C0E4
:1012C00022E030E08091A50890E0880F991F880FF8
:1012D000991F282B392B8091960190E054E0880FBC
:1012E000991F5A95E1F7282B392B8091650890E0DA
:1012F00046E0880F991F4A95E1F7282B392B309348
:1013000047092093460980916D0A90916E0A909347
:101310004909809348098091340B80934A091092BF
:101320004B098091400B80934C0910924D0980E04D
:1013300090E00E94F2317B018C0181E090E00E94FC
:10134000F2319B01AC01C801B7010E94614218163D
:101350001CF480E090E002C081E090E00E94F23155
:1013600020E030E040E251E40E9465420E947E416C
:1013700070934F0960934E0980E00E94C1159093CD
:1013800051098093500981E00E94C115909353093F
:101390008093520982E00E94C11590935509809371
:1013A000540980913308809356091092570939C126
:1013B0008130910509F056C08CE090E0909345098A
:1013C000809344098091200B9091210B90934709C1
:1013D0008093460980912B0B90912C0B9093490997
:1013E00080934809EAE4F9E08091350B80934A093B
:1013F00010924B098091330B80934C09138280919A
:10140000360B80934E0915828091370B80935009DB
:10141000178280910209992787FD9095909353092F
:101420008093520980910609992787FD90959093A2
:101430005509809354098CE39BE09093570980935E
:10144000560988E39BE0909359098093580980914D
:10145000410B80935A09118A8091420B80935C0959
:10146000138ADFC08230910509F047C086E090E022
:10147000909345098093440980E090E00E94F23106
:1014800020E030E040E251E40E9465420E94834146
:10149000709347096093460981E090E00E94F23121
:1014A00020E030E040E251E40E9465420E94834126
:1014B000709349096093480980913C0B90913D0BD2
:1014C00090934B0980934A098091380B9091390B86
:1014D00090934D0980934C0980913E0B90913F0B66
:1014E00090934F0980934E0980913A0B90913B0B5A
:1014F000909351098093500994C08031910559F41B
:1015000081E090E0909345098093440980910D0714
:1015100090910E0735C08131910549F481E090E04A
:10152000909345098093440980910F070BC0823145
:10153000910569F481E090E0909345098093440916
:101540008091E20180934609109247096AC0833175
:10155000910549F481E090E0909345098093440916
:101560008091E301EFCF8431910579F481E090E03F
:10157000909345098093440980912F0B9091300BF3
:1015800090934709809346094CC08531910559F4E1
:1015900081E090E090934509809344098091240B69
:1015A0009091250BEDCF8C31910559F481E090E0BD
:1015B000909345098093440980917F0A9091800A15
:1015C000DFCF8D31910559F481E090E0909345098A
:1015D000809344098091900A9091910AD1CF8E31E5
:1015E000910559F481E090E0909345098093440976
:1015F0008091A10A9091A20AC3CF809791F480E1D3
:1016000090E09093450980934409A4E3B8E0E6E4B0
:10161000F9E08D9180831182329688E0A434B80776
:10162000C1F782E499E067EA78E04BE550E00E9478
:10163000591087EA98E060E070E040E050E02CE26A
:1016400031E00E94C80EDF91CF911F910F91FF9062
:10165000EF900895AF92BF92CF92DF92EF92FF92F8
:101660000F931F93CF93DF930E9423120E94B11117
:101670000E9482310E94A5330E941B130E948E0C8F
:101680000E9477330E941E1481E00E9455158091BC
:1016900064008860809364000E9431170E94E617FE
:1016A0000E94C31B40913C0950913D0960913E0945
:1016B00070913F0982E00E940E0D0E94F30C809110
:1016C000410B0E94D63380E00E94D503789480912C
:1016D00032080E94EC0084EF91E00E94B31188E888
:1016E00093E120E731E0F9013197F1F70197D9F75C
:1016F00088EC90E00E94B31180ED97E020E731E0A4
:10170000F9013197F1F70197D9F788EC90E00E9441
:10171000B311FBE9AF2EF9E0BF2EE4E8CE2EE1E0F5
:10172000DE2EC0E7D1E00E94CA170E94E901809135
:101730004408882391F08BE999E064E671E00E9407
:10174000754488EC90E00E94B31180ED97E0FE01B3
:101750003197F1F70197D9F799C08091450888230F
:1017600091F08BE999E060E171E00E94754488ECAA
:1017700090E00E94B31180ED97E0FE013197F1F700
:101780000197D9F783C00D9909C080913208813043
:1017900029F48BE999E060E171E00AC00F990BC070
:1017A00080913208813039F48BE999E065E271E08B
:1017B0000E9475446BC060913C0B70913D0B80E0C2
:1017C00090E00E94AF417B018C0180E090E00E949C
:1017D000F2319B01AC01C801B7010E94124188237C
:1017E0002CF48BE999E06AE371E0E2CF60913E0B63
:1017F00070913F0B80E090E00E94AF417B018C0133
:1018000081E090E00E94F2319B01AC01C801B70178
:101810000E94124188232CF48BE999E06FE471E077
:10182000C7CF0E949D33882319F42AE731E002C014
:101830002FE731E08091650083FF03C08AE791E0E4
:1018400002C08FE791E04DB75EB7485050400FB6E9
:10185000F8945EBF0FBE4DBFEDB7FEB73196ADB782
:10186000BEB71296BC92AE921197D382C2823583D4
:101870002483978386830E94B3444DB75EB7485F45
:101880005F4F0FB6F8945EBF0FBE4DBF0E94D30CE2
:101890000E9405320E941A0546CF883A11F482EA66
:1018A0000895883B11F485EB0895803C28F0E82FDB
:1018B000F0E0E952FF4F80810895F8949798E5E6AB
:1018C000F0E090819E7F908385BB808182608083E1
:1018D00084E08A95F1F780818D7F8083789485EF0D
:1018E0008A95F1F70895F894979AE5E6F0E09081EB
:1018F0009E7F908385BB80818260808384E08A950F
:10190000F1F780818D7F8083789485EF8A95F1F758
:1019100008950E944D0C0E94730C08958F9A809137
:101920006400816080936400809164008260809391
:1019300064008FEF84BB88EE93E020E731E0F9018B
:101940003197F1F70197D9F788E30E945D0C8CE09D
:101950000E945D0C86E00E945D0C81E00E945D0C9F
:101960008CEC9CE10197F1F7089581E00E945D0CF9
:101970008CEC9CE10197F1F70895CF93DF93EB0195
:101980008295880F880F807C80580E945D0C20977C
:1019900021F406C021960E94890C88818823D1F702
:1019A000DF91CF91089580E06BE979E00E94BD0C52
:1019B00081E063E779E00E94BD0C0895CF93DF9347
:1019C000EC01009721F406C021960E94890C8881C1
:1019D0008823D1F7DF91CF9108958091040A08956B
:1019E0008091030A08958CE080939D001092030A71
:1019F000089586E080939D0081E08093030A089516
:101A000086E080939D0082E08093030A089586E03B
:101A100080939D0083E08093030A08951F93182FFD
:101A20009A01AB0160E070E18EE090E00E940E430D
:101A3000215030401093040A10929B0088E180935B
:101A40009A008CE080939D00309398002093990039
:101A500080939D001092030A1123A9F08C9A1130F3
:101A600051F480919A008F7E80939A00949A80918D
:101A70009A008F770BC0123059F480919A008061E0
:101A800080939A00949880919A00806880939A003D
:101A90001F9108958091040A882379F0949A809187
:101AA0009A008F7E80939A0080E098E40197F1F786
:101AB00080919A008F7780939A0008958091040A0C
:101AC0008823B9F080919B0086FFFCCF8CEC9CE1D1
:101AD0000197F1F780919A00806180939A00949821
:101AE00080E098E40197F1F780919A0080688093F4
:101AF0009A000895982F80919B0085FFFCCF9093CA
:101B00009C0080E090E0089580919B0087FFFCCFCF
:101B100080919C0090E0089520919B0030E0207817
:101B20003070C9010895982F8A3341F48093C30916
:101B300081E080935A08109259080EC080915A088B
:101B4000882351F080915A08E82FF0E0ED53F64FCA
:101B500090838F5F80935A088091C3098A33B1F4D0
:101B6000E0915A08F0E0EF53F64F80818D3071F428
:101B7000E0915A08F0E0EE53F64F80818A3031F45C
:101B800081E08093590810925A08089580915A086C
:101B9000803421F410925A08109259080895982F11
:101BA000833241F48093C30981E080935A081092F4
:101BB00059080EC080915A08882351F080915A0824
:101BC000E82FF0E0ED53F64F90838F5F80935A0833
:101BD0008091C309833271F4E0915A08F0E0EE532A
:101BE000F64F80818D3031F481E080935908109256
:101BF0005A08089580915A08803421F410925A08A6
:101C0000109259080895982F8E3789F480915A08B8
:101C1000882369F41092590880915A08E82FF0E05F
:101C2000ED53F64F90838F5F80935A0814C08091D4
:101C30005A08882381F080915A08843060F480919A
:101C40005A08E82FF0E0ED53F64F90838F5F8093B2
:101C50005A08109259088091C3098E3751F4809127
:101C60005A08843031F410925A0881E08093590860
:101C7000089580915A08803469F423EC39E0C90151
:101C800060E070E040E450E00E946E4410925A0818
:101C9000109259080895982F8E3371F08A3061F0B0
:101CA00080915A08E82FF0E0ED53F64F90838F5F54
:101CB00080935A0810925908E0915A08F0E023ECFA
:101CC00039E0EE53F64F80818D30A1F481E08093AE
:101CD000590880915A08803450F480915A08E82FAE
:101CE000F0E0E20FF31F10828F5F80935A0810928A
:101CF0005A08089580915A08803459F4C90160E067
:101D000070E040E450E00E946E4410925A08109235
:101D1000590808951F920F920FB60F920BB60F92AB
:101D200011242F933F934F935F936F937F938F93E0
:101D30009F93AF93BF93EF93FF9380919C009091FB
:101D4000030A913051F0913028F0923049F09330ED
:101D500061F409C00E94930D08C00E94CF0D05C018
:101D60000E944B0E02C00E94030EFF91EF91BF91A3
:101D7000AF919F918F917F916F915F914F913F9123
:101D80002F910F900BBE0F900FBE0F901F901895C4
:101D9000CF92DF92EF92FF920F931F93CF93DF9337
:101DA000EC017B01D42EC52E89018091040A82307A
:101DB00011F40E944A0D8091030A8823A9F490E04F
:101DC00007C080919B0085FFFCCFE0939C009F5F44
:101DD000FE01E90FF11DE081EA3099F780919B0047
:101DE00085FFFCCF8AE016C08130B9F490E007C0CF
:101DF00080919B0085FFFCCFE0939C009F5FFE01DC
:101E0000E90FF11DE081ED3099F780919B0085FF8E
:101E1000FCCF8DE080939C0013C0833089F420E0D8
:101E200030E0FE01E20FF31FE08180919B0085FF0F
:101E3000FCCFE0939C002F5F3F4F2430310589F7A2
:101E4000E114F10441F48091040A823011F40E94FB
:101E50005E0D10E03BC00E945E0DC8010E944D1255
:101E6000082F25C080919A008F7780939A008091E7
:101E700059088823B9F0109259088D2D9C2D9C018A
:101E8000F9012134310510F0E0E4F0E023EC39E011
:101E9000C701B901AF010E946544802F0E948A12D8
:101EA00010E00BC080919A00806880939A00802F88
:101EB0000E943A12892BB1F617E0802F0E948A12F5
:101EC0008091040A813011F40E944A0D812FDF9124
:101ED000CF911F910F91FF90EF90DF90CF900895D9
:101EE000FB018F708A3010F4805D01C0895C8083B3
:101EF00080E00895FB01982F92959F709A3010F41E
:101F0000905D01C0995C90838F708A3010F4805D81
:101F100001C0895C818380E00895FF920F931F9335
:101F2000F82E8B01892F0E947A0F0E5F1F4F8F2D85
:101F3000B8010E947A0F80E01F910F91FF900895E1
:101F4000982FFB018154863020F49753908380E0D2
:101F50000895892F80538A3010F082E0089580839D
:101F600080E00895CF92DF92EF92FF920F931F933C
:101F7000DF93CF930F92CDB7DEB77C018B01FC01CD
:101F800080816E010894C11CD11CB6010E94A00F73
:101F9000282F882381F489818295807FF8018083AE
:101FA000F7018181B6010E94A00F282FF8018081DE
:101FB0009981890F8083822F0F90CF91DF911F919C
:101FC0000F91FF90EF90DF90CF900895CF92DF9226
:101FD000EF92FF920F931F93DF93CF930F92CDB7A2
:101FE000DEB77C018B016E010894C11CD11CB601C7
:101FF0000E94B20F382F882391F48981F801108252
:102000008183C7010296B6010E94B20F382F298141
:10201000F80180819181820F911D91838083832FAC
:102020000F90CF91DF911F910F91FF90EF90DF9074
:10203000CF9008956F927F928F929F92AF92BF92AE
:10204000CF92DF92FF920F931F93DF93CF930F9264
:10205000CDB7DEB75C016B014A0100E010E0FF2460
:102060003E010894611C711C0CC0C501800F911FBA
:10207000B3010E94B20F882369F40E5F1F4F89815C
:10208000F80E0C151D0588F38F2D8195B4010E9463
:102090007A0F80E00F90CF91DF911F910F91FF9009
:1020A000DF90CF90BF90AF909F908F907F906F9078
:1020B0000895CF92DF92FF920F931F93CF93DF93F8
:1020C0008C016B01DC019C968C919C97813039F4DA
:1020D00011968C91833019F48BE590E002C081E178
:1020E00090E04817590710F494E066C0F6018AE3BF
:1020F0008193D8018C91BF010E947A0FB6016D5F68
:102100007F4FF80181810E947A0FE6012596D80160
:102110009C968C919C97813071F411968C911197BB
:10212000833049F412968C91880FBE010E947A0F79
:10213000E601279607C0F80182819381BE010E94C3
:102140008D0F2496D80114968D919C911597BE0100
:102150000E948D0F2496F80184A58130E1F48181DD
:102160008330C9F4FF24F3940CC03296EE0FFF1FA6
:10217000E00FF11F80819181BE010E948D0F249696
:10218000F394EF2DF0E0D80112968D919C91139766
:10219000E817F90750F3B601609570956C0F7D1F35
:1021A000C6010196AE010E941A10982F882321F4CF
:1021B0008DE08A838AE08B83892FDF91CF911F91F5
:1021C0000F91FF90DF90CF900895AF92BF92CF9282
:1021D000DF92EF92FF920F931F93DF93CF9300D084
:1021E0000F92CDB7DEB76C018B018DE2FB0111922E
:1021F0008A95E9F7F60160E070E080818D30B9F4EE
:1022000081818A30A1F442E0A42EB12CA60EB71E23
:1022100076010894E11CF11C63507040C701AE01C7
:102220004E5F5F4F0E941A10882349F08CC06F5F89
:102230007F4F31966B35710501F785E084C0F6015B
:10224000EA0DFB1D34979A8180813496981709F026
:1022500077C033979B818081981709F071C0C701BF
:10226000B8010E94B20F882309F06DC033E0E32E5D
:10227000F12CEC0CFD1CB8016F5F7F4FC7010E9471
:10228000B20F882309F05FC0F8018181833009F023
:1022900044C0F1E1AF16B10409F43FC081E0F80198
:1022A00084A725E0E22EF12CEC0CFD1CC701BE0139
:1022B0006F5F7F4F0E94B20FD82E882309F042C073
:1022C00089818695843118F084E190E001C090E026
:1022D000F8019383828382E090E0E80EF91E198270
:1022E00012C06E5F7F4F660F771F600F711FC701AF
:1022F0000E94E60F882339F589818F5F8983E4E0A6
:10230000F0E0EE0EFF1E8981682F70E0F8018281F7
:1023100093816817790728F315C0F80114A6B8014E
:102320006E5F7F4FC70102960E94E60F882359F423
:102330000C5F1F4FC7010696B8010E94E60F03C04D
:1023400083E001C08D2D0F900F900F90CF91DF9102
:102350001F910F91FF90EF90DF90CF90BF90AF90C3
:102360000895899A0895AF92BF92CF92DF92EF922B
:10237000FF920F931F93919AA0E0B0E0BC01CD01B2
:102380000E94AF415B016C0126E636E646E655E465
:102390000E9465427B018C0120E030E040E85FE371
:1023A0000E94124188231CF461E070E024C0C8013F
:1023B000B70120E03FEF4FE757E40E946142181653
:1023C000B4F4C601B50120E030E040E251E40E94DF
:1023D00065420E94834180E791E005C0FC0131978E
:1023E000F1F76150704061157105C1F707C0C80170
:1023F000B7010E948341CB010197F1F791981F919A
:102400000F91FF90EF90DF90CF90BF90AF90089525
:102410009C01919A8091070A9091080A821793076C
:1024200038F08091070A9091080A8F5F9F4F51F40E
:102430008FEF2F3F380711F42EEF3FEF3093080A4C
:102440002093070A089580E090E02FEF3FEFFC0112
:10245000EE0FFF1FEB5FF54F318320830196803233
:102460009105A9F787B7826087BF83E781BF8DE0B9
:1024700083BF08959FB7F894803218F0E0E0F0E051
:1024800009C0E82FF0E0EE0FFF1FEB5FF54F019062
:10249000F081E02D9FBFCF0108959C015FB7F894B4
:1024A000A2E0B0E04A2FFD01EE0FFF1FEB5FF54FFA
:1024B000808191818F5F9F4F71F48FEF2F3F38079D
:1024C00011F42EEF3FEFAA0FBB1FAB5FB54F119674
:1024D0003C932E9305C04F5F1196A032B10511F7C2
:1024E0005FBF842F08952FB7F8943FEF8F3F930776
:1024F00011F48EEF9FEF9093060A8093050A2FBF89
:102500002FB7F8948091050A9091060A2FBF892B66
:10251000B9F70895E82F2FB7F89482508E3148F418
:10252000F0E0EE0FFF1FEB5FF54F8FEF9FEF918312
:1025300080832FBF08951F920F920FB60F920BB694
:102540000F9211242F933F934F935F936F937F9339
:102550008F939F93AF93BF93EF93FF9320E030E06F
:10256000F901EE0FFF1FEB5FF54F80819181892B01
:1025700051F0808191818F5F9F4F29F080819181FF
:102580000197918380832F5F3F4F2032310541F7C0
:102590008091070A9091080A019709F491980E9486
:1025A00017058091D7019091D80101979093D80198
:1025B0008093D7010196C9F480915B0890915C08E3
:1025C000A0915D08B0915E080196A11DB11D809398
:1025D0005B0890935C08A0935D08B0935E088AEE58
:1025E00093E09093D8018093D70180915F089091F8
:1025F0006008A0916108B09162080196A11DB11D0B
:1026000080935F0890936008A0936108B09362087C
:10261000FF91EF91BF91AF919F918F917F916F91BA
:102620005F914F913F912F910F900BBE0F900FBE76
:102630000F901F9018951092550A8FEF8093680A9B
:102640008093660AE5E4FAE0119211928AE0E5359A
:10265000F807D1F78FEF84BB889808951092550A38
:1026600008952091680AE82FF0E030E0082E02C0BB
:10267000359527950A94E2F720FF24C08091660AD9
:1026800090E00E2E02C0959587950A94E2F780FDA2
:1026900019C02091550A81E090E00E2E02C0880FEB
:1026A000991F0A94E2F7282B2093550AEE0FFF1F7B
:1026B000DF01AB5BB54F1D921C92EA5AF54F1182B8
:1026C000108208958091680A90E00E2E02C09595C0
:1026D00087950A94E2F780FD10C08091660A90E029
:1026E0000E2E02C0959587950A94E2F780FF05C0EB
:1026F00082E390E00E94081208958091680A90E0B9
:102700000E2E02C0959587950A94E2F780FD36C09B
:102710008091660A90E00E2E02C0959587950A94E6
:10272000E2F780FD2BC04091D9015091DA01209150
:10273000DB013091DC01240F351FDF01AA0FBB1F25
:10274000AB5BB54F8D919C911197019611969C931F
:102750008E932817390790F42091550A81E090E074
:1027600002C0880F991FEA95E2F7282B2093550A9B
:102770004D935C9384E190E00E9408120895FF92CB
:102780000F931F93CF93DF938091680A8093660A1B
:10279000C0E0D0E001E010E028E1F22E4C2F9801DB
:1027A0000C2E02C0220F331F0A94E2F7822F80956D
:1027B00085BB8F2D8A95F1F790E080E080999F5F2F
:1027C0008F5F8A30D9F7983020F08091680A822B89
:1027D00007C0933038F49091680A822F809589233E
:1027E0008093680A842F0E9431132196C830D10546
:1027F000A9F6DF91CF911F910F91FF9008958091DD
:10280000670A81508093670A8F5F29F48AE080937A
:10281000670A0E94BF130895C39AC29820E097FFE9
:1028200002C0C49A01C0C498C398C39A2F5F2031D4
:1028300019F0880F991FF3CFC29A0895BA9ABB9ADC
:10284000BC9A80E090E10E940C1480E090EC0E9421
:102850000C1480E090EE0E940C1488E690E20E9436
:102860000C140895EF92FF920F931F937B018C013C
:1028700088E690E20E940C148FEF9FEFAFEFBFE06D
:10288000E822F9220A231B23C7019F7390640E9448
:102890000C144EE016950795F794E7944A95D1F7F6
:1028A000AFEFBFE3EA22FB22C70190640E940C1441
:1028B0001F910F91FF90EF900895AF92BF92CF922A
:1028C000DF92EF92FF920F931F9368392AE372070A
:1028D00020E0820720E0920728F468E97AE380E0AC
:1028E00090E00CC061342CE9720720E0820720E000
:1028F000920720F060E47CE980E090E060936D0A4C
:1029000070936E0A80936F0A9093700A28EC30E0FF
:1029100040E050E00E94C8425B016C019B01A601AF
:1029200060E070E080E090E00CE10E946E36AA2446
:10293000BB24E1EECE2EDD24EE24FF2400E010E0E7
:102940000E94ED36122F032FF42EE52E622F702FEA
:102950008F2D9E2D0E9432141093690A00936A0AEB
:10296000F0926B0AE0926C0A1F910F91FF90EF902A
:10297000DF90CF90BF90AF9008951F920F920FB647
:102980000F920BB60F921124DF92EF92FF920F93EA
:102990001F932F933F934F935F936F937F938F93E7
:1029A0009F93AF93BF93CF93DF93EF93FF9354B174
:1029B00045B1D090A50AED2DF0E0EC51FE4F2081FD
:1029C00030E0942F80E0850F911DE90144E0CC0FA9
:1029D000DD1F4A95E1F7C20FD31FCF58D54F9F8314
:1029E0008E832E853F85821B930B088802C09595A8
:1029F00087950A94E2F77C010027F7FC0095102FD9
:102A000088859985AA85BB85E80EF91E0A1F1B1FBC
:102A1000E886F9860A871B878A819B8101969B83BA
:102A20008A832C813D818217930770F01B821A8262
:102A300040E050E0C801B7010E9430433D872C8739
:102A4000188619861A861B86ED2DEF5FE093A50A7E
:102A5000F0E0EC51FE4F80818F3F11F41092A50AF7
:102A6000E091A50AF0E0EC51FE4F80819091A40A1C
:102A7000890F87B9369AFF91EF91DF91CF91BF917E
:102A8000AF919F918F917F916F915F914F913F9106
:102A90002F911F910F91FF90EF90DF900F900BBE41
:102AA0000F900FBE0F901F901895282F80936308EA
:102AB000E1E7FAE035E080E092E0108231831382B2
:102AC000128295838483178216821086118612865D
:102AD00013861586148617861686108A71964AE024
:102AE000E43AF40751F78FEF91E09093800A8093D6
:102AF0007F0A9093910A8093900A87E086B9379A6B
:102B000080E48093A40A213049F41092A50A8091B0
:102B1000E401805C87B9339A369A08951092A50A29
:102B20008091E401805C87B933980895982F8330B1
:102B300008F090E08091A40A890F87B9369A3699F7
:102B4000FECF54B145B1892F90E0342F20E0250FFE
:102B5000311DFC0154E0EE0FFF1F5A95E1F7E80F1D
:102B6000F91FEF58F54F3783268386859785281BF5
:102B7000390B008802C0359527950A94E2F7C90100
:102B8000089590E0FC0164E0EE0FFF1F6A95E1F705
:102B9000E80FF91FEF58F54F84859585089590E06B
:102BA000FC0174E0EE0FFF1F7A95E1F7E80FF91FC3
:102BB000EF58F54F2681378186859785281B390B7D
:102BC000008802C0359527950A94E2F7C901089557
:102BD00090E0FC01A4E0EE0FFF1FAA95E1F7E80FDB
:102BE000F91FEF58F54F848195810895833008F0DF
:102BF00080E06115710511F461E070E090E0FC0186
:102C0000B4E0EE0FFF1FBA95E1F7E80FF91FEF5898
:102C1000F54F75836483089590E0FC0124E0EE0F86
:102C2000FF1F2A95E1F7E80FF91FEF58F54F818153
:102C30000895833008F080E090E0FC0134E0EE0F6E
:102C4000FF1F3A95E1F7E80FF91FEF58F54F618341
:102C5000089590916308282F30E0913091F4F901A4
:102C600054E0EE0FFF1F5A95E1F7E20FF31FEF5804
:102C7000F54F848195816AE070E00E94E742AB01E4
:102C800015C0F90144E0EE0FFF1F4A95E1F7E20F8E
:102C9000F31FEF58F54F818190E024813581829FA9
:102CA000A001839F500D929F500D1124CA010895D9
:102CB0002091E10130E0829FB001839F700D929FCF
:102CC000700D1124882777FD8095982F0E94B141BF
:102CD00020E030E04AE754E40E9416410895209134
:102CE000E20130E0829FB001839F700D929F700DD2
:102CF0001124882777FD8095982F0E94B14120E00C
:102D000030E04AE754E40E94164108952091E3011F
:102D100030E0829FB001839F700D929F700D11244F
:102D2000882777FD8095982F0E94B14120E030E000
:102D30004AE754E40E94164108958F929F92AF9201
:102D4000BF92CF92DF92EF92FF920F931F93CF9398
:102D5000DF93E091A50AF0E0EC51FE4FD080809126
:102D60006308813009F470C08D2C9924F401A4E02B
:102D7000EE0FFF1FAA95E1F7E80DF91DEF58F54F8B
:102D80008081882329F00E943A12892B09F04FC0D4
:102D9000E40174E0CC0FDD1F7A95E1F7C80DD91D71
:102DA000CF58D54FE884F9840A851B858D2D0E9464
:102DB00096155C01CC24B7FCC094DC2CAE0CBF1C77
:102DC000C01ED11EA886B986CA86DB868A819B81F1
:102DD00001969B838A834C815D819A01215030400A
:102DE0002817390778F41B821A829A0140E050E0D4
:102DF000C601B5010E9430433D872C87188619868D
:102E00001A861B86840164E0000F111F6A95E1F7A2
:102E1000080D191D0F58154FF80180810E948A1264
:102E2000F801818190E00E944D12F8018083E091C9
:102E3000A50AEF5FE093A50AF0E0EC51FE4F808118
:102E40008F3F11F41092A50ADF91CF911F910F913E
:102E5000FF90EF90DF90CF90BF90AF909F908F90BA
:102E6000089520E030E04CE350E0F901E25EF44FD9
:102E70001082249FF001259FF00D349FF00D112446
:102E8000EA55F54F80E090E01192119201968E3153
:102E90009105D1F72F5F3F4F2230310531F708956B
:102EA000809164088F5F80936408823011F41092DF
:102EB0006408089580916408882319F482E080935F
:102EC000640880916408815080936408089580911B
:102ED0006408282F30E0F901E25EF44F80818F5FB3
:102EE00080838E3109F41082D901A25EB44F8C9197
:102EF000F90145E0EE0FFF1F4A95E1F7220F331F5E
:102F0000E21BF30BE80FF11DEE0FFF1FEA55F54F23
:102F100080819181892B09F41C9208958091640825
:102F2000A82FB0E0FD01E25EF44F8081882311F408
:102F30008EE18083FD01E25EF44F4081CD01880F78
:102F4000991F9D0165E0220F331F6A95E1F7281B49
:102F5000390B4150F901E40FF11DEE0FFF1FEA5547
:102F6000F54F80819181892B31F4442391F7A25E42
:102F7000B44F1C920895A25EB44F4C930895809173
:102F80006408089580916408EEE1FBE0E80FF11D0C
:102F9000808108958091640890E0FC01E25EF44F26
:102FA0002081FC0135E0EE0FFF1F3A95E1F7880F15
:102FB000991FE81BF90BE20FF11DEE0FFF1FEA55F9
:102FC000F54F0190F081E02D099508958CEF97E27F
:102FD0009093A70A8093A60A83EC9DE29093A90A96
:102FE0008093A80A8DE29EE29093AB0A8093AA0A8E
:102FF00081EB9FE29093AD0A8093AC0A83E89FE255
:103000009093AF0A8093AE0A85E59FE29093B10A50
:103010008093B00A82EB9DE19093B30A8093B20A49
:103020008FE19BE29093B50A8093B40A8BEF9AE20A
:103030009093B70A8093B60A87ED9AE29093B90A03
:103040008093B80A8FE89DE19093BB0A8093BA0AF7
:103050008CE69DE19093BD0A8093BC0A8CE080933E
:103060002A0B8CE599E29093BF0A8093BE0A86E909
:1030700093E29093E30A8093E20A8DEA94E29093BC
:10308000E50A8093E40A87EC90E29093E70A809344
:10309000E60A86E690E29093E90A8093E80A84E5DE
:1030A0009DE29093EB0A8093EA0A8EEE9CE2909365
:1030B000ED0A8093EC0A8BEC9BE29093EF0A8093ED
:1030C000EE0A83E79BE29093F10A8093F00A87E887
:1030D0009CE29093F30A8093F20A8BE29CE2909335
:1030E000F50A8093F40A8AED9FE19093F70A8093A2
:1030F000F60A81E493E29093F90A8093F80A87E84C
:1031000092E29093FB0A8093FA0A88ED92E2909300
:10311000FD0A8093FC0A8CEE91E29093FF0A809363
:10312000FE0A86EA91E29093010B8093000B86EDF4
:103130009EE19093030B8093020B82E89EE19093B3
:10314000050B8093040B8FE29EE19093070B809315
:10315000060B8BED9DE19093090B8093080B82E3A6
:1031600092E290930B0B80930A0B8AE99FE1909374
:103170000D0B80930C0B89E29FE190930F0B8093D2
:103180000E0B86E490E29093110B8093100B84E277
:1031900090E29093130B8093120B84EB97E2909341
:1031A000150B8093140B86E297E29093170B809394
:1031B000160B88E996E29093190B8093180B0895EB
:1031C000EF92FF920F931F9380912F0B9091300BF2
:1031D000A091310BB091320B8F5F9F4FA040B04058
:1031E00091F480E49CE9A0E0B0E080932F0B9093F1
:1031F000300BA093310BB093320B8AE490E060E483
:103200007CE90E945D452091240B3091250B409173
:10321000260B5091270B2F3F8FEF380780E0480790
:1032200080E0580769F080912F0B9091300BA091AE
:10323000310BB091320B82179307A407B50790F4B6
:1032400088E99AE3A0E0B0E08093240B9093250BEB
:10325000A093260BB093270B8CE490E068E97AE307
:103260000E945D4588E993E5A0E0B0E08093200BE3
:103270009093210BA093220BB093230B80912F0BE3
:103280009091300BA091310BB091320B883923E52E
:10329000920720E0A20720E0B20740F48093200BC1
:1032A0009093210BA093220BB093230BE090240B5F
:1032B000F090250B0091260B1091270B8091200B8D
:1032C0009091210BA091220BB091230B8E159F059D
:1032D000A007B10740F4E092200BF092210B00937D
:1032E000220B1093230B82E093E5A0E0B0E08093E3
:1032F0002B0B90932C0BA0932D0BB0932E0B83E0F4
:10330000E81683E5F80680E0080780E0180740F03B
:10331000E0922B0BF0922C0B00932D0B10932E0BA5
:103320002091200B3091210B4091220B5091230BC7
:1033300080912B0B90912C0BA0912D0BB0912E0B0B
:10334000281739074A075B0740F4E0922B0BF092ED
:103350002C0B00932D0B10932E0B80912B0B909127
:103360002C0BA0912D0BB0912E0B280F391F4A1F4B
:103370005B1F5695479537952795CA01B9010E945D
:103380005D1482E38093350B1092330B88EC90E050
:103390009093290B8093280B21E02093050910922C
:1033A00007091092320885E08093020920930609EC
:1033B0008FEF8093360B8AE08093370B80E092EC9E
:1033C000A1E0B0E080933C0990933D09A0933E09B1
:1033D000B0933F092093A6088BE490E09093390BBB
:1033E0008093380B80E590E090933D0B80933C0BED
:1033F0008CE390E090933B0B80933A0B81E490E058
:1034000090933F0B80933E0B80E061E00E94191681
:1034100080E068EC70E00E94F61581E061E00E94B7
:10342000191681E068EC70E00E94F61582E061E018
:103430000E94191682E068EC70E00E94F61583E0A5
:103440000E940C018FE58093410B1092420B83E6A2
:103450008093280785E48093A10880910D079091BF
:103460000E078F5F9F4F61F488EE93E090930E07F5
:1034700080930D078CE290E068EE73E00E945D455A
:1034800080910F078F3F41F484E680930F078FE30D
:1034900090E064E60E94504580917F0A9091800AF6
:1034A0008F5F9F4F61F48FEF91E09093800A80933C
:1034B0007F0A80E490E06FEF71E00E945D458091AB
:1034C000900A9091910A8F5F9F4F61F48FEF91E086
:1034D0009093910A8093900A82E490E06FEF71E0FC
:1034E0000E945D458091A10A9091A20A8F5F9F4F33
:1034F00061F48FEF91E09093A20A8093A10A84E493
:1035000090E06FEF71E00E945D458091E2018F3F96
:1035100041F487E38093E20188E490E067E30E944E
:1035200050458091E3018F3F61F487E38093E3018D
:1035300089E490E067E30E94504503C04150409306
:10354000360B8091360B0E94C4317B018C01609157
:103550000F0770E0882777FD8095982F0E94B14172
:1035600020E030E040E251E40E9416419B01AC01B2
:10357000C801B7010E9461424091360B1816F4F25F
:103580008091370B481710F44093370B8091350B1F
:10359000481710F44093350B5091350B2091330BA5
:1035A00030E0842F90E0851B9109821793071CF46B
:1035B000451B4093330B1F910F91FF90EF9008959F
:1035C0006091200B7091210B80E090E00E945D459E
:1035D00060912B0B70912C0B82E090E00E945D4576
:1035E00060916D0A70916E0A84E090E00E945D45E2
:1035F00088E090E06091350B0E94504586E090E0B5
:103600006091330B0E94504580E00E940C16682F99
:1036100089E090E00E94504580E00E94E815BC01DE
:103620008AE090E00E945D4581E00E940C16682FC0
:103630008CE090E00E94504581E00E94E815BC01BA
:103640008DE090E00E945D4582E00E940C16682F9C
:103650008FE090E00E94504582E00E94E815BC0196
:1036600080E190E00E945D4585E190E06091A508D1
:103670000E9450456091280B7091290B86E190E0E3
:103680000E945D4588E190E0609105090E945045E7
:1036900089E190E0609102090E9450458AE190E042
:1036A000609106090E9450458BE190E06091360BD5
:1036B0000E9450458CE190E06091370B0E9450458C
:1036C00060913C0970913D098DE190E00E945D455B
:1036D00020913C0930913D0940913E0950913F09AC
:1036E0009A01442755278FE190E0B9010E945D457A
:1036F00081E290E06091A6080E9450456091380BED
:103700007091390B82E290E00E945D4560913C0B24
:1037100070913D0B84E290E00E945D4560913A0B10
:1037200070913B0B8EE490E00E945D4560913E0BF2
:1037300070913F0B80E590E00E945D4587E290E04C
:103740006091410B0E94504586E290E06091420BEF
:103750000E94504588E290E0609128070E94504501
:1037600089E290E06091A1080E9450458AE290E0D1
:10377000609107090E9450458BE290E06091320809
:103780000E9450450895EF92FF920F931F93CF939D
:10379000DF9380E090E00E944A45A0E0B0E0809393
:1037A000200B9093210BA093220BB093230B82E06C
:1037B00090E00E944A45A0E0B0E080932B0B9093EC
:1037C0002C0BA0932D0BB0932E0B84E090E00E9465
:1037D0004A45A0E0B0E0BC01CD010E945D1488E044
:1037E00090E00E9442458093350B86E090E00E9475
:1037F00042458093330B89E090E00E944245682F58
:1038000080E00E9419168AE090E00E944A45BC01BF
:1038100080E00E94F6158CE090E00E944245682FFF
:1038200081E00E9419168DE090E00E944A45BC019B
:1038300081E00E94F6158FE090E00E944245682FDB
:1038400082E00E94191680E190E00E944A45BC0186
:1038500082E00E94F61585E190E00E9442450E94B8
:103860000C0186E190E00E944A459093290B8093D9
:10387000280B88E190E00E9442458093050989E188
:1038800090E00E944245809302098AE190E00E9404
:103890004245809306098BE190E00E944245809367
:1038A000360B8CE190E00E9442458093370B8DE10E
:1038B00090E00E944A457C0100E010E0E0923C0963
:1038C000F0923D0900933E0910933F098FE190E08B
:1038D0000E944A45A0E0B0E0DC01992788278E29A4
:1038E0009F29A02BB12B80933C0990933D09A09375
:1038F0003E09B0933F0981E290E00E9442458093E7
:10390000A60882E290E00E944A459093390B80938A
:10391000380B84E290E00E944A4590933D0B8093DF
:103920003C0B8EE490E00E944A4590933B0B8093C1
:103930003A0B80E590E00E944A4590933F0B8093BC
:103940003E0B87E290E00E9442458093410B86E265
:1039500090E00E9442458093420B88E290E00E94F2
:1039600042458093280789E290E00E944245809377
:10397000A1088AE290E00E944245809307098BE209
:1039800090E00E9442450E94EC008CE290E00E9490
:103990004A4590930E0780930D07CFE2D0E0CE0109
:1039A0000E944245FE01EB5FF74F80832196CF33A3
:1039B000D105A9F7109243088FE390E00E94424599
:1039C00080930F0780E490E00E944A459093800A1C
:1039D00080937F0A82E490E00E944A459093910A86
:1039E0008093900A84E490E00E944A459093A20A52
:1039F0008093A10A88E490E00E9442458093E2010E
:103A000089E490E00E9442458093E3018AE490E0DB
:103A10000E944A45A0E0B0E080932F0B9093300BBA
:103A2000A093310BB093320B8CE490E00E944A4596
:103A3000A0E0B0E08093240B9093250BA093260B7D
:103A4000B093270BDF91CF911F910F91FF90EF90D3
:103A500008958091550A86FF07C00E948E178091B5
:103A6000550A8F7B8093550A8091550A83FF07C0C2
:103A70000E9467178091550A877F8093550A80912D
:103A8000550A87FF07C00E9450178091550A8F770B
:103A90008093550A8091550A80FF07C00E946004F8
:103AA0008091550A8E7F8093550A8091550A81FF37
:103AB00012C00E949D33882311F080E005C010924F
:103AC00044081092450886E00E94D5038091550A6B
:103AD0008D7F8093550A089500D000D000D0EDB7B7
:103AE000FEB7319683E799E0ADB7BEB712969C93C7
:103AF0008E93119788EE91E09383828384E398E01C
:103B0000958384830E94B3448DB79EB706960FB603
:103B1000F8949EBF0FBE8DBF0E94291D089500D04E
:103B200000D000D0EDB7FEB7319683E799E0ADB78E
:103B3000BEB712969C938E93119782EF91E0938378
:103B4000828383E092E0958384830E94B3448DB79F
:103B50009EB706960FB6F8949EBF0FBE8DBF0E940B
:103B6000291D089500D000D000D0EDB7FEB73196E2
:103B700083E799E0ADB7BEB712969C938E931197E9
:103B80008CE092E093838283809133082FE0829FC0
:103B9000C00111248E54994F958384830E94B344AD
:103BA0008DB79EB706960FB6F8949EBF0FBE8DBF19
:103BB0000E94291D08958091550A82FF16C0209108
:103BC0003E0B30913F0B80913A0B90913B0B82174B
:103BD000930730F42150304030933F0B20933E0B3D
:103BE0008091550A8B7F8093550A8091550A84FFF6
:103BF00011C080913E0B90913F0B8F35910528F4B9
:103C0000019690933F0B80933E0B8091550A8F7ED7
:103C10008093550A00D000D000D0EDB7FEB73196A2
:103C200083E799E0ADB7BEB712969C938E93119738
:103C300087E192E09383828380913E0B90913F0BCA
:103C4000958384830E94B3448DB79EB706960FB6C2
:103C5000F8949EBF0FBE8DBF0E94291D08958091CC
:103C6000550A82FF10C080913A0B90913B0B009750
:103C700029F0019790933B0B80933A0B8091550A62
:103C80008B7F8093550A8091550A84FF16C020913E
:103C90003A0B30913B0B80913E0B90913F0B2817D4
:103CA000390730F42F5F3F4F30933B0B20933A0B93
:103CB0008091550A8F7E8093550A00D000D000D0A5
:103CC000EDB7FEB7319683E799E0ADB7BEB7129670
:103CD0009C938E9311978FE292E0938382838091DD
:103CE0003A0B90913B0B958384830E94B3448DB72C
:103CF0009EB706960FB6F8949EBF0FBE8DBF0E946A
:103D0000291D08958091550A82FF16C020913C0B11
:103D100030913D0B8091380B9091390B82179307AE
:103D200030F42150304030933D0B20933C0B809178
:103D3000550A8B7F8093550A8091550A84FF11C0E4
:103D400080913C0B90913D0B8F35910528F40196A5
:103D500090933D0B80933C0B8091550A8F7E80930E
:103D6000550A00D000D000D0EDB7FEB7319683E7FA
:103D700099E0ADB7BEB712969C938E93119785E4E8
:103D800092E09383828380913C0B90913D0B9583CD
:103D900084830E94B3448DB79EB706960FB6F894FD
:103DA0009EBF0FBE8DBF0E94291D08958091550AA8
:103DB00082FF10C08091380B9091390B009729F049
:103DC00001979093390B8093380B8091550A8B7F24
:103DD0008093550A8091550A84FF16C02091380BB4
:103DE0003091390B80913C0B90913D0B281739078E
:103DF00030F42F5F3F4F3093390B2093380B809175
:103E0000550A8F7E8093550A00D000D000D0EDB7C0
:103E1000FEB7319683E799E0ADB7BEB712969C9393
:103E20008E9311978DE592E0938382838091380B76
:103E30009091390B958384830E94B3448DB79EB7CC
:103E400006960FB6F8949EBF0FBE8DBF0E94291D27
:103E500008951F9320913C0930913D0940913E09FE
:103E600050913F09E6E9F6E010E080819181A2815E
:103E7000B381281739074A075B0721F01F5F349683
:103E8000173099F78DB79EB708970FB6F8949EBF75
:103E90000FBE8DBFEDB7FEB7319683E799E0ADB7A2
:103EA000BEB712969C938E93119783E792E093830B
:103EB000828324833583468357830E94B344809151
:103EC000550A2DB73EB7285F3F4F0FB6F8943EBF57
:103ED0000FBE2DBF84FF09C01F5F173009F410E02B
:103EE0008091550A8F7E8093550A8091550A82FFF2
:103EF00009C0112309F417E011508091550A8B7FF6
:103F00008093550AE12FF0E0EE0FFF1FEE0FFF1F29
:103F1000EA56F94F80819181A281B38180933C0957
:103F200090933D09A0933E09B0933F090E94291D3B
:103F30001F91089500D000D000D0EDB7FEB73196A4
:103F400083E799E0ADB7BEB712969C938E93119715
:103F500084E892E0938382838091A608848315820B
:103F60000E94B3448091550A2DB73EB72A5F3F4F58
:103F70000FB6F8943EBF0FBE2DBF84FF0AC08091DC
:103F8000A6088F5F8093A6088091550A8F7E809344
:103F9000550A8091550A82FF0AC08091A608815077
:103FA0008093A6088091550A8B7F8093550A0E94C2
:103FB000291D089500D000D000D0EDB7FEB731968E
:103FC00083E799E0ADB7BEB712969C938E93119795
:103FD00089E992E0938382838091280B9091290B49
:103FE000958384830E94B3448091550A2DB73EB7D0
:103FF0002A5F3F4F0FB6F8943EBF0FBE2DBF84FF20
:104000000EC08091280B9091290B01969093290B5B
:104010008093280B8091550A8F7E8093550A80915A
:10402000550A82FF0EC08091280B9091290B0197B1
:104030009093290B8093280B8091550A8B7F809356
:10404000550A0E94291D08958091550A85FF15C0C3
:104050000E94E0180E94E01A83E799E06FEA72E09C
:104060000E9475440E94D30C84EF91E00E94B3112A
:104070008091550A8F7D8093550A83E799E064EC1F
:1040800072E00E9475440E94291D08958091550A8E
:1040900085FF13C00E94E01A83E799E069ED72E0A2
:1040A0000E9475440E94D30C84EF91E00E94B311EA
:1040B0008091550A8F7D8093550A83E799E06EEED3
:1040C00072E00E9475440E94291D08958091550A4E
:1040D00082FF0CC08091370B8B3018F08150809399
:1040E000370B8091550A8B7F8093550A8091550A32
:1040F00084FF1FC09091370B8091350B981738F4CF
:104100008091360B981718F49F5F9093370B0E949D
:104110009D33882349F09091370B8091340B891798
:1041200018F4892F0E94A9318091550A8F7E8093BF
:10413000550A8091370B0E94C4312DB73EB72850E5
:1041400030400FB6F8943EBF0FBE2DBFEDB7FEB79F
:10415000319623E739E0ADB7BEB712963C932E9364
:10416000119723E033E0338322836483758386834E
:1041700097830E94B3442DB73EB7285F3F4F0FB6D9
:10418000F8943EBF0FBE2DBF0E94291D0895EF92E7
:10419000FF920F931F938091550A82FF27C0409191
:1041A000360B8091330B2091350B30E0280F311DF9
:1041B000842F90E0281739073CF48091370B84173F
:1041C00018F441504093360B0E949D33882349F0E8
:1041D0009091360B8091340B981718F4892F0E9418
:1041E000A9318091550A8B7F8093550A8091550A99
:1041F00084FF2AC08091360B8F5F0E94C4317B01FF
:104200008C0160910F0770E0882777FD8095982FCB
:104210000E94B14120E030E040E251E40E941641AA
:104220009B01AC01C801B7010E94124188233CF4F4
:104230008091360B8F3F19F08F5F8093360B809102
:10424000550A8F7E8093550A8091360B0E94C431A7
:104250002DB73EB7285030400FB6F8943EBF0FBE82
:104260002DBFEDB7FEB7319623E739E0ADB7BEB746
:1042700012963C932E9311972AE133E033832283E5
:1042800064837583868397830E94B3442DB73EB7BA
:10429000285F3F4F0FB6F8943EBF0FBE2DBF0E9460
:1042A000291D1F910F91FF90EF9008958091550A5D
:1042B00082FF11C080910D0790910E07893C9105F6
:1042C00028F0019790930E0780930D078091550A6F
:1042D0008B7F8093550A8091550A84FF12C080918C
:1042E0000D0790910E0727E0803D920728F4019674
:1042F00090930E0780930D078091550A8F7E8093CF
:10430000550A00D000D000D0EDB7FEB7319683E754
:1043100099E0ADB7BEB712969C938E93119782E346
:1043200093E09383828380910D0790910E0795838C
:1043300084830E94B3448DB79EB706960FB6F89457
:104340009EBF0FBE8DBF0E94291D08958091550A02
:1043500082FF0CC08091060918161CF481508093CE
:1043600006098091550A8B7F8093550A8091550AE2
:1043700084FF0CC0809106098A301CF48F5F809303
:1043800006098091550A8F7E8093550A00D000D08F
:1043900000D0EDB7FEB7319683E799E0ADB7BEB771
:1043A00012969C938E93119786E493E09383828375
:1043B00080910609992787FD9095958384830E94B3
:1043C000B3448DB79EB706960FB6F8949EBF0FBE46
:1043D0008DBF0E94291D08958091550A82FF0CC04F
:1043E0008091020918161CF4815080930209809173
:1043F000550A8B7F8093550A8091550A84FF0CC023
:10440000809102098A301CF48F5F809302098091A9
:10441000550A8F7E8093550A00D000D000D0EDB7AA
:10442000FEB7319683E799E0ADB7BEB712969C937D
:104430008E93119789E593E093838283809102099B
:10444000992787FD9095958384830E94B3448DB707
:104450009EB706960FB6F8949EBF0FBE8DBF0E9402
:10446000291D08958091550A82FF11C0809132085C
:10447000882319F482E080933208809132088150B9
:10448000809332088091550A8B7F8093550A8091E2
:10449000550A84FF0EC0809132088F5F80933208E6
:1044A000823010F0109232088091550A8F7E8093EE
:1044B000550A80913208813019F02BE633E002C0B2
:1044C0002FE633E000D000D000D0EDB7FEB7319634
:1044D00083E799E0ADB7BEB712969C938E93119780
:1044E00082E793E093838283358324830E94B344DD
:1044F0008DB79EB706960FB6F8949EBF0FBE8DBFC0
:10450000809132080E94EC000E94291D089580913C
:10451000550A82FF11C080910709882319F482E0AF
:104520008093070980910709815080930709809142
:10453000550A8B7F8093550A8091550A84FF0EC0DF
:10454000809107098F5F80930709823010F01092E5
:1045500007098091550A8F7E8093550A809107093B
:10456000813019F02BE633E002C02FE633E000D0B3
:1045700000D000D0EDB7FEB7319683E799E0ADB734
:10458000BEB712969C938E93119782E893E0938323
:104590008283358324830E94B3448DB79EB70696E9
:1045A0000FB6F8949EBF0FBE8DBF0E94291D0895BF
:1045B0008091550A82FF1CC080910509813019F451
:1045C00084E0809305098091050981508093050955
:1045D000813019F40E94E80006C00E949D338823B0
:1045E00011F00E9428018091550A8B7F8093550A13
:1045F0008091550A84FF1CC0809105098F5F8093CC
:104600000509843018F081E080930509809105093F
:10461000813019F40E94E80006C00E949D3388236F
:1046200011F00E9428018091550A8F7E8093550ACF
:1046300000D000D000D0EDB7FEB7319683E799E007
:10464000ADB7BEB712969C938E93119787E993E00E
:10465000938382838091050926E0829FC001112403
:104660008258994F958384830E94B3448DB79EB737
:1046700006960FB6F8949EBF0FBE8DBF0E94291DEF
:1046800008958091550A82FF11C08091A50881305C
:1046900019F484E08093A5088091A5088150809347
:1046A000A5088091550A8B7F8093550A8091550A01
:1046B00084FF0FC08091A5088F5F8093A508843088
:1046C00018F081E08093A5088091550A8F7E809331
:1046D000550A00D000D000D0EDB7FEB7319683E781
:1046E00099E0ADB7BEB712969C938E93119787EA67
:1046F00093E0938382838091A50825E0829FC00187
:1047000011248659994F958384830E94B3448DB7B1
:104710009EB706960FB6F8949EBF0FBE8DBF8091D0
:10472000A5080E940C010E94291D08958091550A38
:1047300082FD04C08091550A84FF3AC080915F08D1
:1047400090916008A0916108B0916208209168087A
:104750003091690840916A0850916B08821B930B55
:10476000A40BB50B845F9140A040B04068F48091E9
:104770006608909167088B34910554F401969093E4
:1047800067088093660804C0109267081092660854
:1047900080915F0890916008A0916108B0916208D3
:1047A0008093680890936908A0936A08B0936B0897
:1047B0008091550A82FF5BC08091660890916708DE
:1047C0002091200B3091210B4091220B5091230B13
:1047D0008B3491052CF0245130404040504004C0AF
:1047E00021503040404050402093200B3093210B0B
:1047F0004093220B5093230B20912B0B30912C0BC9
:1048000040912D0B50912E0B8091200B9091210BFC
:10481000A091220BB091230B82179307A407B50731
:1048200040F42093200B3093210B4093220B5093A4
:10483000230B2091200B3091210B4091220B5091A2
:10484000230B80916D0A90916E0AA0916F0AB0912E
:10485000700A281739074A075B0720F4CA01B90113
:104860000E945D148091550A8B7F8093550A809138
:10487000550A84FF42C08091660890916708209194
:10488000200B3091210B4091220B5091230B8B3444
:1048900091052CF02C5E3F4F4F4F5F4F04C02F5FB0
:1048A0003F4F4F4F5F4F2093200B3093210B40938E
:1048B000220B5093230B20912F0B3091300B409102
:1048C000310B5091320B8091200B9091210BA091D4
:1048D000220BB091230B281739074A075B0740F4D6
:1048E0002093200B3093210B4093220B5093230BEA
:1048F0008091550A8F7E8093550A8DB79EB7089791
:104900000FB6F8949EBF0FBE8DBFEDB7FEB73196C0
:1049100083E799E0ADB7BEB712969C938E9311973B
:1049200081EB93E0938382838091200B9091210B04
:10493000A091220BB091230B84839583A683B78328
:104940000E94B3448DB79EB708960FB6F8949EBFE9
:104950000FBE8DBF0E94291D08958091550A82FDCA
:1049600004C08091550A84FF3AC080915F089091FD
:104970006008A0916108B091620820916E083091A2
:104980006F084091700850917108821B930BA40B23
:10499000B50B845F9140A040B04068F480916C08F2
:1049A00090916D088B34910554F4019690936D08A5
:1049B00080936C0804C010926D0810926C0880916E
:1049C0005F0890916008A0916108B091620880939F
:1049D0006E0890936F08A0937008B093710880914F
:1049E000550A82FF42C080916C0890916D08209119
:1049F0002B0B30912C0B40912D0B50912E0B8B34A7
:104A000091052CF0245130404040504004C02150CA
:104A100030404040504020932B0B30932C0B409360
:104A20002D0B50932E0B2091240B3091250B409190
:104A3000260B5091270B80912B0B90912C0BA09162
:104A40002D0BB0912E0B82179307A407B50740F4E6
:104A500020932B0B30932C0B40932D0B50932E0B4C
:104A60008091550A8B7F8093550A8091550A84FF67
:104A70005BC080916C0890916D0820912B0B309158
:104A80002C0B40912D0B50912E0B8B3491052CF05B
:104A90002C5E3F4F4F4F5F4F04C02F5F3F4F4F4F34
:104AA0005F4F20932B0B30932C0B40932D0B509387
:104AB0002E0B2091200B3091210B4091220B509115
:104AC000230B80912B0B90912C0BA0912D0BB0916F
:104AD0002E0B281739074A075B0740F420932B0B4E
:104AE00030932C0B40932D0B50932E0B20912B0BBE
:104AF00030912C0B40912D0B50912E0B80916D0A13
:104B000090916E0AA0916F0AB091700A8217930774
:104B1000A407B50720F4CA01B9010E945D14809171
:104B2000550A8F7E8093550A8DB79EB708970FB6AA
:104B3000F8949EBF0FBE8DBFEDB7FEB7319683E7E9
:104B400099E0ADB7BEB712969C938E93119785EC02
:104B500093E09383828380912B0B90912C0BA091F7
:104B60002D0BB0912E0B84839583A683B7830E946F
:104B7000B3448DB79EB708960FB6F8949EBF0FBE8C
:104B80008DBF0E94291D08958091550A84FF0DC094
:104B900083E00E940C16682F6F5F83E00E94191655
:104BA0008091550A8F7E8093550A8091550A82FF25
:104BB0000DC083E00E940C16682F615083E00E94B4
:104BC00019168091550A8B7F8093550A83E00E94C5
:104BD0000C1600D000D000D0EDB7FEB7319623E719
:104BE00039E0ADB7BEB712963C932E93119729EDDD
:104BF00033E033832283848315820E94B3448DB7CC
:104C00009EB706960FB6F8949EBF0FBE8DBF0E944A
:104C1000291D08958091550A84FF0EC083E00E94EB
:104C2000E815BC016F5F7F4F83E00E94F61580910D
:104C3000550A8F7E8093550A8091550A82FF0EC0D7
:104C400083E00E94E815BC016150704083E00E943F
:104C5000F6158091550A8B7F8093550A83E00E9458
:104C6000E81500D000D000D0EDB7FEB7319623E7AD
:104C700039E0ADB7BEB712963C932E9311972AEE4A
:104C800033E033832283958384830E94B3448DB7BA
:104C90009EB706960FB6F8949EBF0FBE8DBF0E94BA
:104CA000291D08958091550A84FF0DC082E00E945D
:104CB0000C16682F6F5F82E00E9419168091550ACA
:104CC0008F7E8093550A8091550A82FF0DC082E045
:104CD0000E940C16682F615082E00E941916809184
:104CE000550A8B7F8093550A82E00E940C1600D0F3
:104CF00000D000D0EDB7FEB7319623E739E0ADB76D
:104D0000BEB712963C932E9311972CEF33E033836A
:104D10002283848315820E94B3448DB79EB7069682
:104D20000FB6F8949EBF0FBE8DBF0E94291D089537
:104D30008091550A84FF0EC082E00E94E815BC01F4
:104D40006F5F7F4F82E00E94F6158091550A8F7E3B
:104D50008093550A8091550A82FF0EC082E00E941E
:104D6000E815BC016150704082E00E94F615809108
:104D7000550A8B7F8093550A82E00E94E81500D087
:104D800000D000D0EDB7FEB7319623E739E0ADB7DC
:104D9000BEB712963C932E9311972DE034E03383E7
:104DA0002283958384830E94B3448DB79EB7069671
:104DB0000FB6F8949EBF0FBE8DBF0E94291D0895A7
:104DC0008091550A84FF0DC081E00E940C16682F67
:104DD0006F5F81E00E9419168091550A8F7E809343
:104DE000550A8091550A82FF0DC081E00E940C1681
:104DF000682F615081E00E9419168091550A8B7FBF
:104E00008093550A81E00E940C1600D000D000D09B
:104E1000EDB7FEB7319623E739E0ADB7BEB71296CE
:104E20003C932E9311972FE134E0338322838483C4
:104E300015820E94B3448DB79EB706960FB6F894BC
:104E40009EBF0FBE8DBF0E94291D08958091550AF7
:104E500084FF0EC081E00E94E815BC016F5F7F4FA8
:104E600081E00E94F6158091550A8F7E8093550A45
:104E70008091550A82FF0EC081E00E94E815BC01B6
:104E80006150704081E00E94F6158091550A8B7F39
:104E90008093550A81E00E94E81500D000D000D030
:104EA000EDB7FEB7319623E739E0ADB7BEB712963E
:104EB0003C932E93119720E334E033832283958330
:104EC00084830E94B3448DB79EB706960FB6F894BC
:104ED0009EBF0FBE8DBF0E94291D08958091550A67
:104EE00084FF0DC080E00E940C16682F6F5F80E089
:104EF0000E9419168091550A8F7E8093550A8091E1
:104F0000550A82FF0DC080E00E940C16682F615088
:104F100080E00E9419168091550A8B7F8093550A74
:104F200080E00E940C1600D000D000D0EDB7FEB794
:104F3000319623E739E0ADB7BEB712963C932E9376
:104F4000119722E434E033832283848315820E9404
:104F5000B3448DB79EB706960FB6F8949EBF0FBEAA
:104F60008DBF0E94291D08958091550A84FF0EC0AF
:104F700080E00E94E815BC016F5F7F4F80E00E94D7
:104F8000F6158091550A8F7E8093550A8091550AB7
:104F900082FF0EC080E00E94E815BC0161507040A5
:104FA00080E00E94F6158091550A8B7F8093550A08
:104FB00080E00E94E81500D000D000D0EDB7FEB729
:104FC000319623E739E0ADB7BEB712963C932E93E6
:104FD000119723E534E033832283958384830E94F1
:104FE000B3448DB79EB706960FB6F8949EBF0FBE1A
:104FF0008DBF0E94291D0895AF92BF92CF92DF927C
:10500000EF92FF920F931F938091550A82FD04C087
:105010008091550A84FF3AC080915F0890916008A2
:10502000A0916108B09162082091740830917508D0
:105030004091760850917708821B930BA40BB50B17
:10504000845F9140A040B04068F4809172089091D4
:1050500073088B34910554F40196909373088093F0
:10506000720804C0109273081092720880915F0851
:1050700090916008A0916108B091620880937408D3
:1050800090937508A0937608B09377088091550A9D
:1050900084FF4CC0809172089091730820916D0A32
:1050A00030916E0A40916F0A5091700A8B349105CD
:1050B0002CF02C5E3F4F4F4F5F4F04C02F5F3F4F90
:1050C0004F4F5F4F20936D0A30936E0A40936F0AE3
:1050D0005093700A2091200B3091210B4091220BAC
:1050E0005091230B80916D0A90916E0AA0916F0AE6
:1050F000B091700A281739074A075B0740F42093DC
:105100006D0A30936E0A40936F0A5093700A609153
:105110006D0A70916E0A80916F0A9091700A0E94D8
:105120005D148091550A8F7E8093550A8091550AAF
:1051300082FF4CC0809172089091730820916D0A93
:1051400030916E0A40916F0A5091700A8B3491052C
:105150002CF0245130404040504004C02150304099
:105160004040504020936D0A30936E0A40936F0A7E
:105170005093700A20912B0B30912C0B40912D0BEA
:1051800050912E0B80916D0A90916E0AA0916F0A3A
:10519000B091700A82179307A407B50740F42093D3
:1051A0006D0A30936E0A40936F0A5093700A6091B3
:1051B0006D0A70916E0A80916F0A9091700A0E9438
:1051C0005D148091550A8B7F8093550A81E00E947F
:1051D000C1158C0180E00E94C1157C01C8010E94AC
:1051E00086165B016C0120E030E040E050E00E9458
:1051F0001241882354F40F2EF0E0AF2EF0E0BF2EC2
:10520000F0E0CF2EF0E0DF2EF02DC7010E946F16E8
:105210007B018C0120E030E040E050E00E94124130
:10522000882354F40F2EF0E0EF2EF0E0FF2EF0E094
:105230000F2FF0E01F2FF02D8DB79EB740970FB6C0
:10524000F8949EBF0FBE8DBFEDB7FEB7319683E7D2
:1052500099E0ADB7BEB712969C938E93119785E6F1
:1052600094E09383828380916D0A90916E0AA0915D
:105270006F0AB091700A84839583A683B783A08652
:10528000B186C286D386E486F586068717870E9494
:10529000B3448DB79EB740960FB6F8949EBF0FBE2D
:1052A0008DBF0E94291D1F910F91FF90EF90DF90FD
:1052B000CF90BF90AF900895CF92DF92EF92FF9280
:1052C0000F931F938091550A85FF41C08091650817
:1052D0008823C1F50E94E80081E00E9429162091F0
:1052E000280B3091290B280F391F30937908209310
:1052F000780860912B0B70912C0B80912D0B909165
:105300002E0B0E945D1480912B0B90912C0BA09181
:105310002D0BB0912E0B8093810890938208A0935F
:105320008308B093840880937D0890937E08A093AF
:105330007F08B093800810927C0810927B0881E06F
:10534000809365088091550A8F7D8093550A8091DE
:105350006508882309F4F8C020916D0A30916E0A1F
:1053600040916F0A5091700A8091200B9091210B0F
:10537000A091220BB091230B281739074A075B072E
:1053800008F09CC080917A08882349F480917808BD
:10539000909179080E944D1280937A08DDC00E9496
:1053A0003A12892B09F0D8C080917A080E948A129B
:1053B00010927A08F89481E00E94C115D82EC92E67
:1053C0007894E0906D0AF0906E0A00916F0A109147
:1053D000700A0E9486162DB73EB72C5030400FB68B
:1053E000F8943EBF0FBE2DBFEDB7FEB7319623E751
:1053F00039E0ADB7BEB712963C932E93119724E8CF
:1054000034E033832283E482F58206831783608746
:105410007187828793870E94B3448D2D9C2D2091A4
:105420007B0830917C084DB75EB7445F5F4F0FB685
:10543000F8945EBF0FBE4DBF28173907A8F49093AC
:105440007C0880937B0880916D0A90916E0AA091F0
:105450006F0AB091700A8093810890938208A0939C
:105460008308B093840813C08217930781F4809156
:105470006D0A90916E0AA0916F0AB091700A8093A4
:105480007D0890937E08A0937F08B0938008609178
:105490006D0A70916E0A80916F0A9091700A665F32
:1054A0007F4F8F4F9F4F60936D0A70936E0A80936A
:1054B0006F0A9093700A0E945D144EC0209181087B
:1054C00030918208409183085091840880917D0832
:1054D00090917E08A0917F08B09180088217930771
:1054E000A407B50740F420937D0830937E084093CD
:1054F0007F085093800880917D0890917E08A0914C
:105500007F08B0918008280F391F4A1F5B1F5695EE
:10551000479537952795CA01B9010E945D1480917E
:10552000330B9091350B890F0E94A9318091420B6A
:105530009091410B890F0E94D6330E9467170E94F9
:1055400028011092650808C083E799E06CE974E0CF
:105550000E9475440E94291D1F910F91FF90EF90AA
:10556000DF90CF90089583E00E94C11500D000D055
:1055700000D0EDB7FEB7319623E739E0ADB7BEB73F
:1055800012963C932E93119721EB34E033832283C0
:10559000958384830E94B3448DB79EB706960FB659
:1055A000F8949EBF0FBE8DBF0E94291D089582E012
:1055B0000E94C11500D000D000D0EDB7FEB73196E3
:1055C00023E739E0ADB7BEB712963C932E931197FF
:1055D0002CEB34E033832283958384830E94B3448D
:1055E0008DB79EB706960FB6F8949EBF0FBE8DBFBF
:1055F0000E94291D089581E00E94C11500D000D0AD
:1056000000D0EDB7FEB7319623E739E0ADB7BEB7AE
:1056100012963C932E93119727EC34E03383228328
:10562000958384830E94B3448DB79EB706960FB6C8
:10563000F8949EBF0FBE8DBF0E94291D089580E083
:105640000E94C11500D000D000D0EDB7FEB7319652
:1056500023E739E0ADB7BEB712963C932E9311976E
:1056600022ED34E033832283958384830E94B34404
:105670008DB79EB706960FB6F8949EBF0FBE8DBF2E
:105680000E94291D08958DB79EB708970FB6F8940C
:105690009EBF0FBE8DBFEDB7FEB7319683E799E091
:1056A000ADB7BEB712969C938E9311978DED94E093
:1056B000938382838091690A90916A0AA0916B0A10
:1056C000B0916C0A84839583A683B7830E94B34408
:1056D0008DB79EB708960FB6F8949EBF0FBE8DBFCC
:1056E0000E94291D08958091550A82FF0CC0809167
:1056F000A108863418F081508093A1088091550A42
:105700008B7F8093550A8091550A84FF1FC090912A
:10571000A1088091410B981738F4809128079817B9
:1057200018F49F5F9093A1080E949D33882349F04D
:105730009091A1088091400B891718F4892F0E943D
:10574000D6338091550A8F7E8093550A00D000D0C1
:1057500000D0EDB7FEB7319683E799E0ADB7BEB79D
:1057600012969C938E93119782EF94E09383828399
:105770008091A10890E00196958384830E94B344B0
:105780008DB79EB706960FB6F8949EBF0FBE8DBF1D
:105790000E94291D08958091550A82FF27C04091DB
:1057A00028078091420B2091410B30E0280F311DDA
:1057B000842F90E0281739073CF48091A1088417C2
:1057C00018F44150409328070E949D33882349F0E4
:1057D000909128078091400B981718F4892F0E9408
:1057E000D6338091550A8B7F8093550A8091550A54
:1057F00084FF0CC080912807833618F48F5F809354
:1058000028078091550A8F7E8093550A00D000D0DA
:1058100000D0EDB7FEB7319683E799E0ADB7BEB7DC
:1058200012969C938E9311978BE095E093838283DD
:105830008091280790E00196958384830E94B34469
:105840008DB79EB706960FB6F8949EBF0FBE8DBF5C
:105850000E94291D089500D000D000D0EDB7FEB7FA
:10586000319683E799E0ADB7BEB712969C938E93BD
:10587000119782E295E0938382838091420B848327
:1058800015820E94B3448091550A2DB73EB72A5F16
:105890003F4F0FB6F8943EBF0FBE2DBF84FF1FC011
:1058A000509128077091420B6091410B409127075E
:1058B000852F90E0871B9109861B9109242F30E0EA
:1058C0008217930724F4561B5093420B03C0470FD3
:1058D0004093420B8091550A8F7E8093550A8091A8
:1058E000550A82FF11C08091420B909127078917BA
:1058F00018F41092420B03C0891B8093420B8091D5
:10590000550A8B7F8093550A0E94291D089500D067
:1059100000D000D0EDB7FEB7319683E799E0ADB780
:10592000BEB712969C938E9311978BE395E0938369
:1059300082838091410B90E00196958384830E943D
:10594000B3448091550A2DB73EB72A5F3F4F0FB63B
:10595000F8943EBF0FBE2DBF84FF1FC05091280793
:105960007091420B6091410B40912707852F90E089
:10597000871B9109861B9109242F30E0821793071A
:1059800024F4571B5093410B03C0460F4093410B27
:105990008091550A8F7E8093550A8091550A82FF27
:1059A0001AC04091410B6091A10850912707242F04
:1059B00030E0862F90E0850F911D281739071CF4E1
:1059C0006093410B03C0451B4093410B8091550AE6
:1059D0008B7F8093550A0E94291D08958091330B77
:1059E0000E94C4312DB73EB7285030400FB6F8940E
:1059F0003EBF0FBE2DBFEDB7FEB7319623E739E0AE
:105A0000ADB7BEB712963C932E93119723E535E0C0
:105A10003383228364837583868397830E94B34490
:105A20008091550A2DB73EB7285F3F4F0FB6F894C7
:105A30003EBF0FBE2DBF84FF1FC05091360B70912B
:105A4000330B6091350B40910C07852F90E0871B3D
:105A50009109861B9109242F30E08217930724F4C3
:105A6000561B5093330B03C0470F4093330B809169
:105A7000550A8F7E8093550A8091550A82FF11C086
:105A80008091330B90910C07891718F41092330B07
:105A900003C0891B8093330B8091550A8B7F8093C1
:105AA000550A0E94291D08958091350B0E94C4312A
:105AB0002DB73EB7285030400FB6F8943EBF0FBE0A
:105AC0002DBFEDB7FEB7319623E739E0ADB7BEB7CE
:105AD00012963C932E9311972EE635E03383228362
