:100000000C94C7000C94E6000C94E6000C94E600F7
:100010000C94E6000C94E6000C941F040C94E6008B
:100020000C94EF030C94E6000C94E6000C94E600AC
:100030000C94E6000C94E6000C94E6000C94061276
:100040000C94E6000C94E6000C94E6000C94E60098
:100050000C94E6000C9428140C94E6000C94E60032
:100060000C94E6000C94E6000C94E6000C94E60078
:100070000C94E6000C94E6000C94F50D0C94E6004C
:100080000C94E6000C94E6000C94E6006E616E00A1
:10009000696E660000407A10F35A00A0724E18098B
:1000A0000010A5D4E80000E87648170000E40B54DF
:1000B000020000CA9A3B000000E1F50500008096AE
:1000C0009800000040420F000000A08601000000E0
:1000D000102700000000E80300000000640000009A
:1000E00000000A00000000000100000000002C7663
:1000F000D888DC674F0823DFC1DFAE59E1B1B7967E
:10010000E5E3E453C63AE651997696E8E6C28426DA
:10011000EB898C9B62ED407C6FFCEFBC9C9F40F2B6
:10012000BAA56FA5F490055A2AF75C936B6CF96732
:100130006DC11BFCE0E40D47FEF520E6B500D0EDF7
:10014000902E0300943577050080841E080000205F
:100150004E0A000000C80C333333330F986E1283FD
:100160001141EF8D2114893BE65516CFFEE6DB18D1
:10017000D1844B381BF77C1D901DA4BBE424203296
:1001800084725E228100C9F124ECA1E53D2711248F
:100190001FBECFEFD0E1DEBFCDBF17E0A0E0B1E0E2
:1001A000E6EBF7E800E00BBF02C007900D92AE3D12
:1001B000B107D9F71AE0AEEDB7E001C01D92AB3E32
:1001C000B107E1F70E949A0A0C94D9430C940000FD
:1001D00081E0809381010895982F15988AB78B7FCD
:1001E0008ABF8AB7877F8ABF17988AB78F7B8ABFF3
:1001F0008AB78F778ABF913031F489B7806289BF1F
:1002000089B7806805C089B78F7D89BF89B78F7727
:1002100089BF9093DE07089580935108823061F082
:10022000833031F0813099F480916500886007C097
:100230000E940432882331F080916500877F80938B
:100240006500089580916500886080936500089539
:10025000AF92BF92CF92DF92EF92FF920F931F93D4
:1002600080E197E220E731E0F9013197F1F701975A
:10027000D9F7E090D40AF090D50A81E00E94941555
:100280006C0182E00E949415C80ED91EEC0CFD1C76
:1002900000E010E0C801B7010E9416405B016C014C
:1002A00026E636E646E655E40E94CC407B018C010A
:1002B00020E030E040E85FE30E94793F88231CF4AF
:1002C00061E070E024C0C801B70120E03FEF4FE7D4
:1002D00057E40E94C8401816B4F4C601B50120E0E6
:1002E00030E040E251E40E94CC400E94EA3F80E7C7
:1002F00091E005C0FC013197F1F761507040611544
:100300007105C1F707C0C801B7010E94EA3FCB01E0
:100310000197F1F78091B10880938101F89481E011
:100320000E942C159093B5088093B40882E00E9437
:100330002C159093B0088093AF0878948091E00AD0
:100340008093ED088091B4089091B5080E94F11552
:100350002DB73EB72A5030400FB6F8943EBF0FBEBF
:100360002DBFEDB7FEB731962FE139E0ADB7BEB77F
:1003700012963C932E93119720E031E03383228331
:1003800064837583868397838091AF089091B008CA
:10039000918780870E941A432DB73EB7265F3F4F53
:1003A0000FB6F8943EBF0FBE2DBF0E943E0C88E8EA
:1003B00093E120E731E0F9013197F1F70197D9F79F
:1003C0001F910F91FF90EF90DF90CF90BF90AF9073
:1003D0000895CF92DF92EF92FF920F931F93CF93E6
:1003E000DF9380918101813069F480910108882335
:1003F00021F00E94F511109201081092F40710925A
:10040000F307C5C1F89481E00E942C15EC0182E04D
:100410000E942C156C0178948091F407882309F0D0
:1004200076C08091F307882309F071C0809101089C
:10043000882321F00E94F511109201088091B408E0
:100440009091B508C817D90771F48091AF089091C1
:10045000B008C816D90609F49AC18091810182308A
:1004600009F040C094C1C817D907E4F581E0809332
:10047000F4071092F9071092FA071092FB071092F6
:10048000FC071092F5071092F6071092F7071092EA
:10049000F8072091190A30911A0A40911B0A5091CD
:1004A0001C0A2093FD073093FE074093FF075093EB
:1004B00000086091B20860930308E091AE08E093F1
:1004C00002086195609304086E02B0011124882728
:1004D00077FD8095982F620F731F841F951F0E94D0
:1004E000C81303C081E08093F3070091D40A1091F0
:1004F000D50A81E00E949415800F911F0E94B811C7
:100500008093010884E690E00E941E1140C1809112
:1005100001080E94A511892B29F0809101088823E8
:1005200009F035C1809101080E94F511109201086F
:100530008091F407882309F4E2C060910408809157
:100540000208E82FFF27E7FDF095862F992787FD02
:1005500090959C01E29FC001E39F900DF29F900D4A
:1005600011249C012C9FC0012D9F900D3C9F900D4C
:1005700011247C010027F7FC0095102F8091F907CA
:100580009091FA07A091FB07B091FC07E80EF91EC5
:100590000A1F1B1FE092F907F092FA070093FB076E
:1005A0001093FC079E01442737FD4095542F8091FE
:1005B000F5079091F607A091F707B091F807820F21
:1005C000931FA41FB51F8093F5079093F607A09380
:1005D000F707B093F8076F5F6093040880910308F2
:1005E00086170CF062C0682F772767FD70956E9FA5
:1005F000C0016F9F900D7E9F900D11249C01442798
:1006000037FD4095542F2E153F0540075107B4F094
:10061000882799278E1B9F0B9C01269FC001279F2F
:10062000900D369F900D11249C01442737FD409575
:10063000542FE216F3060407150744F42093F90734
:100640003093FA074093FB075093FC076091F9073A
:1006500060930408772767FD7095872F972F209167
:10066000FD073091FE074091FF0750910008620F8F
:10067000731F841F951F0E94C8131092F407809166
:100680000408882319F01092F20705C08091F20740
:100690008F5F8093F2078091F207823080F181E0D2
:1006A0008093F3071092F2072AC0862F992787FDBF
:1006B00090958E9FB0018F9F700D9E9F700D11249D
:1006C000882777FD8095982F2091FD073091FE07B0
:1006D0004091FF0750910008620F731F841F951F00
:1006E0000E94C8130091D40A1091D50A81E00E949B
:1006F0009415800F911F0E94B8118093010880917A
:10070000F307882309F443C080918101823031F4DA
:100710002091B4083091B508CE0105C02091AF08F2
:100720003091B008C601821793074CF49091E00A0B
:100730008091E20A981728F5892F8F5F0BC0281740
:100740003907FCF49091E00A8091E30A8917C8F414
:10075000892F81500E943530E090D40AF090D50A5C
:1007600081E00E9494158C0182E00E949415080F8C
:10077000191FC8018E0D9F1D0E94B811809301089A
:1007800006C01092F307D093B508C093B408DF9168
:10079000CF911F910F91FF90EF90DF90CF90089530
:1007A0000E944B300E94FD3108951F93182F81E065
:1007B000809381010E94D00380915108823049F0DA
:1007C00080E090E90197F1F780916500886080935F
:1007D0006500153011F01093DF071F9108951F92E7
:1007E0000F920FB60F920BB60F9211242F933F93D7
:1007F0004F935F936F937F938F939F93AF93BF9329
:10080000EF93FF930E940432882331F084E00E942A
:10081000D50381E08093F007FF91EF91BF91AF91F5
:100820009F918F917F916F915F914F913F912F9108
:100830000F900BBE0F900FBE0F901F9018951F9238
:100840000F920FB60F920BB60F9211242F933F9376
:100850004F935F936F937F938F939F93AF93BF93C8
:10086000EF93FF930E940432882331F083E00E94CB
:10087000D50381E08093F107FF91EF91BF91AF9194
:100880009F918F917F916F915F914F913F912F91A8
:100890000F900BBE0F900FBE0F901F901895609198
:1008A000190A70911A0A80911B0A90911C0A0E94E1
:1008B000C8130E94F7318091E10A0E9435300895F3
:1008C000EF92FF920F931F930D991AC08091DE074C
:1008D0008130B1F487E499E060E171E00E94DC428C
:1008E0000E943E0C88EC90E00E941E1180E197E28D
:1008F00020E731E0F9013197F1F70197D9F77CC092
:100900000F991AC08091DE078130B1F487E499E035
:1009100065E271E00E94DC420E943E0C88EC90E0AF
:100920000E941E1180E197E220E731E0F901319742
:10093000F1F70197D9F760C06091E40A7091E50A78
:1009400080E090E00E9416407B018C0180E090E006
:100950000E947E309B01AC01C801B7010E94793F23
:1009600087FD16C06091E40A7091E50A80E090E08E
:100970000E9416407B018C0181E090E00E947E3055
:100980009B01AC01C801B7010E94793F8823B4F4F0
:1009900087E499E06AE371E00E94DC420E943E0C29
:1009A00088EC90E00E941E1180E197E220E731E0A0
:1009B000F9013197F1F70197D9F71EC080915108DD
:1009C000813049F080916500877F8093650080E0E9
:1009D00090E90197F1F70E944F048091B3088130AC
:1009E00059F4109210088091D60A8093CA0A809117
:1009F000010A80628093010A1F910F91FF90EF908E
:100A000008950E946A130895EF92FF920F931F9327
:100A1000CF93DF9380910508882309F484C5109251
:100A200005088FE699E06EEE78E00E945010809302
:100A3000EC08882309F077C5209152088091EE08D0
:100A4000281709F070C59091EF08963009F0D1C3CE
:100A500080911108882309F0BEC3C091F208D0919B
:100A6000F3088091F0089091F1088431910509F420
:100A7000F6C28531910508F05CC08930910509F412
:100A80005FC28A30910538F58430910509F479C147
:100A90008530910580F48130910509F4E9C08130F9
:100AA000910508F4ADC08230910509F407C10397A0
:100AB00009F027C516C18630910509F4D2C18630E8
:100AC000910508F4B2C18730910509F4DFC1089798
:100AD00009F017C51DC28E30910509F479C28F3017
:100AE000910580F48B30910509F43CC28B3091055F
:100AF00008F42FC28C30910509F445C20D9709F016
:100B000000C552C28131910509F49AC28231910522
:100B100040F48F30910509F477C2409709F0F1C491
:100B200088C28231910509F490C2439709F0E9C463
:100B300091C28632910509F416C38732910588F572
:100B40008032910509F4F1C28132910598F48C311B
:100B5000910509F4D2C28D31910520F4459709F031
:100B6000D0C4A4C28D31910509F4CEC24E9709F0CC
:100B7000C8C4D1C28332910509F4E6C2843291051A
:100B800040F48132910509F4D5C2829709F0B9C4C5
:100B9000D6C28432910509F4DCC2859709F0B1C44C
:100BA000DDC28B32910509F4F7C28C32910580F4D5
:100BB0008832910509F4E1C28832910508F4D8C25F
:100BC0008932910509F4DEC28A9709F09AC4DFC21E
:100BD0008E32910509F4EFC28F32910540F48C32C8
:100BE000910509F4DEC28D9709F08BC4DFC28F3204
:100BF000910509F4E5C28F5F9F4F09F082C4E8C2F6
:100C0000CE01837090708130910519F0029739F40C
:100C100004C081E00E94D50302C00E946004CE019E
:100C20008C709070009731F0969587959695879582
:100C30000E940C019E01207330702032310559F062
:100C40002033310551F02031310509F05AC481E0DB
:100C50008093810156C482E001C083E08093B10893
:100C60000E940432882309F44CC40E94280149C41C
:100C70002091D70A3091D80A4091D90A5091DA0AC6
:100C8000CE01A0E0B0E082179307A407B50708F4EF
:100C9000E9012091CC0A3091CD0A4091CE0A5091C1
:100CA000CF0ACE01A0E0B0E0281739074A075B075A
:100CB00008F4E901BE0180E090E0B4C08091E30A4D
:100CC000282F30E02C173D0708F49E018091E20A9E
:100CD000482F50E0C9014217530708F02EC1CA013E
:100CE0002CC1CE01A0E0B0E08093CC0A9093CD0A55
:100CF000A093CE0AB093CF0A2091D70A3091D80A98
:100D00004091D90A5091DA0A82179307A407B507D0
:100D100040F42093CC0A3093CD0A4093CE0A5093EE
:100D2000CF0A8091CC0A9091CD0AA091CE0AB091C1
:100D3000CF0A81549C49A040B04060F080E49CE917
:100D4000A0E0B0E08093CC0A9093CD0AA093CE0AA5
:100D5000B093CF0A2091CC0A3091CD0A4091CE0AAF
:100D60005091CF0A8091190A90911A0AA0911B0AFA
:100D7000B0911C0A281739074A075B0708F0C1C35E
:100D80004FC0CE01A0E0B0E08093D70A9093D80A7C
:100D9000A093D90AB093DA0A2091CC0A3091CD0AF7
:100DA0004091CE0A5091CF0A281739074A075B07AE
:100DB00040F42093D70A3093D80A4093D90A50932D
:100DC000DA0A8091D70A9091D80AA091D90AB091F5
:100DD000DA0A88599A43A040B04060F488E99AE35F
:100DE000A0E0B0E08093D70A9093D80AA093D90AE4
:100DF000B093DA0A2091D70A3091D80A4091D90AE3
:100E00005091DA0A8091190A90911A0AA0911B0A4E
:100E1000B0911C0A82179307A407B50708F071C3A5
:100E2000CA01B9010E94C8136CC3C093E10A409182
:100E3000E20A5091DF0A842F90E0851B91092C2F44
:100E400030E0821793071CF4451B4093E10A909110
:100E5000E30A8091E10A891708F053C39093E10AED
:100E600050C3C093DF0A4091E20A242F30E02C1BCC
:100E700031098091BB0690E0281739070CF041C377
:100E80008091E10A481B4093DF0A3BC3C093E20A0A
:100E90005091E10A4091DF0A2C2F30E0852F90E03D
:100EA000840F911D281739074CF4450F4093E20A2F
:100EB00005C08091E20A81508093E20A8091E20AA3
:100EC0000E9450307B018C016091BE0670E0882743
:100ED00077FD8095982F0E94184020E030E040E296
:100EE00051E40E947D3F9B01AC01C801B7010E9403
:100EF000C8401816F4F20E940432882309F401C392
:100F00009091E20A8091E00A981708F0FAC214C0A2
:100F1000C093E30A8091E10A8C1710F48093E30AEE
:100F20000E940432882309F4ECC29091E30A809174
:100F3000E00A891708F0E5C2892F0E943530E1C226
:100F4000C093AE08CB300CF4DCC28AE08093AE08CC
:100F5000D8C2C093B208CB300CF4D3C28AE08093DD
:100F6000B208CFC2D093E70AC093E60A8091E40AA0
:100F70009091E50AC817D90708F0C3C29093E70A11
:100F80008093E60ABEC2D093E50AC093E40A80913A
:100F9000E60A9091E70A8C179D0708F0B2C2909379
:100FA000E50A8093E40AADC280914D08282F30E015
:100FB0002C173D0708F49E018091D506482F50E07C
:100FC000C9014217530708F4CA010E943D3299C271
:100FD000C093E90A4091D5065091EA0A842F90E027
:100FE000851B91092C2F30E0821793071CF4451BB9
:100FF0004093E90A90914D088091E90A891708F019
:1010000080C29093E90A7DC2C093EA0A4091D50656
:10101000242F30E02C1B31098091D40690E0281752
:1010200039070CF06EC28091E90A481B4093EA0A26
:1010300068C2D093BD06C093BC068CE290E071C03C
:10104000C093BE068FE390E0BFC0C093CD0188E49B
:1010500090E0BAC0C093CE0189E490E0B5C0CE0163
:10106000A0E0B0E08093DB0A9093DC0AA093DD0A55
:10107000B093DE0A2091CC0A3091CD0A4091CE0A7D
:101080005091CF0A82179307A407B50740F4209325
:10109000DB0A3093DC0A4093DD0A5093DE0A60914C
:1010A000DB0A7091DC0A8AE490E03CC0CE01A0E04B
:1010B000B0E08093D00A9093D10AA093D20AB09363
:1010C000D30A2091D70A3091D80A4091D90A509179
:1010D000DA0A281739074A075B0740F42093D00A39
:1010E0003093D10A4093D20A5093D30A6091D00A28
:1010F0007091D10A8CE490E015C0D0932C0AC09373
:101100002B0A80E490E00DC0D0933D0AC0933C0AC6
:1011100082E490E006C0D0934E0AC0934D0A84E466
:1011200090E0BE010E94C443ECC1C093E0078FE28F
:1011300090E04AC0C093E10780E390E045C0C093CF
:10114000E20781E390E040C0C093E30782E390E0D0
:101150003BC0C093E40783E390E036C0C093E5074B
:1011600084E390E031C0C093E60785E390E02CC0B3
:10117000C093E70786E390E027C0C093E80787E3C2
:1011800090E022C0C093E90788E390E01DC0C093BF
:10119000EA0789E390E018C0C093EB078AE390E088
:1011A00013C0C093EC078BE390E00EC0C093ED0733
:1011B0008CE390E009C0C093EE078DE390E004C09B
:1011C000C093EF078EE390E06C2F0E94B74399C164
:1011D0000E94331A96C12093EE089093EF0881E0A5
:1011E00080931A098FEF9FEF9093F1088093F00896
:1011F00037C1933009F097C12093EE089093EF0820
:1012000081E080931A098091F0089091F10800978D
:1012100009F085C089E090E09093F1088093F00890
:101220000E940432882319F421E030E002C022E059
:1012300030E08091510890E0880F991F880F991F26
:10124000282B392B8091810190E054E0880F991F61
:101250005A95E1F7282B392B8091110890E046E050
:10126000880F991F4A95E1F7282B392B3093F30803
:101270002093F2088091190A90911A0A9093F50828
:101280008093F4088091E00A8093F6081092F708A2
:101290008091E80A8093F8081092F90880E090E0C5
:1012A0000E947E307B018C0181E090E00E947E30C4
:1012B0009B01AC01C801B7010E94C84018161CF47C
:1012C00080E090E002C081E090E00E947E3020E06B
:1012D00030E040E251E40E94CC400E94E53F709330
:1012E000FB086093FA0880E00E942C159093FD089B
:1012F0008093FC0881E00E942C159093FF08809356
:10130000FE0882E00E942C15909301098093000949
:101310008091DF078093020910920309F2C08130A7
:10132000910509F05AC08CE090E09093F108809309
:10133000F0088091CC0A9091CD0A9093F3088093A5
:10134000F2088091D70A9091D80A9093F50880937B
:10135000F408E6EFF8E08091E10A8093F608109235
:10136000F7088091DF0A8093F80813828091E20ADF
:101370008093FA0815828091E30A8093FC08178213
:101380008091AE08992787FD90959093FF088093F0
:10139000FE088091B208992787FD909590930109E6
:1013A000809300098091E60A9091E70A90930309DF
:1013B000809302098091E40A9091E50A90930509CF
:1013C000809304098091E90A80930609118A80912B
:1013D000EA0A80930809138A94C08031910559F470
:1013E00081E090E09093F1088093F0088091BC0632
:1013F0009091BD0635C08131910549F481E090E0BE
:101400009093F1088093F0088091BE060BC0823162
:10141000910569F481E090E09093F1088093F008E1
:101420008091CD018093F2081092F3086AC0833155
:10143000910549F481E090E09093F1088093F008E1
:101440008091CE01EFCF8431910579F481E090E075
:101450009093F1088093F0088091DB0A9091DC0A68
:101460009093F3088093F2084CC08531910559F4AC
:1014700081E090E09093F1088093F0088091D00A89
:101480009091D10AEDCF8C31910559F481E090E033
:101490009093F1088093F00880912B0A90912C0A88
:1014A000DFCF8D31910559F481E090E09093F10800
:1014B0008093F00880913C0A90913D0AD1CF8E3103
:1014C000910559F481E090E09093F1088093F00841
:1014D00080914D0A90914E0AC3CF809791F480E19C
:1014E00090E09093F1088093F008A0EEB7E0E2EF6F
:1014F000F8E08D9180831182329687E0A03FB80793
:10150000C1F78EEE98E063E578E04BE550E00E948D
:10151000C40F83E598E060E070E040E050E02CE22A
:1015200031E00E94330EDF91CF911F910F91FF9018
:10153000EF900895AF92BF92CF92DF92EF92FF9219
:101540000F931F93CF93DF930E948E110E941C1163
:101550000E940E300E940C320E9486120E94F90BEB
:101560000E94DE310E94891381E00E94C0148091A4
:1015700064008860809364000E949C160E9451174A
:101580000E94061B4091E8085091E9086091EA0822
:101590007091EB0882E00E94790C0E945E0C8091B1
:1015A000E90A0E943D3280E00E94D5037894809140
:1015B000DE070E94EC0084EF91E00E941E1188E893
:1015C00093E120E731E0F9013197F1F70197D9F77D
:1015D00088EC90E00E941E1180ED97E020E731E05A
:1015E000F9013197F1F70197D9F788EC90E00E9463
:1015F0001E11F7E4AF2EF9E0BF2EEFE6CE2EE1E0AC
:10160000DE2EC0E7D1E00E9435170E94E9018091EB
:10161000F007882391F087E499E06FE471E00E947D
:10162000DC4288EC90E00E941E1180ED97E0FE0104
:101630003197F1F70197D9F794C08091F10788238A
:1016400091F087E499E060E171E00E94DC4288EC6F
:1016500090E00E941E1180ED97E0FE013197F1F7B6
:101660000197D9F77EC00D9909C08091DE078130BE
:1016700029F487E499E060E171E00AC00F990BC09A
:101680008091DE07813039F487E499E065E271E00A
:101690000E94DC4266C06091E60A7091E70A80E031
:1016A00090E00E9416407B018C0180E090E00E9457
:1016B0007E309B01AC01C801B7010E94793F87FDD4
:1016C00016C06091E60A7091E70A80E090E00E94FF
:1016D00016407B018C0181E090E00E947E309B01EE
:1016E000AC01C801B7010E94793F88232CF487E43C
:1016F00099E06AE371E0CCCF0E940432882319F4A8
:1017000025E631E002C02AE631E08091650083FFE2
:1017100003C085E691E002C08AE691E04DB75EB76E
:10172000485050400FB6F8945EBF0FBE4DBFEDB7A6
:10173000FEB73196ADB7BEB71296BC92AE92119776
:10174000D382C28235832483978386830E941A437F
:101750004DB75EB7485F5F4F0FB6F8945EBF0FBEE0
:101760004DBF0E943E0C0E9491300E9404054BCF59
:10177000883A11F482EA0895883B11F485EB0895C4
:10178000803C28F0E82FF0E0EE53FF4F8081089571
:10179000F8949798E5E6F0E090819E7F908385BB72
:1017A00080818260808384E08A95F1F780818D7FDB
:1017B0008083789485EF8A95F1F70895F894979A45
:1017C000E5E6F0E090819E7F908385BB808182601A
:1017D000808384E08A95F1F780818D7F808378947F
:1017E00085EF8A95F1F708950E94B80B0E94DE0BF1
:1017F00008958F9A80916400816080936400809145
:1018000064008260809364008FEF84BB88EE93E075
:1018100020E731E0F9013197F1F70197D9F788E333
:101820000E94C80B8CE00E94C80B86E00E94C80B87
:1018300081E00E94C80B8CEC9CE10197F1F70895C0
:1018400081E00E94C80B8CEC9CE10197F1F70895B0
:10185000CF93DF93EB018295880F880F807C8058AF
:101860000E94C80B209721F406C021960E94F40B19
:1018700088818823D1F7DF91CF91089580E067E4D4
:1018800079E00E94280C81E06FE179E00E94280C49
:101890000895CF93DF93EC01009721F406C02196C1
:1018A0000E94F40B88818823D1F7DF91CF910895AE
:1018B0008091B00908958091AF0908958CE08093DC
:1018C0009D001092AF09089586E080939D0081E00D
:1018D0008093AF09089586E080939D0082E0809315
:1018E000AF09089586E080939D0083E08093AF095F
:1018F00008951F93182F9A01AB0160E070E18EE00C
:1019000090E00E947541215030401093B009109230
:101910009B0088E180939A008CE080939D00309337
:1019200098002093990080939D001092AF09112395
:10193000A9F08C9A113051F480919A008F7E809397
:101940009A00949A80919A008F770BC0123059F4C4
:1019500080919A00806180939A00949880919A0077
:10196000806880939A001F9108958091B009882320
:1019700079F0949A80919A008F7E80939A0080E00B
:1019800098E40197F1F780919A008F7780939A00FD
:1019900008958091B0098823B9F080919B0086FF5B
:1019A000FCCF8CEC9CE10197F1F780919A0080616B
:1019B00080939A00949880E098E40197F1F78091E1
:1019C0009A00806880939A000895982F80919B00D8
:1019D00085FFFCCF90939C0080E090E0089580917B
:1019E0009B0087FFFCCF80919C0090E008952091A0
:1019F0009B0030E020783070C9010895982F8A3319
:101A000041F480936F0981E08093060810920508E5
:101A10000EC080910608882351F080910608E82FB7
:101A2000F0E0E159F64F90838F5F80930608809134
:101A30006F098A33B1F4E0910608F0E0E359F64FFC
:101A400080818D3071F4E0910608F0E0E259F64FA4
:101A500080818A3031F481E0809305081092060875
:101A6000089580910608803421F41092060810929F
:101A700005080895982F833241F480936F0981E01F
:101A800080930608109205080EC0809106088823EE
:101A900051F080910608E82FF0E0E159F64F90836D
:101AA0008F5F8093060880916F09833271F4E09113
:101AB0000608F0E0E259F64F80818D3031F481E084
:101AC00080930508109206080895809106088034D6
:101AD00021F410920608109205080895982F8E3769
:101AE00089F480910608882369F410920508809192
:101AF0000608E82FF0E0E159F64F90838F5F80935E
:101B0000060814C080910608882381F08091060899
:101B1000843060F480910608E82FF0E0E159F64F38
:101B200090838F5F809306081092050880916F095B
:101B30008E3751F480910608843031F410920608F3
:101B400081E080930508089580910608803469F447
:101B50002FE639E0C90160E070E040E450E00E9407
:101B6000D54210920608109205080895982F8E33DA
:101B700071F08A3061F080910608E82FF0E0E159B9
:101B8000F64F90838F5F8093060810920508E091CE
:101B90000608F0E02FE639E0E259F64F80818D30FB
:101BA000A1F481E08093050880910608803450F408
:101BB00080910608E82FF0E0E20FF31F10828F5F9C
:101BC00080930608109206080895809106088034D4
:101BD00059F4C90160E070E040E450E00E94D54251
:101BE000109206081092050808951F920F920FB6E2
:101BF0000F920BB60F9211242F933F934F935F9345
:101C00006F937F938F939F93AF93BF93EF93FF93C4
:101C100080919C009091AF09913051F0913028F063
:101C2000923049F0933061F409C00E94FE0C08C064
:101C30000E943A0D05C00E94B60D02C00E946E0DB2
:101C4000FF91EF91BF91AF919F918F917F916F9194
:101C50005F914F913F912F910F900BBE0F900FBE50
:101C60000F901F901895CF92DF92EF92FF920F93F3
:101C70001F93CF93DF93EC017B01D42EC52E8901F6
:101C80008091B009823011F40E94B50C8091AF09A7
:101C90008823A9F490E007C080919B0085FFFCCFCA
:101CA000E0939C009F5FFE01E90FF11DE081EA30A7
:101CB00099F780919B0085FFFCCF8AE016C08130A8
:101CC000B9F490E007C080919B0085FFFCCFE093C2
:101CD0009C009F5FFE01E90FF11DE081ED3099F757
:101CE00080919B0085FFFCCF8DE080939C0013C00A
:101CF000833089F420E030E0FE01E20FF31FE08141
:101D000080919B0085FFFCCFE0939C002F5F3F4FAD
:101D10002430310589F7E114F10441F48091B009D0
:101D2000823011F40E94C90C10E03BC00E94C90C23
:101D3000C8010E94B811082F25C080919A008F77A2
:101D400080939A00809105088823B9F010920508C5
:101D50008D2D9C2D9C01F9012134310510F0E0E41A
:101D6000F0E02FE639E0C701B901AF010E94CC4293
:101D7000802F0E94F51110E00BC080919A008068BE
:101D800080939A00802F0E94A511892BB1F617E04D
:101D9000802F0E94F5118091B009813011F40E94CA
:101DA000B50C812FDF91CF911F910F91FF90EF9094
:101DB000DF90CF900895FB018F708A3010F4805D22
:101DC00001C0895C808380E00895FB01982F929583
:101DD0009F709A3010F4905D01C0995C90838F7071
:101DE0008A3010F4805D01C0895C818380E00895B1
:101DF000FF920F931F93F82E8B01892F0E94E50EFF
:101E00000E5F1F4F8F2DB8010E94E50E80E01F91DD
:101E10000F91FF900895982FFB018154863020F494
:101E20009753908380E00895892F80538A3010F073
:101E300082E00895808380E00895CF92DF92EF9250
:101E4000FF920F931F93DF93CF930F92CDB7DEB71F
:101E50007C018B01FC0180816E010894C11CD11CA6
:101E6000B6010E940B0F282F882381F48981829567
:101E7000807FF8018083F7018181B6010E940B0FFA
:101E8000282FF80180819981890F8083822F0F90FC
:101E9000CF91DF911F910F91FF90EF90DF90CF9046
:101EA0000895CF92DF92EF92FF920F931F93DF93EB
:101EB000CF930F92CDB7DEB77C018B016E010894F2
:101EC000C11CD11CB6010E941D0F382F882391F42C
:101ED0008981F80110828183C7010296B6010E94B0
:101EE0001D0F382F2981F80180819181820F911D6A
:101EF00091838083832F0F90CF91DF911F910F915A
:101F0000FF90EF90DF90CF9008956F927F928F9225
:101F10009F92AF92BF92CF92DF92FF920F931F9347
:101F2000DF93CF930F92CDB7DEB75C016B014A010F
:101F3000FF2400E010E03E010894611C711C0CC0FD
:101F4000C501800F911FB3010E941D0F882369F402
:101F50000E5F1F4F8981F80E0C151D0588F38F2D1C
:101F60008195B4010E94E50E80E00F90CF91DF9142
:101F70001F910F91FF90DF90CF90BF90AF909F90F7
:101F80008F907F906F900895CF92DF92FF920F9382
:101F90001F93CF93DF938C016B01DC019C968C9196
:101FA0009C97813039F411968C91833019F48BE52C
:101FB00090E002C081E190E04817590710F494E0E6
:101FC00066C0F6018AE38193D8018C91BF010E941B
:101FD000E50EB6016D5F7F4FF80181810E94E50E2D
:101FE000E6012596D8019C968C919C97813071F4DE
:101FF00011968C911197833049F412968C91880F29
:10200000BE010E94E50EE601279607C0F801828115
:102010009381BE010E94F80E2496D80114968D91EA
:102020009C911597BE010E94F80E2496F80184A594
:102030008130E1F481818330C9F4FF24F3940CC032
:102040003296EE0FFF1FE00FF11F80819181BE01DC
:102050000E94F80E2496F394EF2DF0E0D80112962A
:102060008D919C911397E817F90750F3B60160958D
:1020700070956C0F7D1FC6010196AE010E94850F01
:10208000982F882321F48DE08A838AE08B83892F1F
:10209000DF91CF911F910F91FF90DF90CF90089526
:1020A000AF92BF92CF92DF92EF92FF920F931F9366
:1020B000DF93CF9300D00F92CDB7DEB76C018B01C9
:1020C0008DE2FB0111928A95E9F7F60160E070E07C
:1020D00080818D30B9F481818A30A1F442E0A42E50
:1020E000B12CA60EB71E76010894E11CF11C6350BA
:1020F0007040C701AE014E5F5F4F0E94850F88237D
:1021000049F08CC06F5F7F4F31966B35710501F7D9
:1021100085E084C0F601EA0DFB1D34979A81808129
:102120003496981709F077C033979B818081981770
:1021300009F071C0C701B8010E941D0F882309F082
:102140006DC033E0E32EF12CEC0CFD1CB8016F5F89
:102150007F4FC7010E941D0F882309F05FC0F8015F
:102160008181833009F044C0F1E1AF16B10409F474
:102170003FC081E0F80184A725E0E22EF12CEC0CB1
:10218000FD1CC701BE016F5F7F4F0E941D0FD82E3F
:10219000882309F042C089818695843118F084E152
:1021A00090E001C090E0F8019383828382E090E0A8
:1021B000E80EF91E198212C06E5F7F4F660F771FFF
:1021C000600F711FC7010E94510F882339F5898163
:1021D0008F5F8983E4E0F0E0EE0EFF1E8981682FB7
:1021E00070E0F801828193816817790728F315C0A0
:1021F000F80114A6B8016E5F7F4FC70102960E94D6
:10220000510F882359F40C5F1F4FC7010696B80180
:102210000E94510F03C083E001C08D2D0F900F90DD
:102220000F90CF91DF911F910F91FF90EF90DF9072
:10223000CF90BF90AF900895899A0895AF92BF92C2
:10224000CF92DF92EF92FF920F931F93919AA0E0AB
:10225000B0E0BC01CD010E9416405B016C0126E696
:1022600036E646E655E40E94CC407B018C0120E036
:1022700030E040E85FE30E94793F88231CF461E08E
:1022800070E024C0C801B70120E03FEF4FE757E4FA
:102290000E94C8401816B4F4C601B50120E030E031
:1022A00040E251E40E94CC400E94EA3F80E791E086
:1022B00005C0FC013197F1F761507040611571055F
:1022C000C1F707C0C801B7010E94EA3FCB010197DF
:1022D000F1F791981F910F91FF90EF90DF90CF90C1
:1022E000BF90AF9008959C01919A8091B30990910D
:1022F000B4098217930738F08091B3099091B4091B
:102300008F5F9F4F51F48FEF2F3F380711F42EEF5F
:102310003FEF3093B4092093B309089580E090E033
:102320002FEF3FEFFC01EE0FFF1FEF54F64F31830D
:102330002083019680329105A9F787B7826087BF15
:1023400083E781BF8DE083BF08959FB7F894803203
:1023500018F0E0E0F0E009C0E82FF0E0EE0FFF1F1A
:10236000EF54F64F0190F081E02D9FBFCF0108950B
:102370009C015FB7F894A2E0B0E04A2FFD01EE0F98
:10238000FF1FEF54F64F808191818F5F9F4F71F453
:102390008FEF2F3F380711F42EEF3FEFAA0FBB1F2F
:1023A000AF54B64F11963C932E9305C04F5F1196D4
:1023B000A032B10511F75FBF842F08952FB7F894AD
:1023C0003FEF8F3F930711F48EEF9FEF9093B20989
:1023D0008093B1092FBF2FB7F8948091B1099091E4
:1023E000B2092FBF892BB9F70895E82F2FB7F894BA
:1023F00082508E3148F4F0E0EE0FFF1FEF54F64F9D
:102400008FEF9FEF918380832FBF08951F920F92CC
:102410000FB60F920BB60F9211242F933F934F9349
:102420005F936F937F938F939F93AF93BF93EF933C
:10243000FF9320E030E0F901EE0FFF1FEF54F64F5D
:1024400080819181892B51F0808191818F5F9F4F95
:1024500029F0808191810197918380832F5F3F4F85
:102460002032310541F78091B3099091B409019769
:1024700009F491980E9401058091C2019091C301D5
:1024800001979093C3018093C2010196C9F4809192
:10249000070890910808A0910908B0910A080196D0
:1024A000A11DB11D8093070890930808A093090807
:1024B000B0930A088AEE93E09093C3018093C2011F
:1024C00080910B0890910C08A0910D08B0910E0816
:1024D0000196A11DB11D80930B0890930C08A09349
:1024E0000D08B0930E08FF91EF91BF91AF919F91AE
:1024F0008F917F916F915F914F913F912F910F90AD
:102500000BBE0F900FBE0F901F9018951092010AEE
:102510008FEF8093140A8093120AE1EFF9E0119291
:1025200011928AE0E130F807D1F78FEF84BB8898E9
:1025300008951092010A08952091140AE82FF0E0FE
:1025400030E0082E02C0359527950A94E2F720FF67
:1025500024C08091120A90E00E2E02C095958795B6
:102560000A94E2F780FD19C02091010A81E090E011
:102570000E2E02C0880F991F0A94E2F7282B209391
:10258000010AEE0FFF1FDF01AF50B64F1D921C92E4
:10259000EE5FF54F1182108208958091140A90E049
:1025A0000E2E02C0959587950A94E2F780FD10C023
:1025B0008091120A90E00E2E02C0959587950A949C
:1025C000E2F780FF05C082E390E00E947311089556
:1025D0008091140A90E00E2E02C0959587950A947A
:1025E000E2F780FD36C08091120A90E00E2E02C004
:1025F000959587950A94E2F780FD2BC04091C40120
:102600005091C5012091C6013091C701240F351F9B
:10261000DF01AA0FBB1FAF50B64F8D919C91119750
:10262000019611969C938E932817390790F4209168
:10263000010A81E090E002C0880F991FEA95E2F755
:10264000282B2093010A4D935C9384E190E00E9433
:1026500073110895FF920F931F93CF93DF9380918F
:10266000140A8093120AC0E0D0E001E010E028E1F3
:10267000F22E4C2F98010C2E02C0220F331F0A9409
:10268000E2F7822F809585BB8F2D8A95F1F790E038
:1026900080E080999F5F8F5F8A30D9F7983020F073
:1026A0008091140A822B07C0933038F49091140A59
:1026B000822F809589238093140A842F0E949C1274
:1026C0002196C830D105A9F6DF91CF911F910F91C6
:1026D000FF9008958091130A81508093130A8F5FB1
:1026E00029F48AE08093130A0E942A130895C39A5A
:1026F000C29820E097FF02C0C49A01C0C498C39852
:10270000C39A2F5F203119F0880F991FF3CFC29A17
:102710000895BA9ABB9ABC9A80E090E10E94771320
:1027200080E090EC0E94771380E090EE0E94771397
:1027300088E690E20E9477130895EF92FF920F933C
:102740001F937B018C0188E690E20E9477138FEF44
:102750009FEFAFEFBFE0E822F9220A231B23C70156
:102760009F7390640E9477134EE016950795F79437
:10277000E7944A95D1F7AFEFBFE3EA22FB22C70106
:1027800090640E9477131F910F91FF90EF9008952E
:10279000AF92BF92CF92DF92EF92FF920F931F936F
:1027A00068392AE3720720E0820720E0920728F4C4
:1027B00068E97AE380E090E00CC061342CE97207AC
:1027C00020E0820720E0920720F060E47CE980E0CE
:1027D00090E06093190A70931A0A80931B0A9093F1
:1027E0001C0A28EC30E040E050E00E942F415B01E1
:1027F0006C019B01A60160E070E080E090E00CE1DC
:102800000E94D534AA24BB24E1EECE2EDD24EE2492
:10281000FF2400E010E00E945435122F032FF42E05
:10282000E52E622F702F8F2D9E2D0E949D131093E9
:10283000150A0093160AF092170AE092180A1F91DF
:102840000F91FF90EF90DF90CF90BF90AF900895E1
:102850001F920F920FB60F920BB60F921124DF92B8
:10286000EF92FF920F931F932F933F934F935F939A
:102870006F937F938F939F93AF93BF93CF93DF9388
:10288000EF93FF9354B145B1D090510AED2DF0E094
:10289000E153FE4F208130E0942F80E0850F911DA1
:1028A000E90144E0CC0FDD1F4A95E1F7C20FD31FC9
:1028B000C35ED54F9F838E832E853F85821B930BEE
:1028C000088802C0959587950A94E2F77C01002755
:1028D000F7FC0095102F88859985AA85BB85E80EA1
:1028E000F91E0A1F1B1FE886F9860A871B878A8143
:1028F0009B8101969B838A832C813D81821793075C
:1029000070F01B821A8240E050E0C801B7010E94BB
:1029100097413D872C87188619861A861B86ED2DD0
:10292000EF5FE093510AF0E0E153FE4F80818F3F6B
:1029300011F41092510AE091510AF0E0E153FE4F78
:1029400080819091500A890F87B9369AFF91EF9153
:10295000DF91CF91BF91AF919F918F917F916F91B7
:102960005F914F913F912F911F910F91FF90EF90A9
:10297000DF900F900BBE0F900FBE0F901F90189519
:10298000282F80930F08EDE1FAE035E080E092E037
:102990001082318313821282958384831782168278
:1029A000108611861286138615861486178616865B
:1029B000108A71964AE0E035F40751F78FEF91E005
:1029C00090932C0A80932B0A90933D0A80933C0AA3
:1029D00087E086B9379A80E48093500A213049F421
:1029E0001092510A8091CF01805C87B9339A369A50
:1029F00008951092510A8091CF01805C87B9339875
:102A00000895982F833008F090E08091500A890F44
:102A100087B9369A3699FECF54B145B1892F90E0E7
:102A2000342F20E0250F311DFC0154E0EE0FFF1F75
:102A30005A95E1F7E80FF91FE35EF54F37832683D8
:102A400086859785281B390B008802C03595279508
:102A50000A94E2F7C901089590E0FC0164E0EE0FEA
:102A6000FF1F6A95E1F7E80FF91FE35EF54F8485D4
:102A70009585089590E0FC0174E0EE0FFF1F7A95B4
:102A8000E1F7E80FF91FE35EF54F26813781868570
:102A90009785281B390B008802C0359527950A9425
:102AA000E2F7C901089590E0FC01A4E0EE0FFF1FDA
:102AB000AA95E1F7E80FF91FE35EF54F8481958150
:102AC0000895833008F080E06115710511F461E02C
:102AD00070E090E0FC01B4E0EE0FFF1FBA95E1F763
:102AE000E80FF91FE35EF54F75836483089590E066
:102AF000FC0124E0EE0FFF1F2A95E1F7E80FF91F14
:102B0000E35EF54F81810895833008F080E090E026
:102B1000FC0134E0EE0FFF1F3A95E1F7E80FF91FD3
:102B2000E35EF54F6183089590910F08282F30E000
:102B3000913091F4F90154E0EE0FFF1F5A95E1F73F
:102B4000E20FF31FE35EF54F848195816AE070E048
:102B50000E944E41AB0115C0F90144E0EE0FFF1F8A
:102B60004A95E1F7E20FF31FE35EF54F818190E0B4
:102B700024813581829FA001839F500D929F500D2B
:102B80001124CA0108952091CC0130E0829FB00148
:102B9000839F700D929F700D1124882777FD80957B
:102BA000982F0E94184020E030E04AE754E40E9449
:102BB0007D3F08952091CD0130E0829FB001839F39
:102BC000700D929F700D1124882777FD8095982FA6
:102BD0000E94184020E030E04AE754E40E947D3F24
:102BE00008952091CE0130E0829FB001839F700D47
:102BF000929F700D1124882777FD8095982F0E9451
:102C0000184020E030E04AE754E40E947D3F0895F8
:102C10008F929F92AF92BF92CF92DF92EF92FF92EC
:102C20000F931F93CF93DF93E091510AF0E0E153AC
:102C3000FE4FD08080910F08813009F470C08D2C38
:102C40009924F401A4E0EE0FFF1FAA95E1F7E80D27
:102C5000F91DE35EF54F8081882329F00E94A511BC
:102C6000892B09F04FC0E40174E0CC0FDD1F7A9589
:102C7000E1F7C80DD91DC35ED54FE884F9840A85F4
:102C80001B858D2D0E9401155C01CC24B7FCC094DE
:102C9000DC2CAE0CBF1CC01ED11EA886B986CA860D
:102CA000DB868A819B8101969B838A834C815D812F
:102CB0009A01215030402817390778F41B821A8274
:102CC0009A0140E050E0C601B5010E9497413D875E
:102CD0002C87188619861A861B86840164E0000FEB
:102CE000111F6A95E1F7080D191D035E154FF801D4
:102CF00080810E94F511F801818190E00E94B81155
:102D0000F8018083E091510AEF5FE093510AF0E00F
:102D1000E153FE4F80818F3F11F41092510ADF91F1
:102D2000CF911F910F91FF90EF90DF90CF90BF90C8
:102D3000AF909F908F90089520E030E04CE350E0FA
:102D4000F901E653F54F1082249FF001259FF00D05
:102D5000349FF00D1124EE5AF54F80E090E011926F
:102D6000119201968E319105D1F72F5F3F4F22309E
:102D7000310531F70895809110088F5F8093100816
:102D8000823011F410921008089580911008882361
:102D900019F482E08093100880911008815080938C
:102DA0001008089580911008282F30E0F901E653AB
:102DB000F54F80818F5F80838E3109F41082D901B5
:102DC000A653B54F8C91F90145E0EE0FFF1F4A95D0
:102DD000E1F7220F331FE21BF30BE80FF11DEE0F9B
:102DE000FF1FEE5AF54F80819181892B09F41C92C7
:102DF000089580911008A82FB0E0FD01E653F54F2B
:102E00008081882311F48EE18083FD01E653F54F24
:102E10004081CD01880F991F9D0165E0220F331F6E
:102E20006A95E1F7281B390B4150F901E40FF11DB8
:102E3000EE0FFF1FEE5AF54F80819181892B31F4FF
:102E4000442391F7A653B54F1C920895A653B54F4E
:102E50004C93089580911008089580911008EAEC31
:102E6000FAE0E80FF11D808108958091100890E04C
:102E7000FC01E653F54F2081FC0135E0EE0FFF1F0A
:102E80003A95E1F7880F991FE81BF90BE20FF11D46
:102E9000EE0FFF1FEE5AF54F0190F081E02D0995DE
:102EA000089588E896E29093530A8093520A8FE43B
:102EB0009CE29093550A8093540A89EB9CE290938C
:102EC000570A8093560A8DE39EE29093590A8093A5
:102ED000580A8FE09EE290935B0A80935A0A81EE33
:102EE0009DE290935D0A80935C0A85EE9CE190934D
:102EF0005F0A80935E0A8BEA99E29093610A80935D
:102F0000600A87E899E29093630A8093620A83E6F5
:102F100099E29093650A8093640A82EC9CE1909315
:102F2000670A8093660A8FE99CE19093690A80930F
:102F3000680A8CE08093D60A88EE97E290936B0A39
:102F400080936A0A82E292E290938F0A80938E0ABB
:102F500089E393E29093910A8093900A83E59FE13D
:102F60009093930A8093920A82EF9EE19093950A40
:102F70008093940A80EE9BE29093970A8093960A3E
:102F80008AE79BE29093990A8093980A87E59AE2F0
:102F900090939B0A80939A0A8FEF99E290939D0AEF
:102FA00080939C0A83E19BE290939F0A80939E0A00
:102FB00087EB9AE29093A10A8093A00A86E69EE1AD
:102FC0009093A30A8093A20A8DEC91E29093A50AB4
:102FD0008093A40A83E191E29093A70A8093A60AC2
:102FE00084E691E29093A90A8093A80A88E790E288
:102FF0009093AB0A8093AA0A82E390E29093AD0A81
:103000008093AC0A82E69DE19093AF0A8093AE0A6A
:103010008EE09DE19093B10A8093B00A8EEB90E22E
:103020009093B30A8093B20A86E29EE19093B50A28
:103030008093B40A85EB9DE19093B70A8093B60A1A
:1030400082ED9EE19093B90A8093B80A80EB9EE1ED
:103050009093BB0A8093BA0A80E496E29093BD0AEB
:103060008093BC0A82EB95E29093BF0A8093BE0ADC
:1030700084E295E29093C10A8093C00A0895EF928A
:10308000FF920F931F938091DB0A9091DC0AA0912D
:10309000DD0AB091DE0A8F5F9F4FA040B04091F4EF
:1030A00080E49CE9A0E0B0E08093DB0A9093DC0A26
:1030B000A093DD0AB093DE0A8AE490E060E47CE944
:1030C0000E94C4432091D00A3091D10A4091D20A83
:1030D0005091D30A2F3F8FEF380780E0480780E0F8
:1030E000580769F08091DB0A9091DC0AA091DD0A13
:1030F000B091DE0A82179307A407B50790F488E918
:103100009AE3A0E0B0E08093D00A9093D10AA09314
:10311000D20AB093D30A8CE490E068E97AE30E9483
:10312000C44388E993E5A0E0B0E08093CC0A909393
:10313000CD0AA093CE0AB093CF0A8091DB0A90917A
:10314000DC0AA091DD0AB091DE0A883923E59207F6
:1031500020E0A20720E0B20740F48093CC0A9093CD
:10316000CD0AA093CE0AB093CF0AE090D00AF09097
:10317000D10A0091D20A1091D30A8091CC0A909181
:10318000CD0AA091CE0AB091CF0A8E159F05A00757
:10319000B10740F4E092CC0AF092CD0A0093CE0A37
:1031A0001093CF0A82E093E5A0E0B0E08093D70AC5
:1031B0009093D80AA093D90AB093DA0A83E0E8166C
:1031C00083E5F80680E0080780E0180740F0E09209
:1031D000D70AF092D80A0093D90A1093DA0A2091FC
:1031E000CC0A3091CD0A4091CE0A5091CF0A8091FD
:1031F000D70A9091D80AA091D90AB091DA0A281773
:1032000039074A075B0740F4E092D70AF092D80AE0
:103210000093D90A1093DA0A8091D70A9091D80ABC
:10322000A091D90AB091DA0A280F391F4A1F5B1FF3
:103230005695479537952795CA01B9010E94C8133D
:1032400082E38093E10A1092DF0A88EC90E0909389
:10325000D50A8093D40A21E02093B1081092B308D4
:103260001092DE0785E08093AE082093B2088FEFBE
:103270008093E20A8AE08093E30A80E092ECA1E086
:10328000B0E08093E8089093E908A093EA08B0932F
:10329000EB08209352088BE490E09093E50A80932A
:1032A000E40A80E590E09093E70A8093E60A80E0E4
:1032B00061E00E94841580E068EC70E00E94611576
:1032C00081E061E00E94841581E068EC70E00E947A
:1032D000611582E061E00E94841582E068EC70E094
:1032E0000E94611583E00E940C018FE58093E90A3A
:1032F0001092EA0A83E68093D50685E480934D0810
:103300008091BC069091BD068F5F9F4F61F488EE5F
:1033100093E09093BD068093BC068CE290E068EE4B
:1033200073E00E94C4438091BE068F3F41F484E65F
:103330008093BE068FE390E064E60E94B7438091DD
:103340002B0A90912C0A8F5F9F4F61F48FEF91E0D1
:1033500090932C0A80932B0A80E490E06FEF71E049
:103360000E94C44380913C0A90913D0A8F5F9F4F19
:1033700061F48FEF91E090933D0A80933C0A82E4E0
:1033800090E06FEF71E00E94C44380914D0A9091EC
:103390004E0A8F5F9F4F61F48FEF91E090934E0A3A
:1033A00080934D0A84E490E06FEF71E00E94C44383
:1033B0008091CD018F3F41F487E38093CD0188E474
:1033C00090E067E30E94B7438091CE018F3F61F4A4
:1033D00087E38093CE0189E490E067E30E94B743DE
:1033E00003C041504093E20A8091E20A0E945030AB
:1033F0007B018C016091BE0670E0882777FD809587
:10340000982F0E94184020E030E040E251E40E94F2
:103410007D3F9B01AC01C801B7010E94C8404091AB
:10342000E20A1816F4F28091E30A481710F4409368
:10343000E30A8091E10A481710F44093E10A5091A1
:10344000E10A2091DF0A30E0842F90E0851B91098A
:10345000821793071CF4451B4093DF0A1F910F91BD
:10346000FF90EF9008956091CC0A7091CD0A80E0B2
:1034700090E00E94C4436091D70A7091D80A82E01C
:1034800090E00E94C4436091190A70911A0A84E086
:1034900090E00E94C44388E090E06091E10A0E94BD
:1034A000B74386E090E06091DF0A0E94B74380E076
:1034B0000E947715682F89E090E00E94B74380E072
:1034C0000E945315BC018AE090E00E94C44381E051
:1034D0000E947715682F8CE090E00E94B74381E04E
:1034E0000E945315BC018DE090E00E94C44382E02D
:1034F0000E947715682F8FE090E00E94B74382E02A
:103500000E945315BC0180E190E00E94C44385E114
:1035100090E0609151080E94B7436091D40A709185
:10352000D50A86E190E00E94C44388E190E0609172
:10353000B1080E94B74389E190E06091AE080E9413
:10354000B7438AE190E06091B2080E94B7438BE1F3
:1035500090E06091E20A0E94B7438CE190E06091B4
:10356000E30A0E94B7436091E8087091E9088DE191
:1035700090E00E94C4432091E8083091E90840910E
:10358000EA085091EB089A01442755278FE190E013
:10359000B9010E94C44381E290E0609152080E9408
:1035A000B7436091E40A7091E50A82E290E00E94DC
:1035B000C4436091E60A7091E70A84E290E00E94B9
:1035C000C44387E290E06091E90A0E94B74386E233
:1035D00090E06091EA0A0E94B74388E290E060912F
:1035E000D5060E94B74389E290E060914D080E94A1
:1035F000B7438AE290E06091B3080E94B7438BE240
:1036000090E06091DE070E94B7430895EF92FF9229
:103610000F931F93CF93DF9380E090E00E94B1431C
:10362000A0E0B0E08093CC0A9093CD0AA093CE0A9C
:10363000B093CF0A82E090E00E94B143A0E0B0E0F6
:103640008093D70A9093D80AA093D90AB093DA0A44
:1036500084E090E00E94B143A0E0B0E0BC01CD0165
:103660000E94C81388E090E00E94A9438093E10A79
:1036700086E090E00E94A9438093DF0A89E090E011
:103680000E94A943682F80E00E9484158AE090E0A0
:103690000E94B143BC0180E00E9461158CE090E083
:1036A0000E94A943682F81E00E9484158DE090E07C
:1036B0000E94B143BC0181E00E9461158FE090E05F
:1036C0000E94A943682F82E00E94841580E190E067
:1036D0000E94B143BC0182E00E94611585E190E047
:1036E0000E94A9430E940C0186E190E00E94B14330
:1036F0009093D50A8093D40A88E190E00E94A94370
:103700008093B10889E190E00E94A9438093AE08BC
:103710008AE190E00E94A9438093B2088BE190E097
:103720000E94A9438093E20A8CE190E00E94A943A1
:103730008093E30A8DE190E00E94B1437C0100E0B8
:1037400010E0E092E808F092E9080093EA0810938C
:10375000EB088FE190E00E94B143A0E0B0E0DC0113
:10376000992788278E299F29A02BB12B8093E808C1
:103770009093E908A093EA08B093EB0881E290E007
:103780000E94A9438093520882E290E00E94B143D4
:103790009093E50A8093E40A84E290E00E94B143AA
:1037A0009093E70A8093E60A87E290E00E94A9439B
:1037B0008093E90A86E290E00E94A9438093EA0A96
:1037C00088E290E00E94A9438093D50689E290E0C8
:1037D0000E94A94380934D088AE290E00E94A94389
:1037E0008093B3088BE290E00E94A9430E94EC0012
:1037F0008CE290E00E94B1439093BD068093BC069A
:10380000CFE2D0E0CE010E94A943FE01EF54F84F71
:1038100080832196CF33D105A9F71092EF078FE36C
:1038200090E00E94A9438093BE0680E490E00E944D
:10383000B14390932C0A80932B0A82E490E00E947B
:10384000B14390933D0A80933C0A84E490E00E9447
:10385000B14390934E0A80934D0A88E490E00E9411
:10386000A9438093CD0189E490E00E94A94380930D
:10387000CE018AE490E00E94B143A0E0B0E08093E2
:10388000DB0A9093DC0AA093DD0AB093DE0A8CE495
:1038900090E00E94B143A0E0B0E08093D00A909302
:1038A000D10AA093D20AB093D30ADF91CF911F918E
:1038B0000F91FF90EF9008958091010A86FF07C055
:1038C0000E94F9168091010A8F7B8093010A8091F2
:1038D000010A83FF07C00E94D2168091010A877FE8
:1038E0008093010A8091010A87FF07C00E94BB16DE
:1038F0008091010A8F778093010A8091010A80FFED
:1039000007C00E9460048091010A8E7F8093010AA3
:103910008091010A81FF12C00E940432882311F0B5
:1039200080E005C01092F0071092F10785E00E9438
:10393000D5038091010A8D7F8093010A089500D0FC
:1039400000D000D0EDB7FEB731968FE199E0ADB76A
:10395000BEB712969C938E93119783ED91E093835B
:10396000828380EE97E0958384830E941A438DB70B
:103970009EB706960FB6F8949EBF0FBE8DBF0E94ED
:103980005C1C089500D000D000D0EDB7FEB7319692
:103990008FE199E0ADB7BEB712969C938E931197C5
:1039A0008DED91E0938382838EEE91E09583848305
:1039B0000E941A438DB79EB706960FB6F8949EBF25
:1039C0000FBE8DBF0E945C1C089500D000D000D0B7
:1039D000EDB7FEB731968FE199E0ADB7BEB712965D
:1039E0009C938E93119787EF91E0938382838091CC
:1039F000DF072FE0829FC00111248059994F9583E2
:103A000084830E941A438DB79EB706960FB6F8942A
:103A10009EBF0FBE8DBF0E945C1C08958091010A5D
:103A200082FF16C02091E60A3091E70A8091E40AED
:103A30009091E50A8217930730F42150304030937B
:103A4000E70A2093E60A8091010A8B7F8093010A9E
:103A50008091010A84FF11C08091E60A9091E70AE3
:103A60008F35910528F401969093E70A8093E60A32
:103A70008091010A8F7E8093010A00D000D000D08F
:103A8000EDB7FEB731968FE199E0ADB7BEB71296AC
:103A90009C938E93119782E092E09383828380912E
:103AA000E60A9091E70A958384830E941A438DB7B2
:103AB0009EB706960FB6F8949EBF0FBE8DBF0E94AC
:103AC0005C1C08958091010A82FF10C08091E40A75
:103AD0009091E50A009729F001979093E50A809369
:103AE000E40A8091010A8B7F8093010A8091010A88
:103AF00084FF16C02091E40A3091E50A8091E60A1D
:103B00009091E70A2817390730F42F5F3F4F309321
:103B1000E50A2093E40A8091010A8F7E8093010ACE
:103B200000D000D000D0EDB7FEB731968FE199E01C
:103B3000ADB7BEB712969C938E93119789E192E030
:103B4000938382838091E40A9091E50A958384832C
:103B50000E941A438DB79EB706960FB6F8949EBF83
:103B60000FBE8DBF0E945C1C08951F932091E80832
:103B70003091E9084091EA085091EB08E4E5F6E05D
:103B800010E080819181A281B381281739074A070B
:103B90005B0721F01F5F3496173099F78DB79EB7FA
:103BA00008970FB6F8949EBF0FBE8DBFEDB7FEB756
:103BB00031968FE199E0ADB7BEB712969C938E9384
:103BC000119781E392E09383828324833583468334
:103BD00057830E941A438091010A2DB73EB7285F90
:103BE0003F4F0FB6F8943EBF0FBE2DBF84FF09C0F4
:103BF0001F5F173009F410E08091010A8F7E8093D7
:103C0000010A8091010A82FF09C0112309F417E01B
:103C100011508091010A8B7F8093010AE12FF0E01F
:103C2000EE0FFF1FEE0FFF1FEC5AF94F80819181BD
:103C3000A281B3818093E8089093E908A093EA08F1
:103C4000B093EB080E945C1C1F91089500D000D037
:103C500000D0EDB7FEB731968FE199E0ADB7BEB7B2
:103C600012969C938E93119782E492E093838283C1
:103C700080915208848315820E941A438091010A20
:103C80002DB73EB72A5F3F4F0FB6F8943EBF0FBE29
:103C90002DBF84FF0AC0809152088F5F8093520825
:103CA0008091010A8F7E8093010A8091010A82FF30
:103CB0000AC0809152088150809352088091010A75
:103CC0008B7F8093010A0E945C1C089500D000D075
:103CD00000D0EDB7FEB731968FE199E0ADB7BEB732
:103CE00012969C938E93119787E592E0938382833B
:103CF0008091D40A9091D50A958384830E941A43B7
:103D00008091010A2DB73EB72A5F3F4F0FB6F89456
:103D10003EBF0FBE2DBF84FF0EC08091D40A90918C
:103D2000D50A01969093D50A8093D40A8091010A0E
:103D30008F7E8093010A8091010A82FF0EC08091DC
:103D4000D40A9091D50A01979093D50A8093D40A0A
:103D50008091010A8B7F8093010A0E945C1C089568
:103D60008091010A85FF15C00E943F180E94331AF6
:103D70008FE199E06DE672E00E94DC420E943E0C09
:103D800084EF91E00E941E118091010A8F7D809343
:103D9000010A8FE199E062E872E00E94DC420E9431
:103DA0005C1C08958091010A85FF13C00E94331A9C
:103DB0008FE199E067E972E00E94DC420E943E0CCC
:103DC00084EF91E00E941E118091010A8F7D809303
:103DD000010A8FE199E06CEA72E00E94DC420E94E5
:103DE0005C1C08958091010A82FF0CC08091E30A57
:103DF0008B3018F081508093E30A8091010A8B7F09
:103E00008093010A8091010A84FF1FC09091E30A08
:103E10008091E10A981738F48091E20A981718F413
:103E20009F5F9093E30A0E940432882349F09091A7
:103E3000E30A8091E00A891718F4892F0E9435302F
:103E40008091010A8F7E8093010A8091E30A0E948B
:103E500050302DB73EB7285030400FB6F8943EBFD3
:103E60000FBE2DBFEDB7FEB731962FE139E0ADB7EC
:103E7000BEB712963C932E93119721EC32E0338318
:103E8000228364837583868397830E941A432DB7A8
:103E90003EB7285F3F4F0FB6F8943EBF0FBE2DBF11
:103EA0000E945C1C0895EF92FF920F931F938091E4
:103EB000010A82FF27C04091E20A8091DF0A209127
:103EC000E10A30E0280F311D842F90E028173907D0
:103ED0003CF48091E30A841718F441504093E20ABD
:103EE0000E940432882349F09091E20A8091E00A0E
:103EF000981718F4892F0E9435308091010A8B7F22
:103F00008093010A8091010A84FF2AC08091E20A0D
:103F10008F5F0E9450307B018C016091BE0670E083
:103F2000882777FD8095982F0E94184020E030E088
:103F300040E251E40E947D3F9B01AC01C801B70102
:103F40000E94793F88233CF48091E20A8F3F19F068
:103F50008F5F8093E20A8091010A8F7E8093010A2D
:103F60008091E20A0E9450302DB73EB72850304071
:103F70000FB6F8943EBF0FBE2DBFEDB7FEB731961A
:103F80002FE139E0ADB7BEB712963C932E9311974F
:103F900028ED32E03383228364837583868397839D
:103FA0000E941A432DB73EB7285F3F4F0FB6F894D3
:103FB0003EBF0FBE2DBF0E945C1C1F910F91FF9052
:103FC000EF9008958091010A82FF11C08091BC0694
:103FD0009091BD06893C910528F001979093BD060C
:103FE0008093BC068091010A8B7F8093010A8091A7
:103FF000010A84FF12C08091BC069091BD0627E0A3
:10400000803D920728F401969093BD068093BC06EC
:104010008091010A8F7E8093010A00D000D000D0E9
:10402000EDB7FEB731968FE199E0ADB7BEB7129606
:104030009C938E93119780EF92E09383828380917B
:10404000BC069091BD06958384830E941A438DB768
:104050009EB706960FB6F8949EBF0FBE8DBF0E9406
:104060005C1C08958091010A82FF0CC08091B20807
:1040700018161CF481508093B2088091010A8B7F3E
:104080008093010A8091010A84FF0CC08091B208DC
:104090008A301CF48F5F8093B2088091010A8F7E72
:1040A0008093010A00D000D000D0EDB7FEB7319662
:1040B0008FE199E0ADB7BEB712969C938E9311979E
:1040C00084E093E0938382838091B208992787FDEF
:1040D0009095958384830E941A438DB79EB7069668
:1040E0000FB6F8949EBF0FBE8DBF0E945C1C089552
:1040F0008091010A82FF0CC08091AE0818161CF452
:1041000081508093AE088091010A8B7F8093010AD1
:104110008091010A84FF0CC08091AE088A301CF4A3
:104120008F5F8093AE088091010A8F7E8093010A91
:1041300000D000D000D0EDB7FEB731968FE199E006
:10414000ADB7BEB712969C938E93119787E193E01B
:10415000938382838091AE08992787FD90959583FC
:1041600084830E941A438DB79EB706960FB6F894C3
:104170009EBF0FBE8DBF0E945C1C08958091010AF6
:1041800082FF11C08091DE07882319F482E08093BA
:10419000DE078091DE0781508093DE078091010A5F
:1041A0008B7F8093010A8091010A84FF0EC0809169
:1041B000DE078F5F8093DE07823010F01092DE07FB
:1041C0008091010A8F7E8093010A8091DE07813001
:1041D00019F029E233E002C02DE233E000D000D034
:1041E00000D0EDB7FEB731968FE199E0ADB7BEB71D
:1041F00012969C938E93119780E393E0938382832E
:10420000358324830E941A438DB79EB706960FB656
:10421000F8949EBF0FBE8DBF8091DE070E94EC0018
:104220000E945C1C08958091010A82FF11C0809158
:10423000B308882319F482E08093B3088091B3080F
:1042400081508093B3088091010A8B7F8093010A8B
:104250008091010A84FF0EC08091B3088F5F809324
:10426000B308823010F01092B3088091010A8F7E5B
:104270008093010A8091B308813019F029E233E07C
:1042800002C02DE233E000D000D000D0EDB7FEB781
:1042900031968FE199E0ADB7BEB712969C938E939D
:1042A000119780E493E093838283358324830E9473
:1042B0001A438DB79EB706960FB6F8949EBF0FBEF1
:1042C0008DBF0E945C1C08958091010A82FF1CC072
:1042D0008091B108813019F484E08093B108809115
:1042E000B10881508093B108813019F40E94E80030
:1042F00006C00E940432882311F00E942801809198
:10430000010A8B7F8093010A8091010A84FF1CC0FF
:104310008091B1088F5F8093B108843018F081E0FC
:104320008093B1088091B108813019F40E94E800AF
:1043300006C00E940432882311F00E942801809157
:10434000010A8F7E8093010A00D000D000D0EDB723
:10435000FEB731968FE199E0ADB7BEB712969C9348
:104360008E93119785E593E0938382838091B108C2
:1043700026E0829FC0011124845C994F9583848339
:104380000E941A438DB79EB706960FB6F8949EBF4B
:104390000FBE8DBF0E945C1C08958091010A82FFB0
:1043A00011C080915108813019F484E08093510844
:1043B000809151088150809351088091010A8B7F30
:1043C0008093010A8091010A84FF0FC080915108F7
:1043D0008F5F80935108843018F081E080935108FA
:1043E0008091010A8F7E8093010A00D000D000D016
:1043F000EDB7FEB731968FE199E0ADB7BEB7129633
:104400009C938E93119785E693E0938382838091AA
:10441000510825E0829FC0011124885D994F958342
:1044200084830E941A438DB79EB706960FB6F89400
:104430009EBF0FBE8DBF809151080E940C010E944B
:104440005C1C08958091010A82FD04C08091010ADC
:1044500084FF3AC080910B0890910C08A0910D0840
:10446000B0910E082091140830911508409116085B
:1044700050911708821B930BA40BB50B845F9140DE
:10448000A040B04068F480911208909113088B34DA
:10449000910554F40196909313088093120804C078
:1044A000109213081092120880910B0890910C083A
:1044B000A0910D08B0910E088093140890931508F0
:1044C000A0931608B09317088091010A82FF5BC081
:1044D00080911208909113082091CC0A3091CD0A56
:1044E0004091CE0A5091CF0A8B3491052CF0245183
:1044F00030404040504004C0215030404040504087
:104500002093CC0A3093CD0A4093CE0A5093CF0A21
:104510002091D70A3091D80A4091D90A5091DA0AED
:104520008091CC0A9091CD0AA091CE0AB091CF0A89
:1045300082179307A407B50740F42093CC0A309361
:10454000CD0A4093CE0A5093CF0A2091CC0A3091E5
:10455000CD0A4091CE0A5091CF0A8091190A9091CC
:104560001A0AA0911B0AB0911C0A281739074A079A
:104570005B0720F4CA01B9010E94C8138091010AA7
:104580008B7F8093010A8091010A84FF42C0809151
:104590001208909113082091CC0A3091CD0A4091D5
:1045A000CE0A5091CF0A8B3491052CF02C5E3F4FF0
:1045B0004F4F5F4F04C02F5F3F4F4F4F5F4F2093D0
:1045C000CC0A3093CD0A4093CE0A5093CF0A209163
:1045D000DB0A3091DC0A4091DD0A5091DE0A8091BD
:1045E000CC0A9091CD0AA091CE0AB091CF0A28179B
:1045F00039074A075B0740F42093CC0A3093CD0A71
:104600004093CE0A5093CF0A8091010A8F7E809307
:10461000010A8DB79EB708970FB6F8949EBF0FBEDC
:104620008DBFEDB7FEB731968FE199E0ADB7BEB75C
:1046300012969C938E9311978FE693E093838283D7
:104640008091CC0A9091CD0AA091CE0AB091CF0A68
:1046500084839583A683B7830E941A438DB79EB740
:1046600008960FB6F8949EBF0FBE8DBF0E945C1CCB
:1046700008958091010A82FD04C08091010A84FF9F
:104680003AC080910B0890910C08A0910D08B09150
:104690000E0820911A0830911B0840911C08509177
:1046A0001D08821B930BA40BB50B845F9140A040A7
:1046B000B04068F480911808909119088B349105E6
:1046C00054F40196909319088093180804C010922E
:1046D00019081092180880910B0890910C08A0916D
:1046E0000D08B0910E0880931A0890931B08A093B0
:1046F0001C08B0931D088091010A82FF42C080917E
:104700001808909119082091D70A3091D80A409141
:10471000D90A5091DA0A8B3491052CF0245130409B
:104720004040504004C02150304040405040209311
:10473000D70A3093D80A4093D90A5093DA0A2091C5
:10474000D00A3091D10A4091D20A5091D30A809177
:10475000D70A9091D80AA091D90AB091DA0A8217A3
:104760009307A407B50740F42093D70A3093D80ADB
:104770004093D90A5093DA0A8091010A8B7F809383
:10478000010A8091010A84FF5BC080911808909112
:1047900019082091D70A3091D80A4091D90A50912E
:1047A000DA0A8B3491052CF02C5E3F4F4F4F5F4F50
:1047B00004C02F5F3F4F4F4F5F4F2093D70A309376
:1047C000D80A4093D90A5093DA0A2091CC0A309142
:1047D000CD0A4091CE0A5091CF0A8091D70A90918C
:1047E000D80AA091D90AB091DA0A281739074A07DE
:1047F0005B0740F42093D70A3093D80A4093D90A34
:104800005093DA0A2091D70A3091D80A4091D90AF8
:104810005091DA0A8091190A90911A0AA0911B0A04
:10482000B0911C0A82179307A407B50720F4CA01A8
:10483000B9010E94C8138091010A8F7E8093010AFA
:104840008DB79EB708970FB6F8949EBF0FBE8DBF69
:10485000EDB7FEB731968FE199E0ADB7BEB71296CE
:104860009C938E93119783E893E093838283809146
:10487000D70A9091D80AA091D90AB091DA0A848314
:104880009583A683B7830E941A438DB79EB7089677
:104890000FB6F8949EBF0FBE8DBF0E945C1C08959A
:1048A0008091010A84FF0DC083E00E947715682F74
:1048B0006F5F83E00E9484158091010A8F7E809350
:1048C000010A8091010A82FF0DC083E00E947715E2
:1048D000682F615083E00E9484158091010A8B7FCC
:1048E0008093010A83E00E94771500D000D000D0A9
:1048F000EDB7FEB731962FE139E0ADB7BEB71296EE
:104900003C932E93119727E933E0338322838483EA
:1049100015820E941A438DB79EB706960FB6F8947B
:104920009EBF0FBE8DBF0E945C1C08958091010A3E
:1049300084FF0EC083E00E945315BC016F5F7F4F60
:1049400083E00E9461158091010A8F7E8093010AA5
:104950008091010A82FF0EC083E00E945315BC01C2
:104960006150704083E00E9461158091010A8B7F45
:104970008093010A83E00E94531500D000D000D03C
:10498000EDB7FEB731962FE139E0ADB7BEB712965D
:104990003C932E93119728EA33E033832283958347
:1049A00084830E941A438DB79EB706960FB6F8947B
:1049B0009EBF0FBE8DBF0E945C1C08958091010AAE
:1049C00084FF0DC082E00E947715682F6F5F82E040
:1049D0000E9484158091010A8F7E8093010A809144
:1049E000010A82FF0DC082E00E947715682F615096
:1049F00082E00E9484158091010A8B7F8093010AD6
:104A000082E00E94771500D000D000D0EDB7FEB74D
:104A100031962FE139E0ADB7BEB712963C932E9395
:104A200011972AEB33E033832283848315820E941B
:104A30001A438DB79EB706960FB6F8949EBF0FBE69
:104A40008DBF0E945C1C08958091010A84FF0EC0F6
:104A500082E00E945315BC016F5F7F4F82E00E948D
:104A600061158091010A8F7E8093010A8091010A6D
:104A700082FF0EC082E00E945315BC01615070405D
:104A800082E00E9461158091010A8B7F8093010A68
:104A900082E00E94531500D000D000D0EDB7FEB7E1
:104AA00031962FE139E0ADB7BEB712963C932E9305
:104AB00011972BEC33E033832283958384830E9408
:104AC0001A438DB79EB706960FB6F8949EBF0FBED9
:104AD0008DBF0E945C1C08958091010A84FF0DC067
:104AE00081E00E947715682F6F5F81E00E94841536
:104AF0008091010A8F7E8093010A8091010A82FFD2
:104B00000DC081E00E947715682F615081E00E94FE
:104B100084158091010A8B7F8093010A81E00E94B5
:104B2000771500D000D000D0EDB7FEB731962FE159
:104B300039E0ADB7BEB712963C932E9311972DED89
:104B400033E033832283848315820E941A438DB716
:104B50009EB706960FB6F8949EBF0FBE8DBF0E94FB
:104B60005C1C08958091010A84FF0EC081E00E94C0
:104B70005315BC016F5F7F4F81E00E9461158091EA
:104B8000010A8F7E8093010A8091010A82FF0EC084
:104B900081E00E945315BC016150704081E00E9489
:104BA00061158091010A8B7F8093010A81E00E9448
:104BB000531500D000D000D0EDB7FEB731962FE1ED
:104BC00039E0ADB7BEB712963C932E9311972EEEF7
:104BD00033E033832283958384830E941A438DB705
:104BE0009EB706960FB6F8949EBF0FBE8DBF0E946B
:104BF0005C1C08958091010A84FF0DC080E00E9432
:104C00007715682F6F5F80E00E9484158091010AFC
:104C10008F7E8093010A8091010A82FF0DC080E09F
:104C20000E947715682F615080E00E948415809162
:104C3000010A8B7F8093010A80E00E94771500D0E3
:104C400000D000D0EDB7FEB731962FE139E0ADB717
:104C5000BEB712963C932E93119720E034E0338335
:104C60002283848315820E941A438DB79EB70696CD
:104C70000FB6F8949EBF0FBE8DBF0E945C1C0895B6
:104C80008091010A84FF0EC080E00E945315BC0190
:104C90006F5F7F4F80E00E9461158091010A8F7ED7
:104CA0008093010A8091010A82FF0EC080E00E9479
:104CB0005315BC016150704080E00E9461158091E5
:104CC000010A8B7F8093010A80E00E94531500D077
:104CD00000D000D0EDB7FEB731962FE139E0ADB787
:104CE000BEB712963C932E93119721E134E03383A3
:104CF0002283958384830E941A438DB79EB70696BC
:104D00000FB6F8949EBF0FBE8DBF0E945C1C089525
:104D1000AF92BF92CF92DF92EF92FF920F931F93C9
:104D20008091010A82FD04C08091010A84FF3AC08B
:104D300080910B0890910C08A0910D08B0910E087D
:104D40002091200830912108409122085091230899
:104D5000821B930BA40BB50B845F9140A040B04025
:104D600068F480911E0890911F088B34910554F4CB
:104D7000019690931F0880931E0804C010921F088C
:104D800010921E0880910B0890910C08A0910D08BC
:104D9000B0910E088093200890932108A0932208D8
:104DA000B09323088091010A84FF4CC080911E08B3
:104DB00090911F082091190A30911A0A40911B0AFC
:104DC00050911C0A8B3491052CF02C5E3F4F4F4FB5
:104DD0005F4F04C02F5F3F4F4F4F5F4F2093190A23
:104DE00030931A0A40931B0A50931C0A2091CC0A54
:104DF0003091CD0A4091CE0A5091CF0A8091190A84
:104E000090911A0AA0911B0AB0911C0A2817390721
:104E10004A075B0740F42093190A30931A0A40931B
:104E20001B0A50931C0A6091190A70911A0A80910A
:104E30001B0A90911C0A0E94C8138091010A8F7E60
:104E40008093010A8091010A82FF4CC080911E0864
:104E500090911F082091190A30911A0A40911B0A5B
:104E600050911C0A8B3491052CF024513040404065
:104E7000504004C021503040404050402093190A17
:104E800030931A0A40931B0A50931C0A2091D70AA8
:104E90003091D80A4091D90A5091DA0A8091190AC2
:104EA00090911A0AA0911B0AB0911C0A82179307CD
:104EB000A407B50740F42093190A30931A0A4093C7
:104EC0001B0A50931C0A6091190A70911A0A80916A
:104ED0001B0A90911C0A0E94C8138091010A8B7FC3
:104EE0008093010A81E00E942C158C0180E00E94D1
:104EF0002C157C01C8010E94F1155B016C0120E0BA
:104F000030E040E050E00E94793F882354F40F2EB7
:104F1000F0E0AF2EF0E0BF2EF0E0CF2EF0E0DF2E7D
:104F2000F02DC7010E94DA157B018C0120E030E0F2
:104F300040E050E00E94793F882354F40F2EF0E0C7
:104F4000EF2EF0E0FF2EF0E00F2FF0E01F2FF02DFE
:104F50008DB79EB740970FB6F8949EBF0FBE8DBF1A
:104F6000EDB7FEB731968FE199E0ADB7BEB71296B7
:104F70009C938E93119783E294E093838283809134
:104F8000190A90911A0AA0911B0AB0911C0A8483F5
:104F90009583A683B783A086B186C286D386E4862E
:104FA000F586068717870E941A438DB79EB74096ED
:104FB0000FB6F8949EBF0FBE8DBF0E945C1C1F9160
:104FC0000F91FF90EF90DF90CF90BF90AF9008953A
:104FD000CF92DF92EF92FF920F931F938091010A7D
:104FE00085FF41C0809111088823C1F50E94E80027
:104FF00081E00E9494152091D40A3091D50A280F9F
:10500000391F30932508209324086091D70A7091A6
:10501000D80A8091D90A9091DA0A0E94C813809127
:10502000D70A9091D80AA091D90AB091DA0A809350
:105030002D0890932E08A0932F08B09330088093EA
:10504000290890932A08A0932B08B0932C0810925B
:1050500028081092270881E0809311088091010AA6
:105060008F7D8093010A80911108882309F4F8C08C
:105070002091190A30911A0A40911B0A50911C0A7A
:105080008091CC0A9091CD0AA091CE0AB091CF0A1E
:10509000281739074A075B0708F09CC0809126084B
:1050A000882349F480912408909125080E94B81122
:1050B00080932608DDC00E94A511892B09F0D8C075
:1050C000809126080E94F51110922608F89481E03C
:1050D0000E942C15D82EC92E7894E090190AF090D1
:1050E0001A0A00911B0A10911C0A0E94F1152DB793
:1050F0003EB72C5030400FB6F8943EBF0FBE2DBFC8
:10510000EDB7FEB731962FE139E0ADB7BEB71296D5
:105110003C932E93119722E434E033832283E4827C
:10512000F5820683178360877187828793870E9441
:105130001A438D2D9C2D20912708309128084DB7BA
:105140005EB7445F5F4F0FB6F8945EBF0FBE4DBFB2
:1051500028173907A8F4909328088093270880918E
:10516000190A90911A0AA0911B0AB0911C0A809307
:105170002D0890932E08A0932F08B093300813C0E9
:105180008217930781F48091190A90911A0AA091CD
:105190001B0AB0911C0A8093290890932A08A093B7
:1051A0002B08B0932C086091190A70911A0A80910B
:1051B0001B0A90911C0A665F7F4F8F4F9F4F609331
:1051C000190A70931A0A80931B0A90931C0A0E9472
:1051D000C8134EC020912D0830912E0840912F0801
:1051E000509130088091290890912A08A0912B08AD
:1051F000B0912C0882179307A407B50740F42093B9
:10520000290830932A0840932B0850932C0880914A
:10521000290890912A08A0912B08B0912C08280FFA
:10522000391F4A1F5B1F5695479537952795CA0129
:10523000B9010E94C8138091DF0A9091E10A890F99
:105240000E9435308091EA0A9091E90A890F0E9404
:105250003D320E94D2160E9428011092110808C007
:105260008FE199E06AE574E00E94DC420E945C1CD8
:105270001F910F91FF90EF90DF90CF90089583E002
:105280000E942C1500D000D000D0EDB7FEB73196AB
:105290002FE139E0ADB7BEB712963C932E9311972C
:1052A0002FE634E033832283958384830E941A435C
:1052B0008DB79EB706960FB6F8949EBF0FBE8DBFF2
:1052C0000E945C1C089582E00E942C1500D000D042
:1052D00000D0EDB7FEB731962FE139E0ADB7BEB7DC
:1052E00012963C932E9311972AE734E0338322835E
:1052F000958384830E941A438DB79EB706960FB696
:10530000F8949EBF0FBE8DBF0E945C1C089581E083
:105310000E942C1500D000D000D0EDB7FEB731961A
:105320002FE139E0ADB7BEB712963C932E9311979B
:1053300025E834E033832283958384830E941A43D3
:105340008DB79EB706960FB6F8949EBF0FBE8DBF61
:105350000E945C1C089580E00E942C1500D000D0B3
:1053600000D0EDB7FEB731962FE139E0ADB7BEB74B
:1053700012963C932E93119720E934E033832283D5
:10538000958384830E941A438DB79EB706960FB605
:10539000F8949EBF0FBE8DBF0E945C1C08958DB710
:1053A0009EB708970FB6F8949EBF0FBE8DBFEDB79E
:1053B000FEB731968FE199E0ADB7BEB712969C93D8
:1053C0008E9311978BE994E0938382838091150AE1
:1053D0009091160AA091170AB091180A84839583B8
:1053E000A683B7830E941A438DB79EB708960FB65F
:1053F000F8949EBF0FBE8DBF0E945C1C08958091E3
:10540000010A82FF0CC080914D08863418F081504B
:1054100080934D088091010A8B7F8093010A8091CF
:10542000010A84FF1FC090914D088091E90A9817E6
:1054300038F48091D506981718F49F5F90934D0823
:105440000E940432882349F090914D088091E80A27
:10545000891718F4892F0E943D328091010A8F7EAE
:105460008093010A00D000D000D0EDB7FEB731968E
:105470008FE199E0ADB7BEB712969C938E931197CA
:1054800080EB94E09383828380914D0890E00196B5
:10549000958384830E941A438DB79EB706960FB6F4
:1054A000F8949EBF0FBE8DBF0E945C1C0895809132
:1054B000010A82FF27C04091D5068091EA0A209117
:1054C000E90A30E0280F311D842F90E028173907B2
:1054D0003CF480914D08841718F441504093D50650
:1054E0000E940432882349F09091D5068091E80A01
:1054F000981718F4892F0E943D328091010A8B7F02
:105500008093010A8091010A84FF0CC08091D50626
:10551000833618F48F5F8093D5068091010A8F7EC1
:105520008093010A00D000D000D0EDB7FEB73196CD
:105530008FE199E0ADB7BEB712969C938E93119709
:1055400089EC94E0938382838091D50690E0019664
:10555000958384830E941A438DB79EB706960FB633
:10556000F8949EBF0FBE8DBF0E945C1C089500D0B2
:1055700000D000D0EDB7FEB731968FE199E0ADB71E
:10558000BEB712969C938E93119780EE94E093830E
:1055900082838091EA0A848315820E941A43809153
:1055A000010A2DB73EB72A5F3F4F0FB6F8943EBFB2
:1055B0000FBE2DBF84FF1FC05091D5067091EA0A1F
:1055C0006091E90A4091D406852F90E0871B9109EC
:1055D000861B9109242F30E08217930724F4561B71
:1055E0005093EA0A03C0470F4093EA0A8091010AE8
:1055F0008F7E8093010A8091010A82FF11C0809101
:10560000EA0A9091D406891718F41092EA0A03C0A6
:10561000891B8093EA0A8091010A8B7F8093010A9B
:105620000E945C1C089500D000D000D0EDB7FEB7FA
:1056300031968FE199E0ADB7BEB712969C938E93E9
:10564000119789EF94E0938382838091E90A90E037
:105650000196958384830E941A438091010A2DB795
:105660003EB72A5F3F4F0FB6F8943EBF0FBE2DBF27
:1056700084FF1FC05091D5067091EA0A6091E90A33
:105680004091D406852F90E0871B9109861B9109D4
:10569000242F30E08217930724F4571B5093E90A14
:1056A00003C0460F4093E90A8091010A8F7E8093E0
:1056B000010A8091010A82FF1AC04091E90A6091B3
:1056C0004D085091D406242F30E0862F90E0850FAE
:1056D000911D281739071CF46093E90A03C0451B84
:1056E0004093E90A8091010A8B7F8093010A0E940E
:1056F0005C1C08958091DF0A0E9450302DB73EB7A0
:10570000285030400FB6F8943EBF0FBE2DBFEDB706
:10571000FEB731962FE139E0ADB7BEB712963C9394
:105720002E93119721E135E03383228364837583BF
:10573000868397830E941A438091010A2DB73EB752
:10574000285F3F4F0FB6F8943EBF0FBE2DBF84FFBA
:105750001FC05091E20A7091DF0A6091E10A409106
:10576000BB06852F90E0871B9109861B9109242F8A
:1057700030E08217930724F4561B5093DF0A03C0CE
:10578000470F4093DF0A8091010A8F7E8093010AC0
:105790008091010A82FF11C08091DF0A9091BB06BF
:1057A000891718F41092DF0A03C0891B8093DF0A5F
:1057B0008091010A8B7F8093010A0E945C1C0895EE
:1057C0008091E10A0E9450302DB73EB728503040FA
:1057D0000FB6F8943EBF0FBE2DBFEDB7FEB73196A2
:1057E0002FE139E0ADB7BEB712963C932E931197D7
:1057F0002CE235E033832283648375838683978329
:105800000E941A438091010A2DB73EB7285F3F4F8F
:105810000FB6F8943EBF0FBE2DBF84FF1FC050913E
:10582000E20A7091DF0A6091E10A4091BB06852F80
:1058300090E0871B9109861B9109242F30E0821785
:10584000930724F4571B5093E10A03C0460F40937B
:10585000E10A8091010A8F7E8093010A8091010AFA
:1058600082FF1AC04091E10A6091E30A5091BB06A1
:10587000242F30E0862F90E0850F911D28173907DF
:105880001CF46093E10A03C0451B4093E10A809138
:10589000010A8B7F8093010A0E945C1C089500D04E
:1058A00000D000D0EDB7FEB731968FE199E0ADB7EB
:1058B000BEB712969C938E93119786E495E09383DE
:1058C00082838091E80A90E00196958384830E9408
:1058D0001A438091010A2DB73EB72A5F3F4F0FB69A
:1058E000F8943EBF0FBE2DBF84FF1EC06091D50649
:1058F0005091E80A4091D406862F90E0851B9109CB
:10590000242F30E0821793071CF46093E80A03C049
:10591000450F4093E80A8091E80A0E943D32809149
:10592000010A8F7E8093010A8091010A82FF1EC0C6
:105930004091E80A60914D085091D406242F30E040
:10594000862F90E0850F911D281739071CF460936E
:10595000E80A03C0451B4093E80A8091E80A0E94C8
:105960003D328091010A8B7F8093010A0E945C1C6A
:1059700008958091E00A0E9450302DB73EB728501C
:1059800030400FB6F8943EBF0FBE2DBFEDB7FEB747
:1059900031962FE139E0ADB7BEB712963C932E9306
:1059A000119722E635E033832283648375838683EF
:1059B00097830E941A438091010A2DB73EB7285F52
:1059C0003F4F0FB6F8943EBF0FBE2DBF84FF25C0DA
:1059D0005091E00A552329F48091E30A8093E00A6C
:1059E00013C06091E20A4091BB06862F90E0851BB0
:1059F0009109242F30E0821793071CF46093E00A8A
:105A000003C0450F4093E00A8091E00A0E943530C0
:105A10008091010A8F7E8093010A8091010A82FFA2
:105A200023C04091E00A5091E30A451719F41092FF
:105A3000E00A11C06091BB06242F30E0852F90E072
:105A4000860F911D281739071CF45093E00A03C0F4
:105A5000461B4093E00A8091E00A0E943530809115
:105A6000010A8B7F8093010A0E945C1C08952DB768
:105A70003EB7285030400FB6F8943EBF0FBE2DBF42
:105A8000EDB7FEB731968FE199E0ADB7BEB712968C
:105A90009C938E9311978DE795E0938382838091F9
:105AA000190A90911A0AA0911B0AB0911C0A8483CA
:105AB0009583A683B7830E941A438091010A2DB76C
:105AC0003EB7285F3F4F0FB6F8943EBF0FBE2DBFC5
:105AD00084FF38C08091190A90911A0AA0911B0A7C
