:100000000C94C7000C94E7000C94E7000C94E700F4
:100010000C94E7000C94E7000C942C040C94E7007B
:100020000C94FC030C94E7000C94E7000C94E7009C
:100030000C94E7000C94E7000C94E7000C94BD12BC
:100040000C94E7000C94E7000C94E7000C94E70094
:100050000C94E7000C94DF140C94E7000C94E70078
:100060000C94E7000C94E7000C94E7000C94E70074
:100070000C94E7000C94E7000C94A80E0C94E70095
:100080000C94E7000C94E7000C94E7006E616E009E
:10009000696E660000407A10F35A00A0724E18098B
:1000A0000010A5D4E80000E87648170000E40B54DF
:1000B000020000CA9A3B000000E1F50500008096AE
:1000C0009800000040420F000000A08601000000E0
:1000D000102700000000E80300000000640000009A
:1000E00000000A00000000000100000000002C7663
:1000F000D888DC674F0823DFC1DFAE59E1B1B7967E
:10010000E5E3E453C63AE651997696E8E6C28426DA
:10011000EB898C9B62ED407C6FFCEFBC9C9F40F2B6
:10012000BAA56FA5F490055A2AF75C936B6CF96732
:100130006DC11BFCE0E40D47FEF520E6B500D0EDF7
:10014000902E0300943577050080841E080000205F
:100150004E0A000000C80C333333330F986E1283FD
:100160001141EF8D2114893BE65516CFFEE6DB18D1
:10017000D1844B381BF77C1D901DA4BBE424203296
:1001800084725E228100C9F124ECA1E53D2711248F
:100190001FBECFEFD0E1DEBFCDBF17E0A0E0B1E0E2
:1001A000E8E6FAE800E00BBF02C007900D92A83C19
:1001B000B107D9F71BBE1AE0A8ECB7E001C01D9249
:1001C000A03DB107E1F70E94BA0A0C9432450C94A5
:1001D00000009C01E199FECF3FBB2EBB6DBB0FB66B
:1001E000F894E29AE19A0FBE089581E0809381012C
:1001F0000895982F15988AB78B7F8ABF8AB7877F13
:100200008ABF17988AB78F7B8ABF8AB78F778ABFD2
:10021000913031F489B7806289BF89B7806805C0A1
:1002200089B78F7D89BF89B78F7789BF9093C807BA
:10023000089580933608823061F0833031F0813048
:1002400099F480916500886007C00E9496338823E6
:1002500031F080916500877F8093650008958091DB
:1002600065008860809365000895AF92BF92CF9239
:10027000DF92EF92FF920F931F9380E197E220E7C6
:1002800031E0F9013197F1F70197D9F7E090B90A18
:10029000F090BA0A81E00E944B166C0182E00E9445
:1002A0004B16C80ED91EEC0CFD1C00E010E0C80176
:1002B000B7010E945F435B016C0126E636E646E625
:1002C00055E40E9415447B018C0120E030E040E8B9
:1002D0005FE30E94C24288231CF461E070E024C006
:1002E000C801B70120E03FEF4FE757E40E941144F7
:1002F0001816B4F4C601B50120E030E040E251E444
:100300000E9415440E94334380E791E005C0FC0140
:100310003197F1F76150704061157105C1F707C061
:10032000C801B7010E943343CB010197F1F78091D7
:10033000960880938101F89481E00E94E3159093E0
:100340009A088093990882E00E94E315909395089B
:100350008093940878948091C50A8093D208809104
:10036000990890919A080E94A8162DB73EB72A5076
:1003700030400FB6F8943EBF0FBE2DBFEDB7FEB7AD
:10038000319624E039E0ADB7BEB712963C932E9378
:10039000119720E031E03383228364837583868361
:1003A00097838091940890919508918780870E9407
:1003B00040422DB73EB7265F3F4F0FB6F8943EBF81
:1003C0000FBE2DBF0E94F10C88E893E120E731E0D9
:1003D000F9013197F1F70197D9F71F910F91FF902C
:1003E000EF90DF90CF90BF90AF900895CF92DF92C3
:1003F000EF92FF920F931F93CF93DF938091810130
:10040000813069F48091EB07882321F00E94AC12BF
:100410001092EB071092DE071092DD07C5C1F89429
:1004200081E00E94E315EC0182E00E94E3156C017B
:1004300078948091DE07882309F076C08091DD07EB
:10044000882309F071C08091EB07882321F00E9476
:10045000AC121092EB078091990890919A08C817F6
:10046000D90771F48091940890919508C816D9061F
:1004700009F49AC180918101823009F040C094C191
:10048000C817D907E4F581E08093DE071092E307EF
:100490001092E4071092E5071092E6071092DF072A
:1004A0001092E0071092E1071092E2072091FE09F6
:1004B0003091FF094091000A5091010A2093E7070B
:1004C0003093E8074093E9075093EA076091970853
:1004D0006093ED07E0919308E093EC0761956093DA
:1004E000EE076E02B0011124882777FD8095982FC2
:1004F000620F731F841F951F0E947F1403C081E049
:100500008093DD070091B90A1091BA0A81E00E9438
:100510004B16800F911F0E946F128093EB0784E6A9
:1005200090E00E94D51140C18091EB070E945C12BF
:10053000892B29F08091EB07882309F035C1809140
:10054000EB070E94AC121092EB078091DE07882324
:1005500009F4E2C06091EE078091EC07E82FFF27D5
:10056000E7FDF095862F992787FD90959C01E29FE6
:10057000C001E39F900DF29F900D11249C012C9FD0
:10058000C0012D9F900D3C9F900D11247C010027F0
:10059000F7FC0095102F8091E3079091E407A0915C
:1005A000E507B091E607E80EF91E0A1F1B1FE0924F
:1005B000E307F092E4070093E5071093E6079E0136
:1005C000442737FD4095542F8091DF079091E00735
:1005D000A091E107B091E207820F931FA41FB51FFE
:1005E0008093DF079093E007A093E107B093E207C1
:1005F0006F5F6093EE078091ED0786170CF062C085
:10060000682F772767FD70956E9FC0016F9F900DD3
:100610007E9F900D11249C01442737FD4095542F57
:100620002E153F0540075107B4F0882799278E1BE8
:100630009F0B9C01269FC001279F900D369F900D18
:1006400011249C01442737FD4095542FE216F306F0
:100650000407150744F42093E3073093E40740931D
:10066000E5075093E6076091E3076093EE0777276D
:1006700067FD7095872F972F2091E7073091E80746
:100680004091E9075091EA07620F731F841F951F7D
:100690000E947F141092DE078091EE07882319F0E4
:1006A0001092DC0705C08091DC078F5F8093DC0728
:1006B0008091DC07823080F181E08093DD07109229
:1006C000DC072AC0862F992787FD90958E9FB00161
:1006D0008F9F700D9E9F700D1124882777FD809548
:1006E000982F2091E7073091E8074091E907509152
:1006F000EA07620F731F841F951F0E947F140091E9
:10070000B90A1091BA0A81E00E944B16800F911F1E
:100710000E946F128093EB078091DD07882309F414
:1007200043C080918101823031F420919908309149
:100730009A08CE0105C02091940830919508C60111
:10074000821793074CF49091C50A8091C70A9817B5
:1007500028F5892F8F5F0BC028173907FCF490917B
:10076000C50A8091C80A8917C8F4892F81500E9450
:100770000732E090B90AF090BA0A81E00E944B1665
:100780008C0182E00E944B16080F191FC8018E0DC4
:100790009F1D0E946F128093EB0706C01092DD0729
:1007A000D0939A08C0939908DF91CF911F910F9130
:1007B000FF90EF90DF90CF9008950E941D320E942D
:1007C0008F3308951F93182F81E0809381010E9439
:1007D000DD0380913608823049F080E090E901978E
:1007E000F1F780916500886080936500153011F005
:1007F0001093C9071F9108951F920F920FB60F9281
:100800000BB60F9211242F933F934F935F936F93E7
:100810007F938F939F93AF93BF93EF93FF930E9428
:100820009633882331F084E00E94E20381E08093D4
:10083000DA07FF91EF91BF91AF919F918F917F91D7
:100840006F915F914F913F912F910F900BBE0F9041
:100850000FBE0F901F9018951F920F920FB60F9218
:100860000BB60F9211242F933F934F935F936F9387
:100870007F938F939F93AF93BF93EF93FF930E94C8
:100880009633882331F083E00E94E20381E0809375
:10089000DB07FF91EF91BF91AF919F918F917F9176
:1008A0006F915F914F913F912F910F900BBE0F90E1
:1008B0000FBE0F901F9018956091FE097091FF096F
:1008C0008091000A9091010A0E947F140E9489334E
:1008D0008091C60A0E9407320895EF92FF920F930B
:1008E0001F930D991AC08091C8078130B1F48CE232
:1008F00099E060E171E00E94D7410E94F10C88EC20
:1009000090E00E94D51180E197E220E731E0F90103
:100910003197F1F70197D9F764C00F991AC0809108
:10092000C8078130B1F48CE299E065E271E00E9481
:10093000D7410E94F10C88EC90E00E94D51180E133
:1009400097E220E731E0F9013197F1F70197D9F704
:1009500048C06091C90A7091CA0A80E090E00E9484
:100960005F437B018C010E9450329B01AC01C801A6
:10097000B7010E94C2428823B4F48CE299E06AE392
:1009800071E00E94D7410E94F10C88EC90E00E9437
:10099000D51180E197E220E731E0F9013197F1F7D5
:1009A0000197D9F71EC080913608813049F08091B7
:1009B0006500877F8093650080E090E90197F1F7FB
:1009C0000E945C0480919808813059F41092FA07D3
:1009D0008091BB0A8093AF0A8091E6098062809380
:1009E000E6091F910F91FF90EF9008950E94211446
:1009F0000895EF92FF920F931F93CF93DF9380910F
:100A0000EF07882309F4AFC51092EF0784E599E05A
:100A100063ED78E00E9407118093D108882309F0E4
:100A2000A2C5209137088091D308281709F09BC5EB
:100A30009091D408963009F011C48091FB07882367
:100A400009F0FEC3C091D708D091D8088091D5088D
:100A50009091D6088431910509F4FFC28531910542
:100A600008F05CC08930910509F45FC28A309105B5
:100A700038F58430910509F479C18530910580F409
:100A80008130910509F4E9C08130910508F4ADC0C9
:100A90008230910509F407C1039709F052C516C1C8
:100AA0008630910509F4D2C18630910508F4B2C1AF
:100AB0008730910509F4DFC1089709F042C51DC2CE
:100AC0008E30910509F479C28F30910580F48B3016
:100AD000910509F43CC28B30910508F42FC28C308B
:100AE000910509F445C20D9709F02BC552C2813119
:100AF000910509F49AC28231910540F48F30910535
:100B000009F477C2409709F01CC588C2823191056B
:100B100009F493C2439709F014C597C28632910530
:100B200009F433C38732910588F58032910509F4C1
:100B3000FCC28132910598F48C31910509F4DBC235
:100B40008D31910520F4459709F0FBC4ADC28D317C
:100B5000910509F4D7C24E9709F0F3C4DAC2833283
:100B6000910509F4FAC28432910540F4813291056D
:100B700009F4E3C2829709F0E4C4E7C28432910524
:100B800009F4F3C2859709F0DCC4F7C28B329105F2
:100B900009F423C38C32910580F48832910509F45D
:100BA00004C38832910508F4F8C28932910509F42A
:100BB00004C38A9709F0C5C408C38E32910509F4AD
:100BC00024C38F32910540F48C32910509F40DC392
:100BD0008D9709F0B6C411C38F32910509F41DC376
:100BE0008F5F9F4F09F0ADC428C3CE018370907012
:100BF0008130910519F0029739F404C081E00E9418
:100C0000E20302C00E946D04CE018C7090700097C8
:100C100031F096958795969587950E9419019E01CA
:100C2000207330702032310559F02033310551F0F6
:100C30002031310509F085C481E08093810181C4B0
:100C400082E001C083E0809396080E949633882357
:100C500009F477C40E94350174C42091BC0A309114
:100C6000BD0A4091BE0A5091BF0ACE01A0E0B0E09B
:100C700082179307A407B50708F4E9012091B10A88
:100C80003091B20A4091B30A5091B40ACE01A0E06B
:100C9000B0E0281739074A075B0708F4E901BE01ED
:100CA00080E090E0B4C08091C80A282F30E02C1773
:100CB0003D0708F49E018091C70A482F50E0C90102
:100CC0004217530708F02EC1CA012CC1CE01A0E083
:100CD000B0E08093B10A9093B20AA093B30AB093A4
:100CE000B40A2091BC0A3091BD0A4091BE0A5091CD
:100CF000BF0A82179307A407B50740F42093B10AEF
:100D00003093B20A4093B30A5093B40A8091B10A67
:100D10009091B20AA091B30AB091B40A81549C494F
:100D2000A040B04060F080E49CE9A0E0B0E0809397
:100D3000B10A9093B20AA093B30AB093B40A209177
:100D4000B10A3091B20A4091B30A5091B40A80912D
:100D5000FE099091FF09A091000AB091010A28179D
:100D600039074A075B0708F0ECC34FC0CE01A0E08B
:100D7000B0E08093BC0A9093BD0AA093BE0AB093E2
:100D8000BF0A2091B10A3091B20A4091B30A509142
:100D9000B40A281739074A075B0740F42093BC0AB6
:100DA0003093BD0A4093BE0A5093BF0A8091BC0A9B
:100DB0009091BD0AA091BE0AB091BF0A88599A438A
:100DC000A040B04060F488E99AE3A0E0B0E08093EE
:100DD000BC0A9093BD0AA093BE0AB093BF0A2091AB
:100DE000BC0A3091BD0A4091BE0A5091BF0A809161
:100DF000FE099091FF09A091000AB091010A8217A3
:100E00009307A407B50708F09CC3CA01B9010E9463
:100E10007F1497C3C093C60A4091C70A5091C40A71
:100E2000842F90E0851B91092C2F30E082179307C7
:100E30001CF4451B4093C60A9091C80A8091C60ACB
:100E4000891708F07EC39093C60A7BC3C093C40A77
:100E50004091C70A242F30E02C1B31098091A40651
:100E600090E0281739070CF06CC38091C60A481B24
:100E70004093C40A66C3C093C70A5091C60A409102
:100E8000C40A2C2F30E0852F90E0840F911D281785
:100E900039074CF4450F4093C70A05C08091C70A33
:100EA00081508093C70A8091C70A0E9422327B0139
:100EB0008C016091A70670E0882777FD8095982FB8
:100EC0000E94614320E030E040E251E40E94C642CB
:100ED0009B01AC01C801B7010E9411441816F4F23D
:100EE0000E949633882309F42CC39091C70A8091FD
:100EF000C50A981708F025C314C0C093C80A80918A
:100F0000C60A8C1710F48093C80A0E94963388236F
:100F100009F417C39091C80A8091C50A891708F08F
:100F200010C3892F0E9407320CC3C0939308CB30A3
:100F30000CF407C38AE08093930803C3C093970817
:100F4000CB300CF4FEC28AE080939708FAC2D093AB
:100F5000CC0AC093CB0A8091C90A9091CA0AC817DB
:100F6000D90708F0EEC29093CC0A8093CB0AE9C26D
:100F7000D093CA0AC093C90A8091CB0A9091CC0A37
:100F80008C179D0708F0DDC29093CA0A8093C90AA6
:100F9000D8C280913208282F30E02C173D0708F482
:100FA0009E018091BE06482F50E0C90142175307A9
:100FB00008F4CA010E94CF33C4C2C093CE0A409144
:100FC000BE065091CF0A842F90E0851B91092C2FEB
:100FD00030E0821793071CF4451B4093CE0A909192
:100FE00032088091CE0A891708F0ABC29093CE0ADE
:100FF000A8C2C093CF0A4091BE06242F30E02C1B1C
:1010000031098091BD0690E0281739070CF099C28C
:101010008091CE0A481B4093CF0A93C2D093A60674
:10102000C093A5068CE290E07AC02C2FC093A7064F
:10103000E199FECF8FE390E0F7C02C2FC093CD0154
:10104000E199FECF88E490E0EFC02C2FC093CE0151
:10105000E199FECF89E490E0E7C0CE01A0E0B0E0E6
:101060008093C00A9093C10AA093C20AB093C30AA6
:101070002091B10A3091B20A4091B30A5091B40A5A
:1010800082179307A407B50740F42093C00A309352
:10109000C10A4093C20A5093C30A6091C00A70917A
:1010A000C10A8AE490E03CC0CE01A0E0B0E08093A9
:1010B000B50A9093B60AA093B70AB093B80A2091E4
:1010C000BC0A3091BD0A4091BE0A5091BF0A281750
:1010D00039074A075B0740F42093B50A3093B60AF4
:1010E0004093B70A5093B80A6091B50A7091B60A56
:1010F0008CE490E015C0D093110AC093100A80E4EC
:1011000090E00DC0D093220AC093210A82E490E0BF
:1011100006C0D093330AC093320A84E490E0BE0143
:1011200049EE50E00E94FF410CC22C2FC093CA0729
:10113000E199FECF8FE290E077C02C2FC093CB07D0
:10114000E199FECF80E390E06FC02C2FC093CC07D5
:10115000E199FECF81E390E067C02C2FC093CD07CB
:10116000E199FECF82E390E05FC02C2FC093CE07C1
:10117000E199FECF83E390E057C02C2FC093CF07B7
:10118000E199FECF84E390E04FC02C2FC093D007AD
:10119000E199FECF85E390E047C02C2FC093D107A3
:1011A000E199FECF86E390E03FC02C2FC093D20799
:1011B000E199FECF87E390E037C02C2FC093D3078F
:1011C000E199FECF88E390E02FC02C2FC093D40785
:1011D000E199FECF89E390E027C02C2FC093D5077B
:1011E000E199FECF8AE390E01FC02C2FC093D60771
:1011F000E199FECF8BE390E017C02C2FC093D70767
:10120000E199FECF8CE390E00FC02C2FC093D8075C
:10121000E199FECF8DE390E007C02C2FC093D90752
:10122000E199FECF8EE390E09FBB8EBB2DBB0FB646
:10123000F894E29AE19A0FBE84C10E941C1B81C1FE
:101240002093D3089093D40881E08093FF088FEF18
:101250009FEF9093D6088093D50822C1933009F070
:1012600082C12093D3089093D40881E08093FF0833
:101270008091D5089091D608009709F070C089E058
:1012800090E09093D6088093D5080E9496338823E7
:1012900019F421E030E002C022E030E0809136080D
:1012A00090E0880F991F880F991F282B392B809168
:1012B000810190E054E0880F991F5A95E1F7282B9F
:1012C000392B8091FB0790E046E0880F991F4A95E3
:1012D000E1F7282B392B3093D8082093D708809139
:1012E000FE099091FF099093DA088093D9080BEDDD
:1012F00018E08091C50A8093DB081092DC08809189
:10130000CD0A8093DD08F80113820E94503220E05C
:1013100030E040E251E40E9415440E942E43709355
:10132000E0086093DF0880E00E94E3159093E208F4
:101330008093E10881E00E94E3159093E408809394
:10134000E30882E00E94E3159093E6088093E508A5
:101350008091C9078093E708F8011586F2C08130B3
:10136000910509F05AC08CE090E09093D6088093E4
:10137000D5088091B10A9091B20A9093D8088093D1
:10138000D7088091BC0A9091BD0A9093DA088093A7
:10139000D908EBEDF8E08091C60A8093DB08109243
:1013A000DC088091C40A8093DD0813828091C70A0B
:1013B0008093DF0815828091C80A8093E108178224
:1013C00080919308992787FD90959093E4088093E6
:1013D000E30880919708992787FD90959093E608F8
:1013E0008093E5088091CB0A9091CC0A9093E8080D
:1013F0008093E7088091C90A9091CA0A9093EA08FD
:101400008093E9088091CE0A8093EB08118A80913D
:10141000CF0A8093ED08138A94C08031910559F466
:1014200081E090E09093D6088093D5088091A5063E
:101430009091A60635C08131910549F481E090E094
:101440009093D6088093D5088091A7060BC082316F
:10145000910569F481E090E09093D6088093D508D7
:101460008091CD018093D7081092D8086AC083314B
:10147000910549F481E090E09093D6088093D508D7
:101480008091CE01EFCF8431910579F481E090E035
:101490009093D6088093D5088091C00A9091C10A94
:1014A0009093D8088093D7084CC08531910559F4A2
:1014B00081E090E09093D6088093D5088091B50A9A
:1014C0009091B60AEDCF8C31910559F481E090E00E
:1014D0009093D6088093D5088091100A9091110AB4
:1014E000DFCF8D31910559F481E090E09093D608DB
:1014F0008093D5088091210A9091220AD1CF8E3114
:10150000910559F481E090E09093D6088093D50836
:101510008091320A9091330AC3CF809791F480E191
:1015200090E09093D6088093D508AAECB7E0E7ED59
:10153000F8E08D9180831182329627E0AA3DB207B0
:10154000C1F783ED98E068E378E04BE550E00E9456
:101550007B1088E398E060E070E040E050E02CE22F
:1015600031E00E94E60EDF91CF911F910F91FF9025
:10157000EF900895AF92BF92CF92DF92EF92FF92D9
:101580000F931F93CF93DF930E9445120E94D311B4
:101590000E94E0310E949E330E943D130E94250C60
:1015A0000E9478330E94401481E00E947715809158
:1015B00064008860809364000E9453170E941C1886
:1015C0000E94951C4091CD085091CE086091CF08A3
:1015D0007091D00882E00E942C0D0E94110D809124
:1015E000CE0A0E94CF3380E00E94E203789480917B
:1015F000C8070E94F90084EF91E00E94D51188E8A5
:1016000093E120E731E0F9013197F1F70197D9F73C
:1016100088EC90E00E94D51180ED97E020E731E062
:10162000F9013197F1F70197D9F788EC90E00E9422
:10163000D511FCE2AF2EF9E0BF2EEFE6CE2EE1E0B1
:10164000DE2EC0E7D1E00E94EC170E94F6018091E7
:10165000DA07882391F08CE299E06FE471E00E9450
:10166000D74188EC90E00E94D51180ED97E0FE0113
:101670003197F1F70197D9F77CC08091DB07882378
:1016800091F08CE299E060E171E00E94D74188EC32
:1016900090E00E94D51180ED97E0FE013197F1F7BF
:1016A0000197D9F766C00D9909C08091C8078130AC
:1016B00029F48CE299E060E171E00AC00F990BC057
:1016C0008091C807813039F48CE299E065E271E0DD
:1016D0000E94D7414EC06091CB0A7091CC0A80E045
:1016E00090E00E945F437B018C010E9450329B017D
:1016F000AC01C801B7010E94C24288232CF48CE2DD
:1017000099E06AE371E0E4CF0E949633882319F4EC
:1017100025E631E002C02AE631E08091650083FFD2
:1017200003C085E691E002C08AE691E04DB75EB75E
:10173000485050400FB6F8945EBF0FBE4DBFEDB796
:10174000FEB73196ADB7BEB71296BC92AE92119766
:10175000D382C28235832483978386830E9440424A
:101760004DB75EB7485F5F4F0FB6F8945EBF0FBED0
:101770004DBF0E94F10C0E945B320E94F90463CFBE
:10178000883A11F482EA0895883B11F485EB0895B4
:10179000803C28F0E82FF0E0EE53FF4F8081089561
:1017A000F8949798E5E6F0E090819E7F908385BB62
:1017B00080818260808384E08A95F1F780818D7FCB
:1017C0008083789485EF8A95F1F70895F894979A35
:1017D000E5E6F0E090819E7F908385BB808182600A
:1017E000808384E08A95F1F780818D7F808378946F
:1017F00085EF8A95F1F70895E82F883A11F4E2EA27
:101800000AC0883B11F4E5EB06C0803C20F0F0E014
:10181000EE53FF4FE081F894979A809165008E7F98
:1018200080936500E5BB80916500826080936500D0
:1018300084E08A95F1F7809165008D7F8093650043
:10184000789485EF8A95F1F708958F9A80916400D6
:101850008160809364008091640082608093640062
:101860008FEF84BB88EE93E020E731E0F9013197F8
:10187000F1F70197D9F7F8949798809165008E7FDA
:101880008093650088E385BB8091650082608093CA
:10189000650084E08A95F1F7809165008D7F8093E3
:1018A0006500789485EF8A95F1F7F8949798809180
:1018B00065008E7F809365008CE085BB809165001C
:1018C00082608093650084E08A95F1F780916500DD
:1018D0008D7F80936500789485EF8A95F1F7F89471
:1018E0009798809165008E7F8093650086E085BB28
:1018F0008091650082608093650084E08A95F1F7AD
:10190000809165008D7F80936500789485EF8A953E
:10191000F1F7F8949798809165008E7F8093650029
:1019200081E085BB8091650082608093650084E0E2
:101930008A95F1F7809165008D7F8093650078949A
:1019400085EF8A95F1F78CEC9CE10197F1F708950A
:10195000F8949798E5E6F0E080818E7F808381E0BF
:1019600085BB80818260808384E08A95F1F78081E5
:101970008D7F8083789485EF8A95F1F78CEC9CE1DC
:101980000197F1F70895CF93DF93EB018295880FCC
:10199000880F807C8058F8949798909165009E7F7E
:1019A0009093650085BB809165008260809365009F
:1019B00084E08A95F1F7809165008D7F80936500C2
:1019C000789485EF8A95F1F76115710521F406C0C9
:1019D00021960E94FC0B88818823D1F7DF91CF915B
:1019E000089580E06CE279E00E94C30C81E064E03D
:1019F00079E00E94C30C0895CF93DF93EC01009728
:101A000021F406C021960E94FC0B88818823D1F71F
:101A1000DF91CF910895809195090895809194095F
:101A200008958CE080939D0010929409089586E0BB
:101A300080939D0081E080939409089586E08093CF
:101A40009D0082E080939409089586E080939D0034
:101A500083E08093940908951F93182F9A01AB0196
:101A600060E070E18EE090E00E94BE442150304082
:101A70001093950910929B0088E180939A008CE066
:101A800080939D00309398002093990080939D004F
:101A9000109294091123A9F08C9A113051F480917D
:101AA0009A008F7E80939A00949A80919A008F7703
:101AB0000BC0123059F480919A00806180939A0093
:101AC000949880919A00806880939A001F9108955D
:101AD00080919509882379F0949A80919A008F7E5D
:101AE00080939A0080E098E40197F1F780919A0042
:101AF0008F7780939A000895809195098823B9F093
:101B000080919B0086FFFCCF8CEC9CE10197F1F764
:101B100080919A00806180939A00949880E098E484
:101B20000197F1F780919A00806880939A00089558
:101B3000982F80919B0085FFFCCF90939C0080E0C4
:101B400090E0089580919B0087FFFCCF80919C00DE
:101B500090E0089520919B0030E020783070C9011A
:101B60000895982F8A3341F48093540981E080933B
:101B7000F0071092EF070EC08091F007882351F014
:101B80008091F007E82FF0E0EC5AF64F90838F5FDA
:101B90008093F007809154098A33B1F4E091F00703
:101BA000F0E0EE5AF64F80818D3071F4E091F0074D
:101BB000F0E0ED5AF64F80818A3031F481E0809375
:101BC000EF071092F00708958091F007803421F418
:101BD0001092F0071092EF070895982F833241F486
:101BE0008093540981E08093F0071092EF070EC0B4
:101BF0008091F007882351F08091F007E82FF0E002
:101C0000EC5AF64F90838F5F8093F00780915409D0
:101C1000833271F4E091F007F0E0ED5AF64F8081E5
:101C20008D3031F481E08093EF071092F007089532
:101C30008091F007803421F41092F0071092EF07A2
:101C40000895982F8E3789F48091F007882369F4DE
:101C50001092EF078091F007E82FF0E0EC5AF64F72
:101C600090838F5F8093F00714C08091F0078823E2
:101C700081F08091F007843060F48091F007E82FC4
:101C8000F0E0EC5AF64F90838F5F8093F00710924C
:101C9000EF07809154098E3751F48091F00784301A
:101CA00031F41092F00781E08093EF07089580915E
:101CB000F007803469F424E539E0C90160E070E0A0
:101CC00040E450E00E94D0411092F0071092EF07DC
:101CD0000895982F8E3371F08A3061F08091F0076B
:101CE000E82FF0E0EC5AF64F90838F5F8093F00777
:101CF0001092EF07E091F007F0E024E539E0ED5AAB
:101D0000F64F80818D30A1F481E08093EF078091C0
:101D1000F007803450F48091F007E82FF0E0E20FF4
:101D2000F31F10828F5F8093F0071092F0070895E1
:101D30008091F007803459F4C90160E070E040E41C
:101D400050E00E94D0411092F0071092EF070895E2
:101D50001F920F920FB60F920BB60F9211242F9372
:101D60003F934F935F936F937F938F939F93AF9323
:101D7000BF93EF93FF9380919C00909194099130D1
:101D800051F0913028F0923049F0933061F409C05D
:101D90000E94B10D08C00E94ED0D05C00E94690EA1
:101DA00002C00E94210EFF91EF91BF91AF919F91D0
:101DB0008F917F916F915F914F913F912F910F90F4
:101DC0000BBE0F900FBE0F901F901895EF92FF92D1
:101DD0000F931F93CF93DF93DC01EB01F42EE52EDD
:101DE000890190919509923079F4949A80919A00A2
:101DF0008F7E80939A00E0E0F8E43197F1F78091CC
:101E00009A008F7780939A00809194098823A9F48F
:101E100020E007C080919B0085FFFCCFE0939C00F1
:101E20002F5FFD01E20FF11DE081EA3099F780910B
:101E30009B0085FFFCCF8AE016C08130B9F420E01A
:101E400007C080919B0085FFFCCFE0939C002F5F33
:101E5000FD01E20FF11DE081ED3099F780919B00CB
:101E600085FFFCCF8DE080939C0013C0833089F404
:101E700020E030E0FD01E20FF31FE08180919B0044
:101E800085FFFCCFE0939C002F5F3F4F243031054E
:101E900089F7209731F4923011F40E947C0D10E004
:101EA00048C00E947C0DC8010E946F12082F25C0F7
:101EB00080919A008F7780939A008091EF07882312
:101EC000B9F01092EF078F2D9E2D9C01F90121345E
:101ED000310510F0E0E4F0E024E539E0CE01B9018D
:101EE000AF010E94C741802F0E94AC1210E00BC0CE
:101EF00080919A00806880939A00802F0E945C12E3
:101F0000892BB1F617E0802F0E94AC1280919509C1
:101F1000813079F4949A80919A008F7E80939A0010
:101F200080E098E40197F1F780919A008F77809391
:101F30009A00812FDF91CF911F910F91FF90EF9029
:101F40000895FB018F708A3010F4805D01C0895CB8
:101F5000808380E00895FB01982F92959F709A30BE
:101F600010F4905D01C0995C90838F708A3010F4FA
:101F7000805D01C0895C818380E00895FF920F93AA
:101F80001F93F82E8B01892F0E94AB0F0E5F1F4FFE
:101F90008F2DB8010E94AB0F80E01F910F91FF9031
:101FA0000895982FFB018154863020F49753908335
:101FB00080E00895892F80538A3010F082E00895E0
:101FC000808380E00895FC01DB019081892F81549A
:101FD000863018F4292F275306C0292F20532A3082
:101FE00010F082E00895322F3295307F3C9391813A
:101FF000892F8154863010F4975306C090539A303D
:1020000018F0922F82E001C080E0390F3C930895D0
:10201000CF92DF92EF92FF920F931F93DF93CF93B4
:102020000F92CDB7DEB77C018B016E010894C11C05
:10203000D11CB6010E94E30F382F882391F48981C7
:10204000F80110828183C7010296B6010E94E30F56
:10205000382F2981F80180819181820F911D918310
:102060008083832F0F90CF91DF911F910F91FF906D
:10207000EF90DF90CF9008956F927F928F929F9212
:10208000AF92BF92CF92DF92FF920F931F93DF9395
:10209000CF930F92CDB7DEB75C016B014A01FF24ED
:1020A00000E010E03E010894611C711C0CC0C501E9
:1020B000800F911FB3010E94E30F882369F40E5F24
:1020C0001F4F8981F80E0C151D0588F38F2D819502
:1020D000B4010E94AB0F80E00F90CF91DF911F9170
:1020E0000F91FF90DF90CF90BF90AF909F908F9017
:1020F0007F906F900895CF92DF92FF920F931F937E
:10210000CF93DF938C016B01DC019C968C919C97A3
:10211000813039F411968C91833019F48BE590E07D
:1021200002C081E190E04817590710F494E066C0BE
:10213000F6018AE38193D8018C91BF010E94AB0F15
:10214000B6016D5F7F4FF80181810E94AB0FE60100
:102150002596D8019C968C919C97813071F41196AC
:102160008C911197833049F412968C91880FBE019F
:102170000E94AB0FE601279607C0F8018281938188
:10218000BE010E94BE0F2496D80114968D919C9199
:102190001597BE010E94BE0F2496F80184A58130D8
:1021A000E1F481818330C9F4FF24F3940CC03296AA
:1021B000EE0FFF1FE00FF11F80819181BE010E9491
:1021C000BE0F2496F394EF2DF0E0D80112968D9176
:1021D0009C911397E817F90750F3B6016095709535
:1021E0006C0F7D1FC6010196AE010E943C10982F16
:1021F000882321F48DE08A838AE08B83892FDF9105
:10220000CF911F910F91FF90DF90CF900895AF92E3
:10221000BF92CF92DF92EF92FF920F931F93DF93C3
:10222000CF9300D00F92CDB7DEB76C018B018DE25A
:10223000FB0111928A95E9F7F60160E070E0808178
:102240008D30B9F481818A30A1F442E0A42EB12C02
:10225000A60EB71E76010894E11CF11C6350704075
:10226000C701AE014E5F5F4F0E943C10882349F0CA
:102270008CC06F5F7F4F31966B35710501F785E03C
:1022800084C0F601EA0DFB1D34979A818081349653
:10229000981709F077C033979B818081981709F0D0
:1022A00071C0C701B8010E94E30F882309F06DC017
:1022B00033E0E32EF12CEC0CFD1CB8016F5F7F4F77
:1022C000C7010E94E30F882309F05FC0F8018181F4
:1022D000833009F044C0F1E1AF16B10409F43FC006
:1022E00081E0F80184A725E0E22EF12CEC0CFD1C26
:1022F000C701BE016F5F7F4F0E94E30FD82E882376
:1023000009F042C089818695843118F084E190E01B
:1023100001C090E0F8019383828382E090E0E80EB0
:10232000F91E198212C06E5F7F4F660F771F600F14
:10233000711FC7010E940810882339F589818F5FBA
:102340008983E4E0F0E0EE0EFF1E8981682F70E0E3
:10235000F801828193816817790728F315C0F80185
:1023600014A6B8016E5F7F4FC70102960E94081045
:10237000882359F40C5F1F4FC7010696B8010E94CD
:10238000081003C083E001C08D2D0F900F900F90B7
:10239000CF91DF911F910F91FF90EF90DF90CF9041
:1023A000BF90AF900895899A0895AF92BF92CF924F
:1023B000DF92EF92FF920F931F93919AA0E0B0E00B
:1023C000BC01CD010E945F435B016C0126E636E64D
:1023D00046E655E40E9415447B018C0120E030E084
:1023E00040E85FE30E94C24288231CF461E070E091
:1023F00024C0C801B70120E03FEF4FE757E40E9437
:1024000011441816B4F4C601B50120E030E040E2F2
:1024100051E40E9415440E94334380E791E005C0D7
:10242000FC013197F1F76150704061157105C1F7FA
:1024300007C0C801B7010E943343CB010197F1F7F0
:1024400091981F910F91FF90EF90DF90CF90BF90E8
:10245000AF9008959C01919A809198099091990963
:102460008217930738F080919809909199098F5FAE
:102470009F4F51F48FEF2F3F380711F42EEF3FEFAE
:102480003093990920939809089580E090E02FEF08
:102490003FEFFC01EE0FFF1FEA56F64F318320831A
:1024A000019680329105A9F787B7826087BF83E7DD
:1024B00081BF8DE083BF08959FB7F894803218F0F4
:1024C000E0E0F0E009C0E82FF0E0EE0FFF1FEA5671
:1024D000F64F0190F081E02D9FBFCF0108959C0140
:1024E0005FB7F894A2E0B0E04A2FFD01EE0FFF1FA6
:1024F000EA56F64F808191818F5F9F4F71F48FEF85
:102500002F3F380711F42EEF3FEFAA0FBB1FAA563B
:10251000B64F11963C932E9305C04F5F1196A03293
:10252000B10511F75FBF842F08952FB7F8943FEFDF
:102530008F3F930711F48EEF9FEF9093970980934D
:1025400096092FBF2FB7F89480919609909197091B
:102550002FBF892BB9F70895E82F2FB7F894825031
:102560008E3148F4F0E0EE0FFF1FEA56F64F8FEF82
:102570009FEF918380832FBF08951F920F920FB614
:102580000F920BB60F9211242F933F934F935F93AB
:102590006F937F938F939F93AF93BF93EF93FF932B
:1025A00020E030E0F901EE0FFF1FEA56F64F808180
:1025B0009181892B51F0808191818F5F9F4F29F00C
:1025C000808191810197918380832F5F3F4F2032DB
:1025D000310541F78091980990919909019709F483
:1025E00091980E94F6048091C2019091C3010197D5
:1025F0009093C3018093C2010196C9F48091F107C1
:102600009091F207A091F307B091F4070196A11DF4
:10261000B11D8093F1079093F207A093F307B09355
:10262000F4078AEE93E09093C3018093C2018091F6
:10263000F5079091F607A091F707B091F80701967A
:10264000A11DB11D8093F5079093F607A093F7079E
:10265000B093F807FF91EF91BF91AF919F918F9148
:102660007F916F915F914F913F912F910F900BBE92
:102670000F900FBE0F901F9018951092E6098FEFE4
:102680008093F9098093F709E6EDF9E01192119230
:1026900089E0E63EF807D1F78FEF84BB889808956C
:1026A0001092E60908952091F909E82FF0E030E052
:1026B000082E02C0359527950A94E2F720FF24C022
:1026C0008091F70990E00E2E02C0959587950A94A7
:1026D000E2F780FD19C02091E60981E090E00E2E1E
:1026E00002C0880F991F0A94E2F7282B2093E6096D
:1026F000EE0FFF1FDF01AA52B64F1D921C92E95147
:10270000F64F1182108208958091F90990E00E2E03
:1027100002C0959587950A94E2F780FD10C08091DC
:10272000F70990E00E2E02C0959587950A94E2F77E
:1027300080FF05C082E390E00E942A1208958091F4
:10274000F90990E00E2E02C0959587950A94E2F75C
:1027500080FD36C08091F70990E00E2E02C095955D
:1027600087950A94E2F780FD2BC04091C4015091F7
:10277000C5012091C6013091C701240F351FDF012B
:10278000AA0FBB1FAA52B64F8D919C91119701962B
:1027900011969C938E932817390790F42091E6099F
:1027A00081E090E002C0880F991FEA95E2F7282B9C
:1027B0002093E6094D935C9384E190E00E942A12F5
:1027C0000895FF920F931F93CF93DF938091F909A0
:1027D0008093F709C0E0D0E001E010E028E1F22E9C
:1027E0004C2F98010C2E02C0220F331F0A94E2F7DF
:1027F000822F809585BB8F2D8A95F1F790E080E040
:1028000080999F5F8F5F8A30D9F7983020F0809150
:10281000F909822B07C0933038F49091F909822F7F
:10282000809589238093F909842F0E945313219660
:10283000C830D105A9F6DF91CF911F910F91FF907C
:1028400008958091F80981508093F8098F5F29F4E9
:102850008AE08093F8090E94E1130895C39AC29810
:1028600020E097FF02C0C49A01C0C498C398C39ADD
:102870002F5F203119F0880F991FF3CFC29A089566
:10288000BA9ABB9ABC9A80E090E10E942E1480E034
:1028900090EC0E942E1480E090EE0E942E1488E6A8
:1028A00090E20E942E140895EF92FF920F931F93CF
:1028B0007B018C0188E690E20E942E148FEF9FEF3F
:1028C000AFEFBFE0E822F9220A231B23C7019F7361
:1028D00090640E942E144EE016950795F794E794A5
:1028E0004A95D1F7AFEFBFE3EA22FB22C70190641C
:1028F0000E942E141F910F91FF90EF900895AF92B8
:10290000BF92CF92DF92EF92FF920F931F9368399D
:102910002AE3720720E0820720E0920728F468E9A2
:102920007AE380E090E00CC061342CE9720720E08B
:10293000820720E0920720F060E47CE980E090E0EC
:102940006093FE097093FF098093000A9093010A37
:1029500028EC30E040E050E00E9478445B016C01DC
:102960009B01A60160E070E080E090E00CE10E9435
:10297000F039AA24BB24E1EECE2EDD24EE24FF2480
:1029800000E010E00E946F3A122F032FF42EE52E84
:10299000622F702F8F2D9E2D0E9454141093FA09D0
:1029A0000093FB09F092FC09E092FD091F910F9141
:1029B000FF90EF90DF90CF90BF90AF9008951F925F
:1029C0000F920FB60F920BB60F921124DF92EF9277
:1029D000FF920F931F932F933F934F935F936F93A8
:1029E0007F938F939F93AF93BF93CF93DF93EF9397
:1029F000FF9354B145B1D090360AED2DF0E0E1538C
:102A0000FE4F208130E0942F80E0850F911DE90179
:102A100044E0CC0FDD1F4A95E1F7C20FD31FCE5F14
:102A2000D54F9F838E832E853F85821B930B08880D
:102A300002C0959587950A94E2F77C010027F7FC80
:102A40000095102F88859985AA85BB85E80EF91E0B
:102A50000A1F1B1FE886F9860A871B878A819B81CC
:102A600001969B838A832C813D818217930770F0A6
:102A70001B821A8240E050E0C801B7010E94E04486
:102A80003D872C87188619861A861B86ED2DEF5FE9
:102A9000E093360AF0E0E153FE4F80818F3F11F45E
:102AA0001092360AE091360AF0E0E153FE4F808141
:102AB0009091350A890F87B9369AFF91EF91DF918E
:102AC000CF91BF91AF919F918F917F916F915F91C6
:102AD0004F913F912F911F910F91FF90EF90DF90B9
:102AE0000F900BBE0F900FBE0F901F901895282FC0
:102AF0008093F907E2E0FAE035E080E092E01082AE
:102B00003183138212829583848317821682108602
:102B10001186128613861586148617861686108AE5
:102B200071964AE0E533F40751F78FEF91E0909307
:102B3000110A8093100A9093220A8093210A87E059
:102B400086B9379A80E48093350A213049F410928F
:102B5000360A8091CF01805C87B9339A369A0895FE
:102B60001092360A8091CF01805C87B9339808951E
:102B7000982F833008F090E08091350A890F87B94B
:102B8000369A3699FECF54B145B1892F90E0342F53
:102B900020E0250F311DFC0154E0EE0FFF1F5A9578
:102BA000E1F7E80FF91FEE5FF54F3783268386853F
:102BB0009785281B390B008802C0359527950A9404
:102BC000E2F7C901089590E0FC0164E0EE0FFF1FF9
:102BD0006A95E1F7E80FF91FEE5FF54F848595855B
:102BE000089590E0FC0174E0EE0FFF1F7A95E1F785
:102BF000E80FF91FEE5FF54F2681378186859785AF
:102C0000281B390B008802C0359527950A94E2F7F6
:102C1000C901089590E0FC01A4E0EE0FFF1FAA9502
:102C2000E1F7E80FF91FEE5FF54F84819581089574
:102C3000833008F080E06115710511F461E070E007
:102C400090E0FC01B4E0EE0FFF1FBA95E1F7E80F4A
:102C5000F91FEE5FF54F75836483089590E0FC01E2
:102C600024E0EE0FFF1F2A95E1F7E80FF91FEE5F52
:102C7000F54F81810895833008F080E090E0FC01F9
:102C800034E0EE0FFF1F3A95E1F7E80FF91FEE5F12
:102C9000F54F618308959091F907282F30E0913026
:102CA00091F4F90154E0EE0FFF1F5A95E1F7E20F9E
:102CB000F31FEE5FF54F848195816AE070E00E941A
:102CC0009744AB0115C0F90144E0EE0FFF1F4A9590
:102CD000E1F7E20FF31FEE5FF54F818190E0248171
:102CE0003581829FA001839F500D929F500D11242A
:102CF000CA0108952091CC0130E0829FB001839FEA
:102D0000700D929F700D1124882777FD8095982F64
:102D10000E94614320E030E04AE754E40E94C6424A
:102D200008952091CD0130E0829FB001839F700D06
:102D3000929F700D1124882777FD8095982F0E940F
:102D4000614320E030E04AE754E40E94C64208951F
:102D50002091CE0130E0829FB001839F700D929F41
:102D6000700D1124882777FD8095982F0E9461436C
:102D700020E030E04AE754E40E94C64208958F9272
:102D80009F92AF92BF92CF92DF92EF92FF920F93FA
:102D90001F93CF93DF93E091360AF0E0E153FE4FAB
:102DA000D0808091F907813009F470C08D2C99246E
:102DB000F401A4E0EE0FFF1FAA95E1F7E80DF91D5D
:102DC000EE5FF54F8081882329F00E945C12892BE9
:102DD00009F04FC0E40174E0CC0FDD1F7A95E1F7F4
:102DE000C80DD91DCE5FD54FE884F9840A851B85AF
:102DF0008D2D0E94B8155C01CC24B7FCC094DC2C4E
:102E0000AE0CBF1CC01ED11EA886B986CA86DB8642
:102E10008A819B8101969B838A834C815D819A0183
:102E2000215030402817390778F41B821A829A0102
:102E300040E050E0C601B5010E94E0443D872C8788
:102E4000188619861A861B86840164E0000F111FFC
:102E50006A95E1F7080D191D0E5F154FF801808185
:102E60000E94AC12F801818190E00E946F12F8017B
:102E70008083E091360AEF5FE093360AF0E0E15399
:102E8000FE4F80818F3F11F41092360ADF91CF916F
:102E90001F910F91FF90EF90DF90CF90BF90AF9078
:102EA0009F908F90089520E030E04CE350E0F901CE
:102EB000E155F54F1082249FF001259FF00D349FBE
:102EC000F00D1124E95CF54F80E090E01192119231
:102ED00001968E319105D1F72F5F3F4F223031059A
:102EE00031F708958091FA078F5F8093FA07823057
:102EF00011F41092FA0708958091FA07882319F4C3
:102F000082E08093FA078091FA0781508093FA0754
:102F100008958091FA07282F30E0F901E155F54F27
:102F200080818F5F80838E3109F41082D901A15591
:102F3000B54F8C91F90145E0EE0FFF1F4A95E1F77F
:102F4000220F331FE21BF30BE80FF11DEE0FFF1FE3
:102F5000E95CF54F80819181892B09F41C920895D9
:102F60008091FA07A82FB0E0FD01E155F54F80816F
:102F7000882311F48EE18083FD01E155F54F4081F6
:102F8000CD01880F991F9D0165E0220F331F6A95BF
:102F9000E1F7281B390B4150F901E40FF11DEE0F49
:102FA000FF1FE95CF54F80819181892B31F4442327
:102FB00091F7A155B54F1C920895A155B54F4C936B
:102FC00008958091FA0708958091FA07EFEAFAE0F0
:102FD000E80FF11D808108958091FA0790E0FC01CF
:102FE000E155F54F2081FC0135E0EE0FFF1F3A95CA
:102FF000E1F7880F991FE81BF90BE20FF11DEE0FA7
:10300000FF1FE95CF54F0190F081E02D09950895CF
:103010009C01E199FECF3FBB2EBBE09A8DB3089592
:103020009C01E199FECF3FBB2EBB6DBB0FB6F89460
:10303000E29AE19A0FBE08958AE898E29093380ADE
:103040008093370A81E59EE290933A0A8093390A89
:103050008BEB9EE290933C0A80933B0A8FE090E3D7
:1030600090933E0A80933D0A83EE9FE29093400A3C
:1030700080933F0A87EE9EE19093420A8093410A33
:103080008DEA9BE29093440A8093430A89E89BE28D
:103090009093460A8093450A85E69BE29093480AFE
:1030A0008093470A84EC9EE190934A0A8093490AF0
:1030B00081EA9EE190934C0A80934B0A8BE08093C7
:1030C000BB0A8AEE99E290934E0A80934D0A84E2FD
:1030D00094E29093740A8093730A8BE395E2909341
:1030E000760A8093750A85E591E29093780A809339
:1030F000770A84EF90E290937A0A8093790A82EEBD
:103100009DE290937C0A80937B0A8CE79DE29093EA
:103110007E0A80937D0A89E59CE29093800A8093E1
:103120007F0A81E09CE29093820A8093810A85E184
:103130009DE29093840A8093830A89EB9CE29093AA
:10314000860A8093850A88E690E29093880A8093A5
:10315000870A8FEC93E290938A0A8093890A85E12B
:1031600093E290938C0A80938B0A86E693E2909385
:103170008E0A80938D0A8AE792E29093900A809358
:103180008F0A84E392E29093920A8093910A84E6F4
:103190009FE19093940A8093930A80E19FE190933A
:1031A000960A8093950A80EC92E29093980A809315
:1031B000970A88E290E290939A0A8093990A87EBA3
:1031C0009FE190939C0A80939B0A84ED90E29093F8
:1031D0009E0A80939D0A82EB90E29093A00A8093CE
:1031E0009F0A82E498E29093A20A8093A10A84EB5A
:1031F00097E29093A40A8093A30A86E297E29093C1
:10320000A60A8093A50A0895EF92FF920F931F9349
:103210008091C00A9091C10AA091C20AB091C30ADC
:103220008F5F9F4FA040B040A1F480E49CE9A0E0F4
:10323000B0E08093C00A9093C10AA093C20AB093F1
:10324000C30A8AE490E060E47CE940E158E10E942E
:10325000FF412091B50A3091B60A4091B70A5091CA
:10326000B80A2F3F8FEF380780E0480780E0580703
:1032700069F08091C00A9091C10AA091C20AB091F0
:10328000C30A82179307A407B507A0F488E99AE355
:10329000A0E0B0E08093B50A9093B60AA093B70A75
:1032A000B093B80A8CE490E068E97AE340E158E131
:1032B0000E94FF4188E993E5A0E0B0E08093B10A65
:1032C0009093B20AA093B30AB093B40A8091C00A53
:1032D0009091C10AA091C20AB091C30A883923E52E
:1032E000920720E0A20720E0B20740F48093B10AE1
:1032F0009093B20AA093B30AB093B40AE090B50ACF
:10330000F090B60A0091B70A1091B80A8091B10AFC
:103310009091B20AA091B30AB091B40A8E159F059C
:10332000A007B10740F4E092B10AF092B20A00930C
:10333000B30A1093B40A82E093E5A0E0B0E0809372
:10334000BC0A9093BD0AA093BE0AB093BF0A83E063
:10335000E81683E5F80680E0080780E0180740F0EB
:10336000E092BC0AF092BD0A0093BE0A1093BF0A15
:103370002091B10A3091B20A4091B30A5091B40A37
:103380008091BC0A9091BD0AA091BE0AB091BF0A7B
:10339000281739074A075B0740F4E092BC0AF0920D
:1033A000BD0A0093BE0A1093BF0A8091BC0A909197
:1033B000BD0AA091BE0AB091BF0A280F391F4A1F4B
:1033C0005B1F5695479537952795CA01B9010E940D
:1033D0007F1482E38093C60A1092C40A88EC90E0BE
:1033E0009093BA0A8093B90A21E02093960810922C
:1033F00098081092C8072093930885E08093970857
:103400008FEF8093C70A8AE08093C80A80E092EC2D
:10341000A1E0B0E08093CD089093CE08A093CF08B0
:10342000B093D008209337088BE490E09093CA0AB9
:103430008093C90A80E590E09093CC0A8093CB0AF0
:1034400080E061E00E943B1680E068EC70E00E9442
:10345000181681E061E00E943B1681E068EC70E0A4
:103460000E94181682E061E00E943B1682E068EC40
:1034700070E00E94181683E00E9419018FE5809386
:10348000CE0A1092CF0A83E68093BE0685E480932D
:1034900032088091A5069091A6068F5F9F4F71F428
:1034A00088EE93E09093A6068093A5068CE290E0C8
:1034B00068EE73E040E158E10E94FF418091A70669
:1034C0008F3F81F484E68093A706E199FECF8FE3D6
:1034D00090E09FBB8EBB84E68DBB0FB6F894E29A5A
:1034E000E19A0FBE8091100A9091110A8F5F9F4F51
:1034F00071F48FEF91E09093110A8093100A80E4A9
:1035000090E06FEF71E040E158E10E94FF4180914F
:10351000210A9091220A8F5F9F4F71F48FEF91E003
:103520009093220A8093210A82E490E06FEF71E089
:1035300040E158E10E94FF418091320A9091330AA4
:103540008F5F9F4F71F48FEF91E09093330A8093D8
:10355000320A84E490E06FEF71E040E158E10E94AC
:10356000FF418091CD018F3F81F487E38093CD01AE
:10357000E199FECF88E490E09FBB8EBB87E38DBBD3
:103580000FB6F894E29AE19A0FBE8091CE018F3F78
:10359000A1F487E38093CE01E199FECF89E490E026
:1035A0009FBB8EBB87E38DBB0FB6F894E29AE19A7E
:1035B0000FBE03C041504093C70A8091C70A0E94C2
:1035C00022327B018C016091A70670E0882777FD8D
:1035D0008095982F0E94614320E030E040E251E462
:1035E0000E94C6429B01AC01C801B7010E94114470
:1035F0004091C70A1816F4F28091C80A481710F4CF
:103600004093C80A8091C60A481710F44093C60A2E
:103610005091C60A2091C40A30E0842F90E0851BA7
:103620009109821793071CF4451B4093C40A1F910C
:103630000F91FF90EF9008956091B10A7091B20AD6
:1036400080E090E040E158E10E94FF416091BC0AB7
:103650007091BD0A82E090E040E158E10E94FF4194
:103660006091FE097091FF0984E090E040E158E12B
:103670000E94FF412091C60AE199FECF88E090E0C8
:103680009FBB8EBB2DBB0FB6F894E29AE19A0FBE9A
:103690002091C40AE199FECF86E090E09FBB8EBBEB
:1036A0002DBB0FB6F894E29AE19A0FBE80E00E941B
:1036B0002E16282FE199FECF89E090E09FBB8EBBAC
:1036C0002DBB0FB6F894E29AE19A0FBE80E00E94FB
:1036D0000A16BC018AE090E040E158E10E94FF41F7
:1036E00081E00E942E16282FE199FECF8CE090E019
:1036F0009FBB8EBB2DBB0FB6F894E29AE19A0FBE2A
:1037000081E00E940A16BC018DE090E040E158E1A2
:103710000E94FF4182E00E942E16282FE199FECFE1
:103720008FE090E09FBB8EBB2DBB0FB6F894E29A62
:10373000E19A0FBE82E00E940A16BC0180E190E08F
:1037400040E158E10E94FF4120913608E199FECF07
:1037500085E190E09FBB8EBB2DBB0FB6F894E29A3B
:10376000E19A0FBE6091B90A7091BA0A86E190E0C1
:1037700040E158E10E94FF4120919608E199FECF77
:1037800088E190E09FBB8EBB2DBB0FB6F894E29A08
:10379000E19A0FBE20919308E199FECF89E190E074
:1037A0009FBB8EBB2DBB0FB6F894E29AE19A0FBE79
:1037B00020919708E199FECF8AE190E09FBB8EBBF4
:1037C0002DBB0FB6F894E29AE19A0FBE2091C70A7A
:1037D000E199FECF8BE190E09FBB8EBB2DBB0FB676
:1037E000F894E29AE19A0FBE2091C80AE199FECFBF
:1037F0008CE190E09FBB8EBB2DBB0FB6F894E29A94
:10380000E19A0FBE6091CD087091CE088DE190E0F5
:1038100040E158E10E94FF412091CD083091CE084F
:103820004091CF085091D0089A01442755278FE145
:1038300090E0B90140E158E10E94FF412091370832
:10384000E199FECF81E290E09FBB8EBB2DBB0FB60E
:10385000F894E29AE19A0FBE6091C90A7091CA0A7F
:1038600082E290E040E158E10E94FF416091CB0A82
:103870007091CC0A84E290E040E158E10E94FF415F
:103880002091CE0AE199FECF87E290E09FBB8EBBEC
:103890002DBB0FB6F894E29AE19A0FBE2091CF0AA1
:1038A000E199FECF86E290E09FBB8EBB2DBB0FB6A9
:1038B000F894E29AE19A0FBE2091BE06E199FECFFC
:1038C00088E290E09FBB8EBB2DBB0FB6F894E29AC6
:1038D000E19A0FBE20913208E199FECF89E290E093
:1038E0009FBB8EBB2DBB0FB6F894E29AE19A0FBE38
:1038F00020919808E199FECF8AE290E09FBB8EBBB1
:103900002DBB0FB6F894E29AE19A0FBE2091C8073A
:10391000E199FECF8BE290E09FBB8EBB2DBB0FB633
:10392000F894E29AE19A0FBE0895EF92FF920F93F6
:103930001F9380E090E068E078E10E94E941A0E018
:10394000B0E08093B10A9093B20AA093B30AB09307
:10395000B40A82E090E068E078E10E94E941A0E0EA
:10396000B0E08093BC0A9093BD0AA093BE0AB093C6
:10397000BF0A84E090E068E078E10E94E941A0E0BD
:10398000B0E0BC01CD010E947F14E199FECF88E038
:1039900090E09FBB8EBBE09A8DB38093C60AE199FD
:1039A000FECF86E090E09FBB8EBBE09A8DB3809304
:1039B000C40AE199FECF89E090E09FBB8EBBE09AFC
:1039C0006DB380E00E943B168AE090E068E078E109
:1039D0000E94E941BC0180E00E941816E199FECFE7
:1039E0008CE090E09FBB8EBBE09A6DB381E00E94BB
:1039F0003B168DE090E068E078E10E94E941BC016F
:103A000081E00E941816E199FECF8FE090E09FBB05
:103A10008EBBE09A6DB382E00E943B1680E190E09D
:103A200068E078E10E94E941BC0182E00E9418163A
:103A3000E199FECF85E190E09FBB8EBBE09A8DB30C
:103A40000E94190186E190E068E078E10E94E94176
:103A50009093BA0A8093B90AE199FECF88E190E089
:103A60009FBB8EBBE09A8DB380939608E199FECF01
:103A700089E190E09FBB8EBBE09A8DB38093930861
:103A8000E199FECF8AE190E09FBB8EBBE09A8DB3B7
:103A900080939708E199FECF8BE190E09FBB8EBBAE
:103AA000E09A8DB38093C70AE199FECF8CE190E054
:103AB0009FBB8EBBE09A8DB38093C80A8DE190E0E6
:103AC00068E078E10E94E9417C0100E010E0E092CA
:103AD000CD08F092CE080093CF081093D0088FE164
:103AE00090E068E078E10E94E941A0E0B0E0DC010C
:103AF000992788278E299F29A02BB12B8093CD0849
:103B00009093CE08A093CF08B093D008E199FECF50
:103B100081E290E09FBB8EBBE09A8DB38093370823
:103B200082E290E068E078E10E94E9419093CA0A5D
:103B30008093C90A84E290E068E078E10E94E9415C
:103B40009093CC0A8093CB0AE199FECF87E290E074
:103B50009FBB8EBBE09A8DB38093CE0AE199FECFD6
:103B600086E290E09FBB8EBBE09A8DB38093CF0A34
:103B7000E199FECF88E290E09FBB8EBBE09A8DB3C7
:103B80008093BE06E199FECF89E290E09FBB8EBB99
:103B9000E09A8DB380933208E199FECF8AE290E0FB
:103BA0009FBB8EBBE09A8DB380939808E199FECFBE
:103BB0008BE290E09FBB8EBBE09A8DB30E94F90030
:103BC0008CE290E068E078E10E94E9419093A606DB
:103BD0008093A5062FE230E0E199FECF3FBB2EBBDC
:103BE000E09A8DB3F901E556F84F80832F5F3F4F80
:103BF0002F33310589F71092D907E199FECF8FE372
:103C000090E09FBB8EBBE09A8DB38093A70680E4C3
:103C100090E068E078E10E94E9419093110A809376
:103C2000100A82E490E068E078E10E94E941909314
:103C3000220A8093210A84E490E068E078E10E94FF
:103C4000E9419093330A8093320AE199FECF88E4E8
:103C500090E09FBB8EBBE09A8DB38093CD01E1993C
:103C6000FECF89E490E09FBB8EBBE09A8DB380933A
:103C7000CE018AE490E068E078E10E94E941A0E0AA
:103C8000B0E08093C00A9093C10AA093C20AB09397
:103C9000C30A8CE490E068E078E10E94E941A0E08A
:103CA000B0E08093B50A9093B60AA093B70AB09398
:103CB000B80A1F910F91FF90EF9008958091E60947
:103CC00086FF07C00E94B0178091E6098F7B809322
:103CD000E6098091E60983FF07C00E948917809159
:103CE000E609877F8093E6098091E60987FF07C090
:103CF0000E9472178091E6098F778093E609809180
:103D0000E60980FF07C00E946D048091E6098E7F5E
:103D10008093E6098091E60981FF12C00E949633E4
:103D2000882311F080E005C01092DA071092DB07BB
:103D300085E00E94E2038091E6098D7F8093E60989
:103D4000089500D000D000D0EDB7FEB7319684E0E2
:103D500099E0ADB7BEB712969C938E93119783ED01
:103D600091E0938382838AEC97E0958384830E9419
:103D700040428DB79EB706960FB6F8949EBF0FBE11
:103D80008DBF0E945E1E089500D000D000D0EDB718
:103D9000FEB7319684E099E0ADB7BEB712969C931A
:103DA0008E9311978DED91E0938382838EEE91E057
:103DB000958384830E9440428DB79EB706960FB6C6
:103DC000F8949EBF0FBE8DBF0E945E1E089500D066
:103DD00000D000D0EDB7FEB7319684E099E0ADB7E2
:103DE000BEB712969C938E93119787EF91E09383C1
:103DF00082838091C9072FE0829FC0011124875AD6
:103E0000994F958384830E9440428DB79EB7069652
:103E10000FB6F8949EBF0FBE8DBF0E945E1E089520
:103E20008091E60982FF16C02091CB0A3091CC0A1E
:103E30008091C90A9091CA0A8217930730F42150E1
:103E400030403093CC0A2093CB0A8091E6098B7FD7
:103E50008093E6098091E60984FF11C08091CB0A26
:103E60009091CC0A8F35910528F401969093CC0A55
:103E70008093CB0A8091E6098F7E8093E60900D07B
:103E800000D000D0EDB7FEB7319684E099E0ADB731
:103E9000BEB712969C938E93119782E092E0938323
:103EA00082838091CB0A9091CC0A958384830E946F
:103EB00040428DB79EB706960FB6F8949EBF0FBED0
:103EC0008DBF0E945E1E08958091E60982FF10C09A
:103ED0008091C90A9091CA0A009729F0019790939E
:103EE000CA0A8093C90A8091E6098B7F8093E6090C
:103EF0008091E60984FF16C02091C90A3091CA0A50
:103F00008091CB0A9091CC0A2817390730F42F5FA3
:103F10003F4F3093CA0A2093C90A8091E6098F7EE9
:103F20008093E60900D000D000D0EDB7FEB73196FF
:103F300084E099E0ADB7BEB712969C938E9311972B
:103F400089E192E0938382838091C90A9091CA0AA1
:103F5000958384830E9440428DB79EB706960FB624
:103F6000F8949EBF0FBE8DBF0E945E1E08951F93E2
:103F70002091CD083091CE084091CF085091D008C3
:103F8000EDE3F6E010E080819181A281B3812817F2
:103F900039074A075B0721F01F5F3496173099F7FE
:103FA0008DB79EB708970FB6F8949EBF0FBE8DBF12
:103FB000EDB7FEB7319684E099E0ADB7BEB7129683
:103FC0009C938E93119781E392E093838283248361
:103FD0003583468357830E9440428091E6092DB77E
:103FE0003EB7285F3F4F0FB6F8943EBF0FBE2DBFC0
:103FF00084FF09C01F5F173009F410E08091E609C3
:104000008F7E8093E6098091E60982FF09C0112323
:1040100009F417E011508091E6098B7F8093E6093F
:10402000E12FF0E0EE0FFF1FEE0FFF1FE35CF94FF3
:1040300080819181A281B3818093CD089093CE0835
:10404000A093CF08B093D0080E945E1E1F910895E0
:1040500000D000D000D0EDB7FEB7319684E099E0F3
:10406000ADB7BEB712969C938E93119782E492E0FF
:104070009383828380913708848315820E94404213
:104080008091E6092DB73EB72A5F3F4F0FB6F894EF
:104090003EBF0FBE2DBF84FF0AC0809137088F5FDF
:1040A000809337088091E6098F7E8093E60980919E
:1040B000E60982FF0AC08091370881508093370853
:1040C0008091E6098B7F8093E6090E945E1E089529
:1040D00000D000D000D0EDB7FEB7319684E099E073
:1040E000ADB7BEB712969C938E93119787E592E079
:1040F000938382838091B90A9091BA0A95838483CD
:104100000E9440428091E6092DB73EB72A5F3F4F9B
:104110000FB6F8943EBF0FBE2DBF84FF0EC0809136
:10412000B90A9091BA0A01969093BA0A8093B90A93
:104130008091E6098F7E8093E6098091E60982FFEF
:104140000EC08091B90A9091BA0A01979093BA0A69
:104150008093B90A8091E6098B7F8093E6090E94DB
:104160005E1E08958091E60985FF15C00E9404191E
:104170000E941C1B84E099E06DE672E00E94D7412A
:104180000E94F10C84EF91E00E94D5118091E60924
:104190008F7D8093E60984E099E062E872E00E94F6
:1041A000D7410E945E1E08958091E60985FF13C0E5
:1041B0000E941C1B84E099E067E972E00E94D741ED
:1041C0000E94F10C84EF91E00E94D5118091E609E4
:1041D0008F7D8093E60984E099E06CEA72E00E94AA
:1041E000D7410E945E1E08958091E60982FF0CC0AF
:1041F0008091C80A8B3018F081508093C80A809152
:10420000E6098B7F8093E6098091E60984FF1FC051
:104210009091C80A8091C60A981738F48091C70A0D
:10422000981718F49F5F9093C80A0E9496338823CA
:1042300049F09091C80A8091C50A891718F4892F0E
:104240000E9407328091E6098F7E8093E609809173
:10425000C80A0E9422322DB73EB7285030400FB610
:10426000F8943EBF0FBE2DBFEDB7FEB7319624E0E8
:1042700039E0ADB7BEB712963C932E93119721EC5F
:1042800032E03383228364837583868397830E941D
:1042900040422DB73EB7285F3F4F0FB6F8943EBF60
:1042A0000FBE2DBF0E945E1E0895EF92FF920F93E6
:1042B0001F938091E60982FF27C04091C70A809131
:1042C000C40A2091C60A30E0280F311D842F90E0E7
:1042D000281739073CF48091C80A841718F4415014
:1042E0004093C70A0E949633882349F09091C70AE9
:1042F0008091C50A981718F4892F0E94073280917F
:10430000E6098B7F8093E6098091E60984FF2AC045
:104310008091C70A8F5F0E9422327B018C016091DD
:10432000A70670E0882777FD8095982F0E9461434B
:1043300020E030E040E251E40E94C6429B01AC0123
:10434000C801B7010E94C24288233CF48091C70A89
:104350008F3F19F08F5F8093C70A8091E6098F7EA7
:104360008093E6098091C70A0E9422322DB73EB79A
:10437000285030400FB6F8943EBF0FBE2DBFEDB7AA
:10438000FEB7319624E039E0ADB7BEB712963C9344
:104390002E93119728ED32E0338322836483758353
:1043A000868397830E9440422DB73EB7285F3F4FD8
:1043B0000FB6F8943EBF0FBE2DBF0E945E1E1F9128
:1043C0000F91FF90EF9008958091E60982FF11C050
:1043D0008091A5069091A606893C910528F0019749
:1043E0009093A6068093A5068091E6098B7F809323
:1043F000E6098091E60984FF12C08091A50690919C
:10440000A60627E0803D920728F401969093A60621
:104410008093A5068091E6098F7E8093E60900D0FF
:1044200000D000D0EDB7FEB7319684E099E0ADB78B
:10443000BEB712969C938E93119780EF92E0938370
:1044400082838091A5069091A606958384830E941D
:1044500040428DB79EB706960FB6F8949EBF0FBE2A
:104460008DBF0E945E1E08958091E60982FF0CC0F8
:104470008091970818161CF48150809397088091BA
:10448000E6098B7F8093E6098091E60984FF0CC0E2
:10449000809197088A301CF48F5F809397088091F1
:1044A000E6098F7E8093E60900D000D000D0EDB7FA
:1044B000FEB7319684E099E0ADB7BEB712969C93F3
:1044C0008E93119784E093E0938382838091970881
:1044D000992787FD9095958384830E9440428DB7EC
:1044E0009EB706960FB6F8949EBF0FBE8DBF0E9472
:1044F0005E1E08958091E60982FF0CC080919308AA
:1045000018161CF48150809393088091E6098B7FE4
:104510008093E6098091E60984FF0CC0809193089E
:104520008A301CF48F5F809393088091E6098F7E18
:104530008093E60900D000D000D0EDB7FEB73196E9
:1045400084E099E0ADB7BEB712969C938E93119715
:1045500087E193E09383828380919308992787FD75
:104560009095958384830E9440428DB79EB70696AE
:104570000FB6F8949EBF0FBE8DBF0E945E1E0895B9
:104580008091E60982FF11C08091C807882319F441
:1045900082E08093C8078091C80781508093C80744
:1045A0008091E6098B7F8093E6098091E60984FF7C
:1045B0000EC08091C8078F5F8093C807823010F0CB
:1045C0001092C8078091E6098F7E8093E60980915A
:1045D000C807813019F029E233E002C02DE233E050
:1045E00000D000D000D0EDB7FEB7319684E099E05E
:1045F000ADB7BEB712969C938E93119780E393E06C
:1046000093838283358324830E9440428DB79EB773
:1046100006960FB6F8949EBF0FBE8DBF8091C80757
:104620000E94F9000E945E1E08958091E60982FFB3
:1046300011C080919808882319F482E0809398082B
:10464000809198088150809398088091E6098B7F2B
:104650008093E6098091E60984FF0EC08091980856
:104660008F5F80939808823010F0109298088091A4
:10467000E6098F7E8093E60980919808813019F0D1
:1046800029E233E002C02DE233E000D000D000D0B8
:10469000EDB7FEB7319684E099E0ADB7BEB712969C
:1046A0009C938E93119780E493E093838283358368
:1046B00024830E9440428DB79EB706960FB6F894A9
:1046C0009EBF0FBE8DBF0E945E1E08958091E609B9
:1046D00082FF1CC080919608813019F484E0809399
:1046E000960880919608815080939608813019F43D
:1046F0000E94F50006C00E949633882311F00E94A4
:1047000035018091E6098B7F8093E6098091E60967
:1047100084FF1CC0809196088F5F80939608843038
:1047200018F081E08093960880919608813019F402
:104730000E94F50006C00E949633882311F00E9463
:1047400035018091E6098F7E8093E60900D000D084
:1047500000D0EDB7FEB7319684E099E0ADB7BEB7B3
:1047600012969C938E93119785E593E093838283B1
:104770008091960826E0829FC00111248B5D994F9D
:10478000958384830E9440428DB79EB706960FB6EC
:10479000F8949EBF0FBE8DBF0E945E1E089580914B
:1047A000E60982FF11C080913608813019F484E057
:1047B0008093360880913608815080933608809126
:1047C000E6098B7F8093E6098091E60984FF0FC09C
:1047D000809136088F5F80933608843018F081E02E
:1047E000809336088091E6098F7E8093E60900D099
:1047F00000D000D0EDB7FEB7319684E099E0ADB7B8
:10480000BEB712969C938E93119785E693E093839F
:1048100082838091360825E0829FC00111248F5E3B
:10482000994F958384830E9440428DB79EB7069628
:104830000FB6F8949EBF0FBE8DBF809136080E94C0
:1048400019010E945E1E08958091E60982FD04C050
:104850008091E60984FF3AC08091F5079091F607B0
:10486000A091F707B091F8072091FE073091FF075C
:104870004091000850910108821B930BA40BB50BCB
:10488000845F9140A040B04068F48091FC07909113
:10489000FD078B34910554F401969093FD078093A6
:1048A000FC0704C01092FD071092FC078091F507E9
:1048B0009091F607A091F707B091F8078093FE0753
:1048C0009093FF07A0930008B09301088091E60938
:1048D00082FF5BC08091FC079091FD072091B10A97
:1048E0003091B20A4091B30A5091B40A8B349105C9
:1048F0002CF0245130404040504004C02150304002
:10490000404050402093B10A3093B20A4093B30A1A
:104910005093B40A2091BC0A3091BD0A4091BE0A5E
:104920005091BF0A8091B10A9091B20AA091B30A46
:10493000B091B40A82179307A407B50740F42093F7
:10494000B10A3093B20A4093B30A5093B40A20914B
:10495000B10A3091B20A4091B30A5091B40A8091E1
:10496000FE099091FF09A091000AB091010A281751
:1049700039074A075B0720F4CA01B9010E947F1476
:104980008091E6098B7F8093E6098091E60984FF98
:1049900042C08091FC079091FD072091B10A3091AF
:1049A000B20A4091B30A5091B40A8B3491052CF0AD
:1049B0002C5E3F4F4F4F5F4F04C02F5F3F4F4F4F15
:1049C0005F4F2093B10A3093B20A4093B30A5093D9
:1049D000B40A2091C00A3091C10A4091C20A509194
:1049E000C30A8091B10A9091B20AA091B30AB09122
:1049F000B40A281739074A075B0740F42093B10A25
:104A00003093B20A4093B30A5093B40A8091E609F6
:104A10008F7E8093E6098DB79EB708970FB6F894FE
:104A20009EBF0FBE8DBFEDB7FEB7319684E099E013
:104A3000ADB7BEB712969C938E9311978FE693E015
:104A4000938382838091B10A9091B20AA091B30AB4
:104A5000B091B40A84839583A683B7830E944042B1
:104A60008DB79EB708960FB6F8949EBF0FBE8DBF48
:104A70000E945E1E08958091E60982FD04C0809127
:104A8000E60984FF3AC08091F5079091F607A0915E
:104A9000F707B091F807209104083091050840917C
:104AA000060850910708821B930BA40BB50B845F7B
:104AB0009140A040B04068F48091020890910308B2
:104AC0008B34910554F40196909303088093020867
:104AD00004C010920308109202088091F50790918B
:104AE000F607A091F707B091F80780930408909318
:104AF0000508A0930608B09307088091E60982FF95
:104B000042C080910208909103082091BC0A309124
:104B1000BD0A4091BE0A5091BF0A8B3491052CF01A
:104B2000245130404040504004C02150304040406B
:104B300050402093BC0A3093BD0A4093BE0A509364
:104B4000BF0A2091B50A3091B60A4091B70A509138
:104B5000B80A8091BC0A9091BD0AA091BE0AB0919A
:104B6000BF0A82179307A407B50740F42093BC0A35
:104B70003093BD0A4093BE0A5093BF0A8091E60964
:104B80008B7F8093E6098091E60984FF5BC080916A
:104B90000208909103082091BC0A3091BD0A40910F
:104BA000BE0A5091BF0A8B3491052CF02C5E3F4F0A
:104BB0004F4F5F4F04C02F5F3F4F4F4F5F4F2093CA
:104BC000BC0A3093BD0A4093BE0A5093BF0A20919D
:104BD000B10A3091B20A4091B30A5091B40A80915F
:104BE000BC0A9091BD0AA091BE0AB091BF0A2817D5
:104BF00039074A075B0740F42093BC0A3093BD0A8B
:104C00004093BE0A5093BF0A2091BC0A3091BD0A5E
:104C10004091BE0A5091BF0A8091FE099091FF0910
:104C2000A091000AB091010A82179307A407B50763
:104C300020F4CA01B9010E947F148091E6098F7E99
:104C40008093E6098DB79EB708970FB6F8949EBF7C
:104C50000FBE8DBFEDB7FEB7319684E099E0ADB7DA
:104C6000BEB712969C938E93119783E893E093833B
:104C700082838091BC0A9091BD0AA091BE0AB09136
:104C8000BF0A84839583A683B7830E9440428DB771
:104C90009EB708960FB6F8949EBF0FBE8DBF0E94B8
:104CA0005E1E08958091E60984FF0DC083E00E9496
:104CB0002E16682F6F5F83E00E943B168091E609F5
:104CC0008F7E8093E6098091E60982FF0DC083E024
:104CD0000E942E16682F615083E00E943B1680913F
:104CE000E6098B7F8093E60983E00E942E1600D0B0
:104CF00000D000D0EDB7FEB7319624E039E0ADB773
:104D0000BEB712963C932E93119727E933E0338375
:104D10002283848315820E9440428DB79EB70696F7
:104D20000FB6F8949EBF0FBE8DBF0E945E1E089501
:104D30008091E60984FF0EC083E00E940A16BC0140
:104D40006F5F7F4F83E00E9418168091E6098F7E87
:104D50008093E6098091E60982FF0EC083E00E94FD
:104D60000A16BC016150704083E00E9418168091C1
:104D7000E6098B7F8093E60983E00E940A1600D043
:104D800000D000D0EDB7FEB7319624E039E0ADB7E2
:104D9000BEB712963C932E93119728EA33E03383E3
:104DA0002283958384830E9440428DB79EB70696E6
:104DB0000FB6F8949EBF0FBE8DBF0E945E1E089571
:104DC0008091E60984FF0DC082E00E942E16682FB4
:104DD0006F5F82E00E943B168091E6098F7E809390
:104DE000E6098091E60982FF0DC082E00E942E163E
:104DF000682F615082E00E943B168091E6098B7F0C
:104E00008093E60982E00E942E1600D000D000D0E8
:104E1000EDB7FEB7319624E039E0ADB7BEB71296D4
:104E20003C932E9311972AEB33E0338322838483C0
:104E300015820E9440428DB79EB706960FB6F89431
:104E40009EBF0FBE8DBF0E945E1E08958091E60931
:104E500084FF0EC082E00E940A16BC016F5F7F4F84
:104E600082E00E9418168091E6098F7E8093E60901
:104E70008091E60982FF0EC082E00E940A16BC0102
:104E80006150704082E00E9418168091E6098B7F85
:104E90008093E60982E00E940A1600D000D000D07C
:104EA000EDB7FEB7319624E039E0ADB7BEB7129644
:104EB0003C932E9311972BEC33E03383228395831D
:104EC00084830E9440428DB79EB706960FB6F89431
:104ED0009EBF0FBE8DBF0E945E1E08958091E609A1
:104EE00084FF0DC081E00E942E16682F6F5F81E065
:104EF0000E943B168091E6098F7E8093E60980919F
:104F0000E60982FF0DC081E00E942E16682F6150D5
:104F100081E00E943B168091E6098B7F8093E60931
:104F200081E00E942E1600D000D000D0EDB7FEB771
:104F3000319624E039E0ADB7BEB712963C932E937C
:104F400011972DED33E033832283848315820E94F1
:104F500040428DB79EB706960FB6F8949EBF0FBE1F
:104F60008DBF0E945E1E08958091E60984FF0EC0E9
:104F700081E00E940A16BC016F5F7F4F81E00E94B2
:104F800018168091E6098F7E8093E6098091E609E4
:104F900082FF0EC081E00E940A16BC016150704081
:104FA00081E00E9418168091E6098B7F8093E609C4
:104FB00081E00E940A1600D000D000D0EDB7FEB705
:104FC000319624E039E0ADB7BEB712963C932E93EC
:104FD00011972EEE33E033832283958384830E94DE
:104FE00040428DB79EB706960FB6F8949EBF0FBE8F
:104FF0008DBF0E945E1E08958091E60984FF0DC05A
:1050000080E00E942E16682F6F5F80E00E943B16A2
:105010008091E6098F7E8093E6098091E60982FF00
:105020000DC080E00E942E16682F615080E00E9423
:105030003B168091E6098B7F8093E60980E00E9411
:105040002E1600D000D000D0EDB7FEB7319624E088
:1050500039E0ADB7BEB712963C932E93119720E07E
:1050600034E033832283848315820E9440428DB7CB
:105070009EB706960FB6F8949EBF0FBE8DBF0E94D6
:105080005E1E08958091E60984FF0EC080E00E94B4
:105090000A16BC016F5F7F4F80E00E941816809156
:1050A000E6098F7E8093E6098091E60982FF0EC0B3
:1050B00080E00E940A16BC016150704080E00E94AE
:1050C00018168091E6098B7F8093E60980E00E94A4
:1050D0000A1600D000D000D0EDB7FEB7319624E01C
:1050E00039E0ADB7BEB712963C932E93119721E1EC
:1050F00034E033832283958384830E9440428DB7BA
:105100009EB706960FB6F8949EBF0FBE8DBF0E9445
:105110005E1E0895AF92BF92CF92DF92EF92FF9200
:105120000F931F938091E60982FD04C08091E609E8
:1051300084FF3AC08091F5079091F607A091F70798
:10514000B091F80720910A0830910B0840910C08A3
:1051500050910D08821B930BA40BB50B845F9140FB
:10516000A040B04068F480910808909109088B3401
:10517000910554F40196909309088093080804C09F
:1051800010920908109208088091F5079091F6078F
:10519000A091F707B091F80780930A0890930B0845
:1051A000A0930C08B0930D088091E60984FF4CC0D1
:1051B00080910808909109082091FE093091FF091B
:1051C0004091000A5091010A8B3491052CF02C5E1D
:1051D0003F4F4F4F5F4F04C02F5F3F4F4F4F5F4FC9
:1051E0002093FE093093FF094093000A5093010A6F
:1051F0002091B10A3091B20A4091B30A5091B40A99
:105200008091FE099091FF09A091000AB091010AD6
:10521000281739074A075B0740F42093FE093093AB
:10522000FF094093000A5093010A6091FE097091B2
:10523000FF098091000A9091010A0E947F148091D9
:10524000E6098F7E8093E6098091E60982FF4CC0D3
:1052500080910808909109082091FE093091FF097A
:105260004091000A5091010A8B3491052CF0245191
:1052700030404040504004C02150304040405040F9
:105280002093FE093093FF094093000A5093010ACE
:105290002091BC0A3091BD0A4091BE0A5091BF0ACC
:1052A0008091FE099091FF09A091000AB091010A36
:1052B00082179307A407B50740F42093FE093093A3
:1052C000FF094093000A5093010A6091FE09709112
:1052D000FF098091000A9091010A0E947F14809139
:1052E000E6098B7F8093E60981E00E94E3158C013B
:1052F00080E00E94E3157C01C8010E94A8165B01B2
:105300006C0120E030E040E050E00E94C24288237F
:1053100054F40F2EF0E0AF2EF0E0BF2EF0E0CF2ED1
:10532000F0E0DF2EF02DC7010E9491167B018C0169
:1053300020E030E040E050E00E94C242882354F474
:105340000F2EF0E0EF2EF0E0FF2EF0E00F2FF0E058
:105350001F2FF02D8DB79EB740970FB6F8949EBFC4
:105360000FBE8DBFEDB7FEB7319684E099E0ADB7C3
:10537000BEB712969C938E93119783E294E0938329
:1053800082838091FE099091FF09A091000AB0915B
:10539000010A84839583A683B783A086B186C286DB
:1053A000D386E486F586068717870E9440428DB72C
:1053B0009EB740960FB6F8949EBF0FBE8DBF0E9459
:1053C0005E1E1F910F91FF90EF90DF90CF90BF90E6
:1053D000AF900895CF92DF92EF92FF920F931F93B9
:1053E0008091E60985FF41C08091FB078823C1F5C4
:1053F0000E94F50081E00E944B162091B90A30917D
:10540000BA0A280F391F30930F0820930E086091B5
:10541000BC0A7091BD0A8091BE0A9091BF0A0E9499
:105420007F148091BC0A9091BD0AA091BE0AB091F0
:10543000BF0A8093170890931808A0931908B09397
:105440001A088093130890931408A0931508B0933A
:105450001608109212081092110881E08093FB0741
:105460008091E6098F7D8093E6098091FB07882370
:1054700009F4F8C02091FE093091FF094091000A1B
:105480005091010A8091B10A9091B20AA091B30A99
:10549000B091B40A281739074A075B0708F09CC087
:1054A00080911008882349F480910E0890910F088C
:1054B0000E946F1280931008DDC00E945C12892B3D
:1054C00009F0D8C0809110080E94AC121092100808
:1054D000F89481E00E94E315D82EC92E7894E090CC
:1054E000FE09F090FF090091000A1091010A0E9444
:1054F000A8162DB73EB72C5030400FB6F8943EBFDB
:105500000FBE2DBFEDB7FEB7319624E039E0ADB741
:10551000BEB712963C932E93119722E434E0338366
:105520002283E482F58206831783608771878287EE
:1055300093870E9440428D2D9C2D2091110830911F
:1055400012084DB75EB7445F5F4F0FB6F8945EBF69
:105550000FBE4DBF28173907A8F490931208809307
:1055600011088091FE099091FF09A091000AB09165
:10557000010A8093170890931808A0931908B09314
:105580001A0813C08217930781F48091FE09909145
:10559000FF09A091000AB091010A8093130890932B
:1055A0001408A0931508B09316086091FE09709135
:1055B000FF098091000A9091010A665F7F4F8F4F2B
:1055C0009F4F6093FE097093FF098093000A9093A8
:1055D000010A0E947F144EC02091170830911808CC
:1055E0004091190850911A0880911308909114085D
:1055F000A0911508B091160882179307A407B50764
:1056000040F42093130830931408409315085093E6
:1056100016088091130890911408A0911508B09174
:105620001608280F391F4A1F5B1F56954795379557
:105630002795CA01B9010E947F148091C40A9091F4
:10564000C60A890F0E9407328091CF0A9091CE0A34
:10565000890F0E94CF330E9489170E943501109252
:10566000FB0708C084E099E06AE574E00E94D74136
:105670000E945E1E1F910F91FF90EF90DF90CF90E0
:10568000089583E00E94E31500D000D000D0EDB76C
:10569000FEB7319624E039E0ADB7BEB712963C9321
:1056A0002E9311972FE634E03383228395838483EE
:1056B0000E9440428DB79EB706960FB6F8949EBFE3
:1056C0000FBE8DBF0E945E1E089582E00E94E3150A
:1056D00000D000D000D0EDB7FEB7319624E039E01D
:1056E000ADB7BEB712963C932E9311972AE734E0DC
:1056F00033832283958384830E9440428DB79EB773
:1057000006960FB6F8949EBF0FBE8DBF0E945E1E18
:10571000089581E00E94E31500D000D000D0EDB7DD
:10572000FEB7319624E039E0ADB7BEB712963C9390
:105730002E93119725E834E0338322839583848365
:105740000E9440428DB79EB706960FB6F8949EBF52
:105750000FBE8DBF0E945E1E089580E00E94E3157B
:1057600000D000D000D0EDB7FEB7319624E039E08C
:10577000ADB7BEB712963C932E93119720E934E053
:1057800033832283958384830E9440428DB79EB7E2
:1057900006960FB6F8949EBF0FBE8DBF0E945E1E88
:1057A00008958DB79EB708970FB6F8949EBF0FBEA9
:1057B0008DBFEDB7FEB7319684E099E0ADB7BEB7C7
:1057C00012969C938E9311978BE994E09383828336
:1057D0008091FA099091FB09A091FC09B091FD0913
:1057E00084839583A683B7830E9440428DB79EB77A
:1057F00008960FB6F8949EBF0FBE8DBF0E945E1E26
:1058000008958091E60982FF0CC0809132088634A9
:1058100018F08150809332088091E6098B7F809345
:10582000E6098091E60984FF1FC0909132088091BB
:10583000CE0A981738F48091BE06981718F49F5F27
:10584000909332080E949633882349F09091320851
:105850008091CD0A891718F4892F0E94CF33809147
:10586000E6098F7E8093E60900D000D000D0EDB726
:10587000FEB7319684E099E0ADB7BEB712969C931F
:105880008E93119780EB94E093838283809132080A
:1058900090E00196958384830E9440428DB79EB725
:1058A00006960FB6F8949EBF0FBE8DBF0E945E1E77
:1058B00008958091E60982FF27C04091BE0680913D
:1058C000CF0A2091CE0A30E0280F311D842F90E0BE
:1058D000281739073CF480913208841718F4415096
:1058E0004093BE060E949633882349F09091BE06ED
:1058F0008091CD0A981718F4892F0E94CF33809198
:10590000E6098B7F8093E6098091E60984FF0CC04D
:105910008091BE06833618F48F5F8093BE06809117
:10592000E6098F7E8093E60900D000D000D0EDB765
:10593000FEB7319684E099E0ADB7BEB712969C935E
:105940008E93119789EC94E0938382838091BE06B5
:1059500090E00196958384830E9440428DB79EB764
:1059600006960FB6F8949EBF0FBE8DBF0E945E1EB6
:10597000089500D000D000D0EDB7FEB7319684E096
:1059800099E0ADB7BEB712969C938E93119780EEB7
:1059900094E0938382838091CF0A848315820E944E
:1059A00040428091E6092DB73EB72A5F3F4F0FB6C0
:1059B000F8943EBF0FBE2DBF84FF1FC05091BE069E
:1059C0007091CF0A6091CE0A4091BD06852F90E07C
:1059D000871B9109861B9109242F30E082179307BA
:1059E00024F4561B5093CF0A03C0470F4093CF0AAD
:1059F0008091E6098F7E8093E6098091E60982FF17
:105A000011C08091CF0A9091BD06891718F41092A9
:105A1000CF0A03C0891B8093CF0A8091E6098B7F50
:105A20008093E6090E945E1E089500D000D000D049
:105A3000EDB7FEB7319684E099E0ADB7BEB71296E8
:105A40009C938E93119789EF94E093838283809146
:105A5000CE0A90E00196958384830E944042809113
:105A6000E6092DB73EB72A5F3F4F0FB6F8943EBF09
:105A70000FBE2DBF84FF1FC05091BE067091CF0A8C
:105A80006091CE0A4091BD06852F90E0871B910959
:105A9000861B9109242F30E08217930724F4571BAB
:105AA0005093CE0A03C0460F4093CE0A8091E60978
:105AB0008F7E8093E6098091E60982FF1AC04091AB
:105AC000CE0A609132085091BD06242F30E0862F17
:105AD00090E0850F911D281739071CF46093CE0ABA
