:100000000C94C7000C94E6000C94E6000C94E600F7
:100010000C94E6000C94E6000C942B040C94E6007F
:100020000C94FB030C94E6000C94E6000C94E600A0
:100030000C94E6000C94E6000C94E6000C943D143D
:100040000C94E6000C94E6000C94E6000C94E60098
:100050000C94E6000C949C160C94E6000C94E600BC
:100060000C94E6000C94E6000C94E6000C94E60078
:100070000C94E6000C94E6000C9429100C94E60015
:100080000C94E6000C94E6000C94E6006E616E00A1
:10009000696E660000407A10F35A00A0724E18098B
:1000A0000010A5D4E80000E87648170000E40B54DF
:1000B000020000CA9A3B000000E1F50500008096AE
:1000C0009800000040420F000000A08601000000E0
:1000D000102700000000E80300000000640000009A
:1000E00000000A00000000000100000000002C7663
:1000F000D888DC674F0823DFC1DFAE59E1B1B7967E
:10010000E5E3E453C63AE651997696E8E6C28426DA
:10011000EB898C9B62ED407C6FFCEFBC9C9F40F2B6
:10012000BAA56FA5F490055A2AF75C936B6CF96732
:100130006DC11BFCE0E40D47FEF520E6B500D0EDF7
:10014000902E0300943577050080841E080000205F
:100150004E0A000000C80C333333330F986E1283FD
:100160001141EF8D2114893BE65516CFFEE6DB18D1
:10017000D1844B381BF77C1D901DA4BBE424203296
:1001800084725E228100C9F124ECA1E53D2711248F
:100190001FBECFEFD0E1DEBFCDBF18E0A0E0B1E0E1
:1001A000E6E1F5E900E00BBF02C007900D92A03533
:1001B000B107D9F71BE0A0E5B8E001C01D92AE364B
:1001C000B107E1F70E94180C0C94894A0C940000C6
:1001D0009C01E199FECF3FBB2EBB6DBB0FB6F894DF
:1001E000E29AE19A0FBE089581E080939601089506
:1001F000982F15988AB78B7F8ABF8AB7877F8ABF67
:1002000017988AB78F7B8ABF8AB78F778ABF91305A
:1002100031F489B7806289BF89B7806805C089B722
:100220008F7D89BF89B78F7789BF909350080895D4
:100230008093C208823061F0833031F0813099F4CC
:1002400080916500886007C00E947D38882331F066
:1002500080916500877F8093650008958091650097
:100260008860809365000895AF92BF92CF92DF922D
:10027000EF92FF920F931F9380E197E220E731E026
:10028000F9013197F1F70197D9F7E0904D0BF09014
:100290004E0B81E00E9408186C0182E00E94081851
:1002A000C80ED91EEC0CFD1C00E010E0C801B7011F
:1002B0000E94B6485B016C0126E636E646E655E448
:1002C0000E946C497B018C0120E030E040E85FE354
:1002D0000E94194888231CF461E070E024C0C80122
:1002E000B70120E03FEF4FE757E40E946849181636
:1002F000B4F4C601B50120E030E040E251E40E94D0
:100300006C490E948A4880E791E005C0FC01319762
:10031000F1F76150704061157105C1F707C0C80160
:10032000B7010E948A48CB010197F1F78091220919
:1003300080939601F89481E00E94A017909326097B
:100340008093250982E00E94A01790932109809351
:10035000200978948091510B80935E098091250942
:10036000909126090E9465182DB73EB72A5030405B
:100370000FB6F8943EBF0FBE2DBFEDB7FEB7319656
:1003800020E939E0ADB7BEB712963C932E93119792
:1003900020E031E0338322836483758386839783EF
:1003A0008091200990912109918780870E94974729
:1003B0002DB73EB7265F3F4F0FB6F8943EBF0FBE36
:1003C0002DBF0E94720E88E893E120E731E0F90129
:1003D0003197F1F70197D9F71F910F91FF90EF90A7
:1003E000DF90CF90BF90AF900895CF92DF92EF92C1
:1003F000FF920F931F93CF93DF93809196018130EB
:1004000069F480917308882321F00E942C141092C3
:1004100073081092660810926508C5C1F89481E0CF
:100420000E94A017EC0182E00E94A0176C01789452
:1004300080916608882309F076C08091650888233A
:1004400009F071C080917308882321F00E942C1458
:10045000109273088091250990912609C817D90731
:1004600071F48091200990912109C816D90609F4E8
:100470009AC180919601823009F040C094C1C8179A
:10048000D907E4F581E08093660810926B0810921A
:100490006C0810926D0810926E0810926708109206
:1004A00068081092690810926A0820919A0A30919F
:1004B0009B0A40919C0A50919D0A20936F083093AB
:1004C00070084093710850937208609123096093FB
:1004D0007508E0911F09E0937408619560937608B0
:1004E0006E02B0011124882777FD8095982F620F46
:1004F000731F841F951F0E94FF1503C081E0809326
:10050000650800914D0B10914E0B81E00E94081878
:10051000800F911F0E94EF138093730884E690E090
:100520000E94551340C1809173080E94DC13892BEF
:1005300029F080917308882309F035C180917308F0
:100540000E942C141092730880916608882309F485
:10055000E2C06091760880917408E82FFF27E7FDDC
:10056000F095862F992787FD90959C01E29FC00109
:10057000E39F900DF29F900D11249C012C9FC001D0
:100580002D9F900D3C9F900D11247C010027F7FCBE
:100590000095102F80916B0890916C08A0916D08C8
:1005A000B0916E08E80EF91E0A1F1B1FE0926B083F
:1005B000F0926C0800936D0810936E089E0144271A
:1005C00037FD4095542F8091670890916808A0915D
:1005D0006908B0916A08820F931FA41FB51F80930A
:1005E000670890936808A0936908B0936A086F5FE2
:1005F000609376088091750886170CF062C0682FAA
:10060000772767FD70956E9FC0016F9F900D7E9F4D
:10061000900D11249C01442737FD4095542F2E1531
:100620003F0540075107B4F0882799278E1B9F0B81
:100630009C01269FC001279F900D369F900D11248D
:100640009C01442737FD4095542FE216F30604071A
:10065000150744F420936B0830936C0840936D08A1
:1006600050936E0860916B0860937608772767FD5A
:100670007095872F972F20916F08309170084091C7
:10068000710850917208620F731F841F951F0E949A
:10069000FF151092660880917608882319F0109251
:1006A000640805C0809164088F5F8093640880911E
:1006B0006408823080F181E08093650810926408BC
:1006C0002AC0862F992787FD90958E9FB0018F9F16
:1006D000700D9E9F700D1124882777FD8095982FAF
:1006E00020916F0830917008409171085091720804
:1006F000620F731F841F951F0E94FF1500914D0B01
:1007000010914E0B81E00E940818800F911F0E94EB
:10071000EF138093730880916508882309F443C020
:1007200080919601823031F420912509309126097B
:10073000CE0105C02091200930912109C601821700
:1007400093074CF49091510B8091530B981728F517
:10075000892F8F5F0BC028173907FCF49091510B3C
:100760008091540B8917C8F4892F81500E949036CC
:10077000E0904D0BF0904E0B81E00E9408188C0128
:1007800082E00E940818080F191FC8018E0D9F1DD6
:100790000E94EF138093730806C010926508D093EF
:1007A0002609C0932509DF91CF911F910F91FF90EA
:1007B000EF90DF90CF9008950E949F360E94763888
:1007C00008951F93182F81E0809396010E94DC0307
:1007D0008091C208823049F080E090E90197F1F7FA
:1007E00080916500886080936500163011F0109349
:1007F00051081F9108951F920F920FB60F920BB6DA
:100800000F9211242F933F934F935F936F937F9396
:100810008F939F93AF93BF93EF93FF930E947D3885
:10082000882331F085E00E94E10381E08093620833
:10083000FF91EF91BF91AF919F918F917F916F91B8
:100840005F914F913F912F910F900BBE0F900FBE74
:100850000F901F9018951F920F920FB60F920BB624
:100860000F9211242F933F934F935F936F937F9336
:100870008F939F93AF93BF93EF93FF930E947D3825
:10088000882331F084E00E94E10381E080936308D3
:10089000FF91EF91BF91AF919F918F917F916F9158
:1008A0005F914F913F912F910F900BBE0F900FBE14
:1008B0000F901F90189560919A0A70919B0A8091F1
:1008C0009C0A90919D0A0E94FF150E94703808951D
:1008D000EF92FF920F931F930D991AC080915008C9
:1008E0008130B1F488EB99E060E171E00E942E471D
:1008F0000E94720E88EC90E00E94551380E197E20E
:1009000020E731E0F9013197F1F70197D9F792C06B
:100910000F991AC0809150088130B1F488EB99E0AA
:1009200065E271E00E942E470E94720E88EC90E012
:100930000E94551380E197E220E731E0F9013197F9
:10094000F1F70197D9F776C06091550B7091560B6E
:1009500080E090E00E94B6487B018C0180E090E04E
:100960000E94D2369B01AC01C801B7010E94194810
:100970008823B4F488EB99E06AE371E00E942E4783
:100980000E94720E88EC90E00E94551380E197E27D
:1009900020E731E0F9013197F1F70197D9F74AC023
:1009A0006091570B7091580B80E090E00E94B64820
:1009B0007B018C0181E090E00E94D2369B01AC016A
:1009C000C801B7010E9419488823B4F488EB99E064
:1009D0006FE471E00E942E470E94720E88EC90E056
:1009E0000E94551380E197E220E731E0F901319749
:1009F000F1F70197D9F71EC08091C208813049F004
:100A000080916500877F8093650080E090E9019781
:100A1000F1F70E945B0480912409813059F410920F
:100A2000820880914F0B80934B0B8091720A8062F9
:100A30008093720A1F910F91FF90EF9008950E948A
:100A4000A1150895EF92FF920F931F93CF93DF9319
:100A500080917708882309F4E4C61092770880EE25
:100A600099E06FE579E00E94871280935D09882301
:100A700009F0D7C62091C30880915F09281709F0B3
:100A8000D0C690916009963009F0EAC4809183083D
:100A9000882309F0D7C4C0916309D091640980917B
:100AA0006109909162098C31910509F4FBC38D3184
:100AB000910508F063C08B30910509F4A7C28C3012
:100AC000910570F58430910509F49DC1853091053B
:100AD00080F48130910509F4F0C08130910508F46B
:100AE000B4C08230910509F40EC1039709F087C69E
:100AF0001DC18830910509F455C28930910540F433
:100B00008530910509F4F0C1079709F078C608C24D
:100B10008930910509F45EC20A9709F070C668C26F
:100B20008031910509F4FAC28131910580F48D304C
:100B3000910509F4AFC28D30910508F478C28E306A
:100B4000910509F4BBC20F9709F059C6D3C283318E
:100B5000910509F417C38431910540F48131910561
:100B600009F4F2C2429709F04AC6FCC284319105E9
:100B700009F418C3459709F042C654C38832910559
:100B800009F413C48932910570F58232910509F494
:100B9000DCC38332910580F48E31910509F4ACC336
:100BA0008E31910508F493C38032910509F4BDC3D9
:100BB000819709F024C6C1C38532910509F4DDC3CC
:100BC0008632910540F48332910509F4C6C38497B7
:100BD00009F015C6CAC38632910509F4D6C38797B2
:100BE00009F00DC6DAC38D32910509F406C48E32C0
:100BF000910580F48A32910509F4E7C38A329105A0
:100C000008F4DBC38B32910509F4E7C38C9709F034
:100C1000F6C5EBC320E18B30920709F419C230E12D
:100C20008C30930740F48E32910509F4EEC38F9710
:100C300009F0E5C5F2C320E18C30920709F419C22E
:100C40008F5F9F4F09F0DBC5F8C3CE0183709070B2
:100C50008130910519F0029739F404C081E00E94B7
:100C6000E10302C00E946804CE018C70907000976E
:100C700031F096958795969587950E9418019E016B
:100C8000207330702032310559F02033310551F096
:100C90002031310509F0B3C581E080939601AFC5DD
:100CA00082E001C083E0809322090E947D3888237E
:100CB00009F4A5C50E943401A2C52091920A309181
:100CC000930A4091940A5091950ACE01A0E0B0E0B9
:100CD00082179307A407B50708F4E9012091860A53
:100CE0003091870A4091880A5091890ACE01A0E08C
:100CF000B0E0281739074A075B0708F4E901BE018D
:100D000080E090E0EEC08091540B282F30E02C174B
:100D10003D0708F49E018091530B482F50E0C90114
:100D20004217530708F053C1CA0151C1CE01A0E0D8
:100D3000B0E08093860A9093870AA093880AB093C4
:100D4000890A2091920A3091930A4091940A509115
:100D5000950A82179307A407B50740F42093860AE3
:100D60003093870A4093880A5093890A2091960A03
:100D70003091970A4091980A5091990A8091860A79
:100D80009091870AA091880AB091890A281739079B
:100D90004A075B0740F42093860A3093870A409302
:100DA000880A5093890A8091860A9091870AA091B7
:100DB000880AB091890A81549C49A040B04060F0F3
:100DC00080E49CE9A0E0B0E08093860A9093870AD3
:100DD000A093880AB093890A2091860A3091870AE5
:100DE0004091880A5091890A80919A0A90919B0AB1
:100DF000A0919C0AB0919D0A281739074A075B0702
:100E000008F0FDC46CC0CE01A0E0B0E08093920A6F
:100E10009093930AA093940AB093950A2091860A1E
:100E20003091870A4091880A5091890A281739071A
:100E30004A075B0740F42093920A3093930A409349
:100E4000940A5093950A20918A0A30918B0A409116
:100E50008C0A50918D0A8091920A9091930AA091E8
:100E6000940AB091950A82179307A407B50740F436
:100E70002093920A3093930A4093940A5093950AD0
:100E80008091920A9091930AA091940AB091950A48
:100E900088599A43A040B04060F488E99AE3A0E002
:100EA000B0E08093920A9093930AA093940AB0932F
:100EB000950A2091920A3091930A4091940A509198
:100EC000950A80919A0A90919B0AA0919C0AB091F0
:100ED0009D0A82179307A407B50708F090C4CA01BA
:100EE000B9010E94FF158BC4C093520B4091530B64
:100EF0005091500B842F90E0851B91092C2F30E0EE
:100F0000821793071CF4451B4093520B9091540B8E
:100F10008091520B891708F072C49093520B6FC4E2
:100F2000C093530B5091520B4091500B2C2F30E03B
:100F3000852F90E0840F911D281739074CF4450F39
:100F40004093530B05C08091530B81508093530BFA
:100F50008091530B0E94A4367B018C0160912C0779
:100F600070E0882777FD8095982F0E94B84820E090
:100F700030E040E251E40E941D489B01AC01C801F1
:100F8000B7010E9468491816F4F20E947D38882340
:100F900009F435C49091530B8091510B981708F0C8
:100FA0002EC414C0C093540B8091520B8C1710F4B4
:100FB0008093540B0E947D38882309F420C49091BB
:100FC000540B8091510B891708F019C4892F0E9486
:100FD000903615C4C0931F09CB301CF08AE0809373
:100FE0001F0980911F0987FF0AC410921F0907C4B7
:100FF000C0932309CB301CF08AE0809323098091B1
:10100000230987FFFCC310922309F9C3D0935A0B1D
:10101000C093590B8091550B9091560BC817D90767
:1010200008F0EDC3D093560BC093550BE8C3D09393
:10103000560BC093550B8091590B90915A0B8C17FE
:101040009D0708F0DCC39093560B8093550BD7C3D4
:10105000D0935C0BC0935B0B8091570B9091580B16
:10106000C817D90708F0CBC3D093580BC093570BC0
:10107000C6C3D093580BC093570B80915B0B9091D4
:101080005C0B8C179D0708F0BAC39093580B8093A4
:10109000570BB5C380914607282F30E02C173D072A
:1010A00008F49E0180914507482F50E0C90142177E
:1010B000530708F4CA010E94B638A1C3C0935E0B5F
:1010C0004091450750915F0B842F90E0851B91095B
:1010D0002C2F30E0821793071CF4451B40935E0BC6
:1010E0009091460780915E0B891708F088C3909312
:1010F0005E0B85C3C0935F0B4091450750915E0B1B
:10110000842F90E08C1B9109252F30E082179307E4
:101110000CF075C3451B40935F0B71C3D0932B0735
:10112000C0932A07C85ED340C55FD14030F080EB42
:1011300094E090932B0780932A0760912A0770917F
:101140002B078CE290E0ECC0C0932C07C53618F05A
:1011500084E680932C0720912C07E199FECF8FE342
:1011600090E062C1C093E2019E012451293218F03F
:1011700087E38093E2012091E201E199FECF88E4C8
:1011800090E052C1C093E3019E012451293218F02E
:101190008EE18093E3012091E301E199FECF89E4A0
:1011A00090E042C1CE01A0E0B0E08093960A909317
:1011B000970AA093980AB093990A81549C49A04039
:1011C000B04060F080E49CE9A0E0B0E08093960A33
:1011D0009093970AA093980AB093990A2091860A4F
:1011E0003091870A4091880A5091890A8091960A25
:1011F0009091970AA091980AB091990A8217930743
:10120000A407B50740F42093960A3093970A4093B9
:10121000980A5093990A6091960A7091970A8AE405
:1012200090E07EC0CE01A0E0B0E080938A0A909367
:101230008B0AA0938C0AB0938D0A88599A43A040D8
:10124000B04060F488E99AE3A0E0B0E080938A0AB5
:1012500090938B0AA0938C0AB0938D0A2091920AE6
:101260003091930A4091940A5091950A80918A0A8C
:1012700090918B0AA0918C0AB0918D0A281739079A
:101280004A075B0740F420938A0A30938B0A409305
:101290008C0A50938D0A60918A0A70918B0A8CE4B3
:1012A00090E03EC0D093AD0AC093AC0AC45FD14079
:1012B000659730F08FEF91E09093AD0A8093AC0A80
:1012C0006091AC0A7091AD0A80E490E029C0D0939F
:1012D000BE0AC093BD0AC45FD140659730F08FEF5E
:1012E00091E09093BE0A8093BD0A6091BD0A70910F
:1012F000BE0A82E490E014C0D093CF0AC093CE0A15
:10130000C45FD140659730F08FEF91E09093CF0AA2
:101310008093CE0A6091CE0A7091CF0A84E490E067
:1013200048EE50E00E9456476AC22C2FC0935208E4
:10133000E199FECF8FE290E077C02C2FC093530845
:10134000E199FECF80E390E06FC02C2FC09354084A
:10135000E199FECF81E390E067C02C2FC093550840
:10136000E199FECF82E390E05FC02C2FC093560836
:10137000E199FECF83E390E057C02C2FC09357082C
:10138000E199FECF84E390E04FC02C2FC093580822
:10139000E199FECF85E390E047C02C2FC093590818
:1013A000E199FECF86E390E03FC02C2FC0935A080E
:1013B000E199FECF87E390E037C02C2FC0935B0804
:1013C000E199FECF88E390E02FC02C2FC0935C08FA
:1013D000E199FECF89E390E027C02C2FC0935D08F0
:1013E000E199FECF8AE390E01FC02C2FC0935E08E6
:1013F000E199FECF8BE390E017C02C2FC0935F08DC
:10140000E199FECF8CE390E00FC02C2FC0936008D1
:10141000E199FECF8DE390E007C02C2FC0936108C7
:10142000E199FECF8EE390E09FBB8EBB2DBB0FB644
:10143000F894E29AE19A0FBEE2C10E94B81B0E94A2
:10144000691EDDC120935F099093600981E080935C
:101450008B098FEF9FEF90936209809361097EC1A2
:10146000933009F0DEC120935F099093600981E019
:1014700080938B098091610990916209009709F02E
:1014800085C089E090E090936209809361090E9491
:101490007D38882319F421E030E002C022E030E0FA
:1014A0008091C20890E0880F991F880F991F282B00
:1014B000392B8091960190E054E0880F991F5A953E
:1014C000E1F7282B392B8091830890E046E0880FC4
:1014D000991F4A95E1F7282B392B30936409209303
:1014E000630980919A0A90919B0A90936609809370
:1014F00065098091510B809367091092680980916A
:101500005D0B8093690910926A0980E090E00E9467
:10151000D2367B018C0181E090E00E94D2369B01A3
:10152000AC01C801B7010E94684918161CF480E09C
:1015300090E002C081E090E00E94D23620E030E0EE
:1015400040E251E40E946C490E94854870936C0906
:1015500060936B0980E00E94A01790936E098093BE
:101560006D0981E00E94A0179093700980936F0924
:1015700082E00E94A0179093720980937109809174
:101580005108809373091092740939C18130910513
:1015900009F056C08CE090E0909362098093610955
:1015A0008091860A9091870A9093640980936309D9
:1015B0008091920A9091930A9093660980936509AD
:1015C000E7E6F9E08091520B809367091092680971
:1015D0008091500B8093690913828091530B809303
:1015E0006B0915828091540B80936D09178280914D
:1015F0001F09992787FD90959093700980936F0933
:1016000080912309992787FD909590937209809383
:10161000710989E59BE0909374098093730985E5CE
:101620009BE0909376098093750980915E0B80937F
:101630007709118A80915F0B80937909138ADFC043
:101640008230910509F047C086E090E090936209EE
:101650008093610980E090E00E94D23620E030E083
:1016600040E251E40E946C490E948A4870936409E8
:101670006093630981E090E00E94D23620E030E080
:1016800040E251E40E946C490E948A4870936609C6
:10169000609365098091590B90915A0B909368095A
:1016A000809367098091550B9091560B90936A092E
:1016B0008093690980915B0B90915C0B90936C090E
:1016C00080936B098091570B9091580B90936E0902
:1016D00080936D0994C08031910559F481E090E0C8
:1016E000909362098093610980912A0790912B075A
:1016F00035C08131910549F481E090E09093620911
:101700008093610980912C070BC08231910569F4A7
:1017100081E090E090936209809361098091E201F9
:1017200080936309109264096AC08331910549F47A
:1017300081E090E090936209809361098091E301D8
:10174000EFCF8431910579F481E090E090936209C4
:10175000809361098091960A9091970A9093640909
:10176000809363094CC08531910559F481E090E084
:10177000909362098093610980918A0A90918B0A03
:10178000EDCF8C31910559F481E090E0909362099E
:10179000809361098091AC0A9091AD0ADFCF8D31C1
:1017A000910559F481E090E090936209809361097A
:1017B0008091BD0A9091BE0AD1CF8E31910559F426
:1017C00081E090E090936209809361098091CE0A54
:1017D0009091CF0AC3CF809791F480E190E09093ED
:1017E000620980936109A2E5B8E0E3E6F9E08D9132
:1017F00080831182329638E0A236B307C1F78FE5B5
:1018000099E064EC78E04BE550E00E94FC1184EC38
:1018100098E060E070E040E050E02CE231E00E94AF
:101820006710DF91CF911F910F91FF90EF90089576
:10183000AF92BF92CF92DF92EF92FF920F931F93DE
:10184000CF93DF930E94C5130E9453130E94693601
:101850000E9485380E94BD140E944E3B0E94A60D36
:101860000E9457380E94C01581E00E943417809171
:1018700064008860809364000E9410190E94D91946
:101880000E9404200E94B81B4091590950915A09A6
:1018900060915B0970915C0982E00E94AD0E0E942C
:1018A000920E80915E0B0E94B63880E00E94E103A8
:1018B0007894809150080E94F80084EF91E00E9493
:1018C000551388E893E120E731E0F9013197F1F70A
:1018D0000197D9F788EC90E00E94551380ED97E0CE
:1018E00020E731E0F9013197F1F70197D9F788EC5A
:1018F00090E00E945513F8EBAF2EF9E0BF2EE4E81C
:10190000CE2EE1E0DE2EC0E7D1E00E94A9190E94B0
:10191000F50180916208882391F088EB99E064E6F4
:1019200071E00E942E4788EC90E00E94551380EDF4
:1019300097E0FE013197F1F70197D9F799C08091AF
:101940006308882391F088EB99E060E171E00E94E0
:101950002E4788EC90E00E94551380ED97E0FE0141
:101960003197F1F70197D9F783C00D9909C080919C
:101970005008813029F488EB99E060E171E00AC0F9
:101980000F990BC080915008813039F488EB99E0B1
:1019900065E271E00E942E476BC06091590B709117
:1019A0005A0B80E090E00E94B6487B018C0180E0F9
:1019B00090E00E94D2369B01AC01C801B7010E94A1
:1019C000194888232CF488EB99E06AE371E0E2CFB0
:1019D00060915B0B70915C0B80E090E00E94B648D8
:1019E0007B018C0181E090E00E94D2369B01AC012A
:1019F000C801B7010E94194888232CF488EB99E0AC
:101A00006FE471E0C7CF0E947D38882319F42AE77C
:101A100031E002C02FE731E08091650083FF03C011
:101A20008AE791E002C08FE791E04DB75EB748507A
:101A300050400FB6F8945EBF0FBE4DBFEDB7FEB776
:101A40003196ADB7BEB71296BC92AE921197D382C3
:101A5000C28235832483978386830E9497474DB73C
:101A60005EB7485F5F4F0FB6F8945EBF0FBE4DBFC5
:101A70000E94BB3B0E94720E0E94E5360E94220526
:101A800044CF883A11F482EA0895883B11F485EB3B
:101A90000895803C28F0E82FF0E0E952FF4F808164
:101AA0000895F8949798E5E6F0E090819E7F908302
:101AB00085BB80818260808384E08A95F1F7808194
:101AC0008D7F8083789485EF8A95F1F70895F89457
:101AD000979AE5E6F0E090819E7F908385BB8081B8
:101AE0008260808384E08A95F1F780818D7F808396
:101AF000789485EF8A95F1F70895E82F883A11F4E4
:101B0000E2EA0AC0883B11F4E5EB06C0803C20F015
:101B1000F0E0E952FF4FE081F894979A80916500D8
:101B20008E7F80936500E5BB809165008260809325
:101B3000650084E08A95F1F7809165008D7F809340
:101B40006500789485EF8A95F1F708958F9A8091D2
:101B5000640081608093640080916400826080935F
:101B600064008FEF84BB88EE93E020E731E0F90159
:101B70003197F1F70197D9F7F8949798809165001C
:101B80008E7F8093650088E385BB809165008260CD
:101B90008093650084E08A95F1F7809165008D7FE0
:101BA00080936500789485EF8A95F1F7F89497987B
:101BB000809165008E7F809365008CE085BB80916D
:101BC000650082608093650084E08A95F1F78091DA
:101BD00065008D7F80936500789485EF8A95F1F795
:101BE000F8949798809165008E7F8093650086E0D9
:101BF00085BB8091650082608093650084E08A9552
:101C0000F1F7809165008D7F80936500789485EF72
:101C10008A95F1F7F8949798809165008E7F80936C
:101C2000650081E085BB80916500826080936500DE
:101C300084E08A95F1F7809165008D7F809365003F
:101C4000789485EF8A95F1F78CEC9CE10197F1F798
:101C50000895F8949798E5E6F0E080818E7F808380
:101C600081E085BB80818260808384E08A95F1F782
:101C700080818D7F8083789485EF8A95F1F78CEC55
:101C80009CE10197F1F70895CF93DF93EB018295E3
:101C9000880F880F807C8058F89497989091650001
:101CA0009E7F9093650085BB8091650082608093E4
:101CB000650084E08A95F1F7809165008D7F8093BF
:101CC0006500789485EF8A95F1F76115710521F427
:101CD00006C021960E947D0D88818823D1F7DF916F
:101CE000CF91089580E068EB79E00E94440E81E096
:101CF00060E979E00E94440E0895CF93DF93EC01F0
:101D0000009721F406C021960E947D0D88818823CA
:101D1000D1F7DF91CF9108958091210A08958091A4
:101D2000200A08958CE080939D001092200A089567
:101D300086E080939D0081E08093200A089586E0EC
:101D400080939D0082E08093200A089586E080932E
:101D50009D0083E08093200A08951F93182F9A0115
:101D6000AB0160E070E18EE090E00E94154A2150E6
:101D700030401093210A10929B0088E180939A00D2
:101D80008CE080939D00309398002093990080937D
:101D90009D001092200A1123A9F08C9A113051F461
:101DA00080919A008F7E80939A00949A80919A00F5
:101DB0008F770BC0123059F480919A008061809324
:101DC0009A00949880919A00806880939A001F915D
:101DD00008958091210A882379F0949A80919A003D
:101DE0008F7E80939A0080E098E40197F1F78091CC
:101DF0009A008F7780939A0008958091210A882312
:101E0000B9F080919B0086FFFCCF8CEC9CE10197A0
:101E1000F1F780919A00806180939A00949880E015
:101E200098E40197F1F780919A00806880939A0076
:101E30000895982F80919B0085FFFCCF90939C0084
:101E400080E090E0089580919B0087FFFCCF809117
:101E50009C0090E0089520919B0030E02078307045
:101E6000C9010895982F8A3341F48093E00981E0F5
:101E700080937808109277080EC0809178088823A4
:101E800051F080917808E82FF0E0E052F64F90830F
:101E90008F5F809378088091E0098A33B1F4E091F4
:101EA0007808F0E0E252F64F80818D3071F4E091D5
:101EB0007808F0E0E152F64F80818A3031F481E019
:101EC000809377081092780808958091780880347C
:101ED00021F410927808109277080895982F833291
:101EE00041F48093E00981E08093780810927708AC
:101EF0000EC080917808882351F080917808E82FEF
:101F0000F0E0E052F64F90838F5F809378088091E5
:101F1000E009833271F4E0917808F0E0E152F64F85
:101F200080818D3031F481E08093770810927808B9
:101F3000089580917808803421F4109278081092E6
:101F400077080895982F8E3789F480917808882330
:101F500069F41092770880917808E82FF0E0E05259
:101F6000F64F90838F5F8093780814C08091780833
:101F7000882381F080917808843060F4809178081B
:101F8000E82FF0E0E052F64F90838F5F809378085F
:101F9000109277088091E0098E3751F4809178088B
:101FA000843031F41092780881E0809377080895A6
:101FB00080917808803469F420EE39E0C90160E04E
:101FC00070E040E450E00E94274710927808109299
:101FD00077080895982F8E3371F08A3061F08091E0
:101FE0007808E82FF0E0E052F64F90838F5F8093FF
:101FF000780810927708E0917808F0E020EE39E058
:10200000E152F64F80818D30A1F481E08093770812
:1020100080917808803450F480917808E82FF0E0BF
:10202000E20FF31F10828F5F809378081092780878
:10203000089580917808803459F4C90160E070E017
:1020400040E450E00E9427471092780810927708E9
:1020500008951F920F920FB60F920BB60F92112494
:102060002F933F934F935F936F937F938F939F93A0
:10207000AF93BF93EF93FF9380919C009091200AC0
:10208000913051F0913028F0923049F0933061F462
:1020900009C00E94320F08C00E946E0F05C00E9446
:1020A000EA0F02C00E94A20FFF91EF91BF91AF9182
:1020B0009F918F917F916F915F914F913F912F9160
:1020C0000F900BBE0F900FBE0F901F901895EF92C0
:1020D000FF920F931F93CF93DF93DC01EB01F42E5C
:1020E000E52E89019091210A923079F4949A809199
:1020F0009A008F7E80939A00E0E0F8E43197F1F740
:1021000080919A008F7780939A008091200A88238B
:10211000A9F420E007C080919B0085FFFCCFE093ED
:102120009C002F5FFD01E20FF11DE081EA3099F77D
:1021300080919B0085FFFCCF8AE016C08130B9F406
:1021400020E007C080919B0085FFFCCFE0939C00BE
:102150002F5FFD01E20FF11DE081ED3099F78091D5
:102160009B0085FFFCCF8DE080939C0013C08330E3
:1021700089F420E030E0FD01E20FF31FE08180915F
:102180009B0085FFFCCFE0939C002F5F3F4F2430E6
:10219000310589F7209731F4923011F40E94FD0E39
:1021A00010E048C00E94FD0EC8010E94EF13082FE6
:1021B00025C080919A008F7780939A00809177084C
:1021C0008823B9F0109277088F2D9E2D9C01F9017C
:1021D0002134310510F0E0E4F0E020EE39E0CE01EA
:1021E000B901AF010E941E47802F0E942C1410E0FD
:1021F0000BC080919A00806880939A00802F0E9483
:10220000DC13892BB1F617E0802F0E942C148091EB
:10221000210A813079F4949A80919A008F7E80937C
:102220009A0080E098E40197F1F780919A008F7707
:1022300080939A00812FDF91CF911F910F91FF9092
:10224000EF900895FB018F708A3010F4805D01C01B
:10225000895C808380E00895FB01982F92959F70A0
:102260009A3010F4905D01C0995C90838F708A3031
:1022700010F4805D01C0895C818380E00895FF9245
:102280000F931F93F82E8B01892F0E942C110E5F44
:102290001F4F8F2DB8010E942C1180E01F910F91CC
:1022A000FF900895982FFB018154863020F49753B6
:1022B000908380E00895892F80538A3010F082E067
:1022C0000895808380E00895FC01DB019081892FCF
:1022D0008154863018F4292F275306C0292F205304
:1022E0002A3010F082E00895322F3295307F3C93EF
:1022F0009181892F8154863010F4975306C09053F2
:102300009A3018F0922F82E001C080E0390F3C93A0
:102310000895CF92DF92EF92FF920F931F93DF9376
:10232000CF930F92CDB7DEB77C018B016E0108947D
:10233000C11CD11CB6010E946411382F882391F46E
:102340008981F80110828183C7010296B6010E943B
:102350006411382F2981F80180819181820F911DAC
:1023600091838083832F0F90CF91DF911F910F91E5
:10237000FF90EF90DF90CF9008956F927F928F92B1
:102380009F92AF92BF92CF92DF92FF920F931F93D3
:10239000DF93CF930F92CDB7DEB75C016B014A019B
:1023A000FF2400E010E03E010894611C711C0CC089
:1023B000C501800F911FB3010E946411882369F445
:1023C0000E5F1F4F8981F80E0C151D0588F38F2DA8
:1023D0008195B4010E942C1180E00F90CF91DF9184
:1023E0001F910F91FF90DF90CF90BF90AF909F9083
:1023F0008F907F906F900895CF92DF92FF920F930E
:102400001F93CF93DF938C016B01DC019C968C9121
:102410009C97813039F411968C91833019F48BE5B7
:1024200090E002C081E190E04817590710F494E071
:1024300065C0F6018AE38193D8018C91BF010E94A7
:102440002C11B6016D5F7F4FF80181810E942C1124
:10245000E6012596D8019C968C919C97813071F469
:1024600011968C911197833049F412968C91880FB4
:10247000BE010E942C11E601279607C0F801828157
:102480009381BE010E943F112496D80114968D912C
:102490009C911597BE010E943F112496F80184A5D6
:1024A0008130D9F481818330C1F4FF24F3940BC0CF
:1024B000EE0FFF1FE00FF11F84819581BE010E9486
:1024C0003F112496F394EF2DF0E0D80112968D91F0
:1024D0009C911397E817F90758F3B601609570952A
:1024E0006C0F7D1FC6010196AE010E94BD11982F91
:1024F000882321F48DE08A838AE08B83892FDF9102
:10250000CF911F910F91FF90DF90CF900895AF92E0
:10251000BF92CF92DF92EF92FF920F931F93DF93C0
:10252000CF9300D00F92CDB7DEB76C018B018DE257
:10253000FB0111928A95E9F7F60160E070E0808175
:102540008D30B9F481818A30A1F442E0A42EB12CFF
:10255000A60EB71E76010894E11CF11C6350704072
:10256000C701AE014E5F5F4F0E94BD11882349F045
:102570008CC06F5F7F4F31966B35710501F785E039
:1025800084C0F601EA0DFB1D34979A818081349650
:10259000981709F077C033979B818081981709F0CD
:1025A00071C0C701B8010E946411882309F06DC091
:1025B00033E0E32EF12CEC0CFD1CB8016F5F7F4F74
:1025C000C7010E946411882309F05FC0F80181816E
:1025D000833009F044C0F1E1AF16B10409F43FC003
:1025E00081E0F80184A725E0E22EF12CEC0CFD1C23
:1025F000C701BE016F5F7F4F0E946411D82E8823F0
:1026000009F042C089818695843118F084E190E018
:1026100001C090E0F8019383828382E090E0E80EAD
:10262000F91E198212C0660F771F6C5F7F4F600F13
:10263000711FC7010E948911882339F589818F5F35
:102640008983E4E0F0E0EE0EFF1E8981682F70E0E0
:10265000F801828193816817790728F315C0F80182
:1026600014A6B8016E5F7F4FC70102960E948911C0
:10267000882359F40C5F1F4FC7010696B8010E94CA
:10268000891103C083E001C08D2D0F900F900F9032
:10269000CF91DF911F910F91FF90EF90DF90CF903E
:1026A000BF90AF900895899A0895AF92BF92CF924C
:1026B000DF92EF92FF920F931F93919AA0E0B0E008
:1026C000BC01CD010E94B6485B016C0126E636E6EE
:1026D00046E655E40E946C497B018C0120E030E025
:1026E00040E85FE30E94194888231CF461E070E031
:1026F00024C0C801B70120E03FEF4FE757E40E9434
:1027000068491816B4F4C601B50120E030E040E293
:1027100051E40E946C490E948A4880E791E005C01C
:10272000FC013197F1F76150704061157105C1F7F7
:1027300007C0C801B7010E948A48CB010197F1F791
:1027400091981F910F91FF90EF90DF90CF90BF90E5
:10275000AF9008959C01919A8091240A9091250A46
:102760008217930738F08091240A9091250A8F5F91
:102770009F4F51F48FEF2F3F380711F42EEF3FEFAB
:102780003093250A2093240A089580E090E02FEFEB
:102790003FEFFC01EE0FFF1FEE5DF54F318320830D
:1027A000019680329105A9F787B7826087BF83E7DA
:1027B00081BF8DE083BF08959FB7F894803218F0F1
:1027C000E0E0F0E009C0E82FF0E0EE0FFF1FEE5D63
:1027D000F54F0190F081E02D9FBFCF0108959C013E
:1027E0005FB7F894A2E0B0E04A2FFD01EE0FFF1FA3
:1027F000EE5DF54F808191818F5F9F4F71F48FEF78
:102800002F3F380711F42EEF3FEFAA0FBB1FAE5D2D
:10281000B54F11963C932E9305C04F5F1196A03291
:10282000B10511F75FBF842F08952FB7F8943FEFDC
:102830008F3F930711F48EEF9FEF9093230A8093BD
:10284000220A2FBF2FB7F8948091220A9091230A71
:102850002FBF892BB9F70895E82F2FB7F89482502E
:102860008E3148F4F0E0EE0FFF1FEE5DF54F8FEF75
:102870009FEF918380832FBF08951F920F920FB611
:102880000F920BB60F9211242F933F934F935F93A8
:102890006F937F938F939F93AF93BF93EF93FF9328
:1028A00020E030E0F901EE0FFF1FEE5DF54F808173
:1028B0009181892B51F0808191818F5F9F4F29F009
:1028C000808191810197918380832F5F3F4F2032D8
:1028D000310541F78091240A9091250A019709F466
:1028E00091980E941F058091D7019091D80101977E
:1028F0009093D8018093D7010196C9F4809179080B
:1029000090917A08A0917B08B0917C080196A11D56
:10291000B11D8093790890937A08A0937B08B093B7
:102920007C088AEE93E09093D8018093D701809140
:102930007D0890917E08A0917F08B0918008019653
:10294000A11DB11D80937D0890937E08A0937F0800
:10295000B0938008FF91EF91BF91AF919F918F91BC
:102960007F916F915F914F913F912F910F900BBE8F
:102970000F900FBE0F901F9018951092720A8FEF54
:102980008093850A8093830AE2E6FAE0119211921D
:102990008AE0E237F807D1F78FEF84BB8898089573
:1029A0001092720A08952091850AE82FF0E030E035
:1029B000082E02C0359527950A94E2F720FF24C01F
:1029C0008091830A90E00E2E02C0959587950A9417
:1029D000E2F780FD19C02091720A81E090E00E2E8E
:1029E00002C0880F991F0A94E2F7282B2093720ADD
:1029F000EE0FFF1FDF01AE59B54F1D921C92ED582F
:102A0000F54F1182108208958091850A90E00E2E74
:102A100002C0959587950A94E2F780FD10C08091D9
:102A2000830A90E00E2E02C0959587950A94E2F7EE
:102A300080FF05C082E390E00E94AA130895809170
:102A4000850A90E00E2E02C0959587950A94E2F7CC
:102A500080FD36C08091830A90E00E2E02C09595CD
:102A600087950A94E2F780FD2BC04091D9015091DF
:102A7000DA012091DB013091DC01240F351FDF01E9
:102A8000AA0FBB1FAE59B54F8D919C91119701961E
:102A900011969C938E932817390790F42091720A0F
:102AA00081E090E002C0880F991FEA95E2F7282B99
:102AB0002093720A4D935C9384E190E00E94AA13E4
:102AC0000895FF920F931F93CF93DF938091850A10
:102AD0008093830AC0E0D0E001E010E028E1F22E0C
:102AE0004C2F98010C2E02C0220F331F0A94E2F7DC
:102AF000822F809585BB8F2D8A95F1F790E080E03D
:102B000080999F5F8F5F8A30D9F7983020F080914D
:102B1000850A822B07C0933038F49091850A822F62
:102B2000809589238093850A842F0E94D31421964F
:102B3000C830D105A9F6DF91CF911F910F91FF9079
:102B400008958091840A81508093840A8F5F29F4CC
:102B50008AE08093840A0E9461150895C39AC298FE
:102B600020E097FF02C0C49A01C0C498C398C39ADA
:102B70002F5F203119F0880F991FF3CFC29A089563
:102B8000BA9ABB9ABC9A80E090E10E94AE1580E0B0
:102B900090EC0E94AE1580E090EE0E94AE1588E6A3
:102BA00090E20E94AE150895EF92FF920F931F934B
:102BB0007B018C0188E690E20E94AE158FEF9FEFBB
:102BC000AFEFBFE0E822F9220A231B23C7019F735E
:102BD00090640E94AE154EE016950795F794E79421
:102BE0004A95D1F7AFEFBFE3EA22FB22C701906419
:102BF0000E94AE151F910F91FF90EF900895AF9234
:102C0000BF92CF92DF92EF92FF920F931F93E090CB
:102C1000920AF090930A0091940A1091950A2091DB
:102C20008A0A30918B0A40918C0A50918D0A2E1598
:102C30003F054007510710F4A801970126173707F1
:102C40004807590710F49B01AC0128398AE338077B
:102C500080E0480780E0580720F428E93AE340E0A4
:102C600050E0E090960AF090970A0091980A10912F
:102C7000990A8091860A9091870AA091880AB0915A
:102C8000890AE816F9060A071B0710F4D801C701DC
:102C9000BC01CD016134ECE97E07E0E08E07E0E0A5
:102CA0009E0720F060E47CE980E090E0261737077B
:102CB0004807590710F4CA01B90160939A0A709342
:102CC0009B0A80939C0A90939D0A28EC30E040E098
:102CD00050E00E94CF495B016C019B01A60160E0BE
:102CE00070E080E090E00CE10E94473FAA24BB2402
:102CF000E1EECE2EDD24EE24FF2400E010E00E9461
:102D0000C63F122F032FF42EE52E622F702F8F2D2A
:102D10009E2D0E94D41510938E0A00938F0AF09274
:102D2000900AE092910A1F910F91FF90EF90DF902F
:102D3000CF90BF90AF9008951F920F920FB60F9251
:102D40000BB60F921124DF92EF92FF920F931F9315
:102D50002F933F934F935F936F937F938F939F93A3
:102D6000AF93BF93CF93DF93EF93FF9354B145B1EC
:102D7000D090D20AED2DF0E0EC51FE4F208130E0F2
:102D8000942F80E0850F911DE90144E0CC0FDD1FF9
:102D90004A95E1F7C20FD31FC256D54F9F838E834A
:102DA0002E853F85821B930B088802C095958795D9
:102DB0000A94E2F77C010027F7FC0095102F888524
:102DC0009985AA85BB85E80EF91E0A1F1B1FE88698
:102DD000F9860A871B878A819B8101969B838A8358
:102DE0002C813D818217930770F01B821A8240E08C
:102DF00050E0C801B7010E94374A3D872C871886EA
:102E000019861A861B86ED2DEF5FE093D20AF0E05B
:102E1000EC51FE4F80818F3F11F41092D20AE09165
:102E2000D20AF0E0EC51FE4F80819091D10A890FD7
:102E300087B9369AFF91EF91DF91CF91BF91AF9112
:102E40009F918F917F916F915F914F913F912F91C2
:102E50001F910F91FF90EF90DF900F900BBE0F909E
:102E60000FBE0F901F901895282F80938108EEE9D0
:102E7000FAE035E080E092E0108231831382128222
:102E80009583848317821682108611861286138694
:102E90001586148617861686108A71964AE0E13DDB
:102EA000F40751F78FEF91E09093AD0A8093AC0A4D
:102EB0009093BE0A8093BD0A87E086B9379A80E472
:102EC0008093D10A213049F41092D20A8091E40112
:102ED000805C87B9339A369A08951092D20A80910D
:102EE000E401805C87B933980895982F833008F007
:102EF00090E08091D10A890F87B9369A3699FECF32
:102F000054B145B1892F90E0342F20E0250F311DB9
:102F1000FC0154E0EE0FFF1F5A95E1F7E80FF91F8F
:102F2000E256F54F3783268386859785281B390B14
:102F3000008802C0359527950A94E2F7C9010895E3
:102F400090E0FC0164E0EE0FFF1F6A95E1F7E80FE7
:102F5000F91FE256F54F84859585089590E0FC01B0
:102F600074E0EE0FFF1F7A95E1F7E80FF91FE256C4
:102F7000F54F2681378186859785281B390B008878
:102F800002C0359527950A94E2F7C901089590E0AB
:102F9000FC01A4E0EE0FFF1FAA95E1F7E80FF91F6F
:102FA000E256F54F848195810895833008F080E0E2
:102FB0006115710511F461E070E090E0FC01B4E08E
:102FC000EE0FFF1FBA95E1F7E80FF91FE256F54F34
:102FD00075836483089590E0FC0124E0EE0FFF1FE9
:102FE0002A95E1F7E80FF91FE256F54F8181089520
:102FF000833008F080E090E0FC0134E0EE0FFF1F2A
:103000003A95E1F7E80FF91FE256F54F618308950D
:1030100090918108282F30E0913091F4F90154E02B
:10302000EE0FFF1F5A95E1F7E20FF31FE256F54F3F
:10303000848195816AE070E00E94EE49AB0115C081
:10304000F90144E0EE0FFF1F4A95E1F7E20FF31F8D
:10305000E256F54F818190E024813581829FA00165
:10306000839F500D929F500D1124CA010895209105
:10307000E10130E0829FB001839F700D929F700D3F
:103080001124882777FD8095982F0E94B84820E06A
:1030900030E04AE754E40E941D4808952091E2017F
:1030A00030E0829FB001839F700D929F700D1124BC
:1030B000882777FD8095982F0E94B84820E030E05F
:1030C0004AE754E40E941D4808952091E30130E04E
:1030D000829FB001839F700D929F700D11248827ED
:1030E00077FD8095982F0E94B84820E030E04AE7AD
:1030F00054E40E941D4808958F929F92AF92BF9210
:10310000CF92DF92EF92FF920F931F93CF93DF93B3
:10311000E091D20AF0E0EC51FE4FD080809181081E
:10312000813009F470C08D2C9924F401A4E0EE0FD5
:10313000FF1FAA95E1F7E80DF91DE256F54F8081D2
:10314000882329F00E94DC13892B09F04FC0E40189
:1031500074E0CC0FDD1F7A95E1F7C80DD91DC2567A
:10316000D54FE884F9840A851B858D2D0E9475173B
:103170005C01CC24B7FCC094DC2CAE0CBF1CC01E80
:10318000D11EA886B986CA86DB868A819B81019674
:103190009B838A834C815D819A012150304028179E
:1031A000390778F41B821A829A0140E050E0C60188
:1031B000B5010E94374A3D872C87188619861A86E2
:1031C0001B86840164E0000F111F6A95E1F7080D6A
:1031D000191D0256154FF80180810E942C14F80128
:1031E000818190E00E94EF13F8018083E091D20A80
:1031F000EF5FE093D20AF0E0EC51FE4F80818F3F09
:1032000011F41092D20ADF91CF911F910F91FF908C
:10321000EF90DF90CF90BF90AF909F908F900895E8
:1032200020E030E04CE350E0F901E55BF44F108220
:10323000249FF001259FF00D349FF00D1124ED52D5
:10324000F54F80E090E01192119201968E31910538
:10325000D1F72F5F3F4F2230310531F7089580912C
:1032600082088F5F80938208823011F41092820866
:10327000089580918208882319F482E0809382085F
:1032800080918208815080938208089580918208FD
:10329000282F30E0F901E55BF44F80818F5F808358
:1032A0008E3109F41082D901A55BB44F8C91F901DC
:1032B00045E0EE0FFF1F4A95E1F7220F331FE21B97
:1032C000F30BE80FF11DEE0FFF1FED52F54F80815C
:1032D0009181892B09F41C92089580918208A82F6E
:1032E000B0E0FD01E55BF44F8081882311F48EE1AD
:1032F0008083FD01E55BF44F4081CD01880F991F6C
:103300009D0165E0220F331F6A95E1F7281B390BF9
:103310004150F901E40FF11DEE0FFF1FED52F54F83
:1033200080819181892B31F4442391F7A55BB44FBF
:103330001C920895A55BB44F4C9308958091820828
:10334000089580918208EBE4FBE0E80FF11D808195
:1033500008958091820890E0FC01E55BF44F2081A4
:10336000FC0135E0EE0FFF1F3A95E1F7880F991F3A
:10337000E81BF90BE20FF11DEE0FFF1FED52F54FA9
:103380000190F081E02D099508959C01E199FECF0F
:103390003FBB2EBBE09A8DB308959C01E199FECF0F
:1033A0003FBB2EBB6DBB0FB6F894E29AE19A0FBEFD
:1033B000089588E29DE29093D40A8093D30A8AEA22
:1033C00092E39093D60A8093D50A88E994E3909388
:1033D000D80A8093D70A8AE694E39093DA0A809316
:1033E000D90A8CE394E39093DC0A8093DB0A84EDA2
:1033F00092E29093DE0A8093DD0A81EB92E2909351
:10340000E00A8093DF0A8EE892E29093E20A8093CA
:10341000E10A88E080934F0B8CE69EE29093E40AE9
:103420008093E30A82EC98E29093100B80930F0B49
:1034300089ED99E29093120B8093110B8BED90E341
:103440009093140B8093130B83E890E39093160BE7
:103450008093150B8CE891E39093180B8093170BD6
:103460008BE391E390931A0B8093190B8CEF94E20A
:1034700090931C0B80931B0B8DE698E290931E0B90
:1034800080931D0B83EB97E29093200B80931F0B8F
:103490008EE392E29093220B8093210B84E098E2DA
:1034A0009093240B8093230B88E197E29093260B53
:1034B0008093250B82ED96E29093280B8093270B47
:1034C00088EF93E290932A0B8093290B84EA93E28E
:1034D00090932C0B80932B0B81E593E290932E0B12
:1034E00080932D0B8DEF92E29093300B80932F0BF6
:1034F0008CEB94E29093320B8093310B8BE494E24B
:103500009093340B8093330B80E795E29093360BC6
:103510008093350B8CE495E29093380B8093370BB6
:103520000895EF92FF920F931F9388E890E9A0E02F
:10353000B0E08093860A9093870AA093880AB0939C
:10354000890A8091960A9091970AA091980AB09161
:10355000990A883820E9920720E0A20720E0B20704
:1035600040F48093860A9093870AA093880AB093C8
:10357000890AE0908A0AF0908B0A00918C0A1091D7
:103580008D0A8091860A9091870AA091880AB0914D
:10359000890A8E159F05A007B10740F4E092860ABC
:1035A000F092870A0093880A1093890A88EB98E8BA
:1035B000A0E0B0E08093920A9093930AA093940ABB
:1035C000B093950A89EBE81688E8F80680E00807CA
:1035D00080E0180740F0E092920AF092930A00937C
:1035E000940A1093950A2091860A3091870A409197
:1035F000880A5091890A8091920A9091930AA09129
:10360000940AB091950A281739074A075B0740F4D6
:10361000E092920AF092930A0093940A1093950A0A
:103620008091920A9091930AA091940AB091950A80
:10363000280F391F4A1F5B1F5695479537952795C9
:10364000CA01B9010E94FF158FEF03C08091530B8F
:1036500081508093530B8091530B0E94A4367B01C1
:103660008C0160912C0770E0882777FD8095982F5A
:103670000E94B84820E030E040E251E40E941D483A
:103680009B01AC01C801B7010E9468491816F4F209
:103690008AE08093540B82E38093520B1092500B7C
:1036A00088EC90E090934E0B80934D0B11E01093BB
:1036B0002209109224091092500885E080931F0976
:1036C0001093230980E895E2A0E0B0E080935909C7
:1036D00090935A09A0935B09B0935C091093C308B7
:1036E0008BE490E09093560B8093550B80E590E02F
:1036F00090935A0B8093590B8CE390E09093580B66
:103700008093570B81E490E090935C0B80935B0B6C
:1037100080E061E00E94F81780E068EC70E00E94B1
:10372000D51781E061E00E94F81781E068EC70E055
:103730000E94D51782E061E00E94F81782E068ECF1
:1037400070E00E94D51783E00E9418018FE58093F6
:103750005E0B10925F0B83E68093450781E38093B5
:1037600046071093600B1F910F91FF90EF90089503
:10377000EF92FF920F931F9380912A0790912B074E
:10378000885E9340855F914070F080EB94E0909369
:103790002B0780932A078CE290E060EB74E04DECFD
:1037A00059E10E9456478091E2018451893280F0AC
:1037B00087E38093E201E199FECF88E490E09FBB2C
:1037C0008EBB87E38DBB0FB6F894E29AE19A0FBEE9
:1037D0008091E3018451893280F08EE18093E3018E
:1037E000E199FECF89E490E09FBB8EBB8EE18DBB5B
:1037F0000FB6F894E29AE19A0FBE8091AC0A9091CC
:10380000AD0A845F9140459770F08FEF91E09093FF
:10381000AD0A8093AC0A80E490E06FEF71E04DEC6C
:1038200059E10E9456478091BD0A9091BE0A845F7B
:103830009140459770F08FEF91E09093BE0A80938E
:10384000BD0A82E490E06FEF71E04DEC59E10E9417
:1038500056478091CE0A9091CF0A845F9140459758
:1038600070F08FEF91E09093CF0A8093CE0A84E4BA
:1038700090E06FEF71E04DEC59E10E945647809166
:10388000960A9091970AA091980AB091990A88593E
:103890009A43A040B040895A9146A040B040A0F061
:1038A00080E49CE9A0E0B0E08093960A9093970AA8
:1038B000A093980AB093990A8AE490E060E47CE9C6
:1038C0004DEC59E10E94564720918A0A30918B0AAB
:1038D00040918C0A50918D0A8091960A9091970A96
:1038E000A091980AB091990A82179307A407B50787
:1038F00028F028593A4340405040A0F488E99AE320
:10390000A0E0B0E080938A0A90938B0AA0938C0A7F
:10391000B0938D0A8CE490E068E97AE34DEC59E1CC
:103920000E9456472091960A3091970A4091980A32
:103930005091990A8091860A9091870AA091880AED
:10394000B091890A281739074A075B0740F420938A
:10395000860A3093870A4093880A5093890AE09038
:103960008A0AF0908B0A00918C0A10918D0A80913E
:10397000860A9091870AA091880AB091890A8E15CB
:103980009F05A007B10740F4E092860AF092870AEB
:103990000093880A1093890A8091920A9091930A61
:1039A000A091940AB091950A8E159F05A007B107C2
:1039B00040F4E092920AF092930A0093940A1093D2
:1039C000950A2091860A3091870A4091880A509181
:1039D000890A8091920A9091930AA091940AB091D9
:1039E000950A281739074A075B0740F4E092920AC4
:1039F000F092930A0093940A1093950AE0909A0A21
:103A0000F0909B0A00919C0A10919D0A2E153F058B
:103A10004007510768F08091920A9091930AA09113
:103A2000940AB091950AE816F9060A071B07A0F454
:103A30008091920A9091930AA091940AB091950A6C
:103A4000280F391F4A1F5B1F5695479537952795B5
:103A5000CA01B9010E94FF1580912C078536A0F09C
:103A600084E680932C07E199FECF8FE390E09FBB23
:103A70008EBB84E68DBB0FB6F894E29AE19A0FBE36
:103A800003C041504093530B8091530B0E94A436C6
:103A90007B018C0160912C0770E0882777FD809571
:103AA000982F0E94B84820E030E040E251E40E94A4
:103AB0001D489B01AC01C801B7010E9468494091B3
:103AC000530B1816F4F28091540B481718F48AE03F
:103AD0008093540B8091540B481710F44093540B6F
:103AE0008091520B481710F44093520B9091540B55
:103AF0008091520B891710F49093520B5091520BF6
:103B00002091500B30E0842F90E0851B91098217A3
:103B100093071CF4451B4093500B8091450781533C
:103B2000833318F083E680934507909146079133DD
:103B300020F080914507891718F481E380934607A8
:103B40004091450780914607481710F44093460777
:103B500080915E0B481710F440935E0B90914607DE
:103B600080915E0B891710F490935E0B50915E0B61
:103B700020915F0B30E0842F90E0851B9109821724
:103B800093071CF4451B40935F0B88EC90E09093E7
:103B90004E0B80934D0B80912209843018F082E007
:103BA0008093220980912409823010F01092240918
:103BB0001092500880911F098B3018F085E0809397
:103BC0001F09809123098B3018F081E0809323092D
:103BD0008091590B90915A0B8135910530F080E519
:103BE00090E090935A0B8093590B8091550B9091D4
:103BF000560B8C34910530F08BE490E09093560B8B
:103C00008093550B2091590B30915A0B8091550B95
:103C10009091560B2817390720F43093560B2093B8
:103C2000550B80915B0B90915C0B8234910530F0C9
:103C300081E490E090935C0B80935B0B8091570B39
:103C40009091580BCD9730F08CE390E09093580B07
:103C50008093570B20915B0B30915C0B8091570B3D
:103C60009091580B2817390720F43093580B209364
:103C7000570B80E061E00E94F81780E068EC70E08C
:103C80000E94D51781E061E00E94F81781E068EC9E
:103C900070E00E94D51782E061E00E94F81782E090
:103CA00068EC70E00E94D5178091C2088150833083
:103CB00018F083E00E941801109261088091600B57
:103CC000823010F01092600B1F910F91FF90EF90D7
:103CD00008956091860A7091870A80E090E04DEC2B
:103CE00059E10E9456476091920A7091930A82E0CE
:103CF00090E04DEC59E10E94564760919A0A70910C
:103D00009B0A84E090E04DEC59E10E9456472091D7
:103D1000520BE199FECF88E090E09FBB8EBB2DBB9C
:103D20000FB6F894E29AE19A0FBE2091500BE199F8
:103D3000FECF86E090E09FBB8EBB2DBB0FB6F89404
:103D4000E29AE19A0FBE80E00E94EB17282FE199DA
:103D5000FECF89E090E09FBB8EBB2DBB0FB6F894E1
:103D6000E29AE19A0FBE80E00E94C717BC018AE088
:103D700090E04DEC59E10E94564781E00E94EB171C
:103D8000282FE199FECF8CE090E09FBB8EBB2DBB2E
:103D90000FB6F894E29AE19A0FBE81E00E94C7172D
:103DA000BC018DE090E04DEC59E10E94564782E065
:103DB0000E94EB17282FE199FECF8FE090E09FBB88
:103DC0008EBB2DBB0FB6F894E29AE19A0FBE82E04B
:103DD0000E94C717BC0180E190E04DEC59E10E94C0
:103DE00056472091C208E199FECF85E190E09FBB44
:103DF0008EBB2DBB0FB6F894E29AE19A0FBE60918C
:103E00004D0B70914E0B86E190E04DEC59E10E9414
:103E1000564720912209E199FECF88E190E09FBBAF
:103E20008EBB2DBB0FB6F894E29AE19A0FBE20919B
:103E30001F09E199FECF89E190E09FBB8EBB2DBBAE
:103E40000FB6F894E29AE19A0FBE20912309E19906
:103E5000FECF8AE190E09FBB8EBB2DBB0FB6F894DE
:103E6000E29AE19A0FBE2091530BE199FECF8BE1CC
:103E700090E09FBB8EBB2DBB0FB6F894E29AE19AFF
:103E80000FBE2091540BE199FECF8CE190E09FBBD7
:103E90008EBB2DBB0FB6F894E29AE19A0FBE6091EB
:103EA000590970915A098DE190E04DEC59E10E9459
:103EB00056472091590930915A0940915B09509118
:103EC0005C099A01442755278FE190E0B9014DEC38
:103ED00059E10E9456472091C308E199FECF81E243
:103EE00090E09FBB8EBB2DBB0FB6F894E29AE19A8F
:103EF0000FBE6091550B7091560B82E290E04DEC35
:103F000059E10E9456476091590B70915A0B84E217
:103F100090E04DEC59E10E9456476091570B70912B
:103F2000580B8EE490E04DEC59E10E9456476091A9
:103F30005B0B70915C0B80E590E04DEC59E10E94C9
:103F4000564720915E0BE199FECF87E290E09FBB40
:103F50008EBB2DBB0FB6F894E29AE19A0FBE20916A
:103F60005F0BE199FECF86E290E09FBB8EBB2DBB3D
:103F70000FB6F894E29AE19A0FBE20914507E199B5
:103F8000FECF88E290E09FBB8EBB2DBB0FB6F894AE
:103F9000E29AE19A0FBE20914607E199FECF89E2AD
:103FA00090E09FBB8EBB2DBB0FB6F894E29AE19ACE
:103FB0000FBE20912409E199FECF8AE290E09FBBD9
:103FC0008EBB2DBB0FB6F894E29AE19A0FBE2091FA
:103FD0005008E199FECF8BE290E09FBB8EBB2DBBDA
:103FE0000FB6F894E29AE19A0FBE2091600BE19926
:103FF000FECF82E590E09FBB8EBB2DBB0FB6F89441
:10400000E29AE19A0FBE0895EF92FF920F931F93E9
:104010008AE490E065EC79E10E944047A0E0B0E0DE
:104020008093960A9093970AA093980AB093990A5E
:104030008CE490E065EC79E10E944047A0E0B0E0BC
:1040400080938A0A90938B0AA0938C0AB0938D0A6E
:1040500080E090E065EC79E10E944047A0E0B0E0AC
:104060008093860A9093870AA093880AB093890A5E
:1040700082E090E065EC79E10E944047A0E0B0E08A
:104080008093920A9093930AA093940AB093950A0E
:1040900084E090E065EC79E10E944047A0E0B0E068
:1040A00080939A0A90939B0AA0939C0AB0939D0ACE
:1040B000BC01CD010E94FF15E199FECF88E090E0A0
:1040C0009FBB8EBBE09A8DB38093520BE199FECFDC
:1040D00086E090E09FBB8EBBE09A8DB38093500B3F
:1040E000E199FECF89E090E09FBB8EBBE09A6DB373
:1040F00080E00E94F8178AE090E065EC79E10E9488
:104100004047BC0180E00E94D517E199FECF8CE0CA
:1041100090E09FBB8EBBE09A6DB381E00E94F817E0
:104120008DE090E065EC79E10E944047BC0181E0C0
:104130000E94D517E199FECF8FE090E09FBB8EBB28
:10414000E09A6DB382E00E94F81780E190E065ECA0
:1041500079E10E944047BC0182E00E94D517E199B5
:10416000FECF85E190E09FBB8EBBE09A8DB30E94AD
:10417000180186E190E065EC79E10E944047909358
:104180004E0B80934D0BE199FECF88E190E09FBBF1
:104190008EBBE09A8DB380932209E199FECF89E12D
:1041A00090E09FBB8EBBE09A8DB380931F09E1998D
:1041B000FECF8AE190E09FBB8EBBE09A8DB38093E7
:1041C0002309E199FECF8BE190E09FBB8EBBE09A83
:1041D0008DB38093530BE199FECF8CE190E09FBBB0
:1041E0008EBBE09A8DB38093540B8DE190E065EC2B
:1041F00079E10E9440477C0100E010E0E09259091B
:10420000F0925A0900935B0910935C098FE190E0EA
:1042100065EC79E10E944047A0E0B0E0DC0199271D
:1042200088278E299F29A02BB12B80935909909321
:104230005A09A0935B09B0935C09E199FECF81E232
:1042400090E09FBB8EBBE09A8DB38093C30882E25F
:1042500090E065EC79E10E9440479093560B809383
:10426000550B84E290E065EC79E10E944047909321
:104270005A0B8093590B8EE490E065EC79E10E9433
:1042800040479093580B8093570B80E590E065EC86
:1042900079E10E94404790935C0B80935B0BE1991E
:1042A000FECF87E290E09FBB8EBBE09A8DB38093F8
:1042B0005E0BE199FECF86E290E09FBB8EBBE09A59
:1042C0008DB380935F0BE199FECF88E290E09FBBB6
:1042D0008EBBE09A8DB380934507E199FECF89E2CA
:1042E00090E09FBB8EBBE09A8DB380934607E19927
:1042F000FECF8AE290E09FBB8EBBE09A8DB38093A5
:104300002409E199FECF8BE290E09FBB8EBBE09A3F
:104310008DB30E94F8008CE290E065EC79E10E9498
:10432000404790932B0780932A072FE230E0E199D2
:10433000FECF3FBB2EBBE09A8DB3F901ED5DF74F89
:1043400080832F5F3F4F2F33310589F7109261082B
:10435000E199FECF8FE390E09FBB8EBBE09A8DB3D7
:1043600080932C0780E490E065EC79E10E9440475F
:104370009093AD0A8093AC0A82E490E065EC79E119
:104380000E9440479093BE0A8093BD0A84E490E067
:1043900065EC79E10E9440479093CF0A8093CE0A62
:1043A000E199FECF88E490E09FBB8EBBE09A8DB38D
:1043B0008093E201E199FECF89E490E09FBB8EBB40
:1043C000E09A8DB38093E301E199FECF82E590E01E
:1043D0009FBB8EBBE09A8DB38093600B1F910F91B2
:1043E000FF90EF9008958091720A86FF07C00E94A7
:1043F0006D198091720A8F7B8093720A8091720A84
:1044000083FF07C00E9446198091720A877F8093BC
:10441000720A8091720A87FF07C00E942F1980914B
:10442000720A8F778093720A8091720A80FF0BC0A4
:104430008091600B882311F40E9468048091720AB5
:104440008E7F8093720A8091720A81FF16C08091DC
:10445000600B882369F40E947D38882311F080E086
:1044600005C0109262081092630886E00E94E10382
:104470008091720A8D7F8093720A08958091720AEA
:1044800082FF11C08091600B882319F482E0809331
:10449000600B8091600B81508093600B8091720A59
:1044A0008B7F8093720A8091720A84FF0EC0809184
:1044B000600B8F5F8093600B823010F01092600B66
:1044C0008091720A8F7E8093720A00D000D000D053
:1044D000EDB7FEB7319680E999E0ADB7BEB7129659
:1044E0009C938E93119788EE91E0938382838091C1
:1044F000600B25E0829FC0011124815E984F958357
:1045000084830E9497478DB79EB706960FB6F8949E
:104510009EBF0FBE8DBF0E94F321089500D000D032
:1045200000D0EDB7FEB7319680E999E0ADB7BEB7E0
:1045300012969C938E9311978BEF91E093838283D5
:1045400082E598E0958384830E9497478DB79EB754
:1045500006960FB6F8949EBF0FBE8DBF0E94F32142
:10456000089500D000D000D0EDB7FEB7319680E9B5
:1045700099E0ADB7BEB712969C938E93119785E0E4
:1045800092E09383828386E192E0958384830E9404
:1045900097478DB79EB706960FB6F8949EBF0FBE8D
:1045A0008DBF0E94F321089500D000D000D0EDB758
:1045B000FEB7319680E999E0ADB7BEB712969C93ED
:1045C0008E9311978FE192E09383828380915108BB
:1045D0002FE0829FC00111248B53994F95838483D0
:1045E0000E9497478DB79EB706960FB6F8949EBF68
:1045F0000FBE8DBF0E94F32108958091720A82FF41
:1046000016C020915B0B30915C0B8091570B909101
:10461000580B8217930730F42150304030935C0BD5
:1046200020935B0B8091720A8B7F8093720A80913A
:10463000720A84FF11C080915B0B90915C0B8F35E7
:10464000910528F4019690935C0B80935B0B80910D
:10465000720A8F7E8093720A00D000D000D0EDB72E
:10466000FEB7319680E999E0ADB7BEB712969C933C
:104670008E9311978AE292E09383828380915B0B01
:1046800090915C0B958384830E9497478DB79EB76A
:1046900006960FB6F8949EBF0FBE8DBF0E94F32101
:1046A00008958091720A82FF10C08091570B9091FB
:1046B000580B009729F001979093580B8093570B54
:1046C0008091720A8B7F8093720A8091720A84FFB4
:1046D00016C02091570B3091580B80915B0B909135
:1046E0005C0B2817390730F42F5F3F4F3093580B7E
:1046F0002093570B8091720A8F7E8093720A00D0AC
:1047000000D000D0EDB7FEB7319680E999E0ADB7A3
:10471000BEB712969C938E93119782E492E0938396
:1047200082838091570B9091580B958384830E94CC
:1047300097478DB79EB706960FB6F8949EBF0FBEEB
:104740008DBF0E94F32108958091720A82FF16C0E6
:104750002091590B30915A0B8091550B9091560B2B
:104760008217930730F42150304030935A0B209336
:10477000590B8091720A8B7F8093720A8091720A22
:1047800084FF11C08091590B90915A0B8F35910580
:1047900028F4019690935A0B8093590B8091720ADA
:1047A0008F7E8093720A00D000D000D0EDB7FEB7A4
:1047B000319680E999E0ADB7BEB712969C938E937F
:1047C000119788E592E0938382838091590B9091B1
:1047D0005A0B958384830E9497478DB79EB70696A0
:1047E0000FB6F8949EBF0FBE8DBF0E94F3210895AF
:1047F0008091720A82FF10C08091550B9091560BE8
:10480000009729F001979093560B8093550B809158
:10481000720A8B7F8093720A8091720A84FF16C09D
:104820002091550B3091560B8091590B90915A0B5A
:104830002817390730F42F5F3F4F3093560B2093E2
:10484000550B8091720A8F7E8093720A00D000D03F
:1048500000D0EDB7FEB7319680E999E0ADB7BEB7AD
:1048600012969C938E93119780E792E093838283B4
:104870008091550B9091560B958384830E949747A6
:104880008DB79EB706960FB6F8949EBF0FBE8DBF2C
:104890000E94F32108951F932091590930915A09DC
:1048A00040915B0950915C09E9EAF6E010E08081F3
:1048B0009181A281B381281739074A075B0721F04C
:1048C0001F5F3496173099F78DB79EB708970FB6CC
:1048D000F8949EBF0FBE8DBFEDB7FEB7319680E94D
:1048E00099E0ADB7BEB712969C938E93119786E868
:1048F00092E09383828324833583468357830E9487
:1049000097478091720A2DB73EB7285F3F4F0FB689
:10491000F8943EBF0FBE2DBF84FF09C01F5F173044
:1049200009F410E08091720A8F7E8093720A809160
:10493000720A82FF09C0112309F417E01150809117
:10494000720A8B7F8093720AE12FF0E0EE0FFF1F57
:10495000EE0FFF1FE755F94F80819181A281B3814E
:104960008093590990935A09A0935B09B0935C090D
:104970000E94F3211F91089500D000D000D0EDB720
:10498000FEB7319680E999E0ADB7BEB712969C9319
:104990008E93119787E992E0938382838091C30875
:1049A000848315820E9497478091720A2DB73EB783
:1049B0002A5F3F4F0FB6F8943EBF0FBE2DBF84FF56
:1049C0000AC08091C3088F5F8093C3088091720AE8
:1049D0008F7E8093720A8091720A82FF0AC0809152
:1049E000C30881508093C3088091720A8B7F8093A3
:1049F000720A0E94F321089500D000D000D0EDB7D4
:104A0000FEB7319680E999E0ADB7BEB712969C9398
:104A10008E9311978CEA92E09383828380914D0B61
:104A200090914E0B958384830E9497478091720AE0
:104A30002DB73EB72A5F3F4F0FB6F8943EBF0FBE6B
:104A40002DBF84FF12C080914D0B90914E0B33E02F
:104A5000883E930728F4019690934E0B80934D0B5C
:104A60008091720A8F7E8093720A8091720A82FF0F
:104A700010C080914D0B90914E0B009729F001973B
:104A800090934E0B80934D0B8091720A8B7F809395
:104A9000720A0E94F32108958091720A85FF17C05F
:104AA0000E94911A0E94B81B0E94691E80E999E039
:104AB00062EC72E00E942E470E94720E84EF91E039
:104AC0000E9455138091720A8F7D8093720A80E94B
:104AD00099E067ED72E00E942E470E94F32108954D
:104AE0008091720A85FF15C00E94B81B0E94691E42
:104AF00080E999E06CEE72E00E942E470E94720EEF
:104B000084EF91E00E9455138091720A8F7D80930B
:104B1000720A80E999E061E073E00E942E470E94EA
:104B2000F32108958091720A82FF0CC08091540B8A
:104B30008B3018F081508093540B8091720A8B7FD8
:104B40008093720A8091720A84FF1FC09091540B67
:104B50008091520B981738F48091530B981718F4E2
:104B60009F5F9093540B0E947D38882349F0909169
:104B7000540B8091510B891718F4892F0E9490369D
:104B80008091720A8F7E8093720A8091540B0E94EA
:104B9000A4362DB73EB7285030400FB6F8943EBF2C
:104BA0000FBE2DBFEDB7FEB7319620E939E0ADB7A6
:104BB000BEB712963C932E93119726E133E03383D0
:104BC000228364837583868397830E9497472DB7DA
:104BD0003EB7285F3F4F0FB6F8943EBF0FBE2DBFC4
:104BE0000E94F3210895EF92FF920F931F938091FB
:104BF000720A82FF27C04091530B8091500B209185
:104C0000520B30E0280F311D842F90E02817390710
:104C10003CF48091540B841718F441504093530B8B
:104C20000E947D38882349F09091530B8091510B5D
:104C3000981718F4892F0E9490368091720A8B7F02
:104C40008093720A8091720A84FF2AC08091530B6C
:104C50008F5F0E94A4367B018C0160912C0770E06D
:104C6000882777FD8095982F0E94B84820E030E093
:104C700040E251E40E941D489B01AC01C801B7010C
:104C80000E94194888233CF48091530B8F3F19F000
:104C90008F5F8093530B8091720A8F7E8093720A8C
:104CA0008091530B0E94A4362DB73EB72850304058
:104CB0000FB6F8943EBF0FBE2DBFEDB7FEB73196CD
:104CC00020E939E0ADB7BEB712963C932E93119709
:104CD0002DE233E033832283648375838683978355
:104CE0000E9497472DB73EB7285F3F4F0FB6F89405
:104CF0003EBF0FBE2DBF0E94F3211F910F91FF9069
:104D0000EF9008958091720A82FF11C080912A0766
:104D100090912B07893C910528F0019790932B07E0
:104D200080932A078091720A8B7F8093720A809108
:104D3000720A84FF12C080912A0790912B0727E006
:104D4000803D920728F4019690932B0780932A07C1
:104D50008091720A8F7E8093720A00D000D000D0BA
:104D6000EDB7FEB7319680E999E0ADB7BEB71296C0
:104D70009C938E93119785E493E093838283809133
:104D80002A0790912B07958384830E9497478DB7BC
:104D90009EB706960FB6F8949EBF0FBE8DBF0E94B9
:104DA000F32108958091720A82FF0CC0809123093B
:104DB00018161CF48150809323098091720A8B7F0E
:104DC0008093720A8091720A84FF0CC0809123093B
:104DD0008A301CF48F5F809323098091720A8F7E42
:104DE0008093720A00D000D000D0EDB7FEB73196A4
:104DF00080E999E0ADB7BEB712969C938E93119758
:104E000089E593E09383828380912309992787FD25
:104E10009095958384830E9497478DB79EB7069699
:104E20000FB6F8949EBF0FBE8DBF0E94F321089568
:104E30008091720A82FF0CC080911F0918161CF421
:104E4000815080931F098091720A8B7F8093720A30
:104E50008091720A84FF0CC080911F098A301CF473
:104E60008F5F80931F098091720A8F7E8093720AF0
:104E700000D000D000D0EDB7FEB7319680E999E0C0
:104E8000ADB7BEB712969C938E9311978CE693E0C4
:104E90009383828380911F09992787FD909595833D
:104EA00084830E9497478DB79EB706960FB6F894F5
:104EB0009EBF0FBE8DBF0E94F32108958091720A9C
:104EC00082FF11C080915008882319F482E08093FA
:104ED0005008809150088150809350088091720A48
:104EE0008B7F8093720A8091720A84FF0EC080913A
:104EF00050088F5F80935008823010F01092500855
:104F00008091720A8F7E8093720A8091500881305E
:104F100019F02EE733E002C022E833E000D000D0E1
:104F200000D0EDB7FEB7319680E999E0ADB7BEB7D6
:104F300012969C938E93119785E893E093838283D6
:104F4000358324830E9497478DB79EB706960FB688
:104F5000F8949EBF0FBE8DBF809150080E94F8004C
:104F60000E94F32108958091720A82FF11C08091FE
:104F70002409882319F482E080932409809124096C
:104F80008150809324098091720A8B7F8093720AEA
:104F90008091720A84FF0EC0809124098F5F8093F4
:104FA0002409823010F0109224098091720A8F7EB9
:104FB0008093720A80912409813019F02EE733E042
:104FC00002C022E833E000D000D000D0EDB7FEB739
:104FD000319680E999E0ADB7BEB712969C938E9357
:104FE000119785E993E093838283358324830E941C
:104FF00097478DB79EB706960FB6F8949EBF0FBE23
:105000008DBF0E94F32108958091720A82FF1CC017
:1050100080912209813019F484E0809322098091E3
:105020002209815080932209813019F40E94F400F2
:1050300006C00E947D38882311F00E9434018091BF
:10504000720A8B7F8093720A8091720A84FF1CC05F
:10505000809122098F5F80932209843018F081E0CB
:105060008093220980912209813019F40E94F40072
:1050700006C00E947D38882311F00E94340180917F
:10508000720A8F7E8093720A00D000D000D0EDB7F4
:10509000FEB7319680E999E0ADB7BEB712969C9302
:1050A0008E9311978AEA93E09383828380912209F9
:1050B00026E0829FC00111248F56994F95838483E7
:1050C0000E9497478DB79EB706960FB6F8949EBF7D
:1050D0000FBE8DBF0E94F32108958091720A82FF56
:1050E00011C08091C208813019F484E08093C20815
:1050F0008091C20881508093C2088091720A8B7F90
:105100008093720A8091720A84FF0FC08091C20856
:105110008F5F8093C208843018F081E08093C208CA
:105120008091720A8F7E8093720A00D000D000D0E6
:10513000EDB7FEB7319680E999E0ADB7BEB71296EC
:105140009C938E9311978AEB93E093838283809153
:10515000C20825E0829FC00111248358994F95838E
:1051600084830E9497478DB79EB706960FB6F89432
:105170009EBF0FBE8DBF8091C2080E9418010E9481
:10518000F32108958091720A82FD04C08091720A11
:1051900084FF3AC080917D0890917E08A0917F089D
:1051A000B091800820918608309187084091880846
:1051B00050918908821B930BA40BB50B845F91401F
:1051C000A040B04068F480918408909185088B34A9
:1051D000910554F40196909385088093840804C047
:1051E000109285081092840880917D0890917E0825
:1051F000A0917F08B09180088093860890938708DB
:10520000A0938808B09389088091720A82FF5BC0DE
:1052100080918408909185082091860A3091870AB0
:105220004091880A5091890A8B3491052CF02451C1
:1052300030404040504004C0215030404040504039
:105240002093860A3093870A4093880A5093890AEC
:105250002091920A3091930A4091940A5091950AB4
:105260008091860A9091870AA091880AB091890A54
:1052700082179307A407B50740F42093860A30935A
:10528000870A4093880A5093890A2091860A3091B0
:10529000870A4091880A5091890A80919A0A9091D0
:1052A0009B0AA0919C0AB0919D0A281739074A07CA
:1052B0005B0720F4CA01B9010E94FF158091720AB0
:1052C0008B7F8093720A8091720A84FF42C0809122
:1052D0008408909185082091860A3091870A409130
:1052E000880A5091890A8B3491052CF02C5E3F4F2F
:1052F0004F4F5F4F04C02F5F3F4F4F4F5F4F209383
:10530000860A3093870A4093880A5093890A20912D
:10531000960A3091970A4091980A5091990A809183
:10532000860A9091870AA091880AB091890A281765
:1053300039074A075B0740F42093860A3093870AAF
:105340004093880A5093890A8091720A8F7E8093D5
:10535000720A8DB79EB708970FB6F8949EBF0FBE1E
:105360008DBFEDB7FEB7319680E999E0ADB7BEB716
:1053700012969C938E93119784EC93E0938382838F
:105380008091860A9091870AA091880AB091890A33
:1053900084839583A683B7830E9497478DB79EB772
:1053A00008960FB6F8949EBF0FBE8DBF0E94F321E2
:1053B00008958091720A82FD04C08091720A84FF70
:1053C0003AC080917D0890917E08A0917F08B091AD
:1053D000800820918C0830918D0840918E08509162
:1053E0008F08821B930BA40BB50B845F9140A040E8
:1053F000B04068F480918A0890918B088B349105B5
:1054000054F4019690938B0880938A0804C01092FC
:105410008B0810928A0880917D0890917E08A09157
:105420007F08B091800880938C0890938D08A0939A
:105430008E08B0938F088091720A82FF42C08091DB
:105440008A0890918B082091920A3091930A40919A
:10545000940A5091950A8B3491052CF024513040D8
:105460004040504004C021503040404050402093C4
:10547000920A3093930A4093940A5093950A20918C
:105480008A0A30918B0A40918C0A50918D0A809142
:10549000920A9091930AA091940AB091950A82176A
:1054A0009307A407B50740F42093920A3093930A18
:1054B0004093940A5093950A8091720A8B7F80934F
:1054C000720A8091720A84FF5BC080918A08909171
:1054D0008B082091920A3091930A4091940A50913E
:1054E000950A8B3491052CF02C5E3F4F4F4F5F4F48
:1054F00004C02F5F3F4F4F4F5F4F2093920A30936E
:10550000930A4093940A5093950A2091860A309109
:10551000870A4091880A5091890A8091920A909155
:10552000930AA091940AB091950A281739074A075F
:105530005B0740F42093920A3093930A4093940AB5
:105540005093950A2091920A3091930A4091940ABF
:105550005091950A80919A0A90919B0AA0919C0A79
:10556000B0919D0A82179307A407B50720F4CA01DA
:10557000B9010E94FF158091720A8F7E8093720A92
:105580008DB79EB708970FB6F8949EBF0FBE8DBF1C
:10559000EDB7FEB7319680E999E0ADB7BEB7129688
:1055A0009C938E93119788ED93E0938382838091EF
:1055B000920A9091930AA091940AB091950A8483DB
:1055C0009583A683B7830E9497478DB79EB70896A9
:1055D0000FB6F8949EBF0FBE8DBF0E94F3210895B1
:1055E0008091720A84FF0DC083E00E94EB17682F40
:1055F0006F5F83E00E94F8178091720A8F7E80931C
:10560000720A8091720A82FF0DC083E00E94EB173C
:10561000682F615083E00E94F8178091720A8B7F97
:105620008093720A83E00E94EB1700D000D000D074
:10563000EDB7FEB7319620E939E0ADB7BEB71296A7
:105640003C932E9311972CEE33E033832283848393
:1056500015820E9497478DB79EB706960FB6F894AD
:105660009EBF0FBE8DBF0E94F32108958091720AE4
:1056700084FF0EC083E00E94C717BC016F5F7F4F9D
:1056800083E00E94D5178091720A8F7E8093720A00
:105690008091720A82FF0EC083E00E94C717BC018E
:1056A0006150704083E00E94D5178091720A8B7F11
:1056B0008093720A83E00E94C71700D000D000D008
:1056C000EDB7FEB7319620E939E0ADB7BEB7129617
:1056D0003C932E9311972DEF33E0338322839583F0
:1056E00084830E9497478DB79EB706960FB6F894AD
:1056F0009EBF0FBE8DBF0E94F32108958091720A54
:1057000084FF0DC082E00E94EB17682F6F5F82E07C
:105710000E94F8178091720A8F7E8093720A80919E
:10572000720A82FF0DC082E00E94EB17682F615061
:1057300082E00E94F8178091720A8B7F8093720A30
:1057400082E00E94EB1700D000D000D0EDB7FEB78A
:10575000319620E939E0ADB7BEB712963C932E934F
:1057600011972FE034E033832283848315820E94D3
:1057700097478DB79EB706960FB6F8949EBF0FBE9B
:105780008DBF0E94F32108958091720A84FF0EC09C
:1057900082E00E94C717BC016F5F7F4F82E00E94CA
:1057A000D5178091720A8F7E8093720A8091720A57
:1057B00082FF0EC082E00E94C717BC01615070409A
:1057C00082E00E94D5178091720A8B7F8093720AC3
:1057D00082E00E94C71700D000D000D0EDB7FEB71E
:1057E000319620E939E0ADB7BEB712963C932E93BF
:1057F000119720E234E033832283958384830E94CF
:1058000097478DB79EB706960FB6F8949EBF0FBE0A
:105810008DBF0E94F32108958091720A84FF0DC00C
:1058200081E00E94EB17682F6F5F81E00E94F817FC
:105830008091720A8F7E8093720A8091720A82FF31
:105840000DC081E00E94EB17682F615081E00E943B
:10585000F8178091720A8B7F8093720A81E00E9410
:10586000EB1700D000D000D0EDB7FEB7319620E99D
:1058700039E0ADB7BEB712963C932E93119722E351
:1058800034E033832283848315820E9497478DB747
:105890009EB706960FB6F8949EBF0FBE8DBF0E94AE
:1058A000F32108958091720A84FF0EC081E00E9466
:1058B000C717BC016F5F7F4F81E00E94D5178091B1
:1058C000720A8F7E8093720A8091720A82FF0EC0E4
:1058D00081E00E94C717BC016150704081E00E94C6
:1058E000D5178091720A8B7F8093720A81E00E94A3
:1058F000C71700D000D000D0EDB7FEB7319620E931
:1059000039E0ADB7BEB712963C932E93119723E4BE
:1059100034E033832283958384830E9497478DB735
:105920009EB706960FB6F8949EBF0FBE8DBF0E941D
:10593000F32108958091720A84FF0DC080E00E94D7
:10594000EB17682F6F5F80E00E94F8178091720A52
:105950008F7E8093720A8091720A82FF0DC080E070
:105960000E94EB17682F615080E00E94F817809129
:10597000720A8B7F8093720A80E00E94EB1700D03E
:1059800000D000D0EDB7FEB7319620E939E0ADB7D1
:10599000BEB712963C932E93119725E534E03383DE
:1059A0002283848315820E9497478DB79EB70696FF
:1059B0000FB6F8949EBF0FBE8DBF0E94F3210895CD
:1059C0008091720A84FF0EC080E00E94C717BC015C
:1059D0006F5F7F4F80E00E94D5178091720A8F7EA3
:1059E0008093720A8091720A82FF0EC080E00E944A
:1059F000C717BC016150704080E00E94D5178091AC
:105A0000720A8B7F8093720A80E00E94C71700D0D1
:105A100000D000D0EDB7FEB7319620E939E0ADB740
:105A2000BEB712963C932E93119726E634E033834B
:105A30002283958384830E9497478DB79EB70696ED
:105A40000FB6F8949EBF0FBE8DBF0E94F32108953C
:105A5000EF92FF920F931F93CF93DF938091720A7F
:105A600082FD04C08091720A84FF3AC080917D0853
:105A700090917E08A0917F08B091800820919208B3
:105A8000309193084091940850919508821B930B94
:105A9000A40BB50B845F9140A040B04068F48091A6
:105AA0009008909191088B34910554F4019690934D
:105AB00091088093900804C0109291081092900869
:105AC00080917D0890917E08A0917F08B091800818
:105AD0008093920890939308A0939408B0939508AC
