:100000000C9446000C9463000C9463000C94630001
:100010000C9463000C9463000C94070E0C94630022
:100020000C94330E0C9463000C9463000C946300E6
:100030000C9463000C9463000C9463000C9496136E
:100040000C9463000C9463000C9463000C946300A4
:100050000C9463000C947C160C9463000C94630065
:100060000C9463000C9463000C9463000C94630084
:100070000C9463000C9463000C94AB0F0C9463001D
:100080000C9463000C9463000C94630011241FBE55
:10009000CFEFD0E1DEBFCDBF17E0A0E0B1E0EAECEA
:1000A000F7E700E00BBF02C007900D92AC37B10735
:1000B000D9F71AE0ACE7B7E001C01D92AA31B10749
:1000C000E1F70C941C0D0C9400002F923F924F927C
:1000D0005F926F927F928F929F92AF92BF92CF92D8
:1000E000DF92EF92FF920F931F93CF93DF93CDB7E1
:1000F000DEB72A970FB6F894DEBF0FBECDBF1C0146
:100100005A016B012D831F830E8327FF02C01D82BE
:1001100005C02D81263214F065E26D831886210119
:10012000C10188969A87898720E030E040E050E05E
:10013000C601B5010E94153A88235CF4EE81FF8167
:1001400080819181826091838083D7FAD094D7F89F
:10015000D094AE014F5F5F4FC601B5010E94953A42
:100160005B016C0189819A81AB81BC8120E030E028
:1001700040E050E0BC01CD010E94153A882309F40B
:100180004AC009851A852AC02DEC3CEC4CEC5DE395
:10019000C401B3010E94C53ADC01CB01AE014F5F3F
:1001A0005F4FBC01CD010E94953ADC01CB012AE9E9
:1001B00039E941E251E4BC01CD010E94C53ADC01BC
:1001C000CB01BC01CD010E94EE39DC01CB01805D89
:1001D000F80182938F01F885FF5FF88769807A8044
:1001E0008B809C8020E030E040E050E0C401B3010F
:1001F0000E94153A882319F02016310628F28985C5
:100200009A850817190768F5F80181918F01F201A5
:1002100081932F01F4CF20E030E040E050E0C601B0
:10022000B5010E94183A1816E4F405C05701680198
:1002300098859150988720E030E040E251E4C60173
:10024000B5010E94C53A7B018C0120E030E040E816
:100250005FE30E94153A87FDE9CFE982FA820B83BA
:100260001C83EE81FF814081518153FF15C0F885C9
:10027000FD3F94F02F2F332727FD30956D81862F7A
:10028000992787FD90950196281739072CF454601B
:10029000EE81FF8151834083EE81FF8180819181D6
:1002A0009C012070347092FD03C0FD81FF5FFD83CF
:1002B0006D81062F112707FD1095020D131D232BAD
:1002C00039F0E8858E2F992787FD9095080F191F23
:1002D0000215130520F5F10158C089859A85481645
:1002E000590600F520E030E040E251E4C601B501D6
:1002F0000E94C53AAE014F5F5F4F0E94953A5B0185
:100300006C0189819A81AB81BC81BC01CD010E94C5
:10031000EE39DC01CB01805DF20181932F010415E0
:100320001505D8F6E985FA850E171F0718F0F101B3
:1003300017A22CC02801F80180818B5F80838A334B
:100340001CF120E331E3F80120832016310628F464
:1003500082918F018F5F808313C0F8013083F8850D
:10036000FF5FF887EE81FF818081918192FF08C055
:100370002414350410F4F20120830894411C511C0C
:10038000F80180818A33FCF6F2011082F8858F2F04
:10039000992787FD90952A960FB6F894DEBF0FBE79
:1003A000CDBFDF91CF911F910F91FF90EF90DF9024
:1003B000CF90BF90AF909F908F907F906F905F9005
:1003C0004F903F902F9008952F923F924F925F92BF
:1003D0006F927F928F929F92AF92BF92CF92DF9255
:1003E000EF92FF920F931F93CF93DF93CDB7DEB7BA
:1003F000EE970FB6F894DEBF0FBECDBF88249924C8
:1004000054013C0178AF6FAB1A011EAA1DAAFC0172
:1004100017821682838181FD1EC48FEF9FEF2EC449
:100420008FA998AD019698AF8FAB6DA97EA960FF9B
:10043000FEC389AD80538A30C8F499AD903331F44E
:10044000552021F463FD02C07160ABC18AE0589E63
:10045000502C1124E9AD5E0EF0ED5F0E57FE02C088
:100460005FE7552E63FDF7C3452CF5C329AD25562F
:100470002EAF233028F089AD8554833008F01EC19B
:10048000F10184E090E0280E391EE080F1800281C5
:1004900013814701580163FD02C046E0542E37EB3B
:1004A000C32E3FEFD32EC622D722DEAACDAAC80183
:1004B000B7010E94853A892BB9F08EE48B8389833A
:1004C00081E48A83FE013496FCAFEBAFFEADF330DE
:1004D00008F0ADC28981805E89838A81805E8A83CB
:1004E0008B81805E8B83A3C2C801B7010E948C3AC6
:1004F000892BC9F089E48B838EE48A8386E489831F
:10050000CE0104969CAF8BAF20E030E040E050E09D
:10051000C801B7010E94153A8823C4F68DE28C8386
:10052000FE013596D1CF80E092E0C82AD92ADEAA12
:10053000CDAAE9AD8E2F992787FD90958734910537
:1005400009F45CC0883491053CF48534910599F038
:100550008634910561F17FC38636910541F1873676
:10056000910524F48536910531F075C387369105E0
:1005700009F444C070C38E010B5C1F4F252DB501DB
:10058000A401CE010D960E9465008DAFFCEF4F0EC9
:1005900015140CF44A94CE010D969CAF8BAFFC0160
:1005A00001900020E9F731978E2E881ABFC18DA9DE
:1005B0009EA994609EAB8DAB8E010B5C1F4F252DC9
:1005C000B501A401CE010D960E9465008DAF1514F2
:1005D0000CF44A94FE013D96FCAFEBAFFDAD1F1647
:1005E00054F4EBADFCAD01900020E9F731978E2E6D
:1005F0002BAD821A9BC1852C839498C18DA99EA98D
:1006000098609EAB8DAB252D552009F421E08E011D
:100610000B5C1F4FB501A401CE010D960E94650031
:100620008DAF8DA99EA992FF27C08DAD850D8150FC
:10063000882E87FD15C08DAD881694F09E012F5F22
:100640003F4FE82DFF27E7FDF095E20FF31F84856C
:10065000803331F48A9487FC03C09DAD89168CF7F2
:1006600087FC03C0EDAD8E1614F4552418C0582C29
:10067000FDAD5F1A539413C0852C15147CF49E01B4
:100680002F5F3F4FE82DFF27E7FDF095E20FF31FA7
:100690008485803319F48A941814A4F3582CE82D17
:1006A000FF27E7FDF095EC0FFD1F16868DA99EA98B
:1006B00092FD8DCF29AD225029AF68CF63FF04C0D2
:1006C000552011F421E0522EE9AD8E2F992787FD98
:1006D00090958936910509F4A5C08A3691057CF577
:1006E0008335910509F483C084359105BCF48B32C0
:1006F000910509F443C08C3291054CF48032910588
:1007000009F43FC08332910509F443C08AC28D3297
:100710009105E9F18E329105F1F183C2833691059D
:1007200009F442C0843691052CF48835910509F40A
:10073000AEC077C28436910509F474C072C28037A6
:10074000910509F49FC08137910544F48C369105D9
:1007500039F18F36910509F492C063C2853791054E
:1007600009F497C08637910524F48337910521F168
:1007700058C28837910509F48AC053C260617EABC4
:100780006DAB8DA99EA980629EAB8DAB64C2606883
:1007900008C0606406C068607EAB6DAB55245BC268
:1007A00064607EAB6DAB57C2F10182E090E0280E31
:1007B000391E80804A943BC1F10182E090E0280E0E
:1007C000391EA081B1814D0163FF09C0852D992794
:1007D00087FD9095BC01CD010E94FD381FC0FD0131
:1007E00001900020E9F73197EA1BEAAF18C0F10148
:1007F00082E090E0280E391E0190F081E02D4F013B
:1008000063FF09C0852D992787FD9095BC01CF0115
:100810000E94DB3803C0CF010E94D2388AAF9AAD64
:10082000491A05C162FF0AC0F10184E090E0280E78
:10083000391E20813181428153810CC0F10182E057
:1008400090E0280E391E808191819C01442737FD5C
:100850004095542F49015A0157FF0BC062607EAB8F
:100860006DABB094A09490948094811C911CA11CB9
:10087000B11C8DA99EA98F7B9EAB8DAB27C098E044
:100880009AAF07C060647EAB6DABE8E7E9AFF0E11B
:10089000FAAF6DA97EA962FF0AC0F10184E090E081
:1008A000280E391E20813181428153810AC0F10115
:1008B00082E090E0280E391E808191819C014427BE
:1008C000552749015A016F7C7EAB6DABFE01319615
:1008D000FCAFEBAF6F01FAADEF2EFF24002711271D
:1008E000C501B401A80197010E94533BDC01CB0173
:1008F000EBADFCAD80838A3024F0F9AD8F0F8152CF
:1009000001C0805DEBADFCAD8193FCAFEBAFC501E9
:10091000B401A80197010E94533B49015A012115D6
:10092000310541055105E1F68BAC8C184DA95EA946
:10093000CA0182739070892B09F04A9446FF0DC05A
:10094000842D992787FD9095FAADF03121F49EEF23
:10095000492E480E02C0482E4A9443FF0EC0252D52
:10096000332727FD3095882D99278217930724F088
:10097000477F5EAB4DAB01C058188DA99EA983FF80
:1009800002C0451801C0481880789170892B51F435
:10099000842D4A94181634F4B30180E290E00E944A
:1009A0000839F6CF8DA99EA981FF04C0B3018DE25D
:1009B00090E00BC084FF04C0B3018BE290E005C05F
:1009C00085FF05C0B30180E290E00E9408398DA93F
:1009D0009EA986FF10C0B30180E390E00E94083911
:1009E0002AAD203141F4B301E9AD8E2F992787FD5F
:1009F00090950E9408398DA99EA990FF0AC0842D68
:100A00004A94181634F4B30180E390E00E94083948
:100A1000F6CF8DA99EA983FF0AC0852D5A9418167A
:100A200034F4B30180E390E00E940839F6CF8DA939
:100A300087FD0AC0842D4A94181634F4B30180E26D
:100A400090E00E940839F6CFF9ADF33631F4882DE5
:100A5000B301992787FD9095C0C029AD2337B9F41C
:100A60008AAD81508AAF8F3F09F4CEC0F4018081F6
:100A70000894811C911CB301992787FD90950E94D1
:100A800008399AAD91509AAF9F3F81F7BDC0E9AD4B
:100A9000E33581F4FAADF150FAAFFF3F09F4B4C089
:100AA000F4018491B30199270E9408390894811CAC
:100AB000911CF0CF8DA99EA991FF92C092FF1DC0FD
:100AC0002DAD1216B4F421502DAF2F3F81F0EBADB8
:100AD000FCAD8191FCAFEBAFB301992787FD9095F9
:100AE0000E940839FDADF150FDAFFF3F81F71DAE0B
:100AF0000FC0B30180E390E009C0EBADFCAD819184
:100B0000FCAFEBAFB301992787FD90950E940839A0
:100B100015142CF4B3018EE290E00E9408398DA9DF
:100B20009EA992FF20C08DADF82FFF5FFDAF0DC0D5
:100B3000852D5A941816BCF4B30180E390E00E940E
:100B400008398DAD282F2F5F2DAF88238CF30BC074
:100B5000852D5A9418167CF4882DB301992787FDAA
:100B600090950E940839EBADFCAD8191FCAFEBAFE5
:100B7000882E882369F78DA99EA992FD45C0B301EF
:100B8000F9AD8F2F992787FD90950E9408392DADDB
:100B900021502DAF27FF09C0B3018DE290E00E94E4
:100BA00008398DAD81958DAF05C0B3018BE290E022
:100BB0000E9408396AE070E0EDAD8E2F992787FD1D
:100BC00090950E94403B4B015C01B301C401C0966B
:100BD0000E940839B301C501C0960E94083914C0AB
:100BE0008E010F5F1F4F8BAD9CAD8017910761F099
:100BF000EBADFCAD8291FCAFEBAFB301992787FD64
:100C000090950E940839EFCF8DA987FF0DC0842DE4
:100C10004A9418164CF4B30180E290E00E9408391F
:100C2000F6CFB3010E9408391EAA1DAA14C099ADBF
:100C3000953249F481E090E09EAB8DAB5524452C74
:100C4000EAE0EAAF08C0B301F9AD8F2F992787FD1D
:100C500090950E940839F301838183FF04C0EFA9B6
:100C6000F8ADF49103C0EFA9F8ADF081F9AF29AD6B
:100C7000222309F0D5CBF30186819781EE960FB63A
:100C8000F894DEBF0FBECDBFDF91CF911F910F91C2
:100C9000FF90EF90DF90CF90BF90AF909F908F909C
:100CA0007F906F905F904F903F902F900895982F76
:100CB00015988AB78B7F8ABF8AB7877F8ABF1798B4
:100CC0008AB78F7B8ABF8AB78F778ABF913031F41A
:100CD00089B7806289BF89B7806805C089B78F7D71
:100CE00089BF89B78F7789BF90937F0708958093D5
:100CF000C80799278230910549F0833091051CF48B
:100D0000019771F00895039739F008958091650077
:100D1000877F8093650008950E946D2D8823B1F729
:100D2000809165008860F5CF81E08093000108958F
:100D30000E948A1508958091500990915109A091BF
:100D40005209B0915309BC01CD010E94E4150E94E3
:100D5000602D8091100A0E94D22B0895CF92DF92CD
:100D6000EF92FF920F931F930D9908C080917F0718
:100D7000813021F485E1A1E0B1E032C00F9908C0D3
:100D800080917F07813021F485E1A6E1B1E028C0A0
:100D90000091130A1091140AC801AA2797FDA09583
:100DA000BA2FBC01CD010E940B3A6B017C0117FFE9
:100DB00008C020E030E040E857E40E9466396B014B
:100DC0007C010E945C2CDC01CB019C01AD01C701C0
:100DD000B6010E94153A8823B4F485E1ABE2B1E094
:100DE000EEE8F8E00D9001928A95E1F70E94D30EAB
:100DF00088EC90E00E945F1368EE73E080E090E082
:100E00000E94761420C08091C807813059F08091EB
:100E10006500877F809365006AE070E080E090E085
:100E20000E9476140E949B0680910A08813059F432
:100E300010929E078091090A8093010A80914809C7
:100E40008062809348091F910F91FF90EF90DF908F
:100E5000CF9008950E94E82B0E94662D0895CF93AD
:100E6000C82F0E9494060E942A078091C8078230EA
:100E700059F06AE070E080E090E00E947614809182
:100E80006500886080936500C53011F0C0937E07CF
:100E9000CF910895CF92DF92EF92FF920F931F931D
:100EA000CF93DF9380910001813069F480918307B3
:100EB000882321F00E944E1410928307109290070D
:100EC00010929107C3C1F89481E00E9478177C01C9
:100ED00082E00E9478176C017894809190078823B3
:100EE00009F077C0C0919107CC2309F072C08091BE
:100EF0008307882321F00E944E14C093830720911A
:100F00000B0830910C08E216F30669F4809106088C
:100F100090910708C816D90609F498C1809100017C
:100F2000823009F493C1E216F306F4F581E0809370
:100F30009007109288071092890710928A071092E2
:100F40008B0710928C0710928D0710928E071092CB
:100F50008F072091500930915109409152095091C9
:100F60005309209384073093850740938607509355
:100F700087078091090880938107909105089093D5
:100F800082078195809380078902C0011124AA27D6
:100F900097FDA095BA2F280F391F4A1F5B1FCA0162
:100FA000B9010E94E41503C081E08093910781E0BC
:100FB0000E943B182091070A3091080A820F931F64
:100FC0000E9422148093830784E690E00E945F13BE
:100FD0003DC1809183070E941214892B29F08091D2
:100FE0008307882309F032C1809183070E944E1441
:100FF0001092830780919007882309F4E1C06091E3
:101000008007862F992787FD9095E89E9001E99E9D
:10101000300DF89E300D112470918207072F112793
:1010200007FD1095209FA001219F500D309F500D6E
:101030001124CA01AA2797FDA095BA2FC09188074D
:10104000D0918907E0918A07F0918B07C80FD91FCB
:10105000EA1FFB1FC0938807D0938907E0938A0794
:10106000F0938B079701442737FD4095542F8091CB
:101070008C0790918D07A0918E07B0918F07820FFA
:10108000931FA41FB51F80938C0790938D07A09387
:101090008E07B0938F076F5F609380072091810761
:1010A00026170CF068C07202C0011124AA2797FD10
:1010B000A095BA2F8C179D07AE07BF074CF48093FD
:1010C000880790938907A0938A07B0938B0721C064
:1010D00088279927801B910B332727FD3095829F06
:1010E000A001839F500D929F500D1124CA019C01B5
:1010F000442737FD4095542FC217D307E407F5075F
:1011000044F4209388073093890740938A075093CB
:101110008B078091880780938007282F332727FD2E
:101120003095432F532F8091840790918507A0918C
:101130008607B0918707820F931FA41FB51FBC01BC
:10114000CD010E94E41510929007809180078823BA
:1011500019F01092920705C0809192078F5F8093DB
:10116000920780919207823058F181E08093910735
:101170001092920725C06702C00111249C014427E8
:1011800037FD4095542F8091840790918507A09159
:101190008607B0918707820F931FA41FB51FBC015C
:1011A000CD010E94E41581E00E943B182091070ABE
:1011B0003091080A820F931F0E94221480938307A4
:1011C00080919107882309F441C080910001823009
:1011D00031F4A70120910B0830910C0805C0A6013D
:1011E0002091060830910708421753074CF490915C
:1011F0000F0A8091110A981718F4892F8F5F0BC07E
:1012000024173507ECF490910F0A8091120A891780
:10121000B8F4892F81500E94D22B81E00E943B18A4
:101220000091070A1091080A080F191F82E00E9416
:101230003B18800F911F0E9422148093830706C0E1
:1012400010929107F0920C08E0920B08DF91CF9179
:101250001F910F91FF90EF90DF90CF9008950F9323
:101260001F9368EE73E080E090E00E94761481E0C6
:101270000E943B180091070A1091080A080F191FD5
:1012800082E00E943B18080F191FC801AA27BB273C
:10129000BC01CD010E947614809108088093000162
:1012A000F89481E00E94781790930C0880930B08C3
:1012B00082E00E947817909307088093060878943C
:1012C00080910F0A80934408809106089091070846
:1012D0009F938F9380910B0890910C080E946A183D
:1012E000DC01CB01BF93AF939F938F9380E491E098
:1012F0009F938F9386E698E09F938F930E94353952
:101300000E94D30E64EF71E080E090E00E947614BA
:101310008DB79EB70A960FB6F8949EBF0FBE8DBFCD
:101320001F910F910895CF93DF93809194078823A5
:1013300009F47FC31092940765E478E086EB98E0A7
:101340000E94831280934308882309F072C320917E
:10135000C90780914508281709F06BC3909146088A
:10136000963009F064C280919F07882309F04DC22E
:10137000C0914908D0914A08809147089091480847
:101380008830910509F4AFC189309105F8F48330B4
:10139000910509F4B4C08430910540F48130910581
:1013A00009F46FC0029708F09AC030C085309105EB
:1013B00009F449C18530910508F4F1C086309105E2
:1013C00009F45DC1079709F46FC122C38C30910500
:1013D00009F4C4C18D30910540F48A30910509F4B7
:1013E000A3C10B9708F0A9C196C18E30910509F4ED
:1013F000D8C18E30910508F4C2C18F30910509F42F
:10140000ECC18F5F9F4F09F4FDC102C3CE01837011
:1014100090708130910519F0029729F006C081E0A3
:101420000E942F0702C00E94AE06CE018C70907001
:10143000009731F096958795969587950E94770647
:101440009E01207330702032310571F02132310558
:1014500020F42031310529F0DBC22033310531F091
:10146000D7C20E949406D4C282E001C083E0809378
:1014700008080E946D2D882309F4CAC20E942F0912
:10148000C7C29E014427552780910A0A90910B0AF2
:10149000A0910C0AB0910D0A281739074A075B077B
:1014A00020F4C0910A0AD0910B0A9E0144275527C7
:1014B0008091030A9091040AA091050AB091060A4E
:1014C00082179307A407B50720F4C091030AD091AF
:1014D000040ACE01AA27BB27BC01CD01B1C080916F
:1014E000120A9927C817D90708F4EC018091110A4C
:1014F00099278C179D0708F4EC018C2F09C1CE01A8
:10150000AA27BB278093030A9093040AA093050A95
:10151000B093060A20910A0A30910B0A40910C0AF6
:1015200050910D0A82179307A407B50740F4209342
:10153000030A3093040A4093050A5093060A8091E7
:10154000030A9091040AA091050AB091060A8153FA
:101550009547A040B04060F080E395E7A0E0B0E0A0
:101560008093030A9093040AA093050AB093060A95
:101570008091500990915109A0915209B09153095D
:101580002091030A3091040A4091050A5091060AFD
:10159000281739074A075B0708F03AC24FC0CE0147
:1015A000AA27BB2780930A0A90930B0AA0930C0AE0
:1015B000B0930D0A2091030A3091040A4091050A64
:1015C0005091060A281739074A075B0740F4209311
:1015D0000A0A30930B0A40930C0A50930D0A80912B
:1015E0000A0A90910B0AA0910C0AB0910D0A885634
:1015F0009244A040B04060F488E692E4A0E0B0E0FD
:1016000080930A0A90930B0AA0930C0AB0930D0AD8
:1016100020910A0A30910B0A40910C0A50910D0A50
:101620008091500990915109A0915209B0915309AC
:1016300082179307A407B50708F0EAC1CA01B901E8
:101640000E94E415E5C1C093100A4091110A842F4D
:10165000992750910E0A851B91092C2F3327821749
:1016600093071CF4451B4093100A8091100A909137
:10167000120A891708F0CCC19093100AC9C1C0930F
:101680000E0A4091110A242F33272C1B3109809117
:101690005B069927281739070CF0BAC18091100A08
:1016A000481B40930E0AB4C1C093110A2C2F332754
:1016B0006091100A40910E0AE62FE40FF12DF11D02
:1016C0002E173F071CF4640F6093110A0E946D2DC2
:1016D000882309F49DC19091110A80910F0A9817EF
:1016E00008F096C114C0C093120A9091100A9C177A
:1016F00010F49093120A0E946D2D882309F488C17A
:1017000080910F0A9091120A891708F081C1892FE0
:101710000E94D22B7DC1C0930508CB300CF478C158
:101720008AE08093050874C1C0930908CB300CF49B
:101730006FC18AE0809309086BC1D093160AC093E9
:10174000150A8091130A9091140AC817D90708F056
:101750005FC19093160A8093150A5AC1D093140A58
:10176000C093130A8091150A9091160A8C179D0751
:1017700008F04EC19093140A8093130A49C18091D6
:10178000C4079927C817D90708F4EC01809171069E
:1017900099278C179D0708F4EC018C2F0E94B62D19
:1017A00037C1C093180A40917106842F9927509130
:1017B000190A851B91092C2F3327821793071CF4D4
:1017C000451B4093180A8091180A9091C407891705
:1017D00008F01EC19093180A1BC1C093190A4091CA
:1017E0007106242F33272C1B31098091720699270B
:1017F000281739070CF00CC18091180A481B409338
:10180000190A06C10E94372703C120934508909307
:10181000460881E0809361088FEF9FEF909348081E
:101820008093470890934A0880934908F1C0933009
:1018300009F0FFC0209345089093460881E080930B
:1018400061088091470890914808009709F07BC093
:1018500089E090E090934808809347080E946D2D9E
:10186000882319F022E030E002C021E030E08091CE
:10187000C8079927880F991F880F991F282B392B84
:1018800080910001992754E0880F991F5A95E1F73C
:10189000282B392B80919F07992746E0880F991FA5
:1018A0004A95E1F7282B392B30934A0820934908B1
:1018B000809150099091510990934C0880934B0866
:1018C00080910F0A992790934E0880934D0880913C
:1018D000170A99279093500880934F080E945C2C18
:1018E000DC01CB0120E030E040E251E4BC01CD015D
:1018F0000E94C53ADC01CB01BC01CD010E94EE394A
:10190000DC01CB01909352088093510880E00E9443
:101910007817909354088093530881E00E947817B9
:10192000909356088093550882E00E947817909310
:1019300058088093570880917E07992790935A08FA
:101940008093590865C0019709F062C08CE090E06F
:1019500090934808809347088091030A9091040A65
:1019600090934A088093490880910A0A90910B0A43
:1019700090934C0880934B088091100A992790937C
:101980004E0880934D0880910E0A99279093500835
:1019900080934F088091110A992790935208809361
:1019A00051088091120A9927909354088093530804
:1019B00080910508992787FD90959093560880930C
:1019C000550880910908992787FD909590935808AC
:1019D000809357088091150A9091160A90935A089F
:1019E000809359088091130A9091140A90935C088F
:1019F00080935B088091180A992790935E088093E2
:101A00005D088091190A99279093600880935F0878
:101A10004BE350E06AEC77E085E498E00E94FA112D
:101A20002CE231E040E050E0BA018AEC97E00E94FD
:101A30006510DF91CF910895CFEFD0E1DEBFCDBF2C
:101A40000E9483130E945D130E94AB2B0E94772D8E
:101A50000E9498140E94DE0E0E944B2C0E94A81532
:101A600081E00E9414178091640088608093640074
:101A70000E9481180E9425190E94FC2880913F082D
:101A800090914008A0914108B0914208AC01BD017D
:101A900082E00E943B0F0E94270F8091180A0E944B
:101AA000B62D80E00E942F07789480917F070E94D6
:101AB000570684EF91E00E945F1364EF71E080E0CD
:101AC00090E00E94761488EC90E00E945F1368EC2E
:101AD00070E080E090E00E94761488EC90E00E9434
:101AE0005F130E9409190E944A0780917D0788238D
:101AF00021F085E1A6E1B1E007C080917C07882351
:101B0000A1F085E1A1E0B1E0EEE8F8E00D900192EE
:101B10008A95E1F788EC90E00E945F1368EC70E032
:101B200080E090E00E9476146BC00D9908C080910F
:101B30007F07813021F485E1A1E0B1E032C00F9947
:101B400008C080917F07813021F485E1A6E1B1E0F2
:101B500028C00091150A1091160AC801AA2797FDFE
:101B6000A095BA2FBC01CD010E940B3A6B017C01FC
:101B700017FF08C020E030E040E857E40E946639D3
:101B80006B017C010E945C2CDC01CB019C01AD014E
:101B9000C701B6010E94153A882354F485E1ABE2EF
:101BA000B1E0EEE8F8E00D9001928A95E1F728C0E7
:101BB0008091650083FD03C080E591E002C085E56A
:101BC00091E09F938F930E946D2D882319F080E5FB
:101BD00091E002C085E591E09F938F938AE591E0C3
:101BE0009F938F938EE898E09F938F930E9435394F
:101BF0008DB79EB708960FB6F8949EBF0FBE8DBFE7
:101C00000E94D30E0E94672C0E9493096ACF1F92F4
:101C10000F920FB60F9211242F933F934F935F9320
:101C20006F937F938F939F93AF93BF93EF93FF93A4
:101C30000E946D2D882331F083E00E942F0781E000
:101C400080937C07FF91EF91BF91AF919F918F910E
:101C50007F916F915F914F913F912F910F900FBEA8
:101C60000F901F9018951F920F920FB60F9211248C
:101C70002F933F934F935F936F937F938F939F9394
:101C8000AF93BF93EF93FF930E946D2D882331F0A4
:101C900084E00E942F0781E080937D07FF91EF9100
:101CA000BF91AF919F918F917F916F915F914F9174
:101CB0003F912F910F900FBE0F901F901895883A6B
:101CC00019F482EA90E00895883B19F485EB90E0DE
:101CD0000895E82FFF27803C28F0E555FF4F8081CD
:101CE00099270895CF010895982FF8949798809197
:101CF00065008E7F8093650095BB80916500826052
:101D00008093650061E070E080E090E00E945E14E6
:101D1000809165008D7F80936500789462E370E028
:101D200080E090E00E945E140895982FF894979AAE
:101D3000809165008E7F8093650095BB80916500E2
:101D400082608093650061E070E080E090E00E9436
:101D50005E14809165008D7F80936500789462E3C6
:101D600070E080E090E00E945E1408950E945F0E93
:101D70000E94950E0895CF93DF93EB018295880F13
:101D8000880F807C80580E94740E209749F08881CB
:101D9000882331F089910E94B60E88818823D1F77B
:101DA000DF91CF9108956EE878E080E00E94BB0E4D
:101DB00066E678E081E00E94BB0E08958F9A8091DC
:101DC00064008160809364008091640082608093ED
:101DD00064008FEF84BB64E670E080E090E00E94D6
:101DE000761488E30E94740E8CE00E94740E86E0E4
:101DF0000E94740E81E00E94740E62E070E080E048
:101E000090E00E947614089581E00E94740E62E0D2
:101E100070E080E090E00E9476140895CF93DF9305
:101E2000EC01892B49F08881882331F089910E9447
:101E3000B60E88818823D1F7DF91CF9108958091E4
:101E4000F708992708958091F608992708958CE05E
:101E500080939D001092F608089586E080939D007F
:101E600081E08093F608089586E080939D0082E0EB
:101E70008093F60808951F93182F9A01AB0160E034
:101E800070E18EE090E00E94533B2150304010936F
:101E9000F70810929B0088E180939A008CE0809371
:101EA0009D00832F992780939800209399000E948A
:101EB000270F8091F70881118C9A813051F480911D
:101EC0009A008F7E80939A00949A80919A008F77DF
:101ED0000EC0823039F480919A00806180939A001C
:101EE000949802C0882329F480919A008068809396
:101EF0009A001F9108958091F708882389F0949A99
:101F000080919A008F7E80939A0065E070E080E077
:101F100090E00E94761480919A008F7780939A00C7
:101F200008958091F7088823A9F080919B0086FF8F
:101F3000FCCF62E070E080E090E00E947614809137
:101F40009A00806180939A00949880919A008068AA
:101F500080939A0008951F920F920FB60F9211244A
:101F60002F933F934F935F936F937F938F939F93A1
:101F7000AF93BF93CF93EF93FF93C0919C000E94C8
:101F8000230F982F8823C1F5CA3341F4C093B608B4
:101F900081E080939307909394070EC080919307FC
:101FA000882351F080919307E82FFF27EA54F74FD9
:101FB000C0838F5F809393078091B6088A33B1F412
:101FC00080919307E82FFF27EC54F74F80818D30E5
:101FD00069F480919307E82FFF27EB54F74F808136
:101FE0008A3021F481E08093940745C08091930763
:101FF000803409F040C033C08230E9F5CE3371F04F
:10200000CA3061F080919307E82FFF27EA54F74F19
:10201000C0838F5F809393071092940780919307FA
:10202000E82FFF27EB54F74F80818D30A1F481E03A
:102030008093940780919307803450F480919307A4
:10204000E82FFF27EA54F74F10828F5F80939307A2
:102050001092930710C080919307803461F440E49C
:1020600050E060E070E086EB98E00E94F338109258
:10207000930710929407FF91EF91CF91BF91AF9189
:102080009F918F917F916F915F914F913F912F9190
:102090000F900FBE0F901F901895982F80919B0066
:1020A00085FFFCCF90939C0080E090E008958091A4
:1020B0009B008823E4F780919C00992708958091E4
:1020C0009B009927807890700895AF92BF92CF922D
:1020D000DF92EF92FF921F93CF93DF93EC017B018E
:1020E0005A0169010E941F0F823011F40E947B0F78
:1020F0000E94230F882391F4182F88818A3061F081
:10210000FE01E10FF11D80810E944D101F5FFE0155
:10211000E10FF11D8081F2CF8AE013C0813099F484
:1021200010E088818D3061F0FE01E10FF11D8081AA
:102130000E944D101F5FFE01E10FF11D8081F2CF63
:102140008DE00E944D10E114F10441F40E941F0F34
:10215000823011F40E94910FB70138C00E94910F94
:1021600017E0C6010E942214C82F20C080919A0057
:102170008F7780939A0080919407882391F010E0E4
:1021800010939407A5014134510510F040E450E04C
:1021900066EB78E0C7010E94E6388C2F0E944E144F
:1021A0000AC080919A00806880939A008C2F0E94C8
:1021B0001214892BD9F68C2F0E944E140E941F0FE7
:1021C000813011F40E947B0F612F7727CB01DF91C3
:1021D000CF911F91FF90EF90DF90CF90BF90AF9085
:1021E0000895FB018F708A3010F4805D01C0895C16
:1021F000808380E090E00895FF920F931F93F82E64
:102200008B0182958F700E94F1100F5F1F4FB801F4
:102210008F2D8F700E94F11080E090E01F910F9140
:10222000FF900895EF92FF920F931F938C017B0113
:10223000812F99270E94FC1082E090E0E80EF91EA1
:10224000B701802F0E94FC1080E090E01F910F9159
:10225000FF90EF900895982FFB018154863010F481
:10226000865F04C0892F80538A3020F4808380E009
:1022700090E0089582E090E00895EF92FF920F932E
:102280001F93CF93DF93CDB7DEB721970FB6F894A6
:10229000DEBF0FBECDBF7C018B01BE016F5F7F4FE4
:1022A000FC0180810E942B11882389F48981829509
:1022B000807FF8018083BE016F5F7F4FF7018181CE
:1022C0000E942B11F80190812981920F9083992708
:1022D00021960FB6F894DEBF0FBECDBFDF91CF9130
:1022E0001F910F91FF90EF900895EF92FF920F933F
:1022F0001F93CF93DF93CDB7DEB721970FB6F89436
:10230000DEBF0FBECDBF7C018B01BE016F5F7F4F73
:102310000E943D118823B1F489819927982F88273D
:10232000F80191838083BE016F5F7F4FC7010296E2
:102330000E943D119981F80120813181290F311DC1
:1023400031832083992721960FB6F894DEBF0FBE04
:10235000CDBFDF91CF911F910F91FF90EF90089526
:102360009F92AF92BF92CF92DF92EF92FF920F9324
:102370001F93CF93DF93CDB7DEB721970FB6F894B5
:10238000DEBF0FBECDBF6B015A019924EE24FF249E
:10239000E616F706B0F48C01BE016F5F7F4FC801EF
:1023A0000E943D11882311F0992712C082E090E02D
:1023B000E80EF91E080F191F8981980EEC14FD0410
:1023C00058F3B501892D81950E94FC1080E090E0C2
:1023D00021960FB6F894DEBF0FBECDBFDF91CF912F
:1023E0001F910F91FF90EF90DF90CF90BF90AF9033
:1023F0009F900895AF92BF92CF92DF92FF920F937A
:102400001F93CF93DF938C016B01FC01848D81308E
:1024100031F48181833019F48BE390E002C081E1D3
:1024200090E04817590718F484E090E062C0E60194
:102430008AE389935E01BE01F80180810E94FC104D
:102440002296BE01F80181810E94FC102296F801BB
:10245000848D813059F48181833041F4828193816C
:10246000BE01880F0E94FC10229607C0BE01F80131
:10247000828193810E9412112496BE01F801848109
:1024800095810E9412112496F801248D2130E9F4DF
:1024900081818330D1F4F22E828193810297A8F05A
:1024A000EF2DFF27EE0FFF1FE00FF11FBE0184810C
:1024B00095810E9412112496F3942F2D3327F80151
:1024C000828193812817390758F3CE018C199D0911
:1024D0000197AE01BC01C5010E94B011882311F023
:1024E000992707C022968DE089938AE0888380E04F
:1024F00090E0DF91CF911F910F91FF90DF90CF90EF
:10250000BF90AF900895AF92BF92CF92DF92EF92BB
:10251000FF920F931F93CF93DF93CDB7DEB723972F
:102520000FB6F894DEBF0FBECDBF8C017B018DE1ED
:10253000FB0111928A95E9F7CC24DD24F801808112
:102540008D3019F481818A3041F00894C11CD11C6E
:1025500031968BE3C816D10490F39BE3C916D104DE
:1025600019F485E090E098C0E2E0F0E0CE0EDF1EC6
:10257000C601059758010894A11CB11CAE014F5F1C
:102580005F4FBC01C5010E94B011882309F080C0D3
:10259000F801EC0DFD1D34979981808134969817D0
:1025A00029F433979A818081981719F083E090E09D
:1025B00073C08501B701C5010E943D11882309F050
:1025C00067C00E5F1F4FC7010196BC01C8010E9482
:1025D0003D11882309F05CC0F7018181833009F047
:1025E00040C0F1E1CF16D104E1F181E0F701848F21
:1025F0000E5F1F4FBE016D5F7F4FC8010E943D11EE
:10260000882309F045C08B8186958B838C3010F42C
:10261000992702C08CE090E0F701938382830E5FDC
:102620001F4F1B824B81892BA9F1842F9927880F7B
:10263000991F8E0D9F1D0496BC01C8010E94751143
:10264000882331F58B818F5F8B830C5F1F4F482F61
:10265000282F3327F701828193812817390728F320
:1026600019C00E5F1F4FF701148EC7010296BC01FF
:10267000C8010E947511882359F484E090E0E80EA7
:10268000F91EB701C80104960E947511882311F044
:10269000992702C080E090E023960FB6F894DEBF41
:1026A0000FBECDBFDF91CF911F910F91FF90EF90A3
:1026B000DF90CF90BF90AF900895899A0895919A36
:1026C000AA27BB27BC01CD010E94761491980895DA
:1026D0009C01919A8091FA089091FB0882179307C8
:1026E00038F08091FA089091FB088F5F9F4F51F46A
:1026F0008FEF2F3F380711F42EEF3FEF3093FB0899
:102700002093FA0808952FEF3FEF8FE1E8EFF8E00C
:10271000318320833296815087FFFACF87B782605A
:1027200087BF83E781BF8DE083BF08951F920F921B
:102730000FB60F9211242F933F934F935F936F9394
:102740007F938F939F93AF93BF93EF93FF932FE16B
:10275000E8EFF8E080819181892B51F080819181AF
:102760008F5F9F4F29F080819181019791838083B2
:102770002150329627FFEECF8091FA089091FB0806
:10278000019709F491980E9498068091AB0190916D
:10279000AC0101979093AC018093AB018091AB01A8
:1027A0009091AC018F5F9F4FC9F4809199079091F0
:1027B0009A07A0919B07B0919C070196A11DB11D9E
:1027C0008093990790939A07A0939B07B0939C07D7
:1027D0008AEE93E09093AC018093AB0180919507D2
:1027E00090919607A0919707B09198070196A11D27
:1027F000B11D8093950790939607A0939707B09388
:102800009807FF91EF91BF91AF919F918F917F9129
:102810006F915F914F913F912F910F900FBE0F904D
:102820001F901895F894803248F4E82FFF27EE0F98
:10283000FF1FE850F74F8081918102C080E090E057
:10284000789408959C01F89442E0ECEFF8E08081E0
:1028500091818F5F9F4F49F4C9012FEF8F3F9207FE
:1028600009F401979183808304C04F5F3296403210
:1028700070F37894842F99270895F8942FEF8F3F61
:10288000920709F401979093F9088093F8087894D7
:1028900080E00E941214892BD9F70895E82FF8944C
:1028A00082508E3148F4FF27EE0FFF1FE850F74F9C
:1028B0008FEF9FEF9183808378940895DC01CB01A3
:1028C0009C01AD0162E056954795379527956A952D
:1028D000D1F7880F991FAA1FBB1F820F931FA41F38
:1028E000B51F0197A109B109E0F70895DC01CB01FB
:1028F000BC01CD0128EE33E040E050E00E940D3BEA
:10290000DC01CB01BC01CD010E945E14089530E0D2
:102910002DE1ECEFF8E0808191818F5F9F4F09F40A
:102920003F5F2150329627FFF6CF832F99270895D6
:10293000109248098FEF80934B098093490987E0F3
:10294000E8E3F9E011921192815087FFFBCF8FEFFE
:1029500084BB8898089510924809089590914B0976
:10296000292F3327E82FFF270E2E02C035952795F4
:102970000A94E2F720FF22C08091490999270E2E80
:1029800002C0959587950A94E2F7AC0141705070AA
:1029900080FD14C081E090E00E2E02C0880F991FC8
:1029A0000A94E2F720914809282B20934809EE0F5A
:1029B000FF1FE85CF64F51834083089580914B09D7
:1029C00099270E2E02C0959587950A94E2F780FD0F
:1029D00010C08091490999270E2E02C095958795C0
:1029E0000A94E2F780FF05C082E390E00E9468133A
:1029F000089580914B0999270E2E02C095958795D1
:102A00000A94E2F780FD37C08091490999270E2E7C
:102A100002C0959587950A94E2F780FD2CC0DF01EE
:102A2000AE0FBF1FA85CB64F2D913C9111972F5F41
:102A30003F4F11963C932E938091AD019091AE0142
:102A40004091AF015091B001840F951F82179307F9
:102A500090F481E090E002C0880F991FEA95E2F7B8
:102A600020914809282B209348094D935C9384E1D9
:102A700090E00E94681308951F93CF93DF93809195
:102A80004B098093490910E0C0E0D0E081E090E07C
:102A90000C2E02C0880F991F0A94E2F7809585BB1F
:102AA00065E070E080E090E00E945E1490E089E0D4
:102AB00080999F5F815087FFFBCF983070F081E055
:102AC00090E00C2E02C0880F991F0A94E2F7209123
:102AD0004B09282B20934B0911C0933078F481E0E7
:102AE00090E00C2E02C0880F991F0A94E2F7982FED
:102AF000909580914B09892380934B09812F0E94E7
:102B0000AE141F5F2196183008F4C0CFDF91CF912B
:102B10001F91089580914A09815080934A098F3FFF
:102B200029F48AE080934A090E943C150895C39ACB
:102B3000C2982FE097FF02C0C49A01C0C498C398FE
:102B4000880F991FC39A215027FFF4CFC29A089586
:102B5000BA9ABB9ABC9A80E090E10E94971580E0F7
:102B600090EC0E94971580E090EE0E94971588E601
:102B700090E20E9497150895EF92FF920F931F9392
:102B80007B018C0188E690E20E9497158FEF9FEF02
:102B9000AFEFBFE0E822F9220A231B23C7019F738E
:102BA00090640E9497154EE016950795F794E79468
:102BB0004A95D1F7C7019F7390640E9497151F91A2
:102BC0000F91FF90EF9008952F923F924F925F9256
:102BD0006F927F928F929F92AF92BF92CF92DF922D
:102BE000EF92FF920F931F93683622E4720720E062
:102BF000820720E0920720F468E672E480E090E02B
:102C0000613325E7720720E0820720E0920720F079
:102C100060E375E780E090E060935009709351099C
:102C2000809352099093530928EC30E040E050E043
:102C30000E940D3B4B015C01CC24DC2CEC2CFC2CC9
:102C40000CE1262F392D4A2D5B2D6C2D7C2D8C2DE2
:102C50009C2D0E948530222E332E442E552E662E1A
:102C6000772E882E992EAC2CBC2C51EEC52E0D2D16
:102C70001D2D222D332D442D552D662D772D882D7C
:102C8000992D0E942A31A22EB32EC42ED52EC60114
:102C9000B5010E94BC15A0924C09B0924D09C0929A
:102CA0004E09D0924F091F910F91FF90EF90DF9046
:102CB000CF90BF90AF909F908F907F906F905F90DC
:102CC0004F903F902F9008959927FC0124E0EE0F3C
:102CD000FF1F2A95E1F7E80FF91FEC5AF64F86819E
:102CE000978126853785821B930B008802C09595B6
:102CF00087950A94E2F708951F920F920FB60F92EC
:102D00001124AF92BF92CF92DF92FF920F931F9345
:102D10002F933F934F935F936F937F938F939F93E3
:102D2000AF93BF93CF93DF93EF93FF9344B135B14C
:102D3000F0908809EF2DFF27EF54FE4F2081822F5E
:102D400099278C0154E0000F111F5A95E1F7080FE5
:102D5000191F0C5A164F832F9927982F8827840FF5
:102D6000911DF80197838683822F0E946416AA27FB
:102D700097FDA095BA2FF801A084B184C284D384B2
:102D8000A80EB91ECA1EDB1EA086B186C286D386D7
:102D90008281938101969383828324813581821776
:102DA000930778F01382128244275527C601B50194
:102DB0000E94753BF801358724871086118612869C
:102DC00013868F2D8F5F80938809E82FFF27EF549C
:102DD000FE4F80818F3F11F41092880980918809FD
:102DE000E82FFF27EF54FE4F808190918709890FCC
:102DF00087B9369AFF91EF91DF91CF91BF91AF9153
:102E00009F918F917F916F915F914F913F912F9102
:102E10001F910F91FF90DF90CF90BF90AF900F90D8
:102E20000FBE0F901F901895482F80939D0795E037
:102E300020E032E0E4E5F9E082E010829183138241
:102E40001282358324831782168210861186128699
:102E500013861586148617861686108A81507196F9
:102E600087FFEBCF8FEF91E0909363098093620926
:102E7000909374098093730987E086B9379A80E448
:102E8000809387098091B101413039F4109288090B
:102E9000805C87B9339A369A089510928809805CCD
:102EA00087B933980895482F833008F040E0809127
:102EB0008709840F87B9369A3699FECF34B125B188
:102EC000842F9927FC0174E0EE0FFF1F7A95E1F73C
:102ED000E80FF91FEC5AF64F822F9927982F882771
:102EE000830F911D97838683842F0E946416089513
:102EF0009927FC01A4E0EE0FFF1FAA95E1F7E80F68
:102F0000F91FEC5AF64F848595850895EF92FF924C
:102F10000F931F93CF93DF9380918809E82FFF27AA
:102F2000EF54FE4F108180919D07813009F45AC003
:102F3000812F9927EC01B4E0CC0FDD1FBA95E1F7A2
:102F4000C80FD91FCC5AD64F8881882321F00E9400
:102F50001214892BC9F5812F0E945317AA2797FDB8
:102F6000A095BA2FE884F9840A851B85E80EF91E1E
:102F70000A1F1B1FE886F9860A871B878A819B81A7
:102F800001969B838A834C815D819A012150304058
:102F90002817390788F41B821A82CA01AA27BB277F
:102FA0009C01AD01C801B7010E94753B3D872C878C
:102FB000188619861A861B8688810E944E1489817C
:102FC00099270E9422148883809188098F5F8093BB
:102FD0008809E82FFF27EF54FE4F80818F3F11F4BF
:102FE00010928809DF91CF911F910F91FF90EF9080
:102FF00008959927FC0124E0EE0FFF1F2A95E1F7C1
:10300000E80FF91FEC5AF64F8481958108958330BB
:1030100008F080E06115710511F461E070E0992716
:10302000FC0134E0EE0FFF1F3A95E1F7E80FF91FBE
:10303000EC5AF64F7583648308959927FC0144E0A8
:10304000EE0FFF1F4A95E1F7E80FF91FEC5AF64F14
:10305000818199270895833008F080E09927FC0149
:1030600054E0EE0FFF1F5A95E1F7E80FF91FEC5AF5
:10307000F64F6183089590919D07282F3327913053
:1030800089F4F90174E0EE0FFF1F7A95E1F7E20F82
:10309000F31FEC5AF64F848195816AE070E00E943C
:1030A0002C3B16C0F90164E0EE0FFF1F6A95E1F7B3
:1030B000E20FF31FEC5AF64F8181282F33278481CA
:1030C0009581829FB001839F700D929F700D112496
:1030D000CB010895AA2797FDA095BA2FBC01CD0179
:1030E0000E940B3ADC01CB012DEC3CEC4CE45DE39F
:1030F000BC01CD010E94C53ADC01CB01BC01CD0170
:10310000089520E030E0A1E0BAE0A9011C92FA01A4
:10311000E757F64F8DE190E011921192019797FFDA
:10312000FBCF2F5F3F4F445C5F4F1196223031053C
:103130006CF3089580919E078F5F80939E07823085
:1031400011F410929E07089580919E07882319F428
:1031500082E080939E0780919E07815080939E0716
:10316000089580919E07E82FFF27DF01AF5FB54FDD
:103170008C918F5F8C938E3109F41C922C918EE18F
:1031800090E0E89FA001E99F500DF89F500D112499
:10319000FA01E20FF11DEE0FFF1FE757F64F808196
:1031A0009181892B09F41C92089580919E07282F04
:1031B0003327F901EF5FF54F8081882311F48EE109
:1031C0008083DF018EE190E0289FA001299F500DB0
:1031D000389F500D11242C9121502C93FA01E20FAD
:1031E000F11DEE0FFF1FE757F64F80819181892B6C
:1031F00011F4222381F7089580919E07992708955D
:1032000080919E07E82FFF27EF5FF54F8081992778
:10321000089580919E07282F3327F901EF5FF54F1E
:1032200040818EE190E0289FF001299FF00D389FAA
:10323000F00D1124E40FF11DEE0FFF1FE757F64FBD
:103240000190F081E02D0995089580E091E290933E
:103250008A09809389098BEB9CE190938C09809378
:103260008B098BE49CE190938E0980938D0984E710
:103270009BE19093900980938F0980E99BE1909363
:103280009209809391098DE69BE290939409809333
:1032900093098BE49FE1909396098093950985E6C5
:1032A0009FE190939809809397098FE79FE190930E
:1032B0009A098093990982E99BE290939C098093F3
:1032C0009B098AE08093090A83EB9FE190939E0912
:1032D00080939D0983E394E29093C6098093C50986
:1032E0008BE993E29093C8098093C70989E896E235
:1032F0009093CA098093C90985EE96E29093CC0910
:103300008093CB098BE19DE19093CE098093CD0909
:103310008CE79DE19093D0098093CF0984E89EE1EA
:103320009093D2098093D1098CED9EE19093D409BA
:103330008093D30984ED9DE19093D6098093D509BC
:1033400081E39EE19093D8098093D70982E09AE2C5
:103350009093DA098093D9098BEC94E29093DC097D
:103360008093DB098FE795E29093DE098093DD0976
:103370008BE195E29093E0098093DF0981E196E289
:103380009093E2098093E1098DE496E29093E40939
:103390008093E3098AED9AE29093E6098093E50928
:1033A00083E29BE29093E8098093E70986EC95E23B
:1033B0009093EA098093E90982E49AE29093EC09F8
:1033C0008093EB0989E79AE29093EE098093ED09E7
:1033D0008BE298E29093F0098093EF0984ED98E2F4
:1033E0009093F2098093F10987EB91E29093F409AD
:1033F0008093F30980E392E29093F6098093F509B4
:1034000089EA92E29093F8098093F70908958091F0
:10341000480986FF07C00E94D518809148098F7B14
:10342000809348098091480983FF07C00E94B11822
:1034300080914809877F809348098091480987FFD8
:1034400007C00E949A18809148098F778093480995
:103450008091480980FF07C00E94AE06809148090C
:103460008E7F809348098091480981FF12C00E9495
:103470006D2D882311F080E005C080937D07809337
:103480007C0785E00E942F07809148098D7F8093FB
:10349000480908958091500990915109A0915209CD
:1034A000B0915309BF93AF939F938F9384E492E0BD
:1034B0009F938F9386E698E09F938F930E94353970
:1034C000809148092DB73EB7285F3F4F0FB6F8945B
:1034D0003EBF0FBE2DBF84FF39C08091500990912F
:1034E0005109A0915209B09153090196A11DB11D36
:1034F0008093500990935109A0935209B0935309B6
:103500002091030A3091040A4091050A5091060A5D
:10351000281739074A075B0740F420935009309376
:103520005109409352095093530980915009909149
:103530005109A0915209B0915309BC01CD010E94DB
:10354000E415809148098F7E80934809809148094D
:1035500082FF39C08091500990915109A091520980
:10356000B09153090197A109B10980935009909333
:103570005109A0935209B093530920910A0A30913E
:103580000B0A40910C0A50910D0A82179307A40769
:10359000B50740F4209350093093510940935209E4
:1035A000509353098091500990915109A09152096B
:1035B000B0915309BC01CD010E94E41580914809E6
:1035C0008B7F809348090E94071A0895CF92DF925B
:1035D000EF92FF920F931F93CF93DF93CDB7DEB798
:1035E000E2970FB6F894DEBF0FBECDBF86E6C82EB9
:1035F00088E0D82E8AE1E5E5F2E0D60101900D924F
:103600008A95E1F78091480985FF5DC0809148095E
:103610008F7D80934809EE24FF248E2D0E94D22BAB
:103620000091070A1091080A000F111F80E00E9404
:103630003B18080F191FC801AA27BB27BC01CD01E1
:103640000E94761480E00E9478179F938F93809158
:103650000F0A99279F938F938FE692E09F938F9302
:10366000DF92CF920E9435390E94D30E80E00E94F3
:1036700078179F938F9380910F0A99279F938F9329
:103680008EE792E09F938F938E010F5F1F4F1F93E2
:103690000F930E94353920E030E0A901B901C8013B
:1036A0000E9465108DB79EB740960FB6F8949EBFE6
:1036B0000FBE8DBF0894E11CF11C9FEFE916F104C9
:1036C00009F008F4AACF0E94071AE2960FB6F89400
:1036D000DEBF0FBECDBFDF91CF911F910F91FF9045
:1036E000EF90DF90CF900895F89482E00E946416E6
:1036F00078949F938F9383E992E09F938F9386E6CC
:1037000098E09F938F930E9435390E94071A8DB7D6
:103710009EB706960FB6F8949EBF0FBE8DBF089554
:103720000E945C2CDC01CB01BF93AF939F938F93DE
:1037300083EA92E09F938F9386E698E09F938F931E
:103740000E9435390E94071A8DB79EB708960FB6AA
:10375000F8949EBF0FBE8DBF08958091500990913F
:103760005109A0915209B0915309BF93AF939F9310
:103770008F9384EC92E09F938F9386E698E09F93DB
:103780008F930E943539809148092DB73EB7285F45
:103790003F4F0FB6F8943EBF0FBE2DBF84FF3AC017
:1037A0008091500990915109A0915209B09153090B
:1037B0008C599F4FAF4FBF4F809350099093510941
:1037C000A0935209B09353092091030A3091040A3F
:1037D0004091050A5091060A281739074A075B07E6
:1037E00040F420935009309351094093520950936B
:1037F00053098091500990915109A0915209B091BB
:103800005309BC01CD010E94E415809148098F7EC7
:10381000809348098091480982FF3AC080915009FD
:1038200090915109A0915209B0915309845690404A
:10383000A040B0408093500990935109A093520941
:10384000B093530920910A0A30910B0A40910C0A57
:1038500050910D0A82179307A407B50740F42093EF
:103860005009309351094093520950935309809164
:10387000500990915109A0915209B0915309BC018E
:10388000CD010E94E415809148098B7F80934809FF
:103890000E94071A089580910F0A0E94ED2BDC0107
:1038A000CB01BF93AF939F938F9386ED92E09F934D
:1038B0008F9386E698E09F938F930E94353980918D
:1038C00048092DB73EB7285F3F4F0FB6F8943EBF6B
:1038D0000FBE2DBF84FF25C040910F0A442329F459
:1038E0008091120A80930F0A13C06091110A862FEB
:1038F0009927841B910950915B06252F3327821746
:1039000093071CF460930F0A03C0450F40930F0AFE
:1039100080910F0A0E94D22B809148098F7E80935C
:1039200048098091480982FF23C040910F0A5091B5
:10393000120A451719F410920F0A11C0242F3327C9
:1039400060915B06E52FE60FF12DF11D2E173F0765
:103950001CF450930F0A03C0461B40930F0A80913A
:103960000F0A0E94D22B809148098B7F80934809CF
:103970000E94071A08958091170A992701969F932C
:103980008F938CEE92E09F938F9386E698E09F93BF
:103990008F930E943539809148092DB73EB72A5F31
:1039A0003F4F0FB6F8943EBF0FBE2DBF84FF1EC021
:1039B00060917106262F33274091170A241B310985
:1039C00050917206852F9927281739071CF46093A8
:1039D000170A03C0450F4093170A8091170A0E94E7
:1039E000B62D809148098F7E8093480980914809BF
:1039F00082FF1EC04091170A242F33276091C4070D
:103A000050917206E62FE50FF12DF11D2E173F079D
:103A10001CF46093170A03C0451B4093170A80915A
:103A2000170A0E94B62D809148098B7F8093480920
:103A30000E94071A08958091100A0E94ED2BDC0164
:103A4000CB01BF93AF939F938F9387E093E09F93B6
:103A50008F9386E698E09F938F930E9435398091EB
:103A600048092DB73EB7285F3F4F0FB6F8943EBFC9
:103A70000FBE2DBF84FF1FC05091110A252F332781
:103A800070910E0A271B31094091100A241B31093D
:103A900060915B06862F99272817390724F4571B56
:103AA0005093100A03C0460F4093100A80914809B2
:103AB0008F7E809348098091480982FF1AC0409107
:103AC000100A242F33276091120A50915B06E62FCB
:103AD000E50FF12DF11D2E173F071CF46093100A1E
:103AE00003C0451B4093100A809148098B7F809347
:103AF00048090E94071A089580910E0A0E94ED2B32
:103B0000DC01CB01BF93AF939F938F9380E293E04F
:103B10009F938F9386E698E09F938F930E94353909
:103B2000809148092DB73EB7285F3F4F0FB6F894F4
:103B30003EBF0FBE2DBF84FF1FC05091110A252F1D
:103B4000332740910E0A241B31097091100A271B5C
:103B5000310960915B06862F99272817390724F4CD
:103B6000571B50930E0A03C0460F40930E0A8091D4
:103B700048098F7E809348098091480982FF11C0CF
:103B800080910E0A90915B06891718F410920E0A24
:103B900003C0891B80930E0A809148098B7F809314
:103BA00048090E94071A08958091180A99270196DA
:103BB0009F938F938AE393E09F938F9386E698E099
:103BC0009F938F930E943539809148092DB73EB756
:103BD0002A5F3F4F0FB6F8943EBF0FBE2DBF84FF44
:103BE0001FC050917106252F33277091190A271B8A
:103BF00031094091180A241B310960917206862F01
:103C000099272817390724F4571B5093180A03C023
:103C1000460F4093180A809148098F7E8093480987
:103C20008091480982FF1AC04091180A242F332737
:103C30006091C40750917206E62FE50FF12DF11D3A
:103C40002E173F071CF46093180A03C0451B4093CE
:103C5000180A809148098B7F809348090E94071AAF
:103C600008958091190A99279F938F9381E593E096
:103C70009F938F9386E698E09F938F930E943539A8
:103C8000809148092DB73EB72A5F3F4F0FB6F89491
:103C90003EBF0FBE2DBF84FF1FC050917106252F60
:103CA00033274091190A241B31097091180A271BE8
:103CB000310960917206862F99272817390724F455
:103CC000571B5093190A03C0460F4093190A80915D
:103CD00048098F7E809348098091480982FF11C06E
:103CE0008091190A90917206891718F41092190A96
:103CF00003C0891B8093190A809148098B7F8093A8
:103D000048090E94071A08958091480982FF29C036
:103D10009091180A8091190A492F480F512D511D71
:103D20009A0140917106842F9927281739073CF48E
:103D30008091C407841718F44150409371060E9483
:103D40006D2D882349F08091170A9091710698177C
:103D500018F4892F0E94B62D809148098B7F80939B
:103D600048098091480984FF0CC080917106833610
:103D700018F48F5F80937106809148098F7E80933D
:103D8000480980917106992701969F938F938BE63E
:103D900093E09F938F9386E698E09F938F930E9482
:103DA00035390E94071A8DB79EB706960FB6F8945C
:103DB0009EBF0FBE8DBF08958091480982FF0CC041
:103DC0008091C407863418F081508093C407809195
:103DD00048098B7F809348098091480984FF1FC060
:103DE0008091180A9091C407981738F48091710651
:103DF000981718F49F5F9093C4070E946D2D882335
:103E000049F08091170A9091C407891718F4892FF7
:103E10000E94B62D809148098F7E80934809809139
:103E2000C407992701969F938F9381E893E09F930E
:103E30008F9386E698E09F938F930E9435390E9476
:103E4000071A8DB79EB706960FB6F8949EBF0FBEA1
:103E50008DBF089580914C0990914D09A0914E0914
:103E6000B0914F09BF93AF939F938F9388E993E0ED
:103E70009F938F9386E698E09F938F930E943539A6
:103E80000E94071A8DB79EB708960FB6F8949EBF8A
:103E90000FBE8DBF089580E00E9478179F938F9387
:103EA0008DEA93E09F938F9386E698E09F938F939C
:103EB0000E9435390E94071A8DB79EB706960FB635
:103EC000F8949EBF0FBE8DBF089581E00E947817C1
:103ED0009F938F9388EB93E09F938F9386E698E070
:103EE0009F938F930E9435390E94071A8DB79EB712
:103EF00006960FB6F8949EBF0FBE8DBF089582E060
:103F00000E9478179F938F9383EC93E09F938F93F6
:103F100086E698E09F938F930E9435390E94071A96
:103F20008DB79EB706960FB6F8949EBF0FBE8DBF95
:103F3000089583E00E9478179F938F938EEC93E00F
:103F40009F938F9386E698E09F938F930E943539D5
:103F50000E94071A8DB79EB706960FB6F8949EBFBB
:103F60000FBE8DBF0895CF93DF938091480985FFE1
:103F700043C080919F078823D1F50E94940681E079
:103F80000E943B182091070A3091080A280F391F18
:103F90003093AC072093AB0780910A0A90910B0AEB
:103FA000A0910C0AB0910D0ABC01CD010E94E4154C
:103FB00080910A0A90910B0AA0910C0AB0910D0A07
:103FC0008093A0079093A107A093A207B093A307A3
:103FD0008093A4079093A507A093A607B093A70783
:103FE0001092A9071092A80781E080939F07809103
:103FF00048098F7D8093480980919F07882309F4A1
:10400000F1C02091500930915109409152095091CD
:1040100053098091030A9091040AA091050AB09176
:10402000060A281739074A075B0708F095C08091F0
:10403000AA07882349F48091AB079091AC070E94AE
:1040400022148093AA07D9C00E941214892B09F068
:10405000D4C08091AA070E944E141092AA07F89427
:1040600081E00E947817EC0178940E946A18DC01C4
:10407000CB01BF93AF939F938F9380915009909101
:104080005109A0915209B0915309BF93AF939F93E7
:104090008F938DED93E09F938F9386E698E09F93A7
:1040A0008F930E9435398091A8079091A9072DB769
:1040B0003EB7245F3F4F0FB6F8943EBF0FBE2DBFF3
:1040C0008C179D07A8F4D093A907C093A8078091E7
:1040D000500990915109A0915209B09153098093D0
:1040E000A0079093A107A093A207B093A30713C0C2
:1040F000C817D90781F48091500990915109A09176
:104100005209B09153098093A4079093A507A093F7
:10411000A607B093A7078091500990915109A091EB
:104120005209B09153092091D9033091DA0340919B
:10413000DB035091DC03820F931FA41FB51F8093F4
:10414000500990935109A0935209B0935309BC01AF
:10415000CD010E94E41551C08091A4079091A5075C
:10416000A091A607B091A7072091A0073091A107C1
:104170004091A2075091A30782179307A407B507A0
:1041800040F42093A4073093A5074093A6075093CB
:10419000A7078091A4079091A507A091A607B091C9
:1041A000A707280F391F4A1F5B1F5695479537955C
:1041B0002795CA01B9010E94E4159091100A8091D7
:1041C0000E0A890F0E94D22B9091180A8091190A29
:1041D000890F0E94B62D0E94B1180E942F091092DB
:1041E0009F070BC085E1A4EFB3E0E6E6F8E00D9091
:1041F00001928A95E1F70E94071ADF91CF91089505
:104200000F931F938091480984FF39C08091500912
:1042100090915109A0915209B09153090196A11DA5
:10422000B11D8093500990935109A0935209B09306
:1042300053092091030A3091040A4091050A5091D4
:10424000060A281739074A075B0740F420935009EC
:10425000309351094093520950935309809150096A
:1042600090915109A0915209B0915309BC01CD011F
:104270000E94E415809148098F7E809348098091BF
:10428000480982FF39C08091500990915109A0914D
:104290005209B09153090197A109B10980935009BE
:1042A00090935109A0935209B093530920910A0A9F
:1042B00030910B0A40910C0A50910D0A8217930716
:1042C000A407B50740F42093500930935109409357
:1042D0005209509353098091500990915109A0912E
:1042E0005209B0915309BC01CD010E94E41580919F
:1042F00048098B7F8093480981E00E9478178C01E0
:1043000080E00E9478170E946A18DC01CB01BF93FD
:10431000AF939F938F93C8010E946A18DC01CB0171
:10432000BF93AF939F938F938091500990915109C0
:10433000A0915209B0915309BF93AF939F938F936C
:1043400089E094E09F938F9386E698E09F938F9304
:104350000E9435390E94071A8DB79EB740960FB656
:10436000F8949EBF0FBE8DBF1F910F91089580914D
:10437000480984FF0DC080E00E94F9170196BC0136
:1043800080E00E940718809148098F7E8093480939
:104390008091480982FF0DC080E00E94F9170197C3
:1043A000BC0180E00E940718809148098B7F8093B0
:1043B000480980E00E94F9179F938F9388E294E068
:1043C0009F938F9386E698E09F938F930E94353951
:1043D0000E94071A8DB79EB706960FB6F8949EBF37
:1043E0000FBE8DBF08958091480984FF0DC080E005
:1043F0000E941D188F5F682F80E00E942B1880910B
:1044000048098F7E809348098091480982FF0DC03A
:1044100080E00E941D188150682F80E00E942B18B8
:10442000809148098B7F8093480980E00E941D1885
:1044300099279F938F9389E394E09F938F9386E6C8
:1044400098E09F938F930E9435390E94071A8DB789
:104450009EB706960FB6F8949EBF0FBE8DBF089507
:104460008091480984FF0DC081E00E94F9170196F0
:10447000BC0181E00E940718809148098F7E8093DB
:1044800048098091480982FF0DC081E00E94F91718
:104490000197BC0181E00E940718809148098B7F39
:1044A0008093480981E00E94F9179F938F9389E4D4
:1044B00094E09F938F9386E698E09F938F930E945A
:1044C00035390E94071A8DB79EB706960FB6F89435
:1044D0009EBF0FBE8DBF08958091480984FF0DC017
:1044E00081E00E941D188F5F682F81E00E942B18C9
:1044F000809148098F7E809348098091480982FF06
:104500000DC081E00E941D188150682F81E00E943B
:104510002B18809148098B7F8093480981E00E9485
:104520001D1899279F938F938AE594E09F938F930B
:1045300086E698E09F938F930E9435390E94071A70
:104540008DB79EB706960FB6F8949EBF0FBE8DBF6F
:1045500008958091480984FF0DC082E00E94F917F8
:104560000196BC0182E00E940718809148098F7E65
:10457000809348098091480982FF0DC082E00E9423
:10458000F9170197BC0182E00E9407188091480941
:104590008B7F8093480982E00E94F9179F938F9345
:1045A0008AE694E09F938F9386E698E09F938F939B
:1045B0000E9435390E94071A8DB79EB706960FB62E
:1045C000F8949EBF0FBE8DBF08958091480984FF67
:1045D0000DC082E00E941D188F5F682F82E00E944C
:1045E0002B18809148098F7E809348098091480953
:1045F00082FF0DC082E00E941D188150682F82E06A
:104600000E942B18809148098B7F8093480982E093
:104610000E941D1899279F938F938BE794E09F9397
:104620008F9386E698E09F938F930E9435390E947E
:10463000071A8DB79EB706960FB6F8949EBF0FBEA9
:104640008DBF08958091480984FF0DC083E00E94CA
:10465000F9170196BC0183E00E9407188091480970
:104660008F7E809348098091480982FF0DC083E0C6
:104670000E94F9170197BC0183E00E9407188091FE
:1046800048098B7F8093480983E00E94F9179F9324
:104690008F938BE894E09F938F9386E698E09F93A7
:1046A0008F930E9435390E94071A8DB79EB70696E0
:1046B0000FB6F8949EBF0FBE8DBF08958091480934
:1046C00084FF0DC083E00E941D188F5F682F83E078
:1046D0000E942B18809148098F7E80934809809111
:1046E000480982FF0DC083E00E941D188150682F89
:1046F00083E00E942B18809148098B7F80934809A2
:1047000083E00E941D1899279F938F938CE994E072
:104710009F938F9386E698E09F938F930E943539FD
:104720000E94071A8DB79EB706960FB6F8949EBFE3
:104730000FBE8DBF08958091480982FF29C08091E6
:104740000A0A90910B0AA0910C0AB0910D0A0197E8
:10475000A109B10980930A0A90930B0AA0930C0A4D
:10476000B0930D0A88569244A040B04060F488E6A9
:1047700092E4A0E0B0E080930A0A90930B0AA09321
:104780000C0AB0930D0A809148098B7F80934809E9
:104790008091480984FF46C080910A0A90910B0AD3
:1047A000A0910C0AB0910D0A0196A11DB11D809334
:1047B0000A0A90930B0AA0930C0AB0930D0A209159
:1047C000030A3091040A4091050A5091060A2817FD
:1047D00039074A075B0740F420930A0A30930B0A13
:1047E00040930C0A50930D0A809150099091510901
:1047F000A0915209B091530920910A0A30910B0AF5
:1048000040910C0A50910D0A82179307A407B5072F
:1048100020F4CA01B9010E94E415809148098F7EF5
:104820008093480980910A0A90910B0AA0910C0A82
:10483000B0910D0ABF93AF939F938F938CEA94E04E
:104840009F938F9386E698E09F938F930E943539CC
:104850000E94071A8DB79EB708960FB6F8949EBFB0
:104860000FBE8DBF08958091480982FF46C0809198
:10487000030A9091040AA091050AB091060A0197D3
:10488000A109B1098093030A9093040AA093050A31
:10489000B093060A20910A0A30910B0A40910C0A43
:1048A00050910D0A82179307A407B50740F420938F
:1048B000030A3093040A4093050A5093060A809134
:1048C000500990915109A0915209B091530920913A
:1048D000030A3091040A4091050A5091060A2817EC
:1048E00039074A075B0720F4CA01B9010E94E415A1
:1048F000809148098B7F809348098091480984FF03
:1049000029C08091030A9091040AA091050AB091F0
:10491000060A0196A11DB11D8093030A9093040A13
:10492000A093050AB093060A81539547A040B04072
:1049300060F080E395E7A0E0B0E08093030A9093F5
:10494000040AA093050AB093060A809148098F7E55
:10495000809348098091030A9091040AA091050A66
:10496000B091060ABF93AF939F938F9380EC94E02E
:104970009F938F9386E698E09F938F930E9435399B
:104980000E94071A8DB79EB708960FB6F8949EBF7F
:104990000FBE8DBF08958091480982FF11C080919C
:1049A000C807813019F484E08093C8078091C80754
:1049B00081508093C807809148098B7F8093480974
:1049C0008091480984FF0FC08091C8078F5F809352
:1049D000C807843018F081E08093C80780914809A7
:1049E0008F7E809348098091C807282F3327C901FB
:1049F000880F991F880F991F820F931F805D9D4F0D
:104A00009F938F9385ED94E09F938F9386E698E034
:104A10009F938F930E9435398091C8070E94770633
:104A20000E94071A8DB79EB706960FB6F8949EBFE0
:104A30000FBE8DBF08958091480982FF1CC08091F0
:104A40000808813019F484E08093080880910808F0
:104A5000815080930808813019F40E94940606C0A2
:104A60000E946D2D882311F00E942F098091480922
:104A70008B7F809348098091480984FF1CC08091F6
:104A800008088F5F80930808843018F081E08093D5
:104A9000080880910808813019F40E94940606C025
:104AA0000E946D2D882311F00E942F0980914809E2
:104AB0008F7E8093480980910808282F3327C901E9
:104AC000880F991F880F991F820F931F845E9D4F37
:104AD0009F938F938EED94E09F938F9386E698E05B
:104AE0009F938F930E9435390E94071A8DB79EB706
:104AF00006960FB6F8949EBF0FBE8DBF08958091A5
:104B0000480982FF11C080910A08882319F482E0C5
:104B100080930A0880910A08815080930A08809146
:104B200048098B7F809348098091480984FF0EC013
:104B300080910A088F5F80930A08823010F01092EB
:104B40000A08809148098F7E8093480980910A085D
:104B5000813019F482EF94E002C086EF94E09F93D5
:104B60008F938BEF94E09F938F9386E698E09F93CB
:104B70008F930E9435390E94071A8DB79EB706960B
:104B80000FB6F8949EBF0FBE8DBF0895809148095F
:104B900082FF11C080917F07882319F482E08093FF
:104BA0007F0780917F07815080937F07809148091C
:104BB0008B7F809348098091480984FF0EC08091C3
:104BC0007F078F5F80937F07823010F010927F07FE
:104BD000809148098F7E8093480980917F078130BA
:104BE00019F482EF94E002C086EF94E09F938F93D4
:104BF00080E195E09F938F9386E698E09F938F9353
:104C00000E94353980917F070E9457060E94071A3B
:104C10008DB79EB706960FB6F8949EBF0FBE8DBF98
:104C200008958091480982FF0CC0809105081816EC
:104C30001CF4815080930508809148098B7F8093F4
:104C400048098091480984FF0CC0809105088A308A
:104C50001CF48F5F80930508809148098F7E8093B4
:104C6000480980910508992787FD90959F938F9318
:104C70008DE195E09F938F9386E698E09F938F93C5
:104C80000E9435390E94071A8DB79EB706960FB657
:104C9000F8949EBF0FBE8DBF08958091480982FF92
:104CA0000CC08091090818161CF4815080930908E3
:104CB000809148098B7F809348098091480984FF3F
:104CC0000CC0809109088A301CF48F5F809309081A
:104CD000809148098F7E809348098091090899271F
:104CE00087FD90959F938F9382E395E09F938F9399
:104CF00086E698E09F938F930E9435390E94071AA9
:104D00008DB79EB706960FB6F8949EBF0FBE8DBFA7
:104D100008958091480982FF29C09091100A8091DE
:104D20000E0A492F480F512D511D9A014091110A29
:104D3000842F9927281739073CF48091120A841789
:104D400018F441504093110A0E946D2D882349F0B8
:104D500080910F0A9091110A981718F4892F0E94D8
:104D6000D22B809148098B7F809348098091480914
:104D700084FF0CC08091110A8F3F19F08F5F8093E0
:104D8000110A809148098F7E809348098091110A09
:104D90000E94ED2BDC01CB01BF93AF939F938F93C8
:104DA00089E495E09F938F9386E698E09F938F9395
:104DB0000E9435390E94071A8DB79EB708960FB624
:104DC000F8949EBF0FBE8DBF08958091480982FF61
:104DD0000CC08091120A8B3018F081508093120A17
:104DE000809148098B7F809348098091480984FF0E
:104DF0001FC08091100A9091120A981738F4809180
:104E0000110A981718F49F5F9093120A0E946D2D53
:104E1000882349F080910F0A9091120A891718F49B
:104E2000892F0E94D22B809148098F7E8093480958
:104E30008091120A0E94ED2BDC01CB01BF93AF934E
:104E40009F938F9382E695E09F938F9386E698E0F9
:104E50009F938F930E9435390E94071A8DB79EB792
:104E600008960FB6F8949EBF0FBE8DBF08950F939E
:104E70001F93A0E0B0E08091030A9091040A0C0116
:104E80000E94E03BA2E0B0E080910A0A90910B0AF8
:104E90000C010E94E03BA4E0B0E0809150099091A9
:104EA00051090C010E94E03BA8E0B0E08091100A9B
:104EB000082E0E94D43BA6E0B0E080910E0A082E96
:104EC0000E94D43B09E010E080E00E941D18D80148
:104ED000082E0E94D43B0AE010E080E00E94F917FF
:104EE000D8010C010E94E03B0CE010E081E00E9440
:104EF0001D18D801082E0E94D43B0DE010E081E07F
:104F00000E94F917D8010C010E94E03B0FE010E06D
:104F100082E00E941D18D801082E0E94D43B00E1B7
:104F200010E082E00E94F917D8010C010E94E03BDA
:104F3000A5E1B0E08091C807082E0E94D43BA6E10D
:104F4000B0E08091070A9091080A0C010E94E03BB2
:104F5000A8E1B0E080910808082E0E94D43BA9E1A6
:104F6000B0E080910508082E0E94D43BAAE1B0E091
:104F700080910908082E0E94D43BABE1B0E08091FB
:104F8000110A082E0E94D43BACE1B0E08091120AD5
:104F9000082E0E94D43BADE1B0E080913F08909193
:104FA00040080C010E94E03B2FE130E080913F0877
:104FB00090914008A0914108B0914208AD01662748
:104FC0007727D9010A010E94E03BA1E2B0E080917D
:104FD000C907082E0E94D43BA2E2B0E08091130AD8
:104FE0009091140A0C010E94E03BA4E2B0E0809191
:104FF000150A9091160A0C010E94E03BA7E2B0E06E
:105000008091180A082E0E94D43BA6E2B0E080915D
:10501000190A082E0E94D43BA8E2B0E080917106E4
:10502000082E0E94D43BA9E2B0E08091C407082E6C
:105030000E94D43BAAE2B0E080910A08082E0E94A8
:10504000D43BABE2B0E080917F07082E0E94D43BB6
:105050001F910F9108958091480985FF16C00E9405
:10506000372785E1A1E8B5E0E6E6F8E00D9001928A
:105070008A95E1F70E94D30E84EF91E00E945F13BE
:10508000809148098F7D8093480985E1A6E9B5E0C4
:10509000E6E6F8E00D9001928A95E1F70E94071A82
:1050A0000895EF92FF921F9388E993E5A0E0B0E0A6
:1050B0008093030A9093040AA093050AB093060A0A
:1050C00082E093E5A0E0B0E080930A0A90930B0A97
:1050D000A0930C0AB0930D0A66E673E580E090E0B9
:1050E0000E94E41584E68093100A10920E0A78EC70
:1050F000E72EF12CF092080AE092070A11E01093D3
:10510000080810920A0810927F071093050885E09E
:10511000809309088FEF8093110A8AE08093120A26
:1051200080E092ECA1E0B0E080933F0890934008CB
:10513000A0934108B09342081093C9078BE490E014
:105140009093140A8093130A80E590E09093160AD6
:105150008093150A612F80E00E942B18B70180E030
:105160000E940718612F812F0E942B18B701812FF1
:105170000E940718612F82E00E942B18B70182E07D
:105180000E94071883E00E9477068FE58093180A33
:105190001092190A83E68093710685E48093C40710
:1051A0001F91FF90EF9008958091480985FF18C0E6
:1051B0000E9451280E94372785E1ABEAB5E0E6E678
:1051C000F8E00D9001928A95E1F70E94D30E84EFEA
:1051D00091E00E945F13809148098F7D8093480978
:1051E00085E1A0ECB5E0E6E6F8E00D9001928A9545
:1051F000E1F70E94071A0895A0E0B0E00E94CF3BBB
:10520000CF01AA27BB278093030A9093040AA09397
:10521000050AB093060AA2E0B0E00E94CF3BCF019E
:10522000AA27BB2780930A0A90930B0AA0930C0A23
:10523000B0930D0AA4E0B0E00E94CF3BCF01AA27B3
:10524000BB27BC01CD010E94E415A8E0B0E00E949C
:10525000C73B802D8093100AA6E0B0E00E94C73BB8
:10526000802D80930E0AA9E0B0E00E94C73B802DFC
:105270009927682F80E00E942B18AAE0B0E00E94D6
:10528000CF3BBF0180E00E940718ACE0B0E00E9475
:10529000C73B802D9927682F81E00E942B18ADE035
:1052A000B0E00E94CF3BBF0181E00E940718AFE051
:1052B000B0E00E94C73B802D9927682F82E00E94B2
:1052C0002B18A0E1B0E00E94CF3BBF0182E00E941A
:1052D0000718A5E1B0E00E94C73B802D0E94770629
:1052E000A6E1B0E00E94CF3BF093080AE093070AE2
:1052F000A8E1B0E00E94C73B802D80930808A9E197
:10530000B0E00E94C73B802D80930508AAE1B0E081
:105310000E94C73B802D80930908ABE1B0E00E945A
:10532000C73B802D8093110AACE1B0E00E94C73BDF
:10533000802D8093120AADE1B0E00E94CF3B9F0127
:105340004427552720933F08309340084093410855
:1053500050934208AFE1B0E00E94CF3BCF01AA27B3
:10536000BB27DC0199278827282B392B4A2B5B2B5D
:1053700020933F08309340084093410850934208DF
:10538000A1E2B0E00E94C73B802D8093C907A2E252
:10539000B0E00E94CF3BF093140AE093130AA4E21A
:1053A000B0E00E94CF3BF093160AE093150AA7E203
:1053B000B0E00E94C73B802D8093180AA6E2B0E0BF
:1053C0000E94C73B802D8093190AA8E2B0E00E949A
:1053D000C73B802D80937106A9E2B0E00E94C73BD5
:1053E000802D8093C407AAE2B0E00E94C73B802DC5
:1053F00080930A08ABE2B0E00E94C73B802D0E9478
:10540000570608958091070A9091080A9F938F93F9
:1054100085ED95E09F938F9386E698E09F938F9319
:105420000E943539809148092DB73EB72A5F3F4F1A
:105430000FB6F8943EBF0FBE2DBF84FF0EC0809103
:10544000070A9091080A01969093080A8093070A28
:10545000809148098F7E809348098091480982FF96
:105460000EC08091070A9091080A01979093080A4C
:105470008093070A809148098B7F809348090E9496
:10548000071A08958091C90799279F938F938BEEF0
:1054900095E09F938F9386E698E09F938F930E9469
:1054A0003539809148092DB73EB72A5F3F4F0FB677
:1054B000F8943EBF0FBE2DBF84FF0AC08091C9077C
:1054C0008F5F8093C907809148098F7E8093480938
:1054D0008091480982FF0AC08091C907815080935A
:1054E000C907809148098B7F809348090E94071A59
:1054F0000895CF93C0E020913F083091400840913B
:10550000410850914208E0E0F2E081919191A1912F
:10551000B191281739074A075B0719F0CF5FC730E9
:10552000A0F35F934F933F932F9387EF95E09F9363
:105530008F9386E698E09F938F930E9435398091F0
:1055400048092DB73EB7285F3F4F0FB6F8943EBFCE
:105550000FBE2DBF84FF09C0CF5FC73009F4C0E084
:10556000809148098F7E809348098091480982FF85
:1055700009C0CC2309F4C7E0C150809148098B7F52
:1055800080934809EC2FFF27EE0FFF1FEE0FFF1F40
:10559000E050FE4F80819181A281B38180933F08CA
:1055A00090934008A0934108B09342080E94071AC4
:1055B000CF9108958091480982FF10C08091130A0D
:1055C0009091140A009729F001979093140A809300
:1055D000130A809148098B7F80934809809148097C
:1055E00084FF16C08091150A9091160A2091130A23
:1055F0003091140A2817390730F42F5F3F4F30934A
:10560000140A2093130A809148098F7E80934809D9
:105610008091130A9091140A9F938F9387E096E0EC
:105620009F938F9386E698E09F938F930E943539DE
:105630000E94071A8DB79EB706960FB6F8949EBFC4
:105640000FBE8DBF08958091480982FF16C08091DA
:10565000130A9091140A2091150A3091160A8217A4
:10566000930730F4215030403093160A2093150AE6
:10567000809148098B7F809348098091480984FF75
:1056800011C08091150A9091160A8F35910528F462
:1056900001969093160A8093150A809148098F7E8F
:1056A000809348098091150A9091160A9F938F93D1
:1056B0008FE196E09F938F9386E698E09F938F9378
:1056C0000E9435390E94071A8DB79EB706960FB60D
:1056D000F8949EBF0FBE8DBF089580917E07282F3E
:1056E0003327C901B4E0880F991FBA95E1F7821BEF
:1056F000930B8B549E4F9F938F9387E396E09F93DA
:105700008F9386E698E09F938F930E9435390E948D
:10571000071A8DB79EB706960FB6F8949EBF0FBEB8
:105720008DBF089582E496E09F938F938BE496E07B
:105730009F938F9386E698E09F938F930E943539CD
:105740000E94071A8DB79EB706960FB6F8949EBFB3
:105750000FBE8DBF08951FBC1EBC10927A008FB57E
:1057600081608FBD8FB582608FBD8EB588608EBD24
:105770008EB580618EBDBD9A8FB580648FBDBE9A97
:105780008FB580618FBD8FB580628FBD8EB5816012
:105790008EBDF8948FEF90E09BBD8ABD19BC18BCFC
:1057A00078940895282F8091110A821708F4282FE1
:1057B000222329F08091120A281708F4282FF89440
:1057C000822F992799BD88BD789420930F0A089558
:1057D00019BC18BC10920F0A08959927AA2797FDA3
:1057E000A095BA2FBC01CD010E940B3ADC01CB0180
:1057F00020E030E040EC50E4BC01CD010E94C53A0D
:10580000DC01CB0120E030E04FE753E4BC01CD01E7
:105810000E94A839DC01CB01BC01CD0108951F9382
:10582000CF93DF93CDB7DEB729970FB6F894DEBFDD
:105830000FBECDBF10E08FEF8987BE016F5F7F4F36
:10584000CE0109960E949E2E29852F3FC1F02E3F42
:10585000B1F0E12FFF2783E0EE0FFF1F8A95E1F7FC
:10586000E155F84FDE01119697E08D9181939150AB
:1058700097FFFBCF1F5F222311F01230F0F2812F30
:10588000992729960FB6F894DEBF0FBECDBFDF91E2
:10589000CF911F9108950E940F2C8093BF0780E045
:1058A00090E0A0E0B0E08093C0079093C107A09380
:1058B000C207B093C30708958091C0079091C107B4
:1058C000A091C207B091C307BC01CD0108958F928A
:1058D0009F92AF92BF92CF92DF92EF92FF920F937F
:1058E0001F93CF93DF93CDB7DEB723970FB6F8940E
:1058F000DEBF0FBECDBF8091BF07882369F480E073
:1059000090E0A0E0B0E08093C0079093C107A0931F
:10591000C207B093C307C1C08091AD07882329F0A7
:105920000E941214892B09F0B8C08091AD070E9423
:105930004E148EEE92E00E9422148093AD07809167
:10594000AE07882349F46FEA77E081E00E94D32E06
:1059500081E08093AE07A1C01092AE079E012F5F39
:105960003F4FAE014E5F5F4FBE016D5F7F4F8FEACD
:1059700097E00E94EF2E882329F080E090E0A0E0DD
:10598000B0E01FC049816A818B810E94382E8C0152
:10599000C801AA2797FDA095BA2FBC01CD010E948E
:1059A0000B3A17FF06C020E030E040E857E40E94C1
:1059B000663920E030E040E251E40E94A839DC0181
:1059C000CB018093C0079093C107A093C207B09307
:1059D000C3070E946D2D882309F45FC00091150A4A
:1059E0001091160AC801AA2797FDA095BA2FBC01ED
:1059F000CD010E940B3A6B017C0117FF08C020E02B
:105A000030E040E857E40E9466396B017C010E9457
:105A10005C2C4B015C019B01AC01C701B6010E94EB
:105A2000153A882334F482E00E942F0788EE93E031
:105A300032C00091130A1091140AC801AA2797FDD9
:105A4000A095BA2FBC01CD010E940B3A17FF06C0EA
:105A500020E030E040E857E40E946639A501940157
:105A60000E94153A8823CCF485E1ACE5B6E0EEE877
:105A7000F8E00D9001928A95E1F70E94D30E84E63A
:105A800090E00E945F1364E670E080E090E00E9486
:105A9000761488EC90E00E945F1323960FB6F8947A
:105AA000DEBF0FBECDBFDF91CF911F910F91FF9051
:105AB000EF90DF90CF90BF90AF909F908F90089520
:105AC00080918B00806380938B00089580918B0080
:105AD0008F7C80938B001C9A089590918B0090711D
